:020000040000fa
:10000000f01f00201576000013760000ff78000036
:1000100000000000000000000000000000000000e0
:10002000000000000000000000000000cf6a000097
:100030000000000000000000cf6a0000cf6a00004e
:10004000cf6a0000cf6a0000cf6a0000cf6a0000cc
:1000500049790000cf6a0000cf6a0000cf6a000033
:10006000cf6a0000cf6a0000cf6a000000000000e5
:100070000000000075850000cf6a0000cf6a000014
:10008000cf6a0000cf6a0000cf6a000000000000c5
:1000900000000000cf6a0000cf6a0000cf6a0000b5
:0400a000cf6a000023
:020000040000fa
:1000a400f8b5c046f8bc08bc9e46704729790000e4
:1000b400f8b5c046f8bc08bc9e46704701790000fc
:020000040000fa
:1000c400f0b591b0070003910592049300260f96b2
:1000d4002b2304aa944663441e701c22002107a803
:1000e40008f030fd0b2404ab9c4664440b232370be
:1000f4000a2262441370092565442e7021003800d9
:1001040008f0f0fb2900380008f0acfcbb00db1958
:100114009b00d54ad31866225a702378002b5ed1ef
:10012400bb00db199b00d04a9b5c002b25d1bb0094
:10013400db199b00cc4ad3189b78002b2dd0012bc4
:1001440000d08ee10b2304aa944663441b78022b4f
:1001540000d086e10a2363441b78042b00d080e19d
:10016400092363441b78002b45d1bf4b14227a43e7
:100174000221d1549b18997073e1380005f006fcf4
:10018400b948ba00d3199b00c3180c21d973d219ea
:100194009200002111549970d972b34dbc00e31937
:1001a4009b00eb1800221a739a7b03218a439a73eb
:1001b400380007f0b1ff7b00db19db00ab4ad21833
:1001c40053780c218b4308210b435370380007f0fc
:1001d4009dfde419a4002c190123a37041e1a24a56
:1001e400bb00db199b00995c112900d939e18b0014
:1001f4009f4ad3589f469c4b14227a430f21d154d3
:100204009b182d229a7018235f43984bdb19ff32f9
:100214009a8026e1bb00db199b00934ad3189b7894
:10022400042b63d0052b48d0022b00d019e1bb006e
:10023400db199b00d318db7a022b15d9bb00db1921
:100244009b00d3189b7bda060ed59b0706d4bb0014
:10025400db199b000621844a995402e100220921fa
:10026400380008f05ffcfce02b2404ab9c4664449b
:1002740007aa2100380006f0bfff227800230121dd
:10028400380007f0a1fd0200bb00db199b00764992
:10029400cb189b7b9b070ed4764c7348bb00d919b3
:1002a400890041180d7b01350d730b0003219970f2
:1002b40007ab0021cfe0704cefe76b4dbc00e319b6
:1002c4009b00eb1800221a73da7203229a709a7b4d
:1002d40002210a439a7304233a0068491a2005f05c
:1002e40095ffe419a4002c19e073bae05e4abb0040
:1002f400d919890009208854531814229a70b0e03f
:100304006b46198a039a380005f0fafc012809d0d3
:10031400554abb00d919890007208854531809226b
:100324009a709ee0504abb00d91989000420885471
:1003340053180b229a7094e0bb00db199b004a4ac5
:10034400d3189b780c2b3fd0dab20c2a18d90e2b79
:100354002ad00f2b00d084e0380007f0b1f9002335
:100364003a0047491e20ff3005f050ff3e49bb00cc
:10037400da1992008a18d07313000c229a7070e074
:100384000b2b6ed1002300220321380007f01cfd43
:100394000200bb00db199b003349cb180d21997077
:1003a400384c0023002156e00f233a0036491c2024
:1003b40005f02cff2c49bb00da1992008a18d0737f
:1003c40013000d229a704ce07b00db19db00274af6
:1003d400d318da881c89240414432403a40d32237b
:1003e4005c43380007f0a2fd84423ad1380008f09b
:1003f400e3f8002300220621380007f0e5fc0200a0
:10040400bb00db199b001849cb180d2199701f4cb8
:10041400002300211fe0bb00db199b00124ad31804
:100424009b78092b1dd1bb00db199b00d3189b7b48
:10043400db0731d4164c002300220421380007f0d6
:10044400c3fc0200bb00db199b000749cb180a213f
:1004540099700023002101940e480090380003f0a5
:1004640085fb11b0f0bdc046500100209001002072
:100474009c6c000002050106020508279971000022
:10048400e9800000040e09144987000005100914ce
:100494000c000827817b0000d54ccce7bb00db199e
:1004a4009b00d44ad3189b78102bdad11100bb00df
:1004b400da1992008a18907b012420439073130068
:1004c40011229a70380007f0d9fd0021380006f097
:1004d40085fcc6e7bb00db199b00c64ad3189b7892
:1004e400062b22d0082bbcd1bb00db199b00c14ad0
:1004f400d3181b7b322b28d8bb00db199b00d318e5
:10050400db7a022b08d9bb00db199b00d3189a7b3a
:1005140012231340102b18d0b64abb00d9198900f6
:1005240002208854531898709be708233a00b24974
:10053400962005f06bfeaf49bb00da1992008a18c9
:10054400d073130007229a708be7bb00db199b0062
:100554000621a84a995484e7bb00db199b00a54aed
:10056400d3189b78142b0cd0162b00d079e7a14a12
:10057400bb00d91989000b20885453181a229a7089
:100584006fe7380008f018f8002300220021380033
:1005940005f0f2fd974ebd00ec19a4003419e37a7e
:1005a4000133e37216233a0093491c2005f02efe12
:1005b400e0731523a37054e7bb00db199b008d4a3d
:1005c400d3189b78172b0cd0192b00d049e7894af4
:1005d400bb00d91989000b20885453181a229a7029
:1005e4003fe7380007f0e8ff19233a0082491c204e
:1005f40005f00cfe7f49bb00da1992008a18d0730b
:10060400130018229a702ce7bb00db199b00794a6f
:10061400d3189b781a3bdab2082a00d921e7930051
:10062400764ad3589f46380008f068f9002813d159
:100634000021380006f074fe00233a007049714826
:1006440005f0e4fd6b49bb00da1992008a18d073f7
:1006540013001b229a7004e70021380008f00cfafa
:10066400e6e7380007f062fc002800d0f9e638001d
:1006740007f0a2ff00233a006349232005f0c6fdda
:100684005c49bb00da1992008a18d07313001c224b
:100694009a70e6e6380008f031f9002800d0e0e668
:1006a400380007f089ff1e233a005349c820800010
:1006b40005f0acfd4f49bb00da1992008a18d073db
:1006c40013001d229a70cce6bb00db199b00494a3b
:1006d400d3181f229a70c4e6092304aa94466344db
:1006e4001b78002b07d07b00db19db00474ad318ab
:1006f4009b7c002b14d10121380006f011fe00234d
:100704003a003f491420ff3005f080fd3949bb0011
:10071400da1992008a18d073130020229a70a0e686
:100724000121380008f0a8f9e5e7380007f0fefbde
:10073400374b984200d094e6380007f03dff38006c
:1007440007f004fb7b00db19db00304ad3189b88dd
:100754009a009a18520092b201232d49380002f0ef
:1007640091ff092304aa944663441b78002b06d006
:1007740018227a43254b9b189b7c002b06d114230b
:100784005f431c4bdb1922229a706ae600233a006d
:1007940020490a2005f03afd14235f43154bdb1969
:1007a400d87321229a705ce6380008f0a7f8002874
:1007b40000d156e6380007f0fffebb00db199b00b2
:1007c4000c4ad31822229a704be600233a001249ad
:1007d400124805f01bfd074abb00d91989005118be
:1007e4000874d9198900002088545318987038e681
:1007f400051008275001002049870000e46c000020
:10080400e98000008a020000e581000090010020d8
:1008140088130000ad5d0000918600007c15000087
:10082400bb00db199b00944ad3189b78282b33d048
:10083400dab2282a14d92b2b47d02c2b00d010e65f
:100844002b233a008d491a2005f0e0fc8a49bb00ad
:10085400da1992008a18d07313002a229a7000e6db
:10086400272b00d0fde5380007f0a6fe0021380054
:1008740008f0a2f9002300220d21380007f0a4faa1
:100884000200bb00db199b007b49cb182a2199701d
:100894007b4c00230021dee5380007f08dfe0121aa
:1008a400380008f089f9002300220d21380007f0f0
:1008b40037fe0200bb00db199b006f49cb182a21cd
:1008c40099706f4c00230121c5e56b4abb00d9190f
:1008d400890009208854531814229a70c1e5bb007a
:1008e400db199b00644ad3189b78252b00d0b8e50c
:1008f400380007f061fe380008f0d2f80023002227
:100904000321380007f060fa0200bb00db199b00ea
:100914005949cb18262199705a4c002300219ae595
:10092400bb00db199b00544ad3189b782f2b29d08a
:10093400302b37d02d2b00d093e57b00db19db0067
:10094400514ad3185b781b079b0f012b17d04f4bd1
:100954000f93002301220f21380007f0e1fd02006c
:100964004548bb00d919890041184c7b01344c73ac
:100974000b002e219970464c0fab01216be5454bc2
:100984000f93e6e730233a0043491c2005f03efc70
:100994003949bb00da1992008a18d07313002e2249
:1009a4009a705ee5bb00db199b001121324a995411
:1009b40057e56b461a8a039b0599380006f02cff0d
:1009c400012806d0bb00db199b0011212a4a995447
:1009d40047e57b00db19db002b4ad21853780c2146
:1009e4008b4308210b435370234abb00d919890058
:1009f400511800204873d9198900022088545318cb
:100a040098702ee5bb00db199b001b4ad3185b7b57
:100a1400142b1cd97b00db19db001b4ad21853783a
:100a24000c218b4308210b4353701349bb00da1983
:100a340092008a18907b20242043907300205073e6
:100a4400da199200022050548b18987009e57b0043
:100a5400db19db000c4ad21853780c218b43042198
:100a64000b435370044abb00d91989000f208854e2
:100a740053182d229a70f4e4500100204987000095
:100a8400082c0914020209149001002001a000ff9f
:0c0a94000f2f1100018000ff997100007d
:020000040000fa
:100aa000f8b5ce46474680b5040004f00fff07f0c6
:100ab000b3ffce4e250173199f78da7890461b7ae2
:100ac000994607f0b3ff735d092b62d89b00c84ab3
:100ad000d3589f462201c54b9b185b78012b4ad007
:100ae000002b11d0032b54d1c249200007f07dff09
:100af00000284ed12201bd4b9b1800225a700021c4
:100b0000200007f031fa44e00121200004f09effac
:100b10000021200007f044fae3001b199b00b64aad
:100b20009d58ed06ad0f63001b19db00b34ad318c7
:100b30009a889300d218520092b20023b049200044
:100b400002f0a2fd0021200006f0dafc2201a74bf2
:100b50009b18db795b079b0fab4202d0200006f0ad
:100b60005fff6021200006f0cbfc24019f4b1c1985
:100b7000012363700de024019c4b1c190223637058
:100b800007e02201994b9b185b78002b05d0022bc4
:100b900010d00cbc90469946f8bd0223220099491a
:100ba000962005f035fb2401904b1c19a071012300
:100bb0006370eee770234a461342ead147450bd0f3
:100bc0008a4b22010221d1549b1800225a70002125
:100bd000200007f0c9f9dce72201844b9b181b7940
:100be000bb4204d023010421804a9954efe713004b
:100bf0000a217e4a9954eae722017c4b9b185b78d4
:100c0000012b56d0002b26d0022b74d0032bc0d141
:100c10002201764b9b185b79bb427ad003212000de
:100c200004f014ff0121200007f0baf963001b193a
:100c3000db00724ad3189a889300d218520092b2fd
:100c400001236f49200002f01ffd2401674b1c198e
:100c5000042363709de70121200006f063fb00235d
:100c6000220069491420ff3005f0d2fa22015f4bbf
:100c70009b1898715b79bb4210d010226349200009
:100c800007f0c8fa2201594b9b18db79db070bd41c
:100c90002401564b1c19012363707ae710225b492b
:100ca000200007f0cffaede70121200003f04aff12
:100cb000eee770234a461340102b00d069e720006e
:100cc00007f05afe2201494b9b18db79db0705d45c
:100cd0002401464b1c19032363705ae700232200aa
:100ce0004b490a2005f094fa2401404b1c19a071cd
:100cf000022363704de70c234a46134200d148e7b4
:100d0000200007f039fe2401384b1c1903236370bf
:100d10003fe70221200004f099fe83e72201334bd4
:100d20009b185b78012b23d0002b11d0032b00d014
:100d30002fe770234a46134200d02ae7200007f02d
:100d40001bfe2a4b2401191900224a70e25420e7a5
:100d5000200004f01dfe012322002a490a2005f08c
:100d600057fa2401214b1c19a0710223637010e76c
:100d70000021200006f0d6fa00232200224925484f
:100d800005f046fa2201194b9b1898710c234a462c
:100d9000134206d12201154b9b18db7960221a42bf
:100da0000dd00021200003f0cdfe24010f4b1c19b3
:100db000e37960229343e37102236370e9e624013f
:100dc0000a4b1c1903236370e3e62201074b9b18af
:100dd0005b78012b35d0002b1ed0022b00d0d8e63b
:100de0002401024b1c1903236370d2e6300100205a
:100df0004c850000080800003c0400209001002001
:100e000088130000b98a0000e98000002108000072
:100e1000a16200008a02000063001b19db00ca4abd
:100e2000d31800229a800021200007f0b9f8012190
:100e3000200004f00bfe2401c44b1c190123637035
:100e4000a7e670234a46134200d0a2e663001b19ae
:100e5000db00bd4ad3189a880023bd49200002f068
:100e600013fc2401b94b1c190223637091e6220183
:100e7000b64b9b185b78022b11d0032b1cd0002b98
:100e800000d086e603232200b249962005f0c0f97f
:100e90002401ae4b1c19a0710123637079e6052370
:100ea0002200ad490a2005f0b3f92401a74b1c1913
:100eb000a071012363706ce670234a461340102b27
:100ec00000d066e6a14b24011a19002151700722b7
:100ed000e2545ee622019d4b9b185b78022b65d0a5
:100ee000dab2022a0cd9032b70d0042b00d050e6c2
:100ef000964b24010522e2541b1900225a7048e641
:100f0000002b00d045e62201904b9b18db795b0754
:100f10009b0f022b2fd0032b35d0012b23d047451d
:100f20003ad910228d49200007f08cf902212000c7
:100f300004f08cfd2201854b9b1801225a7001217f
:100f4000200007f02df863001b19db007e4ad31840
:100f50009a889300d218520092b201237c49200053
:100f600002f092fb15e663001b19db00764ad318ea
:100f70005a229a80d3e763001b19db00724ad31808
:100f800096229a80cbe763001b19db006e4ad318c8
:100f9000962252009a80c2e710227049200007f082
:100fa00039f90321200004f051fdc3e7200004f0cb
:100fb000effc0323220067490a2005f029f92401e8
:100fc000624b1c19a07105236370e2e570234a4649
:100fd000134218d10c234a46134206d122015b4b1f
:100fe0009b18db7960221a4212d00021200003f006
:100ff000a9fd2401554b1c19e37960229343e37149
:1010000005236370c5e50121200006f0adffe1e78f
:1010100024014e4b1c1904236370bae522014b4b8b
:101020009b185b78012b60d0002b22d0022b67d05d
:10103000042b00d0ade5e3001b199b00484a9a58e9
:1010400007231340012b72d001220021200006f05b
:1010500007f93e4b22010521d1549b1800225a70fa
:101060006021200006f04cfa0121200006f0b4fcbb
:101070008fe50021200006f093ff0021200006f0fc
:101080003ffae3001b199b00354a9b580722134087
:10109000012b20d003220021200006f0e1f80c23d0
:1010a0004a46134206d12201284b9b18db79602265
:1010b0001a420ad02201254b9b18da7960218a4313
:1010c000da710021200003f03dfd24011f4b1c19a3
:1010d000012363705de50021200006f023f9002262
:1010e0000121200006f0bcf8d9e70c234a46134240
:1010f00000d04ee52401154b1c190223637048e50e
:1011000070234a46134200d043e50021200006f038
:1011100063fc042322000f49fa20400005f078f810
:1011200024010a4b1c19a0710323637031e5d20618
:10113000920f0121200006f093f8044b22010021b8
:10114000d1549b1859708be790010020300100208a
:1011500088130000b98a000061890000210800009e
:041160003c0400202b
:020000040000fa
:10116400f7b50d0009036c00ed0f0095490a450f12
:1011740029431d035e00c700d80f6b0a550f2b438c
:10118400c14d640d760dd200ae4203d11d008446dc
:10119400154302d101254540ac46009da01bac453a
:1011a40000d036e1002861dd002e25d11d00154355
:1011b40000d196e2461e002e19d1ba18ba42a441b3
:1011c400c91864420919170001240b0200d4bee0b7
:1011d400ad4b01349c4200d180e2ac487b08014015
:1011e400012007401f43c80707434908afe0a64d45
:1011f400a84209d1a44caae0a34dac4200d1a6e078
:10120400802506002d042b43382e2adc1f2e17dce4
:1012140020201d00801b8540ac4615000190f54040
:10122400604605430198f3408240501e82411543b5
:10123400ed195b18bd428941494259182f00c4e792
:1012440030001d002038c5400020202e03d040204f
:10125400861bb34018000243501e824115430023ed
:10126400e6e71a4315006a1e9541f8e7002850d0b6
:10127400002c14d10c003c4300d128e2c443002cc0
:1012840007d1bf189742a441c91864420919340010
:101294009be77d48864209d119001700aae77a4cda
:1012a400a642f9d04442802000040143382c2bdcb0
:1012b4001f2c17dc2025281b01900800019de1400c
:1012c400a840844638006546e0402843019daf406d
:1012d4007d1eaf413843871897429241c918524244
:1012e4008918d4e720000d002038c54028000025c7
:1012f400202c03d040252c1ba1400d002f437d1e24
:10130400af4138430021e6e70f433800471eb84198
:10131400f8e7661c75056d0d012d00dd69e0080018
:101324003843002c49d1002800d1d3e118001043e0
:101334000dd0ba18ba42b641c91880237642891929
:101344001b041700194202d00124504b19407b079b
:1013540009d00f233b40042b05d03b1dbb42bf41aa
:101364007f42c9191f000b0206d5474b01349c422a
:1013740000d1c3e1454b1940434b4807ff083843ac
:10138400c9089c4206d103000b4300d1b9e1802374
:101394001b031943002709033b0d1b05090b1943c4
:1013a4003b4b6405194064080c43009b6400d90757
:1013b40064080c43210003b0f0bd002800d16be7a2
:1013c4001800104300d115e74807ff0807438020a1
:1013d400c9080003014207d0dc08044204d1d20842
:1013e4005b0713431f002100780fc9000143ff006e
:1013f40000e7254ca64200d16fe1ba18c918ba42d9
:101404009b415b42cb18df0752081743590834004d
:101414009de700285ddd002e3cd11d00154300d161
:101424005fe1461e002e0ed1ba1a9742bf41c91a77
:101434007f42c91b012417000b0200d487e749022d
:101444004d0a3e00f9e0104da84200d1d2e6382ef4
:101454003adc1f2e27dc20201d00801b8540ac4673
:1014640015000190f540604605430198f340824021
:10147400501e824115437d1bcb1aaf42894149421c
:10148400591a2f00d8e7c046ff070000ffff7fff6f
:10149400ffff0f809c4dac4200d158e780252d04fe
:1014a4002b430600d3e730001d002038c540002040
:1014b400202e03d04020861bb34018000243501e48
:1014c400824115430023d6e71a4315006a1e95414d
:1014d400f8e700284dd0002c17d10c003c4300d174
:1014e40001e1c443002c09d1d71bba429241591ad5
:1014f40063465242891a340000939de7824886422b
:101504000ad119001700804c45e07f4ca642f8d060
:101514004442802000040143382c25dc1f2c11dcbc
:101524002025281b00900800009de140a8400500ec
:101534003800e0402843009daf407d1eaf41384352
:10154400171ad2e720000d002038c54028000025d6
:10155400202c03d040252c1ba1400d002f437d1ec1
:10156400af4138430021ebe70f433800471eb84131
:10157400f8e7601c4005400d01284cdc18000d0004
:1015840010433d43002c24d1002d07d1071e00d168
:10159400ade01900170063460093d8e6002800d197
:1015a400d5e6bd1aaf42b641c81a7642801b8026e2
:1015b4003604304206d0d71bba429241591a5242dd
:1015c400891ae8e72f00074300d190e001002f00bb
:1015d400bde6002d07d1071e00d18be0190063463c
:1015e4001700009306e6002800d103e64807ff0829
:1015f40007438020c9080003014200d1f4e6dc0857
:10160400044200d0f0e6d2085b0713431f00634690
:1016140021000093e8e6be1ab7428041cd1a404249
:101624002d1a8020000405422dd0d61bb242ad41b4
:10163400591a63466d424d1b0093002d29d0280092
:1016440006f01cfc0300083b1f2b27dc2022310082
:101654009e40d21a9d40d14037000d439c4232dc5b
:101664001c1b661c1f2e1edc20233a0029009b1b1a
:101674009940f2409f400a43791e8f412900f1406e
:101684001743002463e637002f43d6d139003c00ca
:101694002ee0300006f0f2fb2030d3e73500283886
:1016a40085400027dae72a001f3ce2400023202e71
:1016b40003d040239e1b2b00b3401f437b1e9f413e
:1016c40000211743dde71149e41a29403fe61900d8
:1016d40017009ce61900170039e60b4c00210f0097
:1016e40035e6040033e619001700340053e73900e7
:1016f40000972ce68021044cc903f9e700210f0070
:101704003ae6190046e6c046ff070000ffff7fffe8
:020000040000fa
:10171400f0b58fb004000f0003932f2502ab9c4655
:1017240065440b232b702e266644ff2333701c2242
:10173400002106a807f006fa32002900200007f06d
:10174400d1f82b78053b012b0ed92500a3001b19da
:101754009b00de4a9b5c123bdab20b2a00d91be2e7
:101764009300db4ad3589f462500a3001b199b0016
:10177400d64a9b5c123b012be7d91100a3001a192e
:1017840092008a180020d0721b199b0012225a540e
:10179400200006f0c1fccd48ab005a199200821813
:1017a400917b4124a14391735b199b0013221a542a
:1017b400f2e1200006f0bafbc64b984200d0ebe100
:1017c4002f2302aa944663441b78072b00d0e3e13d
:1017d40063001b19db00c04ad3189b889a009a182f
:1017e400520092b20123bb49200001f04bffb74adb
:1017f400a3001919890014208854531831229a70af
:10180400cae1a3001b199b00b04ad3189b78312b63
:101814000cd0332b00d0bfe1ac4aa30019198900c6
:1018240019208854531845229a70b5e1a3001b1956
:101834009b00a64ad318db7a022b07d9a3001c19f4
:10184400a400a24b1c193223a370a5e13323220068
:10185400a249d220ff3004f0d9fca3001b199b003d
:101864009a4ad318d873e9e7a3001b199b00974a37
:10187400d3180022da726b4699893a00200002f0ec
:10188400b7fb63001b19da00934b9b185a89083382
:101894009b881b0413431ad1a3001b199b008b4a7a
:1018a400d3189b7bdb0708d5a300191989001820de
:1018b400885453183d229a706ee1844aa300191982
:1018c400890014208854531831229a7064e17f4aa5
:1018d400a3001919890016208854531834229a70c9
:1018e4005ae1a3001b199b00784ad3189b78362b26
:1018f4001fd0372b2dd0342b00d04de100230122f3
:101904000221200006f060fa020063001b19d900ce
:10191400714b5b18598908339b881b040b4306934e
:10192400a3001b199b006949cb18352199706c4b96
:101934002ae13723220069491a2004f067fc63492d
:10194400a3001a1992008a18d073130038229a70cf
:1019540022e15e4aa30019198900192088545318fa
:1019640045229a7018e1a3001b199b00574ad3180b
:101974009b78392b0cd03a2b00d00de1534aa300ad
:101984001919890019208854531845229a7003e1c3
:101994003a2322005149fa20400004f037fc4b4915
:1019a400a3001a1992008a18d07313003b229a706c
:1019b400f2e0a3001b199b00444ad3189b783c2bec
:1019c40000d0e9e0200006f059fb4049a3001a19b1
:1019d40092008a18907b01252843907313003d22be
:1019e4009a70d9e0a3001b199b00384ad3189b783e
:1019f400452b00d0d0e0200006f0defd334fa600da
:101a04003519ad007d19ab7b40221343ab73002322
:101a140000220021200004f0affb33199b001a229e
:101a2400da554723ab70eb7a0133eb72b4e0a300d1
:101a34001b199b00254ad3189b78482b66d0dab231
:101a4400482a2ad9492b71d04a2b00d0a4e020007f
:101a540006f06cfa002800d09ee063001b19db003e
:101a64001d4ad3189b889a009b185b009ab20023e6
:101a74001849200001f006fe200006f067f913481b
:101a8400a3001a1992008218917b4025a9439173ef
:101a94001b199b0012221a547ee0472b7cd1a30011
:101aa4001b199b00094ad3189a7b40210a439a7355
:101ab400200006f023ff002814d1a3001c19a40061
:101ac400024b1c194923a37066e0c0465001002054
:101ad400b481000088130000900100209971000077
:101ae40016361d400021200006f0c6ff0023220008
:101af4005849232004f08afb5749a3001a1992007d
:101b04008a18d073130048229a7045e0200006f02a
:101b1400f5fe002840d1200006f04efda3001c195c
:101b2400a4004d4b1c194923a37035e00023002267
:101b34000021200001f0a6fda3001c19a400464bbf
:101b44001c194a23a37027e0a3001b199b00424ad7
:101b5400d3189b784b2b1fd10f2502ab9c466544b1
:101b640006aa2900200006f0a3fa2a7800230421fb
:101b7400200006f029f90200a3001b199b00364936
:101b8400cb184c219970354b0193354b009306ab20
:101b94000021200001f0eaff0fb0f0bda3001b19e3
:101ba4009b002d4ad3189b783e2bf5d1200006f0dc
:101bb40003fd0021200006f0ffff00230022032183
:101bc400200006f001f90200a3001b199b00224922
:101bd400cb183f219970234bd6e7a3001b199b0018
:101be4001d4ad3189b78422b1ad0432b28d0402b64
:101bf400d2d1200006f0e0fc0021200006f0dcff3a
:101c0400002300220d21200006f0def80200a300cc
:101c14001b199b001049cb1841219970124bb3e753
:101c24004323220011491a2004f0f0fa0a49a300c0
:101c34001a1992008a18d073130044229a70abe7e1
:101c4400054aa300191989001920885453184522fc
:101c54009a70a1e7e581000050010020183d1d4065
:101c6400817b0000143119451d421945997100000a
:020000040000fa
:101c7400f0b58bb0060004930400cb0f0d034800ad
:101c840000922d0b400d0393029346d0584b98427b
:101c940067d08023720f1b04ed0013432b431f00f6
:101ca400544bf400c31800260193049b009a1d03af
:101cb4005800db0f2d0b400d069361d04c4b98421e
:101cc40000d181e08023520f1b041343ed001d4318
:101cd400484a009b8218db00944600220698039928
:101ce4004140604604910199091ab000104301383b
:101cf40005910e2800d981e006f0f0fe7500490236
:101d0400ed0149023d024902ed01750075003d02f5
:101d1400ed01fc01fc01fc01e2012f00374327d057
:101d2400002d13d0280006f0a9f801000b391c2956
:101d340011dc02001d2337003400083a5b1a954079
:101d4400df4094402f432c4b1b1aace7300006f0c5
:101d540095f82030e9e70300283b9e400024370033
:101d6400f1e72e43371e07d02f00019003269ce78e
:101d74003c000197012698e734000190022694e77d
:101d8400009b2b4327d0002d13d0280006f076f8b3
:101d940001000b391c2911dc1d2302005b1a009978
:101da400083ad940009b954093400d43124a121ab9
:101db40092e7100006f062f82030e9e70300009d86
:101dc400283b9d400023f1e7009b2b4307d01300e1
:101dd4008446032282e71d009c4601227ee71d0003
:101de400844602227ae700252c00014b4ee1c046ce
:101df400ff07000001fcffff0dfcffffaf4204d80a
:101e040000d057e19c4200d254e1f9076208114323
:101e1400e0070c0001907f082d021a0e2a431b02d2
:101e24000293130c03936b4600921b8803993800aa
:101e3400079304f009fb0600079b069003993800fa
:101e44005e4304f03dfb250c09040d43069fae429e
:101e540009d9009b013fed18ab4204d8ae4202d928
:101e6400069fed18023fab1b03991800069304f07c
:101e7400ebfa079e050046430399069804f020fbfd
:101e8400a4b209040c432a00a64208d9009b013ad3
:101e9400e418a34203d8a64201d9aa1ee4183b04bd
:101ea40002991343029a0904120c090c0892069130
:101eb400089d06989ab2a61b1c0c514360436a43c2
:101ec4006c4312180d0caa18904202d980204002cb
:101ed4002418100c09041204090c04195218a642ff
:101ee40005d31f00a64227d10199914224d202981a
:101ef4000199844661440191814289410098494293
:101f0400091876185f1eb04204d315d161460198b2
:101f1400814211d8b44203d80ed101998a420bd917
:101f240002999f1e8c46019b634401938b429b4103
:101f340000995b425b18f618019b341b9b1a0993aa
:101f4400099a019b93429b415b42e41a009ba34282
:101f540000d1d2e00399200004f076fa079d060030
:101f640045430399200004f0abfa099b09041c0cb7
:101f74000c430196a5420cd93300013b0193009b0d
:101f8400e418a34205d8a54203d9b31e0193009bcc
:101f9400e418641b0399200004f056fa079d060018
:101fa40045430399200004f08bfa6b460a04998c8c
:101fb400330011438d4208d9009a013b89188a42a3
:101fc40003d88d4201d9b31e8918019a089c1204c2
:101fd4001a43100c93b24d1b16000699069a4143fe
:101fe4005a43634360435b18140ce318994202d9c3
:101ff400802149024018190c12041b04120c081801
:102004009b18854204d3340085421bd1002b1bd07e
:10201400009a741e5519aa420fd8a84203d811d1a8
:10202400029a9a420bd2029ab41e510091429241f2
:10203400009e52429219ad180291854202d1029a31
:10204400934201d001231c43059b564a9b18002b45
:1020540056dd620709d00f222240042a05d0221d32
:10206400a242a44164423f191400fa0106d5802219
:10207400d20094464c4b1f40059b63444b4a934209
:1020840000dd88e0e40879070c43fd0800212d03f6
:102094000a0d12052d0b1543454a5b0515405b08d7
:1020a4002b43049a5b00d2075b08134320001900fa
:1020b4000bb0f0bd059a013a059200220192abe6fd
:1020c4008022120317425ad0154258d12f001c0007
:1020d400069b029353e02f0016001c00069b0493fa
:1020e400022e58d0032e50d0012eadd1002425004d
:1020f4002300cbe7039b0493f2e701246442a3e7a4
:102104000122d21a382af1dc1f2a21dc20232000e4
:102114009b1a39009c403d009940d040631e9c416d
:10212400d54001430c43630709d00f232340042bfc
:1021340005d0231da342a44164422d191c00802311
:102144001b042b402ad16907e4080c43ed089de7e2
:102154001f214942cb1a3900d9400b000021202a03
:1021640003d040218a1a390091400c43611e8c41ee
:1021740000251c43d7e7802700243f0302948025d1
:10218400029b2d033d4304932fe6049ba1e7002506
:102194002c002b007ae70024250026e600250123e5
:1021a4002c0073e7ff030000fffffffefe070000a3
:1021b400ffff0f80f0b58bb001920593ca0f0c039b
:1021c4004b000600240b5b0d0492039245d0c64ad3
:1021d400934265d08022410f12040a43e400144361
:1021e400c24ac5009b1800270293059b019a1e034f
:1021f4005800db0f360b400d059360d0ba4b984264
:1022040000d180e08023520f1b041343f6001e43c9
:10221400b64a019b8218db00944600220598049973
:10222400414001910299b80061441043079101387b
:10223400013106910e2879d806f050fc7400740020
:102244007b0171017101bc017b017101bc01710150
:102254007b016f016f016f0164012500054326d0e6
:10226400002c13d0200005f009fe01000b391c29b5
:1022740010dc1d2302005b1a31003500083a94403b
:10228400d94095400c439a4b1b1aace705f0f6fd78
:102294002030eae703003400283b9c400025f2e7a5
:1022a4000500254307d00500029303279de72c0072
:1022b4000295012799e72c000293022795e7019bd9
:1022c400334327d0002e13d0300005f0d7fd010092
:1022d4000b391c2911dc1d2302005b1a0199083af1
:1022e400d940019b964093400e43814a121a93e7ca
:1022f400100005f0c3fd2030e9e70300019e283bf0
:102304009e400023f1e7019b334307d0130084462a
:10231400032283e71e009c4601227fe71e008446b9
:1023240002227be734001d001700f8e0190c9bb271
:10233400029119002a0c514318008c46029f0299fd
:10234400adb2684351436f4304916744010cc9190a
:1023540003908c4506d9049f380080277f02bc4631
:1023640060440490684680890f0c09040918099197
:10237400310cb6b2039130003100bc46039f69436f
:1023840050437d437a432d180f0c7d19a84202d97e
:10239400802040021218280c82182d0489b205925c
:1023a4006a1808921800089962468c46029f210c0c
:1023b400a4b260434b43674362449446029dff18b2
:1023c400020cd2194d43934202d980235b02ed18cb
:1023d4003700130c5b190293039b67434e435c4322
:1023e4005943a4193b0c120480b21c191018a642bc
:1023f40002d980235b02c918049b220463441e0093
:10240400089bbfb29e42ad418619d2198642bf4194
:102414000298059b84466d42d218ab189c440393e2
:10242400059b60469a429241039b5242ab429b41b8
:102434005b427f421a43029b3818240c1219b8429b
:10244400bf419c45a4417f4264423c431419641833
:10245400c30d64021c43099b75021d43691e8d4113
:10246400f60d354340020543e30167d501226b08ad
:1024740015401d43e307d4401d43069b1d4a9b188a
:10248400002b5edd6a0709d00f222a40042a05d0fa
:102494002a1daa42ad416d4264191500e20106d518
:1024a4008022d2009446144b1c40069b6344134a7a
:1024b400934200dd8be06207ed081543e408002138
:1024c40024030a0d1205240b14430d4a5b05144022
:1024d4005b082343019a5b00d2075b08134328007f
:1024e40019000bb0f0bdc046ff07000001fcffff60
:1024f4000dfcffffff030000fffffffefe070000cf
:10250400ffff0f8080221203144257d0164255d188
:1025140034001d00059b039350e0049b0193022f9c
:1025240055d0032f51d0012fa7d100252c002b000b
:10253400c5e71d00059b34000193f5e6079b069350
:102544009be70122d21a382aefdc1f2a20dc202341
:1025540021009b1a28009d409940d0406b1e9d414c
:10256400d44001430d436b0709d00f232b40042ba8
:1025740005d02b1dab42ad416d4264191d00802373
:102584001b04234000d196e700240123250096e78d
:102594001f214942cb1a2100d9400023202a03d00d
:1025a40040239a1a230093401d436b1e9d4100242f
:1025b4000d43d8e7802400252403039580231b03bf
:1025c4001c43039b0193034b79e7019ba3e700257d
:0825d4002c00f8e7ff070000ee
:020000040000fa
:1025dc0010b582b0040083001b189b00c54a9b5c9d
:1025ec001f3bdab2092a00d998e09300c24ad358ab
:1025fc009f4683001b189b00be4ad3189b78592b0f
:10260c0000d08be000230022102105f0d9fb020042
:10261c00e3001b199b00b9495b5807210b40012ba8
:10262c0008d0b74ba10009198900b24841185a20ab
:10263c0088706be0b34bf5e783001b189b00ad4a29
:10264c00d3189b785b2b69d100230022042105f061
:10265c00b7fb0200e3001b199b00a8495b5807213c
:10266c000b40012b08d0a64ba10009198900a148e9
:10267c0041185c20887049e0a24bf5e706f03af966
:10268c00002807d163001b19db009f4ad3189b7ce1
:10269c00002b09d0974aa3001919890020208854cf
:1026ac00531850229a7039e0200005f06bf935e090
:1026bc0083001b189b008f4ad3189b78502b0fd08c
:1026cc00522b2bd106f016f900282bd0894aa300e7
:1026dc00191989002120885453184d229a701de035
:1026ec0000230022032105f06bfb020063001b1981
:1026fc00db008549cb185b78db0711d4834ba10039
:10270c00091989007b484118512088700193804b2e
:10271c00009300230021200001f024fa02b010bd28
:10272c007c4bece7734aa3001919890023208854c9
:10273c00531855229a70f1e783001b189b006d4ac1
:10274c00d3189b784d2b04d04f2be7d105f034fade
:10275c00e4e74f2302007049642003f053fd654900
:10276c00a3001a1992008a18d07313004e229a7083
:10277c00d4e783001b189b005e4ad3189b78532b1d
:10278c001ad0542bcad106f0b5f80028c6d12000b7
:10279c0005f00eff63001b19db005b4ad3185b7856
:1027ac00db071cd5534aa30019198900052088544e
:1027bc00531811229a70b1e7002106f059f9002341
:1027cc0022005649232003f01dfd4a49a3001a1983
:1027dc0092008a18d073130054229a709ee7454acf
:1027ec00a300191989001820885453183d229a7097
:1027fc0094e783001b189b003e4ad3189b78552bfb
:10280c0014d0562b00d089e706f074f8002800d1bc
:10281c0084e7200005f0ccfe364aa3001919890084
:10282c0024208854531857229a7077e7012106f018
:10283c001ff9002322003a49962003f0e3fc2d49ae
:10284c00a3001a1992008a18d073130056229a709a
:10285c0064e783001b189b00264ad3189b78572be0
:10286c0000d05be700230022062105f0a9fa020044
:10287c0063001b19db002449cb185b78db0708d4f9
:10288c001f4ba100091989001a484118582088705b
:10289c003ce71c4bf5e70b681b069b0f00d03de794
:1028ac0043001b18db00184ad3185a7813079b0fe8
:1028bc00012b09d00f4a830019188900262088544f
:1028cc00531859229a7029e7d30709d5094a83006e
:1028dc001918890005208854531811229a701de785
:1028ec00044a8300191889001820885453183d2273
:1028fc009a7013e750010020fc8400003c04002077
:10290c00183d1d40051108279001002020521d4044
:10291c00817b00002052082799710000e58100009e
:10292c00ad5d000083001b189b00234ad3189b78d5
:10293c005d2b17d05f2b00d0f0e6002104f0acfd2e
:10294c0063001b19db001d4ad3185b78db0729d504
:10295c00194aa300191989000b20885453181a22fc
:10296c009a70dbe6a023db050a689a4210d043007c
:10297c001b189a00124b9b189a7a10210a439a72d0
:10298c00a3001c19a4000c4b1c195e23a370c5e6f4
:10299c00012104f081fd5f2322000a492d2003f060
:1029ac0031fcede7044aa300191989001a20885458
:1029bc00531847229a70b1e6500100209001002074
:0829cc0078010020498700009a
:020000040000fa
:1029d400f0b5c64600b584b004000d000201a64b54
:1029e4009b181f7acb0750d46b0500d596e0ab0536
:1029f40043d5072302aa94466344984601234246da
:102a04009e49200005f058fa63001b19db009c4a1c
:102a1400d3185b7801261e4043461b78002b00d157
:102a24009ee002ab07331b780025012b00d1dfe0c9
:102a340002ab07331b78052b00d1fbe0012d00d13d
:102a4400fae010261e4000d12ae163001b19db00c6
:102a54008b4ad318da7c01210a43da74894d0123a5
:102a640002aa07322900200005f026fa012302aa4f
:102a740007322900200005f0c5f924017e4b1c19fa
:102a8400277204b004bc9046f0bd02abde1d0123e6
:102a940032007d4905f010fa33787f2b1dd802ab44
:102aa40007331b789b0720d102231f4303aa7749ce
:102ab400200005f001fae3001b199b00744a9b589f
:102ac40007221340012b1ed003ab1a8821016a4b45
:102ad4005b189a70120ada7086e7012302aa073299
:102ae4006949200005f08ef9d9e76a4e022303aa4a
:102af4003100200005f0e0f9022303aa3100200090
:102b040005f080f9d0e703ab1b8821015a4a52181b
:102b1400d94391701b0adb43d37065e702abde1d1a
:102b2400012332005c49200005f0c6f933785eb217
:102b3400db070ad50c239f4363001b19db00504ab3
:102b4400d318da7c08210a43da74012302aa073273
:102b54005149200005f056f9002e00db47e748e70d
:102b640070239f430021200005f0fcf9002e09d0ba
:102b7400ad05ed0f02ab07331b78012b00d057e7ef
:102b84001e003de023013c4a9b5c072b23d002ab93
:102b940007331b78012b33d002ab07331b78350086
:102ba400052b00d04ae735002201334b9b181a7ad3
:102bb40070231340102b0ad023012f4a9b5c072b50
:102bc4003ad122012c4b9b185b78012b34d0012d78
:102bd40000d043e730e0200005f09cfe002801d13e
:102be40001231f4302ab07331b78012bd4d101e02f
:102bf400002e05d12301204a9b5c0026072b04d01c
:102c040002ab07331b78350018e7200005f082fe7d
:102c1400002808d002ab07331b780025052b00d011
:102c24000ce70025c0e701231f430121200005f024
:102c340099f9efe7002eb7d003ad00232b800123d1
:102c44002a001649200005f037f92b889b0600d48a
:102c540004e763001b19db00094ad3181b7d002b12
:102c640000d0fbe663001b19db00d318da7c0221d9
:102c74000a43da74f2e6c046300100200808000076
:102c84009001002009080000030800000608000065
:102c94003c040020040800000a0800001f0800008b
:102ca400202293430d2b00d0d8e670239f4303ad1d
:102cb40002232a002b49200005f0fef8288803f09f
:102cc4003fff294a294bfff775fa00900191220131
:102cd400274b9b189a68120a187b0006104303f0ce
:102ce400fff902000b0000980199fef7c1ff05f0ff
:102cf400a9f980b22880e3001b199a001d4b9b1888
:102d04002033197800291fd013001a4ad3185b689e
:102d14001b039b0d32225343984210d9e20012192f
:102d240092000832134bd21832250136f6b28e4285
:102d34000ad008ca1b039b0d6b438342f5d30136ab
:102d4400f3b21b011f43ffb263001b19db000a4ae5
:102d5400d3185b78db0700d480e60021200005f05f
:102d640001f97be6b2080000295c8fc2f56838409f
:0c2d7400300100203c04002090010020f1
:020000040000fa
:102d800070b504000d0004f071fc012800d070bd86
:102d90006b045b0f00d185e01f231d40022d48d03e
:102da0001fd9032d5cd00f2df1d1a3001b199b005f
:102db000bc4a9a5c182a6ed0052a6cd063001b1995
:102dc000db00b949cb185b78db0664d40f2aded16f
:102dd000200005f0f3fb00221021200004f072fa1d
:102de000d5e7012dd3d1a3001b199b00ad4ad31801
:102df0009b78322b10d03d2b07d063001b19db00d2
:102e0000a94ad3185b78db060fd5a3001c19a400d0
:102e10001522a44be254bae7200005f0cffb0022b4
:102e20001521200004f04efab1e7200005f0b4fbb4
:102e3000ade7a3001b199b009a4a9b5c022b07d0ad
:102e4000052b09d100220321200004f03bfa9ee764
:102e5000200005f0b3fbf5e7200005f09dfb96e7a9
:102e6000a3001b199b008f4a9b5c182b02d0052bdb
:102e700000d08ce7200005f05bf88c4b984200d026
:102e800085e7884aa3001919890028208854531817
:102e90005d229a707be7a3001c19a4002522814bb8
:102ea000e25474e71f231d40eb1e0a2b00d96ee786
:102eb0009b007f4ad3589f46a3001b199b00794a69
:102ec000d3189b78382b07d0442b0ed02a2b15d043
:102ed000200005f061fb5ae7200005f06ffb392266
:102ee0001721200004f0eef951e7200005f066fb01
:102ef00031221421200004f0e5f948e7200005f014
:102f00005dfb684aa30019198900022088545318f0
:102f100098703ce7a3001b199b00624ad3189b786a
:102f2000382b32d1a3001b199b00d3189b7bdb07e6
:102f300021d50c2d0cd0042d00d028e7594aa30030
:102f4000191989001820885453183d229a701ee7d9
:102f5000162322005749642003f05af92201564be8
:102f60009b1898714f4b142254431822e2541b199a
:102f70003d229a700be74b4aa300191989001420cf
:102f80008854531831229a7001e7200005f004fba1
:102f9000fde6a3001b199b00424ad3189b783b2bec
:102fa00005d04e2b0cd0200005f0f6faefe62000fd
:102fb00005f004fb3c221821200004f083f9e6e62a
:102fc000200005f0fbfa53222221200004f07af9b8
:102fd000dde6a3001b199b00324a9b5c052b03d046
:102fe000200005f0d9fad2e6a300191989000220c1
:102ff000885453189870cae6a3001b199b00294aed
:103000009b5c182b07d063001b19db00264ad318e2
:103010005b78db0609d5234aa300191989001b2018
:10302000885453184b229a70b1e6200005f0b4fa88
:10303000ade6a3001b199b001a4a9b5c182b09d014
:10304000052b07d063001b19db00174ad3185b78e8
:10305000db0606d5a3001c19a4001f22114be25465
:1030600095e6200005f098fa91e663001b19db0055
:103070000d4ad3185b78db0709d40a4aa300191953
:1030800089001c20885453183e229a707fe6054a16
:10309000a300191989000e208854531825229a700c
:1030a00075e6c04650010020900100208813000002
:0c30b0002c830000d188000030010020bb
:020000040000fa
:1030bc00f7b543024a025b0a520a4e0044000193e0
:1030cc0000939446240ec50fdb00360ec90fd200b8
:1030dc00ff2e01d1002a01d101204140a01ba942a1
:1030ec0000d0a1e000282edd002e18d1002a00d13e
:1030fc004ae1411e00290ed101249b185a015bd5cf
:10310c000134ff2c00d13de10122a4491a405b0897
:10311c000b40134350e0ff2807d1ff244ce0ff2c59
:10312c004ad08021c9040a4301001b2901dd012278
:10313c0007e010002026c840711a8a40511e8a41af
:10314c0002439b18dae7002821d0002c0cd1002b6d
:10315c0007d0c043002802d19b183400cee7ff2ec5
:10316c0008d11300340027e0ff2efad08021c904c7
:10317c0040420b431b2801dd0123ede719002024fd
:10318c00c140201a8340581e83410b43e4e7611c65
:10319c00ff260f003740012f3fdc002c2bd1002bda
:1031ac0000d1eae0002a07d09b188022d2041342f7
:1031bc0002d001247a4a13405a0704d00f221a4035
:1031cc00042a00d004335a0105d50134ff2c00d158
:1031dc00e1e0734a1340db08ff2c04d1002b02d032
:1031ec008022d20313435b02e4b2e405580aed07d4
:1031fc0020432843febd002b00d1c0e03400002a40
:10320c00dad08023019adb031a4203d062461a42b9
:10321c0000d10092009bdb007fe7ff2900d1b0e0da
:10322c009b185b080c00c7e7002826dd002e13d185
:10323c00002a00d1a8e0411e002906d101249b1ac6
:10324c005a01b9d59b019e097ae0ff2800d164e7a9
:10325c001b2908dd01220ee0ff2cadd08021c90412
:10326c000a430100f4e710002026c840711a8a4076
:10327c00511e8a4102439b1ae2e7002822d0002cff
:10328c000dd1002b08d0c043002803d1d31a340031
:10329c000d00d5e7ff2e08d11300340020e0ff2edf
:1032ac00fad08024e404404223431b2801dd01238f
:1032bc00ece71c002025c440281a8340581e83418b
:1032cc002343e3e7ff20661c0640012e31dc002c73
:1032dc0017d1002b06d11d00002a00d16ce713007a
:1032ec000d0069e7002a00d166e78026981af604db
:1032fc00304201d0d31af3e7031e00d05ce71d0067
:10330c005ae7002b04d1002a40d013000d0004e72b
:10331c000400002a00d14fe78023019adb031a42f4
:10332c0000d177e762461a4200d073e700920d0095
:10333c0070e780209e1ac004064215d00d00d61ae4
:10334c00300004f097fd330005388340844210dcd4
:10335c00041b1a0020200134e240041ba3405e1e13
:10336c00b3410024134327e7002ee9d13300340086
:10337c00c5e7241a0a4803401ee713001ce7130094
:10338c00cbe60c00002317e7040015e780230400ac
:10339c009b04150010e700231de7c046ffffff7dcf
:0433ac00fffffffb25
:020000040000fa
:1033b000f0b583b00400019043001b189b00ae4a97
:1033c000d3189b7a00265b0742d5c3001b189b00cd
:1033d000aa4ad31859880bb2002b3cdb43001b18b8
:1033e0009b00a74ad318db7a00269b0614d51f231f
:1033f0001940052900d12de143001b189b00d3186b
:10340000db7adb061b0f0f330f221340022b00d990
:103410001ce103f0e7ff102602231e4363001b1983
:103420009b00954ad3181b7a052b00d114e1093b68
:10343000012b00d810e105f0effa63001b199b0087
:103440008d4ce418a37a04229343a37205f0eefa9c
:10345000300003b0f0bdc3001b189b00d3185a798d
:1034600012021e79164336b2b7b27b0558d47d04da
:103470002d0f78d143001b189b00814ad318db7aab
:103480009b0619d543001b189b00d318db7adb067b
:103490001b0f0f330f221340022b0ad843001b18b7
:1034a0009a00774b9b18da7a1e218a4308210a4337
:1034b000da72200003f096ff63001b199a00704b2c
:1034c0009b18da7a20210a43da726e4b9c468621d9
:1034d000490061435818e3001b199b00674ad31841
:1034e0005a7802715b8862468b524780200003f055
:1034f000adfc63001b199b00614ad3185b89db0597
:103500001b0f9d4232d063001b199a005c4b9b1825
:10351000da7a1e218a4308210a43da7200267de7ff
:1035200005f070f87f043f0f63001b199b00544a9d
:10353000d3185b89db051b0f9f4205d003212000b8
:1035400003f0bafc002669e7002ef7da63001b19c6
:103550009a004b4b9b18da7a1e218a430a210a43b0
:10356000da7200265ae705f04df8c2e7002ecadaf3
:10357000e3001b199b00414ad3185e887604760f3e
:10358000b600022e2edd63001b199b003c4ad318a7
:103590009a68d203d20d0220022186277f00019d66
:1035a0006f43384bdf19eb005d19ad00334b5d19ec
:1035b000531cdb05db0dba18281800795071013156
:1035c000c9b208001a00b142f2db6200121992007f
:1035d0002b498a18110053721b0a927a01208243e8
:1035e00013438b7263001b199a00254b9b185a8951
:1035f0000833d2059b78db06120f1b0f9a4220d0ae
:1036000063001b199b001e48c018c37a1e218b4300
:1036100004210b43c3724389db051b0f01330f22c7
:10362000134007221a405101857a1f222a400a437b
:103630008272db08c27a01218a431343c3720026d7
:10364000ece6200003f0cefe0826e7e603f0cafe13
:103650000026e1e60026dfe6200004f0d3ff05f0b7
:10366000dbf963001b199b00034ad31800221a726e
:1036700005f0dcf9dfe6c04678010020c800002034
:0836800018010020c401002024
:020000040000fa
:10368800f0b5c64600b584b004000f001e0004f073
:103698004bfc05002201834b9b189a68120a1b7b7e
:1036a8001b06134398460021200004f091f9002ed0
:1036b80064d0002f00d1e6e063001b19db007a4ad2
:1036c800d3181b7c002b46d1380003f037fa0600cc
:1036d8000f0003ad754a764bfef76afd754a764bc7
:1036e800fef7c4fa04f0acfc80b203f0edf94146f1
:1036f80000f076ff04f0d2fd2880704a704b30004d
:103708003900fef755fd6b4a6b4bfef7affa04f034
:1037180097fc80b203f0d8f9414600f061ff04f04d
:10372800bdfd688004232a006649200004f0ccff10
:1037380003225521200004f069fd3d26320062492c
:10374800200005f038f90121200004f041f904b007
:1037580004bc9046f0bd160065002b19db00d31899
:10376800987b04f0c9fd002322005849584802f00c
:103778004bfd2d19ed007519a873a5e703225521f6
:10378800200004f05bfd002f00d181e0514b9f42e7
:1037980035d0002fd2d0380003f0d0f9434a4e4b31
:1037a80000900191fef704fd424a434bfef75efa92
:1037b80004f046fc80b203f087f9414600f010ffa0
:1037c80004f06cfd86b2454a454b00980199fef716
:1037d800effc384a384bfef749fa04f031fc80b266
:1037e80003f072f9414600f0fbfe04f057fd83b286
:1037f80098461be00121200004f0b2fb50e0630072
:103808001b19db00284ad3185b78db0726d5354916
:10381800404600f0e5fe04f041fd86b232494046dc
:1038280000f0defe04f03afd83b2984632002f49dc
:10383800200005f0cbf80d26bd4200d87ee76300d6
:103848001b19db00184ad3185b78db0716d44246ed
:103858002749200005f0baf84d266fe7254940466c
:1038680000f0befe04f01afd86b21f49404600f083
:10387800b7fe04f013fd83b29846d7e70121200074
:1038880004f06efbe3e703225521200004f0d6fc88
:1038980063001b19db00044ad3185b78db07a9d443
:1038a80001264be73001002090010020666666661d
:1038b8006666f23f295c8fc2f5683840333333338c
:1038c8003333eb3fb40800001f080000b98700003d
:1038d80010270000881300006666ee3fcdcccccce4
:1038e800ccccf03f0000424300006143b208000026
:0838f800b80800000000344391
:020000040000fa
:1039000070b582b00400002103f0fafd0021200010
:1039100004f062f801229a21200004f07bfc0822c6
:103920007d49200004f076fc00227c49200005f04f
:1039300046f840227a49200004f06cfc00227949c4
:10394000200005f03cf883227749200004f062fc57
:1039500081227649200004f05dfc1421200005f04e
:103960004ff8734a024392b26b46da80142120006a
:1039700005f030f8012280210901200004f062fcea
:1039800010236c4a6c49200004f0a2fe23016b4d09
:10399000ed18ab681b0a287b00061843684900f045
:1039a00023fe04f07ffc82b26649200005f012f885
:1039b000ab681b0a287b00061843634900f014fe1d
:1039c00004f070fc82b28b210901200005f002f89e
:1039d00001225e49200004f01dfce3001b199b003e
:1039e0005b4a995807230b4000d175e0012b2bd17e
:1039f00008226b465a71142201ab1a70c906890f4e
:103a0000200004f023f90121200004f00dfee30062
:103a10001b199b004e4a9a58d206920f6b469d1d69
:103a2000da80d2b20121200003f01afc43482601bb
:103a30008219d37906218b43298849000b43d3711e
:103a4000002333540323537001236a46053241494e
:103a5000200004f03dfe012301aa3f49200004f0ac
:103a600037fe0321200002f07bfd02223b492000ab
:103a700004f0a5ff6b469d1d7d232b8001232a00aa
:103a80003749200004f024fe01232a003549200094
:103a900004f01efe0121200003f09eff60212000a3
:103aa00003f02efde3001b199b00294a9b580722b7
:103ab0001340012b2bd063001b19db002a4ad318bb
:103ac0009a889300d218520092b20023274920000e
:103ad000fff7dafd02b070bd0c226b465a7114225a
:103ae00001ab1a700021200004f09efd012200218c
:103af000200003f0b5fb0021200004f0a7f80f4bd5
:103b000022010521d1549b1800225a709ce7002104
:103b1000200003f007fcdde70108000006100000ac
:103b200041080000071000001108000015080000ff
:103b300003060000388b000022080000300100203e
:103b40000000e0414e080000000016433f0800005e
:103b50003c040020170800004a0800001908000073
:103b6000140800001c0800009001002088130000c9
:020000040000fa
:103b7000f0b5c64600b588b00400884615001f00a1
:103b800043001b189b00834ad318db7a9b0647d45b
:103b90002b0445d5804a86235b004343d018464614
:103ba00006719d5263001b199a007a4b9b189e7aee
:103bb0001f2232409a72da7a0126b243da72ed019c
:103bc000ed0d80231b021d434580002f10d0ed0515
:103bd000ed0d002200238620400060436e49091845
:103be000f85c8a18507101339bb21a00ab42f7ddc2
:103bf000684e65002f19bf00f7190f9b7b602b19ca
:103c00009b000e9a9a51200003f020f9fb7a1e22a5
:103c100093430a22134320221343fb72032585e0ba
:103c20005e4963001a1992008a180f9850601a1999
:103c300092000e9850501b19db00594a9b5cdb0721
:103c400011d51e225749200004f0b9fe4346012b2e
:103c500000d170e0002b0cd0022b00d176e00023c5
:103c6000984600260de006224e49200004f0a7feeb
:103c7000ece763001b199b00484ad3185a7a520795
:103c8000560f73021d436b463a002900200001f0d5
:103c900053fa070007224449200004f090fe3b003d
:103ca0006a46c0214901200004f012fd3a003f4954
:103cb000200004f084fe43461e43882232433c49e0
:103cc000200004f07cfe63001b199b00334ad318cc
:103cd0001b7a092b49d00a2b43d063001b199b0088
:103ce0002e4ad3189b7a5b0707d5e3001b199b006c
:103cf000304ad3185d78002d44d02f4e1025310066
:103d0000200004f072fe0542f9d001222a49200069
:103d100004f055fe04f080fe63001c19a4001f4b44
:103d20001c190623237204f081fe0125280008b027
:103d300004bc9046f0bd63001b199b00174ad318c2
:103d40005e7ab606760f102398469ae763001b1931
:103d50009b00124ad3189e68f603760f20239846dc
:103d60008fe71f231d400d2db7d004f055fe6300d3
:103d70001c19a400094b1c190523237204f056fedc
:103d80000225d3e7200001f011ff200004f090fc91
:103d9000cce7c04618010020c401002078010020b3
:103da00090010020411a0000861a0000031a00004a
:0c3db000041a0000c8000020051a0000e2
:020000040000fa
:103dbc00f8b504000201894bd35c002b51d1874b21
:103dcc009b185b78012b54d063001b19db00844ad1
:103ddc00d3181b7d002b0dd0a3001b199b00814a0f
:103dec00d3189b781f2b61d0a3001b199b009b5ce5
:103dfc00122b5bd063001b19db00794ad318db7cd8
:103e0c00002b2dd01b0700d594e063001b19db00a1
:103e1c00734ad318db7c0822934300d09ce0a300a8
:103e2c001b199b006f4ad3189b7bdb0700d5a5e0c1
:103e3c006a4b22010921d1549b1800225a70a3000d
:103e4c001b199b002a21674a995404f0dffd63007b
:103e5c001c19e400624b1c190023e37404f0e0fd10
:103e6c00f8bd052bb0d102015c4b9b185b78022b83
:103e7c00aad1200004f0aaf865002d19eb00584dca
:103e8c00ed1800262e75a87b04f034fa0c27af73be
:103e9c002e740123ab74e87b04f02cfaef736e7470
:103eac0004f0b4fdee7404f0bbfd8de763001b1948
:103ebc00db004b4ad3185b7c022b05d963001b1922
:103ecc00db00d31800229a7463001b19db00444af0
:103edc00d3181b7c022b29d90021200004f05af89e
:103eec00200001f04ffd63001b19db003c4ad31886
:103efc0000221a745b78db0712d52201374b9b1812
:103f0c0005225a70a3001b199b002a21354a99548b
:103f1c0063001b19db00324ad31800221a7569e7bb
:103f2c0022012e4b9b1805225a70ebe7200004f05f
:103f3c004df8ede70521200001f082fd002800d1ad
:103f4c008ee763001b19db00254ded18e87b04f0b0
:103f5c00d1f90c23eb7358e70621200001f070fd1a
:103f6c00002800d17ce763001b19db001c4ded1809
:103f7c00a87b04f0bff90c23ab7350e763001b194b
:103f8c00db00174ad318db7c1b071bd463001b19ff
:103f9c00db00134ad318db7c0822934307d0630061
:103fac001b19db000e4ad3181a7c01321a7420003c
:103fbc0003f002fe63001b19db00094ad318da7cfc
:103fcc001a7542e763001b19db00d3185a7c0132c7
:103fdc005a746021200003f08dfad7e730010020dd
:083fec009001002050010020ab
:020000040000fa
:103ff400f0b5de4657464e464546e0b58db0040062
:104004000d0016000e22002108a804f09bfd0e22cc
:10401400002104a804f096fd2300a0467b4f220053
:10402400e400e3189b00fb1820331b78180000936e
:104034006d046d0f0192a11889000431c91904aaf5
:1040440001f0dcfb08aa3100280001f0d7fb04a929
:1040540049788b46019b9c4664445c44a4003c190b
:1040640063689a46002d00d1bee004ab1c78534629
:104074009b0a994608ab013deab29446511c49009b
:10408400591852469705bf0d4846b94602e0023317
:104094008b4237d01a78a242f9d35d78aa0092599c
:1040a400970a4740bf05f2d19205920d4a45eed3d7
:1040b4004846574c019f7900ca19d200a2185346aa
:1040c4005b088026b604334098465646b602514be8
:1040d4001e4043463343184301352d07054355819c
:1040e4002d0c958153469b059b0d93805346d3809d
:1040f40053461b0c13815b460133d370380003f025
:10410400dffa71e008aa537819000393112304a875
:1041140081464b449b4663465b000333d3180293aa
:10412400009b5c1ee4b26400033414194346dd00b2
:1041340045446b189b00354a904698441700b44692
:104144002e00250040465b461b789a469b0062463b
:104154009b589946009b002b50d041684b469c0ac3
:104164008b0a63409b0546d0132204ab9846424415
:104174008046aa4241d0107833189b00fb18596836
:1041840002328b0a63409b05f3d1214c019f7a00d4
:10419400d319db00e3184d46ad021e4e35404e46a2
:1041a400b605b60d354349088026b6043140294387
:1041b400554601352d078026f60435432943598198
:1041c400090c998149468905890d99804946d98008
:1041d4004946090c1981bc466244d200a218013038
:1041e400d070380003f06cfa0db03cbc9046994690
:1041f400a246ab46f0bd0398c7e740460223994662
:10420400cb44029b9b459ed1eee7c0463c04002074
:084214009001002000fc0f00e6
:020000040000fa
:10421c0070b5040004f046fa5d4a5e49200004f0d3
:10422c00d3fb5d4a5d49200004f0cefb5422d02123
:10423c004901200004f0bdfb200003f063fd584a47
:10424c005849200004f0c0fb64225749200004f0b8
:10425c00b0fb5e225549200004f0abfb0a23544a04
:10426c00d5214901200004f02dfa524a5249200070
:10427c0004f0aafb1823514a5149200004f022faf9
:10428c001823504a5049200004f01cfa01224f49cf
:10429c00200004f08efb63001b19db004c4a9b5c76
:1042ac009222db0701d59022520080231b021a4375
:1042bc00a0218901200004f087fb10224549200031
:1042cc0004f077fb63001b19db00414a9b5cdb07a6
:1042dc0057d406224049200004f06bfb10223f49c2
:1042ec00200003f091ff88223d49200004f061fb7f
:1042fc0080223c49200004f05cfb07223a49200054
:10430c0004f057fb07223949200004f052fb01222c
:10431c0090218901200004f04cfb04223449200038
:10432c0004f047fb10221421200003f06dff314de7
:10433c00620013199b00eb180021596010198000c2
:10434c00415118001972597a0725a9433825a943f8
:10435c0059725d7a3f21294059729b7a01218b4316
:10436c0004218b4308218b4302218b438372121946
:10437c009200214b9a180c231372200003f02cf896
:10438c0070bd1e221449200004f013fba6e7c046a2
:10439c003c1e00000b1a00009f320000071a0000a0
:1043ac0080c40000421a0000461a0000491a00009e
:1043bc008c8b00009fc80000b01a000048890000d8
:1043cc00102800003089000030280000022800006e
:1043dc009001002004280000411a00000108000090
:1043ec00821a0000871a0000811a0000861a000049
:0c43fc00891a0000780100201801002040
:020000040000fa
:10440800f0b583b0040043001b189b006b4ad31817
:10441800db7a9b0656d543001b189b00d318db7a22
:10442800db061b0fdab20a2a4cd89300644ad35829
:104438009f4643001b189b00604ad318db7a5b0633
:104448000ad543001c18a4001319da7a1e218a43de
:1044580014210a43da7235e002f032fe02008621a6
:1044680049006143574b5b181979574b0193574bd8
:10447800009300232000fff777fb01280bd063008f
:104488001c19a4004d4b1b19da7a1e218a430821f6
:104498000a43da7216e063001c19a400474b1b1983
:1044a800da7a1e218a4306210a43da720ae04300b7
:1044b8001b189a00464b9b189a7a02210a439a7253
:1044c80002f08cff03b0f0bd43001b189b003b4a71
:1044d800d318db7a5b060ad543001c18a40013190d
:1044e800da7a1e218a4314210a43da72eae7430082
:1044f8001b189b00314ad3185989c905090f31483f
:1045080086235b001e00664385196a88314f3a404e
:10451800cf023a431204330005331a2779435b1854
:104528001b18315a0a4329792b4801902b480090cf
:104538002000fff719fb01280bd063001c19a40009
:104548001e4b1b19da7a1e218a4310210a43da729c
:10455800b8e763001c19a400184b1b19da7a1e214e
:104568008a430c210a43da72ace743001b189b000c
:10457800124ad3185b89db051b0f0bd043001c18ac
:10458800a4000e4b1b19da7a1e218a4310210a4314
:10459800da7297e7012102f08bfc93e7032102f01e
:1045a80087fc8fe702f01aff63001c19a400034b75
:1045b8001b19da7a40218a43da7283e7180100204e
:1045c800b0830000c401002001000400f96f00005e
:1045d80078010020ff87ffff0c070808595c0000de
:020000040000fa
:1045e800f0b5c30f85b0440245000391640a2d0e4f
:1045f8000293019330d0ff2d3ad08023e400db04ee
:104608007f3d1c4300950027039b5e025d00db0f86
:10461800760a2d0e039334d0ff2d3cd0802228003b
:104628000025f600d20416437f38039b029a5a40ad
:10463800009b9c4684446346b80028430138591cb3
:104648000e2833d804f03efa2f2f8c7b7bad8c7b61
:10465800ad7b8c7a7a7a6b00002c0fd0200003f0a7
:104668000bfc7626431f76429c40331a0093cae718
:1046780000950327002cc7d10227c5e7009401271e
:10468800c2e7301e0dd003f0f7fb431f9e40762390
:104698005b42181ac9e728000325002ec5d1022558
:1046a800c3e70125c1e734002f0048e0b7b2a3b241
:1046b800200c3c00350c47435c4368435d43230ca6
:1046c800ed195b199f4202d980256d024019a4b2e9
:1046d8001d042d19ac01671ebc41ad0e25431c0cf1
:1046e8002418a4012c4323013dd5012360081c4054
:1046f80004430d007f35002d37dd630704d00f23f9
:104708002340042b00d00434230103d580310d004d
:10471800284b1c40e308fe2d19dd00230ce0802304
:10472800db031c4204d01e4202d13400039b0193d8
:104738008023019adb032343ff2508e0029a022f16
:10474800ebd0032f31d000231d00012fd1d1580207
:10475800edb2ed05400ad2072843104305b0f0bd7d
:104768003400039aa0e76146c3e70120451b1b2dcf
:104778001ddc23002020eb40451bac40611e8c4112
:104788002343590704d00f211940042900d00433ca
:104798008025ed041d40db08002dd8d0002301251d
:1047a800d5e780240023e403c1e70192c0e7002392
:0847b8001d00cce7fffffff735
:020000040000fa
:1047c000f0b5de4657464e464546e0b583b08046d6
:1047d0008c4692461a00002944d0002842d0674bec
:1047e0005b68072018400dd000236146c90700d53b
:1047f0009de0002a46d14346591e8b415b426146eb
:1048000019408c465346002b00d19ae05b4b9b7bb2
:104810005b0705d5594b0424198b997b2142fbd1a9
:1048200056490b8a042423430b8200239946624590
:1048300002d96346d31a9946002806d05208634627
:104840005b089c464b465b0899464c4c0121a37b78
:104850000b42fcd000210027484c04260125019181
:10486000009023e00023002a61d05346002b66d03d
:10487000424b5b680720184000d177e06346002b6d
:1048800000d06de00023d107b5d550e07b00414654
:104890005b5adb05db0d23830137002a13d1019915
:1048a0000098a37b2b42fcd00191009067452bd050
:1048b000009b002bead14346db5d23830137ece705
:1048c0002f4b238328e001990098a37b3342fcd02f
:1048d000019183460090238b9bb208009142e5d260
:1048e0005946002904d151460b5401300190dde7af
:1048f000019949008b46db05db0d51465846435272
:10490000019901310191d1e74b46002b09d0009b61
:10491000002bd5d1ff23238301235b429b46d9443f
:10492000bbe7164902228b7b1342fcd001231800ff
:1049300003b03cbc90469946a246ab46f0bd00236e
:10494000f5e70e4b9b7b00225b0700d562e70b4a25
:10495000138a04210b4313820022002399466be73c
:1049600000236146c90700d48ce7e0e74346002beb
:1049700000d047e700239c4648e7c04600080042b5
:04498000ff01000033
:020000040000fa
:10498400f0b5c30f85b0440245000391640a2d0eaf
:10499400029301930ad0ff2d38d08023e400db0476
:1049a4007f3d1c432e00002300930ae0002c33d0eb
:1049b400200003f063fa7626431f9c407642361aa1
:1049c4000095039b5f025d00db0f7f0a2d0e0393ae
:1049d40025d0ff2d2dd0802228000025ff00d204f1
:1049e40017437f38039b029a361a5a40009b98005b
:1049f400284301380e2824d804f066f84e9d639da0
:104a0400979d634e4e976379797954002e00032362
:104a1400002cc9d10223c7e726000123c4e7381eae
:104a24000dd003f02bfa431f9f4076235b42181ae4
:104a3400d8e728000325002fd4d10225d2e7012589
:104a4400d0e764017801844228d31a210123241a6f
:104a5400012527005b006400002f01dba04201d880
:104a6400241a2b4301390029f3d1611e8c411c43c4
:104a740031007f3100293cdd630704d00f2323403c
:104a8400042b00d00434230103d531002b4b803197
:104a94001c40e308fe2921dd002310e0013e1b2118
:104aa4000023d5e78023db031c4204d01f4202d13c
:104ab4003c00039b01938023019adb032343ff21e2
:104ac4000ce03c00039a0095009b022be4d0032bde
:104ad4002fd00023009819000128c9d15802c9b267
:104ae400c905400ad2070843104305b0f0bd029a35
:104af400eae70120411a1b291ddc23002020cb40ba
:104b0400411a8c40611e8c412343590704d00f2164
:104b14001940042900d004338021c9041940db085a
:104b24000029dbd000230121d8e780240023e403fb
:104b3400c0e70192bfe700231900cfe7fffffff7ab
:020000040000fa
:104b440070b582b0040000292ed043001b18db008e
:104b54005f4ad3185b7c002b00d083e05d492000c2
:104b640003f041ffe3001b199b005b4a9b5807229b
:104b74001340012b00d184e02201584b9b189a78f2
:104b8400db789a4200d28ce02301544ad218d379bc
:104b940060218b4340210b43d371082284210901f6
:104ba400200003f035fb8be003014c4ded18eb794d
:104bb40010221343eb71842636010c22310003f0da
:104bc4003ffb40223100200003f03afb002120008b
:104bd40002f094fc29224249200003f0f9fe01234b
:104be4006a46073282210901200003f07ffd012378
:104bf4002b712a7a0c231340042b1bd06b46da1d2d
:104c0400137838218b4310210b4313700123822125
:104c14000901200003f05afd0c222e49200003f064
:104c24000ffb0221200001f099fc6021200002f01a
:104c340065fc4be06b46da1d137807218b43022198
:104c44000b431370012382210901200003f03efd70
:104c540003222049200003f0f3fa0121200001f08f
:104c64007dfce2e743001b18db00d518e87b03f06a
:104c740045fb002322001b491b4801f0c7fae873d7
:104c84006ce72201154b9b189a78db789a4205d978
:104c94002201124b9b18db79db0702d4c30600d434
:104ca40072e723010d4ad218d37960218b43202166
:104cb4000b43d371042284210901200003f0a8fad4
:104cc400402284210901200003f0a2fa02b070bd41
:104cd40090010020210800003c0400203001002045
:0c4ce4002208000081870000102700005b
:020000040000fa
:104cf000f0b585b004000f256d4400232b700e2203
:104d00006a4413700d226a44137001232a00d421cf
:104d1000490103f0d3f82b78db0707d40f236b444a
:104d20001b789b0700d570e005b0f0bd0e266e44e1
:104d3000012332005149200003f0c0f80d276f44d1
:104d400001233a004e49200003f0b8f803ad327851
:104d50003b7813402b7001232a004849200003f0c0
:104d600053f82b78da0706d56200121992004549ec
:104d70008a18012111729a0706d562001219920051
:104d800040498a18032111725a0729d5250062006b
:104d9000121992003b498a18022111721b0721d473
:104da000200000f003ff6b005b199b00354a9e5802
:104db000002e0dd06b005b199b00d3185968080cae
:104dc000c3b20a0ad2b2c9b2000a00902000b047aa
:104dd0006b005d19ad002b4b5d1900232b729de715
:104de0001b0708d5250063001b199b00254ad31813
:104df00004221a72d7e7250063001b199b00214a81
:104e0000d3181b7a042bcbd1cde70e266e44012399
:104e100032001d49200003f051f80d276f44012393
:104e20003a001a49200003f049f803ad32783b7884
:104e300013402b7001232a001349200002f0e4ffe5
:104e40002b787f2b16d803ab1b781b0700d46be79e
:104e50000c4963001a1992008a18927a08200243ba
:104e60001b199b00cb18ef210a409a72200003f017
:104e7000f1fd59e7200002f0f7fce4e7811a000099
:104e8000861a000078010020821a0000871a0000ac
:020000040000fa
:104e900010b5c6b0040082225200002105a803f01c
:104ea00053fe002213236b441a702000fff7acfa64
:104eb00003f0b2fda3001b199b004e4ad3185b7c84
:104ec000002b18d063001b19db004b4ad3185b780a
:104ed000db0700d46ee0474aa300191989000a20b5
:104ee0008854531817229a70a3001b199b00414a3b
:104ef000d31800225a7403f099fd200002f0c8fe76
:104f00000023009305ab03aa13216944200000f09d
:104f100075f80a2303422cd063001b19db00364ac4
:104f2000985c039b9b098108032211401a4091421f
:104f30004ad962001219d2002f4989184a780c20e8
:104f400082439b00034013434b70200002f0e0febd
:104f50000399a3001b199b00264ad318da1dd971a7
:104f60000b0a53700b0c93700b0ed3702000fdf7df
:104f700007ffa3001b199b001e4ad31866225a7014
:104f800063001b19db001c4ad3185b78db0727d4ae
:104f900013236b441a78039b05a92000fcf7bafb86
:104fa00013236b441a78039b05a92000fdf716fb19
:104fb00046b010bd0f4aa300191989001a20885461
:104fc000531847229a708fe762001219d2000a4bd9
:104fd0009a1853780c218b43084003435370b4e76d
:104fe00013236b441a78039b05a92000fbf76af88a
:0c4ff000d6e7c0465001002090010020d0
:020000040000fa
:104ffc00f0b5c64600b582b00400019117001d0043
:10500c00fef7d0f986b2002e23d163001b199b004a
:10501c00434ad3189b7a9b0707d463001b199b0048
:10502c00d3189b7a00201b0748d563001b199b00e3
:10503c003b4ad3189b7a04269b0738d563001b196f
:10504c009a00374b9b189a7a02218a439a7210263f
:10505c002de0830736d5e3001b199b00314ad3188a
:10506c005a7801990a705b883b60002d1fd0e300d1
:10507c001b199b002b4ad3185b885b045b0f16d063
:10508c0000210022e30018198000264b1818831cfd
:10509c009c46072741180b79ab54013292b2110090
:1050ac0063461b881b133b409b009a42f2db089b18
:1050bc00002b02d0f1b220009847f0b202b004bc31
:1050cc009046f0bd0307b0d5174b98468622520088
:1050dc0062439b181879019908705b881b04414640
:1050ec00525a13433b60002de1d08622520062439a
:1050fc008b185b88db05dad0002100238622520056
:10510c00624340468018871c41184a79ea5401339f
:10511c009bb219003a88d205d20d9342f4dbc6e754
:0c512c0078010020c8000020c401002011
:020000040000fa
:10513800f0b5d6464f464646c0b582b00f001500ba
:105148001c000b0400d47ce00b0c98466a46d38004
:10515800d388994643465b0546d4404943001a180c
:1051680092008a185289d205181880000818837a84
:10517800db06120f1b0f9a4202d000201a2635e0d8
:105188004346d805c00d1a2100f0fefe002955d06f
:10519800ceb2ff2319400231ca17930f9c46c81894
:1051a80003239a4618406346c01ac0b253461340b8
:1051b8005b189b10dbb2002804d00422101ac0b27e
:1051c8000133dbb23a04120c25490a401b031a4387
:1051d800390c09040a432270130a6370012312046c
:1051e80007d40ce0180021e00220002627703f0aaf
:1051f80067704346a3704b461b0ae3700323002dd8
:105208000ad0002e08d0f618f6b20133dbb229789e
:10521800e15401359e42f8d10028e3d01818c0b2f5
:1052280000220133dbb2e2548342fad10130c0b22a
:1052380002b01cbc90469946a246f0bd00201a2632
:10524800d4e74e04760fb60021700f0a6770002a63
:1052580002d000200123d4e70120e7e7180100204d
:04526800ff8fffffb6
:020000040000fa
:10526c00f2550000da550000da550000ce5500006a
:10527c00ce550000ce550000ce550000ce55000096
:10528c00da550000ce550000ce550000ce5500007a
:10529c00ce550000ce550000ce550000ce55000076
:1052ac00ce550000ce550000ce550000ce55000066
:1052bc00ce550000ce550000ce550000ce55000056
:1052cc00ce550000ce550000ce550000ce55000046
:1052dc00ce550000ce550000ce550000ce55000036
:1052ec00b85500009255000092550000ce550000b4
:1052fc00ce550000ce550000ce550000ce55000016
:10530c00ce550000ce550000ce550000ce55000005
:10531c00ce550000ce550000ce550000ce550000f5
:10532c00ce550000ce550000ce550000ce550000e5
:10533c00ce550000ce550000ce550000ce550000d5
:10534c00ce550000ce550000ce550000ce550000c5
:10535c00ce550000ce550000ce550000ce550000b5
:10536c00b8550000ce550000ce550000ce550000bb
:10537c00ce550000ce550000ce550000ce55000095
:04538c009255000036
:020000040000fa
:10539000c3001b189b003b4a9b585b072fd00201a0
:1053a000394b9b18db799a060bd50101364a521806
:1053b0009278002a05d1344a5218d1785279914214
:1053c00015d05b062fd502012f4b9b18db78002be5
:1053d00029d12d4b9b189a785b799a4223d10201ef
:1053e000294b9b181a7a08210a431a721be0020102
:1053f000254b9b181a7a04210a431a7213e0020102
:10540000214b9b18db799a0605d501011e4a5218db
:105410009278952a19d05b0605d502011a4b9b1884
:10542000db78952b1fd00201174b9b181b7a0c229f
:105430001a4209d00001144a1018c27960218a4327
:10544000c27102229343037270470f4a5218d178f7
:1054500052799142dfd102010b4b9b181a7a042139
:105460000a431a72dfe7084b9b189a785b799a42d5
:10547000d9d10201044b9b181a7a08210a431a72e7
:0c548000d1e7c0463c04002030010020b1
:020000040000fa
:10548c002b4a136a2b490b4002210b431362110068
:10549c000822cb681a42fcd00022254b9a61264b7d
:1054ac00264a5a60264a9a601a0053785bb2002b3f
:1054bc00fbdb1f4a938c80218b43938411001022b9
:1054cc00cb681a42fcd01f4b1b689b0e3f2b2cd079
:1054dc009b021d4a12689205920d1343144a936263
:1054ec008221c901144b5980184bd362184b9384f9
:1054fc0011004022cb681a42fcd0164a0e4b5a605f
:10550c001a0053785bb2002bfbdb0b4b124a5a8010
:10551c000a325a8001325a8005325a800f4b1f22b0
:10552c005a61da610e4a1a6270471f23d0e7c046ef
:10553c00000800400000ffcf000c004001060100f5
:10554c0001fa00002460800028608000dc05140053
:10555c004602000000070100034000000004004068
:04556c000401010035
:020000040000fa
:10557000f8b50400344b0201d55c9b185e789f7827
:10558000db787b40dab2482a21d89b002f4ad358d7
:105590009f4602012c4b9b18da7901210a43da71ec
:1055a00003f076fa022d4cd0012d10d1200003f02b
:1055b000e3f9002600250ae0022d08d00201224b63
:1055c0009b18da7901218a43da71002601251e4be6
:1055d0002401e5541c196670f8bd02011a4b9b1892
:1055e000da7901210a43da71002df0d12e0001256c
:1055f000ede70201144b9b181b79bb4206d0002f2c
:1056000009d0002de3d12e000125e0e7002dded1e9
:105610002e000125dbe702010b4b9b18da790121f3
:105620008a43da7103f034fa012d04d0022dced171
:105630003e000325cbe7200003f09ef93e003d002d
:10564000c5e700260325c2e7300100206c520000a8
:020000040000fa
:10565000f0b5d6464f4680b585b0324f002403ad35
:105660000095200002f048fc3e003b689b0617d4e2
:105670000134e4b22437022cf3d12a4b1b689b0679
:1056800002d40022274b1a60264b5b6a9b0602d489
:105690000022244b5a6205b00cbc91469a46f0bddc
:1056a0000023002200210a2000f0b2fd0190c30077
:1056b0001d4a944663440633994630239a460ce0cb
:1056c0000423009a0421200003f012f82b78242be5
:1056d00017d0202332689a4332604b461b785246db
:1056e0001340202b1ad00423009a0e21200002f030
:1056f000ffff2b78022be3d0202332689a433260dd
:10570000ebe76b78042be4d1ab78502be1d1eb784d
:10571000032bded12023326813433360019802f05b
:0c572000effda5e73c040020dc030020a6
:020000040000fa
:10572c0030b583b00400c3001b189b002d4a9b5856
:10573c009b0601d403b030bd03f068f9002301aa25
:10574c0013806a46d3806b460022da70264b1b5db1
:10575c00022b1cd001ad02232a001021200002f0e4
:10576c00a7fb2b88db041ed401ab19881f4b1942f5
:10577c002cd101ab1b88db062cd401ab1b889b07ff
:10578c002cd40122184b1a5503f04af9d2e76b4678
:10579c00dd1c01232a000e21200002f089fb2b784e
:1057ac00022bf6d1d6e76b469d1d02232a0014214d
:1057bc00200002f07dfb2b880d4a13402b80022326
:1057cc002a001421200002f019fbcde72000fdf780
:1057dc00fbf8cee72000fff785facee7200001f0ba
:1057ec0003f8cee73c040020c001002001060000b5
:0457fc00ffefffffbd
:020000040000fa
:10580000f0b5de4657464e464546e0b583b0824683
:105810001400002850d089461600002732239b46ea
:1058200000e01f004b4620cb99462803800d5b46c5
:10583000584301f04df92449fff7a4f80190ad0554
:10584000ad0da8004019400001f042f91e49fff7d4
:1058500099f8011c0198fef7c7fe02f023fd307095
:1058600077707b1cdbb202369a45dad1002b23d04d
:105870005a1e9046023bdb1b9c4618e00132d2b216
:10588000ba420eda5300e5182e780233e31819787d
:105890008e42f3d868782970597869701e705870f4
:1058a000ece701235b429946c844e04504d04746f3
:1058b0000022002fe6dcf4e703b03cbc904699469a
:0c58c000a246ab46f0bdc04600007a4492
:020000040000fa
:1058cc0010b5040003f0a2f822012c4b9b181b7a94
:1058dc00da070bd52101294a52185278012a1cd01b
:1058ec002101264a521801218b4313722201234baa
:1058fc009b181b7a9b072dd5204b9b18db79da065e
:10590c0010d460221a4217d11c4b2201d15c0a29f7
:10591c0019d88b001a4ad3589f46184a521803219b
:10592c005170dde7200002f08bfe2201134b9b1817
:10593c001b7a9b070ed5e7e72000fff723fdf4e762
:10594c002000fff70ffe24010c4b1c19237a0222b6
:10595c009343237203f064f810bd2201074b9b188c
:10596c0003225a70efe7200000f038feebe7034b00
:10597c002201981800214170d154e4e73001002035
:04598c00dc830000b8
:020000040000fa
:10599000f0b5d6464f464646c0b5040003f03cf885
:1059a000a146a3001b199b002249c9180c23cb73e5
:1059b0002001214a1218937162001519ad001f4889
:1059c000401903720b741219d2001d498a1893737f
