:020000040000fa
:10000000f01f002009700000a7670000c7740000ff
:1000100000000000000000000000000000000000e0
:100020000000000000000000000000007f2e000023
:1000300000000000000000007f2e00007f2e000066
:100040007f2e00007f2e00007f2e00007f2e0000fc
:10005000297800007f2e00007f2e00007f2e0000f8
:100060007f2e00007f2e00007f2e00000000000089
:1000700000000000257f00007f2e00007f2e000082
:100080007f2e00007f2e00007f2e00000000000069
:10009000000000007f2e00007f2e00007f2e000059
:0400a0007f2e0000af
:020000040000fa
:1000a400f8b5c046f8bc08bc9e467047f174000021
:1000b400f8b5c046f8bc08bc9e467047c974000039
:020000040000fa
:1000c400f7b50d0009036c00ed0f0095490a450fc3
:1000d40029431d035e00c700d80f6b0a550f2b433d
:1000e400c14d640d760dd200ae4203d11d0084468d
:1000f400154302d101254540ac46009da01bac45eb
:1001040000d036e1002861dd002e25d11d00154305
:1001140000d196e2461e002e19d1ba18ba42a44163
:10012400c91864420919170001240b0200d4bee067
:10013400ad4b01349c4200d180e2ac487b080140c5
:10014400012007401f43c80707434908afe0a64df5
:10015400a84209d1a44caae0a34dac4200d1a6e028
:10016400802506002d042b43382e2adc1f2e17dc95
:1001740020201d00801b8540ac4615000190f540f1
:10018400604605430198f3408240501e8241154366
:10019400ed195b18bd428941494259182f00c4e743
:1001a40030001d002038c5400020202e03d0402000
:1001b400861bb34018000243501e8241154300239e
:1001c400e6e71a4315006a1e9541f8e7002850d067
:1001d400002c14d10c003c4300d128e2c443002c71
:1001e40007d1bf189742a441c918644209193400c1
:1001f4009be77d48864209d119001700aae77a4c8b
:10020400a642f9d04442802000040143382c2bdc60
:100214001f2c17dc2025281b01900800019de140bc
:10022400a840844638006546e0402843019daf401d
:100234007d1eaf413843871897429241c9185242f4
:100244008918d4e720000d002038c5402800002577
:10025400202c03d040252c1ba1400d002f437d1ed4
:10026400af4138430021e6e70f433800471eb84149
:10027400f8e7661c75056d0d012d00dd69e00800c9
:100284003843002c49d1002800d1d3e11800104391
:100294000dd0ba18ba42b641c918802376428919da
:1002a4001b041700194202d00124504b19407b074c
:1002b40009d00f233b40042b05d03b1dbb42bf415b
:1002c4007f42c9191f000b0206d5474b01349c42db
:1002d40000d1c3e1454b1940434b4807ff0838435d
:1002e400c9089c4206d103000b4300d1b9e1802325
:1002f4001b031943002709033b0d1b05090b194375
:100304003b4b6405194064080c43009b6400d90707
:1003140064080c43210003b0f0bd002800d16be752
:100324001800104300d115e74807ff080743802051
:10033400c9080003014207d0dc08044204d1d208f2
:100344005b0713431f002100780fc9000143ff001e
:1003540000e7254ca64200d16fe1ba18c918ba4289
:100364009b415b42cb18df075208174359083400fe
:100374009de700285ddd002e3cd11d00154300d112
:100384005fe1461e002e0ed1ba1a9742bf41c91a28
:100394007f42c91b012417000b0200d487e74902de
:1003a4004d0a3e00f9e0104da84200d1d2e6382ea5
:1003b4003adc1f2e27dc20201d00801b8540ac4624
:1003c40015000190f540604605430198f3408240d2
:1003d400501e824115437d1bcb1aaf4289414942cd
:1003e400591a2f00d8e7c046ff070000ffff7fff20
:1003f400ffff0f809c4dac4200d158e780252d04af
:100404002b430600d3e730001d002038c5400020f0
:10041400202e03d04020861bb34018000243501ef8
:10042400824115430023d6e71a4315006a1e9541fd
:10043400f8e700284dd0002c17d10c003c4300d124
:1004440001e1c443002c09d1d71bba429241591a85
:1004540063465242891a340000939de782488642db
:100464000ad119001700804c45e07f4ca642f8d011
:100474004442802000040143382c25dc1f2c11dc6d
:100484002025281b00900800009de140a84005009d
:100494003800e0402843009daf407d1eaf41384303
:1004a400171ad2e720000d002038c5402800002587
:1004b400202c03d040252c1ba1400d002f437d1e72
:1004c400af4138430021ebe70f433800471eb841e2
:1004d400f8e7601c4005400d01284cdc18000d00b5
:1004e40010433d43002c24d1002d07d1071e00d119
:1004f400ade01900170063460093d8e6002800d148
:10050400d5e6bd1aaf42b641c81a7642801b802692
:100514003604304206d0d71bba429241591a52428d
:10052400891ae8e72f00074300d190e001002f006b
:10053400bde6002d07d1071e00d18be019006346ec
:100544001700009306e6002800d103e64807ff08d9
:1005540007438020c9080003014200d1f4e6dc0807
:10056400044200d0f0e6d2085b0713431f00634641
:1005740021000093e8e6be1ab7428041cd1a4042fa
:100584002d1a8020000405422dd0d61bb242ad4165
:10059400591a63466d424d1b0093002d29d0280043
:1005a40007f0f4f90300083b1f2b27dc202231005d
:1005b4009e40d21a9d40d14037000d439c4232dc0c
:1005c4001c1b661c1f2e1edc20233a0029009b1bcb
:1005d4009940f2409f400a43791e8f412900f1401f
:1005e4001743002463e637002f43d6d139003c007b
:1005f4002ee0300007f0caf92030d3e73500283860
:1006040085400027dae72a001f3ce2400023202e21
:1006140003d040239e1b2b00b3401f437b1e9f41ee
:1006240000211743dde71149e41a29403fe6190088
:1006340017009ce61900170039e60b4c00210f0047
:1006440035e6040033e619001700340053e7390097
:1006540000972ce68021044cc903f9e700210f0020
:100664003ae6190046e6c046ff070000ffff7fff99
:10067400f0b58bb0060004930400cb0f0d034800c3
:1006840000922d0b400d0393029346d0584b984291
:1006940067d08023720f1b04ed0013432b431f000c
:1006a400544bf400c31800260193049b009a1d03c5
:1006b4005800db0f2d0b400d069361d04c4b984234
:1006c40000d181e08023520f1b041343ed001d432e
:1006d400484a009b8218db0094460022069803993e
:1006e4004140604604910199091ab0001043013851
:1006f40005910e2800d981e007f0bafe7500490281
:10070400ed0149023d024902ed01750075003d020b
:10071400ed01fc01fc01fc01e2012f00374327d06d
:10072400002d13d0280007f031f901000b391c29e2
:1007340011dc02001d2337003400083a5b1a95408f
:10074400df4094402f432c4b1b1aace7300007f0da
:100754001df92030e9e70300283b9e4000243700c0
:10076400f1e72e43371e07d02f00019003269ce7a4
:100774003c000197012698e734000190022694e793
:10078400009b2b4327d0002d13d0280007f0fef840
:1007940001000b391c2911dc1d2302005b1a00998e
:1007a400083ad940009b954093400d43124a121acf
:1007b40092e7100007f0eaf82030e9e70300009d13
:1007c400283b9d400023f1e7009b2b4307d01300f7
:1007d4008446032282e71d009c4601227ee71d0019
:1007e400844602227ae700252c00014b4ee1c046e4
:1007f400ff07000001fcffff0dfcffffaf4204d820
:1008040000d057e19c4200d254e1f9076208114339
:10081400e0070c0001907f082d021a0e2a431b02e8
:100824000293130c03936b4600921b8803993800c0
:10083400079305f0b1fc0600079b06900399380066
:100844005e4305f0e5fc250c09040d43069fae420a
:1008540009d9009b013fed18ab4204d8ae4202d93e
:10086400069fed18023fab1b03991800069305f091
:1008740093fc079e050046430399069805f0c8fcbf
:10088400a4b209040c432a00a64208d9009b013ae9
:10089400e418a34203d8a64201d9aa1ee4183b04d3
:1008a40002991343029a0904120c090c0892069146
:1008b400089d06989ab2a61b1c0c514360436a43d8
:1008c4006c4312180d0caa18904202d980204002e1
:1008d4002418100c09041204090c04195218a64215
:1008e40005d31f00a64227d10199914224d2029830
:1008f40001998446614401918142894100984942a9
:10090400091876185f1eb04204d315d161460198c8
:10091400814211d8b44203d80ed101998a420bd92d
:1009240002999f1e8c46019b634401938b429b4119
:1009340000995b425b18f618019b341b9b1a0993c0
:10094400099a019b93429b415b42e41a009ba34298
:1009540000d1d2e00399200005f01efc079d06009b
:1009640045430399200005f053fc099b09041c0c22
:100974000c430196a5420cd93300013b0193009b23
:10098400e418a34205d8a54203d9b31e0193009be2
:10099400e418641b0399200005f0fefb079d060084
:1009a40045430399200005f033fc6b460a04998cf7
:1009b400330011438d4208d9009a013b89188a42b9
:1009c40003d88d4201d9b31e8918019a089c1204d8
:1009d4001a43100c93b24d1b16000699069a414314
:1009e4005a43634360435b18140ce318994202d9d9
:1009f400802149024018190c12041b04120c081817
:100a04009b18854204d3340085421bd1002b1bd094
:100a1400009a741e5519aa420fd8a84203d811d1be
:100a2400029a9a420bd2029ab41e51009142924108
:100a3400009e52429219ad180291854202d1029a47
:100a4400934201d001231c43059b564a9b18002b5b
:100a540056dd620709d00f222240042a05d0221d48
:100a6400a242a44164423f191400fa0106d580222f
:100a7400d20094464c4b1f40059b63444b4a93421f
:100a840000dd88e0e40879070c43fd0800212d030c
:100a94000a0d12052d0b1543454a5b0515405b08ed
:100aa4002b43049a5b00d2075b0813432000190010
:100ab4000bb0f0bd059a013a059200220192abe613
:100ac4008022120317425ad0154258d12f001c001d
:100ad400069b029353e02f0016001c00069b049310
:100ae400022e58d0032e50d0012eadd10024250063
:100af4002300cbe7039b0493f2e701246442a3e7ba
:100b04000122d21a382af1dc1f2a21dc20232000fa
:100b14009b1a39009c403d009940d040631e9c4183
:100b2400d54001430c43630709d00f232340042b12
:100b340005d0231da342a44164422d191c00802327
:100b44001b042b402ad16907e4080c43ed089de7f8
:100b54001f214942cb1a3900d9400b000021202a19
:100b640003d040218a1a390091400c43611e8c4104
:100b740000251c43d7e7802700243f0302948025e7
:100b8400029b2d033d4304932fe6049ba1e700251c
:100b94002c002b007ae70024250026e600250123fb
:100ba4002c0073e7ff030000fffffffefe070000b9
:040bb400ffff0f80b0
:020000040000fa
:100bb800f0b509268db0039302abf6180b230a256e
:100bc800337002abed180400ff2302911c220021b0
:100bd80005a82b7007f0bcfc2a003100200007f0a4
:100be80035fb3378d14d053b012b0ad814236343d9
:100bf800ea5c123a012a04d90021ea18d1721222b9
:100c0800ea5414231a006243a85c12380b2800d94e
:100c18009ce007f02bfc0c003a0053007500a5007f
:100c2800d700fa003a015e01d001f0010f0201215c
:100c3800200007f0cefcbe4807f0cffc200006f0ed
:100c4800b9ff142341216343eb189a7b00208a43a0
:100c58009a73d82262431100b64b9031ac32c9184e
:100c6800d21801c18a42fcd1d821621c4a4361438f
:100c78009a185b18b03319681072af4a0a401a60a4
:100c880014235c4313232b5560e0200006f022fe5a
:100c9800aa4b0100984259d13378072b56d1142713
:100ca8003e006643a64b20009b19da88012302f018
:100cb80033fd3323af55ad19ab7047e06343ee18ee
:100cc800b378332b42d10121200007f082fc9848e9
:100cd800253007f082fcf37a022b0cd8d22043236c
:100ce80022009849ff3005f01bfff07314235c4382
:100cf80034232d19e0e70121200005f071fef5e706
:100d080001212000142707f064fc89486743583004
:100d180007f063fc0b21200007f042fc0023ee19ca
:100d2800f3726b4620009989029a00f0f9ffd823e4
:100d38006343804ce418ac342368002b0cd1b37b9c
:100d4800db0705d51823eb553c23b3700db0f0bd78
:100d58001423eb553323f8e71623eb553523f4e733
:100d68006343ed18ab78352b0ad0372beed14323ec
:100d780022007449182005f0d3fe3823e8739be756
:100d88000121200007f025fc6f48083007f025fcfa
:100d9800002301220221200006f04efed8226243e1
:100da800644b9b18ac331b6805933623ab70674bb9
:100db8000193674b02000093002105ab200002f06d
:100dc80057ffc3e76343ed181e00ab78392bbdd13d
:100dd8000121200007f0fdfb5b48363007f0fdfbe2
:100de800574b20009b19da88996832230903890d2b
:100df800594305f0d5fcfa2043232200514940000d
:100e080005f08efe3a23e87356e76343ed181e009b
:100e1800ab783b2b9ad101270121200007f0d9fba1
:100e28004948633007f0d9fb200007f013f8ab7b83
:100e380039003b43ab733c23ab70414b20009b19fb
:100e48009e6807f0c6fb434d681d07f0c6fb3900d6
:100e5800300007f0befb28000b3007f0befb39005e
:100e6800200005f0bdfd0721200007f099fbd822de
:100e78006243304b9b18b0331b685b0400d465e7b2
:100e88000a21200007f08cfb60e76343ef181e007f
:100e9800bb78432b00d059e70121200007f099fbcc
:100ea8002c480e3007f099fb200007f00df940237d
:100eb800ba7b20001343bb7300231a00190005f006
:100ec800aff91a23ab554423bb70fb7a0133fb728d
:100ed8003ce76343eb1898784438032800d935e792
:100ee80007f0b0fa023c4a570121200007f071fbd5
:100ef80018483e3007f071fb14236343ed18402374
:100f0800aa7b20001343ab7307f0acf9002831d05b
:100f18000021200007f00cfb002322000e491920b5
:100f280005f0fefd4523e873c6e6c0460c01002027
:100f3800e040000050020020ff87ffff88130000f8
:100f48002c0100208d6b00006041000016371d3f0a
:100f580069760000e0410000ad7e0000200007f047
:100f680081f9002800d0f1e6200007f0adf814233d
:100f78005c432d1946239fe614266643424b43499a
:100f88009b19da882000002302f0c6fbad1947231d
:100f980092e6200006f09efc002800d0d6e620004d
:100fa80006f02ef9142340215c432a19937b8b43c6
:100fb8009373122367e66343ed18ab78482b00d090
:100fc800c4e60b260121200007f003fb30487130ee
:100fd80007f003fb02abf61805aa3100200006f063
:100fe8004dff002332780421200006f025fd492317
:100ff800ab70284bdce66343ed18ab783d2b00d093
:10100800a4e60121200007f0e4fa23481c3007f089
:10101800e4fa200007f058f80021200007f0e9fa68
:10102800002303211a00200006f006fd3e23ab70c2
:101038001a4bbde66343ed18ab783f2b0bd0412b21
:1010480000d083e6432322001549182005f068fde7
:101058004223e87330e60121200007f0bafa0e486f
:10106800443007f0bafa200007f02ef800212000db
:1010780007f0bffa00230d211a00200006f0dcfc5f
:101088004023ab70074b93e62c0100208813000027
:10109800e0410000183c1d3f604200001433194332
:0810a8008d6b00001d4119438e
:020000040000fa
:1010b00050524c3a204368756e6b54696d657220ce
:1010c00074696d65206f7574200d0a0050524c5f75
:1010d00054585f484152445f52455345545f53450d
:1010e0004e543a20486172642052657365742073cf
:1010f000656e74206f6e206c696e650d0a0050522b
:101100004c3a20526563656976657220656e61624e
:101110006c65640d0a0050524c5f48525f434f4d5e
:10112000504c4554453a2050524c20697320696e0a
:10113000666f726d65642061626f7574204852201d
:10114000636f6d706c6574650050524c3a20434f6c
:101150004e4649475f50524c5f53494e4b5f54587f
:101160005f54494d454f55545f4d5320697320736b
:1011700065740d0a0050524c5f54585f4d53475fe1
:10118000444953434152445f4f4e5f5243563a20c5
:101190005478204d73672044697363617264656499
:1011a000206f6e20526563760d0a0050524c3a2033
:1011b0004275666665726564205478204d736720b9
:1011c00073656e74206f6e206c696e650d0a005039
:1011d000524c3a204368756e6b20534d20456e612a
:1011e000626c65640d0a0057726f6e6720534f5032
:1011f0002a20747970652064657465637465640d74
:101200000a0050524c5f54585f4d53475f42554659
:1012100046455245445f4f4e5f43413a2054782043
:101220004d736720427566666572656420647565f6
:1012300020746f2043410d0a0050524c5f54585f98
:101240004d53475f4f4e5f4c494e453a20547820ee
:101250004d73672073656e74206f6e206c696e65c8
:101260000d0a0050524c3a20496e7469616c6973e2
:101270006174696f6e20446f6e650d0a0050524ca8
:101280003a204368756e6b20534d2050524c5f528c
:1012900043485f53454e445f4348554e4b5f52456c
:1012a00051554553545f53540d0a0050524c3a2047
:1012b0004368756e6b20534d2050524c5f54434829
:1012c0005f53454e445f524553504f4e53455f4325
:1012d00048554e4b5f53540d0a0050524c3a204330
:1012e00068756e6b20534d2050524c5f5443485fdd
:1012f0004348554e4b5f54585f4552524f525f53cf
:10130000540d0a0050524c5f4348554e4b5f5245b6
:1013100051554553545f5243563a204368756e6b9e
:1013200020526571756573742072656365697665b1
:10133000640050524c5f5443485f4552524f523afa
:101340002052657175657374204368756e6b206eed
:10135000756d626572206d69736d617463680050ac
:10136000524c5f4348554e4b5f554e455850454390
:101370005445445f4d53475f5243563a20556e657e
:1013800078706563746564204368756e6b206d7357
:10139000672072656365697665640050524c5f43ef
:1013a00048554e4b5f524553504f4e53455f524345
:1013b000563a204368756e6b20526573706f6e737a
:1013c000652052656365697665640050524c5f43e1
:1013d00048554e4b5f524543565f4552524f523a25
:1013e00020526573706f6e7365204368756e6b2055
:1013f0006e756d626572206d69736d6174636800ee
:1014000050524c5f4348554e4b5f554e45585045e2
:10141000435445445f4d53475f5243563a20556eff
:101420006578706563746564206d736720726563a9
:101430006569766564206f74686572207468616e92
:101440002050696e672026204368756e6b206d738f
:10145000670050524c5f52585f504b545f5041539d
:101460005345445f544f5f50453a205278204d73a6
:101470006720726563656976656420706173736562
:101480006420746f2050450d0a0050524c5f45583f
:10149000544e5f52585f504b545f50415353454434
:1014a0005f544f5f50453a20457874656e646564bb
:1014b000204d73672072656365697665642070618d
:1014c0007373656420746f2050450d0a0050524cb0
:1014d0005f52585f4348554e4b5f5243565f4552eb
:1014e000524f523a205278204368756e6b204572f5
:0714f000726f72200d0a006b
:020000040000fa
:1014f800f0b58bb001920593ca0f0c034b000600a0
:10150800240b5b0d0492039245d0c64a934265d0e2
:101518008022410f12040a43e4001443c24ac50062
:101528009b1800270293059b019a1e035800db0fa6
:10153800360b400d059360d0ba4b984200d180e03d
:101548008023520f1b041343f6001e43b64a019b27
:101558008218db00944600220598049941400191c5
:101568000299b8006144104307910138013106918e
:101578000e2879d806f07aff740074007b01710197
:101588007101bc017b017101bc0171017b016f011b
:101598006f016f0164012500054326d0002c13d08c
:1015a800200006f0f1f901000b391c2910dc1d237d
:1015b80002005b1a31003500083a9440d940954042
:1015c8000c439a4b1b1aace706f0def92030eae729
:1015d80003003400283b9c400025f2e70500254322
:1015e80007d00500029303279de72c0002950127e9
:1015f80099e72c000293022795e7019b334327d0f4
:10160800002e13d0300006f0bff901000b391c2959
:1016180011dc1d2302005b1a0199083ad940019b8d
:10162800964093400e43814a121a93e7100006f041
:10163800abf92030e9e70300019e283b9e400023d8
:10164800f1e7019b334307d013008446032283e765
:101658001e009c4601227fe71e00844602227be78b
:1016680034001d001700f8e0190c9bb20291190014
:101678002a0c514318008c46029f0299adb2684368
:1016880051436f4304916744010cc91903908c4579
:1016980006d9049f380080277f02bc466044049026
:1016a800684680890f0c090409180991310cb6b2f3
:1016b800039130003100bc46039f694350437d438a
:1016c8007a432d180f0c7d19a84202d980204002b8
:1016d8001218280c82182d0489b205926a180892eb
:1016e8001800089962468c46029f210ca4b26043f8
:1016f8004b43674362449446029dff18020cd2197b
:101708004d43934202d980235b02ed183700130c36
:101718005b190293039b67434e435c435943a419e7
:101728003b0c120480b21c191018a64202d980235f
:101738005b02c918049b220463441e00089bbfb2c5
:101748009e42ad418619d2198642bf410298059b37
:1017580084466d42d218ab189c440393059b60469f
:101768009a429241039b5242ab429b415b427f4269
:101778001a43029b3818240c1219b842bf419c45e1
:10178800a4417f4264423c4314196418c30d6402a7
:101798001c43099b75021d43691e8d41f60d354397
:1017a80040020543e30167d501226b0815401d433c
:1017b800e307d4401d43069b1d4a9b18002b5edda2
:1017c8006a0709d00f222a40042a05d02a1daa42f6
:1017d800ad416d4264191500e20106d58022d200a0
:1017e8009446144b1c40069b6344134a934200dd05
:1017f8008be06207ed081543e408002124030a0d75
:101808001205240b14430d4a5b0514405b0823435f
:10181800019a5b00d2075b081343280019000bb03c
:10182800f0bdc046ff07000001fcffff0dfcfffff5
:10183800ff030000fffffffefe070000ffff0f8011
:1018480080221203144257d0164255d134001d008d
:10185800059b039350e0049b0193022f55d0032f5f
:1018680051d0012fa7d100252c002b00c5e71d0062
:10187800059b34000193f5e6079b06939be701223d
:10188800d21a382aefdc1f2a20dc202321009b1ad9
:1018980028009d409940d0406b1e9d41d440014393
:1018a8000d436b0709d00f232b40042b05d02b1dac
:1018b800ab42ad416d4264191d0080231b042340d7
:1018c80000d196e700240123250096e71f2149420d
:1018d800cb1a2100d9400023202a03d040239a1a8a
:1018e800230093401d436b1e9d4100240d43d8e700
:1018f800802400252403039580231b031c43039b9a
:101908000193034b79e7019ba3e700252c00f8e737
:04191800ff070000c5
:020000040000fa
:10191c00f0b5040085b004f033f806f037fdc54e81
:10192c00250173199a780292da781b7a0392019343
:10193c0006f036fda85d053804280fd806f094fd96
:10194c000500560080000e001b0175196f78012fe1
:10195c002bd0002f04d0022f00d1a4e105b0f0bd94
:10196c0014226243b44b39009b18df803a002000ec
:10197c0004f014ff3900200005f02efdd82262433c
:10198c00ae4b20009b18b0331968ad4a0a401a6060
:10199c00012106f003fe2000012106f018fea948e3
:1019ac003c3006f018fe0123b6e07026019b334054
:1019bc001e1ed3d13900200006f009fea148363096
:1019cc0006f009fe3900300006f001fe9e487e301c
:1019dc0006f001fe14226243974b9c499b18da884f
:1019ec002000330001f096fe022395e077197b78f6
:1019fc00022b15d0032b18d0002bafd101212000c6
:101a0c0006f0e5fd8f48703006f0e5fd032322005b
:101a1c0096208f4905f082f80123b8717b709de701
:101a2c00052322008b490a20f4e77023019a1a40ff
:101a3c00102a00d092e700237b70072373558de7a3
:101a4c0073195878042800d988e706f003fd0500bf
:101a5c0087ff590067008f00200003f0ebff142371
:101a6c006343754a0121d318d880200006f0affdde
:101a7c007948243006f0affd029b039a6f4f9342d6
:101a8c002fd910227549200006f04ef9d8230221d7
:101a9c006343fb18b0331a688a431a60200006f0bf
:101aac007dfdd8236343fb180127b0331a6820004f
:101abc003a431a60142363435f4a6449d318da88a3
:101acc007519019304f06afe390020006f7005f05f
:101adc0083fc019b5d49da8820003b0001f01afe73
:101aec003ce710225d49200006f008f9d8230222b9
:101afc006343fb18b03319680a431a600321cde71e
:101b0c00200004f027fa0323220051490a2005f093
:101b1c0005f87519a87105236b701fe714220021b5
:101b2c006243454b20009b18d9800a0004f036fe16
:101b3c007023019a1a4203d00121200005f0aefd5a
:101b4c000c23019a1a4204d160227319d9791142db
:101b5c0009d00021200002f08ffd60227519eb796d
:101b6c009343eb71d7e704225a70f7e605237355bc
:101b7c0075190023d0e773195878042800d9ede6bd
:101b8c0006f068fc050051006e00ecfe930001218c
:101b9c00200006f01cfd3048543006f01cfd0021de
:101bac00200005f019fc0021200005f0d3fad82202
:101bbc006243224b9b18df6907231f40012f25d15d
:101bcc000021200005f0d2f80021200005f015ffbf
:101bdc0004225521200006f0a7f80022390020002d
:101bec0005f0e2fa0c23019a1a4204d17319da793e
:101bfc0060231a4208d060217219d37920008b43dc
:101c0c00d371002102f038fd7519cce6142200279f
:101c1c006243094b39009b18df803a00200004f026
:101c2c00bdfd0322dae70c23019a1a4200d095e697
:101c3c007519d9e6fc0000202c0100205002002070
:101c4c00fe7ffeff703b0000703a0000881300001e
:101c5c0039840000e5820000f03b00002108000000
:101c6c007027019b3b401f1e00d077e6012120000e
:101c7c0006f0adfc25487519363006f0acfc012198
:101c8c00380006f0a4fc22487e3006f0a4fc390093
:101c9c00200005f083fdfa20042322001d4940009a
:101cac0004f03cffa871032336e7d82207276243d0
:101cbc00194b9b18da691740012f1bd1d206920fd2
:101ccc003900200005f070fa00237355751939009e
:101cdc0020006b7005f091fe04225521200006f0c7
:101cec000df82000602105f035fa0121200005f0e7
:101cfc0055fd33e601220021200005f055fa05239d
:101d0c007355002375196b70ebe7c046703b0000f0
:0c1d1c00703a00003984000050020020e2
:020000040000fa
:101d2800f0b5d82497b000900d00029200210e2241
:101d38000ea806f00dfc03260e22002112a806f0bc
:101d480007fc0120009bbb4a01336343d318597930
:101d58009b7a01911e40d9089b0803400493009b7d
:101d680001405c432000230090308018ac3303917d
:101d78009a18010000236d046f0f08c19142fcd12d
:101d8800ba00029906f086fb009b21005a1cd82352
:101d98005343a84d3c31eb1849191f7212aa33005e
:101da80001980eac03f0c6fa3300220002993800fd
:101db80003f0c0fa0eab5b7c009a059336235343bd
:101dc800059a9b180e339b00ed180eab6e681b7cb2
:101dd800b1059c46b30a06937b0007930023890d3f
:101de800079a93422ad10133e3180c93019b0eaa58
:101df800551c5b0016aad3180f3b079336232f00f8
:101e0800009a5a430d920c9b9f4200d080e03620e6
:101e1800009b884958438446bd4263d02e78029a75
:101e2800b3009b580eaa01939b0a069311239b1893
:101e3800079a934200d003e10235ede7e25c624580
:101e480064d3e2185578029faa00d2590698970ad7
:101e58004740bf055ad19205920d8a4256d3049c39
:101e6800744a24060194039cd82373480135002c36
:101e78003ad00099b4024b43d3181f00d233044020
:101e88000a21188804f086f980b204438020730878
:101e9800800403401c43019bac371c432b0780255f
:101ea8002d051d4325433d601421009bb205594370
:101eb800624b920d5b180a215143d98005999e60a7
:101ec8000131d970d821009b59435a4b5b1818002f
:101ed8000699b6308905890db83301801a800098b3
:101ee80004f082fe17b0f0bd8027009cbf04634356
:101ef800b402d31872083a4020401043019a2d07c3
:101f080010430143ac330d431d60cde7023367e74f
:101f180011263b78029a06939b009b5801939b0ad3
:101f28000a930eabf618019b9b0508939b0d09932a
:101f3800079b9e4201d1023765e733780593059ade
:101f48000d9b9b180e333b4a9b00d3185c68a30a71
:101f58000b930a9ba20a53409b0569d16c23009af4
:101f68000a215343059a9b186033324a5b00d31801
:101f7800988804f00ff9099b80b2834258d3089bd4
:101f8800a5059f0d099bad0dab4200d9afb20499d1
:101f9800069e090602910399264bd822a40e013603
:101fa800002934d0009964064a439b181d00d23397
:101fb80018880a2104f0eef8029b80b218438023a7
:101fc8009b041c40044330078026360506432643fd
:101fd800bc02ac3526432e601422009b5a43174b93
:101fe8009b180a227a43da80019a9a60059a01328c
:101ff800da70d822009b5a430e4b9b1819000b9a93
:10200800b6319205920db8330a801f8067e70099b0
:1020180064064a439b18802292041440029a3607a9
:102028002a4314432643bc02ac3326431e60d3e73d
:1020380002367de75002002000fc0f002c01002032
:102048001a780698059262440e3292008a185468eb
:102058000233a20a4240920500d0e9e6049ad82346
:102068001506039a0136002a40d0009a64085343a3
:10207800cb181f00d23318880a2104f08bf8019b73
:1020880080b205439802254bac37184005438020a1
:10209800800404402c433507c02636052e432643ca
:1020a8003e601421019b9a05009b920d59431c4bdd
:1020b8005b180a215143d98001999960059901312a
:1020c800d970d821009b5943164b5b181800069904
:1020d800b6308905890d01801900b8310a8080223f
:1020e800b0331968d2010a431a60f8e6009aa005cd
:1020f8005343019a800d05439002084a6408104032
:1021080080229204054314402c4380253607ed04b1
:10211800cb182e43ac3326431e60c2e700fc0f00e9
:082128002c01002050020020f0
:020000040000fa
:10213000f0b514252b004343c84e0400985d85b0cc
:102140001f380f00092874d806f094f95c007d0050
:10215000b500cc00fd00270148010a0038007001dd
:1021600065437519ab78552b63d10121200006f02a
:1021700034fabb48253006f034fa002310211a0047
:10218000200005f05dfcd8226243b64b9b18072265
:10219000db691340012b0fd0b34b14255622654346
:1021a0007619b2700193b14b020000930023200016
:1021b000190001f061fd3ce0ad4beee76543751998
:1021c000ab78572b35d10121200006f006faa44840
:1021d000513006f006fa002304211a00200005f011
:1021e0002ffcd82262439f4b9b180722db691340c8
:1021f000012b05d09c4b1425654358227619d0e756
:102200009b4bf8e70121200006f0e7f9944877306e
:1022100006f0e7f9200006f029f800280bd1142277
:102220006243944b9b181b7c002b04d1200005f0cb
:1022300091fc05b0f0bd142520236c4333554c238d
:102240003419a370f5e765437719bb784c2b13d08d
:102250004e2beed10121200006f0bff986485d30fb
:1022600006f0bff9200006f001f800281fd0212356
:1022700073554a23bb70dce70121200006f0adf95d
:102280007d48213006f0adf9002303211a0020001b
:1022900005f0d6fb774b5d196b78db0705d4774be0
:1022a000142565434d2276197be7754bf8e7232308
:1022b00073555123dee765437619b3784a2bb8d1bd
:1022c0000121200006f089f96e48193006f089f9dd
:1022d000132322006c49322004f026fc4b23f073b8
:1022e000b370a6e765437719bb784f2b12d0502bfc
:1022f0009fd1200005f0baff00289ad1200005f0f8
:10230000e7fe5c4b5b195b78db0718d5052373553b
:102310001023afe70121200006f05ff9594858303b
:1023200006f05ff90021200006f006f900232200e4
:102330005649192004f0f8fb5023f8739ae7182344
:1023400073553c2396e765437719bb78512b0fd023
:10235000522b00d06de7200005f088ff002800d147
:1023600067e7200005f0b4fe24237355532381e76b
:102370000121200006f031f94548033006f031f91b
:102380000121200006f0d8f80023220041494b200b
:1023900004f0cafb5223f8736ce7654373199b780a
:1023a000532b00d045e70121200006f016f93848ec
:1023b0002d3006f016f9002306211a00200005f042
:1023c0003ffb2c4b5d196b78db0705d4264b14259e
:1023d000654354227619e4e6254bf8e701212000f5
:1023e00006f0fbf82a48643006f0fbf803213a684f
:1023f00092090a4200d01ce714256c431d4a1219a9
:10240000527893080b40012b0bd11a4204d00523bc
:1024100033553419102314e71823335534193c234a
:102420000fe726233355341955230ae765437319fb
:1024300003939b78592b2fd05b2b00d0f9e600211a
:10244000200004f031ff0b4b5b195b78db0740d5b4
:102450000b2373551923039a9370eae60c010020ad
:102460006c2c000050020020183c1d3f69760000d3
:10247000051008292c010020ec2c0000204e1d3fe7
:10248000204e08296c2d00008d6b0000ad7e0000f1
:10249000ec2d0000f55a0000a0230a68db059a42e3
:1024a0000ed10121200004f0fffe5b2322000b4926
:1024b0002d2004f039fb14256c435a2336190fe7fd
:1024c0000c226243064b9b181022997a0a439a7297
:1024d000f1e71a2373554423bde7c046d5830000b6
:0424e00020010020b7
:020000040000fa
:1024e400f7b504000d0004f055ff012824d11f2185
:1024f4006b045b0f2940002b00d181e0481e0e289d
:102504001ad805f0a1ff08284171191919191919c8
:1025140019191919570014236343c349ca18927827
:10252400342a0ad03c2a11d0c04ad3185b78db067f
:102534000cd4200005f018fdf7bd200005f0c6fd01
:1025440000221521200005f0a9f9f5e714235c43c6
:1025540015230b55f0e714236343b34a9b5c022b0a
:102564000ed0052be5d100222000032105f096f9b9
:102574002000012106f02ff8ad4806f030f8dbe723
:10258400200005f0a3fdeee714236343a64d5b5d35
:10259400182b01d0052bcfd1200005f09df9a54bb8
:1025a4009842c9d114235c4328232b5559232d1950
:1025b400ab70c1e7142363439b495a5c182a07d0c4
:1025c400052a05d010269948c3185d78354003d0f4
:1025d40014235c432523bce70f2aadd1200005f06a
:1025e40075fd2a003100ade7142363438e4a9d5cd8
:1025f4000d2d9ed1200005f069fd26222900a1e7ba
:10260400881e0b2898d805f029ff0c002c007600b2
:1026140097ffa300c300d60097ff97ffea00760058
:10262400fc0014256543804b5b199b78382b39d10a
:102634000121200005f0cfff7d48363005f0cfffa3
:10264400200005f043fd39221721200005f026f96a
:10265400d822764b62435d19774b9b18d2331b8883
:10266400eb8014252f0067436f4ef31901939b7879
:10267400382b1dd10121200005f0adff6c486730d7
:1026840005f0adffd82262436b4b20009b188022db
:10269400b033196812010a431a6005f017fd392294
:1026a40017214fe73c2bced0200005f05dfcd8e786
:1026b400422b0cd10121200005f08dff5f4817301b
:1026c40005f08dff200005f001fd332296e7022579
:1026d400ab432c2b00d02ce70121200005f07bff1d
:1026e4005648453005f07bff200005f0effc019bc8
:1026f400bd559d7020e714231f0067434a4ef5190a
:10270400aa78382a00d014e7aa7bd2071dd50c2951
:102714000dd1162322004a49642004f003fa494be0
:1027240024011c19a0711823bb553c2340e704293c
:1027340000d001e7d82363433f4ce4188023b0342e
:1027440022685b0113432360ede7bb5533232fe776
:1027540014226243344b9b189b783a2b0fd1d82216
:102764006243354b20009b188022b03319689201d4
:102774000a431a6005f0aafc3b221821e2e64b2b1f
:1027840000d0d6e6200005f0a1fc4f222221d9e694
:1027940014266643244d735d052b00d0c9e6012140
:1027a400200005f018ff2548733005f018ff0223b8
:1027b4007355ad19fce6142262431b4bd15c1829f6
:1027c40005d01a498a185278d20600d4b1e61422e8
:1027d40054431b221a5548221b199a70ace6142341
:1027e400634311495a5c182a07d0052a05d00f4ab9
:1027f400d3185b78db0600d49be614235c431f23c9
:10280400a7e614235c43094b1b195a78064bd207dd
:1028140004d50e221a551b192722dee71c221a554d
:102824001b193d22d9e7c0460c0100202c010020d1
:102834006c2b00008813000050020020ec2b0000d9
:08284400c1830000fc0000202c
:020000040000fa
:10284c00f0b50127b94a0301d3181b7a87b00400ed
:10285c000e00019339423ed004ab5d1d2a003b00b3
:10286c00b34905f0adf82b787f2b05d93b002a0036
:10287c00af49200005f0faf82b789b070dd004aa7d
:10288c0002230632ab49200005f09af804aa022371
:10289c000632a849200005f0e9f80223019aa6495e
:1028ac001a43019204aa951d2a00200005f088f80d
:1028bc00d8226243a14b9b18d969072322011940e6
:1028cc002b88012900d0ade098498a18d9431b0afe
:1028dc00db439170d37073051fd504ab5d1d2a00cb
:1028ec0001239749200005f06bf82b785fb2db07ca
:1028fc000bd50c23019a9a43019214226243914bfb
:10290c009b180822597c0a435a7401232a008c49cb
:10291c00200005f0abf8002f01dbb3057ad504ab32
:10292c005d1d2a0001238849200005f049f8142375
:10293c0001276343834ad3185b7822013b400293ff
:10294c002b7800250392ab420cd17023019a2900fd
:10295c009a432000019204f0a1fe029bab4266d088
:10296c00750a3d4004ab5f1d3e78012e14d1029bcd
:10297c00002b00d06de06d4b22019b5c072b0bd123
:10298c00200005f035fd002806d1019b31003343b2
:10299c002000019304f082fe3b78052b5bd1029b57
:1029ac00002b11d17021614b22019a18137a0b4024
:1029bc00102b00d1b5e05d4b21015b5c072b03d1e3
:1029cc005378012b00d0ace004ab9d1d00232a00f2
:1029dc002b805e490123200004f0f2ff2b889b061c
:1029ec000ad514226243574b9b189a7c002a03d1b8
:1029fc000222597c0a435a7404aa01230532544911
:102a0c00200004f0ddff04aa012305325049200008
:102a1c0005f02cf8454b24011c196b461b792372cd
:102a2c0007b0f0bd41498a1893701b0a52e73f4b1f
:102a3c0022019b5c029d072b00d093e7200005f040
:102a4c00d7fc051e03d1019b3b4301938ae7029df2
:102a5c0088e7029da0e7012db6d010221a40029201
:102a6c0006d014236343374ad318597c0122c1e79b
:102a7c00202293430d2bbfd17023019a35499a43e1
:102a8c0004ab9d1d019202232a00200004f098ff44
:102a9c00288803f0f7fe304a304bfef727fd234a17
:102aac002301944663449a680600187b120a0006b8
:102abc0010430f0003f0b8f90b000200390030008e
:102acc00fdf7d2fd05f00af880b22880d825631cea
:102adc006b431a4e3227f318db7965439c460299f7
:102aec00cbb2634510d28a0052199219526f013140
:102afc001203920d7a439042f2d80133019adbb261
:102b0c001b011343dbb20193142262430d4b9b1840
:102b1c005b78db0700d46fe70021200004f0befdda
:102b2c006ae7012d00d067e74ee7c046fc000020a5
:102b3c0003080000040800000608000050020020f2
:102b4c000a0800002c010020080800001f080000e3
:102b5c0009080000b2080000295c8fc2f5683840f3
:020000040000fa
:102b6c0050455f444154415f524551554553543a89
:102b7c0020536f75726365204361706162696c6983
:102b8c007479206d6573736167652072656365691f
:102b9c007665640d0a0050455f534e4b5f53454cb0
:102bac004543545f4341504142494c4954593a20a2
:102bbc00476f746f6d696e204d7367205265636546
:102bcc00697665640d0a0050455f534e4b5f534563
:102bdc004c4543545f4341504142494c4954593a46
:102bec0020416363657074204d7367205265636583
:102bfc00697665640d0a0050455f534e4b5f534533
:102c0c004e445f534f46545f52455345543a20410e
:102c1c006363657074204d736720726563656976b4
:102c2c0065640d0a0050455f4354524c5f41434369
:102c3c004550543a2053656e646572526573706fdb
:102c4c006e73652054696d6572204b696c6c65649c
:102c5c000d0a0050455f4354524c5f4745545f5337
:102c6c004f555243455f4341503a204765742053ba
:102c7c006f75726365204361702052656365697678
:102c8c0065640d0a0050455f53454e445f4e4f54ea
:102c9c005f535550504f525445443a20456e74651d
:102cac0072746564207468652073746174650d0ab0
:102cbc00006550455f53454e445f52454a45435469
:102ccc003a20456e7465727465642074686520736f
:102cdc00746174650d0a0050455f5643535f455649
:102cec00414c554154455f535741503a20456e7401
:102cfc0065726564207468652073746174650d0a6f
:102d0c000050455f5643535f4143434550545f5316
:102d1c005741502d53454e445f4143434550545ffa
:102d2c0053533a20456e74657274656420746865fb
:102d3c00205375625374617465200d0a0050455f11
:102d4c005643535f4143434550545f535741502db5
:102d5c004143434550545f53454e545f53533a20bf
:102d6c00456e746572746564207468652053756271
:102d7c005374617465200d0a0050455f5643535fd0
:102d8c00574149545f464f525f56434f4e4e2d5359
:102d9c00544152545f54494d45525f53533a204568
:102dac006e74657274656420746865205375625323
:102dbc0074617465200d0a0050455f5643535f548f
:102dcc0055524e5f4f46465f56434f4e4e3a204546
:102ddc006e746572656420746865207374617465c3
:102dec000d0a0050455f5643535f5455524e5f4f8a
:102dfc004e5f56434f4e4e3a20456e746572656475
:102e0c00207468652073746174650d0a0065504503
:102e1c005f5643535f53454e445f50535f52445982
:102e2c002d454e5452595f53533a20456e7465727a
:102e3c00746564207468652053756253746174659d
:102e4c00200d0a0050455f524553505f56444d5f6c
:102e5c004745545f4944454e544954593a20456eb0
:102e6c007465726564207468652073746174650d93
:022e7c000a004a
:020000040000fa
:022e7e00fee76d
:020000040000fa
:102e8000f7b543024a025b0a520a4e00440001931e
:102e900000939446240ec50fdb00360ec90fd200f6
:102ea000ff2e01d1002a01d101204140a01ba942df
:102eb00000d0a1e000282edd002e18d1002a00d17c
:102ec0004ae1411e00290ed101249b185a015bd50d
:102ed0000134ff2c00d13de10122a4491a405b08d6
:102ee0000b40134350e0ff2807d1ff244ce0ff2c98
:102ef0004ad08021c9040a4301001b2901dd0122b7
:102f000007e010002026c840711a8a40511e8a41ed
:102f100002439b18dae7002821d0002c0cd1002bab
:102f200007d0c043002802d19b183400cee7ff2e03
:102f300008d11300340027e0ff2efad08021c90405
:102f400040420b431b2801dd0123ede7190020243b
:102f5000c140201a8340581e83410b43e4e7611ca3
:102f6000ff260f003740012f3fdc002c2bd1002b18
:102f700000d1eae0002a07d09b188022d204134235
:102f800002d001247a4a13405a0704d00f221a4073
:102f9000042a00d004335a0105d50134ff2c00d196
:102fa000e1e0734a1340db08ff2c04d1002b02d070
:102fb0008022d20313435b02e4b2e405580aed0712
:102fc00020432843febd002b00d1c0e03400002a7e
:102fd000dad08023019adb031a4203d062461a42f8
:102fe00000d10092009bdb007fe7ff2900d1b0e019
:102ff0009b185b080c00c7e7002826dd002e13d1c4
:10300000002a00d1a8e0411e002906d101249b1a04
:103010005a01b9d59b019e097ae0ff2800d164e7e7
:103020001b2908dd01220ee0ff2cadd08021c90450
:103030000a430100f4e710002026c840711a8a40b4
:10304000511e8a4102439b1ae2e7002822d0002c3d
:103050000dd1002b08d0c043002803d1d31a34006f
:103060000d00d5e7ff2e08d11300340020e0ff2e1d
:10307000fad08024e404404223431b2801dd0123cd
:10308000ece71c002025c440281a8340581e8341c9
:103090002343e3e7ff20661c0640012e31dc002cb1
:1030a00017d1002b06d11d00002a00d16ce71300b8
:1030b0000d0069e7002a00d166e78026981af60419
:1030c000304201d0d31af3e7031e00d05ce71d00a5
:1030d0005ae7002b04d1002a40d013000d0004e76a
:1030e0000400002a00d14fe78023019adb031a4233
:1030f00000d177e762461a4200d073e700920d00d4
:1031000070e780209e1ac004064215d00d00d61a22
:10311000300004f03dfc330005388340844210dc6d
:10312000041b1a0020200134e240041ba3405e1e51
:10313000b3410024134327e7002ee9d133003400c4
:10314000c5e7241a0a4803401ee713001ce71300d2
:10315000cbe60c00002317e7040015e780230400ea
:103160009b04150010e700231de7c046ffffff7d0d
:04317000fffffffb63
:020000040000fa
:10317400f7b50c254543ac4b04005b199b7a00263c
:103184005b0753d524224243a84b9b185a8811b29b
:10319400b14200db1ee15a791b79120213431bb2c0
:1031a40000936b461b880193df125b054cd504f03a
:1031b400a9ff0f231f409e4b01215d196b8920003d
:1031c400db0508351b0f9f4232d1009bb3422fda37
:1031d40005f001fa9748543005f001fa1e22eb7805
:1031e40093431a000a231343eb700c2363438e4d5d
:1031f400eb181b7a052b02d0093b012b0bd82000be
:1032040004f080ff05f0c6f80c2300226343eb189a
:103214001a7205f0c9f805f0bdf80c2304225c43ca
:103224002c19a37a9343a37205f0bef83000febdb7
:1032340005f0d1f98048023005f0d1f903212000ce
:1032440004f0f4f80026d0e70f231f406fd1784b29
:103254005d19eb7a08359b0616d5012105f0bbf9fb
:1032640075482f3005f0bbf90f21ea78d3061b0f00
:103274000f330b40022b04d81e239a4308231a430e
:10328400ea70200004f06efa0c236343684a2000bd
:10329400d3182022d97a24250a43da72012105f0b1
:1032a4009af9664865431f3005f099f986235f4a09
:1032b4005b0063435219624855785288c1181a5208
:1032c4006b469b880d714b80200003f0b3fd0c23eb
:1032d4006343574deb185b89db051b0f9f4268d195
:1032e400009b002b65da24228625022162434f4b82
:1032f4006d009b185b8865435b045b0f9b009c46d9
:103304004f4b5d190c206043614513db484d2d186c
:103314002e0008367288b378d205db06120f1b0f15
:103324009a4222d1200004f01dfa08265de704f039
:10333400e9fecce701273e4b181883680600db033f
:10334400db0d5a1cd205d20d4272807a120ab843a0
:10335400024324206043b272344aeb181218521804
:103364001279c9195a71c9b2cce70121200005f0bc
:1033740032f931486b3005f032f91e22f3781f2000
:1033840093431a00042313430f22f3707388db055d
:103394001b0f0133134007221a405101aa7a02403d
:1033a4000a430121aa72da08eb7a8b431343eb72c6
:1033b40048e70121200005f00ef922481b3005f0f2
:1033c4000ef90c231e226343ed18eb7a93431a0083
:1033d4000823ebe7164b5d19eb7a990616d51f21e6
:1033e4000a40052a12d00f22db061b0f0f331340ad
:1033f400144d0121022b0cd805f0edf828005030b3
:1034040005f0edf8200004f0adf9102602231e4368
:10341400ebe605f0e0f82800503005f0e0f8200075
:1034240004f0a0f9f2e7c04620010020c800002003
:10343400f0000020b012000030130000b0110000b2
:0834440044010020b013000058
:020000040000fa
:10344c00f7b503010193ad4b0201d35c0400ac4f03
:10345c00002b28d1a94b9b185b78012b2bd1142561
:10346c002e00200004f052fa00236643be19b374f8
:10347c00307b04f02dfc06233373f37c002b00d13e
:10348c00b3730026012365437d192b74687bee749e
:10349c0004f01efc0623ee736b7304f077ff6e745e
:1034ac0004f07eff07e0052b05d1944b02019b181d
:1034bc005b78022bd3d014236343fa18927c002a36
:1034cc0047d0904ef21892781e2a02d09b5d122b98
:1034dc003fd11425d8232900634361438a4a7918c4
:1034ec00d318e933c87b1b78984201d300230b74a3
:1034fc00d82363436543d2187d19e832a97b13782e
:10350c00994247d30021200003f066ff200002f00f
:10351c0021fd00230121ab73200005f058f87b48f6
:10352c005c3005f058f80523744a21015218537089
:10353c0014232a2263432000f254012105f047f89a
:10354c007348013005f047f8142300226343fb183d
:10355c009a74142565437d196b7c002b19d00121bd
:10356c00200005f034f86a4e30002e3005f033f8a8
:10357c006b7c1b071fd50521200005f00ff801906f
:10358c0000280bd104f002ff6b461b796b7404f01e
:10359c0007fff7bd200004f0b9f9d5e7687b04f00c
:1035ac0097fb062320006b73012105f010f8300007
:1035bc00413005f010f81425082265437d196b7c09
:1035cc00934325d0d822402162434f4b20009b18b7
:1035dc00bc331a888a431a80062104f0dfff01905d
:1035ec000028cfd00021200004f007fa0422552136
:1035fc00200004f099fb287b04f06afb06232000d2
:10360c002b73012104f0e3ff30005e3004f0e3ff84
:10361c00142666433b4b9b199d7b01231d404ed1c9
:10362c000923364a2101535413005f18d821344b17
:10363c0061439e190123344af3745218b37be83268
:10364c0001331278dbb27d70b3739a4223d8200019
:10365c0002f080fc0121b573200004f0b8ff2c4d62
:10366c0028007a3004f0b7ff0121727805230a4252
:10367c0023d00222214920010a547b700121200011
:10368c0004f0a5ff681c04f0a6ff142363431c4a36
:10369c00d3180022da742000012104f0aef92000c6
:1036ac000422552104f02afb04f070fe142363431a
:1036bc00134ce4180023637469e70722dae7be1998
:1036cc00737c1b0706d5f37b60210133f373200059
:1036dc0003f040fd142308216343fb185a7c8a43f2
:1036ec0002d09a7b01329a73200004f093fa1423cf
:1036fc006343fb185a7c9a74cde7c046fc0000204b
:10370c002c0100200c01002050020020f84c00007d
:04371c00784d0000e4
:020000040000fa
:10372000f0b5040087b01d000e0004f0d7f89c4be4
:10373000220103909b189a681b7b170a1b06002125
:1037400020001f4304f030f8002d68d0002e66d012
:1037500014256543934b5d19ab7b002b0ed0287b62
:1037600004f0bcfad82262438f4b90499b18c233b5
:1037700018882200002303f0d7f92873d825654361
:10378000300002f09ffe884b02905d192b00e5335c
:10379000187802f097fe864901f054f8029900f07b
:1037a00085fe02f047fb834a834bfcf763ff01f081
:1037b00045fd391c00f07afe04f062fa05aee635ec
:1037c0003080287802f07efe794901f03bf80299ba
:1037d00000f06cfe02f02efb764a774bfcf74affb6
:1037e00001f02cfd391c00f061fe04f049fa0423bd
:1037f000708032007149200004f020fc0322552122
:10380000200004f081fa3d273a0020006c4904f0c2
:103810004efe0121200003f0c7ff07b0f0bd0322d8
:103820005521200004f086fa002e4dd0654b9e42b3
:1038300056d0300003f02cf8634a644b009001919d
:10384000fdf75afe5b4a5c4bfcf714ff01f0f6fcf7
:10385000391c00f02bfe5e49051c00f027fe04f029
:103860000ffa0a2180b202f0d5fc89b2281c042983
:1038700000d88de004f004fa013083b20293554a77
:10388000554b00980199fdf737fe4a4a4a4bfcf721
:10389000f1fe01f0d3fc391c00f008fe4c49051c78
:1038a00000f004fe04f0ecf90a2180b202f0b2fc50
:1038b00089b2281c04296ed904f0e2f901300027ee
:1038c00085b2be42a0d03fe0142201216243354bb5
:1038d0009b185f780f4061d0200003f0e5fe93e76e
:1038e000142262432f4b9b185b78db0748d53b497a
:1038f000381c00f0dbfd3649051c00f0d7fd04f054
:10390000bff90a2180b202f085fc89b2281c042983
:1039100038d904f0b5f9013083b23149381c02932b
:1039200000f0c4fd2a49051c00f0c0fd04f0a8f910
:103930000a2180b202f06efc89b2281c042924d925
:1039400004f09ef9013085b2029a2649200004f065
:10395000b7fd039b0d27b34200d855e71422012180
:103960006243104b9b185b780b4202d0200003f09f
:103970009bfe2a001c49200004f0a2fd4d2743e7ce
:103980001a49b5e704f07cf9c6e704f079f9dae7fb
:1039900004f076f971e704f073f990e70f0033e76c
:1039a000fc0000202c01002050020020cd820000ed
:1039b0000000c842295c8fc2f5683840b408000096
:1039c0001f08000088130000666666666666ee3fa4
:1039d00000002041cdccccccccccf03fa6974243cc
:1039e00047516143b2080000b80800000641344363
:020000040000fa
:1039f00054595045433a2056434f4e4e2044495364
:103a000043484152474520696e6974696174656431
:103a10000d0a0054595045433a2056434f4e4e200c
:103a2000456e61626c656420696e204343310d0a06
:103a30000054595045433a2056434f4e4e20456e50
:103a400061626c656420696e204343320d0a005444
:103a5000595045433a2056434f4e4e204449534314
:103a6000484152474520434f4d504c455445440d25
:103a70000a0054595045433a20436f6c6c6973698e
:103a80006f6e2041766f6964616e63652043616c7f
:103a90006c6261636b204150492063616c6c6564aa
:103aa0000d0a0054595045433a20436865636b2022
:103ab00052702056616c7565204150492063616cdd
:103ac0006c65642066726f6d2050524c0d0a005474
:103ad000595045433a20536f7572636520697320ce
:103ae00050657273656e7420696e204343000d0a41
:103af0000054595045433a204e4f204445564943bf
:103b00004553204152452050524553454e540d0acd
:103b10000054595045433a2054595045433a2043a4
:103b200043312072656769737465720d0a005459d8
:103b30005045433a2054595045433a20434332209c
:103b400072656769737465720d0a00545950454374
:103b50003a20547970654320506f727420696e6901
:103b60007469616c697a6174696f6e20636f6d70de
:103b70006c657465640d0a0056434f4e4e5f4f4ea0
:103b80005f4552524f523a20456e7465726564200b
:103b900053524320506f7765726564204f4646202c
:103ba0007374617465005044505752005459504525
:103bb000435f554e41545441434845445f534e4b37
:103bc0003a20456e7465726564554e4154544143c4
:103bd00048454420534e4b2053746174650d0a00d0
:103be00054595045435f4154544143485741495407
:103bf0005f534e4b3a20456e746572656441545470
:103c00004143485741495420534e4b2053746174eb
:103c1000650d0a0054595045435f4154544143488f
:103c200045445f534e4b3a20456e7465726564415e
:103c30005454414348454420534e4b2053746174bf
:103c4000650d0a0054595045435f4552524f525f2b
:103c50005245434f564552593a20456e7465726538
:103c6000644552524f52205245434f5645525920b7
:083c700053746174650d0a0034
:020000040000fa
:103c7800f0b58bb0040001930c2363437f48160012
:103c8800c318da7a0f009206d20f944641d1320453
:103c98003fd5862149006143794d4e536a181f2547
:103ca8001771997af601294001259972d97af60d8a
:103cb800a943d97280231b021e43019b5680002b07
:103cc80004d06346f105c90d8b421bdd0c23634309
:103cd800119ac5186a60109a0326c250200003f092
:103ce800a7f81e22eb7a012193432a221343eb7291
:103cf800200004f06efc63481f3004f06efc3000b6
:103d08000bb0f0bd0199cd5cd11801334d719bb258
:103d1800d8e70c2363435c4d1199ea185160109a57
:103d28005a5114236343594a9b5c1e22db0700d473
:103d380006225749200004f0b6fb0c23012f54d06b
:103d4800002f0cd0022f57d000270121200004f0ab
:103d580040fc4c483d00373004f03ffc04e063432e
:103d6800ed186d7a6d076d0f6b021e43019a02ab59
:103d78003100200001f0c0fb0722019045492000d6
:103d880004f091fbc021019b02aa4901200004f024
:103d980051f9019a4049200004f085fb88223d43ef
:103da8002a433e49200004f07efb0c236343364d32
:103db800eb181b7a092b05d00a2b24d11f231e4090
:103dc8000d2e20d004f0e4fa0c236343ed180523ec
:103dd8002b7204f0e7fa0121200004f0fafb2948cd
:103de8000226523004f0f9fb89e76343ed186d7a37
:103df8001027ad066d0fb7e76343eb189d682027c2
:103e0800ed036d0fb0e70c236343eb189b7a5b0758
:103e180015d524226243224b9b185e78002e0ed1c2
:103e2800200002f071f9200004f0f4f820000121cc
:103e380004f0cffb1b48453004f0cffb5fe71a4e78
:103e48003100200004f041fbc306f9d50121200010
:103e580004f0bffb15480126093004f0befb200022
:103e68000122114904f01ffb04f092fa0c235c4371
:103e780006232d192b7204f095fa40e7f000002074
:103e880044010020b0110000200100202c01002076
:103e9800411a0000861a0000031a0000041a0000e4
:103ea800c800002030110000051a00003012000080
:020000040000fa
:103eb800f0b5040085b0002103f04ef90021200080
:103ec80003f06efc01229a21200003f019ff08225a
:103ed8006a49200003f014ff00226949200004f019
:103ee800e2fa40226749200003f00aff00226649ef
:103ef800200004f0d8fa83226449200003f000ff70
:103f080081226349200003f0fbfe1421200004f005
:103f1800e5fa604a02ab02439e1d92b214212000ca
:103f2800328004f0c9fa802101220901200003f03f
:103f3800fdfe1023584a5949200004f07bf823015c
:103f48000193574b22019f18bb68387b1b0a000658
:103f58001843544900f0a6fa03f08efe524982b283
:103f6800200004f0a9fabb68387b1b0a0006184336
:103f78004e4900f097fa03f07ffe8b2182b20901c7
:103f8800200004f099fa01224949200003f0b8fe04
:103f9800d8236343474ad318dd6907231d4017d147
:103fa8000c2203ab1a70142202ab290020005a71ac
:103fb80004f00ef801222900200003f0f7f8290088
:103fc800200004f097f90523354a21018b547d70b0
:103fd800d825012303aa3849200004f02bf802aaa7
:103fe8000123053235492000654304f023f80321f5
:103ff800200002f09df92f4b31495d192b00e73362
:104008001a78200004f04ffa7d23320033802d49be
:104018000123200004f00ef8012332002a49200071
:1040280004f008f80121200003f0bafb6021200009
:1040380003f092f80722eb691340012b0dd1002100
:10404800200002f095fe0121200004f0c2fa1f486a
:104058005b3004f0c2fa05b0f0bd142363431c4d75
:104068002000ed18ea8800231a49fff755fbea8873
:104078000021200002f094fbe5e7c046010800009b
:104088000610000041080000071000001108000099
:1040980015080000030600004885000022080000fb
:1040a800fc0000200000e0414e080000000016431c
:1040b8003f08000050020020170800004a080000ce
:1040c80019080000140800001c080000f03a00005d
:0840d8002c01002088130000f8
:020000040000fa
:1040e00050455f534e4b5f535441525455503a2004
:1040f000456e7465727465642074686520737461bc
:1041000074650d0a0050455f534e4b5f574149544b
:104110005f464f525f4341504142494c49544945e3
:10412000533a20456e746572746564207468652026
:1041300073746174650d0a0050455f534e4b5f45c3
:1041400056414c554154455f4341504142494c49c9
:1041500054593a20456e7465726564207468652010
:1041600073746174650d0a0050455f534e4b5f5385
:10417000454c4543545f4341504142494c49545991
:104180003a20456e746572656420746865207374a6
:104190006174650d0a0050455f534e4b5f545241a8
:1041a0004e534954494f4e5f53494e4b3a20456e4a
:1041b00074657274656420746865207374617465d5
:1041c0000d0a0050455f534e4b5f52454144593aea
:1041d00020456e746572656420746865207374612f
:1041e00074650d0a005044505752000d0a005045a6
:1041f0005f534e4b5f484152445f52455345545fb5
:1042000053454e445f53533a20456e74657274654e
:1042100064207468652073746174650d0a005045ec
:104220005f534e4b5f5452414e534954494f4e5f7a
:10423000544f5f44454641554c543a20456e746591
:1042400072746564207468652073746174650d0a06
:104250000050455f534e4b5f474956455f53494eab
:104260004b5f4341503a20456e746572746564201b
:104270007468652073746174650d0a0050455f535e
:104280004e4b5f534f46545f52455345543a204579
:104290006e746572746564207468652073746174eb
:1042a000650d0a0050455f534e4b5f53454e445fca
:1042b000534f46545f52455345543a20456e7465fa
:1042c00072746564207468652073746174650d0a86
:0142d00000ed
:020000040000fa
:0342d1006e6d6ca3
:020000040000fa
:1042d40070b5040003f0a0fe574a5849200004f0ca
:1042e400edf8574a5749200004f0e8f8d021542249
:1042f4004901200004f0d9f8200003f0f3f9524af0
:104304005249200004f0daf864225149200004f0f4
:10431400ccf85e224f49200004f0c7f8d5210a23c7
:104324004d4a4901200003f087fe4c4a4c492000c5
:1043340004f0c4f818234b4a4b49200003f07cfed8
:1043440018234a4a4a49200003f076fe01224949cb
:10435400200004f0aaf814236343474d92225b5dc6
:10436400db0701d5902252008023a0211b021a43af
:104374008901200004f0a2f810224049200004f032
:1043840094f814236343eb5c1e22db0700d406225b
:1043940020003b4904f089f820001022394903f039
:1043a400b1fc20008822384904f07ff820008022e4
:1043b400364904f07af820000722354904f075f8ec
:1043c40020000722334904f070f8902120000122d4
:1043d400890104f06af8200004222f4904f065f8ea
:1043e40020001022142103f08dfc0c220020c02593
:1043f40062432a498b18505058601872587a190031
:1044040028403f25c0b2284001255872f1209b7aec
:10441400ab4303408b72224b20009a18062313727d
:1044240003f0a0f92900200004f0d5f81d4833302a
:1044340004f0d5f870bdc0463c1e00000b1a000005
:104444009f320000071a000080c40000421a0000d6
:10445400461a0000491a0000c88500009fc80000e1
:10446400b01a0000b4820000102800009c820000f2
:1044740030280000022800002c010020042800003d
:10448400411a000001080000821a0000871a000087
:10449400811a0000861a0000891a000020010020f9
:0844a400f000002030120000be
:020000040000fa
:1044ac00f0b5c30f85b0440245000391640a2d0e8c
:1044bc000293019330d0ff2d3ad08023e400db042b
:1044cc007f3d1c4300950027039b5e025d00db0fc4
:1044dc00760a2d0e039334d0ff2d3cd08022280079
:1044ec000025f600d20416437f38039b029a5a40eb
:1044fc00009b9c4684446346b80028430138591cf1
:10450c000e2833d803f09cff2f2f8c7b7bad8c7b3c
:10451c00ad7b8c7a7a7a6b00002c0fd0200003f0e4
:10452c0031fa7626431f76429c40331a0093cae731
:10453c0000950327002cc7d10227c5e7009401275b
:10454c00c2e7301e0dd003f01dfa431f9e407623a8
:10455c005b42181ac9e728000325002ec5d1022595
:10456c00c3e70125c1e734002f0048e0b7b2a3b27e
:10457c00200c3c00350c47435c4368435d43230ce3
:10458c00ed195b199f4202d980256d024019a4b226
:10459c001d042d19ac01671ebc41ad0e25431c0c2e
:1045ac002418a4012c4323013dd5012360081c4091
:1045bc0004430d007f35002d37dd630704d00f2336
:1045cc002340042b00d00434230103d580310d008b
:1045dc00284b1c40e308fe2d19dd00230ce0802342
:1045ec00db031c4204d01e4202d13400039b019316
:1045fc008023019adb032343ff2508e0029a022f54
:10460c00ebd0032f31d000231d00012fd1d1580244
:10461c00edb2ed05400ad2072843104305b0f0bdba
:10462c003400039aa0e76146c3e70120451b1b2d0c
:10463c001ddc23002020eb40451bac40611e8c414f
:10464c002343590704d00f211940042900d0043307
:10465c008025ed041d40db08002dd8d0002301255a
:10466c00d5e780240023e403c1e70192c0e70023cf
:08467c001d00cce7fffffff772
:020000040000fa
:10468400f0b5040085b00e00664d0701002967d11e
:1046940010228421ed19eb7909011343eb710c22eb
:1046a40003f046fb842140220901200003f040fb73
:1046b4003100200002f052fd29225b49200003f062
:1046c400fdfe8221012702abde1d32000123090118
:1046d400200003f0c1fc2a7a2f710c2533782a407c
:1046e400042a2ad1072293430222822113433370de
:1046f40032003b000901200003f09efc4b490322d9
:10470400200003f015fb3900200001f013fe6021a6
:10471400200002f023fdd8226243454b20009b1861
:104724001022b033196891431960012103f053ff3b
:10473400404803f054ff05b0f0bd382293431022e3
:1047440082211343337032003b000901200003f03f
:1047540073fc36492a00200003f0eafa0221d3e769
:1047640014234343344a324ed3180193db7b002b8a
:104774000fd0019b587b03f0affad8236343f3189f
:10478400c2331888220000232c4902f0cbf9019b84
:1047940058732649200003f09afed8236343f31884
:1047a400da6907231340012b14d1ea1991788c4656
:1047b400d1788c4502d9d2791a4210d1c3060ed4cd
:1047c4006022ed19eb7993431a0040231343eb71f4
:1047d40008220de0eb199a78db789a42f0d2602235
:1047e400ed19eb7993431a00202313430422eb7150
:1047f40084212000090103f085fad8236343f318c8
:10480400db699b0505d5842140220901200003f0c2
:1048140079fad8235c4310233619b036326813432f
:10482400336088e7fc000020220800002108000013
:1048340050020020f03900002c0100208582000085
:020000040000fa
:10484400f0b5c30f85b0440245000391640a2d0ef0
:10485400029301930ad0ff2d38d08023e400db04b7
:104864007f3d1c432e00002300930ae0002c33d02c
:10487400200003f08bf87626431f9c407642361abc
:104884000095039b5f025d00db0f7f0a2d0e0393ef
:1048940025d0ff2d2dd0802228000025ff00d20432
:1048a40017437f38039b029a361a5a40009b98009c
:1048b400284301380e2824d803f0c6fd4e9d639d7d
:1048c400979d634e4e976379797954002e000323a4
:1048d400002cc9d10223c7e726000123c4e7381ef0
:1048e4000dd003f053f8431f9f4076235b42181a00
:1048f400d8e728000325002fd4d10225d2e70125cb
:10490400d0e764017801844228d31a210123241ab0
:10491400012527005b006400002f01dba04201d8c1
:10492400241a2b4301390029f3d1611e8c411c4305
:1049340031007f3100293cdd630704d00f2323407d
:10494400042b00d00434230103d531002b4b8031d8
:104954001c40e308fe2921dd002310e0013e1b2159
:104964000023d5e78023db031c4204d01f4202d17d
:104974003c00039b01938023019adb032343ff2123
:104984000ce03c00039a0095009b022be4d0032b1f
:104994002fd00023009819000128c9d15802c9b2a8
:1049a400c905400ad2070843104305b0f0bd029a76
:1049b400eae70120411a1b291ddc23002020cb40fb
:1049c400411a8c40611e8c412343590704d00f21a6
:1049d4001940042900d004338021c9041940db089c
:1049e4000029dbd000230121d8e780240023e4033d
:1049f400c0e70192bfe700231900cfe7fffffff7ed
:020000040000fa
:104a04000c23f0b543435a4d0400eb18d87a87b011
:104a140083063ad5c006000f0238082835d803f0bb
:104a240013fd0534364234348e7d9b000c266643d8
:104a34000121200003f0cffd4e48ae194d30083659
:104a440003f0cdfdf3785d06ed0f03d01e229343f2
:104a5400142218e0200002f0fdfb86214900614386
:104a6400454b02005b181979444b20000193444bd9
:104a740000932b00fff7fef81e22f37893430822dd
:104a8400012800d106221343f37007b0f0bd0c22b5
:104a940062433c4b20009b180222997a0a439a7283
:104aa40002f060fef1e70c266643ae190836f3788f
:104ab4005a06cbd4862577886d006543ff053b0fe6
:104ac4002d4f03937b1905932f4a5b8801211340d3
:104ad400039a2000d2021343ea5b1b041a43049294
:104ae40003f079fd23487b3003f079fd6b1d1a2513
:104af400039a20005543059a5b191179234adb195f
:104b04000192234a0092049afff7b4f81e22f37824
:104b140093430c220128b6d01022b4e70c26664336
:104b2400ad1908356b880121db051b0f10d01e223f
:104b3400eb7893431a0010231343eb70a5e701218c
:104b4400200003f048fd13482a3003f048fd0321f8
:104b5400200002f06bfc98e70c26200002f002fe15
:104b6400402274432d19eb7a9343eb728de7c046d0
:104b7400f000002030120000440100200100040075
:104b8400516f000020010020ff87ffff060708087f
:084b9400b1620000b012000044
:020000040000fa
:104b9c00f0b50e2785b000236a46d4216f441373f9
:104bac0053733b7003aa01234901040002f008ff70
:104bbc006b4601251b7b2b4254d00d222b006a44e3
:104bcc004549200002f0fcfe2b003a00434920002e
:104bdc0002f0f6fe6b460f265a7b3b786e44134070
:104bec00337032002b003c49200002f03fff32783a
:104bfc003b4e2a4203d00c236343f3181d729307d8
:104c0c0004d50c2303216343f3181972530704d5fd
:104c1c000c2302216343f3181972130704d50c23d8
:104c2c0004226343f3181a720c252b006343f31808
:104c3c001b7a042b02d0200001f064fa65437759eb
:104c4c00002f0ad075196968080c0a0ac3b2000a49
:104c5c000090d2b2c9b22000b8470c236343f618b7
:104c6c00002333726b461b7b9b0732d50d220e261d
:104c7c0001236a441b4920006e4402f0a1fe01236b
:104c8c0032001949200002f09bfe6b460f255a7b1f
:104c9c0033786d4413402b702a00012311492000f6
:104cac0002f0e4fe2b787f2b02d9200002f036fdb7
:104cbc0008222b7813420cd00c216143084b2000a6
:104ccc005b189b1899780a4310218a439a7003f059
:104cdc0085fb05b0f0bdc046811a0000861a0000a5
:0c4cec0020010020821a0000871a00003e
:020000040000fa
:104cf80056434f4e4e5f4f4e5f4552524f523a20e9
:104d0800456e74657265642053524320506f776511
:104d1800726564204f46462073746174650056437b
:104d28004f4e4e5f4f4e5f4552524f523a20456e9e
:104d3800746572656420534e4b20506f77657265b9
:104d480064204f4646207374617465005057525f63
:104d58004641554c543a2075384852436f6d706c33
:104d6800657465576169742052657365746564205c
:104d7800005057525f4641554c543a20456e746571
:104d8800726564205352432f534e4b20506f776502
:104d9800726564204f464620737461746500445000
:104da8004d204661756c742048616e646c696e674d
:104db800005057525f4641554c543a2056434f4e87
:104dc8004e20506f776572204661756c740050579d
:104dd800525f4641554c543a205642555320506f25
:104de800776572204661756c74005057525f464172
:104df800554c543a2075384852436f6d706c657441
:104e08006557616974205265736574746564200020
:020000040000fa
:104e18008222f0b5c7b05200002104000f2605a871
:104e280003f096fb002320006e443370fff7e6fd85
:104e380003f0aefa14236343364dea18517c002977
:104e48000dd03549c9184978c9075ad50a21595585
:104e580016239370142300226343eb185a7403f04b
:104e6800a1fa200002f0e2ff002304aa0093310017
:104e780005ab200000f05af90a23184229d0142261
:104e88006243254bd75c049bb9088c4603216046d6
:104e98000840844620489b09821819400c208c45fc
:104ea80033d951789b00814303400b435370200052
:104eb80002f016fc142363430499eb18da1dd97128
:104ec8000b0a53700b0c93700b0ed3702000fdf778
:104ed80005fb142362226343ed186a700e4ad31847
:104ee8005b78db0705d43278049b05a92000fbf723
:104ef8005ffe3278049b05a92000fdf715f947b03d
:104f0800f0bd1a2159554423a3e751783b0081434a
:0c4f1800cae7c0460c0100202c0100205c
:020000040000fa
:104f2400f0b585b001900292002901d0002805d186
:104f3400002083423bd0029a824238d00720384c6a
:104f440065680540ac4609d0002902d00020ca0794
:104f54002dd4002b02d00020da0728d40198451e56
:104f6400a841404201400298451ea8410425404200
:104f74000340a07b28401cd1268a354325829942d0
:104f840000d2581a6546002d02d05b084908400833
:104f94000125a67b2e42fcd000252e008e420ad18c
:104fa40000281dd10223a27b1a42fcd0012005b0a7
:104fb400f0bd208bdde76246771c002a0ad1019af6
:104fc400965d26833e00002b13d10122a77b174256
:104fd400fbd0e3e7019a7600b65af605f60df0e742
:104fe4006246002a03d1ff2222830138ebe70d4aef
:104ff400fae70422a77b1742fbd0278bbfb29d425e
:10500400ccd26a1c03926246002a03d1029a5755f5
:10501400039dc3e7ff05029a6d00ff0daf52f7e74a
:0850240000080042ff0100003a
:020000040000fa
:10502c0070b5364cf4220021200003f08ffa0123d6
:10503c006370237388239b00e361314b0421e3638a
:10504c00304b20002364304bc43063642f4b7325ea
:10505c00a3642300dd331970fa23db0003802000e6
:10506c00c63003802000c83003802000ca30038083
:10507c0023002748ba3318802300fa20d23380004b
:10508c00188020000523e33003702000e530057004
:10509c0020005525e6300570200002251d4ae7301a
:1050ac0022821d4a0570200062820322e8300270c1
:1050bc002000e9306273027022001848c23210805e
:1050cc002200ea32137023002022eb331a702300e3
:1050dc002200ec3319700c23ed32137022000621e0
:1050ec00f03211702200f132137023000c4ad833c5
:1050fc001a800c4bd434238070bdc0465002002063
:10510c002c9101182cd102002cb104002c4106006a
:10511c00b80b00001c300000240400001027000015
:08512c0088130000c409000013
:020000040000fa
:10513400f7b51700040001911e00fef719f885b2b7
:105144000200002d09d10c216143364b5b189b7a78
:10515400990702d428001b0727d5022113000b400e
:105164002ad024226243304b01999b185a780a7042
:105174005a883a60002e08d0002107209f1c3a88e4
:10518400121302409200914210db2000012103f02f
:1051940022fa2648223003f022fa089bedb2002bb3
:1051a40002d02900200098472800febd5a18127921
:1051b4007254013189b2e2e712071ed586214900f3
:1051c40061431b4a01985218117901701168901caf
:1051d4003960002e0bd12000012103f0fcf91348a3
:1051e4005a30d8e7d1184979f15401339bb2018878
:1051f400c905c90d8b42f5dbede70c226243094b6f
:1052040004259b189a7a08339007c6d58a439a7066
:105214000121200003f0dff9064810251d3003f0ba
:10522400def9bae720010020c80000203014000095
:0852340044010020b014000049
:020000040000fa
:10523c00f0b50e034d00430f6d0d760a1e436b1c2b
:10524c005b05c90fc2005b0d012b52dd344bec1812
:10525c00fe2c5ddc002c27dc230017335bdb80236a
:10526c001e271b041e433f1b1f2f0cdc2d4b100055
:10527c00ed18aa401300ae405a1e9341f840334338
:10528c000343002417e002204042041b3000e0409e
:10529c000024202f03d03400234bed18ac402243c4
:1052ac0013005a1e9341ebe78001431e9841520fa5
:1052bc000243f30013435a0704d00f221a40042a66
:1052cc0000d004335a0104d50134ff2c25d0174ae1
:1052dc001340db08ff2c04d1002b02d08022d20318
:1052ec0013435b02e4b2e405580ac90720430843a0
:1052fc00f0bd13003343002d02d15a1e9341c0e779
:10530c00ff24002bd7d08023f6009b043343d2e735
:10531c000023ff24cfe70123b3e70023d9e7c046de
:10532c0080fcffff82fcffffa2fcfffffffffffbe7
:020000040000fa
:10533c00f0b517001600002587b002900191039379
:10534c00029aebb20493934205d31500013d6b1cfa
:10535c0062d0002235e0019aab00d45832232003ee
:10536c00800d584301f054fa2c49fff765fa0a23d3
:10537c000590a005800d584301f04afa2749fff724
:10538c005bfa011c0598fff78bf802f073fc6b4677
:10539c001b7c3070737001350236d1e7039b002bf8
:1053ac0012d15300f9180233fb1808781c78a0426c
:1053bc0005d80c704e785c784c7018705e700132a9
:1053cc00d2b2aa42eadbc1e7039b012bf7d153000f
:1053dc00f9180233fb180e781878864206d208703a
:1053ec004c78587848701e705c70e8e78642e6d1bd
:1053fc00019c9000245802942403a40da446019c03
:10540c00201840680003800d8445d8d948785c7812
:10541c004c701e705870d2e707b0f0bd00007a4493
:020000040000fa
:10542c00274a2849136a194002230b4313620823a5
:10543c00d1681942fcd0002323499361234b596056
:10544c0023499960597849b20029fbdb8020918c63
:10545c00814391841021d0680842fcd01d49086812
:10546c00800e3f2800d11f201b4980020968890546
:10547c00890d014391628221c90159801749d1627a
:10548c00174991844021d0680842fcd0154a5a60d3
:10549c005a7852b2002afbdb134a5a800a325a80dd
:1054ac0001325a8002325a8003325a8007325a80b3
:1054bc001f220e4b5a61da610d4a1a627047c046c0
:1054cc00000800400000ffcf01060100000c004066
:1054dc0001fa00002460800028608000dc051400c4
:1054ec0046020000000701000340000000040040d9
:0454fc002401050082
:020000040000fa
:10550000f7b5802636020d0001921f000e401cd117
:1055100034004b045b0f9b002a0a3d707a70012017
:105520002a0403d50320be70360afe70019ac31800
:10553000dbb2002a42d1030000212218d2b29342ea
:105540003fd101340019c0b2febd80240b0ce40031
:105550009eb21c4027d10c2242431c48801841892e
:10556000827ac905d206090f120f91421fd1d805c0
:10557000c00d1a2100f0b8fb002917d00320cbb2d0
:10558000023108408910cab2002804d00424013234
:10559000241ae4b2d2b20e48120328402d0c024362
:1055a0002d041543b8e702240023b5e70c001a23a5
:1055b000b2e711780130c0b2395401329842f8d1c3
:1055c000b9e70133dbb2f954b9e7c046f000002077
:0455d000ff8f000049
:020000040000fa
:1055d400f7b52e4d030101935f5deb189a785e7861
:1055e400db7804005340012b05d0002b36d0052b6b
:1055f40001d0152b0dd1200001f02afa062f0dd170
:10560400200002f085fe0021200001f0e9fe0026c2
:105614000627019bef54ed186e70f7bd072f04d1d8
:10562400012ef6d0200002f073fe0121200002f0ca
:10563400d2ff174e30005f3002f0d1ff002023016b
:10564400eb189a78db78012193424041013002f053
:10565400c2ff30007e3002f0c2ffd4e7002ad8d166
:10566400012102f0b8ff0b48013002f0b8ff20001e
:1056740002f0ccfe062f04d1200002f049fe0226df
:10568400c7e7072fc5d1012ec3d1f8e7fc000020de
:08569400703a0000f03a00003a
:020000040000fa
:10569c0014234343f7b52d4a0500d6189b5c777845
:1056ac009c4608231a003a43009262461a43d823b8
:1056bc0007216b4326480192c218d469b0322140ad
:1056cc0001292dd10b2166460e43394300910c2143
:1056dc00146801962143d824116019006a1c5443a4
:1056ec00041922797433203109189200181802f029
:1056fc00cffe2379e371142369465d43134a09787d
:10570c0053195970694609790120a95400220621c0
:10571c005a7419739a739a7418745973da73f7bdaf
:10572c000c21d82417688f43190017606a1c544346
:10573c000419627974333c3109189200181802f07c
:10574c00a7fe6379e3710023f380d4e72c010020da
:04575c0050020020d7
:020000040000fa
:1057600010b50400481e0a282fd802f06ffe081a50
:10577000304f06062e2e2e410d00012010bd0122b5
:105780000221200002f0e9fcd8236343214c224a85
:10579000e418bc3423881340102223801f4b5a6125
:1057a00013e000220221200002f0d7fc0022022197
:1057b000200002f0dffc00220221200002f0e7fcc2
:1057c00001220221200002f0effc0020d6e7002297
:1057d0000221200002f0c1fc00220221200002f080
:1057e000c9fc00220221200002f0d1fc0022e8e7df
:1057f000d8236343074ce4188023bc3422889b00e1
:10580000134310222380054b9a61dee702f02af849
:10581000dbe7c04650020020fffdffff00440041cf
:020000040000fa
:10582000f7b5d8224243284b04009b18db699b063e
:105830003ed502f0b1fd6a46002301ad961dd71c8e
:105840002b8033803b70214b1b5d022b31d0022318
:105850002a001021200002f0b9f82b88db040fd5b4
:10586000022332001421200002f0b0f83388184ad5
:1058700014211340338032000223200002f0fcf890
:105880002988144b194202d02000fcf7dfff2b8837
:10589000db0602d52000fff781f92b889b0702d594
:1058a000200000f08bfd0122084b1a5502f07efd0e
:1058b000f7bd01233a000e21200002f087f83b7863
:1058c000022bf6d1c3e7c046500200204001002061
:0858d000ffefffff01060000dd
:020000040000fa
:1058d800d8224243284b70b59b18db69274c050139
:1058e8005b072ad06319da79910612d599780029cd
:1058f8000fd1de7859798e420bd10422197a0a43e6
:105908001a72012102f065fe1d48233002f065fe7f
:1059180024e0530622d56319da78002a1ed1997833
:105928005a7991421ad10822197a0a431a72012126
:1059380002f04ffe12484130e8e76319da79910620
:1059480006d59978952903d1de7859798e42d4d035
:10595800530603d56319da78952ae0d00c22641926
:10596800237a134206d06021e2798a43e271022247
:105978009343237270bdc04650020020fc000020f3
:04598800f0390000f2
:020000040000fa
