:020000040000fa
:10000000f01f0020fd650000276400001f6b00004a
:1000100000000000000000000000000000000000e0
:10002000000000000000000000000000db5d000098
:100030000000000000000000db5d0000db5d000050
:10004000db5d0000db5d0000db5d0000db5d0000d0
:10005000cd6e0000db5d0000db5d0000db5d0000bd
:10006000db5d0000db5d0000db5d000000000000e8
:1000700000000000bd770000db5d0000db5d0000dc
:10008000db5d0000db5d0000db5d000000000000c8
:1000900000000000db5d0000db5d0000db5d0000b8
:0400a000db5d000024
:020000040000fa
:1000a400f8b5c046f8bc08bc9e467047496b0000d2
:1000b400f8b5c046f8bc08bc9e467047216b0000ea
:020000040000fa
:1000c400f0b500260d2791b004000291059231008d
:1000d40003931c2204ab09a81e7308960f2507f08e
:1000e40053fe04ab0e22ff180b2304a952186d18fb
:1000f400200039003b7013702e7007f0c3fc2900f8
:10010400200007f07ffd14236343c74d0493ee18ca
:1001140063233f787370002f0cd1049b5b5d002b2d
:1001240008d0200005f0e6f80c23f373049bb770a5
:100134005f55f77214231a006243a85c11281bd878
:1001440007f0bafd1200b4015400b500db009201bf
:100154001a0050012e03dc010f0228021a00f202d9
:100164009c03b203e70306046343ef181e00bb7845
:10017400002b03d0012b1ad011b0f0bd03223b7326
:10018400bb7b20009343bb7307f048f918220c2172
:100194006243a64b20009b185a788a431100082218
:1001a4000a435a7006f010fe0123bb70e4e70d23e6
:1001b40004aa9b181b78022bded10e2204a9521824
:1001c4001278042ad8d10f2252181278002a01d1a9
:1001d400ab55eae70f23ab552f23bb7018236343ba
:1001e400924ce41896235b00a380c5e76343e918a7
:1001f4008a78022a23d0042abed1200006f07cf893
:10020400ec2262438a4b9b18d9331b78002b02d013
:10021400200007f0abf914236343ed1800232b737c
:10022400eb720323ab700223aa7b82491343ab73a3
:1002340022001323182005f0fbffe8739ce7c87a1b
:1002440002280dd9897bc8060ad5114205d000229f
:100254000921200007f080fd8ee70622ea548be78f
:1002640009aa07a9200005f005fc04ab1a7b0121ab
:100274000023200006f08eff14231a006243aa18fc
:10028400927b920711d46c4e6343ed182b7b0133a0
:100294002b730323ab7009ab0021684a01960092cb
:1002a4000200200003f0a4fa66e7654eece763431e
:1002b400ef181e000223ba7b20001343bb736b4666
:1002c400029a998904f0c0faec22594b544301284c
:1002d40009d11b19b03319685a4a0a401a60042319
:1002e400ab550a2361e71c19b0342268564b1340fe
:1002f40023600723ab55082357e76343ee18b07810
:100304000a38042800d937e707f0ccfc05003a0086
:1003140036ff13002a00002303211a00200006f0f0
:1003240039ff14236343ed180c23484eab700023ac
:10033400b2e7ec2262433e4b1c209b188022b03370
:10034400196892000a431a6041490e23220005f0fd
:100354006fff14235c430c232c19e073a3700be789
:10036400200006f0fffb1e20002322003949ff3045
:1003740005f05eff14235c432c19e0730b23ede7b7
:10038400182332266343294a2000d2181389d188be
:100394001b040b431b039b0d5e4306f0effd8642db
:1003a4000fd1200007f0defa002306211a002000f6
:1003b40006f0f0fe14236343ed180c23264eab70b5
:1003c400b5e7ec2363431a4ce4182200b0321168f9
:1003d400224bb4340b401360002306325380138045
:1003e4002380c9e66343ee18b378082b00d0c3e634
:1003f400b37bdb0716d41a4e002304211a00200015
:1004040006f0c8feec226243094b9b188022b033ed
:100414001968d2000a431a6014236343ed180923b0
:10042400ab7084e70f4ee7e7400300208003002011
:10043400c800002099620000020401050d6d00004f
:1004440002040829fffbfffffffdffff040d091352
:10045400e17b0000c9750000050f0913fffeffffd3
:100464000c000829050f08296343ed18ab780f2bfe
:1004740000d081e60123aa7b20001343ec22ab7356
:1004840010236243ab70ce4b9b188022b0331968a3
:1004940052000a431a6007f00df80021200006f00c
:1004a4002ff90721200007f08ffc65e66343ee185f
:1004b400b378052b12d0072b00d05de6337b322bab
:1004c40007d8f37a022b13d91222b37b1340102bd3
:1004d4000ed114235c4306232b554de6072322003b
:1004e400b849962005f0a4fe0623f073b37043e6e2
:1004f40014235c4302232b552c192fe763431e005e
:10050400eb189a78132a07d0152a00d034e60b2268
:10051400aa5519229a702fe69b7b9b0708d5ec22db
:100524006243a74b9b18b0331968a74a0a401a6064
:10053400200007f017fa002314261a0019002000df
:1005440005f084fc33006343ed18eb7a2200013399
:10055400eb729c4915231c2005f06afeae70e8730b
:100564000ae66343ef181e00bb78162b06d0182b3f
:1005740000d001e60b23ab55192316e6200007f043
:10058400f1f9182322008f491c2005f051fe17238e
:10059400f8730ae66343ee18b0781938082800d9ce
:1005a400eae507f07ffb090022003700e9fd4d0072
:1005b40052007400a600b400200007f06ffa00286f
:1005c40003d00021200007f0cffb2000002106f01b
:1005d4006bf8002322007d497d4805f029fe142391
:1005e4005c432c19e0731a23b8e6200006f0c6fc1d
:1005f400061e00d0c0e5200007f0b4f93300220045
:100604007449192005f014fe14235c432c19e0737b
:100614001b23a3e6200007f041fa002800d0abe535
:10062400200007f09ff9c8201d232200654980009f
:1006340005f0fefd14235c432c19e0731c238de6a6
:1006440014235c431e232c1988e60f2304aa9b1849
:100654001b78002b0ad0182262435f4b9b189b7cab
:10066400002b03d00121200007f07efb2000012194
:1006740006f01af81420002322005449ff3005f034
:10068400d7fd14235c432c19e0731f2366e6200076
:1006940006f074fc514b0700984200d06ce5200032
:1006a40007f060f9200006f087fc18230a2663434c
:1006b400494a3900d3189a8802937243012392b2ab
:1006c400200002f067fa0f2304aa9b181b78002b62
:1006d40018d0029b9b7c002b14d00023220040499d
:1006e400300005f0a5fd14235c432c19e07320238e
:1006f40034e6200007f0d2f9002800d13ce52000c0
:1007040007f030f914235c4321232c1926e6220038
:1007140000233449344805f08bfd142300225c4344
:100724002b1918742a55f5e66343ee18b07822386d
:10073400042800d920e507f0b5fa05001ffd1200d2
:100744001b002400002308211a00200006f022fdcb
:1007540014236343ed182323244eab70e7e51423dd
:100764006343ed1823232200ab701649252361e56a
:10077400142305226343ea54ed1810230921ab70b6
:1007840090e66b46029a9989200006f005ff14232f
:1007940005226343ea54ed1810230821ab7081e667
:1007a4006343ee18b0782938052800d9e4e407f04b
:1007b40079fa1f003c00e3fce3fc5e005200c046f3
:1007c400c8000020e17b0000fff9ffffc9750000ad
:1007d4008a0200004577000080030020881300008f
:1007e400555600004d7900007c1500000d240510bd
:1007f400ec226243684b20009b18b0331968674aa7
:10080400674e0a401a6007f0adf80021200007f097
:10081400f8fa00230d211a00200006f0bbfc142373
:100824006343ed182c23ab7081e5200007f09af8a0
:100834000121200007f0e5fa00230d211a00200011
:1008440006f092ff14236343ed182c23ab700023ae
:10085400534e012121e52d2322005249182005f091
:10086400e7fc14235c432c19e0732c2376e5142352
:100874005c4309232b552c1913236fe56343ed18af
:10088400ab78272b00d077e4200007f06bf820002a
:1008940007f0eaf9002303211a00200006f07afc8d
:1008a4002823414eab7042e56343ef181e00bb782a
:1008b400312b22d0322b29d02f2b00d05ce41822ec
:1008c40062433a4b9b185b781b079b0f012b12d199
:1008d400374b0893012200230f21200006f044ff28
:1008e40014236343ed186b7b324e01336b73302357
:1008f400ab7008abade7304bebe7322322002f4956
:100904001c2005f095fc3023f8734ee41123ab55fd
:1009140032e46b4605999a892000029b06f046f959
:10092400012811d118220c216243204b9b185a78bc
:100934008a43110008220a435a70142300225c439c
:100944002b195a730222ede614235c431123c3e5e9
:10095400182163434c430c21ea181e00134b507baf
:100964001c1963788b43190014280dd908230b43f1
:1009740063702023917b0b439373002353730223ef
:10098400ab559370fff7f8fb04230b4363700f23fd
:10099400ab552f23f5e7c046c8000020fffbffff3f
:1009a400082e0913e17b00000202091380030020d2
:1009b400018000ff0f31110001a000ff99620000c7
:020000040000fa
:1009c400f0b5040085b004f0affb07f0e9f8c14ec0
:1009d400250173199a780292da781b7a03920193ab
:1009e40007f0e8f8a85d092861d807f065f90a005e
:1009f40066008a000d01600052019901b301600094
:100a04004a0273195d780193012d52d0002d0dd047
:100a1400032d4cd1b049200007f073f9011e46d1d3
:100a2400019b5870200006f08ff940e0ec276743e3
:100a3400aa4b2000df193a00b0321168a84b0b40d2
:100a440013603b00b8331d80023b1d80023b1d80b8
:100a5400012107f0b9f92900200006f0b7fb18229c
:100a6400fb6903276243db083b4002939d4b9e498d
:100a74009b180a229b8820005a432b0092b202f052
:100a840089f82900200005f067fe019bdb795b08eb
:100a94001f40029b9f4202d0200005f0f3ff20007c
:100aa400602105f059fe012324013419637005b057
:100ab400f0bd0223019a5370f9e777197a78002a76
:100ac40011d0022af3d17023019919400b1eeed1e3
:100ad40002990398814211d13b798b420cd10a23ac
:100ae400735500219ee70223220096207f4905f0da
:100af4009ffb0123b871abe00423f1e772557b70cf
:100b0400efe7731958780328d1d807f0c1f8022900
:100b14003e490121200005f0c7fd142000232200d6
:100b24007349ff3005f084fb73199871029a5b795d
:100b340093420fd110226f49200006f06ffd01216e
:100b44007319db790b4202d0200003f0eff9751919
:100b5400012351e010226749200006f049fdeee729
:100b64007023019a1a40102aa1d12000751906f0a9
:100b7400f5ffeb79db0711d5002322005e490a203b
:100b840005f056fba871022336e00c23019a1a42a1
:100b940000d18ce7200006f0e1ff751903232be058
:100ba40073195a79ec2363434c4f0299fb18b03301
:100bb4008a4223d102211a688a431a60200007f06e
:100bc40003f9ec236343fb180127b0331a68390097
:100bd4003a431a60200006f0f9fa18226243414ba6
:100be40041499b180a229b8820005a433b0092b239
:100bf40001f0d0ff042375196b7058e702221968bd
:100c04000a431a600321d9e777197b78012b21d095
:100c1400002b12d0032b00d049e77023019a1a400d
:100c2400019200d043e7200006f098ff6b461b7941
:100c34007b706b461b79735539e7200004f05afb2f
:100c44000123220029490a2005f0f2fa0223b8718f
:100c54007b702ce70021200005f026fd00232200f4
:100c64002349264805f0e4fa0c23019ab8711a4284
:100c740003d16023fa791a4209d00021200003f03d
:100c840055f960227519eb799343eb717be70323e4
:100c9400dee775196978012932d0002903d00229c9
:100ca40000d17be703e7182262430e4b20009b1818
:100cb400998006f08bfaec2201266243074b31003f
:100cc4009b18b0331a682000b2431a6007f07cf80e
:100cd4006e70ece62003002008080000c800002025
:100ce400fefeffff8003002088130000817c0000cb
:100cf400c975000021080000f95a00008a020000aa
:100d04007023019a1a40131e00d0d0e618216143c3
:100d1400a24a200052189288a14901f03bff32e711
:100d240077197b78022b06d0032b09d0002b00d037
:100d3400bde60323d8e6052322009a490a20d6e615
:100d44007023019a1a40102a00d0b0e600237b7069
:100d5400072370e773195878042800d9a7e606f02a
:100d6400a1ff0500a6fe60006d008b007319da79ff
:100d74008a4f5207920f1823022a39d0032a3bd0f4
:100d8400012a03d15a226343fb189a80029b039ad7
:100d9400934236d910228449200006f03ffcec230c
:100da40002216343814ad318b0331a688a431a6014
:100db400200007f009f8ec2363437c4a7519d31823
:100dc4000122b033196820000a431a60012301216b
:100dd4006b7006f0fbf918230a226343ff18bb88e3
:100de4006f495a43200092b2012301f0d3fe5ee61c
:100df40063439622fb18c8e7962263435200fb180c
:100e0400c3e710226849200006f0f2fbec23634399
:100e1400664ad3180222b03319680a431a600321c0
:100e2400c6e7200004f066fa0323220060490a2082
:100e340005f0fef97519a8710523dde67023019a02
:100e44001a4203d00121200005f07eff0c23019af1
:100e54001a4204d160227319d979114209d00021b0
:100e6400200003f063f860227519eb799343eb716a
:100e7400e2e704225a701ae6052373557519002314
:100e8400bae673195878042800d910e606f00aff68
:100e940005003c0043000ffe56000021200006f030
:100ea40095f90021200005f057fcec2262433f4bea
:100eb4009b18df6907231f40012f22d10021200046
:100ec40005f0f2fb0021200005f05eff042255210d
:100ed400200006f0a3fb00223900200005f066fc88
:100ee4000c23019a1a4205d17319da7960231a4244
:100ef40000d12ce660217219d3798b43d371002180
:100f040022e603220021e8e70c23019a1a4200d0ca
:100f1400cde5751937e67021019b0b40191e00d0f1
:100f2400c5e5200005f0b0fffa2004232200204983
:100f3400400005f07df97519a8712fe6ec2207270a
:100f440062431a4b9b18da691740012f1bd1d20652
:100f5400920f3900200005f029fc00237355751900
:100f6400390020006b7005f00fff0422552120008a
:100f740006f03efb2000602105f0eefb012120007d
:100f840005f082ff93e501220021200005f00efc0c
:100f940005237355002375196b70ebe7800300205c
:100fa40088130000497b000021080000c8000020cd
:040fb400817c00003c
:020000040000fa
:100fb800f7b50d0009036c00ed0f0095490a450fc0
:100fc80029431d035e00c700d80f6b0a550f2b433a
:100fd800c14d640d760dd200ae4203d11d0084468a
:100fe800154302d101254540ac46009da01bac45e8
:100ff80000d036e1002861dd002e25d11d00154303
:1010080000d196e2461e002e19d1ba18ba42a44160
:10101800c91864420919170001240b0200d4bee064
:10102800ad4b01349c4200d180e2ac487b080140c2
:10103800012007401f43c80707434908afe0a64df2
:10104800a84209d1a44caae0a34dac4200d1a6e025
:10105800802506002d042b43382e2adc1f2e17dc92
:1010680020201d00801b8540ac4615000190f540ee
:10107800604605430198f3408240501e8241154363
:10108800ed195b18bd428941494259182f00c4e740
:1010980030001d002038c5400020202e03d04020fd
:1010a800861bb34018000243501e8241154300239b
:1010b800e6e71a4315006a1e9541f8e7002850d064
:1010c800002c14d10c003c4300d128e2c443002c6e
:1010d80007d1bf189742a441c918644209193400be
:1010e8009be77d48864209d119001700aae77a4c88
:1010f800a642f9d04442802000040143382c2bdc5e
:101108001f2c17dc2025281b01900800019de140b9
:10111800a840844638006546e0402843019daf401a
:101128007d1eaf413843871897429241c9185242f1
:101138008918d4e720000d002038c5402800002574
:10114800202c03d040252c1ba1400d002f437d1ed1
:10115800af4138430021e6e70f433800471eb84146
:10116800f8e7661c75056d0d012d00dd69e00800c6
:101178003843002c49d1002800d1d3e1180010438e
:101188000dd0ba18ba42b641c918802376428919d7
:101198001b041700194202d00124504b19407b0749
:1011a80009d00f233b40042b05d03b1dbb42bf4158
:1011b8007f42c9191f000b0206d5474b01349c42d8
:1011c80000d1c3e1454b1940434b4807ff0838435a
:1011d800c9089c4206d103000b4300d1b9e1802322
:1011e8001b031943002709033b0d1b05090b194372
:1011f8003b4b6405194064080c43009b6400d90705
:1012080064080c43210003b0f0bd002800d16be74f
:101218001800104300d115e74807ff08074380204e
:10122800c9080003014207d0dc08044204d1d208ef
:101238005b0713431f002100780fc9000143ff001b
:1012480000e7254ca64200d16fe1ba18c918ba4286
:101258009b415b42cb18df075208174359083400fb
:101268009de700285ddd002e3cd11d00154300d10f
:101278005fe1461e002e0ed1ba1a9742bf41c91a25
:101288007f42c91b012417000b0200d487e74902db
:101298004d0a3e00f9e0104da84200d1d2e6382ea2
:1012a8003adc1f2e27dc20201d00801b8540ac4621
:1012b80015000190f540604605430198f3408240cf
:1012c800501e824115437d1bcb1aaf4289414942ca
:1012d800591a2f00d8e7c046ff070000ffff7fff1d
:1012e800ffff0f809c4dac4200d158e780252d04ac
:1012f8002b430600d3e730001d002038c5400020ee
:10130800202e03d04020861bb34018000243501ef5
:10131800824115430023d6e71a4315006a1e9541fa
:10132800f8e700284dd0002c17d10c003c4300d121
:1013380001e1c443002c09d1d71bba429241591a82
:1013480063465242891a340000939de782488642d8
:101358000ad119001700804c45e07f4ca642f8d00e
:101368004442802000040143382c25dc1f2c11dc6a
:101378002025281b00900800009de140a84005009a
:101388003800e0402843009daf407d1eaf41384300
:10139800171ad2e720000d002038c5402800002584
:1013a800202c03d040252c1ba1400d002f437d1e6f
:1013b800af4138430021ebe70f433800471eb841df
:1013c800f8e7601c4005400d01284cdc18000d00b2
:1013d80010433d43002c24d1002d07d1071e00d116
:1013e800ade01900170063460093d8e6002800d145
:1013f800d5e6bd1aaf42b641c81a7642801b802690
:101408003604304206d0d71bba429241591a52428a
:10141800891ae8e72f00074300d190e001002f0068
:10142800bde6002d07d1071e00d18be019006346e9
:101438001700009306e6002800d103e64807ff08d6
:1014480007438020c9080003014200d1f4e6dc0804
:10145800044200d0f0e6d2085b0713431f0063463e
:1014680021000093e8e6be1ab7428041cd1a4042f7
:101478002d1a8020000405422dd0d61bb242ad4162
:10148800591a63466d424d1b0093002d29d0280040
:1014980005f026fe0300083b1f2b27dc2022310025
:1014a8009e40d21a9d40d14037000d439c4232dc09
:1014b8001c1b661c1f2e1edc20233a0029009b1bc8
:1014c8009940f2409f400a43791e8f412900f1401c
:1014d8001743002463e637002f43d6d139003c0078
:1014e8002ee0300005f0fcfd2030d3e73500283829
:1014f80085400027dae72a001f3ce2400023202e1f
:1015080003d040239e1b2b00b3401f437b1e9f41eb
:1015180000211743dde71149e41a29403fe6190085
:1015280017009ce61900170039e60b4c00210f0044
:1015380035e6040033e619001700340053e7390094
:1015480000972ce68021044cc903f9e700210f001d
:101558003ae6190046e6c046ff070000ffff7fff96
:10156800f0b58bb0060004930400cb0f0d034800c0
:1015780000922d0b400d0393029346d0584b98428e
:1015880067d08023720f1b04ed0013432b431f0009
:10159800544bf400c31800260193049b009a1d03c2
:1015a8005800db0f2d0b400d069361d04c4b984231
:1015b80000d181e08023520f1b041343ed001d432b
:1015c800484a009b8218db0094460022069803993b
:1015d8004140604604910199091ab000104301384e
:1015e80005910e2800d981e006f064fb75004902d8
:1015f800ed0149023d024902ed01750075003d0209
:10160800ed01fc01fc01fc01e2012f00374327d06a
:10161800002d13d0280005f063fd01000b391c29ab
:1016280011dc02001d2337003400083a5b1a95408c
:10163800df4094402f432c4b1b1aace7300005f0d9
:101648004ffd2030e9e70300283b9e400024370087
:10165800f1e72e43371e07d02f00019003269ce7a1
:101668003c000197012698e734000190022694e790
:10167800009b2b4327d0002d13d0280005f030fd08
:1016880001000b391c2911dc1d2302005b1a00998b
:10169800083ad940009b954093400d43124a121acc
:1016a80092e7100005f01cfd2030e9e70300009ddb
:1016b800283b9d400023f1e7009b2b4307d01300f4
:1016c8008446032282e71d009c4601227ee71d0016
:1016d800844602227ae700252c00014b4ee1c046e1
:1016e800ff07000001fcffff0dfcffffaf4204d81d
:1016f80000d057e19c4200d254e1f9076208114337
:10170800e0070c0001907f082d021a0e2a431b02e5
:101718000293130c03936b4600921b8803993800bd
:10172800079303f04dff0600079b069003993800c6
:101738005e4303f081ff250c09040d43069fae426a
:1017480009d9009b013fed18ab4204d8ae4202d93b
:10175800069fed18023fab1b03991800069303f090
:101768002fff079e050046430399069803f064ff80
:10177800a4b209040c432a00a64208d9009b013ae6
:10178800e418a34203d8a64201d9aa1ee4183b04d0
:1017980002991343029a0904120c090c0892069143
:1017a800089d06989ab2a61b1c0c514360436a43d5
:1017b8006c4312180d0caa18904202d980204002de
:1017c8002418100c09041204090c04195218a64212
:1017d80005d31f00a64227d10199914224d202982d
:1017e80001998446614401918142894100984942a6
:1017f800091876185f1eb04204d315d161460198c6
:10180800814211d8b44203d80ed101998a420bd92a
:1018180002999f1e8c46019b634401938b429b4116
:1018280000995b425b18f618019b341b9b1a0993bd
:10183800099a019b93429b415b42e41a009ba34295
:1018480000d1d2e00399200003f0bafe079d0600fc
:1018580045430399200003f0effe099b09041c0c83
:101868000c430196a5420cd93300013b0193009b20
:10187800e418a34205d8a54203d9b31e0193009bdf
:10188800e418641b0399200003f09afe079d0600e4
:1018980045430399200003f0cffe6b460a04998c58
:1018a800330011438d4208d9009a013b89188a42b6
:1018b80003d88d4201d9b31e8918019a089c1204d5
:1018c8001a43100c93b24d1b16000699069a414311
:1018d8005a43634360435b18140ce318994202d9d6
:1018e800802149024018190c12041b04120c081814
:1018f8009b18854204d3340085421bd1002b1bd092
:10190800009a741e5519aa420fd8a84203d811d1bb
:10191800029a9a420bd2029ab41e51009142924105
:10192800009e52429219ad180291854202d1029a44
:10193800934201d001231c43059b564a9b18002b58
:1019480056dd620709d00f222240042a05d0221d45
:10195800a242a44164423f191400fa0106d580222c
:10196800d20094464c4b1f40059b63444b4a93421c
:1019780000dd88e0e40879070c43fd0800212d0309
:101988000a0d12052d0b1543454a5b0515405b08ea
:101998002b43049a5b00d2075b081343200019000d
:1019a8000bb0f0bd059a013a059200220192abe610
:1019b8008022120317425ad0154258d12f001c001a
:1019c800069b029353e02f0016001c00069b04930d
:1019d800022e58d0032e50d0012eadd10024250060
:1019e8002300cbe7039b0493f2e701246442a3e7b7
:1019f8000122d21a382af1dc1f2a21dc20232000f8
:101a08009b1a39009c403d009940d040631e9c4180
:101a1800d54001430c43630709d00f232340042b0f
:101a280005d0231da342a44164422d191c00802324
:101a38001b042b402ad16907e4080c43ed089de7f5
:101a48001f214942cb1a3900d9400b000021202a16
:101a580003d040218a1a390091400c43611e8c4101
:101a680000251c43d7e7802700243f0302948025e4
:101a7800029b2d033d4304932fe6049ba1e7002519
:101a88002c002b007ae70024250026e600250123f8
:101a98002c0073e7ff030000fffffffefe070000b6
:101aa800ffff0f80f0b58bb001920593ca0f0c03ae
:101ab8004b000600240b5b0d0492039245d0c64ae6
:101ac800934265d08022410f12040a43e400144374
:101ad800c24ac5009b1800270293059b019a1e0362
:101ae8005800db0f360b400d059360d0ba4b984277
:101af80000d180e08023520f1b041343f6001e43dd
:101b0800b64a019b8218db00944600220598049986
:101b1800414001910299b80061441043079101388e
:101b2800013106910e2879d806f0c4f874007400c3
:101b38007b0171017101bc017b017101bc01710163
:101b48007b016f016f016f0164012500054326d0f9
:101b5800002c13d0200005f0c3fa01000b391c2912
:101b680010dc1d2302005b1a31003500083a94404e
:101b7800d94095400c439a4b1b1aace705f0b0fad4
:101b88002030eae703003400283b9c400025f2e7b8
:101b98000500254307d00500029303279de72c0085
:101ba8000295012799e72c000293022795e7019bec
:101bb800334327d0002e13d0300005f091fa0100ee
:101bc8000b391c2911dc1d2302005b1a0199083a04
:101bd800d940019b964093400e43814a121a93e7dd
:101be800100005f07dfa2030e9e70300019e283b4c
:101bf8009e400023f1e7019b334307d0130084463e
:101c0800032283e71e009c4601227fe71e008446cc
:101c180002227be734001d001700f8e0190c9bb284
:101c2800029119002a0c514318008c46029f029910
:101c3800adb2684351436f4304916744010cc9191d
:101c480003908c4506d9049f380080277f02bc4644
:101c580060440490684680890f0c090409180991aa
:101c6800310cb6b2039130003100bc46039f694382
:101c780050437d437a432d180f0c7d19a84202d991
:101c8800802040021218280c82182d0489b205926f
:101c98006a1808921800089962468c46029f210c1f
:101ca800a4b260434b43674362449446029dff18c5
:101cb800020cd2194d43934202d980235b02ed18de
:101cc8003700130c5b190293039b67434e435c4335
:101cd8005943a4193b0c120480b21c191018a642cf
:101ce80002d980235b02c918049b220463441e00a6
:101cf800089bbfb29e42ad418619d2198642bf41a8
:101d08000298059b84466d42d218ab189c440393f5
:101d1800059b60469a429241039b5242ab429b41cb
:101d28005b427f421a43029b3818240c1219b842ae
:101d3800bf419c45a4417f4264423c431419641846
:101d4800c30d64021c43099b75021d43691e8d4126
:101d5800f60d354340020543e30167d501226b08c0
:101d680015401d43e307d4401d43069b1d4a9b189d
:101d7800002b5edd6a0709d00f222a40042a05d00d
:101d88002a1daa42ad416d4264191500e20106d52b
:101d98008022d2009446144b1c40069b6344134a8d
:101da800934200dd8be06207ed081543e40800214b
:101db80024030a0d1205240b14430d4a5b05144035
:101dc8005b082343019a5b00d2075b081343280092
:101dd80019000bb0f0bdc046ff07000001fcffff73
:101de8000dfcffffff030000fffffffefe070000e2
:101df800ffff0f8080221203144257d0164255d19c
:101e080034001d00059b039350e0049b0193022faf
:101e180055d0032f51d0012fa7d100252c002b001e
:101e2800c5e71d00059b34000193f5e6079b069363
:101e38009be70122d21a382aefdc1f2a20dc202354
:101e480021009b1a28009d409940d0406b1e9d415f
:101e5800d44001430d436b0709d00f232b40042bbb
:101e680005d02b1dab42ad416d4264191d00802386
:101e78001b04234000d196e700240123250096e7a0
:101e88001f214942cb1a2100d9400023202a03d020
:101e980040239a1a230093401d436b1e9d41002442
:101ea8000d43d8e7802400252403039580231b03d2
:101eb8001c43039b0193034b79e7019ba3e7002590
:081ec8002c00f8e7ff07000001
:020000040000fa
:101ed000f0b509278fb0059304abff180b230a2434
:101ee0003b7004abe4180500ff2304911c22002181
:101ef00007a8237005f04aff22003900280005f0ea
:101f0000c3fd3b78c94e053b012b0ad814236b4314
:101f1000f25c123a012a04d90021f218d17212227d
:101f2000f254142423006b43f05c12380b2836d88b
:101f300005f0c4fe0c00190037004d007400a1002c
:101f4000b100c500e0003b0153016a01280005f023
:101f500067fa142341215d437219937b8b4393737a
:101f6000132373551be0280005f00af8b04b01005d
:101f7000984214d13b78072b11d118226a43ad4bfc
:101f800028009b180a229b885a43012392b200f032
:101f900003fe14235d43735533237519ab700fb0e3
:101fa000f0bd6c433419a378332bf8d1e37a022bbc
:101fb00007d8d22043232a009f49ff3004f03af982
:101fc000e0731424342365437619b370e7e72300e4
:101fd0006b430393f7180023fb726b46049a998aac
:101fe000280002f07df82b0018225343914ded1884
:101ff000ab8969891b040b430bd1bb7bdb0704d581
:10200000039bf2543c23bb70c9e7039bf454332376
:10201000f9e71623039ab3543523f4e76c433619d2
:10202000b378352b0ad0372bb9d143232a00824904
:10203000182004f0fff83823f073c6e700230122cc
:102040000221280005f0a8f818226a43794b9b1852
:102050005a8908339b881b04134307933623b370b4
:10206000764b0193764b02000093002107ab2800ca
:1020700001f0c0fb93e76c433619b378392b00d0dd
:102080008de7fa2043232a006b49400004f0d2f880
:102090003a23f07399e76c433619b3783b2b00d0a1
:1020a0007de7280005f008fa0123b27b07211343de
:1020b000b3733c232800b37005f088fe6fe76c43d0
:1020c0003719bb78432b00d069e7280005f04cfc9a
:1020d0004023ba7b28001343bb7300231a00190066
:1020e00003f0b6fe1a2333554523bb70fb7a013348
:1020f000fb7254e76c433419a0784538032800d9a3
:102100004de705f0c7fd021b2934142440236c431e
:102110003619b27b28001343b37305f0c1fc0028c5
:1021200018d00021280005f021fe00232a0045498f
:10213000192004f07ff84623f07346e7280005f0e5
:10214000affc002800d02ae71424280005f00cfc7e
:1021500065437619472338e7142400232800654394
:102160001a00190000f018fd761948232de7280001
:1021700004f006ff031e00d011e7182169432d4a21
:102180002800521891880a224a43294992b200f045
:1021900003fd280004f012ff142340215d4372194f
:1021a000937b8b4393731223dbe66c433619b3782e
:1021b000492b00d0f3e60b2404abe41807aa210056
:1021c000280005f0abfa002322780421280004f04f
:1021d000e3ff4a23b3701c4b43e76c433619b378d3
:1021e0003d2b00d0dbe6280005f0befb00212800d7
:1021f00005f009fe002303211a00280004f0ccff9b
:102200003e23b370114b2ce76c433619b3783f2b48
:102210001ed0412b00d0c2e643232a0006491820d5
:1022200004f008f84223f073cfe6c04640030020d4
:1022300088130000800300209962000016371d3fbc
:102240000d6d000045770000183c1d3f1433194305
:10225000280005f089fb0021280005f0d4fd0023ab
:102260000d211a00280004f097ff4023b370014ba2
:08227000f7e6c0461d411943c9
:020000040000fa
:10227800f0b50127b84a0301d3181b7a87b00400c8
:102288000e00019339423ed004ab5d1d2a003b008d
:10229800b24904f043ff2b787f2b05d93b002a0075
:1022a800ae49200004f0acff2b789b070dd004aaa0
:1022b80002230632aa49200004f030ff04aa0223b0
:1022c8000632a749200004f09bff0223019aa54982
:1022d8001a43019204aa951d2a00200004f01eff4b
:1022e800ec226243a04b9b18d969072322011940ad
:1022f8002b88012900d0ade097498a18d9431b0ad9
:10230800db439170d37073051fd504ab5d1d2a00a4
:1023180001239649200004f001ff2b785fb2db0708
:102328000bd50c23019a9a43019218226243904bd1
:102338009b180822d97c0a43da7401232a008b49a6
:10234800200004f05dff002f01dbb3057ad504ab54
:102358005d1d2a0001238749200004f0dffe1823b1
:1023680001276343824ad3185b7822013b400293da
:102378002b7800250392ab420cd17023019a2900d7
:102388009a432000019204f0ddfc029bab4266d028
:10239800750a3d4004ab5f1d3e78012e14d1029ba7
:1023a800002b00d06de06c4b22019b5c072b0bd1fe
:1023b800200005f039fc002806d1019b3100334389
:1023c8002000019304f0befc3b78052b5bd1029bf7
:1023d800002b11d17021604b22019a18137a0b40ff
:1023e800102b00d1b4e05c4b21015b5c072b03d1bf
:1023f8005378012b00d0abe004ab9d1d00232a00cd
:102408002b805d490123200004f088fe2b889b0661
:102418000ad518226243564b9b181a7d002a03d10d
:102428000222d97c0a43da7404aa012305325349eb
:10243800200004f073fe04aa012305324f4920004e
:1024480004f0defe444b24011c196b461b792372f1
:1024580007b0f0bd40498a1893701b0a52e73e4bfb
:1024680022019b5c029d072b00d093e7200005f01a
:10247800dbfb051e03d1019b3b4301938ae7029dc9
:1024880088e7029da0e7012db6d010221a400292db
:1024980006d018236343364ad318d97c0122c1e7f2
:1024a800202293430d2bbfd17023019a34499a43bc
:1024b80004ab9d1d019202232a00200004f02efe89
:1024c800288803f035fd2f4a2f4bfff7ebfa224af5
:1024d8002301944663449a680600187b120a000692
:1024e80010430f0002f0b8fe0b0002003900300064
:1024f800fff736f804f0bcfe80b22880ec2565436f
:10250800194e32277319d7331b7802999c46cbb2e0
:10251800634510d28a0052199219526f0131120381
:10252800920d7a439042f2d80133019adbb21b0133
:102538001343dbb20193182262430d4b9b185b785f
:10254800db0700d470e70021200004f0fbfb6be7f9
:10255800012d00d068e74fe72003002003080000a2
:102568000408000006080000c80000200a0800004f
:1025780080030020080800001f0800000908000068
:0c258800b2080000295c8fc2f5683840e2
:020000040000fa
:102594001423f7b51a004243b44e0400905d1f386b
:1025a40009285cd805f088fb4c0064008f009e006d
:1025b400c900ec0007010a00300029016343f31845
:1025c4009b78562b4bd1002310211a00200004f0d5
:1025d400e1fdec226243a64b9b180722db69134002
:1025e400012b0fd0a34914236343f6185723b37068
:1025f400a14b01910093002302001900200001f077
:10260400f7f82ce09d49eee76343f3189b78582bc9
:1026140025d1002304211a00200004f0bbfdec2284
:102624006243934b9b180722db691340012b05d0af
:10263400904914236343f6185923d8e78f49f8e7e0
:10264400200005f02bfa00280ad1182262438c4b93
:102654009b189b7c002b03d1200004f07ffdf7bd69
:1026640014235c43202333554d233419a370f6e718
:102674006343f7181d00bb784d2b0bd04f2beed1c5
:10268400200005f00bfa002819d0212373554b23a1
:10269400bb70e4e7002303211a00200004f07afd54
:1026a40018226243764b9b185b78db0705d4754987
:1026b40014236343f6184e2399e77349f8e7232359
:1026c40073555223e4e76343f618b3784b2bc6d112
:1026d400132322006d49322003f0aafd4c23f0732a
:1026e400b370bce76343f7181d00bb78502b14d0bc
:1026f400512bb4d1200005f0d1f90028afd120002e
:1027040005f030f9182254435d4b1c196378db073c
:1027140010d5052373551023bae70021200005f0d6
:1027240023fb002322005a49192003f081fd512381
:10273400f873ade772553c23aae76343f7181d000d
:10274400bb78522b0fd0532b00d088e7200005f024
:10275400a5f9002800d182e7200005f003f924231d
:102764007355542394e70121200005f0fdfa00235a
:10277400220048494b2003f05bfd5323f87387e79d
:102784006343f3189b78542b00d068e70023062199
:102794001a00200004f0fefc18226243384b9b18f8
:1027a4005b78db0705d4334914236343f6185523b8
:1027b4001de73249f8e703250b689b092b4200d03b
:1027c4004de718210a0062432d4b9b1858781423b7
:1027d40082082a405c43012a0ad1104204d005230e
:1027e40033553419102341e731553c2334193de75f
:1027f400262333553419562338e76343f7181d004d
:10280400bb785a2b11d05c2b00d028e72000002184
:1028140004f09cf818236343194ce4186378db072d
:1028240020d50b237355192332e7a0230a68db054f
:102834009a420ed10121200004f088f85c23220082
:1028440015492d2003f0f4fc14235c435b23361953
:1028540046e70c226243114b9b181022997a0a43d3
:102864009a72f1e71a237355452311e740030020b8
:10287400c8000020183c1d3f0d6d000005100829fc
:1028840080030020204f1d3f204f0829996200003b
:102894004577000055560000e17b000068030020e6
:020000040000fa
:1028a400f7b543024a025b0a520a4e004400019300
:1028b40000939446240ec50fdb00360ec90fd200d8
:1028c400ff2e01d1002a01d101204140a01ba942c1
:1028d40000d0a1e000282edd002e18d1002a00d15e
:1028e4004ae1411e00290ed101249b185a015bd5ef
:1028f4000134ff2c00d13de10122a4491a405b08b8
:102904000b40134350e0ff2807d1ff244ce0ff2c79
:102914004ad08021c9040a4301001b2901dd012298
:1029240007e010002026c840711a8a40511e8a41cf
:1029340002439b18dae7002821d0002c0cd1002b8d
:1029440007d0c043002802d19b183400cee7ff2ee5
:1029540008d11300340027e0ff2efad08021c904e7
:1029640040420b431b2801dd0123ede7190020241d
:10297400c140201a8340581e83410b43e4e7611c85
:10298400ff260f003740012f3fdc002c2bd1002bfa
:1029940000d1eae0002a07d09b188022d204134217
:1029a40002d001247a4a13405a0704d00f221a4055
:1029b400042a00d004335a0105d50134ff2c00d178
:1029c400e1e0734a1340db08ff2c04d1002b02d052
:1029d4008022d20313435b02e4b2e405580aed07f4
:1029e40020432843febd002b00d1c0e03400002a60
:1029f400dad08023019adb031a4203d062461a42da
:102a040000d10092009bdb007fe7ff2900d1b0e0fa
:102a14009b185b080c00c7e7002826dd002e13d1a5
:102a2400002a00d1a8e0411e002906d101249b1ae6
:102a34005a01b9d59b019e097ae0ff2800d164e7c9
:102a44001b2908dd01220ee0ff2cadd08021c90432
:102a54000a430100f4e710002026c840711a8a4096
:102a6400511e8a4102439b1ae2e7002822d0002c1f
:102a74000dd1002b08d0c043002803d1d31a340051
:102a84000d00d5e7ff2e08d11300340020e0ff2eff
:102a9400fad08024e404404223431b2801dd0123af
:102aa400ece71c002025c440281a8340581e8341ab
:102ab4002343e3e7ff20661c0640012e31dc002c93
:102ac40017d1002b06d11d00002a00d16ce713009a
:102ad4000d0069e7002a00d166e78026981af604fb
:102ae400304201d0d31af3e7031e00d05ce71d0087
:102af4005ae7002b04d1002a40d013000d0004e74c
:102b04000400002a00d14fe78023019adb031a4214
:102b140000d177e762461a4200d073e700920d00b5
:102b240070e780209e1ac004064215d00d00d61a04
:102b3400300004f0d7fa330005388340844210dcb7
:102b4400041b1a0020200134e240041ba3405e1e33
:102b5400b3410024134327e7002ee9d133003400a6
:102b6400c5e7241a0a4803401ee713001ce71300b4
:102b7400cbe60c00002317e7040015e780230400cc
:102b84009b04150010e700231de7c046ffffff7def
:042b9400fffffffb45
:020000040000fa
:102b9800f0b5040087b01d000e0004f0edf99c4b61
:102ba800220103909b189a681b7b170a1b060021b9
:102bb80020001f4304f066f9002d68d0002e66d06f
:102bc80018256543934b5d192b7c002b0ed0a87bf1
:102bd80004f0b4fcec2262438f4b90499b18d2332b
:102be80018882200002303f021fba873ec25654315
:102bf800300002f0bbfe884b02905d192b00dd33dc
:102c0800187802f0b3fe864901f0aef8029900f098
:102c1800dffe02f021fb834a834bfef7a1fc01f0a3
:102c280091fd391c00f0d4fe04f05afc05aede35e7
:102c38003080287802f09afe794901f095f80299d7
:102c480000f0c6fe02f008fb764a774bfef788fcd8
:102c580001f078fd391c00f0bbfe04f041fc0423b0
:102c6800708032007149200004f030fe03225521a3
:102c7800200004f0bbfc3d273a0020006c4905f019
:102c88002cf80121200004f0fdf807b0f0bd032264
:102c98005521200004f0c0fc002e4dd0654b9e420b
:102ca80056d0300003f044f9634a644b0090019118
:102cb800fef7f8fe5b4a5c4bfef752fc01f042fd62
:102cc800391c00f085fe5e49051c00f081fe04f009
:102cd80007fc0a2180b202f0affc89b2281c042943
:102ce80000d88de004f0fcfb013083b20293554a12
:102cf800554b00980199fef7d5fe4a4a4a4bfef714
:102d08002ffc01f01ffd391c00f062fe4c49051c28
:102d180000f05efe04f0e4fb0a2180b202f08cfcb5
:102d280089b2281c04296ed904f0dafb0130002787
:102d380085b2be42a0d03fe0182201216243354b44
:102d48009b185f780f4061d0200003f0fbff93e7ea
:102d5800182262432f4b9b185b78db0748d53b4909
:102d6800381c00f035fe3649051c00f031fe04f031
:102d7800b7fb0a2180b202f05ffc89b2281c042943
:102d880038d904f0adfb013083b23149381c0293c5
:102d980000f01efe2a49051c00f01afe04f0a0fbf4
:102da8000a2180b202f048fc89b2281c042924d9df
:102db80004f096fb013085b2029a2649200004f0ff
:102dc80095ff039b0d27b34200d855e71822012130
:102dd8006243104b9b185b780b4202d0200003f033
:102de800b1ff2a001c49200004f080ff4d2743e76b
:102df8001a49b5e704f074fbc6e704f071fbdae79b
:102e080004f06efb71e704f06bfb90e70f0033e70b
:102e18002003002080030020c8000020317b000030
:102e28000000c842295c8fc2f5683840b408000029
:102e38001f08000088130000666666666666ee3f37
:102e480000002041cdccccccccccf03fa69742435f
:102e580047516143b2080000b808000006413443f6
:020000040000fa
:102e6800f7b504000d0003f0bffd012834d11f2180
:102e78006b045b0f2940002b00d17ce0481e0e2814
:102e88002ad804f003ff082a396c29292929292975
:102e9800292929294f0014236343914ad3189b7881
:102ea800342b0cd03c2b13d0182161438d4b5b186d
:102eb8005b78db060cd4200004f0a0fc0ce02000ba
:102ec80004f04efd00221521200004f019f803e05b
:102ed80014235c4315231355f7bd14236343804a19
:102ee8009b5c022b04d0052be5d100220321ebe7e4
:102ef800200004f035fdf8e714236343784d5b5d4b
:102f0800182b01d0052be7d1200004f035f8764bbb
:102f18009842e1d114235c4328232b555a232d19b9
:102f2800ab70d9e7142363436d495b5c182b09d058
:102f3800052b07d01820102660436a4a12185578c6
:102f4800354004d014235c4325230b55c4e70f2bcd
:102f5800c2d1200004f004fd2a003100b4e7142394
:102f680063435f4a9d5c0d2da5d1200004f0f8fc59
:102f780026222900a8e7c81e0a28add804f090fe2a
:102f88000b002d00acff500066007200acffacffd8
:102f980088002d009c0014252f006743504ef3191c
:102fa80001939b78382b05d1200004f0d9fc3922f5
:102fb800172189e7422b04d1200004f0d1fc3322e9
:102fc800d7e70225ab432c2b00d074e7200004f090
:102fd800c7fc019bbd559d707ee714231f00674306
:102fe8003f4ef519aa78382a00d064e7aa7bd207a1
:102ff80013d50c290dd1162322003c49642003f077
:1030080015f93b4b24011c19a0711823bb553c230f
:1030180086e7042900d05fe7f7e7bb5533237fe74e
:10302800142262432e4b9b189b783a2b05d1200023
:1030380004f096fc3b22182146e74c2b00d03ae7d7
:10304800200004f08dfc502222213de71422624327
:10305800234bd15c052900d02de70221d1549b18c0
:10306800997039e7142262431d4bd25c182a07d0a5
:10307800182161431b4a52185278d20600d41ae725
:10308800142254431b221a5549221b199a7023e70c
:103098001423634312495b5c182b09d0052b07d016
:1030a800182262430f4b9b185b78db0600d402e7bb
:1030b80014235c431f2348e718226243094b9b18db
:1030c800142259785443064bc90704d50e221a55c1
:1030d8001b192722dae71c221a551b193d22d5e7ae
:1030e800400300208003002088130000cd7b0000ef
:0430f8002003002091
:020000040000fa
:1030fc00f0b5040085b0002103f02afb002120006c
:10310c0003f0befe01229a21200004f06dfa082281
:10311c007c49200004f068fa00227b49200004f06e
:10312c00dafd40227949200004f05efa0022784949
:10313c00200004f0d0fd83227649200004f054fadc
:10314c0081227549200004f04ffa1421200004f06c
:10315c00ddfd724a02ab024392b214212000da80e8
:10316c0004f0c2fd802101220901200004f052fa72
:10317c0010236b4a6b49200004f0a6fb230101933a
:10318c00694b22019d18ab68287b1b0a000618436b
:10319c00664900f01bfc04f0a1f9654982b22000dd
:1031ac0004f0a2fdab68287b1b0a0006184361499a
:1031bc0000f00cfc04f092f98b2182b20901200082
:1031cc0004f092fd5c490122200004f00dfaec237e
:1031dc0007266343594fff18f9690e4000d16ae086
:1031ec00012e29d1082302aa13711423537103232e
:1031fc00c9081940200003f017ff8021042209019f
:10320c00200004f0f1f90323fa693100d2081a40c6
:10321c0002abda802000d2b203f0c4fa0622eb79ba
:10322c002101934302aad28852001343eb7100236d
:10323c003d4a8b5403236b70ec25012303aa4049b0
:10324c00200004f041fb02aa012305323d49200075
:10325c00654304f039fb0321200002f0bffa374b21
:10326c0039495d192b00df331a78200004f033fd47
:10327c0002ab9e1d7d233200338034490123200094
:10328c0004f022fb012332003149200004f01cfb26
:10329c000121200003f0f4fd6021200003f058fa16
:1032ac000722eb691340012b1dd10021200003f0f4
:1032bc00f7f905b0f0bd0c2302aa137114233100e9
:1032cc002000537104f0cefa01223100200003f0eb
:1032dc0069fa3100200003f0a7fe0523124a2101f0
:1032ec008b546e70a8e7182262431a4b1a499b182c
:1032fc000a229b8820005a43002392b2fff746fc17
:10330c00d7e7c04601080000061000004108000085
:10331c00071000001108000015080000030600004b
:10332c007c7d000022080000200300200000e0410a
:10333c004e080000000016433f080000c8000020a3
:10334c00170800004a0800001908000014080000c3
:0c335c001c080000800300208813000003
:020000040000fa
:10336800f7b50c2545438d4b04005b199b7a002665
:103378005b074bd524224243894b9b185a8811b2cc
:10338800b14200dbf0e05a791b79120213431bb2f9
:1033980000936b461b880193df125b053ed504f052
:1033a8009ffb0f231f407f4b5d196b890835db0599
:1033b8001b0f9f422cd1009bb34229da1e22eb78c7
:1033c80093431a000a231343eb700c236343734d92
:1033d800eb181b7a052b02d0093b012b0bd82000d8
:1033e80004f07efb04f0dafb0c2300226343eb18a5
:1033f8001a7204f0ddfb04f0d1fb0c2304225c43b9
:103408002c19a37a9343a37204f0d2fb3000febdbb
:103418000321200003f00efb0026d6e70f231f40f0
:1034280060d1604b5d19ea7a083593060ed50f21f5
:10343800d3061b0f0f330b40022b04d81e239a43cd
:1034480008231a43ea70200003f0fcfc0c236343b2
:10345800544a2425d3182022d97a65430a43da72bc
:1034680086234f4a5b00634352194f485578528868
:10347800c1181a526b469b880d714b80200002f0d0
:10348800ffff0c2211006143464b59184989c905b1
:10349800090f8f425ed1009900295bda2422862524
:1034a800022162433e4b6d009b185b8865435b04b9
:1034b8005b0f9b009c463c4b5d190c206043394bcd
:1034c8001818614511db010008314a888b78d2054c
:1034d800db06120f1b0f9a4220d1200003f0b2fc2a
:1034e800082672e704f0fcfacbe701278368060098
:1034f800db03db0d5a1cd205d20d4272807a120a08
:10350800b843024324206043b272254aeb181218cc
:1035180052181279c9195a71c9b2cee71e22cb784e
:103528001f2593431a00042313430f22cb704b88a3
:10353800db051b0f0133134007221a405101827a21
:103548002a400a4301218272da08c37a8b43134363
:10355800c37261e71e2162439b18da7a8a4311001d
:1035680008220a43da7257e70e4b5d19eb7a99067f
:103578000dd51f210a40052a09d00f22db061b0f93
:103588000f331340022b05d803f05cfc10260223ee
:103598001e431ae703f056fcf9e7c046680300200b
:0c35a800bc02002008030020b403002037
:020000040000fa
:1035b400f7b5030101938a4b0201d35c0400894de2
:1035c400002b28d1864b9b185b78012b2bd1182616
:1035d4003700200003f04afd00236743ef193b75d1
:1035e400b87b03f0adff0c23bb737b7d002b00d1b4
:1035f4003b74002701236643ae19b374f07b7775df
:1036040003f09eff0c237774f37304f0c9faf77484
:1036140004f0d0fa07e0052b05d1714b02019b1889
:103624005b78022bd3d018236343eb181b7d002b4c
:1036340039d0142363436c4ffa1892781e2a02d0af
:10364400db5d122b2fd11826ec2331006343614339
:10365400664a6918d318e133487c1b78984201d331
:1036640000238b74ec2363436643d218ae19e03213
:10367400317c137899422ad30021200003f0a6fd5f
:10368400200001f037fe002333740523544a21013e
:103694005218537014232a226343fa541823002225
:1036a4006343eb181a7518266643ae19f37c002b96
:1036b4000cd01b0714d50521200004f085fb071e40
:1036c40009d104f06dfaf77404f074faf7bd200020
:1036d40003f0ccfce2e7f07b03f032ff0c23f3733e
:1036e400182608226643ae19f37c934313d00621af
:1036f400200004f069fb071ee3d00021200003f042
:1037040043fb04225521200003f088ffb07b03f023
:1037140017ff0c23b373142201276243324b9b1807
:103724009e7b3e403bd109232d4a21011825535449
:103734008c4613006543634401935e70294b5d1905
:103744002b7c6f75db19dbb22b74022b13d9200091
:1037540001f0d0fd6a782e7405233a421dd002226e
:103764001f4920010a54019a5370182363431d4ac8
:10377400d31800225a752000012103f005fb200014
:103784000422552103f034ff04f00afa182363439a
:10379400144ce4180023e37496e70722e0e71823a7
:1037a4006343eb18da7c120706d55a7c6021013298
:1037b4005a74200002f0d0ff182308216343eb1849
:1037c400da7c8a4302d01a7c01321a74200003f096
:1037d400bdfd18236343ed18eb7c2b75cbe7c04686
:1037e400200300208003002040030020c8000020a4
:020000040000fa
:1037f400f0b58bb0040001930c2363436b481600af
:10380400c318da7a0f009206d20f944639d13204e3
:1038140037d5862149006143654d4e536a181f25eb
:103824001771997af601294001259972d97af60d12
:10383400a943d97280231b021e43019b5680002b8f
:1038440004d06346f105c90d8b4213dd0c23634399
:10385400119ac5186a60109a0326c250200002f01b
:1038640011fe1e22eb7a93432a221343eb7230009b
:103874000bb0f0bd0199cd5cd11801334d719bb2f1
:10388400e0e70c2363434b4d1199ea185160109af9
:103894005a5118236343484a9b5c1e22db0700d419
:1038a40006224649200004f01afa0c23012f44d0c2
:1038b400002f04d0022f47d000273d0004e06343cb
:1038c400ed186d7a6d076d0f6b021e43019a02ab02
:1038d4003100200001f034f807220190384920001b
:1038e40004f0fdf9c021019b02aa4901200003f064
:1038f400efff019a3349200004f0f1f988223d4397
:103904002a433149200004f0eaf90c236343294d8a
:10391400eb181b7a092b05d00a2b1cd11f231e4040
:103924000d2e18d004f03cf90c235c4305232d190b
:103934002b7204f03ff9022699e76343ed186d7a80
:103944001027ad066d0fbfe76343eb189d68202772
:10395400ed036d0fb8e70c236343eb189b7a5b0709
:103964000dd524226243194b9b185e78002e06d194
:10397400200001f09bfd200003f09aff77e7144e2e
:103984003100200004f0bdf9c306f9d5200001225e
:103994000f4904f0a4f904f003f90c235c43062353
:1039a4002d192b7204f006f9012660e708030020a4
:1039b400b40300206803002080030020411a0000a3
:1039c400861a0000031a0000041a0000bc0200203a
:0439d400051a0000d0
:020000040000fa
:1039d800f0b5c30f85b0440245000391640a2d0e6b
:1039e8000293019330d0ff2d3ad08023e400db040a
:1039f8007f3d1c4300950027039b5e025d00db0fa3
:103a0800760a2d0e039334d0ff2d3cd08022280057
:103a18000025f600d20416437f38039b029a5a40c9
:103a2800009b9c4684446346b80028430138591ccf
:103a38000e2833d804f02af92f2f8c7b7bad8c7b92
:103a4800ad7b8c7a7a7a6b00002c0fd0200003f0c3
:103a580047fb7626431f76429c40331a0093cae7f9
:103a680000950327002cc7d10227c5e7009401273a
:103a7800c2e7301e0dd003f033fb431f9e40762370
:103a88005b42181ac9e728000325002ec5d1022574
:103a9800c3e70125c1e734002f0048e0b7b2a3b25d
:103aa800200c3c00350c47435c4368435d43230cc2
:103ab800ed195b199f4202d980256d024019a4b205
:103ac8001d042d19ac01671ebc41ad0e25431c0c0d
:103ad8002418a4012c4323013dd5012360081c4070
:103ae80004430d007f35002d37dd630704d00f2315
:103af8002340042b00d00434230103d580310d006a
:103b0800284b1c40e308fe2d19dd00230ce0802320
:103b1800db031c4204d01e4202d13400039b0193f4
:103b28008023019adb032343ff2508e0029a022f32
:103b3800ebd0032f31d000231d00012fd1d1580223
:103b4800edb2ed05400ad2072843104305b0f0bd99
:103b58003400039aa0e76146c3e70120451b1b2deb
:103b68001ddc23002020eb40451bac40611e8c412e
:103b78002343590704d00f211940042900d00433e6
:103b88008025ed041d40db08002dd8d00023012539
:103b9800d5e780240023e403c1e70192c0e70023ae
:083ba8001d00cce7fffffff751
:020000040000fa
:103bb00070b5040003f07efe524a5349200004f021
:103bc00099f8524a5249200004f094f8d021542226
:103bd0004901200004f085f8200003f0f7f84d4a71
:103be0004d49200004f086f864224c49200004f07e
:103bf00078f85e224a49200004f073f8d5210a23a0
:103c0000484a4901200003f065fe474a4749200021
:103c100004f070f81823464a4649200003f05afe83
:103c20001823454a4549200003f054fe0122444927
:103c3000200004f056f818236343424d92225b5d46
:103c4000db0701d5902252008023a0211b021a43da
:103c50008901200004f04ef810223b49200004f0b6
:103c600040f818236343eb5c1e22db0700d40622d6
:103c70002000364904f035f820001022344903f0c2
:103c8000b9fc20008822334904f02bf82000802260
:103c9000314904f026f820000722304904f021f8c9
:103ca000200007222e4904f01cf890212000012258
:103cb000890104f016f8200004222a4904f011f8c2
:103cc00020001022142103f095fc0c200200002596
:103cd000c026624324498b1855501d725d605d7a81
:103ce000190035403f26edb235405d72f0259b7ad4
:103cf0002b408b721d4b9b181872200003f0a6f806
:103d000070bdc0463c1e00000b1a00009f32000030
:103d1000071a000080c40000421a0000461a000082
:103d2000491a0000ec7d00009fc80000b01a000096
:103d3000187b000010280000007b000030280000e5
:103d4000022800008003002004280000411a00001f
:103d500001080000821a0000871a0000811a000082
:103d6000861a0000891a000068030020080300205a
:020000040000fa
:103d7000f0b5c30f85b0440245000391640a2d0ecf
:103d8000029301930ad0ff2d38d08023e400db0496
:103d90007f3d1c432e00002300930ae0002c33d00b
:103da000200003f0a1f97626431f9c407642361a84
:103db0000095039b5f025d00db0f7f0a2d0e0393ce
:103dc00025d0ff2d2dd0802228000025ff00d20411
:103dd00017437f38039b029a361a5a40009b98007b
:103de000284301380e2824d803f054ff4e9d639dcc
:103df000979d634e4e976379797954002e00032383
:103e0000002cc9d10223c7e726000123c4e7381ece
:103e10000dd003f069f9431f9f4076235b42181ac7
:103e2000d8e728000325002fd4d10225d2e70125a9
:103e3000d0e764017801844228d31a210123241a8f
:103e4000012527005b006400002f01dba04201d8a0
:103e5000241a2b4301390029f3d1611e8c411c43e4
:103e600031007f3100293cdd630704d00f2323405c
:103e7000042b00d00434230103d531002b4b8031b7
:103e80001c40e308fe2921dd002310e0013e1b2138
:103e90000023d5e78023db031c4204d01f4202d15c
:103ea0003c00039b01938023019adb032343ff2102
:103eb0000ce03c00039a0095009b022be4d0032bfe
:103ec0002fd00023009819000128c9d15802c9b287
:103ed000c905400ad2070843104305b0f0bd029a55
:103ee000eae70120411a1b291ddc23002020cb40da
:103ef000411a8c40611e8c412343590704d00f2185
:103f00001940042900d004338021c9041940db087a
:103f10000029dbd000230121d8e780240023e4031b
:103f2000c0e70192bfe700231900cfe7fffffff7cb
:020000040000fa
:103f3000f0b5040085b00e00634d0701002960d183
:103f400010228421ed19eb7909011343eb710c2246
:103f500003f066fb842140220901200003f060fb8e
:103f60003100200002f0fafb29225849200003f01a
:103f7000c1fe8221012702abde1d320001230901af
:103f8000200003f0b7fc2a7a2f710c2533782a40e1
:103f9000042a23d107229343022282211343337040
:103fa00032003b000901200003f094fc4849032241
:103fb000200003f035fb3900200001f015fc200043
:103fc000602102f0cbfbec236343424ce418102346
:103fd000b03422689a43226005b0f0bd3822934382
:103fe000102282211343337032003b00090120006c
:103ff00003f070fc36492a00200003f011fb022177
:10400000dae718234343344a324ed31801935b7cda
:10401000002b0fd0019bd87b03f094faec23634371
:10402000f318d2331888220000232c4902f002f939
:10403000019bd8732649200003f065feec236343ff
:10404000f318da6907231340012b14d1ea19917888
:104050008c46d1788c4502d9d2791a4210d1c30648
:104060000ed46022ed19eb7993431a0040231343d9
:10407000eb7108220de0eb199a78db789a42f0d2c6
:104080006022ed19eb7993431a0020231343042295
:10409000eb7184212000090103f0acfaec236343a7
:1040a000f318db699b0505d5842140220901200016
:1040b00003f0a0faec235c4310233619b0363268c3
:1040c0001343336088e7c046200300202208000025
:1040d00021080000c800002080030020b97a0000f9
:020000040000fa
:1040e000f0b58fb006ac0aaf01900d00029200212e
:1040f0000e22200003f04afe0e220021380003f0b9
:1041000045feec21019b534e59437318d4331b7861
:104110006d042031180089193a006d0f039301f0e6
:1041200053f822000299280001f04ef87b78019a9a
:104130009c463b2353433a78634404926a000592b9
:10414000002206339b00f618b3689e059f0ab60d41
:1041500005998a421cd10132a3180493039b019a4a
:104160005b000133e318039306ab5c1c3b235a430b
:104170009446049b9c423cd02178029a8b009a582a
:1041800006ab970a5d1c039b9d4236d10234f0e7d3
:10419000a15c049881422ed3a1184978029d880021
:1041a0004059850a7d40ad0525d18005800db0427e
:1041b00021d3182201985c0842432748274d8218d2
:1041c0008020800420409c022c40204301310907bc
:1041d00006430e43d38099051b0c13816346568119
:1041e000890d360c013396819180d370019802f0cd
:1041f000bbfc0fb0f0bd0232aae763462e7815482b
:104200009b1906339b00c3189b680235980a7840b7
:104210008005b8d118208027019c950260430e4c80
:104220005b0820180d4cbf0425409405a40d2543c0
:1042300001313b402b430d078021c90429430b4327
:104240004381c2801b0c120c013683818480028161
:10425000c670cbe7c80000208003002000fc0f00e0
:020000040000fa
:104260000c23f0b54343504f0400fb18d87a85b0b7
:10427000830618d5c006000f0238082813d803f0ab
:1042800009fd0512303c1212837488000c25654329
:104290007f190837fa785606f60f06d01e239a4380
:1042a00014231a43fa7005b0f0bd200002f028fb79
:1042b0008621490061433d4b02005b1819793c4b54
:1042c000200001933b4b00933300fff793fa1e222b
:1042d000fb7893430622012800d008221343fb7089
:1042e000e1e70c226243344b20009b180222997aaa
:1042f0000a439a7202f0aafdd5e70c263500654301
:104300007d190835eb785a0605d51e2293431422f1
:104310001343eb70c7e7862040006043234f698852
:104320003b185a889c46c905244b090f1a40cb02fa
:104330001a4313041a2251430393431dc25b5b18b3
:1043400003991f480a436146097901901d48db190a
:1043500000902000fff74efa1e22eb7893430128cd
:1043600001d13343d5e71026fbe70c2565437f19c0
:1043700008377b880121db051b0f06d01e22fb7846
:1043800093431a001023a9e70321200002f056fbf3
:1043900089e70c25200002f059fd40226c433f19ab
:1043a000fb7a9343fb727ee708030020b4030020ee
:1043b000010004004565000068030020ff87ffff3f
:0843c0000c070808dd5600009f
:020000040000fa
:1043c800f0b50e2785b000236a46d4216f441373d5
:1043d80053733b7003aa01234901040002f09efeb7
:1043e8006b4601251b7b2b4254d00d222b006a44bf
:1043f8004549200002f092fe2b003a004349200074
:1044080002f08cfe6b460f265a7b3b786e441340b5
:10441800337032002b003c49200002f0f1fe327864
:104428003b4e2a4203d00c236343f3181d729307b3
:1044380004d50c2303216343f3181972530704d5d9
:104448000c2302216343f3181972130704d50c23b4
:1044580004226343f3181a720c252b006343f318e4
:104468001b7a042b02d0200001f01ef8654377590f
:10447800002f0ad075196968080c0a0ac3b2000a25
:104488000090d2b2c9b22000b8470c236343f61893
:10449800002333726b461b7b9b0732d50d220e26f9
:1044a80001236a441b4920006e4402f037fe0123b1
:1044b80032001949200002f031fe6b460f255a7b65
:1044c80033786d4413402b702a00012311492000d2
:1044d80002f096fe2b787f2b02d9200002f092fc86
:1044e80008222b7813420cd00c216143084b200082
:1044f8005b189b1899780a4310218a439a7003f035
:1045080075fb05b0f0bdc046811a0000861a000090
:0c45180068030020821a0000871a0000cf
:020000040000fa
:104524008222f0b5c7b05200002104000f2605a86e
:1045340003f02afc002320006e443370fff78efe44
:1045440003f02efb142363433b4dea18517c0029ee
:104554000fd018206043394909184978c9075cd538
:104564000a21595516239370142300226343eb1830
:104574005a7403f01ffb200002f084ff002304aaf6
:104584000093310005ab200000f044fa0a231842de
:1045940029d018226243294bd75c049bb9088c4666
:1045a400032160460840844624489b098218194028
:1045b4000c208c4535d951789b00814303400b4333
:1045c4005370200002f000fc142363430499eb1899
:1045d400da1dd9710b0a53700b0c93700b0ed37048
:1045e4002000fef73ffc142363431822ed186323d5
:1045f40062436b70114b9b185b783278db0714d5e0
:10460400049b05a92000fbf75bfd3278049b05a9f8
:104614002000fdf7bdff47b0f0bd1a2159554523d1
:10462400a1e751783b008143c8e7049b05a920001a
:10463400fdf74cfce9e7c04640030020800300205e
:020000040000fa
:10464400f0b585b001900292002901d0002805d16f
:10465400002083423bd0029a824238d00720384c53
:1046640065680540ac4609d0002902d00020ca077d
:104674002dd4002b02d00020da0728d40198451e3f
:10468400a841404201400298451ea84104254042e9
:104694000340a07b28401cd1268a354325829942b9
:1046a40000d2581a6546002d02d05b08490840081c
:1046b4000125a67b2e42fcd000252e008e420ad175
:1046c40000281dd10223a27b1a42fcd0012005b090
:1046d400f0bd208bdde76246771c002a0ad1019adf
:1046e400965d26833e00002b13d10122a77b17423f
:1046f400fbd0e3e7019a7600b65af605f60df0e72b
:104704006246002a03d1ff2222830138ebe70d4ad7
:10471400fae70422a77b1742fbd0278bbfb29d4246
:10472400ccd26a1c03926246002a03d1029a5755de
:10473400039dc3e7ff05029a6d00ff0daf52f7e733
:0847440000080042ff01000023
:020000040000fa
:10474c00f0b50e034d00430f6d0d760a1e436b1c26
:10475c005b05c90fc2005b0d012b52dd344bec180d
:10476c00fe2c5ddc002c27dc230017335bdb802365
:10477c001e271b041e433f1b1f2f0cdc2d4b100050
:10478c00ed18aa401300ae405a1e9341f840334333
:10479c000343002417e002204042041b3000e04099
:1047ac000024202f03d03400234bed18ac402243bf
:1047bc0013005a1e9341ebe78001431e9841520fa0
:1047cc000243f30013435a0704d00f221a40042a61
:1047dc0000d004335a0104d50134ff2c25d0174adc
:1047ec001340db08ff2c04d1002b02d08022d20313
:1047fc0013435b02e4b2e405580ac907204308439b
:10480c00f0bd13003343002d02d15a1e9341c0e773
:10481c00ff24002bd7d08023f6009b043343d2e730
:10482c000023ff24cfe70123b3e70023d9e7c046d9
:10483c0080fcffff82fcffffa2fcfffffffffffbe2
:020000040000fa
:10484c00f7b5537814781b021c439378d1781b046a
:10485c0023431b039b0d00933b2343434906490f02
:10486c005b18314e1b339b00f3185b68009f9c0553
:10487c00a40d0025a74253d8a94251d0ec27474399
:10488c00f619d73636788e424ad314274743274e2b
:10489c00f6190127b67b76093e4001960601b4460f
:1048ac00234e6644f6793e40019fbe43214fbc46e1
:1048bc00ae4237d0182646436644b688009fbe42a7
:1048cc006d412e00edb2012e2ad1182646431f0c45
:1048dc006644f3803781f1705178177809020f43e1
:1048ec009178d2780904394312060a437281120c6a
:1048fc00b281ec2670430c4e32213618320018036c
:10490c00b832800d1480484300f058fe3300fa2171
:10491c00b63318804900604300f0bafab4363080e0
:10492c002800febd0125d0e7c80000204003002070
:08493c0020030020800300208d
:020000040000fa
:10494400f7b5802636020d0001921f000e401cd1df
:1049540034004b045b0f9b002a0a3d707a700120df
:104964002a0403d50320be70360afe70019ac318c8
:10497400dbb2002a42d1030000212218d2b29342b2
:104984003fd101340019c0b2febd80240b0ce400f9
:104994009eb21c4027d10c2242431c4880184189f6
:1049a400827ac905d206090f120f91421fd1d80588
:1049b400c00d1a2100f0bafa002917d00320cbb297
:1049c400023108408910cab2002804d004240132fc
:1049d400241ae4b2d2b20e48120328402d0c02432a
:1049e4002d041543b8e702240023b5e70c001a236d
:1049f400b2e711780130c0b2395401329842f8d18b
:104a0400b9e70133dbb2f954b9e7c0460803002023
:044a1400ff8f000010
:020000040000fa
:104a1800f7b50e00170004001d00fef7a1fc6a465a
:104a2800d080d1888446002909d10c2262432a4bc0
:104a38009b189b7a9a0702d408001b071ed50222ee
:104a48006346134021d024226243244b9b185a7892
:104a580032705a883a60002d08d0002007279e1c23
:104a6800328812133a409200904208db089bcdb27c
:104a7800002b02d02900200098472800febd1a18f4
:104a880012792a54013080b2eae76046000716d549
:104a9800862040006043124a12181079307010685e
:104aa8003860971c002de1d03888c005c00d8342be
:104ab800dcdad0184079e85401339bb2f4e70c21d2
:104ac8006143054b5b18987a042108338507cdd5d7
:104ad800904398701021c9e768030020bc020020a9
:044ae800b4030020f3
:020000040000fa
:104aec00264a2749136a194002230b4313620823f1
:104afc00d1681942fcd0002322499361224b5960a2
:104b0c0022499960597849b20029fbdb8020918cad
:104b1c00814391841021d0680842fcd01c4908685c
:104b2c00800e3f2800d11f201a4980020968890590
:104b3c00890d014391628221c90159801649d162c4
:104b4c00164991844021d0680842fcd0144a5a601e
:104b5c005a7852b2002afbdb124a5a800a325a8027
:104b6c0001325a8002325a8003325a801f220e4b75
:104b7c005a61da610d4a1a627047c046000800405b
:104b8c000000ffcf01060100000c004001fa0000fc
:104b9c002460800028608000dc05140046020000c0
:104bac000007010003400000000400402401010044
:020000040000fa
:104bbc00f0b500242c4d85b0200002f0a9fb2b6829
:104bcc009b0634d500230a201a00190001f02cfb97
:104bdc000700264bc2009b18063301933022019b21
:104bec001b781340202b1fd003ae042332000e2160
:104bfc00200002f079fe3378022b2fd104233200ef
:104c0c001900200002f070fe32782b68242a21d182
:104c1c007278042a1ed1b278502a1bd1f278032a5a
:104c2c0018d1202213432b60380002f085fc01348c
:104c3c00e4b2ec35022cbfd120220d4bd9690a40cd
:104c4c0000d1da612022fc33d9680a4000d1da6045
:104c5c0005b0f0bd202293432b60bfe720232a68c8
:104c6c009a431300f8e7c046e4000020cc0500206e
:044c7c00c80000204c
:020000040000fa
:104c8000f7b5ec224243284b04009b18db699b06d6
:104c90003ed502f087ff6a46002301ad961dd71c62
:104ca0002b8033803b70214b1b5d022b31d00223c4
:104cb0002a001021200002f035fa2b88db040fd5e2
:104cc000022332001421200002f02cfa3388184a03
:104cd00014211340338032000223200002f094faa2
:104ce0002988144b194202d02000fdf7c5fa2b8801
:104cf000db0602d52000fff767fb2b889b0702d558
:104d0000200000f0b3fd0122084b1a5502f054ffb9
:104d1000f7bd01233a000e21200002f003fa3b7890
:104d2000022bf6d1c3e7c046c8000020b003002024
:084d3000ffefffff0106000088
:020000040000fa
:104d3800f7b52b4d0601aa199178d3780190745dc7
:104d480057784b40202b31d013d8022b0bd8002b8f
:104d580035d00123aa19d1790b43d371002c04d182
:104d68000027012401e0082bf3d0ac55ad196f7072
:104d7800f7bd402b1ad00ed8222bf6d80123aa193a
:104d8800d17901980b43d37102f058ff022c05d159
:104d980000270324e9e7482bf0d0e6e7012ce4d10b
:104da8000027019802f0d8fe3c00dee7022cdcd098
:104db8000124aa19d3790027a343d371d5e713791e
:104dc8008b42cbd00029c9d10121d37901988b43db
:104dd800d37102f033ff012ce2d0022cc5d1d7e702
:044de8002003002084
:020000040000fa
:104dec00f0b54d006d0dac4685b01d035e00db0fbc
:104dfc000193264b0c030290240bc90f03922d0b2d
:104e0c00760d9c4503d12700022307432dd11f4b60
:104e1c009e4203d12f000223174326d1002763465d
:104e2c00bb4203d1204347424741ffb2002e01d180
:104e3c002a431dd0002f1fd0019b013b01200343af
:104e4c0013e0b44501da4b1ef8e7ac4219d809d18e
:104e5c00029b039a934214d8029a03983b00824215
:104e6c00f1d302e03b00ac42edd3180005b0f0bd2d
:104e7c003300002ff9d104e0019b994201d1b445d4
:104e8c00dfdd012349420b43efe7c046ff0700007b
:104e9c00002941d010b4041c4c40a446012300222c
:104eac00002900d54942002800d5404288422cd325
:104ebc0001242407a14204d2814202d209011b0120
:104ecc00f8e7e400a14204d2814202d249005b001f
:104edc00f8e7884201d3401a1a434c08a04202d387
:104eec00001b5c0822438c08a04202d3001b9c08c8
:104efc002243cc08a04202d3001bdc08224300282a
:104f0c0003d01b0901d00909e3e7101c6446002cef
:104f1c0000d5404210bc704701b5002002f076ff6e
:104f2c0002bdc0460029f7d003b5fff7b3ff0ebc96
:084f3c004243891a1847c046e0
:020000040000fa
:104f44000123254a30b511780b43137053785bb2b3
:104f5400002bfbdb88239b019361dd231b06d361bc
:104f64001e4b022053610c23d3601d4b03255c1c94
:104f7400e0771c002c3425701c001021383421707b
:104f84001c00443421701c00503421701c005c341b
:104f940021701c00683421701c00743421701c00c2
:104fa400803421701c008c3421701c0098342170d2
:104fb4001c00a43419721975217019000e24b03123
:104fc4000c700f21bc331970137818431070537888
:104fd4005bb2002bfbdb30bd001800400cc00000ae
:044fe40000000020a9
:020000040000fa
:104fe800f7b5ec254543264c0191651929001300b6
:104ff8002a00e231e33206001278cc350978002b1a
:105008002bd1082302f01efb1e222b8893432b80f2
:10501800ec2373431a000025ea32a418184ad3185f
:1050280000930123ab40009a0199009f5218f03277
:105038001278cc371a40934216d1e27800232178af
:10504800300002f0fffa0222aa403b8813430135e0
:105058003b800134032de4d1f7bd002302f0f2fabe
:1050680010232a881343d2e7e278082321783000f6
:1050780002f0e8fa0222aa403b889343e7e7c046d9
:04508800c80000203c
:020000040000fa
:10508c00f7b51e035c00db0f0093244b0d034f00a0
:10509c0084462d0b7f0dc90f0192360b640d9f4278
:1050ac0002d12b0003432bd11c4b9c4202d1330069
:1050bc00134325d100239f4203d12843434243414c
:1050cc00dbb2002c01d132431dd0002b1fd0009835
:1050dc000138012103e0a74203da0120013908431a
:1050ec000de0b54218d807d1019a944514d8180090
:1050fc00019b9c45f1d302e01800b542edd3febdf7
:10510c0002204042fbe72000002bf8d104e0009a7b
:10511c00914201d1a742dedd4842dae7ff070000e9
:020000040000fa
:10512c0070b5060002f038fd234c35016219137a74
:10513c00d90708d55178012901d1032151700121da
:10514c0062198b43137263191a7a920723d5db7990
:10515c00da0611d5300002f073fb63191b7a9b073a
:10516c0019d5605d0a2811d802f08efd0d0d0d18b1
:10517c00201c1c1c1010200060221342edd03000ab
:10518c0000f0fef8e9e73000fff7d0fd02226419c9
:10519c00237a9343237202f009fd70bd0322631935
:1051ac005a70f3e7300000f01ffdefe7002263199f
:0c51bc005a706255eae7c046200300204c
:020000040000fa
:1051c800f0b517001600002585b000900291009aee
:1051d800ebb20193934205d310000138431c37d03a
:1051e800002232e0029aab00d45832232003800d0b
:1051f800584300f063fe1749fef7b6fd0a230390f3
:10520800a005800d584300f059fe1249fef7acfd89
:10521800011c0398fef7dcfb02f062f96b461b7970
:105228003070737001350236d1e75300fc18023331
:10523800fb18257819788d4205d821706678597839
:1052480061701d705e700132d2b28242eddbc4e73c
:0852580005b0f0bd00007a442e
:020000040000fa
:1052600070b54400240e631c4102dbb24d0ac60f28
:10527000012b16dde0239b00e418090b6d070023ca
:105280000903080b190d090501431848640501407d
:1052900064080c436400f6076408344328002100c6
:1052a00070bd002c17d12100002de8d0280001f09e
:1052b0001bff0a2809dc0b2329001b1ad940030015
:1052c00015339d400a4c241ad9e7030029000b3bf3
:1052d00099402500f6e7002d06d00c0b802109032c
:1052e0006d072143034ccae72900fbe7ffff0f804e
:0852f00089030000ff07000024
:020000040000fa
:1052f800f8b5040002f052fc142363431b4a1c490e
:10530800d2180c2320010918180060438b71194921
:10531800d37309180b72182161431374164a30208d
:1053280052189373d3730f260022144d144fd3b21f
:105338009c46d300eb189979014010290fd199792f
:1053480031408c420bd1395d614508d09979814350
:105358009971991c8c460021598063465980013205
:105368000c2ae4d102f024fcf8bdc046400300201a
:10537800200300200803002080030020cc05002023
:0453880005030020f9
:020000040000fa
:10538c00ec214143214a30b55218d269204b00011f
:10539c0052071cd01a18d1798c060bd59478002c96
:1053ac0008d1d5785479a54204d10421147a21432b
:1053bc0011721de04a061bd51a18d178002917d195
:1053cc00947851798c4213d1147a0821efe71a188a
:1053dc00d1798c0606d59478952c03d1d57854794f
:1053ec00a542e2d04a0603d51a18d1789529e7d000
:1053fc000c211b181a7a0a4206d06020d9798143f5
:10540c00d97102218a431a7230bdc046c8000020ef
:04541c002003002049
:020000040000fa
:10542000204a214b70b50021934203d219700133f9
:105430009342fbd1002503261c4803684168002bda
:1054400018d100292dd083680c30002b18d00023f0
:105450000022845c9c5401328a42fad333000b4010
:105460005a1e9341890859188900401803684168f9
:10547000002be6d082680c30002a07d10029dcd04e
:1054800059181d7001338b42fbd1d6e70029dfd1bb
:1054900033000b405a1e934189085918890040185f
:1054a000e4e770bd2c06002000000020a069000089
:020000040000fa
:1054b00070b52049040002f026fc70231840102823
:1054c00011d020281cd000280cd10c2007214443e7
:1054d00019480019427a53075b0f01330b408a4386
:1054e0001343437270bd0c20072144431248001936
:1054f000427a93065b0f01330b40db003821eee765
:105500000c2003223f2560430b4b181883680100d1
:10551000db035b0f01331a409401427a9b082a4057
:105520002243427201208a7a0340824313438b72e2
:0c553000d8e7c046041a00006803002001
:020000040000fa
:10553c00f8b504000f00002101f00af91e4d2601f8
:10554c00ab19012f1ed122221a71202206215a7169
:10555c00da798a43110004220a43da71022201210a
:10556c00200001f01ff90c22ad192b7a1340082be7
:10557c0013d12021200001f0ebf80121200000f0d4
:10558c002df9f8bd48221a7140225a710622d97998
:10559c0091430a43da710322e1e7042b05d1402140
:1055ac00200001f0d5f80221e8e76021200001f08d
:0c55bc00cff80321e2e7c04620030020e6
:020000040000fa
:1055c800002934d00123002210b488422cd30124ae
:1055d8002407a14204d2814202d209011b01f8e743
:1055e800e400a14204d2814202d249005b00f8e7fc
:1055f800884201d3401a1a434c08a04202d3001b28
:105608005c0822438c08a04202d3001b9c0822435a
:10561800cc08a04202d3001bdc082243002803d098
:105628001b0901d00909e3e7101c10bc704701b53c
:10563800002002f0edfb02bd0029f8d003b5fff70a
:0c564800c1ff0ebc4243891a1847c0463f
:020000040000fa
:105654006022f8b51c4d0301ed18eb79182693432d
:10566400eb7114230c22ec214343184f4643fb18df
:10567400da734143164b04009e19164bb2785b183b
:10568400e1331b7893421ad2002101f09ffd2000e0
:10569400fff730fe00212000fef748fc7378052652
:1056a400db0703d50021200000f0feff14235c4338
:1056b4002a233b5563233f196e70bb70f8bd01323a
:1056c400b27001f043fef9e72003002040030020fc
:0856d40080030020c800002043
:020000040000fa
:1056dc00f7b50c2444431d4b1b19197a01292ed103
:1056ec001b4b1c1925006389a27adb05d2061b0f04
:1056fc000835120f9a4225d00f2601333340072666
:10570c001e4076010196a67a020037001f2637400c
:10571c003e00019f1a203e43a672de08e37a8b43bb
:10572c003343e3720b49092300f07efd1e222072e5
:10573c00eb7893431a000e231343eb70f7bd8b1ecb
:10574c00012bfbd801f074f9f8e7c0466803002080
:08575c00080300202978000079
:020000040000fa
:10576400ec23434370b51e4d0400eb181a00e232db
:105774001178ff2903d0e3331a7802f06bfaec2393
:105784006343eb181a00e6321178ff2904d0e7339b
:105794001a78200002f05efaec236343eb181a0037
:1057a400e8321178ff2904d0e9331a78200002f096
:1057b40051faec2363431e00ed33ea36ae19ed18bb
:1057c4003178ff2903d0f278200002f043fa013641
:1057d400ae42f5d10121200001f0d6fa70bdc046d9
:0457e400c8000020d9
:020000040000fa
:1057e800f8b5012604000f00314214d00501164b0c
:1057f8000435ed182a003300144902f067f8330025
:105808002a001349200002f061f833002a001149e8
:10581800200002f05bf8bb0715d50b4b25010435ba
:10582800ed182a0001230c49200002f04ff801234b
:105838002a000a49200002f049f801232a000849f1
:10584800200002f043f8f8bd200300201a080000e9
:10585800120800001d0800001b08000013080000c3
:045868001e08000016
:020000040000fa
:10586c000023f0b585b003ad2b802a000223222142
:10587c00040001f051fcec226243184b01279b18e9
:10588c00e433197801932b88cb403b421ed002abfa
:10589c009e1d30313b003200200001f03dfc3022d7
:1058ac003388200093433380019b19783b0089187f
:1058bc00320001f0a3fc18226243094b9b181a7d9d
:1058cc00002a03d10422d97c0a43da7402232a0069
:1058dc002221200001f092fc05b0f0bdc800002090
:0458ec008003002015
:020000040000fa
:1058f000ec23434370b51e4d0400ed182b0001222c
:10590000e23354211e7802f0ecf9200000226821d5
:1059100002f0f0f920007122c02102f0e2f9e43532
:1059200020009122c12102f0dcf92a780125b5403e
:105930002000adb2c22102f0d4f92a0020006a2171
:1059400002f0d8f92a002000d02102f0d3f92a0071
:105950002000d22102f0cef92a002000d42102f04a
