:020000040000fa
:10000000f01f0020ed680000bb7b0000837d000036
:1000100000000000000000000000000000000000e0
:10002000000000000000000000000000836f0000de
:100030000000000000000000836f0000836f0000dc
:10004000836f0000836f0000836f0000836f0000e8
:1000500051700000836f0000836f0000836f000009
:10006000836f0000836f0000836f000000000000ba
:1000700000000000097b0000836f0000836f000018
:10008000836f0000836f0000836f0000000000009a
:1000900000000000836f0000836f0000836f00008a
:0400a000836f00006a
:020000040000fa
:1000a400f8b5c046f8bc08bc9e467047ed7e00001b
:1000b400cd650000f8b5c046f8bc08bc9e46704744
:0400c400a56500002e
:020000040000fa
:1000c800f0b500250d2691b0040002910592290093
:1000d80003931c2204ab09a81d7308950f2705f08c
:1000e80007fc04ab0e22f6180b2304a952187f183c
:1000f80020003100337013703d7007f06ffe390037
:10010800200007f043ff18236343c04f0493fd18f2
:10011800662336782b71002e0bd1eb78002b08d094
:10012800200005f0bffc0c23eb71049bee706e7190
:10013800de55182633006343fb18d87811281ad8df
:1001480007f088ff12003b014e00a600ba00270105
:1001580019000f0180027c019d01b60119001900e8
:10016800cc02e202140330036643bf197b79002beb
:1001780003d0012b18d011b0f0bd03227b70bb79de
:1001880020009343bb7107f0fff90c22a04b20001d
:100198009e19737893431a0008231343737006f06b
:1001a800d3ff01237b71e6e70d2304aa9b181b7874
:1001b800022be0d10e2204a952181278042adad1af
:1001c8000b3252181278002a01d1fb70eae70f238c
:1001d8008f4cfb701e337b71a619ff33b380cae7bf
:1001e80032006243be187379042b4cd0052b39d0ea
:1001f800022bc0d1ba5c022a0dd9b279d1060ad530
:100208001a4205d000220921200007f073ffb2e747
:100218000623f370afe709aa07a9200006f00cfd32
:1002280004ab1a7b01210023200007f03df91823b5
:100238001a006243ba189279920711d4754d634334
:10024800ff187b7801337b7003237b7109ab002196
:10025800714a019500920200200003f005fe8ae72a
:100268006e4dece70023bb54b2797370033373719e
:10027800013b1343b3712200042369491a2006f095
:100288004bfaf07177e70923f3700b33737172e758
:100298006b4620009989029a05f09ef918235c4361
:1002a8003c19012803d1143be370073302e007230c
:1002b800e370023363715ee76643be1970790b38e9
:1002c800042800d957e707f0bbfe05002f0056ffaa
:1002d80013001f00002303211a00200007f0e4f890
:1002e80018236343ff180d234e4d7b710023aee79f
:1002f8000f2322004c491c2006f00efa18235c43f9
:100308003c19e0710b3bd5e7200006f0fdfe1e20ee
:10031800002322004549ff3006f0fef918235c430c
:100328003c19e0710c3bc5e7182532266543384b6c
:1003380020005b199b681b039b0d5e4307f098f830
:10034800864200d017e7200007f0acfc0023062106
:100358001a00200007f0a8f80d237f197b71344d8f
:10036800c4e76643be197379092b00d003e7b37954
:10037800db070cd42f4d002304211a00200007f0be
:1003880093f818236343ff180a237b71aee72a4dbd
:10039800f1e76643bf197b79102b00d0ebe6ba79f9
:1003a8000f3b1343bb71112320007b7107f030fb17
:1003b8000021200006f0eefadde66643bd196b79f0
:1003c800062b13d0082b00d0d5e66b78322b07d834
:1003d800bb5d022b14d91222ab791340102b0fd11d
:1003e80018235c43123b3c19e370c4e6082322003f
:1003f8000d49962006f090f90723e8716b71bae66b
:1004080018235c43163b3c19e37053e75401002062
:100418009c01002002050106d17000000205082792
:1004280025770000040e09146d7f0000ed780000a8
:10043800051009140c000827051008276643bd1984
:100448006b79142b06d0162b00d094e60b23eb7097
:100458000f33d3e7200007f025fc002320001a0003
:10046800190005f0a7febb5d22000133bb55d84932
:1004780016231c2006f050f91523e871bee7330057
:100488006343ff187b79172b06d0192b00d072e62f
:100498000b23fb700f3385e6200007f003fc1923bc
:1004a8002200cb491c2006f037f97e71f87162e60c
:1004b8006643be1970791a38082800d95be607f038
:1004c800bffd0900220037005afe4d00510073009d
:1004d800a700b500200007f08dfc002803d00021fc
:1004e800200007f00ffe2000002106f027fa002365
:1004f8002200b849b84806f00ff918235c433c19a4
:10050800e0710333d6e6200006f0b2ff051e00d0e6
:1005180031e6200007f0c6fb2b002200af4923205c
:1005280006f0faf818235c433c19e0710433c1e67d
:10053800200007f05ffc002800d01ce6200007f030
:10054800b1fbc8201e232200a149800006f0e4f870
:1005580018235c433c19e0710533abe618235c4370
:100568003c19a2e60f2304aa9b181b78002b0ad07b
:10057800182262439a4b9b181b7d002b03d0012144
:10058800200007f0bffd2000012106f0d7f9142054
:10059800002322008f49ff3006f0bef818235c4381
:1005a8003c19e071083385e6200006f061ff8d4ba9
:1005b8000600984200d0dee5200007f073fb20001b
:1005c80006f0c0fe18230a2563430293029a844b5f
:1005d80031009b189a8803936a43012392b2200042
:1005e80003f036fb0f2304aa9b181a781823002a55
:1005f80018d0039a127d002a14d0002322007a49c9
:10060800280006f089f8029bff18f8712123c9e534
:10061800200007f0effb002800d1ace5200007f030
:1006280041fb18235c4322233c1943e600232200a4
:100638006e496f4806f070f818235c433c19207225
:100648000023e1e66643be1970792738052800d9ea
:1006580091e507f0f5fc06001a0090fd90fd3c00be
:100668003000200007f01efb0021200007f09efd4f
:1006780000230d211a00200006f016ff18236343fb
:10068800ff182a235b4d7b7130e6200007f00afb38
:100698000121200007f08afd00230d211a00200007
:1006a80007f0f2f918236343ff182a237b7100230c
:1006b800504d0121cce52b23220045491a2006f094
:1006c8002bf818235c433c19e0711233f2e5182328
:1006d8005c430f3b3c19e3700b33ebe56643bf19f2
:1006e8007b79252b00d046e5200007f0dbfa2000b7
:1006f80007f088fc002303211a00200006f0d4fe2e
:1007080026233d4d7b71f1e56643bd196b792f2b8f
:1007180020d0302b27d02d2b00d02ce5304b9e1924
:1007280073781b079b0f012b12d1344b08930122be
:1007380000230f21200007f0a7f918236343ff18af
:10074800bb782f4d0133bb702e237b7108abb0e70c
:100758002c4bebe7302322002b491c2005f0dcff53
:100768002e23e8714ae61123eb7004e56b4620005e
:100778009a890599029b06f0fffa18235c43012821
:100788000dd10c21164b1b195a783c198a431100bc
:1007980008220a435a700023a370023334e63c1936
:1007a800112321e66643bf190d4cbb780c22a6190c
:1007b800142b2bd9737893431a00082313437370af
:1007c8002023ba791343bb710023bb700233fce4c6
:1007d8006d7f0000ed7800008a020000697a000051
:1007e8009c0100208813000049610000917c0000f2
:1007f8007c150000082c091402020914018000ff6e
:100808000f2f110001a000ff257700007378934394
:100818001a000423134373700f23fb701e33c1e4c3
:020000040000fa
:10082800f0b557464546de464e46e0b54c000e0349
:1008380087b0834692461d008046360b640dcf0f65
:10084800002c4fd06f4b9c4235d08023420f1b04a5
:10085800f600134333439946c30098466a4b002673
:100868009c460023644403932b031b0b9b466b009d
:10087800ed0f50465b0d01955ed0624a934253d00e
:100888005a46d1008022400f120402430a4393467d
:100898005246d1005c4a94460022634438006840be
:1008a80084460290e41a16430f2e00d9b4e0574b41
:1008b800b6009b599f460300334399466cd10023e9
:1008c8009846023308260393cee7cb464146039a5f
:1008d8000197022a65d1019b4a4c9c4600230022bd
:1008e80098466be00300334399464ed0002e00d162
:1008f800bce1300006f09efd03000b3b1c2b00dd25
:10090800ace11d22d31a5a460100da4008398e405c
:100918001300334399465b468b40984600233c4c72
:100928000026241a03939fe751465a46114329d1ba
:10093800002293460232b1e7594601431ed05b4676
:10094800002b00d19ee1584606f074fd03000b3bd6
:100958001c2b00dd8fe102005946083a91408b4676
:100968001d21cb1a5146d9400b0059460b4351461d
:100978009b469140264b00221b1a8fe70023012239
:100988009b468be75146032288e7002398460133ac
:1009980004260024039367e70323b14603930c2638
:1009a80062e7032a00d15ce2019b012a00d0e4e15e
:1009b80013409c460023002400229846002112037d
:1009c800130b0a0d12051a432305124c4046224008
:1009d800134362465b00d2075b081343190007b054
:1009e8003cbc90469946a246ab46f0bd0023802207
:1009f8009c4612039846034ce0e70023014c002272
:100a08009846dbe7ff07000001fcffff907200003b
:100a18000dfcffffffff0f80d94500d939e100d158
:100a280034e1002346464d469a46013c5b460a0e91
:100a38001b021a430b02170c039313041b0c3900f7
:100a480028009046019304f053f80200019b834666
:100a58005a4328003900914604f0d0f8350c0904af
:100a68000d43a9450dd95b464544013ba84500d92e
:100a78003ae1a94500d837e102235b429c46454448
:100a8800e3444b46eb1a39001800049304f030f89d
:100a9800019b0500434339000498994604f0aef8d9
:100aa800330409041b0c0b43994509d943446a1eb6
:100ab800984500d91ae1994500d817e1023d434409
:100ac8004a469b1a5a4612042a4303999346100c25
:100ad8000a0c914609045a46090c4e460d001204a8
:100ae800120c4543059151437243704352190e0c41
:100af800b218954203d980256d02ac466044150ca6
:100b080009041204090c28185218834200d2cee0b6
:100b180000d1c8e01d1a53469e1ab245924152426e
:100b2800ab1a9a46984500d117e13900180003f02e
:100b3800dfff019b0500434339005046049304f04e
:100b48005df804980b04310c1943884209d94144d3
:100b58006b1e884500d907e1884200d804e1023db0
:100b68004144049bcb1a18003900049303f0c0ffda
:100b7800019b8246434339000498019304f03ef8f0
:100b880001980b043104090c194388420dd95346c6
:100b98004144013b884500d9e8e0884200d8e5e0b7
:100ba80002235b429c464144e244019b2d04ce1a39
:100bb80051462943059d4f462a000b04080c1b0c7f
:100bc8005a4345437b4378435b19170cfb189d42f6
:100bd80003d980256d02ac4660441d0c12041b0429
:100be800120c28189b18864200d293e000d18ee0a0
:100bf80001231943a04be318002b00dc99e04a07b6
:100c080000d09ee05a46d20106d55a469b4b1a4060
:100c180080239346db00e318994a934268dd012359
:100c2800029a984c1a400023944698460022c5e63a
:100c380080224b46120313420ad05b46134206d168
:100c48001a431203120bac4688468e4cb6e64b4646
:100c58001a431203120bbc468a4cafe603005a46ed
:100c6800283b9a4000239146984657e6584606f096
:100c7800e1fb203040e603005246283b9a40002121
:100c8800934677e606f0d6fb20305fe6884500d22b
:100c9800c7e64b46de075d0843465b081e434346ee
:100ca800db079a46c2e60025924500d333e7039e48
:100cb8005946b446e244b245ad416d424544eb184d
:100cc8000139984507d2984200d97fe000d1bce0ad
:100cd8001d1a8b461fe79845fad1039d5545f2d951
:100ce80043468b461d1a16e79b46cae61500e7e6fb
:100cf8005a46c90852070a435b0590465c0d5a4696
:100d08000123029952021940120b8c4656e6002b19
:100d180000d16fe746444a1eb04529d911008642e2
:100d280000d065e7039a934200d061e762e70121aa
:100d380049420120c21a382a21dd029b03409c4601
:100d480038e60f220a40042a00d15be70a00111d89
:100d5800914292415242934454e7474be318002b87
:100d6800e5dd01225242f2e71d00fae69a461ce749
:100d7800b04239d86ed011003ae702933ae71f2af9
:100d88003cdc20239b1a0c005846994098404b1e87
:100d980099415b46d440d340204308431a00430797
:100da80009d00f230340042b05d00100081d8842f9
:100db8009b415b42d21813023ad50123029a0124bf
:100dc8001a400023944698460022f7e5022149423a
:100dd8008c46039de344ac46e244aa45ad416d42ce
:100de8004544ed182d1a96e68a1e03994d008d424a
:100df800894149424144761803958fe71f204042b4
:100e0800c31a5846d8400300202a28d040205d46ff
:100e1800821a954029434a1e91411943072300220b
:100e28000b4009d00f2300220b400800042bbdd132
:100e3800010053075202120bc908194301238846bf
:100e48000299002419408c46b8e55245bed88b4615
:100e5800002560e6039d9d42c6d3110062e7002588
:100e6800d8e780225b4612031a43019b1203120b38
:100e78009c468846034ca1e5ff030000fffffffee8
:100e8800fe070000ff070000f0b54646d6464f466d
:100e98000c03c0b5cd0f4e00610a440f0c43c100ce
:100ea8005800400d84468a460f001903500f490a1e
:100eb8000143c648760da846db0fd200844500d111
:100ec800d8e001204340ab4200d1a6e06046351a85
:100ed800002d00dc05e1002810d10b00134300d1e0
:100ee800d7e06b1e002b00d04be153469f1aba4542
:100ef8008041641a4042241a01261ee0b34b9e42e8
:100f080048d080231b041943382d00dd19e11f2d1b
:100f180000dd4ce120230f005b1b10009a409f402e
:100f2800e840531e9a41e940074317435346df1be5
:100f3800611aba45a44164420c1b230200d4c5e0df
:100f48006402650a002d00d1f6e0280006f072fa66
:100f58000300083b1f2b00dde9e020223c00d21ae9
:100f68009d40d4409f4025439e4200dddbe09e1b10
:100f7800731c1f2b00dd0ae120223800d21a290039
:100f880097402c009140d8407a1e9741dc400026bb
:100f980001430f437b0709d00f233b40042b05d0a7
:100fa8003b1dbb42bf417f42e4191f00230225d5e8
:100fb800864b01369e4200d1afe0854b01251c408f
:100fc80043466207ff08640276051743240b760d33
:100fd8001d4000212403230b0c0d7e4a24051c43cd
:100fe8001440330523435b00ed075b082b433800af
:100ff80019001cbc90469946a246f0bd01254346ff
:101008006207ff081743e4081d40704b9e4236d024
:1010180024037605240b760ddbe76346f31a002bd1
:1010280000dc94e06046002835d068488642b1d09c
:1010380080273f043943382b00dcfde00a431700c2
:1010480000217a1e97415744574580410919444267
:101058000c1923023ad55d4b01369e4200d14be173
:1010680001225b4b1c407b0817401f43e2071743d4
:1010780064088fe70800104300d024e721e7230025
:101088003b4300d1b9e18022120314432403240b0b
:101098009fe72e007ee70800104300d1cae0581ee3
:1010a8008446002800d0e7e0524452458041641845
:1010b8004042241817000126230207d50226cfe74d
:1010c80064462c4300d1b3e12c0067467b0700d06f
:1010d80062e76307ff081f4301254346e4081d40f4
:1010e80093e7002d78d1751c6d056d0d012d00dc81
:1010f800f2e05046801a8245bf41651a7f42ed1bd7
:101108008446280200d48ce05046171aba4292410d
:101118000c1b5542651b984614e7012543460024dd
:101128001d40002755e72a4cf61a2c4032e73d00af
:1011380028388540002717e7380006f07bf920306b
:1011480006e70a43170000217a1e9741eee6002bb6
:1011580000d0e5e0731c9c465b055b0d012b00dcb1
:101168009fe01a4b9c4500d1c5e05244524580414e
:10117800641840422418e707520817436408664673
:1011880008e71248854200d185e01d00bce6290029
:101198001f3ef140202b00d17fe04022d31a9d4012
:1011a8002f437d1eaf4100240f4300268ee72b00fe
:1011b8000f00203bdf40202d71d040235d1ba9404c
:1011c8000a43511e8a4100211743afe6ff0700007a
:1011d800ffff7fffffff0f80002e3ed0b34eb445c8
:1011e80045d0802636046d423443382d00dda8e012
:1011f8001f2d00dd1fe1202627005046761bb74033
:10120800e84007435046b040461eb041ec403843e2
:10121800171aba4292410c1b5242a41a66469846c3
:101228008be6644667462c4300d08be600250026f3
:101238000027eae61e00ade61f2b60dc2027f81a1f
:101248000f00844687401000d8400743604682401c
:10125800501e8241d9401743f5e626005046064302
:1012680005d0ed43002dd3d0904eb445bdd10c0030
:101278001700664698468de68c4883420bd0634635
:10128800d9e6002d00d096e00800104300d1e2e036
:101298000c0017009846854e7ce6002580e7002163
:1012a8008ee7230050460343002e00d0a8e0002b11
:1012b80000d1dee00b00134300d16be652445245e7
:1012c80080416418404224181700230200d4fde628
:1012d800774b66461c405de6250050460543002ec8
:1012e800cfd1002d4fd10c00144300d1a0e00c0049
:1012f800170098464ee666460024002785e61f003c
:101308000800203ff8400700202b00d18ee0402045
:10131800c31a99400a43511e8a410021174392e695
:10132800002e14d126005046064362d0db43002b22
:101338005cd187189742924164185242a4186646b5
:1013480087e650462043441ea041002460e7574edc
:10135800b4454ed0802636045b423443382b00dd3a
:101368007fe01f2b00dd8be0202627005046f61a71
:10137800b740d84007435046b040461eb0410743e7
:10138800dc40bf18d6e70d00154300d102e65046f1
:10139800801a8245bf41651a7f42ed1b84462802a8
:1013a80000d48de65046171aba4292410c1b52429d
:1013b800a41a9846eee50d00154300d16be7504698
:1013c8006707c00807438020e4080003044207d0e9
:1013d800cd08054204d12c009846d70849070f4389
:1013e8007b0fe4001c43ff00304ed3e52f4eb4457d
:1013f800b4d10c0017006646cce500270024e8e5c8
:10140800002b39d00b00134300d144e7c00867070d
:1014180007438020e40800030442e1d0cb080342dc
:10142800ded1d70849070f431c00d9e7002171e72f
:1014380000250027e9e52e002700203ef740202d53
:101448002fd04026751bac4050462043441ea04177
:1014580000243843dce6802400252403134e0027ab
:10146800d3e5504620430700781e87410024bf1863
:1014780060e70c0017008de50c0017000b4e89e59e
:101488001e002700203ef740202b0cd04026f31ae0
:101498009c4050462043441ea04107430024bf18e7
:1014a80048e70024d0e70024f3e7c046ff07000020
:0414b800ffff7fffb4
:020000040000fa
:1014bc00f0b5050085b004f033f906f033fdbd4ef0
:1014cc002c0133199a780292da781b7a03920193e1
:1014dc0006f032fda05d092852d806f0b9fd0a00cd
:1014ec0053007700e40051002901500181015100a3
:1014fc00fe0134196778012f00d1a8e0002f0cd021
:10150c00032f3dd1ac49280006f0c7fd011e37d191
:10151c006070280006f016fb32e00121280004f070
:10152c0003f83900280005f0d9ff24236b43a34aa4
:10153c00a3499b580322db081a40019218226a43e4
:10154c00a04b28009b180a229b885a433b0092b25e
:10155c0002f07cfb3900280005f0e4fb0322e37960
:10156c005b081340019a934202d0280005f098fcc6
:10157c002800602105f0d6fb01232d0175196b7035
:10158c0005b0f0bd37197a78002a11d0022af7d1ac
:10159c007023019919400b1ef2d1029903988142d4
:1015ac0011d13b798b420cd10a2333550021b0e782
:1015bc0002232a009620844905f0acf80123b87167
:1015cc0095e00423f1e732557b70efe73319587837
:1015dc000328d5d806f028fd02283d480121280013
:1015ec0005f0aaf9142000232a007849ff3005f0f1
:1015fc0091f833199871029a5b7993420ed11022ab
:10160c007349280006f098f901213319db790b4254
:10161c0002d0280002f0b4ff34199ee010226c496d
:10162c00280006f073f9efe77023019a1a40102a8c
:10163c00a6d12800341906f03bfce379db0711d561
:10164c0000232a0063490a2005f064f8a0710223e4
:10165c0027e00c23019a1a4200d191e7280006f0ea
:10166c0027fc341903231ce033195b79029a0221fd
:10167c00934200d00321280003f056ff01212800db
:10168c0005f02cff18226a434e4b4d499b180a2239
:10169c009b8828005a43012392b202f0d7fa042304
:1016ac00341963706ce737197b78012b21d0002b30
:1016bc0012d0032b00d063e77023019a1a400192d9
:1016cc0000d05de7280006f0f3fb6b461b797b70be
:1016dc006b461b79335553e7280004f0e1f90123dd
:1016ec002a0039490a2005f015f80223b8717b70dd
:1016fc0046e70021280005f01ff900232a00334992
:10170c00354805f007f80c23019ab8711a4203d139
:10171c00fa7954331a4209d00021280002f030ff24
:10172c0060223419e3799343e37190e70323dee7f6
:10173c0034196178012912d0002902d0022991d0e4
:10174c001ee718226a431f4b28009b18998005f04e
:10175c00c5fe0121280003f0e7fe0123a1e7702359
:10176c00019a1a40131e00d00ae718216943154a42
:10177c00280052189288124902f068fa67e7371964
:10178c007b78022b06d0032b09d0002b00d0f7e678
:10179c0003330ee705232a0010490a200ce77023b7
:1017ac00019a1a40102a00d0eae600237b70073316
:1017bc0090e7c0463401002008080000a008002073
:1017cc00881300009c01002021800000ed780000af
:1017dc00210800008d6300008a020000a57e000035
:1017ec0033195878042800d9cae606f027fc0500fe
:1017fc00c9fe4600530071003319da79724f520753
:10180c00920f1823022a28d0032a2ad0012a03d1a6
:10181c006b435932fb189a80029b039a934225d949
:10182c006a491022280006f087f802213419012693
:10183c00280003f079fe31002800667005f04efe9a
:10184c0018230a226b43ff18bb8861495a432800ae
:10185c0092b2330002f0faf992e66b439622fb182f
:10186c00d9e796226b435200fb18d4e75749102254
:10187c00280006f04bf80321d8e7280004f010f9f3
:10188c0003232a0053490a2004f044ff3419a071a1
:10189c00052306e77023019a1a4203d00121280080
:1018ac0006f050f90c23019a1a4204d16022331924
:1018bc00d979114209d00021280002f061fe602282
:1018cc003419e3799343e371e2e704225a7057e643
:1018dc000523335534190023e3e6331958780428cb
:1018ec0000d94de606f0aafb0500320039004cfe8b
:1018fc004c000021280005f0f1fd0021280005f026
:10190c0011fa24236b43344a9f5807231f40012f9d
:10191c0019d10021280005f00ff800223900280009
:10192c0005f0e2f80c23019a1a4205d13319da7941
:10193c0060231a4200d16fe660213219d3798b43b0
:10194c00d371002165e603220021e8e70c23019afc
:10195c0034191a4200d17ae612e67021019b0b4031
:10196c00191e00d00ce6280005f02cfcfa200423ec
:10197c002a001849400004f0cdfe3419a07171e61c
:10198c00242307216b43144a9a581140012911d181
:10199c00d206920f280005f0a7f80023335534190e
:1019ac0028006370602105f0bdf90121280005f0c5
:1019bc0009fce5e501220021280005f095f8052336
:1019cc00335534190023ebe79c010020210800005b
:0c19dc008813000021800000a0080020fb
:020000040000fa
:1019e800f0b557464546de464e46e0b50c039846e8
:1019f8004e00230b87b0070092469b46760dcd0f0d
:101a0800002e6bd06d4b9e4235d080245b46420f32
:101a18002404db0014431c43c3009946684ba346c7
:101a28009c46002300276644029343461c035a0041
:101a3800db0f5046240b520d984600d176e05f4be1
:101a48009a426dd08023410f1b040b435c49e4008c
:101a58008c461c43c300002062444146b6186940c6
:101a6800721c0191944607430f2f00d9b0e0554ae4
:101a7800bf00d25997465b460343994600d087e09a
:101a880000239b46023308270293cee74246019281
:101a9800022867d0032800d10ee2012800d062e1b5
:101aa800002300240022994601990140cdb200216b
:101ab80012030b0d120b1b051343434a2405134055
:101ac8001c436400ed0764082c434846210007b016
:101ad8003cbc90469946a246ab46f0bd03439946a6
:101ae8004fd05b46002b00d189e1584605f0a2fc97
:101af80003000b3b1c2b00dd7ae11d22d31a3a00b0
:101b080001005c46da4008398c4013008f402343bb
:101b18009b46b94600232d4e0027361a029384e7c8
:101b2800534623432ad10024022096e753462343f1
:101b380020d0002c00d157e1200005f07bfc0300e9
:101b48000b3b1c2b00dd49e11d21cb1a514602003d
:101b5800d9405346083a944093400c431b4a121a02
:101b680000207ae70125019b144c1d400023002228
:101b780099469ce70024002201206ee75346032083
:101b88006be700239b4601330427002602934ce7aa
:101b9800032381460c27029347e780220023002570
:101ba80012039946054c82e75c464b4602986fe75c
:101bb8005c464b46019502986ae7c046ff0700005d
:101bc80001fcffffd0720000ffff0f800dfcffff3c
:101bd8004a464946170c1a0c1b041b0c080419002a
:101be800000c41431500884619007d43794303954d
:101bf80089462900150045434d44029545462d0c5c
:101c0800aa46029d5544a94506d98a46802149021b
:101c18008946ca4451460391290c04914146090456
:101c28002d04090c88462900250c24044144240c61
:101c38000591210041438846210079438a4668433b
:101c4800414650448146080c48446f43824503d9b5
:101c58008021490289464f44010c8946390049448c
:101c6800029141460f0404993f0c88460004c019ac
:101c780080444146049159460f0c0904090c8846d2
:101c880059438a4639005143894641464a43514699
:101c9800090c8b467b43d2185a44934203d98023bc
:101ca8005b029b46d94451460904090c8a464146c1
:101cb80061437c43130c12044b445244a1468a46a8
:101cc8003c0041466c434d4351464d440f0c7d1931
:101cd800a94503d98021490288464444049f0399b1
:101ce800b84641448b468345804141428846514627
:101cf80008042f04000c3f1858460299101889460a
:101d0800904292414f44ba46524299469346c24441
:101d1800d144cb448f42bf41c245894199459b413b
:101d2800934592417f4249422d0c52420f435b42f8
:101d380013437f19ff185b463c19db0d059a6402b3
:101d48001c43430213435d1eab415a46c00d034377
:101d580052021343e20156d501205a0803401343a7
:101d6800e207134364085a48604400284ddd5a07c7
:101d780009d00f221a40042a05d01a1d9a429b4105
:101d88005b42e4181300e20104d58020514ac000e8
:101d980014406044504a904200dde3e60125db0828
:101da80062071a436402019b9146220b4405640da5
:101db8001d407ce6802259461203114208d0144285
:101dc80006d122431203120b45469946434c6ee650
:101dd8005b461a431203120b404c68e60300544654
:101de800283b9c400023b9e605f024fb2030a6e6fa
:101df8000300283b9f400023bb4699468ae605f02e
:101e080019fb203074e6b446ade701252a1a382ab2
:101e180006dd019b00241d4000230022994646e66a
:101e28001f2a21dc20252000ad1a1e00ab40a84047
:101e3800d6405d1eab4130431843d440430709d018
:101e48000f230340042b05d00300181d98429b4123
:101e58005b42e418230221d50125019b01241d4082
:101e680000230022994622e61f2521006d42281ae8
:101e7800c1400800202a1dd05f35aa1a9440234388
:101e88005c1ea341072503431d400022002d09d0f5
:101e98000f2200241a401800042ad6d1030065072f
:101ea8006402220bdb082b4301259946019b002481
:101eb8001d40fce50024e2e78022012512032243ad
:101ec80001991203120b0d409946044cefe5c046e8
:101ed800ff030000fffffffefe070000ff070000f2
:020000040000fa
:101ee800e80800201c00000000000000000000209e
:101ef800c000000000000000c00000200800000032
:101f0800000000007404002004000000000000002d
:101f1800a00800204800000001000000390000006f
:101f28002c9101082cd102002cb104002c41060090
:101f38000000000000000000000000000400000095
:101f4800390000002c9101082cd102002cb10400aa
:101f58002c41060000000000000000000000000006
:101f680004000000c8000020ac03000000000000ce
:101f78007804002028040000010000000000000090
:101f880064070020cc07002034080020000000006f
:101f98000000000000000000000000000000000039
:101fa8000000000000000000000000000000000029
:101fb8000000000000000000000000000000000019
:101fc8000000000000000000000000000000000009
:101fd80000000000000000000000000000000000f9
:101fe80000000000000000000000000000000000e9
:101ff80000000000000000000000000000000000d9
:1020080000000000000000000000000000000000c8
:1020180000000000000000000000000000000000b8
:102028000000000001000000000000000e33cdabee
:1020380034126de6ecde05000b0000000000000025
:102048000000000000000000000000000000000088
:102058000000000000000000000000000000000078
:102068000000000000000000000000000000000068
:102078000000000000000000000000000000000058
:1023a800000000000000000000000000222222229d
:020000040000fa
:1023b800f0b509278db0039302abff180b230a244d
:1023c8003b7002abe4180500ff2302911c22002198
:1023d80005a8237003f08cfa22003900280005f0c4
:1023e800fdfc3b78bc4e053b012b0ad818236b43f8
:1023f800f118ca78123a012a03d90022f25412239a
:10240800cb70182423006b43f318d87812380b28a4
:1024180035d805f01ffe0c00190036005300710076
:102428009a00b000be00d90032014a017301182495
:10243800280005f0a9f8412265437619b37993433a
:10244800b3711323f3701ae0280005f011f8a34bb9
:102458000100984213d13b78072b10d118240a2287
:102468006c439f4b28001b199b8834195a4301233e
:1024780092b201f0edfb1423e3701d3363710db0cc
:10248800f0bd6c4337197b79312b06d0332bf6d14d
:102498001923fb702c337b71f1e7335d022b07d8ce
:1024a800d22033232a008f49ff3004f035f9f87120
:1024b80018243223654376197371e0e72700002357
:1024c8006f43f3556b46029a9989280002f012f976
:1024d800834bf619db19db68002b09d1b379db07cd
:1024e80002d5f4703d23e7e71423f3701d33e3e7c7
:1024f8001623f3701e33dfe76c4336197379362bd6
:102508001ad0372b29d0342bb9d10023012202212c
:10251800280004f0c9ff724b1c19e36805933523a2
:102528007371714b0193714b02000093002105ab4d
:10253800280001f099fca2e737232a0069491a20ec
:1025480004f0eaf83823f071b6e76c43361973796a
:10255800392b06d03a2b00d091e71923f3702c338e
:10256800aae7fa203a232a005e49400004f0d4f88a
:102578003b23f071a0e76c43361973793c2b00d0ec
:102588007de7280005f044fa0123b2791343b371bb
:10259800a8e76c4337197b79452b00d06fe72800f3
:1025a80005f080fb4023ba7928001343bb71002350
:1025b8001a00190003f0fefd1a23fb702d337b71fe
:1025c800335d013333555ae76c4334196079473822
:1025d800032800d953e705f029fd021b29341824e4
:1025e80040236c433619b27928001343b37105f0c0
:1025f80001fc002818d00021280005f083fd0023e5
:102608002a003b49232004f087f84823f07153e758
:10261800280005f0effb002800d030e71824280038
:1026280005f040fb65437619492345e71824002344
:10263800280065431a00190001f00afb76194a239d
:102648003ae7280004f014ff031e00d017e7182407
:102658006c43234a2800121991880a224a431f49c9
:1026680092b201f0f5fa280004f06cfe4022361907
:10267800b3799343b3711223e4e66c433619737943
:102688004b2b00d0fbe60b2402abe41805aa210073
:10269800280005f0d1f9002322780421280004f04d
:1026a80003ff4c237371134b3ce76c433619737962
:1026b8003e2b00d0e3e6280005f0f4fa00212800bc
:1026c80005f074fd002303211a00280004f0ecfe35
:1026d8003f237371084b25e754010020881300003d
:1026e8009c0100202577000016361d40d17000009f
:1026f800697a0000183d1d40143119456c4336199c
:102708007379422b16d0432b00d126e7402b00d0fb
:10271800b5e6280005f0c6fa0021280005f046fdb8
:1027280000230d211a00280004f0befe4123737116
:10273800054bf7e643232a0004491a2003f0ecff6f
:102748004423f071b8e6c0461d42194525770000bc
:020000040000fa
:10275800f0b54f46d64646464400c0b5c20f4702bc
:102768004802400a844666467b0a4800c90f9a46d2
:10277800240e1500db00000e8946f600ff2800d164
:102788008fe001214f464f403900914266d0221a0e
:10279800002a00dc9de000283dd1002e00d18be00e
:1027a800511e002900d0b5e001249b1b5a0144d5d5
:1027b8009b019f09380004f03dfe0538874084429c
:1027c80000dd96e0041b3a0020200134e240041b9f
:1027d800a7403b005f1ebb41002413435a0704d0a7
:1027e8000f221a40042a00d004335a0127d5013495
:1027f800ff2c00d179e001229b015b0ae4b22a4058
:102808005b02e405580ad207204310431cbc9046db
:102818009946a246f0bdff2ce0d08021c9040e43a2
:102828001b2a7bdc31002020d140821a9640721e80
:1028380096410e439b1b5a01bad45a07d0d10122a4
:10284800df082a40ff2c33d1002f00d1a8e08023d5
:10285800db033b435b025b0aff24d1e7211a002913
:102868004cdd00282ad0ff2cb8d08020c0040643b5
:102878001b2900ddafe030002027c840791a8e40c0
:10288800711e8e4106439b195901d6d50134ff2c80
:1028980000d185e001227a491a405b080b401343b6
:1028a8009ce7002e00d070e76be73b1ec5d10022e5
:1028b8007b025b0ae4b2a3e714008fe7002e4dd039
:1028c800481e002857d19b1901245a01b5d5022466
:1028d800e0e7002a25d1621cd2b2012a72dd9f1bd3
:1028e8007a0135d5f71a0d0064e7012200232a4042
:1028f80086e73b00634a241a13406fe700296cd12e
:10290800611cc8b201284eddff2949d09b195b081c
:102918000c0063e7ff2a41d00a0081e701269b1bd0
:1029280089e7002c1cd0ff2821d08024e4045242df
:1029380023431b2a00dd96e01c002025d440aa1a58
:1029480093405a1e93412343f31a04000d002de7c8
:10295800002f00d02ee700220024a9e70c003de755
:10296800002b58d0d243002aeed0ff28e1d1330003
:10297800ff240d0032e7ff2910d0010078e7002b73
:102988006ed0ff24002e00d128e780225146d203c2
:10299800114203d06146114200d13300ff241de7e4
:1029a800ff2400232ce7002ce9d1002b63d0002e54
:1029b80000d113e79b195a0100d43ee7314a0c00b5
:1029c80013400be7002c1ed1002b2fd1002e4fd027
:1029d80033000d0002e7012655e7002c1fd1002b1c
:1029e80043d0c94300290bd0ff2839d01b2944dc28
:1029f8001c002027cc40791a8b40591e8b41234359
:102a08009b19040040e7002b1ad1002e24d18027ff
:102a18000022ff031be7330004000d00dee6ff2859
:102a28001ed08024e40449422343dfe7002e00d16e
:102a3800d4e69f1b7a0100d437e7f31a0d00cde6e0
:102a4800ff24002e00d1c9e680225046d20310424e
:102a5800a4d060461042a1d133000d00ff24bde68a
:102a68003300ff24bae601236ee733000400b5e61d
:102a7800002700221ce73300b0e60123c0e7c04668
:082a8800ffffff7dfffffffbd4
:020000040000fa
:102a9000f0b50127b64a0301d3181b7a87b00400aa
:102aa0000e00019339423dd004ab5d1d2a003b006e
:102ab000b04904f035fd2b787f2b05d93b002a0067
:102ac000ac49200004f07efd2b789b070dd004aab2
:102ad00002230632a849200004f022fd04aa0223a2
:102ae0000632a549200004f06dfd0223019aa34996
:102af0001a43019204aa951d2a00200004f010fd3b
:102b0000242363439e4a99580723220119402b88a6
:102b1000012900d0ade096498a18d9431b0adb434e
:102b20009170d37073051fd504ab5d1d2a0001237e
:102b30009449200004f0f4fc2b785fb2db070bd53e
:102b40000c23019a9a430192182262438e4b9b18e0
:102b50000822597d0a435a7501232a008949200019
:102b600004f030fd002f01dbb3057ad504ab5d1d09
:102b70002a0001238549200004f0d2fc18230127f4
:102b80006343814ad3185b7822013b4002932b7840
:102b900000250392ab420cd17023019a29009a437d
:102ba0002000019204f0d4ff029bab4266d0750a6c
:102bb0003d4004ab5f1d3e78012e14d1029b002bdb
:102bc00000d06de06a4b22019b5c072b0bd12000eb
:102bd00005f008fa002806d1019b3100334320009c
:102be000019304f0b5ff3b78052b5bd1029b002bd2
:102bf00011d170215e4b22019a18137a0b40102bd1
:102c000000d1b0e05a4b21015b5c072b03d1537814
:102c1000012b00d0a7e004ab9d1d00232a002b80d0
:102c20005b490133200004f07bfc2b889b060ad50e
:102c300018226243544b9b189a7d002a03d1597d78
:102c400002320a435a7504aa012305325149200071
:102c500004f066fc04aa012305324e49200004f06a
:102c6000b1fc434b24011c196b461b79237207b03e
:102c7000f0bd3f498a1893701b0a52e73c4b220172
:102c80009b5c029d072b00d093e7200005f0aaf97a
:102c9000051e03d1019b3b4301938ae7029d88e710
:102ca000029da0e7012db6d010221a40029206d054
:102cb00018236343344ad318597d0122c1e72022e7
:102cc00093430d2bbfd1019a63339a4304ab9d1def
:102cd000019202232a003049200004f021fc2888b8
:102ce00002f0f8ff2d4a2e4bfef77efe204a23010c
:102cf000944663440600d8680f0002f0c5fc0b0040
:102d0000020039003000fdf78ffd04f079fb80b23e
:102d10002880242565431a4e322773190133db7f3f
:102d200002999c46cbb2634510d28a00521992197f
:102d3000526801311203920d7a439042f2d8013366
:102d4000019adbb21b011343dbb2019318226243e9
:102d50000d4b9b185b78db0700d474e70021200043
:102d600004f0f6fe6fe7012d00d06ce753e7c04694
:102d700034010020030800000408000006080000d9
:102d8000a00800200a0800009c010020080800009c
:102d90001f08000009080000b2080000295c8fc26b
:042da000f56838405a
:020000040000fa
:102da400f7b518252b004343ae4e0400f318d8782a
:102db4001f3809285ad805f04ff94a0062008a00e2
:102dc4009f00c800ea0003010a002f001f016543a9
:102dd40075196b79592b49d1002310211a00200051
:102de40004f064fb242363439f4a9b580722134047
:102df400012b0fd09d4918236343f6185a2373718e
:102e04009b4b01910093002302001900200001f064
:102e14002df82be09749eee7654375196b795b2b29
:102e240024d1002304211a00200004f03ffb2423b2
:102e340063438d4a9b5807221340012b05d08b49cd
:102e440018236343f6185c23d9e78a49f8e720007e
:102e540004f0d2ff00280ad118226243864b9b1843
:102e64001b7d002b03d1200004f072fcf7bd182356
:102e74005c4308333419e37030336371f6e7654318
:102e840077197b79502b0bd0522befd1200004f013
:102e9400b3ff002817d02123fb702c337b71e5e7a7
:102ea400002303211a00200004f000fb724b5d197b
:102eb4006b78db0705d4714918236343f618512353
:102ec4009de76f49f8e72323fb703233e6e7654358
:102ed400761973794d2b05d04f2bc7d1200004f000
:102ee400c1fcc3e74f2322006649642003f016fcab
:102ef4004e23f0717371b9e72f006743f6197379a4
:102f0400532b12d0542bb1d1200004f075ff0028ac
:102f1400acd1200004f0c8fe574bdf197b78db07e7
:102f240010d50523f3700c33e4e70021200005f0ed
:102f3400ebf8002322005449232003f0effb542331
:102f4400f071d7e7f5703d23d4e7654376197379bb
:102f5400552b0fd0562b00d088e7200004f04cffef
:102f6400002800d182e7200004f09efe2423f370a1
:102f74003333bfe70121200005f0c6f80023220007
:102f84004249962003f0cafb5623f071b2e7654329
:102f940073195b79572b00d068e7002306211a00c8
:102fa400200004f083fa344b5d196b78db0705d4f9
:102fb4002e4918236343f618582320e72d49f8e7d0
:102fc40003250b689b092b4200d04fe7182044438c
:102fd4002949091949788a082a40012a09d134194a
:102fe400114203d00523e3700c3346e7e0703d2320
:102ff40043e736192623bae7654377197b795d2bb6
:103004000fd05f2b00d031e70021200003f066fed3
:10301400194b5d196a781a23d2071fd50b22fa704f
:103024003ce7a0230a68db059a420ed10121200067
:1030340003f054fe5f23220015492d2003f06efb9c
:1030440018256c435e23341917e70c226243114b95
:103054009b184022997a0a439a72f1e7fb7047233e
:103064001ce7c04654010020a0080020183d1d4064
:10307400d1700000051108279c01002020521d403a
:103084002052082725770000697a00004961000072
:083094006d7f000084010020a3
:020000040000fa
:10309c00f0b557464e46de464546e0b54402430081
:1030ac00c60f83b00f1c640a1b0eb24653d0ff2b05
:1030bc0027d08022e400d20414437f22524290464f
:1030cc009844002399469b467d027800fb0f6d0abd
:1030dc00000e009324d0ff2846d080230021ed0061
:1030ec00db041d437f384746381a4f460f43bf0059
:1030fc00b9463300009a874f53404a46ba58019359
:10310c009746002c4ed108239946f7339846fd3b41
:10311c009b467d027800fb0f6d0a000e0093dad1fe
:10312c00002d26d1002001213300009a7a4f534004
:10313c004246101a4a460a439200ba581d00974656
:10314c00009b2c009a468b465b46022b31d1534692
:10315c00ff21002438e0002c17d1042399460023ca
:10316c00984601339b46afe7ff20002d0bd102217f
:10317c00dae7280004f05cf9431f9d4076235b429c
:10318c00181a0021afe70321ade7200004f050f935
:10319c00431f9c4076235b421b1a9846002399469a
:1031ac009b4691e70c239946f3339846fc3b9b4690
:1031bc008ae7032b00d1a5e05546012b00d081e016
:1031cc000123002100242b406402c905600adb079f
:1031dc000843184303b03cbc90469946a246ab4604
:1031ec00f0bd80240023e403ff21ede7ff21002440
:1031fc00eae70123591a1b2966dd019a13400021c5
:10320c000024e1e78023db031c4238d01d4251d05f
:10321c001c436402640a3300ff21d5e763016c018f
:10322c00a3423bd21b260021013801251f00490077
:10323c005b00002f01db9c4201d81b1b2943013e84
:10324c00002ef3d11c00631e9c410c4301007f3106
:10325c000029cedd630704d00f232340042b00d0bc
:10326c000434230103d501002c4b80311c40fe2972
:10327c000ddd0123019aff2113400024a4e78023d4
:10328c00db031c436402640a3300ff219ce7012327
:10329c00019aa401640ac9b2134095e71b1b1a26b4
:1032ac000121c2e7009b8b469a4600244ce763023f
:1032bc00e5d500258024e4032c436402640a009bba
:1032cc00ff2181e70195c1e723002020cb40411a63
:1032dc008c40611e8c411c43630704d00f23234098
:1032ec00042b00d00434630105d50123019a01217c
:1032fc001340002468e70123019aa401640a1340d7
:10330c00002161e78023db031c436402640a5346fb
:10331c00ff2159e7dc5d00001c5e0000fffffff79a
:020000040000fa
:10332c00f8b504000e0003f05dfc01280bd11f233f
:10333c007204520f3340002a00d16de0022b3cd0b6
:10334c0002d8012b17d0f8bd032b46d00f2bfad186
:10335c0018226243874b9918c978182906d0052979
:10336c0004d0854882185278d2064dd51822544381
:10337c000d321b191fe0182262437e4b99184979b4
:10338c0032290bd03d2912d07b498a185278d206ab
:10339c000dd43100200004f0c3fbd4e7200004f06e
:1033ac007ffc00221521200004f01cfbcbe7182227
:1033bc005443033a1b19da70c5e7182262436d4b6c
:1033cc009b18db78022b04d0052be2d100220321c1
:1033dc00e9e7200004f064fcf8e718236343654d2b
:1033ec00eb18db78182b01d0052bacd1200004f0a6
:1033fc003df8624b9842a6d118235c4310332d192b
:10340c00eb7035336b719ee70f299cd1200004f0d3
:10341c0047fc00221021c6e7d81e0a2800d992e7e3
:10342c0004f00cfe0b00280091ff4a0061006d00b7
:10343c0091ff91ff820028009600182565434d4ba3
:10344c005d196b79382b05d1200004f029fc392249
:10345c001721a8e7442b05d1200004f021fc3122d0
:10346c001421a0e72a2b94d1200004f019fc02238c
:10347c00eb70c7e718273a0062433e4dad186a79e6
:10348c00382a86d1aa79d20712d50c2b0cd10a3343
:10349c0022003b49642003f03df93a4b24011c19ee
:1034ac00a071ef703d23ade7042b00d04be7f8e79c
:1034bc001423eb701d33a5e718252a0062432d4b0e
:1034cc009b185b793b2b05d1200004f0e9fb3c22d7
:1034dc00290068e74e2b00d05be7200004f0e0fbee
:1034ec00532222215fe718226243224b9b18da7881
:1034fc00052a00d04de7033ada705a7123e71822f7
:10350c0062431c4b9918c978182905d01a498a1896
:10351c005278d20600d43ce7182254431c191b23c2
:10352c00e370303363710ee718226243114b991824
:10353c00c978182907d0052905d00f498a1852785f
:10354c00d20600d425e71822544307321b1932e760
:10355c0018236343084a074cd2185278e418d20750
:10356c0003d50e23e3701733dce71c23e3702233ff
:10357c00d8e7c046540100209c01002088130000ad
:08358c00597f0000340100200a
:020000040000fa
:10359400f0b5040085b0002103f0c8fb0021200031
:1035a40003f014fe01229a21200004f0b3f908224a
:1035b4007849200004f0aef900227749200004f095
:1035c4005efd40227549200004f0a4f900227449ec
:1035d400200004f054fd83227249200004f09af97b
:1035e40081227149200004f095f91421200004f08f
:1035f40061fd6e4a02ab024392b214212000da80cc
:1036040004f046fd802101220901200004f098f90c
:103614001023674a6749200004f0eefa230101935e
:10362400654b22019e186549f06800f0dff804f04c
:10363400bff8634982b2200004f02afd6149f068b2
:1036440000f0d4f804f0b4f88b2182b20901200010
:1036540004f01efd01225c49200004f05bf92423e0
:10366400072563430193019a584b03afd1580d408a
:1036740069d0012d2bd1082302aa3b700c3353715e
:10368400c908113b1940200003f09afe802104224e
:103694000901200004f03ef94c4b019a2900d2584c
:1036a4000323d2081a4002abda802000d2b203f01e
:1036b4001ffa0622f3792101934302aad288520009
:1036c4001343f37100233c4a8b5403337370012377
:1036d4003a003f49200004f08ffa02aa0123053280
:1036e4003c49200004f088fa0321200002f0aefadd
:1036f40002223949200004f0c2fc02ab9d1d7d2347
:103704002a002b8035497c3b200004f075fa012304
:103714002a003349200004f06ffa0121200003f04d
:1037240055fd6021200003f001fb24236343274a55
:103734009b5807221340012b1dd10021200003f0c8
:10374400fff805b0f0bd0c2302aa3b702900083332
:103754002000537104f01efa01222900200003f016
:10376400c7f92900200003f02bfe0523124a21018a
:103774008b547570abe7182262431a4b1a499b1895
:103784000a229b8820005a43002392b200f062fa76
:10379400d7e7c046010800000610000041080000f9
:1037a40007100000110800001508000003060000bf
:1037b4001c81000022080000340100200000e041c8
:1037c4004e080000000016433f080000a008002037
:1037d400170800004a080000190800001408000037
:0c37e4001c0800009c010020881300005d
:020000040000fa
:1037f000f8b557464e464546de46e0b54702460018
:1038000088467f0a360ec40f002e47d0ff2e24d0e4
:10381000fb008027ff041f43002399469a467f3e02
:1038200043465d025800db0f6d0a000e984643d0f8
:10383000ff283bd0eb0080250022ed041d437f389c
:103840003618731c41469b464b46614013430f2b71
:1038500064d875489b00c3589f46002f42d1082367
:103860009946063bff269a46dae74146022a28d0c7
:10387000032a00d1cee0012a00d0ace011400020a4
:103880000022ccb24002d205400ae4071043204394
:103890003cbc90469946a246ab46f8bd002f15d1d8
:1038a00004239946033b00269a46b9e7ff200222eb
:1038b000002dc5d00322c3e7002d19d1002001221d
:1038c000bee70124ff220c400020dbe7380003f0b4
:1038d000b5fd7626431f9f4000237642361a99464f
:1038e0009a469de70c239946093bff269a4697e79f
:1038f000280003f0a3fd431f9d4076235b42181a66
:1039000000229de780200024c003ff22bae73d008b
:103910005246abe73d0021005246a7e73b0c9c46d0
:103920002a04120c2b0c1400604665463f043f0c21
:103930007c4342435d437b43270c9b18ff18ba42ec
:1039400003d980235b029c46654424043a04240c7a
:10395000121993015c1ea3413f0c920e7d191a436c
:10396000ad0115432b0104d501235e466a081d40b5
:10397000154332007f32002a25dd6b0704d00f2368
:103980002b40042b00d004352b0103d53200274bec
:1039900080321d40fe2a94dc0124a801400ad2b2e4
:1039a0000c406fe78020c003074207d0054205d1d5
:1039b00028434002400a4446ff2263e7384340025e
:1039c000400aff225ee70124a31a1b2b05dd0c40f1
:1039d0000022002056e75e46cbe72a002020da408e
:1039e000c31a9d402b005d1eab4113435a0704d000
:1039f0000f221a40042a00d004335a0104d50124ae
:103a000001220c4000203de701249b01580a0c4094
:103a1000002237e780200124c00328434002400ae7
:103a20000c40ff222ee7c04610720000fffffff798
:020000040000fa
:103a30000c22f0b54243844b85b09b189b7a04005e
:103a40000025db064dd524224243804b00019b1804
:103a50005a88039011b2a94200dbd7e05a791b794a
:103a6000120213431bb201936b469b880f260293ed
:103a7000df125b053ed5200004f0e4f9744a23010f
:103a8000944663441a7b374011070833090f8f426d
:103a90002ad10199a94227da1640502216431e71f5
:103aa0000c236343684ef3181b7a052b02d0093ba5
:103ab000012b0bd8200004f0c5f904f039fa0c23cf
:103ac00000226343f3181a7204f03cfa04f030fa4f
:103ad0000c2310225c433619b37a9343b37204f07b
:103ae00031fa280005b0f0bd0321200003f06ef983
:103af0000025d5e737405ad1554b22019b185a7bf8
:103b00000833d2070cd519790a090f323240022a3c
:103b100003d80e4040210e431e71200003f032fef8
:103b20004b4a2301d3180122597b24250a435a7397
:103b3000852365435b00454a6343521945485578e0
:103b40005288c1181a526b461b890d714b80200098
:103b500002f09efe3e4b21015a18127b1207120ff3
:103b600097424bd1019a002a48da24228526022165
:103b70006243364b76009b185a8866435204520fb4
:103b800093009c46334b9e19614514db304a230158
:103b9000d21808321379d1781807c906000f090f17
:103ba000884221d1200003f0edfd082578e72000b0
:103bb00004f048f9cee78022254b039812041d1823
:103bc0006b89d805c70d5b0a8018c00d5b020343e3
:103bd000242060436b811d4bf7191b185b181b7960
:103be00001317b71c9b2cfe70f2020210340194377
:103bf0000133034081430b43137179e75b180f21b5
:103c00001a7b114040220a431a7371e710492301bd
:103c10008c466344597b0833c9070ed51f210a40df
:103c2000052a0ad00f221b7920001b090f331340ed
:103c3000022b05d803f0a6fd102502231d432fe714
:103c400003f0a0fdf9e7c04684010020c800002071
:083c500014010020ce01002048
:020000040000fa
:103c5800f0b5040087b01d000f0003f009fc6d4ba0
:103c6800220103909b1800212000de6803f0acfac3
:103c7800002d57d0002f55d018256543664b5d1988
:103c8800ab7c002b09d0287c03f030fd00232200f8
:103c98006249634802f040fd2874380002f016f8c3
:103ca800604a614b00900191fdf79afe5f4a604bb4
:103cb800fcf7b6fd03f0a0fb80b201f07fff311cda
:103cc800fff792fd03f072fd05ad2880594a5a4b63
:103cd80000980199fdf784fe544a554bfcf7a0fd66
:103ce80003f08afb80b201f069ff311cfff77cfd0d
:103cf80003f05cfd2a00688004235049200003f08b
:103d080079ff03225521200003f002fe3d252a00f9
:103d180020004b4904f0b1f90121200003f054fac6
:103d280007b0f0bd03225521200003f007fe002f45
:103d38002ed0444b9f4237d00025af42e7d0380001
:103d480001f0c4ff374a404b00900191fdf748fe4f
:103d5800364a374bfcf764fd03f04efb80b201f0a6
:103d68002dff311cfff740fd03f020fd374a384b8b
:103d780085b200980199fdf733fe2c4a2c4bfcf7cd
:103d88004ffd03f039fb80b201f018ff311c1be036
:103d9800182201216243204b9b185d780d4036d0d4
:103da800200003f0d1feb2e7182262431a4b9b1899
:103db8005b78db0729d52749301cfff715fd03f091
:103dc800f5fc254985b2301cfff70efd03f0eefc2b
:103dd8002a0086b22149200004f058f9039b0d25da
:103de800bb4200d893e71822012162430a4b9b1873
:103df8005b780b4202d0200003f0a6fe320018497f
:103e0800200004f043f94d2581e71649d4e70d0059
:103e18007de7c046340100209c0100208d7e000013
:103e280010270000666666666666f23f295c8fc2e8
:103e3800f5683840333333333333eb3fb40800008d
:103e48001f080000881300006666ee3fcdcccccc7e
:103e5800ccccf03f0000424300006143b2080000b0
:083e6800b8080000000034431b
:020000040000fa
:103e7000f0b58bb0019303019c466e4b0f00634479
:103e800019005b7b0400db0716000831db0f3ad119
:103e9000320438d5852040006043674d2a184653c8
:103ea0000f2517710879f601a84308718021f60dd6
:103eb00009020e430199568000291fd15d4b6246cd
:103ec00063441d00119b10996b605a4b2000995060
:103ed00002f0defc0f222b7b03261a4050231343f3
:103ee0002b7301236a7b13436b7330000bb0f0bd5f
:103ef0000199c85cd118013348719bb2f105c90d15
:103f00008b42f5dddae70c2363434c4d1199ea1837
:103f10005160109a5a5118236343494a9b5c1e22f0
:103f2000db0700d406224749200004f0aaf80c233e
:103f3000012f45d0002f04d0022f48d000273d008c
:103f400004e06343ed186d7a6d076d0f6b021e433d
:103f5000019a02ab3100200001f0a8f8072201907d
:103f60003949200004f08df86b46c0219b8802aad5
:103f70004901200003f042fe019a3449200004f078
:103f800080f888223d432a433149200004f079f823
:103f90000c236343294deb181b7a092b05d00a2b00
:103fa0001cd115331e400d2e18d003f0c1ff0c2379
:103fb0005c43073b2d192b7203f0c4ff022694e7e4
:103fc0006343ed186d7a1027ad066d0fbee76343ae
:103fd000eb189d7a20276d076d0fb7e70c2363431d
:103fe000eb189b7adb060dd524226243194b9b18f4
:103ff0005e78002e06d1200002f01af9200003f0ae
:10400000edfd72e710261449200004f04cf8304210
:10401000f9d020000122104904f033f803f088ffa2
:104020000c235c43063b2d192b7203f08bff0126fa
:104030005be7c04614010020ce010020840100206f
:104040009c010020411a0000861a0000031a00009b
:0c405000041a0000c8000020051a00003f
:020000040000fa
:10405c0003460b437fd4002243088b4274d30309dd
:10406c008b425fd3030a8b4244d3030b8b4228d37e
:10407c00030c8b420dd3ff22090212ba030c8b42a4
:10408c0002d31212090265d0030b8b4219d300e044
:10409c00090ac30b8b4201d3cb03c01a5241830bc9
:1040ac008b4201d38b03c01a5241430b8b4201d379
:1040bc004b03c01a5241030b8b4201d30b03c01aa2
:1040cc005241c30a8b4201d3cb02c01a5241830a1c
:1040dc008b4201d38b02c01a5241430a8b4201d34b
:1040ec004b02c01a5241030a8b4201d30b02c01a75
:1040fc005241cdd2c3098b4201d3cb01c01a5241dc
:10410c0083098b4201d38b01c01a524143098b4264
:10411c0001d34b01c01a524103098b4201d30b014d
:10412c00c01a5241c3088b4201d3cb00c01a524172
:10413c0083088b4201d38b00c01a524143088b4237
:10414c0001d34b00c01a5241411a00d201465241d0
:10415c00104670475de0ca0f00d04942031000d3ef
:10416c004042534000229c4603098b422dd3030a44
:10417c008b4212d3fc22890112ba030a8b420cd354
:10418c00890192118b4208d3890192118b4204d37d
:10419c0089013ad0921100e08909c3098b4201d3fd
:1041ac00cb01c01a524183098b4201d38b01c01a37
:1041bc00524143098b4201d34b01c01a52410309ae
:1041cc008b4201d30b01c01a5241c3088b4201d35d
:1041dc00cb00c01a524183088b4201d38b00c01a0a
:1041ec005241d9d243088b4201d34b00c01a5241e1
:1041fc00411a00d20146634652415b10104601d36e
:10420c004042002b00d54942704763465b1000d3f7
:10421c00404201b5002003f0cdff02bd0029f8d0cb
:04422c0016e77047da
:020000040000fa
:1042300070b5040003f0d2fc524a5349200003f049
:1042400029ff524a5249200003f024ffd021542272
:104250004901200003f015ff200002f079ff4d4acc
:104260004d49200003f016ff64224c49200003f062
:1042700008ff5e224a49200003f003ffd5210a23ec
:10428000484a4901200003f0b9fc474a4749200049
:1042900003f000ff1823464a4649200003f0aefc15
:1042a0001823454a4549200003f0a8fc012244494f
:1042b000200003f0e6fe18236343424d92225b5d2b
:1042c000db0701d5902252008023a0211b021a4354
:1042d0008901200003f0defe10223b49200003f09c
:1042e000d0fe18236343eb5c1e22db0700d40622ba
:1042f0002000364903f0c5fe20001022344903f0a7
:104300000bfb20008822334903f0bbfe20008022f3
:10431000314903f0b6fe20000722304903f0b1fe18
:10432000200007222e4903f0acfe9021200001223c
:10433000890103f0a6fe200004222a4903f0a1fe11
:1043400020001022142103f0e7fa0c210d000020b8
:104350006543254aa850531938251a001872586029
:104360005b7a07308343ab435372937a8343c03005
:10437000034093721d4b22019b181972200003f019
:1043800001fa70bd3c1e00000b1a00009f320000b5
:10439000071a000080c40000421a0000461a0000fc
:1043a000491a00009a8100009fc80000b01a00005e
:1043b000747e0000102800005c7e000030280000a1
:1043c000022800009c01002004280000411a00007f
:1043d00001080000821a0000871a0000811a0000fc
:1043e000861a0000891a00008401002014010020b0
:020000040000fa
:1043f000f7b5634f03010193db5d0400614d002bb2
:1044000023d10301fb185b78012b25d1182620004e
:1044100003f0f2f800236643ae19b375307c03f065
:1044200069f90c2333740023b3740123707c337552
:1044300003f060f90c2373740023f37403f078fd28
:104440000023737503f07efd06e0052b04d1030104
:10445000fb185b78022bd9d018236343ea18927dae
:10446000002a2dd0484ad3185a791f2a02d0db7867
:10447000122b25d1182633006343eb18da7c022a6d
:1044800001d900221a756643ae19b37c022b55d9a7
:104490000021200003f028f8200001f007fb002392
:1044a0002201ba18b3740533537018236343364a94
:1044b000d3182a22da70182300226343eb189a7566
:1044c00018266643ae19737d002b36d01b070ad51c
:1044d0000521200001f02ef800282ed0707c03f07a
:1044e00009f90c237374182608226643ae19737dec
:1044f00093430ad00621200001f01cf800281cd0ac
:10450000307c03f0f7f80c23337418230120634345
:104510001d4ad2189179014014d1092320013b543e
:104520002a233f187970d37003f002fd18235c43ef
:1045300000232d196b7503f005fdf7bd200003f076
:104540005bf8b8e7eb185a7d120706d5da7c6021d4
:104550000132da74200002f0ebfb182308216343d8
:10456000eb185a7d8a4302d09a7c01329a7420005b
:1045700003f07af918236343eb185a7d9a75d3e751
:0c458000340100209c01002054010020a8
:020000040000fa
:10458c00f7b504000e00534d0701002956d1102237
:10459c008421ed19eb7909011343eb71043a03f013
:1045ac00cbf9842140220901200003f0c5f9310028
:1045bc00200002f0b7fb29224749200003f064fddc
:1045cc006b4682210127de1d3200012309012000e8
:1045dc0003f01efb2a7a2f710c2533782a40042a0b
:1045ec0019d1822103329343053a134333703200bd
:1045fc003b000901200003f0fbfa3849032220009c
:10460c0003f09af93900200001f01cfb6021200016
:10461c0002f088fbf7bd382282219343283a1343da
:10462c00337032003b000901200003f0e1fa2b4902
:10463c002a00200003f080f90221e4e71826464303
:10464c00274b9e19f37c002b09d0707c03f04cf89f
:10465c00002322002349244802f05cf870741f499f
:10466c00200003f01afd24236343204a9b580722a1
:10467c001340012b13d1ea199678d1788e4202d9c6
:10468c00d2791a4210d1c3060ed46022ed19eb79ff
:10469c0093431a0040231343eb7108220de0eb19ee
:1046ac009a78db789a42f0d26022ed19eb79934339
:1046bc001a00202313430422eb71842120000901ea
:1046cc0003f024f9842140220901200003f01ef993
:1046dc00a0e7c04634010020220800002108000099
:1046ec009c010020157e000010270000a00800206f
:020000040000fa
:1046fc00f0b58fb006ac0aaf01900d00029200210c
:10470c000e22200001f0f2f80e220021380001f0f8
:10471c00edf82421019b4e4e594373180133db7f76
:10472c006d040431180089193a006d0f039301f0e0
:10473c0091f822000299280001f08cf87b78019afc
:10474c009c460923534363449b00f6183b787268dc
:10475c0004936b00059300239605970ab60d0599f3
:10476c008b421cd10133e3180493039b019a5b0029
:10477c000133e318039306ab581c09235a439446a0
:10478c00049b984238d00278029993005d5806ab8e
:10479c00af0a5c1c039b9c4232d10230f0e7e15c17
:1047ac00049881422ad3e1184978029d8800405927
:1047bc00850a7d40ad0521d18005800db0421dd309
:1047cc001820019b54085843224b234d1818802362
:1047dc009b04234094022c4023431e4393059b0dc2
:1047ec0083806346013109070e430133c660826042
:1047fc00c370019802f086fc0fb0f0bd0233aee737
:10480c006346267812499b199b00cb185b680234cf
:10481c00990a79408905bdd1802701981831414307
:10482c000c480d4c4118a8022040ac05a40d5b08a7
:10483c00bf0420433b400343802001321207c004d5
:10484c00104303430136cb608c808d60ce70d0e773
:0c485c00a00800209c01002000fc0f00c0
:020000040000fa
:10486800f0b50e2785b000236a46d4216f44137330
:1048780053733b7003aa01334901040002f04cfe54
:104888006b4601251b7b2b4254d00d222b006a441a
:104898004449200002f040fe2b003a004249200023
:1048a80002f03afe6b460f265a7b3b786e44134063
:1048b800337032002b003b49200002f07ffe327833
:1048c8003a4e2a4203d00c236343f3181d72930710
:1048d80004d50c2303216343f3181972530704d535
:1048e8000c2302216343f3181972130704d50c2310
:1048f80004226343f3181a720c252b006343f31840
:104908001b7a042b02d0200001f08efc65437759f6
:10491800002f0ad075196968080c0a0ac3b2000a80
:104928000090d2b2c9b22000b8470c236343f618ee
:10493800002333726b461b7b9b0731d50d220e2655
:1049480001236a441a4920006e4402f0e5fd012360
:1049580032001849200002f0dffd6b460f255a7b14
:1049680033786d4413402b702a000123104920002e
:1049780002f024fe2b787f2b02d9200002f004fce1
:104988002b781b070cd50c226243084b20009b1880
:104998002022997a0a4340218a439a7203f0ecfa5a
:1049a80005b0f0bd811a0000861a000084010020bd
:0849b800821a0000871a0000ba
:020000040000fa
:1049c000f7b5454e0401331908335a790500d2076b
:1049d0003ed5187900090238082839d803f02afb97
:1049e00005382d3938386e64730034190834667907
:1049f000b607f60f05d00f2223791a4060235b42d9
:104a000018e0280002f044f9852149006943334b3e
:104a100002005b181979324b28000193314b009347
:104a20003300fff725fa0f222379134021320128a2
:104a300000d04022134323710ae00c226a432a4b20
:104a400028009b180822997a0a439a7202f09afe6b
:104a5000f7bd3419083463799b07ccd4852149000c
:104a600069431e48277946187288204b3f073f0f3d
:104a70001a40fb021a431a235f434b1ddb19095ae4
:104a80001b181b4812040a43317901901948009001
:104a90002800fff7edf90f22237913405132012846
:104aa000c8d080225242c5e7341908342379012145
:104ab0001a0704d00f2213408f3abbe703212800c6
:104ac00002f084f9c4e7280002f05cfe02223419e7
:104ad000637b93436373bbe714010020ce01002086
:104ae00001000400d967000084010020ff87ffff58
:084af0000c0708086d640000ca
:020000040000fa
:104af800002243088b4274d303098b425fd3030a15
:104b08008b4244d3030b8b4228d3030c8b420dd327
:104b1800ff22090212ba030c8b4202d312120902b5
:104b280065d0030b8b4219d300e0090ac30b8b42f3
:104b380001d3cb03c01a5241830b8b4201d38b03a1
:104b4800c01a5241430b8b4201d34b03c01a524146
:104b5800030b8b4201d30b03c01a5241c30a8b4289
:104b680001d3cb02c01a5241830a8b4201d38b0274
:104b7800c01a5241430a8b4201d34b02c01a524118
:104b8800030a8b4201d30b02c01a5241cdd2c3098a
:104b98008b4201d3cb01c01a524183098b4201d306
:104ba8008b01c01a524143098b4201d34b01c01af1
:104bb800524103098b4201d30b01c01a5241c30869
:104bc8008b4201d3cb00c01a524183088b4201d3d8
:104bd8008b00c01a524143088b4201d34b00c01ac4
:104be8005241411a00d20146524110467047ffe730
:104bf80001b5002003f0e0fa02bdc0460029f7d055
:044c080076e7704794
:020000040000fa
:104c0c008222f0b50f26c9b052000021040007a87b
:104c1c0000f06cfe02abf6180023200033700693f4
:104c2c00fff7c8fe03f07ef918236343364d374f68
:104c3c00ea18117d00290cd0fb185b78db0752d5e4
:104c4c000a23d3700d335371182300226343eb18de
:104c5c001a7503f071f9200002f02cfe002306aa4d
:104c6c000093310007ab200000f0d6f80a2318425d
:104c7c0021d003200e336343f95c0393069b9a09fe
:104c8c008b0803409c46039b1040fb180c27844563
:104c9c002dd959789200b9433a400a435a702000f2
:104cac0002f050fa18236343069aeb181a611100ac
:104cbc002000fef735fb182366226343ed182a719a
:104ccc00124ad3185b783278db0716d5069b07a9f6
:104cdc002000fbf7f3f93278069b07a92000fef7ba
:104cec005bf849b0f0bd1a23d3702d33abe758787d
:104cfc003940b84301435970d1e7069b07a92000fe
:104d0c00fdf754fbe7e7c046540100209c0100204e
:020000040000fa
:104d1c00f0b585b001900292002901d0002805d190
:104d2c00002083423bd0029a824238d00720384c74
:104d3c0065680540ac4609d0002902d00020ca079e
:104d4c002dd4002b02d00020da0728d40198451e60
:104d5c00a841404201400298451ea841042540420a
:104d6c000340a07b28401cd1268a354325829942da
:104d7c0000d2581a6546002d02d05b08490840083d
:104d8c000125a67b2e42fcd000252e008e420ad196
:104d9c0000281dd10223a27b1a42fcd0012005b0b1
:104dac00f0bd208bdde76246771c002a0ad1019a00
:104dbc00965d26833e00002b13d10122a77b174260
:104dcc00fbd0e3e7019a7600b65af605f60df0e74c
:104ddc006246002a03d1ff3222830138ebe70d4ae9
:104dec00fae70422a77b1742fbd0278bbfb29d4268
:104dfc00ccd26a1c03926246002a03d1029a575500
:104e0c00039dc3e7ff05029a6d00ff0daf52f7e754
:084e1c0000080042ff01000044
:020000040000fa
:104e2400f7b50e00170004001d00fef7fffd6a46eb
:104e3400d080d1888446002909d10c2262432c4bae
:104e44009b189b7a1a0702d408009b061ed50223de
:104e54006246134021d024226243264b9b185a7881
:104e640032705a883a60002d08d0002707209e1c13
:104e74003288121302409200974208db089bcdb29d
:104e8400002b02d02900200098472800febdda1923
:104e94001279ea550137bfb2eae7082260461042a8
:104ea40019d00332ff3262431348821810793070ec
:104eb40050881688000430433860971c002dddd0dc
:104ec4003888c005c00d8342d8dad0184079e85438
:104ed40001339bb2f4e70c216143054b5b18987acc
:104ee400042108330507c9d5904398700c31c5e7f0
:0c4ef40084010020c8000020ce01002036
:020000040000fa
:104f0000254b26491a6a114002220a431a620822d6
:104f1000d9681142fcd0002221499a61214a51608e
:104f200021499160517849b20029fbdb8020998c9e
:104f3000814399841021d8680842fcd01b49086835
:104f4000800e3f2800d12038194980020968890560
:104f5000890d014399628221c90151801549d962a5
:104f6000154999844021d8680842fcd0134b5360fe
:104f700053785bb2002bfbdb114b5380114b5380fa
:104f8000114b5380114b53801f22114b5a61da6130
:104f9000104a1a627047c046000800400000ffcf68
:104fa00001060100000c004001fa000024608000ae
:104fb00028608000dc0514004602000000070100a4
:104fc000034000000d4000000e40000013400000b0
:084fd00000040040040101008f
:020000040000fa
:104fd800f8b5de469b46314b45461c68a4234e4631
:104fe80057465b00e0b50500e0580e0090460028e3
:104ff8004bd043681f2b0ddc5c1c002d21d10233e4
:105008009b0044601e5000203cbc90469946a24636
:10501800ab46f8bd224b002b3cd0c820400000e036
:1050280000bf002836d0a42200235200a1584360b4
:105038000160a05040328350043283500124002d77
:10504800ddd09a0091468144424688214f467a50e5
:10505800c4225200904680444246873999401268db
:105068008a460a439446424661461160842249466c
:105078005f4652008f50022dc1d1020055468d3235
:10508800ff3211680d431560b9e720004d30ff303d
:10509800e050aee701204042b6e7c046c4810000b8
:0450a8000000000004
:020000040000fa
:1050ac00f7b5802636020d0001921f000e401cd170
:1050bc0034004b045b0f9b002a0a3d707a70012070
:1050cc002a0403d5be70360afe700230019ac3184a
:1050dc00dbb2002a41d1030000212218d2b2934244
:1050ec003ed101340019c0b2febd80240b0ce4008b
:1050fc009eb21c4026d102011b488018017bc27a4b
:10510c000907d206090f120f91421fd1d805c00d05
:10511c001a21fff783f8002917d00320cbb20231f4
:10512c0008408910cab2002804d00434241a013271
:10513c00e4b2d2b20d48120328402d0c02432d04c8
:10514c001543b9e702240023b6e70c001a23b3e792
:10515c0011780130c0b2395401329842f8d1bae713
:10516c000133dbb2f954bae714010020ff8f0000c1
:020000040000fa
:10517c00f0b54546de4657464e46e0b51f033d0b9f
:10518c002c4f0e034c00ab465d008446360b640d71
:10519c00c90f90466d0ddb0fbc422ad0254fbd4286
:1051ac002dd0002c0fd13043070081467842784136
:1051bc00c0b2002d17d15f463a4314d14b460020a4
:1051cc00002b0ad006e0002d02d15846024301d034
:1051dc00994218d04842012108433cbc904699465c
:1051ec00a246ab46f0bd0028f2d00120013b18438b
:1051fc00f3e737000743d1d002204042ede75f468a
:10520c001743ced0f8e7ac42e4dc03da481e0121a8
:10521c000843e2e75e45ddd806d000205e45dcd2cf
:10522c000123481e1843d8e7c445d3d80020c445f1
:08523c00f6d3d2e7ff070000e2
:020000040000fa
:10524400f0b5002487b0e7b2380002f021fa002359
:105254000a201a00190001f061fa24236343019320
:105264000c234343254a0090d31803933022039b15
:105274001b7a1340202b27d02021214e019bf35869
:1052840002930b42f3d005ad04232a0012393800ef
:1052940002f0c2fc2b78022be8d1023319002a0059
:1052a400380002f0b9fc2b78242b1fd16a78042a29
:1052b4001cd1aa78502a19d1ea78032a16d163435b
:1052c40099591d320a439a510098013402f010fa98
:1052d400022cb8d120220a4b1968114000d1196060
:1052e400596a0a4000d15a6207b0f0bd2421202334
:1052f4006143034a885898438850b7e7e403002081
:04530400a0080020dd
:020000040000fa
:10530800f0b54e464546de4657465c00e0b51f03fd
:10531800db0f99462a4b0e034d00c90f8446360b06
:105328006d0d8b4690463f0b640d9d4220d0244b5b
:105338009c4222d0002d12d1304343424341dbb27c
:10534800002c1fd0002b0cd04b460120013b0343ff
:1053580018003cbc90469946a246ab46f0bd002cce
:1053680016d0cb4517d05b46594201230b43efe7d4
:10537800310002230143ebd1d9e73900022311435d
:10538800e6d1d7e73a43ddd100230028e0d0eae7a9
:105398003a43e6d1e7e7a542e5dc05dbbe42e2d8c1
:1053a80007d00023be42d3d25946012301390b430b
:1053b800cee7c445d7d80023c445f5d3c8e7c046cf
:0453c800ff070000db
:020000040000fa
:1053cc00f7b52b4d0601aa199178d3780190745d2d
:1053dc0057784b40202b31d013d8022b0bd8002bf5
:1053ec0035d00123aa19d1790b43d371002c04d1e8
:1053fc000027012401e0082bf3d0ac55ad196f70d8
:10540c00f7bd402b1ad00ed8222bf6d80123aa199f
:10541c00d17901980b43d37102f0d4fd022c05d144
:10542c0000270324e9e7482bf0d0e6e7012ce4d170
:10543c000027019802f03cfd3c00dee7022cdcd09a
:10544c000124aa19d3790027a343d371d5e7137983
:10545c008b42cbd00029c9d1d37901318b43d37185
:10546c00019802f0affd012ce2d0022cc5d1d7e798
:04547c0034010020d7
:020000040000fa
:1054800024234343f7b5274a04009b589b063ed587
:1054900002f04efd6a46002301ad961dd71c2b80fd
:1054a00033803b70204b1b5d022b31d002232a003e
:1054b0001021200002f034f82b88db040fd50223e2
:1054c00032001421200002f02bf83388174a1421ef
:1054d0001340338032000223200002f073f8298841
:1054e000134b194202d02000fdf7d2fa2b88db06bd
:1054f00002d52000fff7b8f92b889b0702d52000c2
:1055000000f07cff0122084b1a5502f01bfdf7bd8d
:1055100001233a000e21200002f002f83b78022b12
:10552000f6d1c3e7a0080020cc010020ffefffff69
:045530000106000070
:020000040000fa
:1055340010b50400481e052813d802f079fd06149e
:10554400314a03030124200010bd002c04d1802221
:10555400214b52055a60f6e701220221200002f095
:10556400cdfb0024efe7002c05d180221a4b520515
:105574009a609a61e7e700220221200002f0befb54
:1055840000220221200002f0c6fb0022022120009a
:1055940002f0cefb00220221200002f0d6fbe0e75d
:1055a400012c05d180220c4b52059a605a61d8e730
:1055b40000220221200002f0a1fb0022022120008f
:1055c40002f0a9fb00220221200002f0b1fb01221b
:0c55d400e1e702f083fac4e70044004164
:020000040000fa
:1055e000f7b5537814781b021c43d17893780922bd
:1055f00042434906490f1b0423434c1e12191e4dfa
:105600009200aa1857681b039b0dba050193920dcf
:10561000002493422bd8a14229d024224243ad1822
:105620000135ea7f8a4222d318224243134dad1836
:10563000ae79012576092e4033000601b446104e9e
:105640006644f6792e409e43b44663460d4ea3420f
:105650000fd0b218019b92889a4264412300e4b2b1
:10566000ab4204d11823584330188760c170200022
:10567000febd2c00f6e7c046a00800205401002023
:08568000340100209c01002010
:020000040000fa
:105688004100090e4b1c70b5dbb24602750ac40f07
:10569800012b14dde0239b006d07360bcb1800218e
:1056a8000a0d280012051c4d32435b052a405b0891
:1056b80013435b00e4075b082343190070bd00290e
:1056c80014d1002d1ed0280001f0b4fe0a281cdcdd
:1056d8000b232a001b1ada40030015339d400f4b99
:1056e80012031b1a5b05160b5b0dd8e7002d06d0bd
:1056f800320b802636036d071643094bcfe7084b5c
:105708000026cce700230026c9e703002a000b3b4c
:105718009a400025e3e7c046ffff0f808903000099
:04572800ff07000077
:020000040000fa
:10572c0070b5060002f0fefb234c35016219137aaa
:10573c00d90708d55178012901d1023151700121c5
:10574c0062198b43137263191a7a920723d5db798a
:10575c00da0611d5300002f007fa63191b7a9b07a1
:10576c0019d5605d0a2811d802f05efc0d0d0d18dc
:10577c00201c1c1c1010200060221342edd03000a5
:10578c0000f0fef8e9e73000fff71afe0222641978
:10579c00237a9343237202f0cffb70bd032263196b
:1057ac005a70f3e7300000f00ffcefe700226319aa
:0c57bc005a706255eae7c0463401002034
:020000040000fa
:1057c800012323490a7813430b704b785bb2002bf3
:1057d800fbdb00238b61dd231b06cb61c02310227a
:1057e8001b024b611b4b581cc27718002c300270ef
:1057f8001800383002701800443002701800503019
:10580800027018005c3002701800683002701800ce
:105818007430027018008030027018008c300270ea
:105828001800983002701800a4301a721a750270a5
:105838001a000e20b03210700f22bc331a700223e7
:105848000a7813430b704b785bb2002bfbdb704775
:085858000018004000000020d0
:020000040000fa
:10586000f0b517001600002585b000900291009a4f
:10587000ebb20193934205d310000138431c37d09b
:10588000002232e0029aab00d45832232003800d6c
:10589000584300f097f91749fdf700fc0a230390dd
:1058a000a005800d584300f08df91249fdf7f6fb75
:1058b000011c0398fdf79cff01f07cff6b461b79f0
:1058c0003070737001350236d1e75300fc18023393
:1058d000fb18257819788d4205d82170667859789b
:1058e00061701d705e700132d2b28242eddbc4e79e
:0858f00005b0f0bd00007a4490
:020000040000fa
:1058f800f0b5830743d0541e002a3fd0ceb2020031
:10590800032502e01a00013c38d3531c16702b42c1
:10591800f8d1032c2ad9ff220a40150215432a047c
:1059280015430f2c14d927001a00103f3e090136e1
:1059380036019e19156055609560d5601032964203
:10594800f8d10f2297431037db191440032c0dd9d7
:105958001a00271fbe080136b6009e1920c2b2429f
:10596800fcd1032297430437db191440002c05d0df
:10597800c9b21c19197001339c42fbd1f0bd140047
:045988000300c6e76b
:020000040000fa
:10598c0024224243204b30b5d25800011f4b520702
:10599c001cd01a18d1798c060bd59478002c08d110
:1059ac00d5785479a54204d10421147a214311727b
:1059bc001de04a061bd51a18d178002917d1947806
:1059cc0051798c4213d1147a0821efe71a18d17946
:1059dc008c0606d59478952c03d1d5785479a542ac
:1059ec00e2d04a0603d51a18d1789529e7d00c21b4
:1059fc001b181a7a0a4206d06020d9798143d971d2
:105a0c0002218a431a7230bda00800203401002004
:020000040000fa
:105a1c00204a214b70b50021934203d219700133f7
:105a2c009342fbd1002503261c4803684168002bd8
:105a3c0018d100292dd083680c30002b18d00023ee
:105a4c000022845c9c5401328a42fad333000b400e
:105a5c005a1e9341890859188900401803684168f7
:105a6c00002be6d082680c30002a07d10029dcd04c
:105a7c0059181d7001338b42fbd1d6e70029dfd1b9
:105a8c0033000b405a1e934189085918890040185d
:105a9c00e4e770bd7404002000000020e81e000044
:020000040000fa
:105aac00f8b5040002f03efa18210c236143194aa0
:105abc00194d52182601d3711372184aad19521888
:105acc00ab71002130250f27154813748019154e22
:105adc0003725374cab294461a004a43b218107a2d
:105aec00284010280fd1107a384084420bd10e4830
:105afc00005d604507d0107aa8431072107ac0b2ce
:105b0c0010720020506001310c29e3d102f014fa1c
:105b1c00f8bdc04654010020340100209c01002037
:0c5b2c0014010020e403002011010020ff
:020000040000fa
:105b3800f8b504000f00002101f0f6f81e4d26010b
:105b4800ab19012f1ed1222206211a71023a5a716d
:105b5800da798a43110004220a43da710222012108
:105b6800200000f0c3ff0c22ad192b7a1340082b3c
:105b780013d12021200001f0d7f80121200000f0e6
:105b880063f8f8bd4822d9791a71083a5a713a3a35
:105b980091430a43da710322e1e7042b05d140213e
:105ba800200001f0c1f80221e8e76021200001f09f
:0c5bb800bbf80321e2e7c04634010020e6
:020000040000fa
:105bc40010b5041e27d001f037fc9e231b1a962b18
:105bd4000adc9622d21a94406402640adbb264029c
:105be400db05600a184310bd992b17dc9922d21ae1
:105bf400002a27dd94402200134c1440510704d09e
:105c04000f210a40042a00d00434620112d4a401f2
:105c1400640adbb2e3e700230024e0e7b9222100b1
:105c2400d21a91400a00511e8a410521091acc401a
:105c34001443dbe7044b1c409f23a4011b1a640a92
:0c5c4400dbb2cce72200d7e7fffffffb3c
:020000040000fa
:105c5000f8b5012604000f00314214d00501164b9f
:105c60000435ed182a003300144901f0c7ff330052
:105c70002a001349200001f0c1ff33002a00114916
:105c8000200001f0bbffbb0715d50b4b25010435e8
