:10000000301000200901000005010000050100007A
:1000100000000000000000000000000000000000E0
:1000200000000000000000000000000005010000CA
:1000300000000000000000000501000005010000B4
:100040000501000005010000050100000501000098
:100050005108000005010000050100000501000035
:100060000501000005010000050100000501000078
:10007000050100004D0B0000050100000501000016
:100080000501000005010000050100000501000058
:100090000501000005010000050100000501000048
:1000A0000501000010B5064C2378002B07D1054B45
:1000B000002B02D0044800E000BF0123237010BDD4
:1000C0007C04002000000000DC890000084B10B513
:1000D000002B03D00749084800E000BF0748036829
:1000E000002B00D110BD064B002BFBD09847F9E741
:1000F0000000000080040020DC890000DC89000092
:1001000000000000FEE700001148124970B5884267
:1001100004D00023104CCA18A24213D300210F4B65
:100120000F4A934212D3FF210E4B0F4A8B43936029
:1001300080230E4A51680B4353600D4B98470D4B7B
:100140009847FEE7C55804331560E4E702C3E8E7C3
:10015000DC890000000000207C0400207C040020DA
:10016000300800200000000000ED00E000400041E9
:10017000C585000079010000034B10B59847034B7B
:100180009847034B9847FCE7750400000D0C0000EE
:10019000990C0000002310B5934200DB10BDCC5C2D
:1001A000C4540133F8E700000223024A11780B43DC
:1001B000137070470020004210B5041E0FD10100DB
:1001C000074B984720002100064CA0470648C04630
:1001D000C046013880B20028F9D1FF21A04710BDE8
:1001E000950700000907000070170000044A10B5C9
:1001F0001368591C1160002B01D1024B984710BDA8
:100200009804002081030000044A10B51368013BE4
:100210001360002B01D1024B984710BD98040020B9
:100220008F03000007B50E4B01A8984780230D4AA5
:100230005B0011680B43022113600B4A13788B4358
:1002400013701423094A11690B431361BFF34F8FD5
:1002500030BF074B01A89847064B984707BDC046DB
:10026000ED01000000E100E00020004200ED00E0B0
:1002700009020000A901000010B50400481E05286D
:100280001AD805F011FF063A1B550303012420007C
:1002900010BD002C0BD121001C20274B9847FF21BB
:1002A0001C20264B98471C20254B9847EFE701223E
:1002B00002211000234B98470024E8E7002C08D1C6
:1002C00001211C201C4B984721001C201E4B9847E5
:1002D000DDE70022022101201A4B9847002202216B
:1002E00001201A4B9847002202210120184B984701
:1002F000012202211000174BDDE7002C05D101215E
:100300001C200D4B98470121DFE70022022101202C
:100310000C4B98470022022101200C4B98470022E9
:10032000022101200A4B9847002202210120E2E726
:10033000094B9847C0E7C046950700000907000031
:1003400029080000F95600000908000019570000AC
:10035000395700008D5700002502000010B5002815
:1003600001D1014B984710BDC904000010B5002809
:1003700002D11000014B984710BDC0460506000091
:10038000EFF31083036072B6BFF35F8F7047BFF364
:100390005F8F036883F31088704700000449054AA3
:1003A0000B6A1A40C0231343184308627047C046C3
:1003B000000800400200FFCF1E22F0B5244B254963
:1003C0001C68254BA60E18684B6893431A0002233D
:1003D00013434B60214A224B22499360516053786A
:1003E000DB09FCD182238027DB0153801E4B9D8CCF
:1003F000BD439D84DD68ED06FCD59125AD009D844F
:10040000DD68ED06FCD58505AD0DB60235438005EA
:100410009D62C00D154D0004E40E2843A40604435C
:100420000220DC629C8C20439884D8684006FCD56E
:1004300080235B0093600E4B1940E023DB001943DF
:100440000F23994351605378DB09FCD1F0BDC046BE
:10045000246080000040004128608000000C0040C3
:1004600001FA00000106230000080040DC0500003E
:10047000FFE0FFFF022310B5064A51680B435360AB
:10048000054B98470020054B9847054B9847054B6F
:10049000984710BD00400041A90400009D030000E2
:1004A000B903000089080000064B1A7AD2B21A720A
:1004B0005A7AD2B25A729A7AD2B29A72DA7AD2B29C
:1004C000DA727047000400408023174ADB0211688B
:1004D00010B50B431360154A154B1A80154A1100CD
:1004E00013785BB2002BFBDB134B00201A789207CA
:1004F00018D40122187802431A700B785BB2002BD3
:10050000FBDB41220D4BFF211A7002200C4B984758
:10051000012102200B4B98470B480C490C4B1860EB
:100520005960012010BDC046200400401A40000060
:10053000020C0040074800420048004201480042C7
:1005400095070000B1060000071A68A0016D6A3F18
:1005500000000020054A13785BB2002BFBDB022170
:10056000034A13788B4313707047C0460748004214
:10057000004800420E4A110013785BB2002BFBDBEF
:100580000C4B18800B785BB2002BFBDB06230A4A6E
:100590001370C046C046C046C046C046C046C046AE
:1005A000C046C046C046013B9BB2002BF1D170470C
:1005B000074800420848004200480042F8B50C4B8A
:1005C0000F00060098470B4B040098470A4D0200A5
:1005D0000B0030003900A847084B9847FC21084B16
:1005E00089059847002800D00134A0B2F8BDC04664
:1005F000557F0000BD7F000029790000E5800000E4
:100600001D6300001A4B10B50400984224D006D890
:10061000002810D0174B984211D000240DE0164B43
:1006200098421FD0154B9842F7D1154B15481A68C0
:100630005B68154908E0154B9847200010BD104B2A
:10064000104813491A685B68124CA047124B984730
:10065000124B04009847F0E7094B11481A685B6891
:100660001049F1E7064B10481A685B680F49EBE741
:100670002823000088130000983A0000204E000054
:1006800000000020FCA9F1D24D6203405505000096
:100690004D62E43FC16D0000BD050000750500001E
:1006A000022B8716D9CEF13F08AC1C5A643BFD3FA4
:1006B0001F2230B5124C02401219430801244D1C70
:1006C00003D11378A343137030BD157825431570FB
:1006D000FF2213400B4A9B181A78204208D00F20A3
:1006E00002401A701A7809011143C9B21970EBE778
:1006F0000F2082431A701A7801401143F6E7C04672
:10070000404400413044004101231F2283401040F7
:1007100001290AD0002913D0FF2905D10D4B1B3A1E
:10072000C01803789343037070470B4A1360094A5B
:100730008018042201780A430270084A1360F3E724
:10074000054A1360034A8018042201780A430270A4
:10075000034AF3E740440041044400411844004187
:100760001444004110B5002809D10121044B054A69
:100770001960054B1A60054A1A60054B984710BD71
:10078000044400410100024028440041000002C02E
:10079000090700001F2318401E3B834001291DD07C
:1007A000002911D00A290FD0FF290CD1114A99B282
:1007B00013608022D2050A430F490A601A0CC02335
:1007C0001B0613430B6070470A4A99B213600B4A29
:1007D0000A4309490A601A0C094BF2E7094A99B21F
:1007E00013608022D2050A4303491B0C0A60C02211
:1007F0001206E6E70444004128440041000002409C
:10080000000002C0084400411F2318401E3B8340E3
:10081000002902D0024A13607047024AFBE7C04633
:1008200018440041144400411F2318401E3B8340DC
:10083000044A99B20A4304491B0C0A60034A134351
:100840000B6070470000024028440041000002C0D5
:1008500013B50B4C22680192019A2260019A53044D
:1008600002D50020074B9847019B1B0402D50120AD
:10087000044B984723680193019B236013BDC04636
:1008800010180040D10C0000094A0A4B1A800022BF
:10089000094B1A700223094A11780B431370102375
:1008A000074A1360074A1360074A13607047C0463F
:1008B00003400000020C00400218004000180040F5
:1008C00080E100E080E200E000E100E070B5051E9C
:1008D00021D180241F4AE4011368234313601E4A78
:1008E000136823431360D0231C4A1B0511680B4374
:1008F000136001001A4B0E20984701210E20194B5E
:100900009847E0210E200903174B9847174B1A68A8
:1009100014431C6070BD0128FCD180240D4A2402C0
:1009200013680F20234313600B4A1368234313609B
:10093000D0230A4A1B0611680B4313600021084BA1
:10094000984729000F20074B9847F0210F200903F3
:10095000DAE7C04604180040141800401C18004094
:100960009507000009070000B10600000C180040C0
:1009700010B5002804D101000A30034B984710BD80
:100980000128FCD10021F8E70908000010B5002873
:1009900004D101210A30034B984710BD0128FCD136
:1009A0000100F8E709080000F0B50023012702263E
:1009B00009480A4D9CB2A24200D8F0BD04783C42DE
:1009C000FCD0CC5C2C7004783442FCD02C780478B9
:1009D0000133B4430470EDE70E08004218080042EA
:1009E000F0B50023FF2704250A489CB2A24200D894
:1009F000F0BD012604783442FBD0074C27700678FE
:100A00002E42FCD02478CC5404780133AC430470DB
:100A1000EBE7C0460E080042180800420223054AD0
:100A200011680B431360044A13881BB2002BFBDBD5
:100A30007047C0460008004210080042F8B5012780
:100A4000194D01210B20A847184E01210B20B0475A
:100A5000174C02210B20A04701210920A8470021A3
:100A60000920B04702210920A04701210A20A847F8
:100A70007F4201210A20B04739000A20A047002107
:100A80000820A8470B4BFF21082098470221082087
:100A9000A04701210800A84701210800B0473900FC
:100AA0000120A047F8BDC0469507000009080000D6
:100AB000B1060000090700000C220C4B1A701A68DE
:100AC0001A6080221968920211431960084B196854
:100AD0000A431A600223074A11780B431370064A2F
:100AE00013881BB2002BFBDB7047C0460008004296
:100AF000040800420A080042100800420423064A83
:100B000011680B431360054A054B1A80054A138888
:100B10001BB2002BFBDB7047200400400D4000009F
:100B2000020C00401008004210B5044B9847044BDB
:100B30009847044B9847044B984710BDFD0A0000A6
:100B4000B90A00003D0A00001D0A0000012210B58C
:100B5000024B1A70024B984710BDC0460E2000424F
:100B6000DD0C00008023114A5B00116800200B435C
:100B700013600F4A0F4B10491A80104B104A1A602D
:100B8000104A1180BA21104A1170104AB9391070F8
:100B90000F4A10700F4A117080210F4A89011160AD
:100BA000022219780A431A707047C0462004004098
:100BB00013400000020C00403731000000200042CA
:100BC000043600000A20004214200042182000428F
:100BD000192000420D20004200E100E070B5002025
:100BE000074EB047074D0020A847074C0020A047FC
:100BF0000120B0470120A8470120A04770BDC04692
:100C0000395B00006D230000AD0D000013B5164BDD
:100C10009847164B9847164C0020A0470120A04744
:100C2000144B9847144B9847144B9847144B01A802
:100C30009847144C23689B0605D50020124B984713
:100C40000020124B9847636A9B0605D501200E4B86
:100C5000984701200D4B98470D4B984701A80D4B25
:100C60009847012016BDC046D55E0000290B000044
:100C700065070000DD0B0000755B00004D5C0000A7
:100C8000ED01000008000020CD080000A15D00007B
:100C9000C12300000902000010B50A4C23689B061E
:100CA00005D50020084B98470020084B9847636AF9
:100CB0009B0605D50120044B98470120034B98471C
:100CC00010BDC04608000020492B0000015B000059
:100CD00010B5014B984710BDA95C000010B5014B41
:100CE000984710BD4560000070B50C2646430C4D7A
:100CF00004ACAD192D7A2478012D02D0032D07D034
:100D000070BD142343430748C018C1704271F7E710
:100D10001422424303488018C3704471F0E7C04670
:100D20004805002020050020142343430248C01832
:100D30000C23C170C3717047200500201423434366
:100D40000248C0180C234171C37170472005002070
:100D5000F8B5144B04000D00984714226243124961
:100D6000070A8A18130016009772070CD772070E2D
:100D7000083350721773093600280BD158681B7A54
:100D8000000A1B06034353721A0A72701A0C1B0ED8
:100D9000B270F37014235C43083B0C192571657124
:100DA000E371F8BD15320000200500201423002255
:100DB0004343114930B55A54CB18242148430F49B5
:100DC0000C254158662407209A715A74DD711C71F4
:100DD0005A739A73DA731A745A729A72DA721A73AD
:100DE0000140012904D15A70DA705A711D7230BD68
:100DF00012225C71DA70FAE720050020080000205A
:100E000010B51F240AB20C400123002A19DB091374
:100E10001BD119001A000F2C02D8164AE240D24307
:100E200001230A420DD0102C0BD818225043124A2D
:100E3000825C920707D5082C03D0053C63426341CE
:100E4000DBB2180010BD073CF8E7042C02D90123DF
:100E50000F2CF6D1182302225843074BC35C1342D0
:100E600001D0013CEAE7A31E9343DBB25842434161
:100E7000E6E7C04604C60000600500201822424391
:100E8000094B9B18142250435978084B0907890FC6
:100E90001818022904D12623C370333343717047D5
:100EA0002723C3703433F9E76005002020050020B4
:100EB00018224243084B9B18142250435978074B81
:100EC0001818C90703D509234271C3707047192345
:100ED000C3702C334371F9E7600500202005002022
:100EE00018224243084B9B18142250435978074B51
:100EF0001818C90704D50823C3701F3343717047FE
:100F00001D23C3702333F9E760050020200500206E
:100F1000142358430C4B70B518180679662E02D16D
:100F2000C170427170BD030084680833250A047BD8
:100F30001B7A24062C43C5681B062D0A2B439C42B2
:100F4000EED04671EEE7C046200500201422424351
:100F5000064B10B59B18DB78042B01D0172B02D160
:100F6000034B984710BD034BFBE7C046200500200C
:100F7000B10E0000E10E000070B5124B0E0089B2F8
:100F800005009847012817D114226A430E4B9B187D
:100F9000DA78052A01D0182A04D128000B4B98478B
:100FA000022070BD9C7908231C40FAD12800310032
:100FB000074B98472000F4E7FD231840434258416F
:100FC000C0B2EEE7010E0000200500207D0E0000FB
:100FD0004D0F0000142343430248C01801234374FB
:100FE0007047C04620050020142343430448C0181E
:100FF00010238279134383710C2303727047C04618
:101000002005002014224243084B9B18182250430D
:10101000D978074B1818252904D110234278134397
:1010200043707047102243789343F9E7200500206E
:101030006005002010B514246043044C044B2418B0
:10104000E07998470C23E37110BDC04620050020CD
:10105000655F0000F8B5994B04000D009847012822
:101060000BD11F236A04520F2B40002A00D171E0DC
:10107000022B40D002D8012B19D0F8BD032B4AD047
:101080000F2BFAD1142363438D4AD318DB78182B26
:1010900008D0052B06D0182060438A4909184978E2
:1010A000C9064FD514235C431133121921E01423D0
:1010B0006343834AD3185B79322B0DD03D2B14D078
:1010C000182161437F4B5B185B78DB060DD4290048
:1010D00020007D4B9847D0E720007C4B98470022AA
:1010E000152120007A4B9847C7E714235C4301334E
:1010F0001219D370C1E714226243714B9B18DB783D
:10110000022B04D0052BE2D100220321E9E72000C5
:101110006E4B9847F8E714236343694DEB18DB786F
:10112000182B01D0052BA8D16A4B200098476A4B99
:101130009842A2D114235C43DB182D19EB70353390
:101140006B719AE70F2B98D12000604B98470022D3
:101150001021C6E7D81E0A2800D98EE704F0AEFF9A
:101160000B002A008DFF4C0062006E008DFF8DFF8A
:1011700085002A009B0014273B006343504EF6185D
:101180007379382B05D12000504B9847392217210D
:10119000A7E7442B05D120004C4B9847312239005A
:1011A0009FE72A2B93D1494B200098470223F370E5
:1011B000737162E7142211006143414E7618717910
:1011C000382984D1B179C90713D50C2B0DD10A3335
:1011D000220042496420424DA847424B24011C1979
:1011E000A0711823F3702533E2E7042B00D044E705
:1011F000F7E7F2703123DBE714226243304B9B1890
:101200005B793B2B05D12000304B98473C221821BD
:1012100067E74E2B00D05AE720002C4B984753220B
:1012200022215EE714226243254B9B18DA78052AB7
:1012300000D04CE7033ADA705A711EE71422624379
:101240001F4B9A18D278182A07D0182161431D4ADB
:1012500052185278D20600D439E7142254431C198C
:101260001B23E3703033637107E714236343144A8D
:10127000D318DB78182B09D0052B07D01821614330
:10128000104B5B185B78DB0600D420E714235C432B
:101290000B3312192DE7182262430A4B9B181422B4
:1012A00054435978064B1C19C90703D50E23E37024
:1012B0001733D8E71C23E3702233D4E7790F0000FB
:1012C00020050020600500204D0F000035100000B3
:1012D000110F0000DD24000088130000290D00001C
:1012E000015F0000000500201423F7B51A004243F7
:1012F000B24F0600BA18D0781F3809286AD804F00F
:10130000E7FE4A0062008C009F00CA00EB00060165
:101310000A002F0024017343FB185B79592B59D124
:10132000002310211A003000A54CA047242373434A
:10133000A44A9B5807221340012B0FD0A249142422
:101340005A2374433C196371A04B0191009300230D
:101350000200190030009E4CA0473BE09D49EEE79B
:101360007343FB185B795B2B34D1002304211A00F3
:101370003000934CA04724237343924A9B58072282
:101380001340012B05D09049142474435C233C196D
:10139000D9E79049F8E730008F4B984700280AD1E9
:1013A000182272438D4B9B189B7C002B03D130007D
:1013B0008B4B98470EE01424202374433C19E370B0
:1013C0003033637106E07343FC186379502B02D00D
:1013D000522B15D0F7BD002303211A003000784CA2
:1013E000A047182272437D4B9B185B78DB0705D41E
:1013F0007C491424744351233C19A4E77A49F8E743
:101400003000754B9847002803D02123E3702C331C
:10141000D7E72323E3703233D3E77343FC186379B0
:101420004D2B04D04F2BD5D13000704BC1E74F234B
:1014300032006F4964206F4DA8474E23E071C0E72A
:101440007343FF187B79532B14D0542BC2D1300037
:10145000614B98470028BDD13000674B9847182151
:101460004E435E4A96197378DB0711D50523FB704E
:101470000C330BE000213000604B98470023320012
:101480005F4923205B4DA8475423F8717B71A1E786
:10149000F9703D23FAE77343FC186379552B0ED09E
:1014A000562B97D130004C4B9847002800D191E73C
:1014B000514B300098472423E370333381E70121F7
:1014C00030004E4B9847002332004E499620494D3C
:1014D000A8475623E07174E77343FB185B79572BD9
:1014E00000D077E7002306211A003000344CA047D3
:1014F00018227243394B9B185B78DB0705D43249BD
:101500001424744358233C191DE73249F8E703209B
:101510000A689209024200D05CE718210B001424EB
:1015200073432E4A7443D21852783C1993080340EF
:10153000012B08D11A4203D00433E3700C3340E787
:10154000E1703D233DE72623B6E77343FD186B7931
:101550005D2B12D05F2B00D03CE718247443300081
:10156000294B002198471D4E1A2336197278D2074D
:1015700020D50B22EA706B712CE7A0230A68DB05EB
:101580009A420ED1012130001F4B98475F23320051
:101590001E492D20174CA047142474435E233C1988
:1015A0000FE70C2272431A4B9B181022997A0A43B8
:1015B0009A72F1E7EB704723DDE7C0462005002073
:1015C000692D000008000020183D1D40E90C0000B6
:1015D000E5360000051108275D29000060050020A0
:1015E0007D0E000020521D4020520827B10E000041
:1015F000510D0000015F000035100000C9240000FB
:10160000512C0000C52B0000653600003D0D000088
:10161000480500208222F0B5C7B052000021040026
:10162000434B05A80B25984700236D442B7003936B
:101630002000404B9847404B04A89847142363432D
:101640003E4AD318597C00290FD0182060433C49EA
:1016500009184978C9075CD50A21D9700D3159712B
:1016600014236343D2180023537404A8354B9847BE
:101670002000354B98470023344E009303AA05AB56
:1016800029002000B0470A232C4E184227D01822E8
:10169000032762432A4BD15C039B88083840844669
:1016A00027489B0982181F400C20BC4535D951782A
:1016B0009B00814303400B4353702000244B984709
:1016C00014236343F3181A000399200059730B0A7B
:1016D00093730B0CD3730B0E13741E4B9847142388
:1016E00063431822F618662362433371144B9B1828
:1016F0005B782A78DB0715D52000039B164E05A9D9
:10170000B04720002A78039B05A9144CA04747B096
:10171000F0BD1A21D9702D31A1E7537883430840D9
:101720000343C9E7039B05A920000D4EE8E7C04627
:101730000D860000DD380000ED01000020050020CE
:101740006005002009020000051000002D3D00008A
:10175000252D000055100000711B0000E91200004B
:1017600065170000F0B509278DB0039302ABFF1891
:101770000B230A243B7002ABE418FF2305000291FF
:1017800023701C220021C74B05A89847C64B220096
:101790003900280098473B78C44E053B012B0AD8F6
:1017A00014236B43F118CA78123A012A03D9002294
:1017B000F2541223CB70142423006B43F318D8780F
:1017C00012380B283DD804F083FC0C0019003500BA
:1017D00054007500A400BA00C800E3003E015601A1
:1017E000A10114242800B24B984741226543761981
:1017F000B3799343B3711323F37022E0AD4B280008
:101800009847AD4B010098421BD13B78072B18D16C
:1018100018226A43A94B28009B180A229B88A84CCF
:101820005A43012392B2A04714235D437619F37003
:10183000312317E06C4337197B79312B03D0332BDD
:1018400012D00DB0F0BD335D022B07D8D220332368
:101850002A009C49FF309C4CA047F8711424322385
:10186000654376197371ECE71923FB702C337B7198
:10187000E7E7270000236F43F3556B46029A9989E7
:101880002800924B98472A0018235A438B4DF6198B
:10189000AD18AA89698912040A4307D1B279D2071F
:1018A00002D5F3703D23DDE7F470C1E71623F37032
:1018B0001E33D7E76C4336197379362B20D0372B7C
:1018C0002FD0342BBDD10023012202212800804CCF
:1018D000A04718226A43794B9B185A8908339B8882
:1018E0001B0413430593352373717A4B01937A4B91
:1018F00002000093002105AB2800784CA047A0E728
:1019000037232A006F491A206F4CA0473823F07103
:10191000A8E76C4336197379392B06D03A2B00D0DF
:101920008FE71923F3702C339CE7FA203A232A001F
:1019300064494000644CA0473B23F07192E76C433C
:10194000361973793C2B00D07BE7654B280098470C
:101950000123B2791343B371A4E76C4337197B7940
:10196000452B00D06DE728005E4B98474023BA799D
:1019700028001343BB7100235B4D1A001900A847D0
:101980001A23FB702D337B71335D0133335558E7D8
:101990006C43341960794738032800D951E704F0C3
:1019A00083FB021B2934142440236C433619B2797B
:1019B00028001343B3714D4B9847002818D00021DD
:1019C00028004B4B984700232A004A4923203E4CCD
:1019D000A0474823F07145E72800444B984700286A
:1019E00000D02EE7142428003E4B98476543761913
:1019F000492337E7002328001A001900304CA0477C
:101A0000142465434A2376192CE72A4B280098476B
:101A1000031E00D015E718216943284A28005218F0
:101A200091880A224A43264C92B22349A0471424A3
:101A30002800314B9847402265437619B379934388
:101A4000B3711223D8E66C43361973794B2B00D04F
:101A5000F7E60B2402ABE418210005AA2800274B67
:101A600098472278002304212800194CA0474C23D2
:101A70007371234B3AE76C43361973793E2B00D0D0
:101A8000DFE62800174B9847002128001D4B984798
:101A9000002303211A0028000D4CA0473F23737137
:101AA000194B23E70D8600000924000020050020C3
:101AB000613E0000DD240000881300006005002066
:101AC000814A0000510D0000015F0000D127000095
:101AD000692D000016361D40E90C0000E5360000B7
:101AE0009524000035100000553A00005D290000E3
:101AF000C9240000512C0000A9310000F926000083
:101B0000183D1D4085310000143119456C433619CC
:101B10007379422B16D0432B00D102E7402B00D023
:101B20008FE628000C4B9847002128000B4B984764
:101B300000230D211A002800094CA047412373718E
:101B4000084BD3E643232A0007491A20074CA04735
:101B50004423F07186E6C046351000008531000050
:101B6000692D00001D421945510D0000015F000064
:101B7000F0B500250D2791B0039304AB04001D734D
:101B80000291059229001C22BC4B09A80895984790
:101B900004AB0E22FF180F260B2304A95218761847
:101BA0003B70137039002000B54B357098473100F9
:101BB000B44B2000984714236343B34D0493EE18AD
:101BC00066233F783371002F0BD1F378002B08D0B8
:101BD000AE4B200098470C23F371049BF77077718C
:101BE0005F5514231A006243AA18D07811281AD816
:101BF00004F06EFA12007E015300AA00BE0030010C
:101C000019001801AA02A601CA01E201190019006F
:101C1000F5020B03760396036343ED186B79002BF3
:101C200003D0012B1AD011B0F0BD03226B70AB7939
:101C300020009343AB71964B984718220C216243C6
:101C4000944B20009B185A788A43110008220A43BB
:101C50005A70914B984701236B71E4E70D2304AA56
:101C60009B181B78022BDED10E2204A95218127881
:101C7000042AD8D10B3252181278002A01D1EB7005
:101C8000EAE70F23EB701E336B71153B6343814C06
:101C9000E41896235B00A380C5E7190061436E1822
:101CA0007279042A4CD0052A39D0022ABBD16B5C48
:101CB000022B0DD9B379D9060AD5134205D00022DB
:101CC00009212000754B9847ADE70623F370AAE77A
:101CD00009AA07A92000724B984704AB1A7B01217F
:101CE000002320006F4EB04714231A006243AA1845
:101CF0009279920711D46C4E6343ED186B780133DF
:101D00006B7003236B7109AB0021684A0196009246
:101D100002002000664CA04785E7664EECE70023F2
:101D20006B54B279737003337371013B1343B37116
:101D30002200042360491A20604CA047F07172E72A
:101D40000922F27073716EE76B4620009989029A3E
:101D50005B4B984714235C432C19012803D1103B9B
:101D6000E370073302E00723E370023363715AE73D
:101D70006343EB1858790B38042800D953E704F073
:101D80009DF905002F0052FF13001F000023454E50
:101D90001A0003212000B04714236343ED180D23DC
:101DA000484E6B710023AFE70F23220046491C20E9
:101DB000424EB04714235C432C19E071073BD5E732
:101DC0002000424B98471E20002322004049FF304C
:101DD0003A4EB04714235C432C19E071083BC5E729
:101DE0001823322663432B4A2000D2181389D18846
:101DF0001B040B431B039B0D5E43364B98478642E7
:101E000000D010E72000344B98470023254E1A00DD
:101E100006212000B04714236343ED180D232F4EF5
:101E20006B71BFE76343EB185A79092A00D0FAE6D1
:101E30009B79DB070CD42A4E002304211A002000D2
:101E4000184FB84714236343ED180A236B71A9E7B1
:101E5000244EF1E76343ED186B79102B00D0E2E6D6
:101E6000AA790F3B1343AB71112320006B711E4BFA
:101E70009847002120001D4B9847D4E60D860000AE
:101E8000092400002124000020050020A15F00009B
:101E9000613E000060050020252D00003524000073
:101EA00055260000692D000002050106E90C00001E
:101EB000E536000002050827510D0000015F000013
:101EC00079250000040E09143D0D00004524000092
:101ED000992B0000DD2400003510000005100914C6
:101EE0000C0008270510082795240000053E000077
:101EF0006343EE187279062A13D0082A00D092E6BE
:101F00007278322A07D8EB5C022B13D91222B379EC
:101F10001340102B0ED114235C430E3B2C19E3709D
:101F200081E608232200D2499620D24CA0470723FD
:101F3000F07107E714235C43123B2C19E37015E79B
:101F40006343EE1802937379142B06D0162B00D03E
:101F500069E60B23F3700F33F4E62000C64B984775
:101F6000002320001A001900C44FB847029B029AB0
:101F7000EB5CBF490133AB541C2016232200BD4C3F
:101F8000A0471523F071DDE66343ED186B79172B3D
:101F900006D0192B00D046E60B23EB700F335BE61F
:101FA0002000B54B984719232200B1491C20B14CA1
:101FB000A0471823E8714FE66343EB1858791A38A5
:101FC000082800D92FE604F079F80900210036002E
:101FD0002EFE4C0051007300A500B3002000A84B5A
:101FE0009847002803D000212000A64B98472000E6
:101FF0000021A54B984700232200A449A4489D4EE8
:10200000B04714235C432C19E071AAE62000A14BD1
:102010009847061E00D006E62000974B98473300ED
:1020200022009D492320934EB04714235C432C1972
:10203000E07108339AE62000914B9847002800D0C1
:10204000F1E520008C4B9847C8201E2322008849C8
:102050008000884EB04714235C432C19E07109338B
:1020600084E614235C430B332C197FE60F2304AA68
:102070009B181B78002B0AD018226243874B9B18B1
:102080009B7C002B03D0012120007E4B9847200031
:1020900001217D4B98471420002322007B49FF300B
:1020A000744EB04714235C432C19E0710C335DE689
:1020B000784B200098477A4B0700984200D0B2E551
:1020C00020006D4B98472000764B984718230A262E
:1020D0006343724A3900D3189A88029372430123EA
:1020E00092B22000704FB8470F2304AA9B181B78A8
:1020F000002B18D0029B9B7C002B14D000232200C5
:1021000030006A495B4EB04714235C432C19E071E0
:102110000D332BE620005A4B9847002800D182E56A
:102120002000554B984714235C430E332C191DE6B1
:10213000002322005E495F484E4EB04714235C43A3
:102140002C1920720023F9E66343EB1858792738DD
:10215000052800D967E503F0B1FF06001A0066FD07
:1021600066FD3C0030002000434B984700212000D2
:10217000514B98470023514E1A000D212000B047C3
:1021800014236343ED182A234D4E6B710AE6200099
:10219000394B984701212000474B98470023494E6F
:1021A0001A000D212000B04714236343ED182A23A1
:1021B0006B710023424E0121A7E52B2322002C49FD
:1021C0001A202C4EB04714235C432C19E0711633AF
:1021D000CCE5142309225C432C19E270C6E5634365
:1021E000ED186B79252B00D01DE52000224B984778
:1021F0002000354B98470023304E1A000321200061
:10220000B0472623314E6B71CCE56343EE187379EA
:102210002F2B22D0302B29D02D2B00D003E51822D4
:1022200062431E4B9B185B781B079B0F012B12D13F
:10223000274B0893234E002301220F212000B04793
:1022400014236343ED18AB78224E0133AB702E2379
:102250006B7108ABAFE7204BEBE7302322001F493F
:102260001C20044CA0472E23F0716BE511232DE5B3
:102270003D0D0000015F000035100000553A0000E0
:102280005D290000C924000015250000992B0000DD
:102290008A020000DD240000512C000060050020AF
:1022A00088130000A9310000814A0000C52B0000FE
:1022B000E90F00007C15000085310000692D000049
:1022C000082C0914A12D000091310000020209140C
:1022D000018000FF0F2F110001A000FF510D000031
:1022E0006B4605999A892000029B1E4EB047012833
:1022F00011D118220C2162431B4B9B185A788A4338
:10230000110008220A435A7014235C4300232C193D
:10231000A370023312E614235C43033B2C19FEE541
:10232000182263435443ED180F4BA9781C196378A6
:1023300014290DD90C3A93431A00082313436370F0
:102340002023AA791343AB710023AB70023396E4C8
:102350000C2293431A000423134363700F23EB7082
:102360001E3379E4AD2600006005002018234343A6
:1023700030B5114C114DE21851781A5D24234343B6
:102380005B5907252B40012B12D0082319431A4310
:102390001823584323182254597000220C2101207D
:1023A0009973DA741A741A759874D9735A7430BDA3
:1023B0000B231A431943EBE76005002008000020B7
:1023C00010B50D4C23689B0608D500200B4B984791
:1023D00000200B4B984700200A4B9847636A9B06E6
:1023E00008D50120054B98470120054B984701204F
:1023F000044B984710BDC04608000020F15900006A
:10240000ED4C0000BD330000044B000110B5C45C6E
:102410001B180C705B78137010BDC04600050020BF
:10242000012203010248C018C37913400B707047A2
:1024300000050020024B0001C1541B185A70704760
:1024400000050020F7B51824322744430E4B060040
:102450001C192589E3882D041D432B039B0D5F4325
:102460000A23ED05ED0D6B430193019A002339001A
:10247000064DA8476378DB0705D5E178019B3A0054
:102480003000034CA047F7BD60050020814A0000E2
:102490002D5E0000182210B54243094B094C9B18D1
:1024A0001989DA88090411430A22CB05DB0D5A4346
:1024B00032230903890D5943313BA04710BDC04663
:1024C00060050020814A000010B5034B012901D1AD
:1024D000984710BD0021FBE7E9430000030101001C
:1024E00000200A4AD218137A5B065B0F83420CD095
:1024F00009224A43013BDBB20548D3189B00C318AD
:10250000586832230003800D5843704700050020AF
:1025100008000020F7B518220A244243114B050099
:102520009B189B8801915C430F4FA4B20F4E012969
:1025300009D1002322000E49B84723000C4A019913
:102540002800B047F7BD002322001900B847002239
:10255000230011002800B04701212800054B9847AF
:10256000F0E7C04660050020814A00002D5E0000B3
:1025700088130000AD5E0000F0B5537801001078BC
:102580001B021843D478937809224A436406640FE7
:102590001B040343601E12181C4D9200AA185668B3
:1025A0001B03B2059B0D920D002093422BD8844251
:1025B00029D024224A43AD180135EA7FA24222D312
:1025C00014254D43124A012752190D01AC46114DF5
:1025D00092796544ED7952093A403D4095430E4A5F
:1025E000854211D018254D435519AD889D42404173
:1025F0000300C0B2BB4206D1182359435118CE8004
:10260000360C0E81CC70F0BD3800F5E708000020D4
:102610002005002000050020600500209622C3054B
:10262000DB0D5200934202D9400A4002104370472A
:10263000F7B506000024064F01919500AC4200D189
:10264000F7BD019B1859B84730510434F6E7C0462E
:102650001D26000070B52423040063430E4D1000B6
:10266000EA180132D27F0A70191D0C4B4919250155
:102670005B19DB79DB070CD518235C43084B1B196E
:10268000FA249B886400A34203D19200054B98472B
:1026900070BD054B9847FBE70800002000050020AF
:1026A00060050020950100003126000010B50324CC
:1026B0001A68910921400239022201290BD91A69AD
:1026C00052092240012A08D1182343430948C0185F
:1026D00096235B008380100010BD022A08D11823C6
:1026E00043430448013AC018FA235B008380F2E7B1
:1026F0000122F0E760050020242370B51400434355
:10270000064DEA180132D07F0870D27F191D491991
:1027100092002000024B984770BDC0460800002080
:1027200095010000F0B517001500002487B0029055
:102730000491029AE3B20393934205D31000013847
:10274000431C38D0002233E0049AA300D35801344C
:10275000019318033223800D5843184B98471849AA
:10276000184EB047019B059098050A23800D5843E9
:10277000124B98471249B047134B011C05989847D4
:10278000124B98476B461B7B28706B700235D0E765
:102790005300FC180233FB18257819788D4205D8B0
:1027A00021706678597861701D705E700132D2B206
:1027B0008242EDDBC3E707B0F0BDC046356D0000D7
:1027C00000007A449D6300007D67000031630000D3
:1027D000F0B58FB006AC0AAE5A4D00900F000192D2
:1027E00000210E222000A8470E2200213000A84719
:1027F0002421009B544D59436B180133DB7F7F0428
:10280000029304317B0F49193200504F0298039311
:10281000B847220001990398B8470923009A7778AE
:102820005343DB199B00ED1832786B6804929A0AC7
:102830009446039A9E05520005920022B60D059912
:102840008A421CD10132A3180393029B009A5B00B9
:102850000133E318029306AB5C1C09235A439446E8
:10286000039B9C423ED02178019A8B009A5806AB7C
:10287000970A5D1C029B9D4238D10234F0E7A15CAF
:102880000498814230D3A1184978019D88000391B2
:1028900061464059850A4D40AD0525D18005800D22
:1028A000B04221D31822009929484A438218802037
:1028B0005C088004274D204003999C022C40204353
:1028C0000131090706430E4399055681890D360CDF
:1028D000D38001371B0C968191801381D7700098AB
:1028E0001D4B98470FB0F0BD0232A8E763462E7823
:1028F00015489B199B00C3185B680235980A7840FD
:102900008005B7D18027009C18306043104C950299
:102910002018104C5B0825409405A40DBF042543E6
:1029200001313B402B430D078021C90429430B4350
:102930004381C2801B0C120C01368381848002818A
:10294000C670CCE70D860000080000202527000097
:102950006005002000FC0F0045240000030104482E
:10296000C0180C23007A1840431E9841C0B270472B
:1029700000050020F0B5684F030185B00193DB5DD1
:102980000400664D002B25D10301FB185B78012B59
:1029900027D118262000624B984700236643AE19C2
:1029A0003375B07B5F4B98470C23B37300233374AC
:1029B0000123F07BB3745B4B98470C23F373002324
:1029C00002A87374584B9847002302A8F374574B1E
:1029D000984706E0052B04D10301FB185B78022B16
:1029E000D7D018236343EB181B7D002B2FD0142363
:1029F00063434F4AD3185A791F2A02D0DB78122B2F
:102A000025D1182633006343EB185A7C022A01D9DA
:102A100000229A746643AE19337C022B58D90021E8
:102A20002000444B9847444B200098470023220144
:102A3000BA18337405335370142363433C4AD318D4
:102A40002A22DA70182300226343EB181A7518261D
:102A50006643AE19F37C002B38D01B070AD505213D
:102A60002000364B9847002830D02E4BF07B9847FB
:102A70000C23F373182608226643AE19F37C9343A4
:102A80000AD0062120002D4B984700281ED0254B48
:102A9000B07B98470C23B373142301216343244A6A
:102AA000D3189A790A4017D12001083139543F18B8
:102AB0007A702A32DA7003A81B4B984718235C43BC
:102AC00000232D19EB7403A8184B984705B0F0BDEF
:102AD0002000134B9847B5E718236343EB18DA7CC3
:102AE000120706D55A7C602101325A742000144B1B
:102AF0009847182308216343EB18DA7C8A4302D0F5
:102B00001A7C01321A740F4B200098471823634334
:102B1000EB18DA7C1A75CEE700050020600500206E
:102B2000B9580000655F0000ED01000009020000D7
:102B300020050020A12E0000A15F00007902000006
:102B400039420000B10E000010B50400044B984754
:102B50002000044B98472000034B984710BDC04607
:102B60008D4F0000151600007529000018234343FF
:102B70000348C0180C23C373002343747047C04636
:102B800060050020182343430248C018C37C194342
:102B9000C1747047600500200921084B0201D1541F
:102BA0009B1800225A70142343430548C0182A2357
:102BB000C3703C3343715A3BC3717047000500201A
:102BC000200500206022F8B5194D0301ED18EB79BE
:102BD00018269343EB7114234343164F4643FB18C7
:102BE000543ADA71144B04009E19B378032B1AD9A6
:102BF0000021124B98472000114B9847114B0021A0
:102C0000200098477378DB0703D5002120000E4B86
:102C1000984705236B7014235C4316333F19FB70F0
:102C20003C337B71F8BD0133B370084B9847F9E72B
:102C3000000500202005002060050020A12E0000D6
:102C4000A15F0000E943000015250000B10E00005F
:102C50000921074B0201D1549B1800225A701423FA
:102C600043430448C0180C23C3711E33C37070471C
:102C70000005002020050020182343430248C01807
:102C8000002383707047C04660050020142343432F
:102C90000248C01880794006C00F70472005002008
:102CA0000C225043064B30B518180F231E250B403D
:102CB000C17A5B00A9431943C172027230BDC0469C
:102CC000E804002070B50C244443124B02001B1989
:102CD0001B7A012B10D103330F491A200F4DA8473F
:102CE0001E220F4B1B1919001872DB7A93431A002E
:102CF00002231343CB7270BD023B012BFBD81E2174
:102D0000074B1B19DA7A8A43110008220A43DA7248
:102D1000F1E7C04648050020A12C0000015F00003B
:102D2000E8040020182210B5042442430B4B9B18E2
:102D30005B781907890F01394A4251419A001440C2
:102D400001225B082243DB0102311A4309010A43D5
:102D5000D2B20349034B984710BDC046600500201E
:102D6000021A0000A955000010B5182460430B4C4E
:102D700012032418D80308438021FF2364781043EA
:102D8000490022020A401043E0392201A4080A4007
:102D9000A40110431C40204380B210BD60050020F8
:102DA00010B5182444430748DB030019FF2440787A
:102DB000120380081A43800120401143084380B267
:102DC00010BDC04660050020F7B5802636020D0014
:102DD00001921F000E401CD134004B045B0F9B007E
:102DE0002A0A3D707A7001202A0403D5BE70360A83
:102DF000FE700230019AC318DBB2002A42D10300F0
:102E000000212218D2B293423FD101340019C0B23E
:102E1000FEBD80240B0CE4009EB21C4027D10C2286
:102E200042431C4880184189827AC905D206090F9D
:102E3000120F91421FD1D805C00D1A21164B984789
:102E4000002917D00320CBB2023108408910CAB242
:102E5000002804D00434241A0132E4B2D2B20F485C
:102E6000120328402D0C02432D041543B8E7022419
:102E70000023B5E70C001A23B2E711780130C0B285
:102E8000395401329842F8D1B9E70133DBB2F95431
:102E9000B9E7C046E8040020B1620000FF8F0000DF
:102EA00010B50B4B0400002909D0D2211222490190
:102EB0009847082220000749074B984710BDD221A8
:102EC000022249019847082202492000034BF4E7F7
:102ED000A9550000871A000081560000BD56000069
:102EE00070B5204B204904009847702318401028E3
:102EF00011D020281CD000280CD107210C304443CD
:102F00001A480019427A53075B0F01330B408A437A
:102F10001343437270BD0C2007214443134800192A
:102F2000427A93065B0F01330B40DB003131EEE751
:102F30000C2003223F2560430C4B181883680100C6
:102F4000DB035B0F01331A409401427A9B082A404D
:102F50002243427201208A7A0340824313438B72D8
:102F6000D8E7C04651560000041A0000480500206A
:102F7000242370B51C00C82144430B4A4901A418FE
:102F800022000A4E0500B0470C20637845435B06DB
:102F900007485B0F40196370827A0830D30602D469
:102FA00004231343837070BD9C040020D955000096
:102FB00048050020F0B50E2785B000236A46D421CD
:102FC00003AD6F442B7053733B702A0001334901EA
:102FD000484E0400B0472B7801252B4252D00D22D9
:102FE0002B006A4444492000B0473A002B00434973
:102FF0002000B0476B460F265A7B3B786E44134047
:10300000337032002B003C4920003D4FB8473278E6
:103010003C4E2A4203D00C236343F3181D729307DE
:1030200004D50C2303216343F3181972530704D505
:103030000C2302216343F3181972130704D50C23E0
:1030400004226343F3181A720C236343F3181B7AA8
:10305000042B02D020002C4B98470C236343F558D7
:10306000002D0AD0F3185968080C0A0AC3B2000AE6
:103070000090D2B2C9B22000A8470C236343F618CF
:103080000023337203AB1B789B0731D50D220E262C
:10309000184D6E4401236A441C492000A8473200A1
:1030A00001231B492000A8476B460F255A7B337824
:1030B0006D4413402B702A00012314492000104E48
:1030C000B0472B787F2B02D92000124B984708225B
:1030D0002B7813420CD00C2161430A4B20005B1863
:1030E0009B1899780A4310218A439A700A4B984793
:1030F00005B0F0BDD9550000811A0000861A000005
:103100003955000048050020E12E0000821A000019
:10311000871A0000712F0000D50F0000002270B543
:10312000914208D107240C324243134B9B185A7A20
:10313000A2435A720122CB0709D50C2438254443F7
:103140000D4B1B195C7AAC435C7202231A438B074C
:103150000ED50C213F254143074B5B18597A1C00C3
:103160002940597201219B7A8B43A37204231A438D
:103170000249034B984770BD480500204C1A0000D7
:10318000A955000010B5014B984710BD1D31000036
:1031900070B50500034C0021A04728000321A0477B
:1031A00070BDC0461D31000037B50D4B040001A8AD
:1031B00098470C22082162430A4B01A89B189A7A6F
:1031C0008A439A72084B9847084D2000002208490C
:1031D000A847D221122249012000A84737BDC04686
:1031E000ED0100004805002009020000A95500007B
:1031F000861A000070B50500044E054C310001220E
:10320000A047310028000022A04770BD8B1A0000A3
:10321000A95500000C214143064A5218937A002216
:103220005B0704D5242343430348C0184288100099
:103230007047C046480500209C04002010B50C24AF
:1032400044430B4B1C19A37A5B07DA0F002B04DAFB
:10325000084B98470023237210BD237A052B05D114
:10326000054B0122054998470623F4E72272F3E74C
:1032700048050020F5310000A9550000051A00009E
:1032800010B5044B040098470C225443024B1C1900
:10329000227210BD3D320000E80400208622520058
:1032A0004243F8B5134B06009B185F881A21FF05AF
:1032B000FF0D114B38009847104B441E1A2138005F
:1032C00098470C220F2556430D4B2C409B19002983
:1032D00006D160009C7A1232944304439C72F8BD7C
:1032E0001E22013425409C7A6D00944325439D7233
:1032F000F5E7C04694050020E5600000B1620000DB
:10330000E804002086235B004343104A70B5D118BF
:1033100004000879995A1F231940002811D11E3B37
:103320001A0020000A4DA8470C2384226343094C4D
:103330001206E4186389DB051B0FDB0613431843F1
:1033400070BD012320001A00034DECE79405002016
:10335000692D0000E8040020A12D000070B50C25A7
:103360006843034C034B2418207A9847257270BD9C
:10337000E8040020655F00000C2370B5202643435D
:103380000C4AD318D97A9A7AB1431F3EB143D97205
:103390001F210A4001398A439A7200221C005A7286
:1033A0009B7AB343A372E37A8B43E372024B984751
:1033B00070BDC046E80400205D330000F8B504008D
:1033C0004C4B98474C4E4D4A4D492000B0474D4A12
:1033D0004D492000B047D0214C4D542249012000D6
:1033E000A8474B4B200098474A4A4B492000B0471A
:1033F00064224A492000A8475E2249492000A84784
:10340000D5210A23474A49012000474FB847474A78
:1034100047492000B047434A18230A324549200053
:10342000414FB8473F4A18232232434920003E4FBC
:10343000B847012241492000A84718236343404F61
:103440009222DB5DDB0701D5902252008023A02170
:103450001B021A4389012000B0471022394920007D
:10346000A84718236343FB5C1E22DB0700D4062217
:1034700020003549A8472000344E10223449B04777
:10348000200088223349A847200080223249A847DB
:10349000200007223149A847200007223049A847C9
:1034A0009021200001228901A847200004222D49F3
:1034B000A847200010221421B0470C20020000254C
:1034C000C026624328498B1855501D725D605D7A95
:1034D00019003540EDB2813E35405D72F0259B7A92
:1034E0002B408B72214B9B1818722000204B984761
:1034F000F8BDC046F5310000C15500003C1E00007B
:103500000B1A00009F320000071A0000A9550000A6
:10351000252D000080C40000421A0000461A000059
:10352000491A000024880000795500009FC8000057
:10353000B01A000010280000302800000228000007
:103540006005002004280000411A00008156000098
:1035500001080000821A0000871A0000811A00008A
:10356000861A0000891A000048050020E80400209F
:1035700079330000F0B585B00500114B03A80F00AA
:1035800098470C236B430F4A9E58002E0FD00E4CC9
:10359000E418D31859682772080CC3B20A0A000A43
:1035A0000090D2B2C9B22800B0470023237203A80A
:1035B000064B98472800064B984705B0F0BDC0461B
:1035C000ED010000E8040020480500200902000089
:1035D00079330000F7B50C2444431D4B1B19197AAD
:1035E00001292ED11B4B1C1925006389A27ADB050A
:1035F000D2061B0F0835120F9A4225D00F26013331
:103600003340083E1E4076010196A67A020037003C
:103610001F2637403E00019F1A203E43A672DE0857
:10362000E37A8B433343E3720B4909230B4EB047D4
:103630001E222072EB7893431A000E231343EB7083
:10364000F7BD8B1E012BFBD8054B9847F8E7C0460A
:1036500048050020E8040020A12C0000015F0000C4
:103660007535000070B504000E1E15D010250E49EA
:1036700020000E4B98472842F9D002220C49200026
:103680000C4DA847D6210A2249012000A847012253
:1036900007492000A84770BD02220549054DA847EB
:1036A000D62132004901F4E7051A00005156000006
:1036B000C11A0000A955000037B5074B050001A845
:1036C0000C0098470C2045430448054B40190472F0
:1036D00001A8984737BDC046ED010000480500200D
:1036E00009020000F0B58BB0040000930C23634383
:1036F00068481600C318DA7A0F009206D20F944673
:1037000039D1320437D5862149006143624D4E5389
:103710006A181F251771997AF60129409972D97A8A
:103720001E3DA943D9728023F60D1B021E43009B48
:103730005680002B04D06346F105C90D8B4213DD82
:103740000C236343119AC5186A60109AC250534BF8
:10375000200098471E22EB7A93430C321343EB72FE
:10376000032528000BB0F0BD0099CD5CD1180133C2
:103770004D719BB2E0E70C236343494D1199EA1860
:103780005160109A5A5118236343464A9A5C464B3B
:10379000D2070DD51E224549200098470C23012F42
:1037A00044D0002F06D0022F47D000273D0006E06E
:1037B0000622F0E76343ED186D7A6D076D0F6B021B
:1037C00033430193009A02AB0199394E2000B04770
:1037D0000722009037492000334B98476B46C021A1
:1037E0001B8802AA49012000334EB047009A334992
:1037F00020002D4B984788223D432A432A4B3049CD
:10380000200098470C236343254AD3181B7A092BC1
:1038100006D00A2B18D10199153319400D2913D060
:1038200005212000274B984702259AE76343ED18AE
:103830006D7A1027AD066D0FC1E76343EB189D68E5
:103840002027ED036D0FBAE70C236343D218937A58
:103850005B070DD5242262431B4B9B185D78002D1E
:1038600006D12000194B98472000194B984778E75C
:10387000102518492000184B98472842F9D00122FA
:1038800014492000084B9847062120000D4B98470B
:10389000012566E7E8040020940500209D32000021
:1038A0004805002060050020A9550000411A0000CD
:1038B000C92D0000861A000079550000031A000087
:1038C000041A0000B93600009C040020E12E00001C
:1038D000F5310000051A0000515600000C23F0B528
:1038E0004343504F0400FB18D87A85B0830618D59F
:1038F000C006000F0238082813D802F0D5FB0512C5
:10390000303C1212837488000C2565437F190837F8
:10391000FA785606F60F06D01E239A430A3B1A433E
:10392000FA7005B0F0BD404B200098478621490051
:1039300061433E4B02005B1819793D4B2000019317
:103940003C4B3D4C00933300A0471E22FB78934331
:10395000183A012800D008221343FB70E1E70C223B
:103960006243364B20009B180222997A0A439A72CE
:10397000334B9847D5E70C26350065437D1908354C
:10398000EB785A0605D51E2293430A3A1343EB708F
:10399000C7E7862040006043244F69883B185A8857
:1039A0009C46C905274B090F1A40CB021A43130442
:1039B0001A2251430393431DC25B5B1803992248AB
:1039C0000A436146097901902048DB1900902000E4
:1039D000194CA0471E22EB789343012801D13343B1
:1039E000D5E71026FBE70C2565437F1908377B8850
:1039F0000121DB051B0F06D01E22FB7893431A0022
:103A00001023A9E703212000114B984789E70C25D3
:103A100020000B4B984740226C433F19FB7A93439D
:103A2000FB727EE7E80400200533000094050020C7
:103A300001000400C52C0000E53600004805002008
:103A400079330000FF87FFFF0C070808D535000019
:103A500075350000F8B504000E000C2161431148D3
:103A600045180A506B600E220F4920000F4DA847E1
:103A700008220F492000A8470E4F002E0BD00E49F8
:103A800021222000A84708212000B8470E220B4918
:103A90002000A847F8BD084905222000A8470721B3
:103AA000F2E7C04648050020811A0000A955000031
:103AB000041A0000B9360000051A0000861A00003A
:103AC000F0B50C2646438E4B87B09B199B7A0400B9
:103AD00000275B074CD5242242438A4B8A4D9B1812
:103AE0005A8811B2B94200DBF3E05A791B7912020D
:103AF00013431BB201936B469B880293DB12039323
:103B0000029B5B053DD5814B98470F22039BAD1966
:103B100013401A006B890835DB051B0F9A422AD126
:103B2000019BBB4227DA1E22EB7893431A000A233B
:103B30001343EB700C236343714DEB181B7A052B79
:103B400002D0093B012B06D82000704B984700217A
:103B500020006F4B984705A86E4B98470C23042212
:103B60005C432C19A37A05A89343A3726A4B984728
:103B7000380007B0F0BD03212000684B98470027AC
:103B8000D8E70F21039F0F405BD1AE19F27A0836B8
:103B900093060DD5D3061B0F5B180B40022B04D8E0
:103BA0001E239A43163B1A43F27020005C4B984741
:103BB0000C236343ED182023EA7A5A481343EB722F
:103BC0002425862365435B004E4A6343521955788A
:103BD0005288C1181A526B4620001B890D714B8008
:103BE000514B0C25984729006143474B2800591831
:103BF0004A89D205120F974261D1019A002A5EDAF2
:103C000024220F0062433F4B0A389B185A880295C2
:103C10005204520F92000937904214DB029B3A4A39
:103C20006343D2181000083041888378C905DB0649
:103C3000090F1B0F994226D12000394B98470827BE
:103C400078E7324BCDE78B687E78DD03ED0D6B1C9A
:103C5000DB05DB0D3B701B0A019301239E439C4651
:103C6000019B33438626760066437B702D4B9B1960
:103C7000242666435D19234B9B191B181B7960444E
:103C80006B71C0B2C8E71E21C3781F258B43190092
:103C900004230B430F21C3704388DB051B0F013343
:103CA0000B40083919404801917A2940014301200D
:103CB0009172D908D37A83430B43D3725FE71E21F5
:103CC00060431B18DA7A8A43110008220A43DA7229
:103CD00055E7AD19EB7A99060DD51F210A40052A43
:103CE00009D00F22DB061B0F0F3313400C4A022BA7
:103CF00004D89047102702231F431BE79047FAE799
:103D0000480500209C040020E80400205D330000EA
:103D1000B9360000ED010000090200007535000011
:103D200079330000940500209D320000F7B51D0096
:103D3000304B0E001700040098476A46D080D188A7
:103D40008446002909D10C2262432B4B9B189B7A95
:103D50009A0702D408001B071ED5022263461340AF
:103D600021D022326243254B9B185A7832705A88F0
:103D70003A60002D08D0002007279E1C32881213BD
:103D80003A409200904208DB089BCDB2002B02D053
:103D90002900200098472800FEBD1A1812792A54DD
:103DA000013080B2EAE76046000716D58620400061
:103DB0006043134A12181079307010683860971CED
:103DC000002DE1D03888C005C00D8342DCDAD01860
:103DD0004079E85401339BB2F4E70C216143064B70
:103DE0005B18987A042108338507CDD590439870E5
:103DF0000C31C9E7C13A0000480500209C040020AE
:103E00009405002070B50C26002446430E4B050097
:103E10009B191B7AA34212D10C4BA14211D0012154
:103E2000984723000A492A0010200A4CA0470A4B51
:103E300009219E193072094B28009847012420005F
:103E400070BD21009847F9E748050020D5470000DC
:103E500081320000015F0000E8040020B936000054
:103E600010B50400094B9847200000220849094B6F
:103E700098470C2210216243074B20009B189A7A26
:103E80008A439A72054B984710BDC0469131000095
:103E9000861A0000A955000048050020F5310000F1
:103EA000182343430348C0180C238373002303746F
:103EB0007047C0466005002003010348C0180C236A
:103EC000417083717047C04600050020044B00011B
:103ED000C1541818002343700C3383717047C046D7
:103EE000000500200D4B30B50501581902794479C1
:103EF000032905D8080002F0D7F802070A0D952219
:103F00005B191A715C7130BD20242122F8E720244E
:103F10002222F5E740244822F2E7C04600050020AF
:103F2000AF4B02019B180122F0B587B0040002914B
:103F30001F7A11423BD004AB5D1DAA491300AA4E63
:103F40002A00B0472B787F2B05D901232A00A549E9
:103F50002000A64EB0472B789B070DD004AA022361
:103F60000632A3492000A04DA84704AA0223063226
:103F70009F4920009D4DA847022304AA951D2A00B1
:103F80009C492000984E1F43B047242363439A4A1C
:103F9000200199580723924A194012182B880129A9
:103FA00000D0A2E0D9431B0ADB439170D370029B7F
:103FB0005B051DD504AB5D1D8B4E01232A008F4987
:103FC0002000B0472B785EB2DB0709D518220C23FE
:103FD00062439F438A4B9B180822D97C0A43DA74B8
:103FE0002A00012385492000804DA847002E02DBCE
:103FF000029B9B0573D504AB5D1D2A0001237A4EFD
:1040000080492000B0471823012663437C4AD31817
:104010005B78334001932B780025AB420BD17023A2
:1040200029009F432000784B9847019BAB425FD00B
:10403000029B5D0A354004AB5E79012E11D1019BD4
:10404000002B64D1664A2301D35C072B09D12000E1
:104050006E4B9847002804D1310020006A4B37434B
:10406000984704AB5B79052B53D1019B002B10D1F2
:1040700070205B4B21015A18137A0340102B00D19A
:10408000A9E0574B5B5C072B03D15378012B00D081
:10409000A1E004AB9D1D00232A002B805C49013365
:1040A0002000514EB0472B889B060AD51822624348
:1040B000534B9B181A7D002A03D1D97C02320A4344
:1040C000DA7404AA0123053252492000464DA8475C
:1040D00004AA012305324F492000444DA847404B14
:1040E00024011C19277207B0F0BD93701B0A5DE70D
:1040F0003B4A2301D35C019D072B9CD12000434BFD
:104100009847051E01D1374395E7019D93E7019D2F
:10411000A7E7012DBDD010221A40019206D0182326
:104120006343374AD318D97C0122C8E7202293433E
:104130000D2BC6D163339F4304AB9D1D2A00022380
:1041400035492000284EB0472888344B9847344AD8
:10415000344B354EB047224A029003912301D318C5
:104160009A68187B120A00061043304B9847304E6D
:1041700002000B0002980399B0472E4B984780B27B
:104180002880242565431C4E019973190133DB7F78
:1041900001969C46CBB2634510D28A00019E52190B
:1041A00092193226526801311203920D72439042E5
:1041B000F0D80133DBB21B011F43FFB21822624368
:1041C0000F4B9B185B78DB0700D47AE700212000B7
:1041D0000D4B984775E7012D00D072E759E7C046AF
:1041E0000005002003080000D955000039550000E3
:1041F0000408000006080000080000200A0800006B
:104200006005002008080000AD5E00008D2C000055
:104210001F08000009080000B2080000BD7F000070
:10422000295C8FC2F5683840297400004180000085
:10423000C16D000061630000F7B56B46DC1D0E0028
:10424000012322000E490F4F0500B8476022237852
:104250000B499343334323702200012328000A4F64
:10426000B84773425E4176000123220007492800C7
:10427000044FB8470222237813409E42F4D0F7BD82
:1042800021080000215600007955000001080000B7
:10429000F7B504000122002913D184210C4B090138
:1042A000984780256B468421DE1D320001230901D9
:1042B0002000084FB8477F2233789343AB42F1D0B8
:1042C000F7BD8421044B090198470025EAE7C04661
:1042D000BD5600002156000081560000F7B50126AA
:1042E00004000191314212D00501154B0435ED183F
:1042F0002A0033001349144FB84733002A001349EA
:104300002000B84733002A0011492000B847019B1C
:104310009B0713D50A4B25010435ED182A0001230C
:104320000C492000084EB04701232A000A4920000A
:10433000B04701232A0009492000B047F7BDC04615
:10434000000500201A08000079550000120800003E
:104350001D0800001B080000130800001E080000D4
:10436000F0B50F00822185B002AB9D1D1400022321
:104370002A0009010F4E0190B0472B880E4A1340C6
:10438000002F0CD12343E4001C432C808221022304
:104390002A0009010198094CA04705B0F0BD012F82
:1043A00001D02B80F2E72202A402144323431B24F2
:1043B0002343F6E721560000C0F0FFFF79550000C7
:1043C00010B5002905D180210422054B0901984729
:1043D00010BD0129FCD1802104220901014BF6E71F
:1043E000BD56000081560000F0B5040085B00F00F6
:1043F000544E0501002957D1102284217519EB79FB
:1044000009011343EB71043A4F4B98478421402232
:10441000090120004C4B9847390020004B4B98472E
:1044200029224B4920004B4B9847822102ABDF1DCC
:104430003A000123484E09012000B04701262A7A9C
:104440002E710C253B782A40042A1AD1822103328E
:104450009343053A13433B703A00330009012000AF
:104460003E4DA8473E4903222000374B9847310074
:1044700020003C4B984760212000344B984705B002
:10448000F0BD382282219343283A13433B703A000F
:10449000330009012000314EB04731492A00200085
:1044A000294B98470221E3E7182343432E4FFB187B
:1044B00001935B7C002B0BD0019BD87B2B4B984747
:1044C000002322002A492B482B4FB847019BD87361
:1044D0002A4B23492000984724236343284A294F25
:1044E0009A5807231340012B14D1721991788C46E6
:1044F000D1788C4502D9D2791A4210D1C3060ED494
:1045000060227519EB7993431A0040231343EB7132
:1045100008220DE073199A78DB789A42F0D2602273
:104520007519EB7993431A00202313430422EB718E
:10453000842120000901B84784214022090120007C
:10454000B8479CE700050020BD5600003942000036
:1045500022080000C15500002156000079550000D6
:1045600021080000DD42000060050020655F0000BA
:104570006D2B000010270000015F00005156000065
:104580000800002081560000F7B56022174C030197
:10459000E6180193F37905009343483A4243F371D7
:1045A000134B9B189A78032A17D900279F7039005C
:1045B000104B98472800104B39009847052373701B
:1045C0000F336B430D4DED182A23EB703C336B71A9
:1045D000019BE4180C23A371F7BD01329A700923E3
:1045E000019A135500237370F2E7C04600050020BE
:1045F0006005002015250000E9430000200500208B
:1046000024224243204B30B5D25800011F4B5207A1
:104610001CD01A18D1798C060BD59478002C08D1AF
:10462000D5785479A54204D10421147A214311721A
:104630001DE04A061BD51A18D178002917D19478A5
:1046400051798C4213D1147A0821EFE71A18D179E5
:104650008C0606D59478952C03D1D5785479A5424B
:10466000E2D04A0603D51A18D1789529E7D00C2153
:104670001B181A7A0A4206D06020D9798143D97171
:1046800002218A431A7230BD080000200005002074
:10469000F8B524230326050043430D4A01219C5805
:1046A0000C4BE4083440E7B23A0098473900280040
:1046B000094B984731002800084B98470622084BC1
:1046C0002D015D19EB79640093431C43EC71F8BD37
:1046D0000800002061430000E53E0000DD420000CC
:1046E0000005002070B504000021124DA8473722B4
:1046F000114B12492000984724236343104A9B58CA
:1047000007221340012B06D120000E4B9847602151
:104710002000A84770BD200000210B4B98472000C7
:1047200001220021094B984703212000084B98479C
:10473000EDE7C04639420000C155000022080000E4
:104740000800002091460000E53E000061430000A3
:10475000DD4200000E2210B5064C0301E418237A56
:1047600093432372044B98471022E3799343E371F8
:1047700010BDC04600050020E5460000F8B5134B0B
:104780000701DA199578D379AC4606211C006646F4
:10479000D5788C437540052D0CD0152D0CD0012DEE
:1047A00005D05579094BDE197571F471F8BD0223F6
:1047B0001C43F7E70423FBE70C431A07F2D50E224C
:1047C00093431C00024B0C439847EBE70005002085
:1047D0003D320000F7B5040001911F4E0021B047A3
:1047E000019A1E4D27011E4B012A1DD122210620B0
:1047F000EA19117102395171D179814308000421FC
:104800000143D17102220121200098470C22ED19A9
:104810002B7A144D1340082B12D120212000B047D1
:1048200001212000A847F7BD4821EA19D07911716C
:10483000083951713A3988430143D1710322E2E7C3
:10484000042B04D140212000B0470221E9E7602178
:104850002000B0470321E4E73942000000050020B2
:1048600061430000DD42000010B5044C0001241833
:10487000A079034B98470C23A37110BD00050020BD
:10488000655F0000F7B52B4D0601AA199178D37822
:104890000190745D57784B40202B31D013D8022BF8
:1048A0000BD8002B35D00123AA19D1790B43D37132
:1048B000002C04D10027012401E0082BF3D0AC55D3
:1048C000AD196F70F7BD402B1AD00ED8222BF6D839
:1048D0000123AA19D17901980B43D371164B98473C
:1048E000022C05D100270324E9E7482BF0D0E6E7A6
:1048F000012CE4D100270198104B98473C00DEE7DB
:10490000022CDCD00124AA19D3790027A343D37148
:10491000D5E713798B42CBD00029C9D1D3790131A6
:104920008B43D3710198044B9847012CE2D0022CA1
:10493000C5D1D7E700050020792C000069480000A8
:10494000F7B51D4C030101931E5DE3189A785D785D
:10495000DB7807005340012B05D0002B1BD0052B23
:1049600001D0152B12D13800144B9847062E09D1CF
:104970003800134B984700213800124B9847002508
:10498000062603E0072EF6D1012DF1D1019BE65456
:10499000E4186570F7BD002AF8D10B4B9847062E36
:1049A00004D13800064B98470225EFE7072EEDD1DA
:1049B000012DEBD10135E9E7000500207D4700001E
:1049C00069480000A12E0000792C000073B5060094
:1049D000244B01A89847244C35016219137AD90752
:1049E00008D55178012901D1023151700121621994
:1049F0008B43137263191A7A920726D5DB79DA068C
:104A000011D53000194B984763191B7A9B071CD5A9
:104A1000605D0A2814D801F047FB0C0C0C101F1C19
:104A20001C1C13131F0060221342EDD03000104BEA
:104A3000E9E730000F4B984702E0032263195A70F0
:104A400002226419237A9343237201A80A4B9847E0
:104A500073BD3000094BEEE7002263195A706255AE
:104A6000EEE7C046ED0100000005002055470000BC
:104A7000014600008548000009020000414900008D
:104A8000F0B5040089B01D00724B00919847724B3D
:104A9000220105909B189A681B7B120A1B06134380
:104AA0000493002120006D4B9847002D57D0009BA8
:104AB000002B54D018256543694B5D192B7C002BC6
:104AC00009D0A87B674B98470023220066496748B6
:104AD000674EB047A8730098664B9847664D674A83
:104AE000674B00900191A847664A674D674BA847FE
:104AF000674B9847674B80B298470499664EB0471A
:104B0000664B984707AF5C4D3880654A654B009807
:104B10000199A8475B4A5C4D5C4BA8475C4B9847A2
:104B20005C4B80B298470499B0475C4B984704238C
:104B300078803A005C4920005C4DA847032255214B
:104B400020005B4B98473D252A00200059495A4BCD
:104B5000984701212000414B984709B0F0BD574BC1
:104B60000322552120009847009B002B33D0544B43
:104B7000009A9A423BD00025009BAB42E4D018003B
:104B80003C4B98473C4D029003913C4A4D4BA84703
:104B90003C4A3D4D3D4BA8473D4B98473D4B80B26D
:104BA000984704993C4FB8473C4B9847324E85B2E2
:104BB000454A464B02980399B047324A334B324E2E
:104BC000B047334B9847334B80B298470499B84766
:104BD000324B98471DE0182201216243204B9B185D
:104BE0005D780D4034D02000394B9847ACE718224F
:104BF00062431B4B284E9B185B78DB0726D5354953
:104C00000498B047254FB847334985B20498B04758
:104C1000B8472A0086B231492000314FB847059B7A
:104C2000009A0D25934200D88EE718220121624395
:104C30000B4B9B185B780B4202D02000244B98470B
:104C4000320028492000B8474D257DE72649D7E79F
:104C50000D0079E7DD2400000005002091420000EE
:104C600060050020655F0000A13E000010270000E5
:104C7000015F0000BD7F0000297400006666666663
:104C80006666F23F295C8FC2C16D0000F56838404E
:104C900061630000356D00007D6700003163000036
:104CA000333333333333EB3FB4080000795500001E
:104CB000815600001F080000A9550000BD560000E5
:104CC000881300006666EE3FCDCCCCCCCCCCF03F58
:104CD000AD5E00000000424300006143B2080000E6
:104CE000C1550000B808000000003443F0B50400CE
:104CF00085B000217F4B98477F4B002120009847CB
:104D00007E4F01229A212000B84708227C492000CA
:104D1000B8477C4D00227C492000A84740227B49AF
:104D20002000B84700227A492000A8478322794909
:104D30002000B847812278492000B8471421774BDA
:104D400020009847764A774D024392B202AB142175
:104D50002000DA80A8478021012209012000724B3F
:104D600098471023714A72492000724EB047724B27
:104D700022019E18330008330193019AB368107919
:104D80001B0A00066D4918436D4B98476D4B9847B9
:104D90006D4982B22000A847019AB36810791B0AB6
:104DA00000066A491843664B9847664B98478B2123
:104DB00082B209012000A847012265492000B847B6
:104DC0002423072563430193019A624BD1580D4078
:104DD00069D0012D2BD1082302AA1371142202AB32
:104DE0005A710323C908194020005B4B9847802162
:104DF000042209012000B847564B019A2900D258D5
:104E00000323D2081A4002ABDA802000D2B2534BFF
:104E100098470622F3792101934302AAD2885200CF
:104E20001343F3710023444A8B54033373700123FB
:104E300003AA4B4920003F4DA84702AA05323D4D29
:104E4000012348492000A84703212000464B9847EA
:104E50000222464920002B4B984702AB9D1D7D2323
:104E60002A002B8042497C3B2000324EB0472A006A
:104E70000123404920002F4DA847012120001E4B4F
:104E800098471C4B60212000984724236343314AF4
:104E90009B5807221340012B1ED100212000364BC6
:104EA000984705B0F0BD0C2302AA1371142202AB7F
:104EB0005A7129002000314B984701222900200017
:104EC000264B98472900244B2000984705231A4A6F
:104ED00021018B547570AAE718226243284B2000E9
:104EE0009B180A229B8827495A43274C92B20023D9
:104EF000A047D6E7394200009142000081560000E9
:104F000001080000A955000006100000410800003B
:104F10000710000011080000150800006956000085
:104F200003060000C1550000BD5600005E88000069
:104F30002208000079550000000500200000E04133
:104F40007D670000316300004E080000000016433A
:104F50003F08000008000020E53E0000614300001B
:104F6000170800004A080000DD4200001908000090
:104F7000140800001C08000015250000C1430000B3
:104F80006005002088130000814A0000F0B505008C
:104F900087B0BC4B984705A8BB4B9847BB4F2C012B
:104FA0003B199A7805A80292DA781B7A039201934A
:104FB000B74B9847E05D092859D801F089F80A00F5
:104FC00052007800E40058002B015201A50158005E
:104FD00022023C196678012E00D1A8E0002E0CD0E8
:104FE000032E44D1AB492800AB4B9847011E3ED15C
:104FF00060702800A94B984739E00121A84B280090
:10500000984731002800A74B984724236B43A64AB2
:10501000A6499B580322DB08134015326A430193CB
:10502000A34B28009B180A229B88A24F5A433300A7
:1050300092B2B847310028009F4EB0470322E3796F
:105040005B081340019A934202D028009B4B98477B
:1050500028006021B0478D4B2D015D1901236B7035
:1050600005E03E197278002A03D0022A0AD007B060
:10507000F0BD02232A0096209149924CA0470123BB
:10508000B071A4E07023019919400B1EEFD1029971
:105090000398814208D133798B4203D10A233B55CF
:1050A0000021A6E70423FAE73A557370F8E73B19A5
:1050B00058780328DBD800F0F7FF02273C4601218F
:1050C0002800814B9847142000232A007F49FF3095
:1050D0007C4EB0473B199871029A5B7993420ED18E
:1050E000102228007A497B4B984701213B19DB7934
:1050F0000B4202D02800784B98473C199FE01022C1
:1051000073492800754BEFE77023019A1A40102A63
:10511000ADD1734B28003C199847E379DB0710D5D4
:105120002A0000236F490A20664DA847A071022378
:1051300025E00C23019A1A4299D02800684B984721
:105140003C1903231BE03B195A790299544B8A42BC
:1051500017D102212800984728000121514B984778
:1051600018226A43524B28009B180A229B884F49F9
:105170005A43504D012392B2A84704233C1963704F
:1051800075E70321E6E73E197378012B21D0002B48
:1051900012D0032B00D06AE77023019A1A400192C3
:1051A00000D064E74E4B280098476B461B7973701C
:1051B0006B461B793B555AE728004B4B9847012318
:1051C0002A003F490A203F4CA0470223B071737068
:1051D0004DE7002128003C4B984700232A003B491B
:1051E0004248384CA0470C23019AB0711A4203D1AF
:1051F000F27954331A420BD02800374B00219847DC
:1052000060222D017D19EB799343EB71022326E790
:105210000323DCE73C196178012912D0002902D070
:1052200002298ED023E718226A43214B28009B18BD
:1052300099801C4B984701212800194B984701235E
:105240009DE77023019A1A40131E00D00FE7182122
:105250006943174A2800521892881449154DA847E7
:1052600065E73E197378022B06D0032B42D0002B42
:1052700000D0FCE60333FDE605232A001C490A2082
:10528000FBE6C046CD490000ED010000000500200E
:10529000090200000808000051560000AD5E000041
:1052A00079020000A12E00000800002088130000F1
:1052B00060050020814A000039420000914600004C
:1052C000B93E0000015F000015250000992B000089
:1052D00021080000BD560000E9430000815600008F
:1052E0006948000089450000A15F00008A020000B3
:1052F000CD3E00007023019A1A40102A00D0B6E675
:1053000000237370073355E73B195878042800D9F8
:10531000ADE600F0D3FE0500ACFE46005300710080
:105320003B19DA79724E5207920F1823022A28D0BD
:10533000032A2AD0012A03D16B435932F3189A80E9
:10534000029B039A934225D96A49102228006A4B8E
:10535000984702213C1901272800684B984767703D
:1053600039002800664B984718230A226B43F61829
:10537000B38864495A43280092B23B00624CA0476C
:1053800075E66B439622F318D9E796226B435200D9
:10539000F318D4E75749102228005C4B98470321A3
:1053A000D8E728005A4B98472A00032359490A2076
:1053B000594DA8473C19A0710523E0E67023019AD6
:1053C0001A4203D001212800544B98470C23019A1C
:1053D0001A4204D160223B19D979114209D0504BAD
:1053E00000212800984760223C19E3799343E37138
:1053F000E2E704225A703AE605233B553C190023A4
:10540000BDE63B195878042800D930E600F056FE76
:105410000500320039002FFE4C0000212800384BD7
:105420009847404B00212800984724236B433E4A6D
:105430009E5807231E40012E19D1002128003B4B06
:105440009847002231003A4B280098470C23019AD4
:105450001A4205D13B19DA7960231A4200D14CE691
:1054600060213A19D3798B43D371002142E603229C
:105470000021E8E70C23019A3C191A4200D156E6B4
:10548000F5E57021019B0B40191E00D0EFE52800C7
:10549000284B9847FA202A0004231E4940001E4D3D
:1054A000A8473C19A0714CE6242307216B431E4AF0
:1054B0009A581F4B1140012910D1D206920F280093
:1054C000984700233B553C19637028006021154B19
:1054D000984701212800174B9847C8E50122002171
:1054E0002800984705233B553C190023ECE7C046AC
:1054F0006005002021080000BD5600007902000070
:10550000A12E000088130000814A0000815600008F
:10551000A15F0000B93E0000015F0000AD5E000029
:10552000E943000039420000080000201525000072
:105530006143000091420000F7B51F000B4B0400CF
:105540000D0016009847022301A90B708D702B0ADD
:105550002000074D03224B70A8473A00310020007D
:10556000A8472000034B9847F7BDC04671090000CB
:10557000A90900008D090000F7B50D0016001F00F5
:105580000400064B01A898473B0032002900200088
:10559000034CA04701A8034B9847F7BDED0100005D
:1055A000395500000902000013B513006A4607329E
:1055B0001370024C0123A04713BDC046795500006B
:1055C00013B513006A4606321380024C0223A0472B
:1055D00013BDC04679550000F7B51F000C4B0D00F8
:1055E0000400160098470B2301A90B702B0A4B707F
:1055F00000232000CB700422064B8D7098473A00A0
:1056000031002000044B98472000044B9847F7BD19
:1056100071090000A9090000E10900008D090000DE
:10562000F7B50D0016001F000400064B01A89847AF
:105630003B00320029002000034CA04701A8034B87
:105640009847F7BDED010000D955000009020000A0
:1056500037B56B46DC1D034D01232200A847207897
:105660003EBDC0462156000037B56B469C1D034D1C
:1056700002232200A84720883EBDC04621560000D4
:10568000F0B585B002ABDC1D002305000E000192D1
:10569000237022000133074FB8472378019A310065
:1056A0001A432270012322002800034CA04705B0B2
:1056B000F0BDC0462156000079550000F0B585B018
:1056C00002ABDC1D002305000E00019223702200B6
:1056D0000133074FB8472378019A31009343237071
:1056E000220001232800034CA04705B0F0BDC046AE
:1056F0002156000079550000303110B589B2002ADA
:1057000003D1034B0132984710BD0122014BFAE748
:1057100081560000BD560000303110B589B2002A14
:1057200003D1034B0232984710BD0222014BFAE726
:1057300081560000BD560000303110B589B2002AF4
:1057400003D1034B0432984710BD0422014BFAE702
:1057500081560000BD560000F8B5060014001F0079
:10576000FF290ED03031074B0D0098472200082347
:105770007A4098431A400243D2B229003000024BCB
:105780009847F8BD51560000A9550000303110B5BA
:1057900089B2002A03D1034B0832984710BD082272
:1057A000014BFAE781560000BD560000303110B5BC
:1057B00089B2034B002A01D13022024B984710BD19
:1057C00081560000BD5600000139C9B210B5002352
:1057D000022901D8024B5B5C99B2024B984710BD7D
:1057E0006E880000A95500000023F7B504001500DD
:1057F00001934E009A4210D1043301AA70210C4D3E
:10580000A8470323B340019A9A430192200004233E
:1058100001AA7021074CA047F7BDB540042301AA97
:105820007021034FB847019B1D430195EEE7C04629
:105830002156000079550000F7B516224243174B58
:1058400001269B189F78DA780F23390004009A43C9
:1058500032433031124B9847200005220221114B70
:1058600098473900200002220F4B98476B46BE40F4
:105870009D1D2A00DE8020000C4E02232221B0470D
:10588000242120000A4B98472A882421024392B2FF
:105890002000084B2A809847F7BDC046F8870000D3
:1058A000A9550000C9570000E957000079550000CC
:1058B00069560000C1550000F7B516220121424388
:1058C000094B0A4F9B189E786A46B1400632DD7834
:1058D0001180022322210400B847302231002A40DF
:1058E0002000034B9847F7BDF8870000795500006A
:1058F000AD5700000023F0B585B003AD2B802A0022
:1059000002332221164E0400B04716226243154B83
:1059100001219B189A782B88D3400B4217D002ABF9
:1059200030329E1D01920B003200019920000C4F75
:10593000B8473022338801999343338032000123E2
:105940002000094EB04704212000084B9847200052
:1059500002232A002221044CA04705B0F0BDC04616
:10596000D9550000F887000039550000852B00004C
:10597000F7B5162704004743194B1A4EFB5C01226A
:1059800054210193B047184D200000226821A847F8
:1059900020007122C021B04720009122C121B047D0
:1059A0000F4B2000DF19BA78C221B0470126019BB6
:1059B00020009E40B6B232006A21A8473200200083
:1059C000D021A84732002000D221A8473200200071
:1059D000D421A847042255212000044B9847F7BD45
:1059E000F8870000A9550000C1550000815600004D
:1059F00010B5040002221421044B98472000044BE8
:105A000098472000034B984710BDC046C155000081
:105A1000395800007159000070B500232421202559
:105A200030260E4C0A005A43A2582A420ED00C4A85
:105A3000D05C01280ED00B4AD25C0B2A06D80A484B
:105A4000D200821892793240102A04D00133022BFE
:105A5000E8D1002070BD0120FCE7C046080000200E
:105A600090050020E5040020AC0700200C228021D6
:105A7000084B10B51A54084B0A3A1A544901074BFF
:105A800044329847064B9847002802D10122054B23
:105A90001A7010BDE504002090050020BD560000DE
:105AA000195A0000E4040020F7B504000C4B01A8CB
:105AB00098470C4E335D012B0ED10B4D0B4B285DDF
:105AC00098470C2322002B550949002309480A4F07
:105AD000B84703232855335501A8084B9847F7BD0D
