:020000040000fa
:10000000f81f002081680000ab660000e36d00006f
:1000100000000000000000000000000000000000e0
:100020000000000000000000000000005760000019
:100030000000000000000000576000005760000052
:1000400057600000576000005760000057600000d4
:10005000dd7100005760000057600000576000002d
:100060005760000057600000d14100000000000010
:1000700000000000b97b00005760000057600000de
:10008000576000005760000057600000000000004b
:10009000000000005760000057600000576000003b
:0400a00057600000a5
:020000040000fa
:1000a400f8b5c046f8bc08bc9e4670470d6e00000b
:1000b400f8b5c046f8bc08bc9e467047e56d000024
:020000040000fa
:1000c400f0b500250d2691b0040002910592290097
:1000d40003931c2204ab09a81d7308950f2708f08d
:1000e400a3f804ab0e22f6180b2304a952187f18a8
:1000f40020003100337013703d7007f037ff390072
:10010400200007f0cfff14236343c94f0493fd1865
:10011400622336786b70002e0cd1049bdb5d002bc0
:1001240008d0200005f0a6fe0a23eb73049bae70f2
:10013400de55ee7214231a006243b85c11281bd8f2
:1001440008f00af8120094015000a300c9004b0102
:100154001a0029011503bc01ef0108021a00d50297
:1001640087039d03d003eb036343fe181d00b3789c
:10017400002b03d0012b18d011b0f0bd0322337330
:10018400b37b20009343b37307f0d6fa0c22a94b38
:1001940020005d196b7893431a00082313436b7096
:1001a40006f07aff0123b370e6e70d2304aa9b1837
:1001b4001b78022be0d10e2204a952181278042acb
:1001c400dad10f2252181278002a01d17b55eae7be
:1001d4000f237b552f23b370964b5d1996235b0039
:1001e400ab80c9e76343fe18b278022a15d0042a0b
:1001f400c2d1200005f062f800233373f3720323a5
:10020400b3700223b27b8c491343b37322001323cc
:10021400182006f04ff9f073aee7f17a02290dd9f0
:10022400b17bc8060ad5114205d00022092120005d
:1002340007f0e2ffa0e70622fa549de709aa07a9fe
:10024400200004f0c7fd04ab1a7b01210023200029
:1002540007f07ef914231a006243ba18927b9207be
:1002640011d4764d6343ff183b7b01333b73032367
:10027400bb7009ab0021724a019500920200200074
:1002840003f032f978e76f4dece76343fe181d0085
:100294000223b27b20001343b3736b46029a9989fd
:1002a40004f030f9d022684b5443012809d11b19ba
:1002b400b0331968654a0a401a6004237b550a233f
:1002c40071e71c19b0342268614b13402360072383
:1002d4007b55082367e76343fd18a8780a38042888
:1002e40000d949e707f02eff05003a0048ff130044
:1002f4002a00002303211a00200007f029f91423ff
:100304006343ff180c23534dbb700023b2e7d02284
:1003140062434d4b1c209b188022b0331968920015
:100324000a431a604c490e23220006f0c3f8142332
:100334005c430c233c19e073a3701de7200006f016
:100344001df91e20002322004449ff3006f0b2f8b4
:1003540014235c433c19e0730b23ede71425322688
:100364006543344b20005b199b681b039b0d5e4364
:1003740006f0c8ff864200d0fee6200007f056fdd6
:10038400002306211a00200007f0e2f80c237f194d
:10039400bb70334db9e76343fd18ab78082b00d02d
:1003a400eae6ab7bdb0716d42e4d002304211a00aa
:1003b400200007f0cdf8d0226243234b9b18802203
:1003c400b0331968d2000a431a6014236343ff1838
:1003d4000923bb7099e7244de7e76343ff181d0029
:1003e400bb780f2b00d0c7e60123ba7b1343d0227e
:1003f400bb7310236243bb70134b9b188022b03332
:10040400196852000a431a600a4beb5c9b0602d53a
:10041400200007f081f8200007f07cfb0021200079
:1004240006f084fa0821200006f08affa4e6c046fc
:1004340074010020b80100201d65000002040105bc
:100444005d70000002040829f8030020fffbffff91
:10045400fffdffff040d091381800000a179000056
:10046400050f09130c000829050f08296343fd181b
:10047400ab78052b12d0072b00d07de62b7b322bdb
:1004840007d8eb7a022b13d91222ab7b1340102b23
:100494000ed114235c4306233b556de6072322004b
:1004a400d449962006f006f80623e873ab7063e699
:1004b40014235c4302233b553c193de763431d0071
:1004c400fb189a78132a07d0152a00d054e60b2279
:1004d4007a5519229a704fe69b7b9b0708d5d02248
:1004e4006243c54b9b18b0331968c44a0a401a606a
:1004f400200007f09bfc002314251a00190020009b
:1005040005f0e2fd2b006343ff18fb7a2200013360
:10051400fb72b84915231c2005f0ccffbd70f8739d
:100524002ae66343fe181d00b378162b06d0182b59
:1005340000d021e60b237b55192334e6200007f075
:1005440075fc18232200ab491c2005f0b3ff1723c8
:10055400f07328e66343fd18a8781938082800d9f1
:100564000ae607f0effd09002200370009fe4d00fe
:1005740052007400a900b700200007f003fd002812
:1005840003d00021200007f03ffe2000002106f0e8
:100594008bf8002322009a499a4805f08bff142314
:1005a4005c433c19e0731a23c6e6200006f0aafe59
:1005b400051e00d0e0e5200007f038fc2b002200e7
:1005c4009149192005f076ff14235c433c19e0732c
:1005d4001b23b1e6200007f0d5fc002800d0cbe5b2
:1005e400200007f023fcc8201d232200814980003d
:1005f40005f060ff14235c433c19e0731c239be665
:1006040014235c431e233c1996e60f2304aa9b186b
:100614001b78002b0ad0142262437c4b9b181b7c52
:10062400002b03d00121200007f0eefd2000012162
:1006340006f03af81420002322007149ff3005f037
:1006440039ff14235c433c19e0731f2374e6200034
:1006540006f058fe6e4b0600984200d08ce5200050
:1006640007f0e4fb200006f089fe14230a25634307
:100674000293029a654b31009b189a8803936a434c
:10068400012392b2200001f0afff0f2304aa9b18ac
:100694001a781423002a19d0039a127c002a15d040
:1006a400002322005b49280005f004ff029bff1889
:1006b4002023f873bb705fe5200007f063fc00287b
:1006c40000d159e5200007f0b1fb14235c4321233a
:1006d4003c1931e6220000234f49504805f0eafe58
:1006e400142300225c433b1918743a55f2e6634321
:1006f400fd18a8782238042800d93de507f022fd2a
:1007040005003cfd12001f002800002308211a00e8
:10071400200006f01dff14236343ff182323404ddc
:10072400bb70f2e514236343ff1823232200bb703c
:1007340030492523182005f0bdfef8731ce5142369
:1007440005226343fa54ff1810230a21bb706ae69a
:100754006b46029a9989200007f00af914230522ae
:100764006343fa54ff1810230921bb705be663430b
:10077400fd18a8782938052800d9fde407f0e2fc23
:1007840006002300fcfcfcfc62005600d0226243fd
:10079400194b20009b18b0331968224a224d0a4095
:1007a4001a6007f043fb0021200007f074fd0023ca
:1007b4000d211a00200006f0cbfe14236343ff181a
:1007c4002c23bb70a1e5200007f030fb01212000a1
:1007d40007f061fd00230d211a00200007f0c2f983
:1007e40014236343ff182c23bb7000230e4d0121f7
:1007f40041e5c04681800000f8030020fff9ffffb7
:10080400a17900008a020000417b0000b8010020a9
:1008140088130000f1590000157e00007c150000cb
:100824000d240510fffbffff082e09132d232200c2
:100834004b49182005f03efe14235c433c19e07339
:100844002c2379e514235c4309233b553c191323da
:1008540072e56343ff18bb78272b00d08ce420009b
:1008640007f0e4fa200007f04ffc002303211a00ec
:10087400200006f06dfe28233a4dbb7045e5634326
:10088400fe181d00b378312b20d0322b27d02f2b0c
:1008940000d071e4344b5d196b781b079b0f012b5f
:1008a40012d1324b0893012200230f21200007f0bc
:1008b40059f914236343ff187b7b2d4d01337b735c
:1008c4003023bb7008ab92e72a4bebe732232200bc
:1008d40029491c2005f0eefd3023f07363e4112355
:1008e4007b5549e46b4620009a890599029b06f0e2
:1008f400e3fa14235c431123012800d0cce50c2136
:10090400194b1b195a788a43110008220a435a705a
:1009140000223b195a730222e7e65c433a19124b50
:10092400517b0c201b19142910d9597881430800d4
:100934000821014359702023917b0b4393730023b7
:10094400537302233b559370fff716fc5978814388
:1009540008000421014359700f233b552f23f2e76c
:100964008180000002020913b8010020018000ff09
:0c0974000f31110001a000ff1d65000004
:020000040000fa
:10098000f7b50d0009036c00ed0f0095490a450ffe
:1009900029431d035e00c700d80f6b0a550f2b4378
:1009a000c14d640d760dd200ae4203d11d008446c8
:1009b000154302d101254540ac46009da01bac4526
:1009c00000d036e1002861dd002e25d11d00154341
:1009d00000d196e2461e002e19d1ba18ba42a4419f
:1009e000c91864420919170001240b0200d4bee0a3
:1009f000ad4b01349c4200d180e2ac487b08014001
:100a0000012007401f43c80707434908afe0a64d30
:100a1000a84209d1a44caae0a34dac4200d1a6e063
:100a2000802506002d042b43382e2adc1f2e17dcd0
:100a300020201d00801b8540ac4615000190f5402c
:100a4000604605430198f3408240501e82411543a1
:100a5000ed195b18bd428941494259182f00c4e77e
:100a600030001d002038c5400020202e03d040203b
:100a7000861bb34018000243501e824115430023d9
:100a8000e6e71a4315006a1e9541f8e7002850d0a2
:100a9000002c14d10c003c4300d128e2c443002cac
:100aa00007d1bf189742a441c918644209193400fc
:100ab0009be77d48864209d119001700aae77a4cc6
:100ac000a642f9d04442802000040143382c2bdc9c
:100ad0001f2c17dc2025281b01900800019de140f8
:100ae000a840844638006546e0402843019daf4059
:100af0007d1eaf413843871897429241c918524230
:100b00008918d4e720000d002038c54028000025b2
:100b1000202c03d040252c1ba1400d002f437d1e0f
:100b2000af4138430021e6e70f433800471eb84184
:100b3000f8e7661c75056d0d012d00dd69e0080004
:100b40003843002c49d1002800d1d3e118001043cc
:100b50000dd0ba18ba42b641c91880237642891915
:100b60001b041700194202d00124504b19407b0787
:100b700009d00f233b40042b05d03b1dbb42bf4196
:100b80007f42c9191f000b0206d5474b01349c4216
:100b900000d1c3e1454b1940434b4807ff08384398
:100ba000c9089c4206d103000b4300d1b9e1802360
:100bb0001b031943002709033b0d1b05090b1943b0
:100bc0003b4b6405194064080c43009b6400d90743
:100bd00064080c43210003b0f0bd002800d16be78e
:100be0001800104300d115e74807ff08074380208d
:100bf000c9080003014207d0dc08044204d1d2082e
:100c00005b0713431f002100780fc9000143ff0059
:100c100000e7254ca64200d16fe1ba18c918ba42c4
:100c20009b415b42cb18df07520817435908340039
:100c30009de700285ddd002e3cd11d00154300d14d
:100c40005fe1461e002e0ed1ba1a9742bf41c91a63
:100c50007f42c91b012417000b0200d487e7490219
:100c60004d0a3e00f9e0104da84200d1d2e6382ee0
:100c70003adc1f2e27dc20201d00801b8540ac465f
:100c800015000190f540604605430198f34082400d
:100c9000501e824115437d1bcb1aaf428941494208
:100ca000591a2f00d8e7c046ff070000ffff7fff5b
:100cb000ffff0f809c4dac4200d158e780252d04ea
:100cc0002b430600d3e730001d002038c54000202c
:100cd000202e03d04020861bb34018000243501e34
:100ce000824115430023d6e71a4315006a1e954139
:100cf000f8e700284dd0002c17d10c003c4300d160
:100d000001e1c443002c09d1d71bba429241591ac0
:100d100063465242891a340000939de78248864216
:100d20000ad119001700804c45e07f4ca642f8d04c
:100d30004442802000040143382c25dc1f2c11dca8
:100d40002025281b00900800009de140a8400500d8
:100d50003800e0402843009daf407d1eaf4138433e
:100d6000171ad2e720000d002038c54028000025c2
:100d7000202c03d040252c1ba1400d002f437d1ead
:100d8000af4138430021ebe70f433800471eb8411d
:100d9000f8e7601c4005400d01284cdc18000d00f0
:100da00010433d43002c24d1002d07d1071e00d154
:100db000ade01900170063460093d8e6002800d183
:100dc000d5e6bd1aaf42b641c81a7642801b8026ce
:100dd0003604304206d0d71bba429241591a5242c9
:100de000891ae8e72f00074300d190e001002f00a7
:100df000bde6002d07d1071e00d18be01900634628
:100e00001700009306e6002800d103e64807ff0814
:100e100007438020c9080003014200d1f4e6dc0842
:100e2000044200d0f0e6d2085b0713431f0063467c
:100e300021000093e8e6be1ab7428041cd1a404235
:100e40002d1a8020000405422dd0d61bb242ad41a0
:100e5000591a63466d424d1b0093002d29d028007e
:100e600006f0e8fa0300083b1f2b27dc20223100a4
:100e70009e40d21a9d40d14037000d439c4232dc47
:100e80001c1b661c1f2e1edc20233a0029009b1b06
:100e90009940f2409f400a43791e8f412900f1405a
:100ea0001743002463e637002f43d6d139003c00b6
:100eb0002ee0300006f0befa2030d3e735002838a7
:100ec00085400027dae72a001f3ce2400023202e5d
:100ed00003d040239e1b2b00b3401f437b1e9f412a
:100ee00000211743dde71149e41a29403fe61900c4
:100ef00017009ce61900170039e60b4c00210f0083
:100f000035e6040033e619001700340053e73900d2
:100f100000972ce68021044cc903f9e700210f005b
:100f20003ae6190046e6c046ff070000ffff7fffd4
:100f3000f0b58bb0060004930400cb0f0d034800fe
:100f400000922d0b400d0393029346d0584b9842cc
:100f500067d08023720f1b04ed0013432b431f0047
:100f6000544bf400c31800260193049b009a1d0300
:100f70005800db0f2d0b400d069361d04c4b98426f
:100f800000d181e08023520f1b041343ed001d4369
:100f9000484a009b8218db00944600220698039979
:100fa0004140604604910199091ab000104301388c
:100fb00005910e2800d981e007f0d0f875004902ac
:100fc000ed0149023d024902ed01750075003d0247
:100fd000ed01fc01fc01fc01e2012f00374327d0a9
:100fe000002d13d0280006f025fa01000b391c292a
:100ff00011dc02001d2337003400083a5b1a9540cb
:10100000df4094402f432c4b1b1aace7300006f016
:1010100011fa2030e9e70300283b9e400024370006
:10102000f1e72e43371e07d02f00019003269ce7df
:101030003c000197012698e734000190022694e7ce
:10104000009b2b4327d0002d13d0280006f0f2f987
:1010500001000b391c2911dc1d2302005b1a0099c9
:10106000083ad940009b954093400d43124a121a0a
:1010700092e7100006f0def92030e9e70300009d5a
:10108000283b9d400023f1e7009b2b4307d0130032
:101090008446032282e71d009c4601227ee71d0054
:1010a000844602227ae700252c00014b4ee1c0461f
:1010b000ff07000001fcffff0dfcffffaf4204d85b
:1010c00000d057e19c4200d254e1f9076208114375
:1010d000e0070c0001907f082d021a0e2a431b0224
:1010e0000293130c03936b4600921b8803993800fc
:1010f000079304f06dfb0600079b069003993800e8
:101100005e4304f0a1fb250c09040d43069fae428b
:1011100009d9009b013fed18ab4204d8ae4202d979
:10112000069fed18023fab1b03991800069304f0cd
:101130004ffb079e050046430399069804f084fb85
:10114000a4b209040c432a00a64208d9009b013a24
:10115000e418a34203d8a64201d9aa1ee4183b040e
:1011600002991343029a0904120c090c0892069181
:10117000089d06989ab2a61b1c0c514360436a4313
:101180006c4312180d0caa18904202d9802040021c
:101190002418100c09041204090c04195218a64250
:1011a00005d31f00a64227d10199914224d202986b
:1011b00001998446614401918142894100984942e4
:1011c000091876185f1eb04204d315d16146019804
:1011d000814211d8b44203d80ed101998a420bd969
:1011e00002999f1e8c46019b634401938b429b4155
:1011f00000995b425b18f618019b341b9b1a0993fc
:10120000099a019b93429b415b42e41a009ba342d3
:1012100000d1d2e00399200004f0dafa079d06001d
:1012200045430399200004f00ffb099b09041c0ca3
:101230000c430196a5420cd93300013b0193009b5e
:10124000e418a34205d8a54203d9b31e0193009b1d
:10125000e418641b0399200004f0bafa079d060005
:1012600045430399200004f0effa6b460a04998c79
:10127000330011438d4208d9009a013b89188a42f4
:1012800003d88d4201d9b31e8918019a089c120413
:101290001a43100c93b24d1b16000699069a41434f
:1012a0005a43634360435b18140ce318994202d914
:1012b000802149024018190c12041b04120c081852
:1012c0009b18854204d3340085421bd1002b1bd0d0
:1012d000009a741e5519aa420fd8a84203d811d1fa
:1012e000029a9a420bd2029ab41e51009142924144
:1012f000009e52429219ad180291854202d1029a83
:10130000934201d001231c43059b564a9b18002b96
:1013100056dd620709d00f222240042a05d0221d83
:10132000a242a44164423f191400fa0106d580226a
:10133000d20094464c4b1f40059b63444b4a93425a
:1013400000dd88e0e40879070c43fd0800212d0347
:101350000a0d12052d0b1543454a5b0515405b0828
:101360002b43049a5b00d2075b081343200019004b
:101370000bb0f0bd059a013a059200220192abe64e
:101380008022120317425ad0154258d12f001c0058
:10139000069b029353e02f0016001c00069b04934b
:1013a000022e58d0032e50d0012eadd1002425009e
:1013b0002300cbe7039b0493f2e701246442a3e7f5
:1013c0000122d21a382af1dc1f2a21dc2023200036
:1013d0009b1a39009c403d009940d040631e9c41bf
:1013e000d54001430c43630709d00f232340042b4e
:1013f00005d0231da342a44164422d191c00802363
:101400001b042b402ad16907e4080c43ed089de733
:101410001f214942cb1a3900d9400b000021202a54
:1014200003d040218a1a390091400c43611e8c413f
:1014300000251c43d7e7802700243f030294802522
:10144000029b2d033d4304932fe6049ba1e7002557
:101450002c002b007ae70024250026e60025012336
:101460002c0073e7ff030000fffffffefe070000f4
:04147000ffff0f80eb
:020000040000fa
:10147400f0b5040085b003f0b5ff06f0e1fdb84e09
:10148400250173199a780292da781b7a03920193f0
:1014940006f0e0fda85d092864d806f05dfe0a00a8
:1014a40069008e0011016300630063006300630040
:1014b400550173195d780193012d55d0002d0dd080
:1014c400032d4fd1a749200006f06bfe011e49d120
:1014d400019b5870200005f05bfd43e0d027674373
:1014e400a14b2000df193a00b03211689f4b0b402a
:1014f40013603b00b8331d80023b1d80023b1d80fe
:1015040006f0eefd0121200005f01aff290020005d
:1015140006f03af81422fb6903276243db083b40d8
:101524000293934b93499b180a229b8820005a43a9
:101534002b0092b201f058f82900200005f076fa49
:10154400019bdb795b081f40029b9f4202d0200075
:1015540005f0fafb2000602105f068fa012324015c
:101564003419637005b0f0bd0223019a5370f9e792
:1015740077197b78002b11d0022bf3d17021019abb
:101584000a40111eeed1029a0398824212d13b798d
:1015940093420dd10a23735500219be702232200b5
:1015a4007549962004f086ff0123b8717b70d9e752
:1015b4000423f0e773557970eee77319587803281c
:1015c400d0d806f0b5fd02293e490121200005f0de
:1015d4006bf81420002322006849ff3004f06affee
:1015e40073199871029a5b7993420fd1102264495e
:1015f400200006f0fff901217319db790b4202d0b8
:10160400200002f00ffb7519012351e010225c4900
:10161400200006f0d9f9eee77021019b0b40102b56
:10162400a0d12000751906f0e9fceb79db0711d590
:101634000023220053490a2004f03cffa87102232e
:1016440036e00c23019a1a4200d18be7200006f001
:10165400d5fc751903232be073195a79d0236343fe
:10166400414f0299fb18b0338a4223d102211a68f0
:101674008a431a60200005f063fed0236343fb18fd
:101684000127b0331a6839003a431a60200005f084
:101694007bff14226243364b36499b180a229b88ef
:1016a40020005a433b0092b200f09eff04237519b8
:1016b4006b7057e7022219680a431a600321d9e7bd
:1016c40077197b78012b20d0002b12d0032b00d06c
:1016d40048e77023019a1a40019200d042e72000a3
:1016e40006f08cfc6b461b797b706b461b7973553b
:1016f40038e7200004f0befb012322001e490a2023
:1017040004f0d8fe0223b87150e70021200004f051
:10171400cbff0023220019491b4804f0cbfe0c2305
:10172400019ab8711a4203d16023fa791a4209d096
:101734000021200002f076fa60227519eb799343b8
:10174400eb717ce7032331e773195878042800d937
:1017540008e706f0f7fc1b006000670007ff7a004b
:101764004801002008080000f8030020fefeffffe7
:10177400b80100208813000021810000a179000035
:1017840021080000f95a00008a0200000421200008
:1017940005f0d6fd0021200005f0f6fe0021200012
:1017a40005f044f9d0226243404b9b18df690723bc
:1017b4001f40012f22d10021200004f075ff0021d9
:1017c400200005f007fc04225521200006f012f940
:1017d40000223900200005f053f90c23019a1a4223
:1017e40005d17319da7960231a4200d10be760211d
:1017f4007219d3798b43d371002101e71422002796
:1018040062432b4b39009b18df803a00200005f01f
:10181400befb0322dde70c23019a1a4200d0a1e6a5
:1018240075190ce77021019b0b40191e00d099e635
:10183400200005f091fcfa20042322001d494000f9
:1018440004f038fe7519a87104e7d0220727624313
:10185400164b9b18da691740012f1bd1d206920f41
:101864003900200005f00cf900237355751939006f
:1018740020006b7005f0aefb04225521200006f019
:10188400a3f82000602105f0d1f80121200005f023
:1018940063fc67e601220021200005f0f1f805232e
:1018a4007355002375196b70ebe7c046f8030020ed
:0818b400b801002021810000b1
:020000040000fa
:1018bc00f0b58bb001920593ca0f0c034b000600d8
:1018cc00240b5b0d0492039245d0c64a934265d01b
:1018dc008022410f12040a43e4001443c24ac5009b
:1018ec009b1800270293059b019a1e035800db0fdf
:1018fc00360b400d059360d0ba4b984200d180e076
:10190c008023520f1b041343f6001e43b64a019b5f
:10191c008218db00944600220598049941400191fd
:10192c000299b800614410430791013801310691c6
:10193c000e2879d806f00cfc740074007b01710140
:10194c007101bc017b017101bc0171017b016f0153
:10195c006f016f0164012500054326d0002c13d0c4
:10196c00200005f061fd01000b391c2910dc1d2342
:10197c0002005b1a31003500083a9440d94095407a
:10198c000c439a4b1b1aace705f04efd2030eae7ee
:10199c0003003400283b9c400025f2e7050025435a
:1019ac0007d00500029303279de72c000295012721
:1019bc0099e72c000293022795e7019b334327d02c
:1019cc00002e13d0300005f02ffd01000b391c291f
:1019dc0011dc1d2302005b1a0199083ad940019bc6
:1019ec00964093400e43814a121a93e7100005f07b
:1019fc001bfd2030e9e70300019e283b9e4000239d
:101a0c00f1e7019b334307d013008446032283e79d
:101a1c001e009c4601227fe71e00844602227be7c3
:101a2c0034001d001700f8e0190c9bb2029119004c
:101a3c002a0c514318008c46029f0299adb26843a0
:101a4c0051436f4304916744010cc91903908c45b1
:101a5c0006d9049f380080277f02bc46604404905e
:101a6c00684680890f0c090409180991310cb6b22b
:101a7c00039130003100bc46039f694350437d43c2
:101a8c007a432d180f0c7d19a84202d980204002f0
:101a9c001218280c82182d0489b205926a18089223
:101aac001800089962468c46029f210ca4b2604330
:101abc004b43674362449446029dff18020cd219b3
:101acc004d43934202d980235b02ed183700130c6f
:101adc005b190293039b67434e435c435943a41920
:101aec003b0c120480b21c191018a64202d9802398
:101afc005b02c918049b220463441e00089bbfb2fe
:101b0c009e42ad418619d2198642bf410298059b6f
:101b1c0084466d42d218ab189c440393059b6046d7
:101b2c009a429241039b5242ab429b415b427f42a1
:101b3c001a43029b3818240c1219b842bf419c4519
:101b4c00a4417f4264423c4314196418c30d6402df
:101b5c001c43099b75021d43691e8d41f60d3543cf
:101b6c0040020543e30167d501226b0815401d4374
:101b7c00e307d4401d43069b1d4a9b18002b5eddda
:101b8c006a0709d00f222a40042a05d02a1daa422e
:101b9c00ad416d4264191500e20106d58022d200d8
:101bac009446144b1c40069b6344134a934200dd3d
:101bbc008be06207ed081543e408002124030a0dad
:101bcc001205240b14430d4a5b0514405b08234398
:101bdc00019a5b00d2075b081343280019000bb075
:101bec00f0bdc046ff07000001fcffff0dfcffff2e
:101bfc00ff030000fffffffefe070000ffff0f804a
:101c0c0080221203144257d0164255d134001d00c5
:101c1c00059b039350e0049b0193022f55d0032f97
:101c2c0051d0012fa7d100252c002b00c5e71d009a
:101c3c00059b34000193f5e6079b06939be7012275
:101c4c00d21a382aefdc1f2a20dc202321009b1a11
:101c5c0028009d409940d0406b1e9d41d4400143cb
:101c6c000d436b0709d00f232b40042b05d02b1de4
:101c7c00ab42ad416d4264191d0080231b0423400f
:101c8c0000d196e700240123250096e71f21494245
:101c9c00cb1a2100d9400023202a03d040239a1ac2
:101cac00230093401d436b1e9d4100240d43d8e738
:101cbc00802400252403039580231b031c43039bd2
:101ccc000193034b79e7019ba3e700252c00f8e770
:041cdc00ff070000fe
:020000040000fa
:101ce000f0b50127b84a0301d3181b7a87b0040066
:101cf0000e00019339423ed004ab5d1d2a003b002b
:101d0000b24905f0b5fb2b787f2b05d93b002a00a3
:101d1000ae49200005f056fc2b789b070dd004aa95
:101d200002230632aa49200005f0a2fb04aa0223de
:101d30000632a749200005f045fc0223019aa54977
:101d40001a43019204aa951d2a00200005f090fb79
:101d5000d0226243a04b9b18d96907232201194066
:101d60002b88012900d0ade097498a18d9431b0a76
:101d7000db439170d37073051fd504ab5d1d2a0042
:101d800001239649200005f073fb2b785fb2db0737
:101d90000bd50c23019a9a43019214226243904b73
:101da0009b180822597c0a435a7401232a008b4944
:101db000200005f007fc002f01dbb3057ad504ab4a
:101dc0005d1d2a0001238749200005f051fb1423e3
:101dd00001276343824ad3185b7822013b40029378
:101de0002b7800250392ab420cd17023019a290075
:101df0009a432000019205f0cdf8029bab4266d0d9
:101e0000750a3d4004ab5f1d3e78012e14d1029b44
:101e1000002b00d06de06c4b22019b5c072b0bd19b
:101e2000200006f04bf9002806d1019b3100334316
:101e30002000019305f0aef83b78052b5bd1029ba7
:101e4000002b11d17021604b22019a18137a0b409c
:101e5000102b00d1b4e05c4b21015b5c072b03d15c
:101e60005378012b00d0abe004ab9d1d00232a006a
:101e70002b805d490123200005f0fafa2b889b0690
:101e80000ad514226243564b9b189a7c002a03d130
:101e90000222597c0a435a7404aa01230532534989
:101ea000200005f0e5fa04aa012305324f4920007d
:101eb00005f088fb444b24011c196b461b792372e7
:101ec00007b0f0bd40498a1893701b0a52e73e4b99
:101ed00022019b5c029d072b00d093e7200006f0b7
:101ee000edf8051e03d1019b3b4301938ae7029d58
:101ef00088e7029da0e7012db6d010221a40029279
:101f000006d014236343364ad318597c0122c1e713
:101f1000202293430d2bbfd17023019a34499a4359
:101f200004ab9d1d019202232a00200005f0a0fab7
:101f3000288804f03ff92f4a2f4bfff7bffc224ab5
:101f40002301944663449a680600187b120a00062f
:101f500010430f0003f068f90b0002003900300055
:101f6000fef7e6ff05f066fb80b22880d0256543ca
:101f7000194e32277319c7331b7802999c46cbb28e
:101f8000634510d28a0052199219526f013112031f
:101f9000920d7a439042f2d80133019adbb21b01d1
:101fa0001343dbb20193142262430d4b9b185b7801
:101fb000db0700d470e70021200004f0ebff6be7a3
:101fc000012d00d068e74fe748010020030800001a
:101fd0000408000006080000f80300200a080000ba
:101fe000b8010020080800001f08000009080000d0
:0c1ff000b2080000295c8fc2f568384080
:020000040000fa
:101ffc00f7b5142422004243af4e0500905d1f3804
:10200c0009285ed806f0a4f84e0066008e009d00ec
:10201c00c600e80001010a003100210123006b43d6
:10202c00f3189b78552b4cd1002310211a00280053
:10203c0005f08afad0226a43a04b9b180722db6971
:10204c001340012b0fd09e4914236b43f6185623d3
:10205c00b3709c4b019100930023020019002800df
:10206c0001f03efa2de09849eee723006b43f3189c
:10207c009b78572b25d1002304211a00280005f04a
:10208c0063fad0226a438d4b9b180722db691340fd
:10209c00012b05d08a4914236b43f6185823d7e734
:1020ac008949f8e7280005f069ff00280ad11422b5
:1020bc006a43864b9b181b7c002b03d1280005f030
:1020cc00e9faf7bd14235d43202373554c2375198e
:1020dc00ab70f6e76c433719bb784c2b0bd04e2bff
:1020ec00efd1280005f04aff002817d021233355e3
:1020fc004a23bb70e5e7002303211a00280005f0f2
:10210c0023fa724b1b195b78db0705d47049142337
:10211c006b43f6184d239be76e49f8e723233355a1
:10212c005123e6e76c433619b3784a2bc9d11323f4
:10213c002a006949322004f0b9f94b23f073b370cb
:10214c00bfe76c433719bb784f2b12d0502bb8d14b
:10215c00280005f013ff0028b3d1280005f062fe1b
:10216c005a4b1b195b78db0710d50523335510230d
:10217c00bfe70021280006f043f800232a00574946
:10218c00192004f093f95023f873b2e71823335550
:10219c003c23aee76c433719bb78512b0fd0522b35
:1021ac0000d08ee7280005f0e9fe002800d188e772
:1021bc00280005f037fe24233355532399e70121da
:1021cc00280006f01df800232a0045494b2004f096
:1021dc006df95223f8738ce76c4333199b78532bae
:1021ec0000d06ee7002306211a00280005f0acf998
:1021fc00364b1b195b78db0705d4314914236b4331
:10220c00f618542324e73049f8e70a6803219209a9
:10221c000a4200d055e714235d432c4a52195278d8
:10222c0093080b40012b0bd11a4204d00523735594
:10223c00751910234ce71823735575193c2347e780
:10224c00262373557519552342e76c433719bb7810
:10225c00592b0fd05b2b00d033e70021280004f062
:10226c0087fc1a4b1b195b78db0720d50b233355e6
:10227c0019233ee7a0230a68db059a420ed10121ff
:10228c00280004f075fc5b232a0016492d2004f06d
:10229c000df914235d435a23761950e70c226a4337
:1022ac00114b9b181022997a0a439a72f1e71a2360
:1022bc00335544231de7c04674010020f803002069
:1022cc00183c1d3f5d70000005100829b801002066
:1022dc00204e1d3f204e08291d650000417b00004b
:0c22ec00f1590000818000009c010020de
:020000040000fa
:1022f800f7b543024a025b0a520a4e0044000193b2
:1023080000939446240ec50fdb00360ec90fd20089
:10231800ff2e01d1002a01d101204140a01ba94272
:1023280000d0a1e000282edd002e18d1002a00d10f
:102338004ae1411e00290ed101249b185a015bd5a0
:102348000134ff2c00d13de10122a4491a405b0869
:102358000b40134350e0ff2807d1ff244ce0ff2c2b
:102368004ad08021c9040a4301001b2901dd01224a
:1023780007e010002026c840711a8a40511e8a4181
:1023880002439b18dae7002821d0002c0cd1002b3f
:1023980007d0c043002802d19b183400cee7ff2e97
:1023a80008d11300340027e0ff2efad08021c90499
:1023b80040420b431b2801dd0123ede719002024cf
:1023c800c140201a8340581e83410b43e4e7611c37
:1023d800ff260f003740012f3fdc002c2bd1002bac
:1023e80000d1eae0002a07d09b188022d2041342c9
:1023f80002d001247a4a13405a0704d00f221a4007
:10240800042a00d004335a0105d50134ff2c00d129
:10241800e1e0734a1340db08ff2c04d1002b02d003
:102428008022d20313435b02e4b2e405580aed07a5
:1024380020432843febd002b00d1c0e03400002a11
:10244800dad08023019adb031a4203d062461a428b
:1024580000d10092009bdb007fe7ff2900d1b0e0ac
:102468009b185b080c00c7e7002826dd002e13d157
:10247800002a00d1a8e0411e002906d101249b1a98
:102488005a01b9d59b019e097ae0ff2800d164e77b
:102498001b2908dd01220ee0ff2cadd08021c904e4
:1024a8000a430100f4e710002026c840711a8a4048
:1024b800511e8a4102439b1ae2e7002822d0002cd1
:1024c8000dd1002b08d0c043002803d1d31a340003
:1024d8000d00d5e7ff2e08d11300340020e0ff2eb1
:1024e800fad08024e404404223431b2801dd012361
:1024f800ece71c002025c440281a8340581e83415d
:102508002343e3e7ff20661c0640012e31dc002c44
:1025180017d1002b06d11d00002a00d16ce713004b
:102528000d0069e7002a00d166e78026981af604ac
:10253800304201d0d31af3e7031e00d05ce71d0038
:102548005ae7002b04d1002a40d013000d0004e7fd
:102558000400002a00d14fe78023019adb031a42c6
:1025680000d177e762461a4200d073e700920d0067
:1025780070e780209e1ac004064215d00d00d61ab6
:10258800300004f053ff330005388340844210dce8
:10259800041b1a0020200134e240041ba3405e1ee5
:1025a800b3410024134327e7002ee9d13300340058
:1025b800c5e7241a0a4803401ee713001ce7130066
:1025c800cbe60c00002317e7040015e7802304007e
:1025d8009b04150010e700231de7c046ffffff7da1
:0425e800fffffffbf7
:020000040000fa
:1025ec00f0b5040087b01d000e0004f087fe9c4b74
:1025fc00220103909b189a681b7b170a1b0600216b
:10260c0020001f4304f0a4fd002d68d0002e66d0de
:10261c0014256543934b5d19ab7b002b0ed0287ba7
:10262c0005f08cf9d02262438f4b90499b18c23332
:10263c0018882200002303f039ff2873d025654346
:10264c00300003f0d7fa884b02905d192b00cd3384
:10265c00187803f0cffa864901f000fa029901f0dc
:10266c0031f802f0dbfd834a834bfef75bfc01f093
:10267c00c9ff391c01f026f805f007f905aece3577
:10268c003080287803f0b6fa794901f0e7f902991d
:10269c0001f018f802f0c2fd764a774bfef742fcc7
:1026ac0001f0b0ff391c01f00df805f0eef8042331
:1026bc00708032007149200005f06afb032255211d
:1026cc00200005f07df93d273a0020006c4905f00b
:1026dc0052fd0121200004f03bfd07b0f0bd0322a8
:1026ec005521200005f082f9002e4dd0654b9e42fd
:1026fc0056d0300003f058fd634a644b00900191b2
:10270c00fff7d6f85b4a5c4bfef70cfc01f07aff46
:10271c00391c00f0d7ff5e49051c00f0d3ff05f013
:10272c00b4f80a2180b203f089f889b2281c042974
:10273c0000d88de005f0a9f8013083b20293554a18
:10274c00554b00980199fff7b3f84a4a4a4bfef7ec
:10275c00e9fb01f057ff391c00f0b4ff4c49051c94
:10276c0000f0b0ff05f091f80a2180b203f066f892
:10277c0089b2281c04296ed905f087f8013000278e
:10278c0085b2be42a0d03fe0142201216243354bfa
:10279c009b185f780f4061d0200004f0f5fb93e7a5
:1027ac00142262432f4b9b185b78db0748d53b49bf
:1027bc00381c00f087ff3649051c00f083ff05f03c
:1027cc0064f80a2180b203f039f889b2281c042974
:1027dc0038d905f05af8013083b23149381c0293cc
:1027ec0000f070ff2a49051c00f06cff05f04df855
:1027fc000a2180b203f022f889b2281c042924d9ba
:10280c0005f043f8013085b2029a2649200005f004
:10281c00bbfc039b0d27b34200d855e714220121c2
:10282c006243104b9b185b780b4202d0200004f0e3
:10283c00abfb2a001c49200005f0a6fc4d2743e702
:10284c001a49b5e705f021f8c6e705f01ef8dae7f6
:10285c0005f01bf871e705f018f890e70f0033e767
:10286c0048010020b8010020f8030020e97f000097
:10287c000000c842295c8fc2f5683840b4080000db
:10288c001f08000088130000666666666666ee3fe9
:10289c0000002041cdccccccccccf03fa697424311
:1028ac0047516143b2080000b808000006413443a8
:020000040000fa
:1028bc00f7b504000d0004f0f7f9012824d11f210d
:1028cc006b045b0f2940002b00d177e0481e0e28cb
:1028dc001ad805f029fc082837671919191919197c
:1028ec00191919194d00142363439b49ca1892787e
:1028fc00342a0ad03c2a11d0984ad3185b78db06cc
:10290c000cd4200005f0acf9f7bd200005f08afad4
:10291c0000221521200004f0b5fcf5e714235c43dc
:10292c0015230b55f0e7142363438b4a9b5c022b56
:10293c0004d0052be5d100220321ebe7200005f0a4
:10294c0071faf8e714236343834d5b5d182b01d0b8
:10295c00052bd9d1200004f0d1fc814b9842d3d166
:10296c0014235c4328232b5559232d19ab70cbe72b
:10297c001423634378495a5c182a07d0052a05d0da
:10298c0010267648c3185d78354003d014235c4379
:10299c002523c6e70f2ab7d1200005f043fa2a00f9
:1029ac003100b7e7142363436b4a9d5c0d2da8d10e
:1029bc00200005f037fa26222900abe7c81e0a28aa
:1029cc00a2d805f0bbfb0b003700a1ff640084000c
:1029dc009000a1ffa1ffa4003700b60014252f0022
:1029ec0067435d4ef31901939b78382b0fd1d0229e
:1029fc0062435c4b20009b188022b0331968120193
:102a0c000a431a6005f00efa3922172182e7422b8d
:102a1c0004d1200005f006fa3322cde70225ab43a2
:102a2c002c2b00d06de7200005f0fcf9019bbd5567
:102a3c009d7069e714231f006743474ef519aa7868
:102a4c00382a00d05de7aa7bd2071dd50c290dd101
:102a5c00162322004449642003f028fd434b240133
:102a6c001c19a0711823bb553c237fe7042900d007
:102a7c004ae7d02363433b4ce4188023b0342268ec
:102a8c005b0113432360ede7bb5533236ee7142240
:102a9c006243314b9b189b783a2b0fd1d022624367
:102aac00304b20009b188022b033196892010a43e6
:102abc001a6005f0b7f93b2218212be74b2b00d0fd
:102acc001fe7200005f0aef94f22222122e7142245
:102adc006243214bd15c052900d012e70221d1546d
:102aec009b18997010e7142262431b4bd15c182978
:102afc0005d01a498a185278d20600d401e714225c
:102b0c0054431b221a5548221b199a70fce61423b5
:102b1c00634311495a5c182a07d0052a05d00f4a7d
:102b2c00d3185b78db0600d4ebe614235c431f233d
:102b3c00f7e614235c43094b1b195a78064bd20752
:102b4c0004d50e221a551b192722dee71c221a5512
:102b5c001b193d22d9e7c04674010020b8010020a2
:102b6c0088130000f80300206d800000480100204d
:020000040000fa
:102b7c00f8b50400481e0c2825d805f0e9fa260003
:102b8c000d000d0026002400240026007400110105
:102b9c001e01240024002a010127984b26019d19af
:102bac002b7b974a3b432b7313782000d919117058
:102bbc00eb72a98801f0aaff3900200005f0c8f8d3
:102bcc00ab888e4ab3520120f8bd8c4f2601bb193d
:102bdc001a7bd207f7d51a7a911e02293ed8f55bdb
:102bec009b88ed1aadb2bb195b7a052b03d1854bd3
:102bfc00187804f0a3febb191b7a012b02d020001d
:102c0c0004f02cf8e823804a5b00d15a20006d18a0
:102c1c00d5520023bd192b7304f0f8fa0023eb7284
:102c2c0000236b800023bb5301236b722b72ab729e
:102c3c00764dab7a012b09d12b7aa34201d103f04b
:102c4c008ffd6b7aa34201d10023ab72200004f0fc
:102c5c0021ff0028b7d104f031ffb4e70025052a85
:102c6c00c1d15d88bce714226243694b02269b18d4
:102c7c009968d0236343644a604dd318ac331a6807
:102c8c002301ed182b7b334272d06f7a032f18d1ae
:102c9c00200002f08ff910222b7b134006d020006d
:102cac0004f094fd200004f0a5ff8ce757482200a7
:102cbc005849006803f0fafb0522524b18700221a8
:102ccc0063e0042f1cd1200002f074f9200004f002
:102cdc007dfd2b7bdb06e5d401223900200005f0bd
:102cec0007f84a4b9a7a012a06d11b7aa34200d0e4
:102cfc0069e703f035fd66e7200003f0afffaae7b4
:102d0c00052f12d1200002f055f93e4b187804f033
:102d1c0015fe200004f05afd2b7bdb06c2d469881b
:102d2c00200004f0f5fd0422c9e720006f8802f0b2
:102d3c0041f9364b9a7a012a0dd15b7aa34200d025
:102d4c0041e7d032304bff329b5aff186b88ff1a89
:102d5c002d4b9f5237e769888f4200d833e7e82321
:102d6c00294a5b00d25abf18274a7f1ad752d7e795
:102d7c00200002f01ff92b7b20001e432e7304f061
:102d8c0089fe002805d001220321200004f0b0ffa9
:102d9c0019e7ab7a012b0cd1200004f067fe12e787
:102dac00164b22019b189a7a022a00d00be70322b9
:102dbc009a72200003f012fb05e7104b22019b18be
:102dcc001a7bd20700d4fee69b7a022b00d0fae6df
:102ddc00e2e70a4a210155182b7bdb0700d4f2e607
:102dec006b7a022bd8d0033b012b00d9ebe6895a26
:102dfc00200004f08dfd6a7a61e7c04610010020c6
:102e0c0004060020b4010020f80300206801002013
:082e1c00b8010020257c000034
:020000040000fa
:102e2400f7b50c2545438d4b04005b199b7a0026ae
:102e34005b074bd524224243894b9b185a8811b215
:102e4400b14200dbf0e05a791b79120213431bb242
:102e540000936b461b880193df125b053ed505f09a
:102e64000ff80f231f407f4b5d196b890835db0575
:102e74001b0f9f422cd1009bb34229da1e22eb7810
:102e840093431a000a231343eb700c236343734ddb
:102e9400eb181b7a052b02d0093b012b0bd8200021
:102ea40004f0eeff05f0ccf80c2300226343eb188a
:102eb4001a7205f0cff805f0c3f80c2304225c4322
:102ec4002c19a37a9343a37205f0c4f83000febd15
:102ed4000321200003f012ff0026d6e70f231f4032
:102ee40060d1604b5d19ea7a083593060ed50f213f
:102ef400d3061b0f0f330b40022b04d81e239a4317
:102f040008231a43ea70200004f006f90c236343f3
:102f1400544a2425d3182022d97a65430a43da7205
:102f240086234f4a5b00634352194f4855785288b1
:102f3400c1181a526b469b880d714b80200003f018
:102f4400e3fb0c2211006143464b59184989c9051a
:102f5400090f8f425ed1009900295bda242286256d
:102f6400022162433e4b6d009b185b8865435b0402
:102f74005b0f9b009c463c4b5d190c206043394b16
:102f84001818614511db010008314a888b78d20595
:102f9400db06120f1b0f9a4220d1200004f0bcf86c
:102fa400082672e704f06cffcbe70127836806006c
:102fb400db03db0d5a1cd205d20d4272807a120a51
:102fc400b843024324206043b272254aeb18121816
:102fd40052181279c9195a71c9b2cee71e22cb7898
:102fe4001f2593431a00042313430f22cb704b88ed
:102ff400db051b0f0133134007221a405101827a6b
:103004002a400a4301218272da08c37a8b431343ac
:10301400c37261e71e2162439b18da7a8a43110066
:1030240008220a43da7257e70e4b5d19eb7a9906c8
:103034000dd51f210a40052a09d00f22db061b0fdc
:103044000f331340022b05d804f066f81026022330
:103054001e431ae704f060f8f9e7c0469c0100201b
:0c306400c800002030010020e001002026
:020000040000fa
:10307000f7b5030101938a4b0201d35c0400894d2b
:10308000002b28d1864b9b185b78012b2bd1142663
:103090003700200004f0b2fa00236743ef19bb7435
:1030a000387b04f051fc0a233b73fb7c002b00d1de
:1030b000bb73002701236643ae193374707bf7742a
:1030c00004f042fc0a23f773737304f0bbff7774b8
:1030d00004f0c2ff07e0052b05d1714b02019b18dc
:1030e0005b78022bd3d014236343ea18927c002a26
:1030f00037d06d4ffa1892781e2a02d0db5d122b62
:103100002fd11426d023310063436143674a6918e5
:10311000d318d133c87b1b78984201d300230b749a
:10312000d02363436643d218ae19d032b17b1378f3
:1031300099422ad30021200004f028fa200002f04e
:103140009bfe0023b3730523554a21015218537087
:1031500014232a226343fa54142300226343eb18f6
:103160009a7414266643ae19737c002b0cd01b078f
:1031700014d50621200004f0e5f8071e09d104f05b
:1031800061ff777404f068fff7bd200004f036faa1
:10319000e2e7707b04f0d8fb0a237373142608223d
:1031a0006643ae19737c934313d00721200004f0cb
:1031b000c9f8071ee3d00021200003f00dff042210
:1031c0005521200004f018fc307b04f0bdfb0a23dd
:1031d0003373142301276343334ad218967b3e404e
:1031e0003fd109222e4920010a5484460a00d021e9
:1031f00062440192567061432a4ad5182b4aab7b30
:103200005218d032db191278dbb2ef74ab739a42ea
:1032100013d8200002f030fe6a78ae7305233a42dc
:103220001dd002221e4920010a54019a5370142312
:1032300063431c4ad3180022da742000012103f0f2
:10324000cbfe20000422552104f0c0fb04f0fafe5e
:1032500014236343134ce4180023637492e707229a
:10326000e0e7eb185a7c120706d5da7b60210132c1
:10327000da73200003f0dcfb142308216343eb180e
:103280005a7c8a4302d09a7b01329a73200004f060
:10329000bbfa14236343ed186b7cab74cde7c046d7
:1032a00048010020b801002074010020f80300202c
:020000040000fa
:1032b000f0b5040085b0002103f0bafb0021200026
:1032c00003f04cff01229a21200004f07ffb08222a
:1032d0007049200004f07afb00226f49200004f0be
:1032e00050ff40226d49200004f070fb00226c4921
:1032f000200004f046ff83226a49200004f066fba8
:1033000081226949200004f061fb1421200004f0af
:1033100053ff664a02ab024392b214212000da80c6
:103320009f1d04f037ff802101220901200004f0d5
:1033300063fb10235e4a5f49200004f02ffd230148
:1033400001935d4b22019d18ab68287b1b0a000688
:1033500018435a4900f0bcf904f09dfa584982b26a
:10336000200004f017ffab68287b1b0a00061843f7
:10337000544900f0adf904f08efad0268b2182b2c8
:1033800009012000664304f005ff4f490122200097
:1033900004f01cfb4d4b9e190723f1690b40019370
:1033a000012b27d1082302aa13711423537103237d
:1033b000c9081940200004f0dbf98021042209012a
:1033c000200004f003fb0323f2690199d2081a409c
:1033d0003a802000d2b203f055fb0622eb7921019e
:1033e00093433a8852001343eb710023324a8b54c3
:1033f00003236b70d025012303aa3549200004f074
:10340000cdfc02aa0123053232492000654304f0b5
:10341000c5fc0321200002f02dfb2c4b2e495d1929
:103420002b00cf331a78200004f0abfe02ab9e1db8
:103430007d233200338029490123200004f0aefcb3
:10344000012332002649200004f0a8fc01212000bd
:1034500003f084fe6021200003f0eafa0722eb6902
:103460001340012b05d10021200003f01ff905b006
:10347000f0bd142363431b4d2000ed18ea880023a0
:103480001949fff7b3f8ea880021200003f081fd15
:10349000ede7c046010800000610000041080000ea
:1034a00007100000110800001508000003060000c6
:1034b0001c82000022080000480100200000e041ba
:1034c0004e080000000016433f080000f8030020eb
:1034d000170800004a08000019080000140800003e
:0c34e0001c080000b80100208813000048
:020000040000fa
:1034ec00f0b58bb0040001930c2363436b481600ba
:1034fc00c318da7a0f009206d20f944639d13204ef
:10350c0037d5862149006143654d4e536a181f25f6
:10351c001771997af601294001259972d97af60d1d
:10352c00a943d97280231b021e43019b5680002b9a
:10353c0004d06346f105c90d8b4213dd0c236343a4
:10354c00119ac5186a60109a0326c250200003f025
:10355c00d7f81e22eb7a93432a221343eb723000e6
:10356c000bb0f0bd0199cd5cd11801334d719bb2fc
:10357c00e0e70c2363434b4d1199ea185160109a04
:10358c005a5114236343484a9b5c1e22db0700d428
:10359c0006224649200004f0eefd0c23012f44d0f6
:1035ac00002f04d0022f47d000273d0004e06343d6
:1035bc00ed186d7a6d076d0f6b021e43019a02ab0d
:1035cc003100200001f008f9072201903849200051
:1035dc0004f0d1fdc021019b02aa4901200004f096
:1035ec00d7fb019a3349200004f0c5fd88223d43e6
:1035fc002a433149200004f0befd0c236343294dbe
:10360c00eb181b7a092b05d00a2b1cd11f231e404b
:10361c000d2e18d004f010fd0c235c4305232d193e
:10362c002b7204f013fd022699e76343ed186d7ab3
:10363c001027ad066d0fbfe76343eb189d6820277d
:10364c00ed036d0fb8e70c236343eb189b7a5b0714
:10365c000dd524226243194b9b185e78002e06d19f
:10366c00200001f0ddff200004f082fb77e7144e10
:10367c003100200004f091fdc306f9d52000012291
:10368c000f4904f078fd04f0d7fc0c235c430623af
:10369c002d192b7204f0dafc012660e730010020b2
:1036ac00e00100209c010020b8010020411a00001c
:1036bc00861a0000031a0000041a0000c80000203b
:0436cc00051a0000db
:020000040000fa
:1036d000f0b5c30f85b0440245000391640a2d0e76
:1036e0000293019330d0ff2d3ad08023e400db0415
:1036f0007f3d1c4300950027039b5e025d00db0fae
:10370000760a2d0e039334d0ff2d3cd08022280062
:103710000025f600d20416437f38039b029a5a40d4
:10372000009b9c4684446346b80028430138591cda
:103730000e2833d804f0fefc2f2f8c7b7bad8c7bc6
:10374000ad7b8c7a7a7a6b00002c0fd0200003f0ce
:1037500071fe7626431f76429c40331a0093cae7d7
:1037600000950327002cc7d10227c5e70094012745
:10377000c2e7301e0dd003f05dfe431f9e4076234e
:103780005b42181ac9e728000325002ec5d102257f
:10379000c3e70125c1e734002f0048e0b7b2a3b268
:1037a000200c3c00350c47435c4368435d43230ccd
:1037b000ed195b199f4202d980256d024019a4b210
:1037c0001d042d19ac01671ebc41ad0e25431c0c18
:1037d0002418a4012c4323013dd5012360081c407b
:1037e00004430d007f35002d37dd630704d00f2320
:1037f0002340042b00d00434230103d580310d0075
:10380000284b1c40e308fe2d19dd00230ce080232b
:10381000db031c4204d01e4202d13400039b0193ff
:103820008023019adb032343ff2508e0029a022f3d
:10383000ebd0032f31d000231d00012fd1d158022e
:10384000edb2ed05400ad2072843104305b0f0bda4
:103850003400039aa0e76146c3e70120451b1b2df6
:103860001ddc23002020eb40451bac40611e8c4139
:103870002343590704d00f211940042900d00433f1
:103880008025ed041d40db08002dd8d00023012544
:10389000d5e780240023e403c1e70192c0e70023b9
:0838a0001d00cce7fffffff75c
:020000040000fa
:1038a80070b5040004f066fa524a5349200004f047
:1038b8006dfc524a5249200004f068fcd021542281
:1038c8004901200004f059fc200003f0e3fb4d4ab5
:1038d8004d49200004f05afc64224c49200004f0b1
:1038e8004cfc5e224a49200004f047fcd5210a23fb
:1038f800484a4901200004f04dfa474a4749200048
:1039080004f044fc1823464a4649200004f042fad1
:103918001823454a4549200004f03cfa012244494d
:10392800200004f02afc14236343424d92225b5d7d
:10393800db0701d5902252008023a0211b021a43e5
:103948008901200004f022fc10223b49200004f0e9
:1039580014fc14236343eb5c1e22db0700d406220d
:103968002000364904f009fc20001022344904f0f4
:1039780029f820008822334904f0fffb2000802228
:10398800314904f0fafb20000722304904f0f5fb26
:10399800200007222e4904f0f0fb9021200001228c
:1039a800890104f0eafb200004222a4904f0e5fb1f
:1039b80020001022142104f005f80c220020c02554
:1039c800624325498b18505058601872587a19006c
:1039d80028403f25c0b228405872f0209b7a034007
:1039e8008b721e4b20009a180a23137203f092fb65
:1039f80070bdc0463c1e00000b1a00009f3200003c
:103a0800071a000080c40000421a0000461a00008d
:103a1800491a0000808200009fc80000b01a000008
:103a2800d07f000010280000b87f00003028000078
:103a380002280000b801002004280000411a0000f4
:103a480001080000821a0000871a0000811a00008d
:103a5800861a0000891a00009c010020300100200d
:020000040000fa
:103a6800f0b5c30f85b0440245000391640a2d0eda
:103a7800029301930ad0ff2d38d08023e400db04a1
:103a88007f3d1c432e00002300930ae0002c33d016
:103a9800200003f0cbfc7626431f9c407642361a62
:103aa8000095039b5f025d00db0f7f0a2d0e0393d9
:103ab80025d0ff2d2dd0802228000025ff00d2041c
:103ac80017437f38039b029a361a5a40009b980086
:103ad800284301380e2824d804f028fb4e9d639d06
:103ae800979d634e4e976379797954002e0003238e
:103af800002cc9d10223c7e726000123c4e7381eda
:103b08000dd003f093fc431f9f4076235b42181aa5
:103b1800d8e728000325002fd4d10225d2e70125b4
:103b2800d0e764017801844228d31a210123241a9a
:103b3800012527005b006400002f01dba04201d8ab
:103b4800241a2b4301390029f3d1611e8c411c43ef
:103b580031007f3100293cdd630704d00f23234067
:103b6800042b00d00434230103d531002b4b8031c2
:103b78001c40e308fe2921dd002310e0013e1b2143
:103b88000023d5e78023db031c4204d01f4202d167
:103b98003c00039b01938023019adb032343ff210d
:103ba8000ce03c00039a0095009b022be4d0032b09
:103bb8002fd00023009819000128c9d15802c9b292
:103bc800c905400ad2070843104305b0f0bd029a60
:103bd800eae70120411a1b291ddc23002020cb40e5
:103be800411a8c40611e8c412343590704d00f2190
:103bf8001940042900d004338021c9041940db0886
:103c08000029dbd000230121d8e780240023e40326
:103c1800c0e70192bfe700231900cfe7fffffff7d6
:020000040000fa
:103c2800f0b5040085b00e00634d0701002960d18e
:103c380010228421ed19eb7909011343eb710c2251
:103c480003f0d6fe842140220901200003f0d0feb3
:103c58003100200002f0e8fe29225849200004f033
:103c680095fa8221012702abde1d320001230901ea
:103c7800200004f09ff82a7a2f710c2533782a4007
:103c8800042a23d10722934302228221134333704b
:103c980032003b000901200004f07cf84849032267
:103ca800200003f0a5fe3900200001f0dffe20000f
:103cb800602102f0b9fed0236343424ce41810237c
:103cc800b03422689a43226005b0f0bd382293438d
:103cd800102282211343337032003b000901200077
:103ce80004f058f836492a00200003f081fe02212a
:103cf800dae714234343344a324ed3180193db7b6b
:103d0800002b0fd0019b587b03f01afed02363438e
:103d1800f318c2331888220000232c4902f0c8fb8c
:103d2800019b58732649200004f039fad0236343d5
:103d3800f318da6907231340012b14d1ea19917893
:103d48008c46d1788c4502d9d2791a4210d1c30653
:103d58000ed46022ed19eb7993431a0040231343e4
:103d6800eb7108220de0eb199a78db789a42f0d2d1
:103d78006022ed19eb7993431a00202313430422a0
:103d8800eb7184212000090103f01cfed02363435a
:103d9800f318db699b0505d5842140220901200021
:103da80003f010fed0235c4310233619b036326876
:103db8001343336088e7c04648010020220800000a
:103dc80021080000f8030020b8010020a17f0000ae
:020000040000fa
:103dd8000c23f0b54343504f0400fb18d87a85b044
:103de800830618d5c006000f0238082813d804f037
:103df8009df90512303c1212837488000c25654326
:103e08007f190837fa785606f60f06d01e239a430c
:103e180014231a43fa7005b0f0bd200002f082fea8
:103e28008621490061433d4b02005b1819793c4be0
:103e3800200001933b4b00933300fff753fb1e22f6
:103e4800fb7893430622012800d008221343fb7015
:103e5800e1e70c226243344b20009b180222997a36
:103e68000a439a7203f056f9d5e70c2635006543e4
:103e78007d190835eb785a0605d51e22934314227e
:103e88001343eb70c7e7862040006043234f6988df
:103e98003b185a889c46c905244b090f1a40cb0287
:103ea8001a4313041a2251430393431dc25b5b1840
:103eb80003991f480a436146097901901d48db1997
:103ec80000902000fff70efb1e22eb789343012899
:103ed80001d13343d5e71026fbe70c2565437f194d
:103ee80008377b880121db051b0f06d01e22fb78d3
:103ef80093431a001023a9e70321200002f0fcfed7
:103f080089e70c25200003f005f940226c433f198e
:103f1800fb7a9343fb727ee730010020e00100202a
:103f280001000400256800009c010020ff87ffffb6
:083f38000a0708085d580000ab
:020000040000fa
:103f4000f0b50e2785b000236a46d4216f44137361
:103f500053733b7003aa01234901040003f088fa5c
:103f60006b4601251b7b2b4254d00d222b006a444b
:103f70004549200003f07cfa2b003a004349200019
:103f800003f076fa6b460f265a7b3b786e4413405b
:103f9000337032002b003c49200003f013fb3278d1
:103fa0003b4e2a4203d00c236343f3181d72930740
:103fb00004d50c2303216343f3181972530704d566
:103fc0000c2302216343f3181972130704d50c2341
:103fd00004226343f3181a720c252b006343f31871
:103fe0001b7a042b02d0200001f020fb6543775997
:103ff000002f0ad075196968080c0a0ac3b2000ab2
:104000000090d2b2c9b22000b8470c236343f6181f
:10401000002333726b461b7b9b0732d50d220e2685
:1040200001236a441b4920006e4403f021fa012356
:1040300032001949200003f01bfa6b460f255a7b0a
:1040400033786d4413402b702a000123114920005e
:1040500003f0b8fa2b787f2b02d9200003f03ef84a
:1040600008222b7813420cd00c216143084b20000e
:104070005b189b1899780a4310218a439a7004f0c0
:1040800009f805b0f0bdc046811a0000861a00008c
:0c4090009c010020821a0000871a00002a
:020000040000fa
:10409c008322f8b53f4c92000021200004f0c0f8b8
:1040ac0001233d4a6370228223733c4a03236282bc
:1040bc0010226373ba33ff33e254d132ff32083328
:1040cc00e321e2523c230026490063520231625242
:1040dc000231635202316252123aa352304d314fc7
:1040ec00314c324b05202b60314b73216b60314bc3
:1040fc000422ab60304beb60304b2b6100236b61c7
:10410c00ab61eb616072a0742020e172e074552108
:10411c0006202173a075022107206173a0768c46be
:10412c0008200321a270264aa173e1732174e07662
:10413c000c2109202280042261746175e1752077bd
:10414c006177a177e1772000210022756246223049
:10415c002031a3720b704b704270042282702200cb
:10416c00012125320170137053709370f0233b8042
:10417c007b80bb803c33fb807300194330000136dd
:10418c003972f6b203f008fbd0350c37d034022e5e
:10419c00a7d1f8bdf80300201c3000002404000057
:1041ac0014040020cc050020ba04002039020000c1
:1041bc002c9101082cd102002cb104002c410600da
:0441cc0010270000b8
:020000040000fa
:1041d00070b5464d6b7b002b1cd002222b8a444cc1
:1041e000134218d02277237f5bb2013300d06ee0f8
:1041f00000232377c0236a689b0213436b602b8ada
:104200001bb2002bfbdb0323ab73236a002b01d013
:10421000606a984770bd0123298a194203d0ff23a1
:1042200023776277dfe70422298a114003d0ff2237
:1042300022776377d7e7227f52b2032a31d0042a4c
:104240000ad0022acfd1e2682088002a02d002f0e8
:104250009bfbc8e71900fae76269e1688a421ad154
:104260002269002a0bd003222188227749000b43c0
:10427000dbb22b752b8a1bb2002bfbdbb3e7c02311
:104280006a689b0213436b602b8a1bb2002bfbdb1b
:1042900005232377a7e7531c636163689b5c2b7638
:1042a000a1e72269a369013a93420ad1e022696831
:1042b000d2020a436a602a8a12b2002afbdb052274
:1042c00022775a1ca2612a7ea168ca548be7237ff9
:1042d000052b9fd100232377637703233022ab7311
:1042e0002b8a1340102bfbd18fe7c04600140042ed
:0442f000580600204c
:020000040000fa
:1042f4008222f0b5c7b05200002104000f2605a8a1
:1043040003f092ff002320006e443370fff762fd38
:1043140003f096fe14236343364dea18517c0029ba
:104324000dd03549c9184978c9075ad50a215955b4
:1043340016239370142300226343eb185a7403f07a
:1043440089fe200003f0d2fb002304aa009331006d
:1043540005ab200000f0aefa0a23184229d014223b
:104364006243254bd75c049bb9088c460321604605
:104374000840844620489b09821819400c208c452b
:1043840033d951789b00814303400b435370200081
:1043940002f082fe142363430499eb18da1dd971e9
:1043a4000b0a53700b0c93700b0ed3702000fef7a6
:1043b40083fa142362226343ed186a700e4ad318f9
:1043c4005b78db0705d53278049b05a92000fbf751
:1043d40077fe3278049b05a92000fdf70dfe47b057
:1043e400f0bd1a2159554423a3e751783b0081437a
:0c43f400cae7c04674010020b801002098
:020000040000fa
:10440000f0b585b001900292002901d0002805d1b5
:10441000002083423bd0029a824238d00720384c99
:1044200065680540ac4609d0002902d00020ca07c3
:104430002dd4002b02d00020da0728d40198451e85
:10444000a841404201400298451ea841042540422f
:104450000340a07b28401cd1268a354325829942ff
:1044600000d2581a6546002d02d05b084908400862
:104470000125a67b2e42fcd000252e008e420ad1bb
:1044800000281dd10223a27b1a42fcd0012005b0d6
:10449000f0bd208bdde76246771c002a0ad1019a25
:1044a000965d26833e00002b13d10122a77b174285
:1044b000fbd0e3e7019a7600b65af605f60df0e771
:1044c0006246002a03d1ff2222830138ebe70d4a1e
:1044d000fae70422a77b1742fbd0278bbfb29d428d
:1044e000ccd26a1c03926246002a03d1029a575525
:1044f000039dc3e7ff05029a6d00ff0daf52f7e77a
:0845000000080042ff01000069
:020000040000fa
:10450800f0b55178147809020c43917885b0090404
:1045180021430903890d01913421d37841435b0676
:104528005b0fc918344d1b3189006918496800248c
:104538008c468905890d0091009e0199b14256d893
:10454800a34254d0d02141436918c7310978994210
:104558004dd3142141430291029e2849070189192c
:104568000126897b4909314003913900244f7f187e
:10457800ff79039937408f43a7423bd0029e2149d8
:1045880089198988019eb14264412100e4b2012958
:104598002dd1142646431b4989196646cb708e6077
:1045a800517813780902194393781b041943d37877
:1045b800d02250432d182a001b060b43ac3213603f
:1045c8006a462b00322112883003b833800d1a80d6
:1045d800484301f0f9f82b00fa21b6331880009b04
:1045e80049004343180000f09ffbb43528802000a1
:1045f80005b0f0bd3400cce7f803002074010020ba
:0846080048010020b801002068
:020000040000fa
:10461000f0b50e034d00430f6d0d760a1e436b1c63
:104620005b05c90fc2005b0d012b52dd344bec184a
:10463000fe2c5ddc002c27dc230017335bdb8023a2
:104640001e271b041e433f1b1f2f0cdc2d4b10008d
:10465000ed18aa401300ae405a1e9341f840334370
:104660000343002417e002204042041b3000e040d6
:104670000024202f03d03400234bed18ac402243fc
:1046800013005a1e9341ebe78001431e9841520fdd
:104690000243f30013435a0704d00f221a40042a9e
:1046a00000d004335a0104d50134ff2c25d0174a19
:1046b0001340db08ff2c04d1002b02d08022d20350
:1046c00013435b02e4b2e405580ac90720430843d8
:1046d000f0bd13003343002d02d15a1e9341c0e7b1
:1046e000ff24002bd7d08023f6009b043343d2e76e
:1046f0000023ff24cfe70123b3e70023d9e7c04617
:1047000080fcffff82fcffffa2fcfffffffffffb1f
:020000040000fa
:10471000274a2849136a194002230b4313620823ce
:10472000d1681942fcd0002323499361234b59607f
:1047300023499960597849b20029fbdb8020918c8c
:10474000814391841021d0680842fcd01d4908683b
:10475000800e3f2800d11f201b498002096889056f
:10476000890d014391628221c90159801749d162a3
:10477000174991844021d0680842fcd0154a5a60fc
:104780005a7852b2002afbdb134a5a800a325a8006
:1047900001325a8002325a8003325a8007325a80dc
:1047a0001f220e4b5a61da610d4a1a627047c046e9
:1047b000000800400000ffcf01060100000c00408f
:1047c00001fa00002460800028608000dc051400ed
:1047d0004602000000070100034000000004004002
:0447e0002c010500a3
:020000040000fa
:1047e400f7b5802636020d0001921f000e401cd141
:1047f40034004b045b0f9b002a0a3d707a70012041
:104804002a0403d50320be70360afe70019ac31829
:10481400dbb2002a42d1030000212218d2b2934213
:104824003fd101340019c0b2febd80240b0ce4005a
:104834009eb21c4027d10c2242431c488018418957
:10484400827ac905d206090f120f91421fd1d805e9
:10485400c00d1a2100f0b4fa002917d00320cbb2fe
:10486400023108408910cab2002804d0042401325d
:10487400241ae4b2d2b20e48120328402d0c02438b
:104884002d041543b8e702240023b5e70c001a23ce
:10489400b2e711780130c0b2395401329842f8d1ec
:1048a400b9e70133dbb2f954b9e7c046300100205f
:0448b400ff8f000072
:020000040000fa
:1048b800f7b50e00170004001d00fef7affa6a46b0
:1048c800d080d1888446002909d10c2262432a4b22
:1048d8009b189b7a9a0702d408001b071ed5022250
:1048e8006346134021d024226243244b9b185a78f4
:1048f80032705a883a60002d08d0002007279e1c85
:10490800328812133a409200904208db089bcdb2dd
:10491800002b02d02900200098472800febd1a1855
:1049280012792a54013080b2eae76046000716d5aa
:10493800862040006043124a1218107930701068bf
:104948003860971c002de1d03888c005c00d83421f
:10495800dcdad0184079e85401339bb2f4e70c2133
:104968006143054b5b18987a042108338507cdd538
:10497800904398701021c9e79c010020c8000020ce
:04498800e00100202a
:020000040000fa
:10498c0014234343f7b52e4a0500d6189f5c082321
:10499c001a003b4301932b4b71789c46d0230a435e
:1049ac00009262464343d4180722e0690240012a70
:1049bc002ed10b2217430a43210000920c22b03156
:1049cc000868260002430a60190074331800c436c4
:1049dc0032782031920061446044019703f0c2fbad
:1049ec003378c7342370142369465d43144a09781d
:1049fc0053195970694609790120a95400220a21da
:104a0c005a7419739a739a7418745973da73f7bdcc
:104a1c0021000c22b031086827009043086019006f
:104a2c0074331800c5373a783c31920061446044c5
:104a3c0003f098fb3b78c73423700023f380d2e754
:084a4c00b8010020f80300206e
:020000040000fa
:104a5400f0b500242c4d85b0200002f005fe2b6833
:104a64009b0634d500230a201a00190001f022fd08
:104a74000700264bc2009b18063301933022019b8a
:104a84001b781340202b1fd003ae042332000e21c9
:104a9400200003f091f93378022b2fd10423320044
:104aa4001900200003f088f932782b68242a21d1d8
:104ab4007278042a1ed1b278502a1bd1f278032ac4
:104ac40018d1202213432b60380002f03bff01343d
:104ad400e4b2d035022cbfd120220d4bd9690a4053
:104ae40000d1da612022ec3319680a4000d11a603f
:104af40005b0f0bd202293432b60bfe720232a6832
:104b04009a431300f8e7c046140400200806002066
:044b1400f803002082
:020000040000fa
:104b1800f0b5d0244443284b85b01a1902911100ee
:104b2800c4310978c63201916946097900261170a5
:104b38000c2250432034e4181b180393019b9e4217
:104b480001d105b0f0bd029801f0f6fa071c322039
:104b58002568ad0aab059b0d584301f0edfa011c21
:104b6800381cfef77dff1549fef7aefd1449071cfa
:104b7800fef7aafd02f08bfe0a2180b200f060fe6b
:104b880089b2381c042913d902f081fe0130039b35
:104b980080b2db33ff331a88131c824200d9031c0e
:104ba8009bb2ad021d430136a563f6b20434c5e7d6
:104bb80002f06dfeebe7c046f80300200050c34644
:044bc8000000204188
:020000040000fa
:104bcc00f7b52b4d0601aa199178d3780190745d35
:104bdc0057784b40202b31d013d8022b0bd8002bfd
:104bec0035d00123aa19d1790b43d371002c04d1f0
:104bfc000027012401e0082bf3d0ac55ad196f70e0
:104c0c00f7bd402b1ad00ed8222bf6d80123aa19a7
:104c1c00d17901980b43d37103f054fa022c05d1ce
:104c2c0000270324e9e7482bf0d0e6e7012ce4d178
:104c3c000027019803f0def93c00dee7022cdcd003
:104c4c000124aa19d3790027a343d371d5e713798b
:104c5c008b42cbd00029c9d10121d37901988b4348
:104c6c00d37103f02ffa012ce2d0022cc5d1d7e777
:044c7c0048010020cb
:020000040000fa
:104c8000f0b54d006d0dac4685b01d035e00db0f29
:104c90000193264b0c030290240bc90f03922d0b9a
:104ca000760d9c4503d12700022307432dd11f4bce
:104cb0009e4203d12f000223174326d100276346cb
:104cc000bb4203d1204347424741ffb2002e01d1ee
:104cd0002a431dd0002f1fd0019b013b012003431d
:104ce00013e0b44501da4b1ef8e7ac4219d809d1fc
:104cf000029b039a934214d8029a03983b00824283
:104d0000f1d302e03b00ac42edd3180005b0f0bd9a
:104d10003300002ff9d104e0019b994201d1b44541
:104d2000dfdd012349420b43efe7c046ff070000e8
:104d3000002941d010b4041c4c40a4460123002299
:104d4000002900d54942002800d5404288422cd392
:104d500001242407a14204d2814202d209011b018d
:104d6000f8e7e400a14204d2814202d249005b008c
:104d7000f8e7884201d3401a1a434c08a04202d3f4
:104d8000001b5c0822438c08a04202d3001b9c0835
:104d90002243cc08a04202d3001bdc082243002897
:104da00003d01b0901d00909e3e7101c6446002c5d
:104db00000d5404210bc704701b5002003f076fae0
:104dc00002bdc0460029f7d003b5fff7b3ff0ebc04
:084dd0004243891a1847c0464e
:020000040000fa
:104dd8001423f7b5d02443430092234a06009b5c72
:104de8000f00224d44439b0630d52b19c6331b7840
:104df80058340b7033010193eb18ed33ff331b78f4
:104e08002c19db0704d522003900300002f02ef8f7
:104e1800174b32019b18db79db071dd5142373432d
:104e2800114ad318fa229b885200934214d1d023f6
:104e38005e432023ad19b0352a6821009a432a60c1
:104e48003a780098920003f08ff9f7bd2b19c43314
:104e58001b7820340b70cde73b7822000099300096
:104e680002f034fcf1e7c046b8010020f803002046
:044e780048010020cd
:020000040000fa
:104e7c00f7b5d0254543264c01916519290013003f
:104e8c002a00d231d33206001278bc350978002bb7
:104e9c002bd1082302f0c0fd1e222b8893432b80bc
:104eac00d02373431a000025dc32a418184ad318f7
:104ebc0000930123ab40009a0199009f5218e232f3
:104ecc001278bc371a40934216d1e278002321782d
:104edc00300002f0a1fd0222aa403b8813430135a9
:104eec003b800134032de4d1f7bd002302f094fd87
:104efc0010232a881343d2e7e27808232178300064
:104f0c0002f08afd0222aa403b889343e7e7c046a1
:044f1c00f803002076
:020000040000fa
:104f2000f7b51e035c00db0f0093244b0d034f000d
:104f300084462d0b7f0dc90f0192360b640d9f42e5
:104f400002d12b0003432bd11c4b9c4202d13300d6
:104f5000134325d100239f4203d1284343424341b9
:104f6000dbb2002c01d132431dd0002b1fd00098a2
:104f70000138012103e0a74203da01200139084387
:104f80000de0b54218d807d1019a944514d81800fd
:104f9000019b9c45f1d302e01800b542edd3febd64
:104fa00002204042fbe72000002bf8d104e0009ae9
:104fb000914201d1a742dedd4842dae7ff07000057
:020000040000fa
:104fc000f7b509030700880d140001f0b9f820496e
:104fd000fef74afd3e0101901e4d230127d5240313
:104fe000d0237b43a00d1c4ce318b833188000f08d
:104ff00007fe0199fef76cfb02f04dfc192180b20f
:1050000000f0e6fbab199a8880b2944658801a7b70
:105010000421604519d860460a4358801a73d0238a
:105020005f43ad19e4196b88b4342380f7bdaa1926
:10503000630104d50823117b0b431373cfe70821c9
:10504000137ba4058b431373cae78a43e6e7c04684
:0c5050000000a04110010020f803002027
:020000040000fa
:10505c0070b5d0244443224e05003419c93423784a
:10506c00002b22d001f0dcfe012832d12378034240
:10507c001cd083432370142320216b43194a9c5c5e
:10508c0021439954d2185278024204d00221164a74
:10509c009954d3189970d0236b43f618c9363378ca
:1050ac009b0602d5280002f0edfd70bd02221342d2
:1050bc00f1d09343237014236b430a4ad2185278cd
:1050cc000242e8d00d21084a9954d31822229a7032
:1050dc00e1e700230d212370280002f02df9dae717
:0c50ec00f8030020b8010020740100202f
:020000040000fa
:1050f8000123234910b50a7813430b704b785bb230
:10510800002bfbdb00238b61d0231b05cb618023a5
:105118001022db014b611b4b0e24581cc277180070
:105128002c300270180038300270180044300270b9
:1051380018005030027018005c3002701800683097
:105148000270180074300270180080300270180065
:105158008c3002701800983002701800a430027069
:105168001a721a751800bc331a7002230a78b03004
:10517800134304700b704b785bb2002bfbdb10bd44
:085188000018004000000020a7
:020000040000fa
:1051900070b5fef783ff02f0d1fd050003f06bf858
:1051a000284001251f4c054003d12023e2699a4382
:1051b000e261002002f03cff002d05d122002023f7
:1051c000ec32116899431160012002f031ff02f0c6
:1051d000a5fdfff73ffc01f07ffc02f03dffe36916
:1051e0009b0602d5002000f083fe2300ec331b68f1
:1051f0009b0602d5012000f07bfe02f023ffe3694d
:105200009b0602d5002002f051f9ec3423689b067e
:1052100002d5012002f04af902f058f802f01cff12
:08522000280070bdf803002016
:020000040000fa
:1052280070b54400240e631c4102dbb24d0ac60f60
:10523800012b16dde0239b00e418090b6d07002302
:105248000903080b190d09050143184864050140b5
:1052580064080c436400f6076408344328002100fe
:1052680070bd002c17d12100002de8d0280002f0d5
:10527800ddf80a2809dc0b2329001b1ad940030092
:1052880015339d400a4c241ad9e7030029000b3b2b
:1052980099402500f6e7002d06d00c0b8021090364
:1052a8006d072143034ccae72900fbe7ffff0f8086
:0852b80089030000ff0700005c
:020000040000fa
:1052c000142370b543430500d020204a204c9b5c3a
:1052d00068439b062dd523181a000100c6321278a8
:1052e000c7331a705831920074306118201802f0d8
:1052f0003fff2b01e318ed33ff331b78db0709d5a4
:10530000d02169430a00c7317432a21861182800fd
:1053100001f0b0fd280002f0f7f9d0236b43e41848
:10532000b0344023226800280dd19a431300236033
:1053300070bd23181a000100c4321278c7331a70e6
:1053400020319200d0e71343f1e7c046b8010020b6
:04535000f80300203e
:020000040000fa
:10535400d0214143214a30b55218d269204b000173
:1053640052071cd01a18d1798c060bd59478002cce
:1053740008d1d5785479a54204d10421147a214363
:1053840011721de04a061bd51a18d178002917d1cd
:10539400947851798c4213d1147a0821efe71a18c2
:1053a400d1798c0606d59478952c03d1d578547987
:1053b400a542e2d04a0603d51a18d1789529e7d038
:1053c4000c211b181a7a0a4206d06020d97981432d
:1053d400d97102218a431a7230bdc046f8030020f5
:0453e400480100205c
:020000040000fa
:1053e80070b5060002f02afe214c35016219137ac5
:1053f800d90708d55178012901d10321517001211c
:1054080062198b43137263191a7a920723d5db79d1
:10541800da0611d5300002f05bfc63191b7a9b0792
:1054280019d5605d0a2811d802f080fe0d0d0d18ff
:105438001c10101010101c0060221342edd0300018
:10544800fff784ffe9e73000fff7bcfb022264198d
:10545800237a9343237202f0fbfd70bd0322631984
:105468005a70f3e7002263195a706255eee7c04696
:0454780048010020c7
:020000040000fa
:10547c00de2370b51e4d5b00eb5cdb0631d5e02303
:10548c005b00ea5c0433002a03d0012a2ad1e4230e
:10549c005b00eb5ae8260024c821164a760093805c
:1054ac001160147254729472ab5314236343124af6
:1054bc00e0b29b1801225b7813420fd00c2363439c
:1054cc00dd33ff33eb5c134208d000f0bffd0b4b18
:1054dc002201d2189288ab5b9b1aab530134022c7d
:1054ec00e3d170bd0023022ad4d1cd33ff33d0e7f2
:1054fc00f803002068010020b801002010010020f2
:020000040000fa
:10550c000c231a004b434243f0b51f4c0325a21841
:10551c00e318dd32dd33ff32ff3312781b78521083
:10552c005b1017001e002f402e40b7420edb5a4076
:10553c002a4226d10826154b02019d182f7b0d01fe
:10554c00374204d05f193f7b374204d1f0bd5f195d
:10555c003f7b37420ad1de267600a45d102c07d1a2
:10556c009a185b19d27adb7a9a42efd30800ede7ee
:10557c00112c06d19a185b19d27adb7a9a42e5d8ab
:10558c00f4e7ff20e2e7c046f803002010010020fa
:020000040000fa
:10559c00204a214b70b50021934203d2197001337c
:1055ac009342fbd1002503261c4803684168002b5d
:1055bc0018d100292dd083680c30002b18d0002373
:1055cc000022845c9c5401328a42fad333000b4093
:1055dc005a1e93418908591889004018036841687c
:1055ec00002be6d082680c30002a07d10029dcd0d1
:1055fc0059181d7001338b42fbd1d6e70029dfd13e
:10560c0033000b405a1e93418908591889004018e1
:10561c00e4e770bd5806002000000020cc6b0000b1
:020000040000fa
:10562c0070b52049040002f0b8fd70231840102812
:10563c0011d020281cd000280cd10c200721444369
:10564c0019480019427a53075b0f01330b408a4308
:10565c001343437270bd0c200721444312480019b8
:10566c00427a93065b0f01330b40db003821eee7e7
:10567c000c2003223f2560430b4b18188368010054
:10568c00db035b0f01331a409401427a9b082a40da
:10569c002243427201208a7a0340824313438b7265
:0c56ac00d8e7c046041a00009c01002052
:020000040000fa
:1056b800f8b504000f00002101f0b6f91e4d2601cf
:1056c800ab19012f1ed122221a71202206215a71ec
:1056d800da798a43110004220a43da71022201218d
:1056e800200001f0cbf90c22ad192b7a1340082bbe
:1056f80013d12021200001f097f90121200000f0aa
:10570800b5f9f8bd48221a7140225a710622d97992
:1057180091430a43da710322e1e7042b05d14021c2
:10572800200001f081f90221e8e76021200001f062
:0c5738007bf90321e2e7c0464801002095
:020000040000fa
:10574400d02242431e4b73b59b18db6904009b06b1
:1057540035d502f075fc00236a4601add3802b8059
:10576400961d02232a001021200001f07ffe2b88c1
:10577400db040fd5022332001421200001f076fe51
:105784003388104a1421134033803200022320004e
:1057940001f016ff29880c4b194202d02000fcf7b7
:1057a4009dfa2b88db0602d52000fef7c7fb2b8869
:1057b4009b0702d5200000f0dff902f04bfc73bd1b
:0c57c400f8030020ffefffff01060000cb
:020000040000fa
:1057d000002934d00123002210b488422cd30124a4
:1057e0002407a14204d2814202d209011b01f8e739
:1057f000e400a14204d2814202d249005b00f8e7f2
:10580000884201d3401a1a434c08a04202d3001b1d
:105810005c0822438c08a04202d3001b9c08224350
:10582000cc08a04202d3001bdc082243002803d08e
:105830001b0901d00909e3e7101c10bc704701b532
:10584000002002f033fd02bd0029f8d003b5fff7b8
:0c585000c1ff0ebc4243891a1847c04635
:020000040000fa
:10585c00f7b50c2444431d4b1b19197a01292ed181
:10586c001b4b1c1925006389a27adb05d2061b0f82
:10587c000835120f9a4225d00f26013333400726e4
:10588c001e4076010196a67a020037001f2637408b
:10589c003e00019f1a203e43a672de08e37a8b433a
:1058ac003343e3720b49092300f000fe1e222072e1
:1058bc00eb7893431a000e231343eb70f7bd8b1e4a
:1058cc00012bfbd801f016faf8e7c0469c0100202a
:0858dc0030010020b57c000042
:020000040000fa
:1058e400f8b5d0263300040043431e4d0122eb18c3
:1058f400d23354211f7802f042fc20000022682198
:1059040002f046fc20007122c02102f038fc200085
:105914009122c12102f033fc631c7343ed182a79f0
:105924000125bd402000adb2c22102f028fc2a00ae
