:020000040000fa
:10000000f01f0020a57000006f6e00000777000051
:1000100000000000000000000000000000000000e0
:100020000000000000000000000000004b6700001e
:1000300000000000000000004b6700004b6700005c
:100040004b6700004b6700004b6700004b670000e8
:100050007d7b00004b6700004b6700004b67000092
:100060004b6700004b6700003948000000000000ab
:10007000000000005d8500004b6700004b6700003a
:100080004b6700004b6700004b670000000000005a
:10009000000000004b6700004b6700004b6700004a
:0400a0004b670000aa
:020000040000fa
:1000a400f8b5c046f8bc08bc9e46704731770000de
:1000b400f8b5c046f8bc08bc9e46704709770000f6
:020000040000fa
:1000c400f0b500260d2791b004000291059231008d
:1000d40003931c2204ab09a81e7308960f2508f08d
:1000e4005bfd04ab0e22ff180b2304a952186d18f4
:1000f400200039003b7013702e7008f0d5fb2900e6
:10010400200008f08ffc14236343c74d0493ee18ba
:1001140063233f787370002f0cd1049b5b5d002b2d
:1001240008d0200006f0eaf80a23f373049bb770a2
:100134005f55f77214231a006243a85c11281bd878
:1001440008f0cafc1200b4015400b500db009201af
:100154001a0050012e03dc010f0228021a00f202d9
:100164009c03b203e70306046343ef181e00bb7845
:10017400002b03d0012b1ad011b0f0bd03223b7326
:10018400bb7b20009343bb7307f086ff18220c212e
:100194006243a64b20009b185a788a431100082218
:1001a4000a435a7007f048fc0123bb70e4e70d23af
:1001b40004aa9b181b78022bded10e2204a9521824
:1001c4001278042ad8d10f2252181278002a01d1a9
:1001d400ab55eae70f23ab552f23bb7018236343ba
:1001e400924ce41896235b00a380c5e76343e918a7
:1001f4008a78022a23d0042abed1200006f0a0fd6a
:10020400ec2262438a4b9b18d9331b78002b02d013
:10021400200008f02df814236343ed1800232b73fa
:10022400eb720323ab700223aa7b82491343ab73a3
:1002340022001323182006f01ffde8739ce7c87af8
:1002440002280dd9897bc8060ad5114205d000229f
:100254000921200008f088fc8ee70622ea548be787
:1002640009aa07a9200005f089ff04ab1a7b012124
:100274000023200007f004fe14231a006243aa1886
:10028400927b920711d46c4e6343ed182b7b0133a0
:100294002b730323ab7009ab0021684a01960092cb
:1002a4000200200003f02efc66e7654eece7634392
:1002b400ef181e000223ba7b20001343bb736b4666
:1002c400029a998904f064fdec22594b54430128a5
:1002d40009d11b19b03319685a4a0a401a60042319
:1002e400ab550a2361e71c19b0342268564b1340fe
:1002f40023600723ab55082357e76343ee18b07810
:100304000a38042800d937e708f0dcfb05003a0076
:1003140036ff13002a00002303211a00200007f0ef
:10032400affd14236343ed180c23484eab70002338
:10033400b2e7ec2262433e4b1c209b188022b03370
:10034400196892000a431a6041490e23220006f0fc
:1003540093fc14235c430c232c19e073a3700be768
:10036400200007f017fa1e20002322003949ff302d
:1003740006f082fc14235c432c19e0730b23ede795
:10038400182332266343294a2000d2181389d188be
:100394001b040b431b039b0d5e4307f047fc864283
:1003a4000fd1200008f0eef9002306211a002000e6
:1003b40007f066fd14236343ed180c23264eab703f
:1003c400b5e7ec2363431a4ce4182200b0321168f9
:1003d400224bb4340b401360002306325380138045
:1003e4002380c9e66343ee18b378082b00d0c3e634
:1003f400b37bdb0716d41a4e002304211a00200015
:1004040007f03efdec226243094b9b188022b03377
:100414001968d2000a431a6014236343ed180923b0
:10042400ab7084e70f4ee7e790030020d40300206d
:10043400c8000020e16c0000020401053d790000c1
:1004440002040829fffbfffffffdffff040d091352
:10045400018a0000cd820000050f0913fffeffff93
:100464000c000829050f08296343ed18ab780f2bfe
:1004740000d081e60123aa7b20001343ec22ab7356
:1004840010236243ab70ce4b9b188022b0331968a3
:1004940052000a431a6007f04bfe0021200006f0c8
:1004a400affe0721200007f067fa65e66343ee1804
:1004b400b378052b12d0072b00d05de6337b322bab
:1004c40007d8f37a022b13d91222b37b1340102bd3
:1004d4000ed114235c4306232b554de6072322003b
:1004e400b849962006f0c8fb0623f073b37043e6c0
:1004f40014235c4302232b552c192fe763431e005e
:10050400eb189a78132a07d0152a00d034e60b2268
:10051400aa5519229a702fe69b7b9b0708d5ec22db
:100524006243a74b9b18b0331968a74a0a401a6064
:10053400200008f027f9002314261a0019002000cf
:1005440006f03cf933006343ed18eb7a22000133e3
:10055400eb729c4915231c2006f08efbae70e873e9
:100564000ae66343ef181e00bb78162b06d0182b3f
:1005740000d001e60b23ab55192316e6200008f042
:1005840001f9182322008f491c2006f075fb17235c
:10059400f8730ae66343ee18b0781938082800d9ce
:1005a400eae508f08ffa090022003700e9fd4d0062
:1005b40052007400a600b400200008f081f900285d
:1005c40003d00021200008f0d7fa2000002106f013
:1005d400ebfd002322007d497d4806f04dfb1423ea
:1005e4005c432c19e0731a23b8e6200007f01efbc5
:1005f400061e00d0c0e5200008f0c4f83300220035
:100604007449192006f038fb14235c432c19e07359
:100614001b23a3e6200008f053f9002800d0abe523
:10062400200008f0aff8c8201d232200654980008f
:1006340006f022fb14235c432c19e0731c238de683
:1006440014235c431e232c1988e60f2304aa9b1849
:100654001b78002b0ad0182262435f4b9b189b7cab
:10066400002b03d00121200008f086fa200001218c
:1006740006f09afd1420002322005449ff3006f0ae
:10068400fbfa14235c432c19e0731f2366e6200055
:1006940007f0ccfa514b0700984200d06ce52000db
:1006a40008f070f8200007f0dffa18230a266343e5
:1006b400494a3900d3189a8802937243012392b2ab
:1006c400200002f0f1fb0f2304aa9b181b78002bd7
:1006d40018d0029b9b7c002b14d00023220040499d
:1006e400300006f0c9fa14235c432c19e07320236c
:1006f40034e6200008f0e4f8002800d13ce52000ae
:1007040008f040f814235c4321232c1926e6220028
:1007140000233449344806f0affa142300225c4322
:100724002b1918742a55f5e66343ee18b07822386d
:10073400042800d920e508f0c5f905001ffd1200c2
:100744001b002400002308211a00200007f098fb56
:1007540014236343ed182323244eab70e7e51423dd
:100764006343ed1823232200ab701649252361e56a
:10077400142305226343ea54ed1810230921ab70b6
:1007840090e66b46029a9989200007f087fd1423ae
:1007940005226343ea54ed1810230821ab7081e667
:1007a4006343ee18b0782938052800d9e4e408f04a
:1007b40089f91f003c00e3fce3fc5e005200c046e4
:1007c400c8000020018a0000fff9ffffcd8200006d
:1007d4008a02000049840000d4030020881300002a
:1007e400d95d00006d8700007c1500000d24051004
:1007f400ec226243684b20009b18b0331968674aa7
:10080400674e0a401a6007f0bdff0021200008f07f
:100814001efa00230d211a00200007f031fb1423d7
:100824006343ed182c23ab7081e5200007f0aaff89
:100834000121200008f00bfa00230d211a002000ea
:1008440007f014fe14236343ed182c23ab7000232c
:10085400534e012121e52d2322005249182006f090
:100864000bfa14235c432c19e0732c2376e5142330
:100874005c4309232b552c1913236fe56343ed18af
:10088400ab78272b00d077e4200007f07bff200013
:1008940008f0faf8002303211a00200007f0f0fa08
:1008a4002823414eab7042e56343ef181e00bb782a
:1008b400312b22d0322b29d02f2b00d05ce41822ec
:1008c40062433a4b9b185b781b079b0f012b12d199
:1008d400374b0893012200230f21200007f0c6fda7
:1008e40014236343ed186b7b324e01336b73302357
:1008f400ab7008abade7304bebe7322322002f4956
:100904001c2006f0b9f93023f8734ee41123ab55db
:1009140032e46b4605999a892000029b06f05eff3b
:10092400012811d118220c216243204b9b185a78bc
:100934008a43110008220a435a70142300225c439c
:100944002b195a730222ede614235c431123c3e5e9
:10095400182163434c430c21ea181e00134b507baf
:100964001c1963788b43190014280dd908230b43f1
:1009740063702023917b0b439373002353730223ef
:10098400ab559370fff7f8fb04230b4363700f23fd
:10099400ab552f23f5e7c046c8000020fffbffff3f
:1009a400082e0913018a000002020913d40300204f
:1009b400018000ff0f31110001a000ffe16c000075
:020000040000fa
:1009c400f0b5040085b004f04ffe07f0f9ffc14e06
:1009d400250173199a780292da781b7a03920193ab
:1009e40007f0f8ffa85d092861d808f075f80a0037
:1009f40066008a000d01600052019901b301600094
:100a04004a0273195d780193012d52d0002d0dd047
:100a1400032d4cd1b049200008f083f8011e46d1c3
:100a2400019b5870200006f0c7ff40e0ec276743a5
:100a3400aa4b2000df193a00b0321168a84b0b40d2
:100a440013603b00b8331d80023b1d80023b1d80b8
:100a5400012106f091ff2900200007f02dfa182249
:100a6400fb6903276243db083b4002939d4b9e498d
:100a74009b180a229b8820005a432b0092b202f052
:100a840013fa2900200006f011fc019bdb795b08b6
:100a94001f40029b9f4202d0200006f0c1fd2000af
:100aa400602106f003fc012324013419637005b0ae
:100ab400f0bd0223019a5370f9e777197a78002a76
:100ac40011d0022af3d17023019919400b1eeed1e3
:100ad40002990398814211d13b798b420cd10a23ac
:100ae400735500219ee70223220096207f4906f0d9
:100af400c3f80123b871abe00423f1e772557b70ae
:100b0400efe7731958780328d1d807f0d1ff0229e9
:100b14003e490121200006f047fb14200023220057
:100b24007349ff3006f0a8f873199871029a5b793b
:100b340093420fd110226f49200007f0f1fb0121ed
:100b44007319db790b4202d0200003f079fb75198d
:100b5400012351e010226749200007f0cbfbeee7a8
:100b64007023019a1a40102aa1d12000751907f0a8
:100b7400effeeb79db0711d5002322005e490a2042
:100b840006f07af8a871022336e00c23019a1a427f
:100b940000d18ce7200007f0dbfe751903232be05e
:100ba40073195a79ec2363434c4f0299fb18b03301
:100bb4008a4223d102211a688a431a60200006f06f
:100bc400dbfeec236343fb180127b0331a683900ba
:100bd4003a431a60200007f06ff918226243414b30
:100be40041499b180a229b8820005a433b0092b239
:100bf40002f05af9042375196b7058e70222196838
:100c04000a431a600321d9e777197b78012b21d095
:100c1400002b12d0032b00d049e77023019a1a400d
:100c2400019200d043e7200007f092fe6b461b7947
:100c34007b706b461b79735539e7200005f05efb2a
:100c44000123220029490a2006f016f80223b8716c
:100c54007b702ce70021200006f0a6fa0023220076
:100c64002349264806f008f80c23019ab8711a4261
:100c740003d16023fa791a4209d00021200003f03d
:100c8400dffa60227519eb799343eb717be7032359
:100c9400dee775196978012932d0002903d00229c9
:100ca40000d17be703e7182262430e4b20009b1818
:100cb400998007f001f9ec2201266243074b3100c9
:100cc4009b18b0331a682000b2431a6006f054fe31
:100cd4006e70ece66403002008080000c8000020e1
:100ce400fefeffffd403002088130000a18a000049
:100cf400cd82000021080000016200008a02000089
:100d04007023019a1a40131e00d0d0e618216143c3
:100d1400a24a200052189288a14902f0c5f832e78d
:100d240077197b78022b06d0032b09d0002b00d037
:100d3400bde60323d8e6052322009a490a20d6e615
:100d44007023019a1a40102a00d0b0e600237b7069
:100d5400072370e773195878042800d9a7e607f029
:100d6400b1fe0500a6fe60006d008b007319da79f0
:100d74008a4f5207920f1823022a39d0032a3bd0f4
:100d8400012a03d15a226343fb189a80029b039ad7
:100d9400934236d910228449200007f0c1faec238b
:100da40002216343814ad318b0331a688a431a6014
:100db400200006f0e1fdec2363437c4a7519d31847
:100dc4000122b033196820000a431a60012301216b
:100dd4006b7007f071f818230a226343ff18bb886d
:100de4006f495a43200092b2012302f05df85ee697
:100df40063439622fb18c8e7962263435200fb180c
:100e0400c3e710226849200007f074faec23634317
:100e1400664ad3180222b03319680a431a600321c0
:100e2400c6e7200005f06afa0323220060490a207d
:100e340005f022ff7519a8710523dde67023019ad8
:100e44001a4203d00121200006f0b6fd0c23019aba
:100e54001a4204d160227319d979114209d00021b0
:100e6400200003f0edf960227519eb799343eb71df
:100e7400e2e704225a701ae6052373557519002314
:100e8400bae673195878042800d910e607f01afe58
:100e940005003c0043000ffe56000021200007f02f
:100ea4000bf80021200006f001faec2262433f4bcc
:100eb4009b18df6907231f40012f22d10021200046
:100ec40006f072f90021200006f096fd0422552157
:100ed400200007f025fa00223900200006f010fa5d
:100ee4000c23019a1a4205d17319da7960231a4244
:100ef40000d12ce660217219d3798b43d371002180
:100f040022e603220021e8e70c23019a1a4200d0ca
:100f1400cde5751937e67021019b0b40191e00d0f1
:100f2400c5e5200006f0e8fdfa200423220020494c
:100f3400400005f0a1fe7519a8712fe6ec220727e1
:100f440062431a4b9b18da691740012f1bd1d20652
:100f5400920f3900200006f0d3f900237355751958
:100f6400390020006b7006f047fd04225521200053
:100f740007f0c0f92000602106f098f90121200053
:100f840006f0bafd93e501220021200006f0b8f92d
:100f940005237355002375196b70ebe7d403002008
:100fa400881300003d89000021080000c8000020cb
:040fb400a18a00000e
:020000040000fa
:100fb800f7b50d0009036c00ed0f0095490a450fc0
:100fc80029431d035e00c700d80f6b0a550f2b433a
:100fd800c14d640d760dd200ae4203d11d0084468a
:100fe800154302d101254540ac46009da01bac45e8
:100ff80000d036e1002861dd002e25d11d00154303
:1010080000d196e2461e002e19d1ba18ba42a44160
:10101800c91864420919170001240b0200d4bee064
:10102800ad4b01349c4200d180e2ac487b080140c2
:10103800012007401f43c80707434908afe0a64df2
:10104800a84209d1a44caae0a34dac4200d1a6e025
:10105800802506002d042b43382e2adc1f2e17dc92
:1010680020201d00801b8540ac4615000190f540ee
:10107800604605430198f3408240501e8241154363
:10108800ed195b18bd428941494259182f00c4e740
:1010980030001d002038c5400020202e03d04020fd
:1010a800861bb34018000243501e8241154300239b
:1010b800e6e71a4315006a1e9541f8e7002850d064
:1010c800002c14d10c003c4300d128e2c443002c6e
:1010d80007d1bf189742a441c918644209193400be
:1010e8009be77d48864209d119001700aae77a4c88
:1010f800a642f9d04442802000040143382c2bdc5e
:101108001f2c17dc2025281b01900800019de140b9
:10111800a840844638006546e0402843019daf401a
:101128007d1eaf413843871897429241c9185242f1
:101138008918d4e720000d002038c5402800002574
:10114800202c03d040252c1ba1400d002f437d1ed1
:10115800af4138430021e6e70f433800471eb84146
:10116800f8e7661c75056d0d012d00dd69e00800c6
:101178003843002c49d1002800d1d3e1180010438e
:101188000dd0ba18ba42b641c918802376428919d7
:101198001b041700194202d00124504b19407b0749
:1011a80009d00f233b40042b05d03b1dbb42bf4158
:1011b8007f42c9191f000b0206d5474b01349c42d8
:1011c80000d1c3e1454b1940434b4807ff0838435a
:1011d800c9089c4206d103000b4300d1b9e1802322
:1011e8001b031943002709033b0d1b05090b194372
:1011f8003b4b6405194064080c43009b6400d90705
:1012080064080c43210003b0f0bd002800d16be74f
:101218001800104300d115e74807ff08074380204e
:10122800c9080003014207d0dc08044204d1d208ef
:101238005b0713431f002100780fc9000143ff001b
:1012480000e7254ca64200d16fe1ba18c918ba4286
:101258009b415b42cb18df075208174359083400fb
:101268009de700285ddd002e3cd11d00154300d10f
:101278005fe1461e002e0ed1ba1a9742bf41c91a25
:101288007f42c91b012417000b0200d487e74902db
:101298004d0a3e00f9e0104da84200d1d2e6382ea2
:1012a8003adc1f2e27dc20201d00801b8540ac4621
:1012b80015000190f540604605430198f3408240cf
:1012c800501e824115437d1bcb1aaf4289414942ca
:1012d800591a2f00d8e7c046ff070000ffff7fff1d
:1012e800ffff0f809c4dac4200d158e780252d04ac
:1012f8002b430600d3e730001d002038c5400020ee
:10130800202e03d04020861bb34018000243501ef5
:10131800824115430023d6e71a4315006a1e9541fa
:10132800f8e700284dd0002c17d10c003c4300d121
:1013380001e1c443002c09d1d71bba429241591a82
:1013480063465242891a340000939de782488642d8
:101358000ad119001700804c45e07f4ca642f8d00e
:101368004442802000040143382c25dc1f2c11dc6a
:101378002025281b00900800009de140a84005009a
:101388003800e0402843009daf407d1eaf41384300
:10139800171ad2e720000d002038c5402800002584
:1013a800202c03d040252c1ba1400d002f437d1e6f
:1013b800af4138430021ebe70f433800471eb841df
:1013c800f8e7601c4005400d01284cdc18000d00b2
:1013d80010433d43002c24d1002d07d1071e00d116
:1013e800ade01900170063460093d8e6002800d145
:1013f800d5e6bd1aaf42b641c81a7642801b802690
:101408003604304206d0d71bba429241591a52428a
:10141800891ae8e72f00074300d190e001002f0068
:10142800bde6002d07d1071e00d18be019006346e9
:101438001700009306e6002800d103e64807ff08d6
:1014480007438020c9080003014200d1f4e6dc0804
:10145800044200d0f0e6d2085b0713431f0063463e
:1014680021000093e8e6be1ab7428041cd1a4042f7
:101478002d1a8020000405422dd0d61bb242ad4162
:10148800591a63466d424d1b0093002d29d0280040
:1014980006f09cfc0300083b1f2b27dc20223100b0
:1014a8009e40d21a9d40d14037000d439c4232dc09
:1014b8001c1b661c1f2e1edc20233a0029009b1bc8
:1014c8009940f2409f400a43791e8f412900f1401c
:1014d8001743002463e637002f43d6d139003c0078
:1014e8002ee0300006f072fc2030d3e735002838b3
:1014f80085400027dae72a001f3ce2400023202e1f
:1015080003d040239e1b2b00b3401f437b1e9f41eb
:1015180000211743dde71149e41a29403fe6190085
:1015280017009ce61900170039e60b4c00210f0044
:1015380035e6040033e619001700340053e7390094
:1015480000972ce68021044cc903f9e700210f001d
:101558003ae6190046e6c046ff070000ffff7fff96
:10156800f0b58bb0060004930400cb0f0d034800c0
:1015780000922d0b400d0393029346d0584b98428e
:1015880067d08023720f1b04ed0013432b431f0009
:10159800544bf400c31800260193049b009a1d03c2
:1015a8005800db0f2d0b400d069361d04c4b984231
:1015b80000d181e08023520f1b041343ed001d432b
:1015c800484a009b8218db0094460022069803993b
:1015d8004140604604910199091ab000104301384e
:1015e80005910e2800d981e007f074fa75004902c8
:1015f800ed0149023d024902ed01750075003d0209
:10160800ed01fc01fc01fc01e2012f00374327d06a
:10161800002d13d0280006f0d9fb01000b391c2936
:1016280011dc02001d2337003400083a5b1a95408c
:10163800df4094402f432c4b1b1aace7300006f0d8
:10164800c5fb2030e9e70300283b9e400024370013
:10165800f1e72e43371e07d02f00019003269ce7a1
:101668003c000197012698e734000190022694e790
:10167800009b2b4327d0002d13d0280006f0a6fb93
:1016880001000b391c2911dc1d2302005b1a00998b
:10169800083ad940009b954093400d43124a121acc
:1016a80092e7100006f092fb2030e9e70300009d66
:1016b800283b9d400023f1e7009b2b4307d01300f4
:1016c8008446032282e71d009c4601227ee71d0016
:1016d800844602227ae700252c00014b4ee1c046e1
:1016e800ff07000001fcffff0dfcffffaf4204d81d
:1016f80000d057e19c4200d254e1f9076208114337
:10170800e0070c0001907f082d021a0e2a431b02e5
:101718000293130c03936b4600921b8803993800bd
:10172800079304f00ffb0600079b06900399380007
:101738005e4304f043fb250c09040d43069fae42ab
:1017480009d9009b013fed18ab4204d8ae4202d93b
:10175800069fed18023fab1b03991800069304f08f
:10176800f1fa079e050046430399069804f026fb04
:10177800a4b209040c432a00a64208d9009b013ae6
:10178800e418a34203d8a64201d9aa1ee4183b04d0
:1017980002991343029a0904120c090c0892069143
:1017a800089d06989ab2a61b1c0c514360436a43d5
:1017b8006c4312180d0caa18904202d980204002de
:1017c8002418100c09041204090c04195218a64212
:1017d80005d31f00a64227d10199914224d202982d
:1017e80001998446614401918142894100984942a6
:1017f800091876185f1eb04204d315d161460198c6
:10180800814211d8b44203d80ed101998a420bd92a
:1018180002999f1e8c46019b634401938b429b4116
:1018280000995b425b18f618019b341b9b1a0993bd
:10183800099a019b93429b415b42e41a009ba34295
:1018480000d1d2e00399200004f07cfa079d06003d
:1018580045430399200004f0b1fa099b09041c0cc4
:101868000c430196a5420cd93300013b0193009b20
:10187800e418a34205d8a54203d9b31e0193009bdf
:10188800e418641b0399200004f05cfa079d060025
:1018980045430399200004f091fa6b460a04998c99
:1018a800330011438d4208d9009a013b89188a42b6
:1018b80003d88d4201d9b31e8918019a089c1204d5
:1018c8001a43100c93b24d1b16000699069a414311
:1018d8005a43634360435b18140ce318994202d9d6
:1018e800802149024018190c12041b04120c081814
:1018f8009b18854204d3340085421bd1002b1bd092
:10190800009a741e5519aa420fd8a84203d811d1bb
:10191800029a9a420bd2029ab41e51009142924105
:10192800009e52429219ad180291854202d1029a44
:10193800934201d001231c43059b564a9b18002b58
:1019480056dd620709d00f222240042a05d0221d45
:10195800a242a44164423f191400fa0106d580222c
:10196800d20094464c4b1f40059b63444b4a93421c
:1019780000dd88e0e40879070c43fd0800212d0309
:101988000a0d12052d0b1543454a5b0515405b08ea
:101998002b43049a5b00d2075b081343200019000d
:1019a8000bb0f0bd059a013a059200220192abe610
:1019b8008022120317425ad0154258d12f001c001a
:1019c800069b029353e02f0016001c00069b04930d
:1019d800022e58d0032e50d0012eadd10024250060
:1019e8002300cbe7039b0493f2e701246442a3e7b7
:1019f8000122d21a382af1dc1f2a21dc20232000f8
:101a08009b1a39009c403d009940d040631e9c4180
:101a1800d54001430c43630709d00f232340042b0f
:101a280005d0231da342a44164422d191c00802324
:101a38001b042b402ad16907e4080c43ed089de7f5
:101a48001f214942cb1a3900d9400b000021202a16
:101a580003d040218a1a390091400c43611e8c4101
:101a680000251c43d7e7802700243f0302948025e4
:101a7800029b2d033d4304932fe6049ba1e7002519
:101a88002c002b007ae70024250026e600250123f8
:101a98002c0073e7ff030000fffffffefe070000b6
:101aa800ffff0f80f0b58bb001920593ca0f0c03ae
:101ab8004b000600240b5b0d0492039245d0c64ae6
:101ac800934265d08022410f12040a43e400144374
:101ad800c24ac5009b1800270293059b019a1e0362
:101ae8005800db0f360b400d059360d0ba4b984277
:101af80000d180e08023520f1b041343f6001e43dd
:101b0800b64a019b8218db00944600220598049986
:101b1800414001910299b80061441043079101388e
:101b2800013106910e2879d806f0d4ff74007400ac
:101b38007b0171017101bc017b017101bc01710163
:101b48007b016f016f016f0164012500054326d0f9
:101b5800002c13d0200006f039f901000b391c299c
:101b680010dc1d2302005b1a31003500083a94404e
:101b7800d94095400c439a4b1b1aace706f026f95e
:101b88002030eae703003400283b9c400025f2e7b8
:101b98000500254307d00500029303279de72c0085
:101ba8000295012799e72c000293022795e7019bec
:101bb800334327d0002e13d0300006f007f9010078
:101bc8000b391c2911dc1d2302005b1a0199083a04
:101bd800d940019b964093400e43814a121a93e7dd
:101be800100006f0f3f82030e9e70300019e283bd7
:101bf8009e400023f1e7019b334307d0130084463e
:101c0800032283e71e009c4601227fe71e008446cc
:101c180002227be734001d001700f8e0190c9bb284
:101c2800029119002a0c514318008c46029f029910
:101c3800adb2684351436f4304916744010cc9191d
:101c480003908c4506d9049f380080277f02bc4644
:101c580060440490684680890f0c090409180991aa
:101c6800310cb6b2039130003100bc46039f694382
:101c780050437d437a432d180f0c7d19a84202d991
:101c8800802040021218280c82182d0489b205926f
:101c98006a1808921800089962468c46029f210c1f
:101ca800a4b260434b43674362449446029dff18c5
:101cb800020cd2194d43934202d980235b02ed18de
:101cc8003700130c5b190293039b67434e435c4335
:101cd8005943a4193b0c120480b21c191018a642cf
:101ce80002d980235b02c918049b220463441e00a6
:101cf800089bbfb29e42ad418619d2198642bf41a8
:101d08000298059b84466d42d218ab189c440393f5
:101d1800059b60469a429241039b5242ab429b41cb
:101d28005b427f421a43029b3818240c1219b842ae
:101d3800bf419c45a4417f4264423c431419641846
:101d4800c30d64021c43099b75021d43691e8d4126
:101d5800f60d354340020543e30167d501226b08c0
:101d680015401d43e307d4401d43069b1d4a9b189d
:101d7800002b5edd6a0709d00f222a40042a05d00d
:101d88002a1daa42ad416d4264191500e20106d52b
:101d98008022d2009446144b1c40069b6344134a8d
:101da800934200dd8be06207ed081543e40800214b
:101db80024030a0d1205240b14430d4a5b05144035
:101dc8005b082343019a5b00d2075b081343280092
:101dd80019000bb0f0bdc046ff07000001fcffff73
:101de8000dfcffffff030000fffffffefe070000e2
:101df800ffff0f8080221203144257d0164255d19c
:101e080034001d00059b039350e0049b0193022faf
:101e180055d0032f51d0012fa7d100252c002b001e
:101e2800c5e71d00059b34000193f5e6079b069363
:101e38009be70122d21a382aefdc1f2a20dc202354
:101e480021009b1a28009d409940d0406b1e9d415f
:101e5800d44001430d436b0709d00f232b40042bbb
:101e680005d02b1dab42ad416d4264191d00802386
:101e78001b04234000d196e700240123250096e7a0
:101e88001f214942cb1a2100d9400023202a03d020
:101e980040239a1a230093401d436b1e9d41002442
:101ea8000d43d8e7802400252403039580231b03d2
:101eb8001c43039b0193034b79e7019ba3e7002590
:081ec8002c00f8e7ff07000001
:020000040000fa
:101ed000f0b509278fb0059304abff180b230a2434
:101ee0003b7004abe4180500ff2304911c22002181
:101ef00007a8237006f052fe22003900280006f0e1
:101f0000d5fc3b78c94e053b012b0ad814236b4303
:101f1000f25c123a012a04d90021f218d17212227d
:101f2000f254142423006b43f05c12380b2836d88b
:101f300006f0d4fd0c00190037004d007400a1001c
:101f4000b100c500e0003b0153016a01280006f022
:101f5000a5f8142341215d437219937b8b4393733e
:101f6000132373551be0280005f062feb04b0100ff
:101f7000984214d13b78072b11d118226a43ad4bfc
:101f800028009b180a229b885a43012392b200f032
:101f90008dff14235d43735533237519ab700fb058
:101fa000f0bd6c433419a378332bf8d1e37a022bbc
:101fb00007d8d22043232a009f49ff3004f05efe59
:101fc000e0731424342365437619b370e7e72300e4
:101fd0006b430393f7180023fb726b46049a998aac
:101fe000280002f007fa2b0018225343914ded18f8
:101ff000ab8969891b040b430bd1bb7bdb0704d581
:10200000039bf2543c23bb70c9e7039bf454332376
:10201000f9e71623039ab3543523f4e76c433619d2
:10202000b378352b0ad0372bb9d143232a00824904
:10203000182004f023fe3823f073c6e700230122a2
:102040000221280005f01eff18226a43794b9b18d5
:102050005a8908339b881b04134307933623b370b4
:10206000764b0193764b02000093002107ab2800ca
:1020700001f04afd93e76c433619b378392b00d051
:102080008de7fa2043232a006b49400004f0f6fd57
:102090003a23f07399e76c433619b3783b2b00d0a1
:1020a0007de7280006f046f80123b27b07211343a1
:1020b000b3733c232800b37005f060fc6fe76c43fa
:1020c0003719bb78432b00d069e7280006f05cfb8a
:1020d0004023ba7b28001343bb7300231a00190066
:1020e00004f06efb1a2333554523bb70fb7a013392
:1020f000fb7254e76c433419a0784538032800d9a3
:102100004de706f0d7fc021b2934142440236c430e
:102110003619b27b28001343b37306f0d3fb0028b3
:1021200018d00021280006f029fd00232a00454987
:10213000192004f0a3fd4623f07346e7280006f0bb
:10214000c1fb002800d02ae71424280006f01cfb5d
:1021500065437619472338e7142400232800654394
:102160001a00190000f0a2fe761948232de7280076
:1021700005f05efd031e00d011e7182169432d4aca
:102180002800521891880a224a43294992b200f045
:102190008dfe280005f06afd142340215d4372196d
:1021a000937b8b4393731223dbe66c433619b3782e
:1021b000492b00d0f3e60b2404abe41807aa210056
:1021c000280006f02df9002322780421280005f0cc
:1021d00059fe4a23b3701c4b43e76c433619b3785e
:1021e0003d2b00d0dbe6280006f0cefa00212800c7
:1021f00006f02ffd002303211a00280005f042feff
:102200003e23b370114b2ce76c433619b3783f2b48
:102210001ed0412b00d0c2e643232a0006491820d5
:1022200004f02cfd4223f073cfe6c046900300205b
:1022300088130000d4030020e16c000016371d3f16
:102240003d79000049840000183c1d3f14331943b8
:10225000280006f099fa0021280006f0fafc002375
:102260000d211a00280005f00dfe4023b370014b2c
:08227000f7e6c0461d411943c9
:020000040000fa
:10227800f0b50127b84a0301d3181b7a87b00400c8
:102288000e00019339423ed004ab5d1d2a003b008d
:10229800b24905f0b9fd2b787f2b05d93b002a0000
:1022a800ae49200005f022fe2b789b070dd004aa2a
:1022b80002230632aa49200005f0a6fd04aa02233b
:1022c8000632a749200005f011fe0223019aa5490c
:1022d8001a43019204aa951d2a00200005f094fdd6
:1022e800ec226243a04b9b18d969072322011940ad
:1022f8002b88012900d0ade097498a18d9431b0ad9
:10230800db439170d37073051fd504ab5d1d2a00a4
:1023180001239649200005f077fd2b785fb2db0793
:102328000bd50c23019a9a43019218226243904bd1
:102338009b180822d97c0a43da7401232a008b49a6
:10234800200005f0d3fd002f01dbb3057ad504abdf
:102358005d1d2a0001238749200005f055fd18233b
:1023680001276343824ad3185b7822013b400293da
:102378002b7800250392ab420cd17023019a2900d7
:102388009a432000019205f015fb029bab4266d0f0
:10239800750a3d4004ab5f1d3e78012e14d1029ba7
:1023a800002b00d06de06c4b22019b5c072b0bd1fe
:1023b800200006f049fb002806d1019b3100334379
:1023c8002000019305f0f6fa3b78052b5bd1029bc0
:1023d800002b11d17021604b22019a18137a0b40ff
:1023e800102b00d1b4e05c4b21015b5c072b03d1bf
:1023f8005378012b00d0abe004ab9d1d00232a00cd
:102408002b805d490123200005f0fefc2b889b06ec
:102418000ad518226243564b9b181a7d002a03d10d
:102428000222d97c0a43da7404aa012305325349eb
:10243800200005f0e9fc04aa012305324f492000d9
:1024480005f054fd444b24011c196b461b7923727b
:1024580007b0f0bd40498a1893701b0a52e73e4bfb
:1024680022019b5c029d072b00d093e7200006f019
:10247800ebfa051e03d1019b3b4301938ae7029dba
:1024880088e7029da0e7012db6d010221a400292db
:1024980006d018236343364ad318d97c0122c1e7f2
:1024a800202293430d2bbfd17023019a34499a43bc
:1024b80004ab9d1d019202232a00200005f0a4fc14
:1024c800288804f0edf92f4a2f4bfff7ebfa224a40
:1024d8002301944663449a680600187b120a000692
:1024e80010430f0003f0a6f90b000200390030007a
:1024f800fff736f805f016fd80b22880ec25654315
:10250800194e32277319d7331b7802999c46cbb2e0
:10251800634510d28a0052199219526f0131120381
:10252800920d7a439042f2d80133019adbb21b0133
:102538001343dbb20193182262430d4b9b185b785f
:10254800db0700d470e70021200005f033fa6be7c1
:10255800012d00d068e74fe764030020030800005e
:102568000408000006080000c80000200a0800004f
:10257800d4030020080800001f0800000908000014
:0c258800b2080000295c8fc2f5683840e2
:020000040000fa
:10259400f7b50400072900d196e007d8012923d014
:1025a400002901d003290fd90120febd092900d13a
:1025b4005ce100d24de1ef29f6d105f0d1fdb14b3c
:1025c40022019b18598808e1ae4d0301ed18a98832
:1025d40006f09ef801232a7b1343ab4a2b7313782e
:1025e400591c1170eb72dfe7a64f0601bb191a7a6a
:1025f400911e02294cd8f55b9b88ed1aadb2bb192c
:102604005b7a052b03d1a14b187805f01bfebe198c
:10261400337a012b02d0200005f028f800269c4aca
:102624009c4b20009b5aed189a4b9d522301fd1898
:102634002e7305f091fb2301fe5201236b722b7262
:10264400ab72ec236343934a934fd3181a00b63307
:10265400b832ee726e8016801e80bb7ab3420ed002
:102664003b7aa34205d1787a05f066fab04214d0d9
:10267400be72894b5a7aa24201d100229a7220007a
:1026840005f030ff002800d08ee705f03fff8be710
:102694000025052ab3d15d88aee7787a03f0eefd14
:1026a400061ee6d17b4b7a4a2000995a6b88c918da
:1026b40089b206f02df803220221200006f008f862
:1026c400744b734a9e52d3e7182202264243734b3b
:1026d4006c4d9b181989da880904588911439a8921
:1026e4002301ed182b7b12040243334200d198e0fe
:1026f4006f7a032f1fd1200003f004f810222b7be4
:1027040013420cd0200005f02bfd10222b7b9343a9
:102714002b7301220321200005f0daffb5e75e48a0
:10272400ef2322005e49006804f0a6fa0522574b05
:102734001870022182e0042f3ed1200002f0e2ff53
:10274400200005f00dfd2b7b102219001140019192
:10275400ddd139000122200005f0baff4e4fbb7acb
:10276400002b25d03b7aa34200d01de7787a05f0f0
:10277400e3f9002803d06b461b79bb7214e7787a1f
:1027840003f07cfd041e00d00ee7424b404a787ae9
:10279400995a6b88c91889b205f0baff0322787a6e
:1027a400310005f095ff3b4b394abc729c52fbe665
:1027b400200004f05bff68e7052f13d1200002f02e
:1027c400a1ff324b187805f03dfd200005f0c8fc50
:1027d40010222b7b13429ad16988200005f098ffc0
:1027e4000422a6e720006f8802f08cff2a4b9a7a15
:1027f400002a0bd05b7aa34200d0d5e62549244aaf
:102804008b5aff186b88ff1a8f52cde669888f4266
:1028140000d8c9e61f4a1e4bd05a3f187f1ad75218
:10282400dbe7200002f06eff2b7b20001e432e739b
:1028340005f058fe002805d001220321200005f0f0
:1028440047ffb1e6ab7a012b0cd1200005f050ff15
:10285400aae60c4b02019b189a7a022a00d0a3e63e
:1028640003229a72200004f06df99de6054b0201e3
:102874009b181a7bd20700d496e69b7a022b00d0d1
:1028840092e6e2e72c0300201c060020d00300207f
:1028940002020000c800002084030020d4030020aa
:0428a4005b8c000049
:020000040000fa
:1028a8001423f7b51a004243b44e0400905d1f3854
:1028b80009285cd806f00ef94c0064008f009e00d1
:1028c800c900ec0007010a00300029016343f3182e
:1028d8009b78562b4bd1002310211a00200005f0bd
:1028e800cdfaec226243a64b9b180722db69134002
:1028f800012b0fd0a34914236343f6185723b37051
:10290800a14b01910093002302001900200001f05f
:10291800f7f82ce09d49eee76343f3189b78582bb2
:1029280025d1002304211a00200005f0a7faec2283
:102938006243934b9b180722db691340012b05d098
:10294800904914236343f6185923d8e78f49f8e7c9
:10295800200005f0b3ff00280ad1182262438c4bef
:102968009b189b7c002b03d1200005f06bfaf7bd68
:1029780014235c43202333554d233419a370f6e701
:102988006343f7181d00bb784d2b0bd04f2beed1ae
:10299800200005f093ff002819d0212373554b23fd
:1029a800bb70e4e7002303211a00200005f066fa53
:1029b80018226243764b9b185b78db0705d4754970
:1029c80014236343f6184e2399e77349f8e7232342
:1029d80073555223e4e76343f618b3784b2bc6d1fb
:1029e800132322006d49322004f044f94c23f0737c
:1029f800b370bce76343f7181d00bb78502b14d0a5
:102a0800512bb4d1200005f059ff0028afd1200088
:102a180005f0b6fe182254435d4b1c196378db079a
:102a280010d5052373551023bae70021200006f0be
:102a3800a1f8002322005a49192004f01bf9512358
:102a4800f873ade772553c23aae76343f7181d00f6
:102a5800bb78522b0fd0532b00d088e7200005f00d
:102a68002dff002800d182e7200005f089fe2423ed
:102a78007355542394e70121200006f07bf80023c6
:102a8800220048494b2004f0f5f85323f87387e7f0
:102a98006343f3189b78542b00d068e70023062182
:102aa8001a00200005f0eaf918226243384b9b18f7
:102ab8005b78db0705d4334914236343f6185523a1
:102ac8001de73249f8e703250b689b092b4200d024
:102ad8004de718210a0062432d4b9b1858781423a0
:102ae80082082a405c43012a0ad1104204d00523f7
:102af80033553419102341e731553c2334193de748
:102b0800262333553419562338e76343f7181d0035
:102b1800bb785a2b11d05c2b00d028e7200000216d
:102b280004f0bcfc18236343194ce4186378db07f2
:102b380020d50b237355192332e7a0230a68db0538
:102b48009a420ed10121200004f0a8fc5c23220047
:102b580015492d2004f08ef814235c435b233619a5
:102b680046e70c226243114b9b181022997a0a43bc
:102b78009a72f1e71a237355452311e79003002051
:102b8800c8000020183c1d3f3d79000005100829a9
:102b9800d4030020204f1d3f204f0829e16c00007e
:102ba80049840000d95d0000018a0000b8030020b4
:020000040000fa
:102bb800f7b543024a025b0a520a4e0044000193e9
:102bc80000939446240ec50fdb00360ec90fd200c1
:102bd800ff2e01d1002a01d101204140a01ba942aa
:102be80000d0a1e000282edd002e18d1002a00d147
:102bf8004ae1411e00290ed101249b185a015bd5d8
:102c08000134ff2c00d13de10122a4491a405b08a0
:102c18000b40134350e0ff2807d1ff244ce0ff2c62
:102c28004ad08021c9040a4301001b2901dd012281
:102c380007e010002026c840711a8a40511e8a41b8
:102c480002439b18dae7002821d0002c0cd1002b76
:102c580007d0c043002802d19b183400cee7ff2ece
:102c680008d11300340027e0ff2efad08021c904d0
:102c780040420b431b2801dd0123ede71900202406
:102c8800c140201a8340581e83410b43e4e7611c6e
:102c9800ff260f003740012f3fdc002c2bd1002be3
:102ca80000d1eae0002a07d09b188022d204134200
:102cb80002d001247a4a13405a0704d00f221a403e
:102cc800042a00d004335a0105d50134ff2c00d161
:102cd800e1e0734a1340db08ff2c04d1002b02d03b
:102ce8008022d20313435b02e4b2e405580aed07dd
:102cf80020432843febd002b00d1c0e03400002a49
:102d0800dad08023019adb031a4203d062461a42c2
:102d180000d10092009bdb007fe7ff2900d1b0e0e3
:102d28009b185b080c00c7e7002826dd002e13d18e
:102d3800002a00d1a8e0411e002906d101249b1acf
:102d48005a01b9d59b019e097ae0ff2800d164e7b2
:102d58001b2908dd01220ee0ff2cadd08021c9041b
:102d68000a430100f4e710002026c840711a8a407f
:102d7800511e8a4102439b1ae2e7002822d0002c08
:102d88000dd1002b08d0c043002803d1d31a34003a
:102d98000d00d5e7ff2e08d11300340020e0ff2ee8
:102da800fad08024e404404223431b2801dd012398
:102db800ece71c002025c440281a8340581e834194
:102dc8002343e3e7ff20661c0640012e31dc002c7c
:102dd80017d1002b06d11d00002a00d16ce7130083
:102de8000d0069e7002a00d166e78026981af604e4
:102df800304201d0d31af3e7031e00d05ce71d0070
:102e08005ae7002b04d1002a40d013000d0004e734
:102e18000400002a00d14fe78023019adb031a42fd
:102e280000d177e762461a4200d073e700920d009e
:102e380070e780209e1ac004064215d00d00d61aed
:102e4800300004f0c3ff330005388340844210dcaf
:102e5800041b1a0020200134e240041ba3405e1e1c
:102e6800b3410024134327e7002ee9d1330034008f
:102e7800c5e7241a0a4803401ee713001ce713009d
:102e8800cbe60c00002317e7040015e780230400b5
:102e98009b04150010e700231de7c046ffffff7dd8
:042ea800fffffffb2e
:020000040000fa
:102eac00f0b5040087b01d000e0004f0bbfe9c4b77
:102ebc00220103909b189a681b7b170a1b060021a2
:102ecc0020001f4304f014fe002d68d0002e66d0a5
:102edc0018256543934b5d192b7c002b0ed0a87bda
:102eec0005f0acf9ec2262438f4b90499b18d2331e
:102efc0018882200002303f0bbfea873ec25654361
:102f0c00300003f0f5f8884b02905d192b00dd338f
:102f1c00187803f0edf8864901f0aef8029900f04c
:102f2c00dffe02f085fc834a834bfef717fb01f0b2
:102f3c00abfe391c00f0d4fe05f026f905aede35eb
:102f4c003080287803f0d4f8794901f095f802998b
:102f5c0000f0c6fe02f06cfc764a774bfef7fefae8
:102f6c0001f092fe391c00f0bbfe05f00df90423b4
:102f7c00708032007149200005f086fb0322552138
:102f8c00200005f0b3f93d273a0020006c4905f00c
:102f9c00b2fd0121200004f0abfd07b0f0bd03220f
:102fac005521200005f0b8f9002e4dd0654b9e42fe
:102fbc0056d0300003f072fc634a644b00900191d0
:102fcc00fef76efd5b4a5c4bfef7c8fa01f05cfe47
:102fdc00391c00f085fe5e49051c00f081fe05f0f1
:102fec00d3f80a2180b202f0e7fe89b2281c04292a
:102ffc0000d88de005f0c8f8013083b20293554a31
:10300c00554b00980199fef74bfd4a4a4a4bfef787
:10301c00a5fa01f039fe391c00f062fe4c49051c82
:10302c0000f05efe05f0b0f80a2180b202f0c4fe9a
:10303c0089b2281c04296ed905f0a6f801300027a6
:10304c0085b2be42a0d03fe0182201216243354b2d
:10305c009b185f780f4061d0200004f0a9fc93e727
:10306c00182262432f4b9b185b78db0748d53b49f2
:10307c00381c00f035fe3649051c00f031fe05f019
:10308c0083f80a2180b202f097fe89b2281c042929
:10309c0038d905f079f8013083b23149381c0293e4
:1030ac0000f01efe2a49051c00f01afe05f06cf813
:1030bc000a2180b202f080fe89b2281c042924d98e
:1030cc0005f062f8013085b2029a2649200005f01d
:1030dc001bfd039b0d27b34200d855e71822012195
:1030ec006243104b9b185b780b4202d0200004f01b
:1030fc005ffc2a001c49200005f006fd4d2743e724
:10310c001a49b5e705f040f8c6e705f03df8dae7ef
:10311c0005f03af871e705f037f890e70f0033e760
:10312c0064030020d4030020c8000020258900007f
:10313c000000c842295c8fc2f5683840b408000012
:10314c001f08000088130000666666666666ee3f20
:10315c0000002041cdccccccccccf03fa697424348
:10316c0047516143b2080000b808000006413443df
:020000040000fa
:10317c00f7b504000d0004f0ddf9012834d11f214e
:10318c006b045b0f2940002b00d17ce0481e0e28fd
:10319c002ad805f089fc082a396c292929292929da
:1031ac00292929294f0014236343914ad3189b786a
:1031bc00342b0cd03c2b13d0182161438d4b5b1856
:1031cc005b78db060cd4200005f0e6f90ce020005f
:1031dc0005f0d4fa00221521200004f0e7fc03e0ee
:1031ec0014235c4315231355f7bd14236343804a02
:1031fc009b5c022b04d0052be5d100220321ebe7cd
:10320c00200005f0bbfaf8e714236343784d5b5daf
:10321c00182b01d0052be7d1200004f003fd764bd1
:10322c009842e1d114235c4328232b555a232d19a2
:10323c00ab70d9e7142363436d495b5c182b09d041
:10324c00052b07d01820102660436a4a12185578af
:10325c00354004d014235c4325230b55c4e70f2bb6
:10326c00c2d1200005f08afa2a003100b4e71423f9
:10327c0063435f4a9d5c0d2da5d1200005f07efabd
:10328c0026222900a8e7c81e0a28add805f016fc8e
:10329c000b002d00acff500066007200acffacffc1
:1032ac0088002d009c0014252f006743504ef31905
:1032bc0001939b78382b05d1200005f05ffa392259
:1032cc00172189e7422b04d1200005f057fa33224d
:1032dc00d7e70225ab432c2b00d074e7200005f078
:1032ec004dfa019bbd559d707ee714231f0067436b
:1032fc003f4ef519aa78382a00d064e7aa7bd2078a
:10330c0013d50c290dd1162322003c49642003f05f
:10331c00affc3b4b24011c19a0711823bb553c235b
:10332c0086e7042900d05fe7f7e7bb5533237fe737
:10333c00142262432e4b9b189b783a2b05d120000c
:10334c0005f01cfa3b22182146e74c2b00d03ae73b
:10335c00200005f013fa502222213de7142262438b
:10336c00234bd15c052900d02de70221d1549b18a9
:10337c00997039e7142262431d4bd25c182a07d08e
:10338c00182161431b4a52185278d20600d41ae70e
:10339c00142254431b221a5549221b199a7023e7f5
:1033ac001423634312495b5c182b09d0052b07d0ff
:1033bc00182262430f4b9b185b78db0600d402e7a4
:1033cc0014235c431f2348e718226243094b9b18c4
:1033dc00142259785443064bc90704d50e221a55aa
:1033ec001b192722dae71c221a551b193d22d5e797
:1033fc0090030020d403002088130000ed89000006
:04340c006403002035
:020000040000fa
:10341000f0b5040085b0002103f04aff0021200030
:1034200004f06cfb01229a21200004f065ff0822c1
:103430007c49200004f060ff00227b49200005f059
:1034400060fb40227949200004f056ff00227849b1
:10345000200005f056fb83227649200004f04cff43
:1034600081227549200004f047ff1421200005f057
:1034700063fb724a02ab024392b214212000da804d
:1034800005f048fb802101220901200004f04affd9
:1034900010236b4a6b49200005f0fcf823010193cf
:1034a000694b22019d18ab68287b1b0a0006184354
:1034b000664900f01bfc04f06dfe654982b22000f5
:1034c00005f028fbab68287b1b0a000618436149fe
:1034d00000f00cfc04f05efe8b2182b2090120009a
:1034e00005f018fb5c490122200004f005ffec23e5
:1034f00007266343594fff18f9690e4000d16ae06f
:10350000012e29d1082302aa137114235371032316
:10351000c9081940200004f0e5fb802104220901bc
:10352000200004f0e9fe0323fa693100d2081a40b2
:1035300002abda802000d2b203f0e4fe0622eb797f
:103540002101934302aad28852001343eb71002356
:103550003d4a8b5403236b70ec25012303aa404999
:10356000200005f097f802aa012305323d4920000a
:10357000654305f08ff80321200002f0f9fc374b7a
:1035800039495d192b00df331a78200005f0b9faac
:1035900002ab9e1d7d23320033803449012320007d
:1035a00005f078f8012332003149200005f072f867
:1035b0000121200004f0a2fa6021200003f078fe2f
:1035c0000722eb691340012b1dd10021200003f0dd
:1035d000edfd05b0f0bd0c2302aa137114233100d8
:1035e0002000537105f014f801223100200003f08f
:1035f00089fe3100200004f075fb0523124a2101e9
:103600008b546e70a8e7182262431a4b1a499b1814
:103610000a229b8820005a43002392b2fff746fcff
:10362000d7e7c0460108000006100000410800006e
:103630000710000011080000150800000306000034
:103640008c8b000022080000640300200000e04191
:103650004e080000000016433f080000c80000208c
:10366000170800004a0800001908000014080000ac
:0c3670001c080000d40300208813000098
:020000040000fa
:10367c00f7b50c2545438d4b04005b199b7a00264e
:10368c005b074bd524224243894b9b185a8811b2b5
:10369c00b14200dbf0e05a791b79120213431bb2e2
:1036ac0000936b461b880193df125b053ed505f03a
:1036bc0081f80f231f407f4b5d196b890835db05a3
:1036cc001b0f9f422cd1009bb34229da1e22eb78b0
:1036dc0093431a000a231343eb700c236343734d7b
:1036ec00eb181b7a052b02d0093b012b0bd82000c1
:1036fc0005f060f805f060f90c2300226343eb1829
:10370c001a7205f063f905f057f90c2304225c4397
:10371c002c19a37a9343a37205f058f93000febd1f
:10372c000321200003f052ff0026d6e70f231f4091
:10373c0060d1604b5d19ea7a083593060ed50f21de
:10374c00d3061b0f0f330b40022b04d81e239a43b6
:10375c0008231a43ea70200004f0aaf90c236343ef
:10376c00544a2425d3182022d97a65430a43da72a5
:10377c0086234f4a5b00634352194f485578528851
:10378c00c1181a526b469b880d714b80200003f0b8
:10379c00c9fb0c2211006143464b59184989c905d4
:1037ac00090f8f425ed1009900295bda242286250d
:1037bc00022162433e4b6d009b185b8865435b04a2
:1037cc005b0f9b009c463c4b5d190c206043394bb6
:1037dc001818614511db010008314a888b78d20535
:1037ec00db06120f1b0f9a4220d1200004f060f967
:1037fc00082672e704f0deffcbe70127836806009a
:10380c00db03db0d5a1cd205d20d4272807a120af0
:10381c00b843024324206043b272254aeb181218b5
:10382c0052181279c9195a71c9b2cee71e22cb7837
:10383c001f2593431a00042313430f22cb704b888c
:10384c00db051b0f0133134007221a405101827a0a
:10385c002a400a4301218272da08c37a8b4313434c
:10386c00c37261e71e2162439b18da7a8a43110006
:10387c0008220a43da7257e70e4b5d19eb7a990668
:10388c000dd51f210a40052a09d00f22db061b0f7c
:10389c000f331340022b05d804f00af9102602232b
:1038ac001e431ae704f004f9f9e7c046b8030020f8
:0c38bc00e40200204c0300200404002063
:020000040000fa
:1038c800f7b5030101938a4b0201d35c0400894dcb
:1038d800002b28d1864b9b185b78012b2bd11826ff
:1038e8003700200004f018fa00236743ef193b75ee
:1038f800b87b04f0a5fc0a23bb737b7d002b00d1a9
:103908003b74002701236643ae19b374f07b7775c7
:1039180004f096fc0a237774f37305f04ff8f774f4
:1039280005f056f807e0052b05d1714b02019b18ed
:103938005b78022bd3d018236343eb181b7d002b35
:1039480039d0142363436c4ffa1892781e2a02d098
:10395800db5d122b2fd11826ec2331006343614322
:10396800664a6918d318e133487c1b78984201d31a
:1039780000238b74ec2363436643d218ae19e032fc
:10398800317c137899422ad30021200004f092fa5e
:10399800200002f0b1fc002333740523544a2101ae
:1039a8005218537014232a226343fa54182300220e
:1039b8006343eb181a7518266643ae19f37c002b7f
:1039c8000cd01b0714d50521200003f0d3ff071ed8
:1039d80009d104f0f3fff77404f0fafff7bd2000f3
:1039e80004f09af9e2e7f07b04f02afc0a23f37367
:1039f800182608226643ae19f37c934313d0062198
:103a0800200003f0b7ff071ee3d00021200003f0d9
:103a1800f1ff04225521200004f080fcb07b04f063
:103a28000ffc0a23b373142201276243324b9b18fd
:103a38009e7b3e403bd109232d4a21011825535432
:103a48008c4613006543634401935e70294b5d19ee
:103a58002b7c6f75db19dbb22b74022b13d920007a
:103a680002f04afc6a782e7405233a421dd00222dd
:103a78001f4920010a54019a5370182363431d4ab1
:103a8800d31800225a752000012103f0b3ff20004b
:103a98000422552104f02cfc04f090ff1823634302
:103aa800144ce4180023e37496e70722e0e7182390
:103ab8006343eb18da7c120706d55a7c6021013281
:103ac8005a74200003f0f0fb182308216343eb1815
:103ad800da7c8a4302d01a7c01321a74200004f07e
:103ae80071fa18236343ed18eb7c2b75cbe7c046be
:103af80064030020d403002090030020c8000020a5
:020000040000fa
:103b0800f0b58bb0040001930c2363436b48160097
:103b1800c318da7a0f009206d20f944639d13204cc
:103b280037d5862149006143654d4e536a181f25d4
:103b38001771997af601294001259972d97af60dfb
:103b4800a943d97280231b021e43019b5680002b78
:103b580004d06346f105c90d8b4213dd0c23634382
:103b6800119ac5186a60109a0326c250200003f003
:103b7800dbf91e22eb7a93432a221343eb723000bf
:103b88000bb0f0bd0199cd5cd11801334d719bb2da
:103b9800e0e70c2363434b4d1199ea185160109ae2
:103ba8005a5118236343484a9b5c1e22db0700d402
:103bb80006224649200004f0a0ff0c23012f44d020
:103bc800002f04d0022f47d000273d0004e06343b4
:103bd800ed186d7a6d076d0f6b021e43019a02abeb
:103be8003100200001f04ef90722019038492000e9
:103bf80004f083ffc021019b02aa4901200004f0c0
:103c080045fd019a3349200004f077ff88223d439f
:103c18002a433149200004f070ff0c236343294de7
:103c2800eb181b7a092b05d00a2b1cd11f231e4029
:103c38000d2e18d004f0c2fe0c235c4305232d1969
:103c48002b7204f0c5fe022699e76343ed186d7ade
:103c58001027ad066d0fbfe76343eb189d6820275b
:103c6800ed036d0fb8e70c236343eb189b7a5b07f2
:103c78000dd524226243194b9b185e78002e06d17d
:103c8800200001f047ff200004f0f0fc77e7144e15
:103c98003100200004f043ffc306f9d520000122bb
:103ca8000f4904f02aff04f089fe0c235c43062325
:103cb8002d192b7204f08cfe012660e74c030020be
:103cc80004040020b8030020d4030020411a000097
:103cd800861a0000031a0000041a0000e4020020fb
:043ce800051a0000b9
:020000040000fa
:103cec00f0b5c30f85b0440245000391640a2d0e54
:103cfc000293019330d0ff2d3ad08023e400db04f3
:103d0c007f3d1c4300950027039b5e025d00db0f8b
:103d1c00760a2d0e039334d0ff2d3cd08022280040
:103d2c000025f600d20416437f38039b029a5a40b2
:103d3c00009b9c4684446346b80028430138591cb8
:103d4c000e2833d804f0b0fe2f2f8c7b7bad8c7bf0
:103d5c00ad7b8c7a7a7a6b00002c0fd0200004f0ab
:103d6c0033f87626431f76429c40331a0093cae7f9
:103d7c0000950327002cc7d10227c5e70094012723
:103d8c00c2e7301e0dd004f01ff8431f9e4076236f
:103d9c005b42181ac9e728000325002ec5d102255d
:103dac00c3e70125c1e734002f0048e0b7b2a3b246
:103dbc00200c3c00350c47435c4368435d43230cab
:103dcc00ed195b199f4202d980256d024019a4b2ee
:103ddc001d042d19ac01671ebc41ad0e25431c0cf6
:103dec002418a4012c4323013dd5012360081c4059
:103dfc0004430d007f35002d37dd630704d00f23fe
:103e0c002340042b00d00434230103d580310d0052
:103e1c00284b1c40e308fe2d19dd00230ce0802309
:103e2c00db031c4204d01e4202d13400039b0193dd
:103e3c008023019adb032343ff2508e0029a022f1b
:103e4c00ebd0032f31d000231d00012fd1d158020c
:103e5c00edb2ed05400ad2072843104305b0f0bd82
:103e6c003400039aa0e76146c3e70120451b1b2dd4
:103e7c001ddc23002020eb40451bac40611e8c4117
:103e8c002343590704d00f211940042900d00433cf
:103e9c008025ed041d40db08002dd8d00023012522
:103eac00d5e780240023e403c1e70192c0e7002397
:083ebc001d00cce7fffffff73a
:020000040000fa
:103ec40070b5040004f0d4fb524a5349200004f0b6
:103ed4001ffe524a5249200004f01afed0215422f7
:103ee4004901200004f00bfe200003f0a5fd4d4a1b
:103ef4004d49200004f00cfe64224c49200004f0db
:103f0400fefd5e224a49200004f0f9fdd5210a2372
:103f1400484a4901200004f0bbfb474a47492000b6
:103f240004f0f6fd1823464a4649200004f0b0fb8d
:103f34001823454a4549200004f0aafb01224449bc
:103f4400200004f0dcfd18236343424d92225b5da4
:103f5400db0701d5902252008023a0211b021a43c3
:103f64008901200004f0d4fd10223b49200004f014
:103f7400c6fd18236343eb5c1e22db0700d4062234
:103f84002000364904f0bbfd20001022344904f01f
:103f9400b1f920008822334904f0b1fd20008022c9
:103fa400314904f0acfd20000722304904f0a7fd9c
:103fb400200007222e4904f0a2fd902120000122b6
:103fc400890104f09cfd200004222a4904f097fd95
:103fd40020001022142104f08df90c220020c025a9
:103fe400624325498b18505058601872587a19004a
:103ff40028403f25c0b228405872f0209b7a0340e5
:104004008b721e4b20009a180a23137203f054fd7e
:1040140070bdc0463c1e00000b1a00009f32000019
:10402400071a000080c40000421a0000461a00006b
:10403400491a0000208c00009fc80000b01a00003c
:104044000c89000010280000f488000030280000cb
:1040540002280000d403002004280000411a0000b4
:1040640001080000821a0000871a0000811a00006b
:10407400861a0000891a0000b80300204c030020af
:020000040000fa
:10408400f0b5c30f85b0440245000391640a2d0eb8
:10409400029301930ad0ff2d38d08023e400db047f
:1040a4007f3d1c432e00002300930ae0002c33d0f4
:1040b400200003f08dfe7626431f9c407642361a7c
:1040c4000095039b5f025d00db0f7f0a2d0e0393b7
:1040d40025d0ff2d2dd0802228000025ff00d204fa
:1040e40017437f38039b029a361a5a40009b980064
:1040f400284301380e2824d804f0dafc4e9d639d31
:10410400979d634e4e976379797954002e0003236b
:10411400002cc9d10223c7e726000123c4e7381eb7
:104124000dd003f055fe431f9f4076235b42181abf
:10413400d8e728000325002fd4d10225d2e7012592
:10414400d0e764017801844228d31a210123241a78
:10415400012527005b006400002f01dba04201d889
:10416400241a2b4301390029f3d1611e8c411c43cd
:1041740031007f3100293cdd630704d00f23234045
:10418400042b00d00434230103d531002b4b8031a0
:104194001c40e308fe2921dd002310e0013e1b2121
:1041a4000023d5e78023db031c4204d01f4202d145
:1041b4003c00039b01938023019adb032343ff21eb
:1041c4000ce03c00039a0095009b022be4d0032be7
:1041d4002fd00023009819000128c9d15802c9b270
:1041e400c905400ad2070843104305b0f0bd029a3e
:1041f400eae70120411a1b291ddc23002020cb40c3
:10420400411a8c40611e8c412343590704d00f216d
:104214001940042900d004338021c9041940db0863
:104224000029dbd000230121d8e780240023e40304
:10423400c0e70192bfe700231900cfe7fffffff7b4
:020000040000fa
:10424400f0b5040085b00e00634d0701002960d16c
:1042540010228421ed19eb7909011343eb710c222f
:1042640004f05ef8842140220901200004f058f88b
:104274003100200003f01af829225849200004f0e4
:1042840047fc8221012702abde1d32000123090114
:10429400200004f00dfa2a7a2f710c2533782a4075
:1042a400042a23d107229343022282211343337029
:1042b40032003b000901200004f0eaf948490322d6
:1042c400200004f02df83900200001f04ffe2000fa
:1042d400602102f0ebffec236343424ce41810230b
:1042e400b03422689a43226005b0f0bd382293436b
:1042f400102282211343337032003b000901200055
:1043040004f0c6f936492a00200004f009f8022115
:10431400dae718234343344a324ed31801935b7cc3
:10432400002b0fd0019bd87b03f08cffec2363435d
:10433400f318d2331888220000232c4902f09cfc85
:10434400019bd8732649200004f0ebfbec23634364
:10435400f318da6907231340012b14d1ea19917871
:104364008c46d1788c4502d9d2791a4210d1c30631
:104374000ed46022ed19eb7993431a0040231343c2
:10438400eb7108220de0eb199a78db789a42f0d2af
:104394006022ed19eb7993431a002023134304227e
:1043a400eb7184212000090103f0a4ffec23634393
:1043b400f318db699b0505d58421402209012000ff
:1043c40003f098ffec235c4310233619b0363268af
:1043d4001343336088e7c0466403002022080000ca
:1043e40021080000c8000020d4030020dd8800005c
:020000040000fa
:1043f400f0b58fb006ac0aaf01900d000292002117
:104404000e22200004f0c8fb0e220021380004f024
:10441400c3fbec21019b534e59437318d4331b78cf
:104424006d042031180089193a006d0f039301f0cf
:10443400b7f922000299280001f0b2f97b78019ab9
:104444009c463b2353433a78634404926a000592a2
:10445400002206339b00f618b3689e059f0ab60d2a
:1044640005998a421cd10132a3180493039b019a33
:104474005b000133e318039306ab5c1c3b235a43f4
:104484009446049b9c423cd02178029a8b009a5813
:1044940006ab970a5d1c039b9d4236d10234f0e7bc
:1044a400a15c049881422ed3a1184978029d88000a
:1044b4004059850a7d40ad0525d18005800db04267
:1044c40021d3182201985c0842432748274d8218bb
:1044d4008020800420409c022c40204301310907a5
:1044e40006430e43d38099051b0c13816346568102
:1044f400890d360c013396819180d370019803f0b5
:1045040049f90fb0f0bd0232aae763462e78154888
:104514009b1906339b00c3189b680235980a7840a0
:104524008005b8d118208027019c950260430e4c69
:104534005b0820180d4cbf0425409405a40d2543a9
:1045440001313b402b430d078021c90429430b4310
:104554004381c2801b0c120c01368381848002814a
:10456400c670cbe7c8000020d403002000fc0f0075
:020000040000fa
:104574000c23f0b54343504f0400fb18d87a85b0a0
:10458400830618d5c006000f0238082813d804f093
:104594008ffa0512303c1212837488000c2565438f
:1045a4007f190837fa785606f60f06d01e239a4369
:1045b40014231a43fa7005b0f0bd200002f048ff3e
:1045c4008621490061433d4b02005b1819793c4b3d
:1045d400200001933b4b00933300fff793fa1e2214
:1045e400fb7893430622012800d008221343fb7072
:1045f400e1e70c226243344b20009b180222997a93
:104604000a439a7203f058fad5e70c26350065433d
:104614007d190835eb785a0605d51e2293431422da
:104624001343eb70c7e7862040006043234f69883b
:104634003b185a889c46c905244b090f1a40cb02e3
:104644001a4313041a2251430393431dc25b5b189c
:1046540003991f480a436146097901901d48db19f3
:1046640000902000fff74efa1e22eb7893430128b6
:1046740001d13343d5e71026fbe70c2565437f19a9
:1046840008377b880121db051b0f06d01e22fb782f
:1046940093431a001023a9e70321200002f09aff94
:1046a40089e70c25200003f007fa40226c433f19e8
:1046b400fb7a9343fb727ee74c0300200404002042
:1046c40001000400ed6f0000b8030020ff87ffff26
:0846d4000a070808e95e000076
:020000040000fa
:1046dc00f0b50e2785b000236a46d4216f441373be
:1046ec0053733b7003aa01234901040003f08afbb6
:1046fc006b4601251b7b2b4254d00d222b006a44a8
:10470c004549200003f07efb2b003a004349200072
:10471c0003f078fb6b460f265a7b3b786e441340b4
:10472c00337032002b003c49200003f0ddfb327863
:10473c003b4e2a4203d00c236343f3181d7293079c
:10474c0004d50c2303216343f3181972530704d5c2
:10475c000c2302216343f3181972130704d50c239d
:10476c0004226343f3181a720c252b006343f318cd
:10477c001b7a042b02d0200001f0caf9654377594b
:10478c00002f0ad075196968080c0a0ac3b2000a0e
:10479c000090d2b2c9b22000b8470c236343f6187c
:1047ac00002333726b461b7b9b0732d50d220e26e2
:1047bc0001236a441b4920006e4403f023fb0123b0
:1047cc0032001949200003f01dfb6b460f255a7b64
:1047dc0033786d4413402b702a00012311492000bb
:1047ec0003f082fb2b787f2b02d9200003f040f9d9
:1047fc0008222b7813420cd00c216143084b20006b
:10480c005b189b1899780a4310218a439a7004f01c
:10481c00fbf805b0f0bdc046811a0000861a0000f6
:0c482c00b8030020821a0000871a000068
:020000040000fa
:1048380070b5464d6b7b002b1cd002222b8a444c52
:10484800134218d02277237f5bb2013300d06ee089
:1048580000232377c0236a689b0213436b602b8a6b
:104868001bb2002bfbdb0323ab73236a002b01d0a5
:10487800606a984770bd0123298a194203d0ff2333
:1048880023776277dfe70422298a114003d0ff22c9
:1048980022776377d7e7227f52b2032a31d0042ade
:1048a8000ad0022acfd1e2682088002a02d002f07a
:1048b800d1fcc8e71900fae76269e1688a421ad1af
:1048c8002269002a0bd003222188227749000b4352
:1048d800dbb22b752b8a1bb2002bfbdbb3e7c023a3
:1048e8006a689b0213436b602b8a1bb2002bfbdbad
:1048f80005232377a7e7531c636163689b5c2b76ca
:10490800a1e72269a369013a93420ad1e0226968c2
:10491800d2020a436a602a8a12b2002afbdb052205
:1049280022775a1ca2612a7ea168ca548be7237f8a
:10493800052b9fd100232377637703233022ab73a2
:104948002b8a1340102bfbd18fe7c046001400427e
:0449580070060020c5
:020000040000fa
:10495c008222f0b5c7b05200002104000f2605a832
:10496c0004f016f9002320006e443370fff7fcfdb1
:10497c0004f022f8142363433b4dea18517c0029c0
:10498c000fd018206043394909184978c9075cd5fc
:10499c000a21595516239370142300226343eb18f4
:1049ac005a7404f013f8200003f0a6fb002304aaa9
:1049bc000093310005ab200000f0ccfa0a2318421a
:1049cc0029d018226243294bd75c049bb9088c462a
:1049dc00032160460840844624489b0982181940ec
:1049ec000c208c4535d951789b00814303400b43f7
:1049fc005370200003f01cf8142363430499eb1844
:104a0c00da1dd9710b0a53700b0c93700b0ed3700b
:104a1c002000fef7adfb142363431822ed1863232b
:104a2c0062436b70114b9b185b783278db0714d5a3
:104a3c00049b05a92000fbf73ffb3278049b05a9da
:104a4c002000fdf72bff47b0f0bd1a215955452327
:104a5c00a1e751783b008143c8e7049b05a92000de
:104a6c00fdf730fae9e7c04690030020d40300209c
:020000040000fa
:104a7c00f7b58722364c92000021200004f088f80c
:104a8c0001236370334b10222382334bfc2163824e
:104a9c00952363736033ff33e254d132ff32023318
:104aac00e2523c234900635202316252023163529a
:104abc00023162522032a3520023284d284e294c39
:104acc000193294a2b1f1a60284b00272b60284b77
:104adc0020006b60274b2f61ab60274b6f61eb6045
:104aec000423af612900a37010225e3803f0faff93
:104afc00a378052263717323e37255232373022376
:104b0c0062726373a27403232022a373e37323746e
:104b1c00e2740c230422637422756375e375062218
:104b2c00f0231649a275a772218033807380b3805d
:104b3c003c33f3800123019aec3513433372130099
:104b4c000233dbb20c360193ec34042bb9d1f7bd34
:104b5c00c80000201c30000024040000e8000020e5
:104b6c00cc0200209a010020390200002c9101088f
:104b7c002cd102002cb104002c410600102700009f
:020000040000fa
:104b8c00f0b585b001900292002901d0002805d122
:104b9c00002083423bd0029a824238d00720384c06
:104bac0065680540ac4609d0002902d00020ca0730
:104bbc002dd4002b02d00020da0728d40198451ef2
:104bcc00a841404201400298451ea841042540429c
:104bdc000340a07b28401cd1268a3543258299426c
:104bec0000d2581a6546002d02d05b0849084008cf
:104bfc000125a67b2e42fcd000252e008e420ad128
:104c0c0000281dd10223a27b1a42fcd0012005b042
:104c1c00f0bd208bdde76246771c002a0ad1019a91
:104c2c00965d26833e00002b13d10122a77b1742f1
:104c3c00fbd0e3e7019a7600b65af605f60df0e7dd
:104c4c006246002a03d1ff2222830138ebe70d4a8a
:104c5c00fae70422a77b1742fbd0278bbfb29d42f9
:104c6c00ccd26a1c03926246002a03d1029a575591
:104c7c00039dc3e7ff05029a6d00ff0daf52f7e7e6
:084c8c0000080042ff010000d6
:020000040000fa
:104c9400f0b50e034d00430f6d0d760a1e436b1cd9
:104ca4005b05c90fc2005b0d012b52dd344bec18c0
:104cb400fe2c5ddc002c27dc230017335bdb802318
:104cc4001e271b041e433f1b1f2f0cdc2d4b100003
:104cd400ed18aa401300ae405a1e9341f8403343e6
:104ce4000343002417e002204042041b3000e0404c
:104cf4000024202f03d03400234bed18ac40224372
:104d040013005a1e9341ebe78001431e9841520f52
:104d14000243f30013435a0704d00f221a40042a13
:104d240000d004335a0104d50134ff2c25d0174a8e
:104d34001340db08ff2c04d1002b02d08022d203c5
:104d440013435b02e4b2e405580ac907204308434d
:104d5400f0bd13003343002d02d15a1e9341c0e726
:104d6400ff24002bd7d08023f6009b043343d2e7e3
:104d74000023ff24cfe70123b3e70023d9e7c0468c
:104d840080fcffff82fcffffa2fcfffffffffffb95
:020000040000fa
:104d9400f7b5537814781b021c439378d1781b041d
:104da40023431b039b0d00933b2343434906490fb5
:104db4005b18314e1b339b00f3185b68009f9c0506
:104dc400a40d0025a74253d8a94251d0ec2747434c
:104dd400f619d73636788e424ad314274743274ede
:104de400f6190127b67b76093e4001960601b446c2
:104df400234e6644f6793e40019fbe43214fbc4694
:104e0400ae4237d0182646436644b688009fbe4259
:104e14006d412e00edb2012e2ad1182646431f0cf7
:104e24006644f3803781f1705178177809020f4393
:104e34009178d2780904394312060a437281120c1c
:104e4400b281ec2670430c4e32213618320018031e
:104e5400b832800d1480484300f076ff3300fa2105
:104e6400b63318804900604300f0b8fab436308095
:104e74002800febd0125d0e7c800002090030020d3
:084e840064030020d4030020a8
:020000040000fa
:104e8c00f7b5802636020d0001921f000e401cd192
:104e9c0034004b045b0f9b002a0a3d707a70012092
:104eac002a0403d50320be70360afe70019ac3187b
:104ebc00dbb2002a42d1030000212218d2b2934265
:104ecc003fd101340019c0b2febd80240b0ce400ac
:104edc009eb21c4027d10c2242431c4880184189a9
:104eec00827ac905d206090f120f91421fd1d8053b
:104efc00c00d1a2100f0b8fa002917d00320cbb24c
:104f0c00023108408910cab2002804d004240132ae
:104f1c00241ae4b2d2b20e48120328402d0c0243dc
:104f2c002d041543b8e702240023b5e70c001a231f
:104f3c00b2e711780130c0b2395401329842f8d13d
:104f4c00b9e70133dbb2f954b9e7c0464c03002092
:044f5c00ff8f0000c3
:020000040000fa
:104f6000f7b50e00170004001d00fef787fb6a4628
:104f7000d080d1888446002909d10c2262432a4b73
:104f80009b189b7a9a0702d408001b071ed50222a1
:104f90006346134021d024226243244b9b185a7845
:104fa00032705a883a60002d08d0002007279e1cd6
:104fb000328812133a409200904208db089bcdb22f
:104fc000002b02d02900200098472800febd1a18a7
:104fd00012792a54013080b2eae76046000716d5fc
:104fe000862040006043124a121810793070106811
:104ff0003860971c002de1d03888c005c00d834271
:10500000dcdad0184079e85401339bb2f4e70c2184
:105010006143054b5b18987a042108338507cdd589
:10502000904398701021c9e7b8030020e4020020e3
:045030000404002054
:020000040000fa
:10503400264a2749136a194002230b4313620823a3
:10504400d1681942fcd0002322499361224b596054
:1050540022499960597849b20029fbdb8020918c60
:10506400814391841021d0680842fcd01c4908680f
:10507400800e3f2800d11f201a4980020968890543
:10508400890d014391628221c90159801649d16277
:10509400164991844021d0680842fcd0144a5a60d1
:1050a4005a7852b2002afbdb124a5a800a325a80da
:1050b40001325a8002325a8003325a801f220e4b28
:1050c4005a61da610d4a1a627047c046000800400e
:1050d4000000ffcf01060100000c004001fa0000af
:1050e4002460800028608000dc0514004602000073
:1050f40000070100034000000004004024010100f7
:020000040000fa
:10510400f0b500242c4d85b0200002f043ff2b683d
:105114009b0634d500230a201a00190001f0acfdc7
:105124000700264bc2009b18063301933022019bd3
:105134001b781340202b1fd003ae042332000e2112
:10514400200003f0b5fa3378022b2fd10423320068
:105154001900200003f0acfa32782b68242a21d1fc
:105164007278042a1ed1b278502a1bd1f278032a0d
:1051740018d1202213432b60380003f063f8013464
:10518400e4b2ec35022cbfd120220d4bd9690a4080
:1051940000d1da612022fc33d9680a4000d1da60f8
:1051a40005b0f0bd202293432b60bfe720232a687b
:1051b4009a431300f8e7c046e400002020060020cc
:0451c400c8000020ff
:020000040000fa
:1051c80070b5fff757fc03f041fa050003f01afd2c
:1051d80028400125054003f01afd254c002d03d178
:1051e8002023e2699a43e261002003f0ddfb002df1
:1051f80005d122002023fc32d1689943d1600120d7
:1052080003f0d2fb03f011fafff778ff02f0caf8b7
:1052180003f0d4fbe3699b0605d5002001f024feca
:10522800002001f051fe2300fc33db689b0605d506
:10523800012001f019fe012001f046fee3699b06fa
:1052480005d5002001f056ff002000f06bf9fc3472
:10525800e3689b0605d5012001f04cff012000f012
:1052680061f902f0c3fc03f0b3fb280070bdc0462f
:04527800c80000204a
:020000040000fa
:10527c00f7b52b4d0601aa199178d3780190745d7e
:10528c0057784b40202b31d013d8022b0bd8002b46
:10529c0035d00123aa19d1790b43d371002c04d139
:1052ac000027012401e0082bf3d0ac55ad196f7029
:1052bc00f7bd402b1ad00ed8222bf6d80123aa19f1
:1052cc00d17901980b43d37103f0c6fb022c05d1a5
:1052dc0000270324e9e7482bf0d0e6e7012ce4d1c2
:1052ec000027019803f030fb3c00dee7022cdcd0f9
:1052fc000124aa19d3790027a343d371d5e71379d5
:10530c008b42cbd00029c9d10121d37901988b4391
:10531c00d37103f0a1fb012ce2d0022cc5d1d7e74d
:04532c0064030020f6
:020000040000fa
:10533000f0b54d006d0dac4685b01d035e00db0f72
:105340000193264b0c030290240bc90f03922d0be3
:10535000760d9c4503d12700022307432dd11f4b17
:105360009e4203d12f000223174326d10027634614
:10537000bb4203d1204347424741ffb2002e01d137
:105380002a431dd0002f1fd0019b013b0120034366
:1053900013e0b44501da4b1ef8e7ac4219d809d145
:1053a000029b039a934214d8029a03983b008242cc
:1053b000f1d302e03b00ac42edd3180005b0f0bde4
:1053c0003300002ff9d104e0019b994201d1b4458b
:1053d000dfdd012349420b43efe7c046ff07000032
:1053e000002941d010b4041c4c40a44601230022e3
:1053f000002900d54942002800d5404288422cd3dc
:1054000001242407a14204d2814202d209011b01d6
:10541000f8e7e400a14204d2814202d249005b00d5
:10542000f8e7884201d3401a1a434c08a04202d33d
:10543000001b5c0822438c08a04202d3001b9c087e
:105440002243cc08a04202d3001bdc0822430028e0
:1054500003d01b0901d00909e3e7101c6446002ca6
:1054600000d5404210bc704701b5002003f000fc9d
:1054700002bdc0460029f7d003b5fff7b3ff0ebc4d
:085480004243891a1847c04697
:020000040000fa
:105488000123254a30b511780b43137053785bb26a
:10549800002bfbdb88239b019361dd231b06d36173
:1054a8001e4b022053610c23d3601d4b03255c1c4b
:1054b800e0771c002c3425701c0010213834217032
:1054c8001c00443421701c00503421701c005c34d2
:1054d80021701c00683421701c00743421701c0079
:1054e800803421701c008c3421701c009834217089
:1054f8001c00a43419721975217019000e24b031da
:105508000c700f21bc33197013781843107053783e
:105518005bb2002bfbdb30bd001800400cc0000064
:04552800000000205f
:020000040000fa
:10552c0037b5ec224243204b04009b181a0003258c
:10553c00e233e33219781278002302f003ff03f010
:10554c0045fa1a4b01a91c5d02222000019502f0bc
:10555c00b9fd174b01a902222000019302f0b2fd04
:10556c00012301a902222000019302f0abfd114b93
:10557c002a0001a92000019302f0a4fd21232a0096
:10558c0001a92000019302f09dfd0b4b01a9022201
:10559c002000019302f096fd084b022201a9200085
:1055ac00019302f08ffd3ebdc8000020668c000008
:1055bc00d8ff00002942b000d83f0000d13f0000c6
:020000040000fa
:1055cc00f7b51e035c00db0f0093244b0d034f005b
:1055dc0084462d0b7f0dc90f0192360b640d9f4233
:1055ec0002d12b0003432bd11c4b9c4202d1330024
:1055fc00134325d100239f4203d128434342434107
:10560c00dbb2002c01d132431dd0002b1fd00098ef
:10561c000138012103e0a74203da012001390843d4
:10562c000de0b54218d807d1019a944514d818004a
:10563c00019b9c45f1d302e01800b542edd3febdb1
:10564c0002204042fbe72000002bf8d104e0009a36
:10565c00914201d1a742dedd4842dae7ff070000a4
:020000040000fa
:10566c0070b5060003f0a8f9234c35016219137ac2
:10567c00d90708d55178012901d103215170012195
:10568c0062198b43137263191a7a920723d5db794b
:10569c00da0611d5300002f0a3ff63191b7a9b07c1
:1056ac0019d5605d0a2811d803f0fef90d0d0d18ff
:1056bc00201c1c1c1010200060221342edd0300066
:1056cc0000f002f9e9e73000fff7d2fd022264197d
:1056dc00237a9343237203f079f970bd0322631983
:1056ec005a70f3e7300000f081feefe700226319f7
:0c56fc005a706255eae7c04664030020c3
:020000040000fa
:10570800f8b50700ec2314007b43214a0803d3189b
:10571800b633800d188001f089f81e49fef7aefcfb
:105728003e011d4d230122d52403ec237b43184a57
:10573800a40dd318b8331c8002f028fd604319214a
:1057480080b200f0fffaab199c8880b258801a7baf
:105758000421a04219d85c800a431a73ec235f43e2
:105768000b4bad19df196b88b4373b80f8bdaa190c
:10577800630104d50823117b0b431373d4e7082175
:10578800137ba4058b431373cfe78a43e5e7c04631
:0c579800c80000200000a0412c030020ed
:020000040000fa
:1057a400f0b517001600002585b000900291009a0c
:1057b400ebb20193934205d310000138431c37d058
:1057c400002232e0029aab00d45832232003800d29
:1057d400584301f02df81749fef752fc0a230390b1
:1057e400a005800d584301f023f81249fef748fc48
:1057f400011c0398fef778fa02f0cafc6b461b7989
:105804003070737001350236d1e75300fc1802334f
:10581400fb18257819788d4205d821706678597857
:1058240061701d705e700132d2b28242eddbc4e75a
:0858340005b0f0bd00007a444c
:020000040000fa
:10583c0070b54400240e631c4102dbb24d0ac60f46
:10584c00012b16dde0239b00e418090b6d070023e8
:10585c000903080b190d090501431848640501409b
:10586c0064080c436400f6076408344328002100e4
:10587c0070bd002c17d12100002de8d0280002f0bb
:10588c00a3fa0a2809dc0b2329001b1ad9400300b0
:10589c0015339d400a4c241ad9e7030029000b3b11
:1058ac0099402500f6e7002d06d00c0b802109034a
:1058bc006d072143034ccae72900fbe7ffff0f806c
:0858cc0089030000ff07000042
:020000040000fa
:1058d400ec214143214a30b55218d269204b0001d2
:1058e40052071cd01a18d1798c060bd59478002c49
:1058f40008d1d5785479a54204d10421147a2143de
:1059040011721de04a061bd51a18d178002917d147
:10591400947851798c4213d1147a0821efe71a183c
:10592400d1798c0606d59478952c03d1d578547901
:10593400a542e2d04a0603d51a18d1789529e7d0b2
:105944000c211b181a7a0a4206d06020d9798143a7
:10595400d97102218a431a7230bdc046c8000020a2
:0459640064030020b8
:020000040000fa
:10596800fa2370b51e4d5b00eb5cdb0631d5f623e0
:10597800ff33ea5c0133002a03d0012a2ad1fd2330
:105988005b00eb5a0024c821164a174e9380116019
