:020000040000fa
:10000000f81f00203d620000f76700005f690000f4
:1000100000000000000000000000000000000000e0
:10002000000000000000000000000000375b00003e
:100030000000000000000000375b0000375b00009c
:10004000375b0000375b0000375b0000375b000068
:10005000f56c0000375b0000375b0000375b000089
:10006000375b0000375b0000375b000000000000da
:1000700000000000f5740000375b0000375b0000f3
:10008000375b0000375b0000375b000000000000ba
:1000900000000000375b0000375b0000375b0000aa
:0400a000375b0000ca
:020000040000fa
:1000a400f8b5c046f8bc08bc9e46704721680000fd
:1000b400f8b5c046f8bc08bc9e467047f967000016
:020000040000fa
:1000c400f0b500260d2791b004000291059231008d
:1000d40003931c2204ab09a81e7308960f2507f08e
:1000e40003fd04ab0e22ff180c2304a952186d184b
:1000f400200039003b7013702e7007f093fb290029
:10010400200007f043fc14236343b74d0493ee1817
:100114006e233f787370002f0cd1049b5b5d002b22
:1001240008d0200004f07cff0623f373049bb7700f
:100134005f55f77214231a006243a85c11281bd878
:1001440007f06afc1200ba015400a700cd008e012a
:100154001a006c015403e20115022e021a00f8027f
:10016400a703bd03f20311046343ef181e00bb7819
:10017400002b03d0012b1ad011b0f0bd03223b7326
:10018400bb7b20009343bb7307f00cf818220c21af
:100194006243964b20009b181a7b8a431100082265
:1001a4000a431a7306f0c4fc0123bb70e4e70d2371
:1001b40004aa9b181b78022bded10e2204a9521824
:1001c4001278042ad8d10f2252181278002a01d1a9
:1001d400ab55eae70f23ab553023bb7018236343b9
:1001e400824ce41896235b00a380c5e76343ef18b1
:1001f400ba78022a15d0042abed1200005f0f4fdf5
:1002040000233b73fb720323bb700223ba7b784940
:100214001343bb7322001423182005f0b9fef873ae
:10022400aae7f97a02290dd9b97bc8060ad5114281
:1002340005d000220921200007f03efc9ce706229d
:10024400ea5499e709aa07a9200005f0f5f904abd7
:100254001a7b01210023200006f0ccfe14231a008f
:100264006243aa18927b920711d4624e6343ed183d
:100274002b7b01332b730323ab7009ab00215e4a44
:10028400019600920200200003f0f8f874e75b4e38
:10029400ece76343ef181e000223ba7b20001343ec
:1002a400bb736b46029a998903f062fdc822544bd2
:1002b4005443012809d11b19b0331968514a0a4023
:1002c4001a600423ab550a236fe71c19b034226863
:1002d4004d4b134023600723ab55082365e7634365
:1002e400ee18b0780a38042800d945e707f08afbed
:1002f40005004b0044ff13003300002303211a00c0
:10030400200006f077fe14236343ed180c233f4ec0
:10031400ab700023b2e7c8226243394b9b1880229a
:10032400b033196892000a431a60182262432f4bb3
:100334009b181b7b5b069b0f00d01de70e2322003e
:1003440033491c2005f024fe14235c430c232c1990
:10035400e073a37010e7200006f048f81822624307
:10036400224b9b181b7b5b069b0f00d004e71e20cf
:1003740022002849ff3005f00bfe14235c432c199e
:10038400e0730b23e5e718226243184fbb181b7b6d
:100394005b069b0f21d13223d65920003603b60dbc
:1003a4005e4305f0c7fb18236343ff183b7b5b06e2
:1003b4009b0f15d1864200d0dee6200007f08af9b3
:1003c400002306211a00200006f014fe14236343c0
:1003d400ed180c23104eab709be700200600e2e7fb
:1003e400032b00d0c8e6e8e70c0100202c01002014
:1003f400f95f000002040105f56a00000204082afe
:1004040084020020fffbfffffffdffff040d091422
:1004140055790000fd720000050f09146343ee18be
:10042400b378082b00d0a7e6b37bdb0716d4d54ef0
:10043400002304211a00200006f0dcfdc8226243d8
:10044400d14b9b188022b0331968d2000a431a603a
:1004540014236343ed180923ab705ae7cb4ee7e747
:100464006343ed18ab780f2b00d085e60123aa7bfc
:100474001343c822ab7311236243ab70c24b9b1866
:100484008022b033196852000a431a60182262436a
:10049400bf4b9b18db7adb0602d5200006f082fcfa
:1004a400200006f08bfd0021200005f049ff082103
:1004b400200006f00dfd5fe66343ee18b378052bcc
:1004c40012d0072b00d057e6337b322b07d8f37ab0
:1004d400022b13d91222b37b1340102b0ed11423f9
:1004e4005c4306232b5547e607232200a94996209f
:1004f40005f04efd0623f073b3703de614235c4310
:1005040002232b552c1924e763431e00eb189a7819
:10051400142a07d0162a00d02ee60b22aa551a2236
:100524009a7029e69b7b9b0708d5c8226243964ba9
:100534009b18b0331968984a0a401a60200007f0e3
:10054400c9f8002320001a00190005f02dfb14231c
:100554006343ed18eb7a22000133eb728d491623c5
:100564001c2005f015fd1523e873ab7004e6634306
:10057400ef181e00bb78172b06d0192b00d0fbe513
:100584000b23ab551a2310e6200007f0a3f8192318
:10059400220080491c2005f0fbfc1823f87304e6b4
:1005a4006343ee18b0781a38082800d9e4e507f058
:1005b40029fa090022003700e3fd4d0052007400bf
:1005c400a600b400200007f039f9002803d0002168
:1005d400200007f079fa2000002105f085fe0023b1
:1005e40022006e496e4805f0d3fc14235c432c1999
:1005f400e0731b23ade6200005f09cfa061e00d034
:10060400bae5200007f066f8330022006549192096
:1006140005f0befc14235c432c19e0731c2398e6fc
:10062400200007f00bf9002800d0a5e5200007f012
:1006340051f8c8201e2322005649800005f0a8fc6a
:1006440014235c432c19e0731d2382e614235c43ba
:100654001f232c197de60f2304aa9b181b78002b5b
:100664000ad0182262434a4b9b181b7d002b03d0ef
:100674000121200007f028fa2000012105f034feb2
:100684001420002322004549ff3005f081fc142387
:100694005c432c19e07320235be6200005f04afa42
:1006a400414b0700984200d066e5200007f012f89d
:1006b400200006f095fb18230a266343344a3900c8
:1006c400d3189a8802937243012392b2200001f056
:1006d40031f90f2304aa9b181b78002b18d0029b16
:1006e4001b7d002b14d0002322003049300005f07c
:1006f4004ffc14235c432c19e073212329e62000ca
:1007040007f09cf8002800d136e5200006f0e2ff4f
:1007140014235c4322232c191be6220000232449c2
:10072400244805f035fc142300225c432b1918746b
:100734002a55f5e66343ee18b0782338042800d927
:100744001ae507f05ff9050019fd12003b004400ab
:10075400002308211a00200006f04cfc14236343f4
:10076400ed182423144eab70d3e514236343ed1822
:1007740024232200ab7007492623182005f008fc27
:10078400e873f9e40c00082a84020020050f082a03
:100794002c01002055790000fff9fffffd720000d5
:1007a4008a0200005574000088130000a954000058
:1007b400bd7600007c1500000d25051114230522cb
:1007c4006343ea54ed1811230a21ab7070e66b46bb
:1007d400029a9989200006f0a5fd1423052263439b
:1007e400ea54ed1811230921ab7061e66343ee1856
:1007f400b0782a38052800d9bee407f003f90600ca
:100804002300bdfcbdfc45003900c8226243674b90
:1008140020009b18b0331968654a664e0a401a6076
:1008240006f058ff0021200007f0a7f900230d214e
:100834001a00200006f0defb14236343ed182d2379
:10084400ab7066e5200006f045ff0121200007f0ab
:1008540094f900230d211a00200006f00dfe142344
:100864006343ed182d23ab700023524e012106e59e
:100874002e2322005049182005f08afb14235c43e0
:100884002c19e0732d2364e5142309225c432a55b3
:1008940038e66343ed18ab78282b00d06ce42000d5
:1008a40006f018ff200007f085f8002303211a0042
:1008b400200006f09ffb2923404eab7029e56343db
:1008c400ef181e00bb78322b22d0332b29d0302bcb
:1008d40000d051e418226243394b9b181b7b1b0741
:1008e4009b0f012b12d1374b0893012200230f21b8
:1008f400200006f0c1fd14236343ed186b7b324ed8
:1009040001336b733123ab7008abafe72f4bebe7cd
:10091400332322002e491c2005f03afb3123f873bf
:1009240043e41123ab5527e46b4605999a892000cb
:10093400029b05f083ff012811d118220c21624388
:100944001f4b9b181a7b8a43110008220a431a730f
:10095400142300225c432b195a730222e8e6142361
:100964005c431123bee5182163434c430c21ea1870
:100974001e00134b507b1c19237b8b431900142836
:100984000dd908230b4323732023917b0b439373cb
:10099400002353730223ab559370fff7edfb04233d
:1009a4000b4323730f23ab553023f5e78402002058
:1009b400fffbffff082f09145579000002020914f8
:1009c4002c010020018000ff0f32110001a000ff64
:0409d400f95f0000c7
:020000040000fa
:1009d800f7b50d0009036c00ed0f0095490a450fa6
:1009e80029431d035e00c700d80f6b0a550f2b4320
:1009f800c14d640d760dd200ae4203d11d00844670
:100a0800154302d101254540ac46009da01bac45cd
:100a180000d036e1002861dd002e25d11d001543e8
:100a280000d196e2461e002e19d1ba18ba42a44146
:100a3800c91864420919170001240b0200d4bee04a
:100a4800ad4b01349c4200d180e2ac487b080140a8
:100a5800012007401f43c80707434908afe0a64dd8
:100a6800a84209d1a44caae0a34dac4200d1a6e00b
:100a7800802506002d042b43382e2adc1f2e17dc78
:100a880020201d00801b8540ac4615000190f540d4
:100a9800604605430198f3408240501e8241154349
:100aa800ed195b18bd428941494259182f00c4e726
:100ab80030001d002038c5400020202e03d04020e3
:100ac800861bb34018000243501e82411543002381
:100ad800e6e71a4315006a1e9541f8e7002850d04a
:100ae800002c14d10c003c4300d128e2c443002c54
:100af80007d1bf189742a441c918644209193400a4
:100b08009be77d48864209d119001700aae77a4c6d
:100b1800a642f9d04442802000040143382c2bdc43
:100b28001f2c17dc2025281b01900800019de1409f
:100b3800a840844638006546e0402843019daf4000
:100b48007d1eaf413843871897429241c9185242d7
:100b58008918d4e720000d002038c540280000255a
:100b6800202c03d040252c1ba1400d002f437d1eb7
:100b7800af4138430021e6e70f433800471eb8412c
:100b8800f8e7661c75056d0d012d00dd69e00800ac
:100b98003843002c49d1002800d1d3e11800104374
:100ba8000dd0ba18ba42b641c918802376428919bd
:100bb8001b041700194202d00124504b19407b072f
:100bc80009d00f233b40042b05d03b1dbb42bf413e
:100bd8007f42c9191f000b0206d5474b01349c42be
:100be80000d1c3e1454b1940434b4807ff08384340
:100bf800c9089c4206d103000b4300d1b9e1802308
:100c08001b031943002709033b0d1b05090b194357
:100c18003b4b6405194064080c43009b6400d907ea
:100c280064080c43210003b0f0bd002800d16be735
:100c38001800104300d115e74807ff080743802034
:100c4800c9080003014207d0dc08044204d1d208d5
:100c58005b0713431f002100780fc9000143ff0001
:100c680000e7254ca64200d16fe1ba18c918ba426c
:100c78009b415b42cb18df075208174359083400e1
:100c88009de700285ddd002e3cd11d00154300d1f5
:100c98005fe1461e002e0ed1ba1a9742bf41c91a0b
:100ca8007f42c91b012417000b0200d487e74902c1
:100cb8004d0a3e00f9e0104da84200d1d2e6382e88
:100cc8003adc1f2e27dc20201d00801b8540ac4607
:100cd80015000190f540604605430198f3408240b5
:100ce800501e824115437d1bcb1aaf4289414942b0
:100cf800591a2f00d8e7c046ff070000ffff7fff03
:100d0800ffff0f809c4dac4200d158e780252d0491
:100d18002b430600d3e730001d002038c5400020d3
:100d2800202e03d04020861bb34018000243501edb
:100d3800824115430023d6e71a4315006a1e9541e0
:100d4800f8e700284dd0002c17d10c003c4300d107
:100d580001e1c443002c09d1d71bba429241591a68
:100d680063465242891a340000939de782488642be
:100d78000ad119001700804c45e07f4ca642f8d0f4
:100d88004442802000040143382c25dc1f2c11dc50
:100d98002025281b00900800009de140a840050080
:100da8003800e0402843009daf407d1eaf413843e6
:100db800171ad2e720000d002038c540280000256a
:100dc800202c03d040252c1ba1400d002f437d1e55
:100dd800af4138430021ebe70f433800471eb841c5
:100de800f8e7601c4005400d01284cdc18000d0098
:100df80010433d43002c24d1002d07d1071e00d1fc
:100e0800ade01900170063460093d8e6002800d12a
:100e1800d5e6bd1aaf42b641c81a7642801b802675
:100e28003604304206d0d71bba429241591a524270
:100e3800891ae8e72f00074300d190e001002f004e
:100e4800bde6002d07d1071e00d18be019006346cf
:100e58001700009306e6002800d103e64807ff08bc
:100e680007438020c9080003014200d1f4e6dc08ea
:100e7800044200d0f0e6d2085b0713431f00634624
:100e880021000093e8e6be1ab7428041cd1a4042dd
:100e98002d1a8020000405422dd0d61bb242ad4148
:100ea800591a63466d424d1b0093002d29d0280026
:100eb80006f048f80300083b1f2b27dc20223100ee
:100ec8009e40d21a9d40d14037000d439c4232dcef
:100ed8001c1b661c1f2e1edc20233a0029009b1bae
:100ee8009940f2409f400a43791e8f412900f14002
:100ef8001743002463e637002f43d6d139003c005e
:100f08002ee0300006f01ef82030d3e735002838f0
:100f180085400027dae72a001f3ce2400023202e04
:100f280003d040239e1b2b00b3401f437b1e9f41d1
:100f380000211743dde71149e41a29403fe619006b
:100f480017009ce61900170039e60b4c00210f002a
:100f580035e6040033e619001700340053e739007a
:100f680000972ce68021044cc903f9e700210f0003
:100f78003ae6190046e6c046ff070000ffff7fff7c
:100f8800f0b58bb0060004930400cb0f0d034800a6
:100f980000922d0b400d0393029346d0584b984274
:100fa80067d08023720f1b04ed0013432b431f00ef
:100fb800544bf400c31800260193049b009a1d03a8
:100fc8005800db0f2d0b400d069361d04c4b984217
:100fd80000d181e08023520f1b041343ed001d4311
:100fe800484a009b8218db00944600220698039921
:100ff8004140604604910199091ab0001043013834
:1010080005910e2800d981e006f004fd750049021b
:10101800ed0149023d024902ed01750075003d02ee
:10102800ed01fc01fc01fc01e2012f00374327d050
:10103800002d13d0280005f085ff01000b391c296d
:1010480011dc02001d2337003400083a5b1a954072
:10105800df4094402f432c4b1b1aace7300005f0bf
:1010680071ff2030e9e70300283b9e400024370049
:10107800f1e72e43371e07d02f00019003269ce787
:101088003c000197012698e734000190022694e776
:10109800009b2b4327d0002d13d0280005f052ffca
:1010a80001000b391c2911dc1d2302005b1a009971
:1010b800083ad940009b954093400d43124a121ab2
:1010c80092e7100005f03eff2030e9e70300009d9d
:1010d800283b9d400023f1e7009b2b4307d01300da
:1010e8008446032282e71d009c4601227ee71d00fc
:1010f800844602227ae700252c00014b4ee1c046c7
:10110800ff07000001fcffff0dfcffffaf4204d802
:1011180000d057e19c4200d254e1f907620811431c
:10112800e0070c0001907f082d021a0e2a431b02cb
:101138000293130c03936b4600921b8803993800a3
:10114800079304f067f90600079b06900399380097
:101158005e4304f09bf9250c09040d43069fae423b
:1011680009d9009b013fed18ab4204d8ae4202d921
:10117800069fed18023fab1b03991800069304f075
:1011880049f9079e050046430399069804f07ef93d
:10119800a4b209040c432a00a64208d9009b013acc
:1011a800e418a34203d8a64201d9aa1ee4183b04b6
:1011b80002991343029a0904120c090c0892069129
:1011c800089d06989ab2a61b1c0c514360436a43bb
:1011d8006c4312180d0caa18904202d980204002c4
:1011e8002418100c09041204090c04195218a642f8
:1011f80005d31f00a64227d10199914224d2029813
:10120800019984466144019181428941009849428b
:10121800091876185f1eb04204d315d161460198ab
:10122800814211d8b44203d80ed101998a420bd910
:1012380002999f1e8c46019b634401938b429b41fc
:1012480000995b425b18f618019b341b9b1a0993a3
:10125800099a019b93429b415b42e41a009ba3427b
:1012680000d1d2e00399200004f0d4f8079d0600cd
:1012780045430399200004f009f9099b09041c0c53
:101288000c430196a5420cd93300013b0193009b06
:10129800e418a34205d8a54203d9b31e0193009bc5
:1012a800e418641b0399200004f0b4f8079d0600b5
:1012b80045430399200004f0e9f86b460a04998c29
:1012c800330011438d4208d9009a013b89188a429c
:1012d80003d88d4201d9b31e8918019a089c1204bb
:1012e8001a43100c93b24d1b16000699069a4143f7
:1012f8005a43634360435b18140ce318994202d9bc
:10130800802149024018190c12041b04120c0818f9
:101318009b18854204d3340085421bd1002b1bd077
:10132800009a741e5519aa420fd8a84203d811d1a1
:10133800029a9a420bd2029ab41e510091429241eb
:10134800009e52429219ad180291854202d1029a2a
:10135800934201d001231c43059b564a9b18002b3e
:1013680056dd620709d00f222240042a05d0221d2b
:10137800a242a44164423f191400fa0106d5802212
:10138800d20094464c4b1f40059b63444b4a934202
:1013980000dd88e0e40879070c43fd0800212d03ef
:1013a8000a0d12052d0b1543454a5b0515405b08d0
:1013b8002b43049a5b00d2075b08134320001900f3
:1013c8000bb0f0bd059a013a059200220192abe6f6
:1013d8008022120317425ad0154258d12f001c0000
:1013e800069b029353e02f0016001c00069b0493f3
:1013f800022e58d0032e50d0012eadd10024250046
:101408002300cbe7039b0493f2e701246442a3e79c
:101418000122d21a382af1dc1f2a21dc20232000dd
:101428009b1a39009c403d009940d040631e9c4166
:10143800d54001430c43630709d00f232340042bf5
:1014480005d0231da342a44164422d191c0080230a
:101458001b042b402ad16907e4080c43ed089de7db
:101468001f214942cb1a3900d9400b000021202afc
:1014780003d040218a1a390091400c43611e8c41e7
:1014880000251c43d7e7802700243f0302948025ca
:10149800029b2d033d4304932fe6049ba1e70025ff
:1014a8002c002b007ae70024250026e600250123de
:1014b8002c0073e7ff030000fffffffefe0700009c
:0414c800ffff0f8093
:020000040000fa
:1014cc00f0b5040085b003f03bfe06f01ffac14ee8
:1014dc00250173199a780292da781b7a0392019398
:1014ec0006f01efaa85d0b2855d806f091fa0c00f0
:1014fc0056007b00fe00540054005400540054006d
:10150c0042015400ec0175196f78012f00d1abe04a
:10151c00002f0cd0032f3ed1af49200006f09dface
:10152c00011e38d16870200005f014fa33e0012157
:10153c00200005f0c9fc3900200005f073fdc8221d
:10154c006243a64ba6499b180322db692000db08eb
:10155c001a40019218226243a24b9b180a229b88c4
:10156c005a433b0092b200f0e1f93900200004f03c
:10157c0063ff0322eb795b081340019a934202d07c
:10158c00200005f0e7f82000602104f055ff01234e
:10159c0024013419637005b0f0bd77197b78002bea
:1015ac0011d0022bf7d17021019a0a40111ef2d1f1
:1015bc00029a0398824212d13b7993420dd10a23ad
:1015cc0073550021afe7022322008749962004f0cf
:1015dc00dbfc0123b8717b70dde70423f0e7735566
:1015ec007970eee7731958780328d4d806f0fcf913
:1015fc0002293e490121200004f072fe1420002330
:10160c0022007a49ff3004f0bffc73199871029ada
:10161c005b7993420fd110227549200005f0aafe88
:10162c0001217319db790b4202d0200002f0c4fabd
:10163c007519012351e010226d49200005f084fe3c
:10164c00eee77027019b3b40102ba4d120007519ad
:10165c0006f020f9eb79db0711d500232200654950
:10166c000a2004f091fca871022336e00c23019aa5
:10167c001a4200d18fe7200006f00cf975190323ec
:10168c002be073195a79c8236343544f0299fb1802
:10169c00b0338a4223d102211a688a431a6020008f
:1016ac0005f012fcc8236343fb180127b0331a68fa
:1016bc0039003a431a60200005f0b4fc182262434a
:1016cc00484b47499b180a229b8820005a433b00f1
:1016dc0092b200f02bf9042375196b705be70222b0
:1016ec0019680a431a600321d9e777197b78012b13
:1016fc0020d0002b12d0032b00d04ce77023019a82
:10170c001a40019200d046e7200006f0c3f86b4661
:10171c001b797b706b461b7973553ce7200003f0fb
:10172c007bfc0123220030490a2004f02dfc02230b
:10173c00b87150e70021200004f0d2fd00232200f4
:10174c002a492d4804f020fc0c23019ab8711a4246
:10175c0003d16023fa791a4209d00021200002f04b
:10176c002bfa60227519eb799343eb717ce7032319
:10177c0031e773195878042800d90ce706f03ef9c4
:10178c000500590060000bff73000421200005f0d8
:10179c009bfb0021200005f045fc0021200004f0fb
:1017ac004bfec82262430d4b9b18df6907231f4079
:1017bc00012f23d10021200004f092fd00212000f4
:1017cc0005f0eaf804225521200005f0d3fd002293
:1017dc0039001ae0fc0000200808000084020020f8
:1017ec00881300002c010020cd790000fd72000050
:1017fc0021080000d15800008a0200001822624320
:10180c00474b00219b180322d980200004f03efe98
:10181c000c23019a1a4205d17319da7960231a4202
:10182c0000d105e760217219d3798b43d371002164
:10183c00fbe60c23019a1a4200d0ace6751913e7ab
:10184c007021019b0b40191e00d0a4e6200005f06e
:10185c00cbf9fa20042322003249400004f094fb17
:10186c007519a8710be7c822072762432e4b9b18ea
:10187c00da691740012f1bd1d206920f39002000d4
:10188c0004f004fe002373557519390020006b70a9
:10189c0005f082f804225521200005f055fd2000aa
:1018ac00602104f0c9fd0121200005f09df972e6cc
:1018bc0001220021200004f0e9fd052373550023cb
:1018cc0075196b70ebe773195f780293002f00d0da
:1018dc0061e63900200005f0a5fb3900200004f07a
:1018ec00abfdc8226243104b9b18da6907231a40e0
:1018fc000292012a0cd13900200004f0f1fc0622de
:10190c007319db79029993437219d3713a007ce70e
:10191c0018226243024b9b18df80032258e7c04613
:0c192c002c010020cd7900008402002076
:020000040000fa
:10193800f0b51e0014234343d84d87b0eb189b7baa
:1019480004000091db0700d4a1e018224243d44be5
:101958009b181b890193d34b22019b189a681b7b08
:10196800170a1b06002120001f4305f03ff900233a
:1019780005939e4200d1b9e0009b002b00d1b5e051
:1019880018266643c64b9e19b37c002b0ed0307cbc
:1019980005f09afcc8226243c34bc4499b18ca335a
:1019a80018882200002304f0f1fa307414236343ea
:1019b800ed18ab7bdb0700d46de018226243b84911
:1019c8008b181b7b5b069b0f032b64d1ff236425bd
:1019d8005658700c1840684304f01ef9c823634336
:1019e800b14a0190d3180093d833187803f02aff2e
:1019f800af4902f003f8011c019801f031fe03f031
:101a080077faac4aac4bfff7bbfa02f0d7fc391cab
:101a180001f026fe05f02afc04ab9880ff23300a6b
:101a28001840684304f0f8f8009b051cd93318786f
:101a380003f008ff9e4901f0e1ff011c281c01f09a
:101a48000ffe03f055fa9b4a9b4bfff799fa02f0f9
:101a5800b5fc391c01f004fe05f008fc04abd88085
:101a680005aa04239549200005f0cafd0322552143
:101a7800200005f06bfc3d273a002000904905f056
:101a8800dcff0121200005f0b1f807b0f0bd04f03b
:101a98004ff801905fe7c8256543009803f0d2fe30
:101aa800814b061c5d192b00d833187803f0cafe49
:101ab8007f4901f0a3ff311c01f0d2fd03f018fab1
:101ac8007c4a7d4bfff75cfa02f078fc391c01f088
:101ad800c7fd05f0cbfbd93504ab9880287803f017
:101ae800b1fe734901f08aff311ca8e70322552192
:101af800200005f041fc009b002b67d0714b009a39
:101b08009a4270d014236343ed18ab7bdb0700d4f3
:101b1800eae01822624362498b181b7b5b069b0f25
:101b2800032b00d0e0e0642055582b0adbb2584361
:101b380004f0c2fa644a654b00f016f95d4a5e4b40
:101b4800fff71efa02f03afc391c01f089fd6049e2
:101b5800061c01f085fd05f089fb0a2180b203f01f
:101b680095fc89b2301c042900d894e005f07efb6e
:101b780001306d0c86b2e8b26425684304f09cfa23
:101b8800514a524b00f0f0f84a4a4b4bfff7f8f92c
:101b980002f014fc391c01f063fd4d49051c01f0ed
:101ba8005ffd05f063fb0a2180b203f06ffc89b288
:101bb800281c042900d8c3e005f058fb0130002791
:101bc800009b85b2bb4200d156e73fe018220121b5
:101bd8006243334b9b181f7b0f4000d1b3e02000ba
:101be80004f0bafe48e7182262432d4b9b181b7b72
:101bf800db0748d53749381c01f032fd3449051c4c
:101c080001f02efd05f032fb0a2180b203f03efc04
:101c180089b2281c042938d905f028fb01302e493f
:101c280086b2381c01f01cfd2949051c01f018fd7d
:101c380005f01cfb0a2180b203f028fc89b2281c9d
:101c4800042925d905f012fb013085b23200234959
:101c5800200005f0fbfe019b009a0d27934200d857
:101c68000ae71822012162430d4b9b181b7b0b428c
:101c780002d0200004f070fe2a001949200005f067
:101c8800e5fe4d27f8e61749b5e705f0effac6e790
:101c980005f0ecfad9e705f0e9fa6ae70c0100204b
:101ca8002c010020fc00002084020020897800001c
:101cb8000000c842295c8fc2f5683840b4080000ab
:101cc8001f08000088130000666666666666ee3fb9
:101cd80000002041a697424347516143b2080000e3
:101ce800b808000006413443009803f0cfff174ab4
:101cf800174b0290039100f037f8164a164bfff77e
:101d08003ff902f05bfb391c01f0aafc1349051ce2
:101d180001f0a6fc05f0aafa0a2180b203f0b6fb8e
:101d280089b2281c042908d905f0a0fa013086b226
:101d38000b4a0c4b0298039924e705f097faf6e74b
:101d480005f094fa3be70f0096e6c04666666666bd
:101d58006666ee3f295c8fc2f56838400000204176
:081d6800cdccccccccccf03f7b
:020000040000fa
:101d7000f0b58bb001920593ca0f0c034b0006001f
:101d8000240b5b0d0492039245d0c64a934265d062
:101d90008022410f12040a43e4001443c24ac500e2
:101da0009b1800270293059b019a1e035800db0f26
:101db000360b400d059360d0ba4b984200d180e0bd
:101dc0008023520f1b041343f6001e43b64a019ba7
:101dd0008218db0094460022059804994140019145
:101de0000299b8006144104307910138013106910e
:101df0000e2879d805f012fe740074007b01710181
:101e00007101bc017b017101bc0171017b016f019a
:101e10006f016f0164012500054326d0002c13d00b
:101e2000200005f093f801000b391c2910dc1d235c
:101e300002005b1a31003500083a9440d9409540c1
:101e40000c439a4b1b1aace705f080f82030eae708
:101e500003003400283b9c400025f2e705002543a1
:101e600007d00500029303279de72c000295012768
:101e700099e72c000293022795e7019b334327d073
:101e8000002e13d0300005f061f801000b391c2939
:101e900011dc1d2302005b1a0199083ad940019b0d
:101ea000964093400e43814a121a93e7100005f0c2
:101eb0004df82030e9e70300019e283b9e400023b7
:101ec000f1e7019b334307d013008446032283e7e5
:101ed0001e009c4601227fe71e00844602227be70b
:101ee00034001d001700f8e0190c9bb20291190094
:101ef0002a0c514318008c46029f0299adb26843e8
:101f000051436f4304916744010cc91903908c45f8
:101f100006d9049f380080277f02bc4660440490a5
:101f2000684680890f0c090409180991310cb6b272
:101f3000039130003100bc46039f694350437d4309
:101f40007a432d180f0c7d19a84202d98020400237
:101f50001218280c82182d0489b205926a1808926a
:101f60001800089962468c46029f210ca4b2604377
:101f70004b43674362449446029dff18020cd219fa
:101f80004d43934202d980235b02ed183700130cb6
:101f90005b190293039b67434e435c435943a41967
:101fa0003b0c120480b21c191018a64202d98023df
:101fb0005b02c918049b220463441e00089bbfb245
:101fc0009e42ad418619d2198642bf410298059bb7
:101fd00084466d42d218ab189c440393059b60461f
:101fe0009a429241039b5242ab429b415b427f42e9
:101ff0001a43029b3818240c1219b842bf419c4561
:10200000a4417f4264423c4314196418c30d640226
:102010001c43099b75021d43691e8d41f60d354316
:1020200040020543e30167d501226b0815401d43bb
:10203000e307d4401d43069b1d4a9b18002b5edd21
:102040006a0709d00f222a40042a05d02a1daa4275
:10205000ad416d4264191500e20106d58022d2001f
:102060009446144b1c40069b6344134a934200dd84
:102070008be06207ed081543e408002124030a0df4
:102080001205240b14430d4a5b0514405b082343df
:10209000019a5b00d2075b081343280019000bb0bc
:1020a000f0bdc046ff07000001fcffff0dfcffff75
:1020b000ff030000fffffffefe070000ffff0f8091
:1020c00080221203144257d0164255d134001d000d
:1020d000059b039350e0049b0193022f55d0032fdf
:1020e00051d0012fa7d100252c002b00c5e71d00e2
:1020f000059b34000193f5e6079b06939be70122bd
:10210000d21a382aefdc1f2a20dc202321009b1a58
:1021100028009d409940d0406b1e9d41d440014312
:102120000d436b0709d00f232b40042b05d02b1d2b
:10213000ab42ad416d4264191d0080231b04234056
:1021400000d196e700240123250096e71f2149428c
:10215000cb1a2100d9400023202a03d040239a1a09
:10216000230093401d436b1e9d4100240d43d8e77f
:10217000802400252403039580231b031c43039b19
:102180000193034b79e7019ba3e700252c00f8e7b7
:04219000ff07000045
:020000040000fa
:10219400f0b50127b94a0301d3181b7a87b00400ac
:1021a4000e00019339423ed004ab5d1d2a003b0072
:1021b400b34904f05dfd2b787f2b05d93b002a0041
:1021c400af49200004f048fe2b789b070dd004aae9
:1021d40002230632ab49200004f04afd04aa02237c
:1021e4000632a849200004f037fe0223019aa649ca
:1021f4001a43019204aa951d2a00200004f038fd18
:10220400c8226243a14b9b18d969072322011940b4
:102214002b88012900d0ade098498a18d9431b0abc
:10222400db439170d37073051fd504ab5d1d2a0089
:1022340001239749200004f01bfd2b785fb2db07d4
:102244000bd50c23019a9a43019218226243914bb5
:102254009b180822d97b0a43da7301232a008c498c
:10226400200004f0f9fd002f01dbb3057ad504ab9f
:102274005d1d2a0001238849200004f0f9fc18237d
:1022840001276343834ad3181b7b22013b400293fb
:102294002b7800250392ab420cd17023019a2900bc
:1022a4009a432000019204f059fb029bab4266d092
:1022b400750a3d4004ab5f1d3e78012e14d1029b8c
:1022c400002b00d06de06d4b22019b5c072b0bd1e2
:1022d400200005f065fb002806d1019b3100334343
:1022e4002000019304f03afb3b78052b5bd1029b61
:1022f400002b11d17021614b22019a18137a0b40e3
:10230400102b00d1b5e05d4b21015b5c072b03d1a1
:102314005378012b00d0ace004ab9d1d00232a00b0
:102324002b805e490123200004f0a2fc2b889b062d
:102334000ad518226243574b9b185a7dd20703d4ff
:102344000222d97b0a43da7304aa012305325449d1
:10235400200004f08dfc04aa01230532504920001a
:1023640004f07afd454b24011c196b461b7923723a
:1023740007b0f0bd41498a1893701b0a52e73f4bde
:1023840022019b5c029d072b00d093e7200005f0ff
:1023940007fb051e03d1019b3b4301938ae7029d82
:1023a40088e7029da0e7012db6d010221a400292c0
:1023b40006d018236343374ad318d97b0122c1e7d7
:1023c400202293430d2bbfd17023019a35499a43a0
:1023d40004ab9d1d019202232a00200004f048fc56
:1023e400288803f055fc304a304bfff7bffc234ae2
:1023f4002301944663449a680600187b120a000677
:1024040010430f0002f076fd0b000200390030008b
:10241400fef7b8fd04f042fe80b22880c825631c94
:102424006b431a4e3227f318db7a65439c460299b4
:10243400cbb2634510d28a0052199219526f0131fe
:102444001203920d7a439042f2d80133019adbb21f
:102454001b011343dbb20193182262430d4b9b18fb
:102464001b7bdb0700d46fe70021200004f076fa21
:102474006ae7012d00d067e74ee7c046fc00002064
:10248400030800000408000006080000840200207d
:102494000a0800002c010020080800001f080000a2
:1024a40009080000b2080000295c8fc2f5683840b2
:020000040000fa
:1024b4001423f7b51a004243b54e0400905d243846
:1024c40009285cd805f0a8fa4c0064008f009e002f
:1024d400ca00ed0008010a0030002a016343f31822
:1024e4009b78612b4bd1002310211a00200004f0ab
:1024f40081fdc8226243a74b9b180722db69134066
:10250400012b0fd0a44914236343f6186223b3703c
:10251400a24b01910093002302001900200000f057
:10252400adff2ce09e49eee76343f3189b78632be1
:1025340025d1002304211a00200004f05bfdc822e9
:102544006243944b9b180722db691340012b05d08f
:10255400914914236343f6186423d8e79049f8e7b4
:10256400200005f06bf900280ad1182262438d4b34
:102574009b181b7d002b03d1200004f003fdf7bd45
:1025840014235c432523335558233419a370f6e7e9
:102594006343f7181d00bb78582b0bd05a2beed190
:1025a400200005f04bf9002819d026237355562333
:1025b400bb70e4e7002303211a00200004f01afd95
:1025c40018226243774b9b181b7bdb0705d47649a3
:1025d40014236343f618592399e77449f8e7282329
:1025e40073555d23e4e76343f618b378562bc6d1dd
:1025f400142322006e49322003f0cafc5723f073df
:10260400b370bce76343f7181d00bb785b2b14d091
:102614005c2bb4d1200005f011f90028afd12000c3
:1026240005f058f8182363435e4ce418237bdb075a
:1026340010d5052373551123bae70021200005f0b6
:1026440043fa002322005b49192003f0a1fc5c2318
:10265400f873ade71d2373554823a9e76343f718bf
:102664001d00bb785d2b0fd05e2b00d087e72000c8
:1026740005f0e4f8002800d181e7200005f02af8ed
:10268400292373555f2393e70121200005f01cfae9
:102694000023220048494b2003f07afc5e23f873a0
:1026a40086e76343f3189b785f2b00d067e700232a
:1026b40006211a00200004f09dfc18226243394bc5
:1026c4009b181b7bdb0705d4334914236343f6189b
:1026d40060231ce73249f8e703200b689b09034297
:1026e40000d04ce7182161432e4b5b18197b14234f
:1026f4008a0802405c43012a0bd1114204d005230d
:1027040033553419112341e71d2333553419482314
:102714003ce72b2333553419612337e76343f71818
:102724001d00bb78652b11d0672b00d027e7200054
:10273400002103f051ff182363431a4ce418237b50
:10274400db0720d50b2373551a2331e7a0230a682e
:10275400db059a420ed10121200003f03dff6723df
:10276400220016492d2003f013fc14235c43662336
:10277400361945e70c226243114b9b181022997ab3
:102784000a439a72f1e71f237355502310e7c0469a
:102794000c010020840200201d48224bf56a000031
:1027a4000511082a2c010020255a224b255a082af3
:1027b400f95f000055740000a95400005579000029
:0427c40020010020d0
:020000040000fa
:1027c800f7b543024a025b0a520a4e0044000193dd
:1027d80000939446240ec50fdb00360ec90fd200b5
:1027e800ff2e01d1002a01d101204140a01ba9429e
:1027f80000d0a1e000282edd002e18d1002a00d13b
:102808004ae1411e00290ed101249b185a015bd5cb
:102818000134ff2c00d13de10122a4491a405b0894
:102828000b40134350e0ff2807d1ff244ce0ff2c56
:102838004ad08021c9040a4301001b2901dd012275
:1028480007e010002026c840711a8a40511e8a41ac
:1028580002439b18dae7002821d0002c0cd1002b6a
:1028680007d0c043002802d19b183400cee7ff2ec2
:1028780008d11300340027e0ff2efad08021c904c4
:1028880040420b431b2801dd0123ede719002024fa
:10289800c140201a8340581e83410b43e4e7611c62
:1028a800ff260f003740012f3fdc002c2bd1002bd7
:1028b80000d1eae0002a07d09b188022d2041342f4
:1028c80002d001247a4a13405a0704d00f221a4032
:1028d800042a00d004335a0105d50134ff2c00d155
:1028e800e1e0734a1340db08ff2c04d1002b02d02f
:1028f8008022d20313435b02e4b2e405580aed07d1
:1029080020432843febd002b00d1c0e03400002a3c
:10291800dad08023019adb031a4203d062461a42b6
:1029280000d10092009bdb007fe7ff2900d1b0e0d7
:102938009b185b080c00c7e7002826dd002e13d182
:10294800002a00d1a8e0411e002906d101249b1ac3
:102958005a01b9d59b019e097ae0ff2800d164e7a6
:102968001b2908dd01220ee0ff2cadd08021c9040f
:102978000a430100f4e710002026c840711a8a4073
:10298800511e8a4102439b1ae2e7002822d0002cfc
:102998000dd1002b08d0c043002803d1d31a34002e
:1029a8000d00d5e7ff2e08d11300340020e0ff2edc
:1029b800fad08024e404404223431b2801dd01238c
:1029c800ece71c002025c440281a8340581e834188
:1029d8002343e3e7ff20661c0640012e31dc002c70
:1029e80017d1002b06d11d00002a00d16ce7130077
:1029f8000d0069e7002a00d166e78026981af604d8
:102a0800304201d0d31af3e7031e00d05ce71d0063
:102a18005ae7002b04d1002a40d013000d0004e728
:102a28000400002a00d14fe78023019adb031a42f1
:102a380000d177e762461a4200d073e700920d0092
:102a480070e780209e1ac004064215d00d00d61ae1
:102a5800300004f077fa330005388340844210dcf4
:102a6800041b1a0020200134e240041ba3405e1e10
:102a7800b3410024134327e7002ee9d13300340083
:102a8800c5e7241a0a4803401ee713001ce7130091
:102a9800cbe60c00002317e7040015e780230400a9
:102aa8009b04150010e700231de7c046ffffff7dcc
:042ab800fffffffb22
:020000040000fa
:102abc00f7b504000d0003f0dbfd012836d12b0423
:102acc0034d41f216b045b0f2940002b00d184e010
:102adc00481e0e282ad804f087ff082a4174292999
:102aec002929292929292929570014236343a54a6f
:102afc00d3189b78402b0cd0482b13d01821614352
:102b0c00a14b5b181b7bdb060cd4200004f0fefcf5
:102b1c000ce0200004f0dafd00221a21200004f061
:102b2c001ff903e014235c431a231355f7bd142338
:102b3c006343944a9b5c022b0ad0052be5d11822e7
:102b4c006243914b9b181b7b5b069b0f032b02d1a3
:102b5c00200004f0bbfd00220321dfe714236343b4
:102b6c00884d5b5d1d2b01d0052bdfd1200002f0c1
:102b7c00ddff864b9842d9d114235c432d232b5572
:102b8c0065232d19ab70d1e7142363437d495b5c3e
:102b9c001d2b09d0052b07d01820102660437a4a2c
:102bac001218157b354004d014235c432a230b5593
:102bbc00bce70f2bbad1200004f088fd2a003100ad
:102bcc00ace7142363436f4a9d5c0d2d9dd120000f
:102bdc0004f07cfd27222900a0e7c81e0a28a5d8ee
:102bec0004f00cff0b003700a4ff6500850091007a
:102bfc00a4ffa4ffa7003700bb0014256543614f59
:102c0c007b1901939b78442b0fd1c8226243604bf4
:102c1c0020009b188022b033196812010a431a60f5
:102c2c0004f054fd45221c2178e74e2b05d12000e1
:102c3c0004f04cfd3f22192170e70226b3432d2be3
:102c4c0000d062e7200004f041fd019bee559e7020
:102c5c006ce7142565434b4f7e19b378442b00d099
:102c6c0053e7b37bdb071ed50c290ed11b232200a7
:102c7c004849642003f088f9474b24011c19a071c2
:102c8c001d23eb554823b37050e7042900d04de7c2
:102c9c00c82363433e4ce4188023b03422685b01a4
:102cac0013432360ece71923eb553f23ebe7142286
:102cbc006243344b9b189b78462b0fd1c82262433e
:102ccc00334b20009b188022b033196892010a43c1
:102cdc001a6004f0fbfc47221d211fe7572b00d084
:102cec0013e7200004f0f2fc5b22272116e71422e4
:102cfc006243244bd15c052900d006e70221d15454
:102d0c009b18997012e7142262431e4bd25c1d2a49
:102d1c0007d0182161431c4a5218127bd20600d4ea
:102d2c00f3e61422544320221a5554221b199a708c
:102d3c00fce61423634313495b5c1d2b09d0052b64
:102d4c0007d018226243104b9b181b7bdb0600d468
:102d5c00dbe614235c43242329e7182262430a4b45
:102d6c009b181422197b5443064bc90704d50e2219
:102d7c001a551b192822dae721221a551b19492248
:102d8c00d5e7c0460c0100202c0100208813000060
:0c2d9c008402002041790000fc000020af
:020000040000fa
:102da800f7b503010193914b0201d35c0400904de8
:102db800002b27d18d4b9b185b78012b2ad1182625
:102dc800370067432000ef1904f062f8387c04f0fc
:102dd8007bfa062302223b747b7d134000d1bb742f
:102de800002701236643ae193375707c777504f0ac
:102df8006bfa0623f774737404f08afdf77304f012
:102e080091fd07e0052b05d1784b02019b185b78f3
:102e1800022bd4d018236343eb185b7ddb073bd52b
:102e280014236343734ffa1892781f2a02d0db5d8c
:102e3800172b31d11826c8233100634361436e4aea
:102e48006918d318dc33c87c1b78984201d3002357
:102e58000b75c82363436643d218ae19db32b17cc5
:102e6800137899422cd30021200004f0ddf82000cb
:102e780002f0d4f80023b37405235c4a21015218e8
:102e8800537014232f226343fa54182301216343f8
:102e9800eb185a7d8a435a7518266643ae19f37b98
:102ea800002b0cd01b0714d50621200004f00ef8c7
:102eb800071e09d104f02cfdf77304f033fdf7bdac
:102ec800200003f0e5ffe0e7707c04f0fdf906233d
:102ed8007374182608226643ae19f37b934313d004
:102ee8000721200003f0f2ff071ee3d00021200095
:102ef80003f054fd04225521200004f03dfa307cf3
:102f080004f0e2f90623337414226243394b9b1808
:102f18009e7b01231e4047d10923344a2101535483
:102f2800130018255f18c82102226543304b6143fe
:102f38005d196b7d7e7013432f4a6b755218ab7cfd
:102f4800db3201331278dbb2ab749a4215d8200019
:102f580002f064f801212a7bae7405230a421ed0d0
:102f68000220224a210150547b7018230221634316
:102f78001f4ad3185a7d8a435a752000012103f04d
:102f88000dfd20000422552104f0e0f904f0c0fcf6
:102f980018236343164ce4180023e3738de70722d4
:102fa800124920010a54dfe718236343eb18da7b40
:102fb800120706d5da7c60210132da74200003f0aa
:102fc8003dfa182308216343eb18da7b8a4302d0c1
:102fd8009a7c01329a74200004f07af8182363432b
:102fe800ed1801236a7d13436b75c6e7fc000020ca
:0c2ff8002c0100200c01002084020020ad
:020000040000fa
:10300400f7b50c2545438d4b04005b199b7a0026cc
:103014005b074bd524224243894b9b185a8811b233
:10302400b14200dbf0e05a791b79120213431bb260
:1030340000936b461b880193df125b053ed504f0b9
:1030440065fb0f231f407f4b5d196b890835db053a
:103054001b0f9f422cd1009bb34229da1e22eb782e
:1030640093431a000a231343eb700c236343734df9
:10307400eb181b7a052b02d0093b012b0bd820003f
:1030840004f044fb04f046fc0c2300226343eb18d9
:103094001a7204f049fc04f03dfc0c2304225c4346
:1030a4002c19a37a9343a37204f03efc3000febdb6
:1030b4000321200003f02cfb0026d6e70f231f403a
:1030c40060d1604b5d19ea7a083593060ed50f215d
:1030d400d3061b0f0f330b40022b04d81e239a4335
:1030e40008231a43ea70200003f062fd0c236343b3
:1030f400544a2425d3182022d97a65430a43da7224
:1031040086234f4a5b00634352194f4855785288cf
:10311400c1181a526b469b880d714b80200002f037
:10312400ffff0c2211006143464b59184989c90518
:10313400090f8f425ed1009900295bda242286258b
:10314400022162433e4b6d009b185b8865435b0420
:103154005b0f9b009c463c4b5d190c206043394b34
:103164001818614511db010008314a888b78d205b3
:10317400db06120f1b0f9a4220d1200003f018fd2a
:10318400082672e704f0c2facbe701278368060039
:10319400db03db0d5a1cd205d20d4272807a120a6f
:1031a400b843024324206043b272254aeb18121834
:1031b40052181279c9195a71c9b2cee71e22cb78b6
:1031c4001f2593431a00042313430f22cb704b880b
:1031d400db051b0f0133134007221a405101827a89
:1031e4002a400a4301218272da08c37a8b431343cb
:1031f400c37261e71e2162439b18da7a8a43110085
:1032040008220a43da7257e70e4b5d19eb7a9906e6
:103214000dd51f210a40052a09d00f22db061b0ffa
:103224000f331340022b05d803f0c2fc10260223ef
:103234001e431ae703f0bcfcf9e7c0462001002056
:0c324400c8000020f0000020480100201d
:020000040000fa
:10325000f0b5040085b0002103f0f4f8002120004f
:1032600003f0c8fc01229a21200004f073f8082220
:103270006d49200004f06ef800226c49200004f033
:10328000e0fb40226a49200004f064f8002269490a
:10329000200004f0d6fb83226749200004f05af88e
:1032a00081226649200004f055f81421200004f022
:1032b000e3fb634a02ab024392b214212000da809e
:1032c0009f1d04f0c7fb802101220901200004f0aa
:1032d00057f810235b4a5c49200004f095f923015c
:1032e00001935a4b22019d18ab68287b1b0a0006ec
:1032f0001843574900f0b8f903f0bcff554982b2b2
:10330000200004f0a7fbab68287b1b0a00061843cb
:10331000514900f0a9f903f0adffc8268b2182b214
:1033200009012000664304f095fb4c49012220006e
:1033300004f010f84a4b9e190723f1690b400193e2
:10334000012b27d1082302aa1371142353710323dd
:10335000c9081940200003f041ff8021042209011f
:10336000200003f0f7ff0323f2690199d2081a4005
:103370003a802000d2b203f08ff80622eb792101c7
:1033800093433a8852001343eb7100232f4a8b5426
:1033900003236b70c825012303aa3249200004f0df
:1033a00033f902aa012305322f492000654304f0b6
:1033b0002bf90321200002f083f9294b2b495d19d9
:1033c0002b00da331a78200004f03bfb02ab9e1d81
:1033d0007d233200338026490123200004f014f9b4
:1033e000012332002349200004f00ef901212000be
:1033f00003f000fc6021200003f024f80722eb69b1
:103400001340012b05d10021200002f06fff05b011
:10341000f0bd18226243184b18499b18da88200027
:103420000023fef789faf2e7010800000610000009
:1034300041080000071000001108000015080000f6
:1034400003060000dc7a000022080000fc000020d7
:103450000000e0414e080000000016433f08000055
:1034600084020020170800004a0800001908000024
:10347000140800001c0800002c0100208813000024
:020000040000fa
:10348000f0b58bb0040001930c2363436c48160025
:10349000c318da7a0f009206d20f944639d132045b
:1034a00037d5862149006143664d4e536a181f2562
:1034b0001771997af601294001259972d97af60d8a
:1034c000a943d97280231b021e43019b5680002b07
:1034d00004d06346f105c90d8b4213dd0c23634311
:1034e000119ac5186a60109a0326c250200002f093
:1034f00019fe1e22eb7a93432a221343eb7230000b
:103500000bb0f0bd0199cd5cd11801334d719bb268
:10351000e0e70c2363434c4d1199ea185160109a6f
:103520005a5118226243494b9b18db7a1e22db0753
:1035300000d406224649200004f083fa0c23012f10
:1035400044d0002f04d0022f47d000273d0004e0d4
:103550006343ed186d7a6d076d0f6b021e43019a80
:1035600002ab3100200001f019f80722019039491f
:10357000200004f066fac021019b02aa4901200044
:1035800004f042f8019a3449200004f05afa8822e3
:103590003d432a433149200004f053fa0c2363438e
:1035a000294deb181b7a092b05d00a2b1cd11f23a0
:1035b0001e400d2e18d004f0aff90c235c430523f8
:1035c0002d192b7204f0b2f9022698e76343ed1827
:1035d0006d7a1027ad066d0fbfe76343eb189d684a
:1035e0002027ed036d0fb8e70c236343eb189b7a9c
:1035f0005b070dd524226243194b9b185e78002e81
:1036000006d1200001f07efe200003f0edff76e7fa
:10361000144e3100200004f026fac306f9d520002c
:103620000122104904f00dfa04f076f90c235c43f2
:1036300006232d192b7204f079f901265fe7c046a5
:10364000f000002048010020200100202c01002073
:10365000411a0000861a0000031a0000041a000034
:08366000c8000020051a00005b
:020000040000fa
:10366800f0b5c30f85b0440245000391640a2d0ede
:103678000293019330d0ff2d3ad08023e400db047d
:103688007f3d1c4300950027039b5e025d00db0f16
:10369800760a2d0e039334d0ff2d3cd080222800cb
:1036a8000025f600d20416437f38039b029a5a403d
:1036b800009b9c4684446346b80028430138591c43
:1036c8000e2833d804f092f92f2f8c7b7bad8c7b9e
:1036d800ad7b8c7a7a7a6b00002c0fd0200003f037
:1036e80031fc7626431f76429c40331a0093cae782
:1036f80000950327002cc7d10227c5e700940127ae
:10370800c2e7301e0dd003f01dfc431f9e407623f8
:103718005b42181ac9e728000325002ec5d10225e7
:10372800c3e70125c1e734002f0048e0b7b2a3b2d0
:10373800200c3c00350c47435c4368435d43230c35
:10374800ed195b199f4202d980256d024019a4b278
:103758001d042d19ac01671ebc41ad0e25431c0c80
:103768002418a4012c4323013dd5012360081c40e3
:1037780004430d007f35002d37dd630704d00f2388
:103788002340042b00d00434230103d580310d00dd
:10379800284b1c40e308fe2d19dd00230ce0802394
:1037a800db031c4204d01e4202d13400039b019368
:1037b8008023019adb032343ff2508e0029a022fa6
:1037c800ebd0032f31d000231d00012fd1d1580297
:1037d800edb2ed05400ad2072843104305b0f0bd0d
:1037e8003400039aa0e76146c3e70120451b1b2d5f
:1037f8001ddc23002020eb40451bac40611e8c41a2
:103808002343590704d00f211940042900d0043359
:103818008025ed041d40db08002dd8d000230125ac
:10382800d5e780240023e403c1e70192c0e7002321
:083838001d00cce7fffffff7c4
:020000040000fa
:1038400070b5040003f0d0fe534a5449200004f040
:1038500001f9534a5349200004f0fcf8d0215422c6
:103860004901200004f0edf8200003f063f94e4a0e
:103870004e49200004f0eef864224d49200004f087
:10388000e0f85e224b49200004f0dbf8d5210a2342
:10389000494a4901200003f0b7fe484a4849200040
:1038a00004f0d8f81823474a4749200003f0acfe3b
:1038b0001823464a4649200003f0a6fe0122454946
:1038c000200004f0bef818236343434d9222eb1806
:1038d000db7adb0701d5902252008023a0211b0256
:1038e0001a438901200004f0b5f810223b4920005a
:1038f00004f0a7f818236343ed18eb7a1e22db07c8
:1039000000d406222000364904f09bf82000102243
:10391000344903f01ffd20008822334904f091f858
:1039200020008022314904f08cf820000722304921
:1039300004f087f8200007222e4904f082f8902135
:1039400020000122890104f07cf8200004222a4989
:1039500004f077f820001022142103f0fbfc0c2265
:103960000020c025624325498b18505058601872ba
:10397000587a190028403f25c0b228405872f020dc
:103980009b7a03408b721e4b20009a1806231372f9
:1039900003f010f970bdc0463c1e00000b1a000079
:1039a0009f320000071a000080c40000421a000085
:1039b000461a0000491a0000647b00009fc80000fe
:1039c000b01a00007078000010280000587800003d
:1039d00030280000022800002c01002004280000ec
:1039e000411a000001080000821a0000871a000036
:1039f000811a0000861a0000891a000020010020a8
:043a0000f0000020b2
:020000040000fa
:103a0400f0b5c30f85b0440245000391640a2d0e3e
:103a1400029301930ad0ff2d38d08023e400db0405
:103a24007f3d1c432e00002300930ae0002c33d07a
:103a3400200003f089fa7626431f9c407642361a0a
:103a44000095039b5f025d00db0f7f0a2d0e03933d
:103a540025d0ff2d2dd0802228000025ff00d20480
:103a640017437f38039b029a361a5a40009b9800ea
:103a7400284301380e2824d803f0baff4e9d639dd5
:103a8400979d634e4e976379797954002e000323f2
:103a9400002cc9d10223c7e726000123c4e7381e3e
:103aa4000dd003f051fa431f9f4076235b42181a4e
:103ab400d8e728000325002fd4d10225d2e7012519
:103ac400d0e764017801844228d31a210123241aff
:103ad400012527005b006400002f01dba04201d810
:103ae400241a2b4301390029f3d1611e8c411c4354
:103af40031007f3100293cdd630704d00f232340cc
:103b0400042b00d00434230103d531002b4b803126
:103b14001c40e308fe2921dd002310e0013e1b21a7
:103b24000023d5e78023db031c4204d01f4202d1cb
:103b34003c00039b01938023019adb032343ff2171
:103b44000ce03c00039a0095009b022be4d0032b6d
:103b54002fd00023009819000128c9d15802c9b2f6
:103b6400c905400ad2070843104305b0f0bd029ac4
:103b7400eae70120411a1b291ddc23002020cb4049
:103b8400411a8c40611e8c412343590704d00f21f4
:103b94001940042900d004338021c9041940db08ea
:103ba4000029dbd000230121d8e780240023e4038b
:103bb400c0e70192bfe700231900cfe7fffffff73b
:020000040000fa
:103bc400f0b5040085b00e00634d0701002960d1f3
:103bd40010228421ed19eb7909011343eb710c22b6
:103be40003f0ccfb842140220901200003f0c6fb32
:103bf4003100200002f024fc29225849200003f05f
:103c040027ff8221012702abde1d320001230901b7
:103c1400200003f007fd2a7a2f710c2533782a40ff
:103c2400042a23d1072293430222822113433370af
:103c340032003b000901200003f0e4fc4849032260
:103c4400200003f09bfb3900200001f037fd200029
:103c5400602102f0f5fbc8236343424ce4181023af
:103c6400b03422689a43226005b0f0bd38229343f1
:103c7400102282211343337032003b0009012000db
:103c840003f0c0fc36492a00200003f077fb022130
:103c9400dae718234343344a324ed3180193db7cca
:103ca400002b0fd0019b587c03f010fbc823634307
:103cb400f318ca331888220000232c4902f068f94b
:103cc400019b58742649200003f0cbfec8236343ac
:103cd400f318da6907231340012b14d1ea199178f8
:103ce4008c46d1788c4502d9d2791a4210d1c306b8
:103cf4000ed46022ed19eb7993431a004023134349
:103d0400eb7108220de0eb199a78db789a42f0d235
:103d14006022ed19eb7993431a0020231343042204
:103d2400eb7184212000090103f012fbc8236343d3
:103d3400f318db699b0505d5842140220901200085
:103d440003f006fbc8235c4310233619b0363268ef
:103d54001343336088e7c046fc00002022080000bb
:103d640021080000840200202c010020e9780000d2
:020000040000fa
:103d7400544b01015b181421f0b5db79414385b044
:103d84000293514bd4785b189b7b610603933223d7
:103d94004343490f5b184d4d1b339b00eb1855787b
:103da400167892782d025b68354312042a43240660
:103db40014439a0f0094019200d06de025039a05f4
:103dc400ad0d920d18264643414ca719a4463c7be1
:103dd40001946406a40f62d1644634593226240344
:103de400a40d74433c810024954252d8a14250d082
:103df400c826471c7743354ef619f67a8e4248d3c7
:103e04000127039e76093e40b446029e3e40674623
:103e1400be432f4fbc46a6424dd0182646436644a7
:103e2400b688ae4264412500e4b2012d31d1182692
:103e34004643274d009f7351ad19a973c8214143cf
:103e4400224d69180e00ac363760b03180267f01f0
:103e540033d50f683e430e60990f1ad1182160269e
:103e64004143019f6144b7430f730a214a43c82168
:103e740048432d18322029001b039b0d5843c4319d
:103e84000a80023908805043124900f0f7fec03519
:103e94002880200005b0f0bd0022150092e7032c15
:103ea400a1d1c8264643094ca419ac34246814266d
:103eb4002403640d95e70124b9e70f68b7433e0076
:103ec400c9e7c046fc0000200c0100208402002049
:083ed4002c01002090d0030036
:020000040000fa
:103edc000c23f0b54343504f0400fb18d87a85b03f
:103eec00830618d5c006000f0238082813d803f033
:103efc007bfd0512303c1212837488000c2565433f
:103f0c007f190837fa785606f60f06d01e239a4307
:103f1c0014231a43fa7005b0f0bd200002f030fbf8
:103f2c008621490061433d4b02005b1819793c4bdb
:103f3c00200001933b4b00933300fff79bfa1e22aa
:103f4c00fb7893430622012800d008221343fb7010
:103f5c00e1e70c226243344b20009b180222997a31
:103f6c000a439a7202f020fed5e70c263500654311
:103f7c007d190835eb785a0605d51e229343142279
:103f8c001343eb70c7e7862040006043234f6988da
:103f9c003b185a889c46c905244b090f1a40cb0282
:103fac001a4313041a2251430393431dc25b5b183b
:103fbc0003991f480a436146097901901d48db1992
:103fcc0000902000fff756fa1e22eb78934301284d
:103fdc0001d13343d5e71026fbe70c2565437f1948
:103fec0008377b880121db051b0f06d01e22fb78ce
:103ffc0093431a001023a9e70321200002f084fb4d
:10400c0089e70c25200002f0cffd40226c433f19bc
:10401c00fb7a9343fb727ee7f000002048010020fe
:10402c0001000400e161000020010020ff87ffff78
:08403c000607080831550000d9
:020000040000fa
:10404400f0b50e2785b000236a46d4216f4413735c
:1040540053733b7003aa01234901040002f008fed4
:104064006b4601251b7b2b4254d00d222b006a4446
:104074004549200002f0fcfd2b003a004349200092
:1040840002f0f6fd6b460f265a7b3b786e441340d4
:10409400337032002b003c49200002f0ddfe327800
:1040a4003b4e2a4203d00c236343f3181d7293073b
:1040b40004d50c2303216343f3181972530704d561
:1040c4000c2302216343f3181972130704d50c233c
:1040d40004226343f3181a720c252b006343f3186c
:1040e4001b7a042b02d0200001f00af965437759aa
:1040f400002f0ad075196968080c0a0ac3b2000aad
:104104000090d2b2c9b22000b8470c236343f6181a
:10411400002333726b461b7b9b0732d50d220e2680
:1041240001236a441b4920006e4402f0a1fd0123cf
:1041340032001949200002f09bfd6b460f255a7b83
:1041440033786d4413402b702a0001231149200059
:1041540002f082fe2b787f2b02d9200002f008fdaa
:1041640008222b7813420cd00c216143084b200009
:104174005b189b1899780a4310218a439a7003f0bc
:10418400f1fb05b0f0bdc046811a0000861a00009c
:0c41940020010020821a0000871a0000a1
:020000040000fa
:1041a0008222f0b50f26c9b052000021040007a8f2
:1041b00003f09cfc02abf618002320003370fff7dd
:1041c0008dfe03f0a9fb142363433a4dea18517c9a
:1041d00000290fd01820604337490918097bc90707
:1041e0005dd50a2159551723937014230022634388
:1041f000eb185a7403f09afb200003f023f8002315
:1042000006aa0093310007ab200000f031fa0a2320
:1042100018422ad018216143274b5918069bc87aa7
:104220009a09032387081f4013409c460b7b039782
:104230000293039b0c27634535d9029b9200bb4335
:1042400017401f430f73200002f074fc14236343d4
:104250000699eb18da1dd9710b0a53700b0c937089
:104260000b0ed3702000fef729fc142363431822a1
:10427000ed186e2362436b700f4b9b181b7bdb07a3
:1042800005d53278069b07a92000fbf71bff327883
:10429000069b07a92000fef70df949b0f0bd1f21cc
:1042a00059555023a0e7029b3840bb43184308737d
:0c42b000c9e7c0460c0100202c010020d2
:020000040000fa
:1042bc00f0b585b001900292002901d0002805d1fb
:1042cc00002083423bd0029a824238d00720384cdf
:1042dc0065680540ac4609d0002902d00020ca0709
:1042ec002dd4002b02d00020da0728d40198451ecb
:1042fc00a841404201400298451ea8410425404275
:10430c000340a07b28401cd1268a35432582994244
:10431c0000d2581a6546002d02d05b0849084008a7
:10432c000125a67b2e42fcd000252e008e420ad100
:10433c0000281dd10223a27b1a42fcd0012005b01b
:10434c00f0bd208bdde76246771c002a0ad1019a6a
:10435c00965d26833e00002b13d10122a77b1742ca
:10436c00fbd0e3e7019a7600b65af605f60df0e7b6
:10437c006246002a03d1ff2222830138ebe70d4a63
:10438c00fae70422a77b1742fbd0278bbfb29d42d2
:10439c00ccd26a1c03926246002a03d1029a57556a
:1043ac00039dc3e7ff05029a6d00ff0daf52f7e7bf
:0843bc0000080042ff010000af
:020000040000fa
:1043c400f0b50e034d00430f6d0d760a1e436b1cb2
:1043d4005b05c90fc2005b0d012b52dd344bec1899
:1043e400fe2c5ddc002c27dc230017335bdb8023f1
:1043f4001e271b041e433f1b1f2f0cdc2d4b1000dc
:10440400ed18aa401300ae405a1e9341f8403343be
:104414000343002417e002204042041b3000e04024
:104424000024202f03d03400234bed18ac4022434a
:1044340013005a1e9341ebe78001431e9841520f2b
:104444000243f30013435a0704d00f221a40042aec
:1044540000d004335a0104d50134ff2c25d0174a67
:104464001340db08ff2c04d1002b02d08022d2039e
:1044740013435b02e4b2e405580ac9072043084326
:10448400f0bd13003343002d02d15a1e9341c0e7ff
:10449400ff24002bd7d08023f6009b043343d2e7bc
:1044a4000023ff24cfe70123b3e70023d9e7c04665
:1044b40080fcffff82fcffffa2fcfffffffffffb6e
:020000040000fa
:1044c400314b70b50500314c994230d014d80021dd
:1044d400042003f067f80021032003f063f80220ae
:1044e400002103f05ff8c8200e2368432418b83471
:1044f40022689a4313002fe0254b99422ed0254b76
:104504009942e4d10021042003f04cf80021032057
:1045140003f048f80220012103f044f8c8200623e0
:1045240068432418b83422689a43082313e001210d
:10453400042003f037f80021032003f033f80220ad
:10454400002103f02ff8c8200c2368432418b83442
:1045540022689a4302231343236070bd0021042080
:1045640003f020f80121032003f01cf802200021ad
:1045740003f018f8c8200a2368432418b8342268c2
:104584009a430423e7e7c04628230000840200205e
:08459400983a0000204e0000df
:020000040000fa
:10459c00f7b5802636020d0001921f000e401cd18b
:1045ac0034004b045b0f9b002a0a3d707a7001208b
:1045bc002a0403d50320be70360afe70019ac31874
:1045cc00dbb2002a42d1030000212218d2b293425e
:1045dc003fd101340019c0b2febd80240b0ce400a5
:1045ec009eb21c4027d10c2242431c4880184189a2
:1045fc00827ac905d206090f120f91421fd1d80534
:10460c00c00d1a2100f080fb002917d00320cbb27b
:10461c00023108408910cab2002804d004240132a7
:10462c00241ae4b2d2b20e48120328402d0c0243d5
:10463c002d041543b8e702240023b5e70c001a2318
:10464c00b2e711780130c0b2395401329842f8d136
:10465c00b9e70133dbb2f954b9e7c046f0000020ea
:04466c00ff8f0000bc
:020000040000fa
:10467000f7b50e00170004001d00fef7c3fc6a46e4
:10468000d080d1888446002909d10c2262432a4b6c
:104690009b189b7a9a0702d408001b071ed502229a
:1046a0006346134021d024226243244b9b185a783e
:1046b00032705a883a60002d08d0002007279e1ccf
:1046c000328812133a409200904208db089bcdb228
:1046d000002b02d02900200098472800febd1a18a0
:1046e00012792a54013080b2eae76046000716d5f5
:1046f000862040006043124a12181079307010680a
:104700003860971c002de1d03888c005c00d834269
:10471000dcdad0184079e85401339bb2f4e70c217d
:104720006143054b5b18987a042108338507cdd582
:10473000904398701021c9e720010020c800002094
:04474000480100200c
:020000040000fa
:10474400254b26491a6a114002220a431a6208229a
:10475400d9681142fcd0002221499a61214a516052
:1047640021499160517849b20029fbdb8020998c62
:10477400814399841021d8680842fcd01b490868f9
:10478400800e3f2800d11f2019498002096889053d
:10479400890d014399628221c90151801549d96269
:1047a400154999844021d8680842fcd0134b5360c2
:1047b40053785bb2002bfbdb114b53800a335380dd
:1047c40001335380053353801f220e4b5a61da6143
:1047d4000d4a1a627047c046000800400000ffcf2f
:1047e40001060100000c004001fa00002460800072
:1047f40028608000dc051400460200000007010068
:0c48040003400000000400400c01010013
:020000040000fa
:1048100010b50400062919d8080003f0ebf80417b6
:104820001718202e4b00002c10d101210e2002f071
:10483000bbfe80212448c90103f0a5f90e20220007
:10484000224902f011ff0e2003f028f910bd002cc0
:10485000fcd180221c4bd2009a619a60f6e70022bc
:104860002000082102f08bff2000082103f06af9e4
:104870000821200003f05af9e8e700220221200075
:1048800002f07dff0221200003f056f902212000f2
:1048900003f04cf90e4bc046013b9bb2002bfad102
:1048a000c82363430b4ce4180123b8342268134334
:1048b0002360cbe701211c2002f076fe8021024814
:1048c000490503f062f9c1e700440041517b000053
:0848d000102700008402002003
:020000040000fa
:1048d80070b5c82545432d4e04007519bc352b68a5
:1048e800002b28d001f0ecfe01283ad12b680342b6
:1048f80022d01822624383432b60254b9b18102239
:10490800d97a0a43da721b7b034206d014220221a9
:104918006243204bd1549b189970c82208216243e6
:10492800b618bc3633680b4222d08b430121336062
:10493800200002f099f870bd02221342edd0934393
:10494800182262432b60124b9b181b7b0342e4d056
:1049580014220d2162430f4bd1549b1823229a70c5
:10496800dbe7002310212b60200002f0affad4e728
:1049780010210b4203d08b4333600421d8e7202158
:104988000b42d8d08b433360d5e7c0468402002061
:084998002c0100200c0100209d
:020000040000fa
:1049a000f7b5182646432d4b05009e19f37a377b41
:1049b0009c4608231a003a43009262461a43c823d1
:1049c00007216b4326480192c218d469b0322140b6
:1049d00001292dd10b2166460e43394300910c214c
:1049e000146801962143c824116019006a1c5443bd
:1049f0000419227a7433203109189200181803f030
:104a000017f8237ae37218236b43144d0622ed182e
:104a10006b461b7801212b736b461b792a74eb7252
:104a200000232975eb73ab746b756a74eb74f7bd77
:104a30000c21c82417688f43190017606a1c54435f
:104a40000419627a74333c3109189200181802f084
:104a5000efff637ae3720023f380d4e72c01002098
:044a600084020020ac
:020000040000fa
:104a6400f7b5c8224243284b04009b18db699b0618
:104a74003ed502f04fff6a46002301ad961dd71cb8
:104a84002b8033803b70214b1b5d022b31d00223e2
:104a94002a001021200002f0ebf82b88db040fd54c
:104aa400022332001421200002f0e2f83388184a6d
:104ab40014211340338032000223200002f0ccf989
:104ac4002988144b194202d02000fdf761fb2b8882
:104ad400db0602d52000fff7b3fa2b889b0702d52b
:104ae400200000f02dfe0122084b1a5502f01cff95
:104af400f7bd01233a000e21200002f0b9f83b78fb
:104b0400022bf6d1c3e7c0468402002044010020f2
:084b1400ffefffff01060000a6
:020000040000fa
:104b1c00f7b52b4d0601aa199178d3780190745de5
:104b2c0057784b40202b31d013d8022b0bd8002bad
:104b3c0035d00123aa19d1790b43d371002c04d1a0
:104b4c000027012401e0082bf3d0ac55ad196f7090
:104b5c00f7bd402b1ad00ed8222bf6d80123aa1958
:104b6c00d17901980b43d37102f002ff022c05d1cd
:104b7c0000270324e9e7482bf0d0e6e7012ce4d129
:104b8c000027019802f086fe3c00dee7022cdcd008
:104b9c000124aa19d3790027a343d371d5e713793c
:104bac008b42cbd00029c9d10121d37901988b43f9
:104bbc00d37102f0ddfe012ce2d0022cc5d1d7e777
:044bcc00fc000020c9
:020000040000fa
:104bd000f0b54d006d0dac4685b01d035e00db0fda
:104be0000193264b0c030290240bc90f03922d0b4b
:104bf000760d9c4503d12700022307432dd11f4b7f
:104c00009e4203d12f000223174326d1002763467b
:104c1000bb4203d1204347424741ffb2002e01d19e
:104c20002a431dd0002f1fd0019b013b01200343cd
:104c300013e0b44501da4b1ef8e7ac4219d809d1ac
:104c4000029b039a934214d8029a03983b00824233
:104c5000f1d302e03b00ac42edd3180005b0f0bd4b
:104c60003300002ff9d104e0019b994201d1b445f2
:104c7000dfdd012349420b43efe7c046ff07000099
:104c8000002941d010b4041c4c40a446012300224a
:104c9000002900d54942002800d5404288422cd343
:104ca00001242407a14204d2814202d209011b013e
:104cb000f8e7e400a14204d2814202d249005b003d
:104cc000f8e7884201d3401a1a434c08a04202d3a5
:104cd000001b5c0822438c08a04202d3001b9c08e6
:104ce0002243cc08a04202d3001bdc082243002848
:104cf00003d01b0901d00909e3e7101c6446002c0e
:104d000000d5404210bc704701b5002002f040ffc2
:104d100002bdc0460029f7d003b5fff7b3ff0ebcb4
:104d20004243891a1847c046f7b51e035c00db0fe3
:104d30000093244b0d034f0084462d0b7f0dc90fac
:104d40000192360b640d9f4202d12b0003432bd1fd
:104d50001c4b9c4202d13300134325d100239f42b8
:104d600003d1284343424341dbb2002c01d13243fb
:104d70001dd0002b1fd000980138012103e0a7426d
:104d800003da0120013908430de0b54218d807d1f4
:104d9000019a944514d81800019b9c45f1d302e078
:104da0001800b542edd3febd02204042fbe72000d3
:104db000002bf8d104e0009a914201d1a742dedd38
:084dc0004842dae7ff0700009a
:020000040000fa
:104dc800012323490a7813430b704b785bb2002bfd
:104dd800fbdb00238b61dd231b06cb61c023102284
:104de8001b024b611b4b581cc27718002c300270f9
:104df8001800383002701800443002701800503023
:104e0800027018005c3002701800683002701800d8
:104e18007430027018008030027018008c300270f4
:104e28001800983002701800a4301a721a750270af
:104e38001a000e20b03210700f22bc331a700223f1
:104e48000a7813430b704b785bb2002bfbdb70477f
:084e58000018004000000020da
:020000040000fa
:104e60001d4a1e4bc2611e4a038202621d4a1e4b2e
:104e700042621e4a438282621d4a0023c2620200cd
:104e80000421d0328382c382038343838370c3703f
:104e9000036343638363d371030011700522d63328
:104ea0001a7073229a705522da7002221a71020067
:104eb0000323db32137053700e49113a93750300cc
:104ec00011800c22e1331a700922043b1a7020234e
:104ed000de3003707047c046390200001c3000000d
:104ee0002c9101082cd10200240400002cb10400f4
:084ef0002c4106001027000010
:020000040000fa
:104ef80070b54400240e631c4102dbb24d0ac60f94
:104f0800012b16dde0239b00e418090b6d07002335
:104f18000903080b190d09050143184864050140e8
:104f280064080c436400f607640834432800210031
:104f380070bd002c17d12100002de8d0280002f008
:104f480001f80a2809dc0b2329001b1ad9400300a1
:104f580015339d400a4c241ad9e7030029000b3b5e
:104f680099402500f6e7002d06d00c0b8021090397
:104f78006d072143034ccae72900fbe7ffff0f80b9
:084f880089030000ff0700008f
:020000040000fa
:104f90000300881e10b5042811d802f02bfd03165b
:104fa000262d3200012a0bd10021080002f0fcfa64
:104fb0001a4bc046c046013b9bb2002bf9d110bd35
:104fc0000121002002f0f0faf9e7012a06d1002bb6
:104fd000f5d18022124bd2005a61f0e7002beed1be
:104fe00080220f4bd2009a61e9e708211800012abc
:104ff00004d102f0a1fde2e70221f7e702f0a2fdf1
:10500000dde71100012a00d000211c2002f0ccfabb
:1050100080210348490502f0b8fdd0e77017000071
:045020000044004107
:020000040000fa
:10502400f8b5040002f076fc14221c496243200106
:1050340009181b4b0c209a18062360438b711949dd
:10504400137409180b7218216143d373164a302064
:105054005218137453740f260022144d144fd3b2f4
:105064009c46d300eb189979014010290fd1997906
:1050740031408c420bd1395d614508d09979814327
:105084009971991c8c4600215980634659800132dc
:10509400062ae4d102f048fcf8bdc046fc0000201a
:1050a4000c010020f00000202c01002054020020fc
:0450b400ed000020eb
:020000040000fa
:1050b800c8214143214a30b55218d269204b00011a
:1050c80052071cd01a18d1798c060bd59478002c6d
:1050d80008d1d5785479a54204d10421147a214302
:1050e80011721de04a061bd51a18d178002917d16c
:1050f800947851798c4213d1147a0821efe71a1861
:10510800d1798c0606d59478952c03d1d578547925
:10511800a542e2d04a0603d51a18d1789529e7d0d6
:105128000c211b181a7a0a4206d06020d9798143cb
:10513800d97102218a431a7230bdc0468402002008
:04514800fc00002047
:020000040000fa
:10514c0070b5060002f0e2fb214c35016219137aae
:10515c00d90708d55178012901d1032151700121ba
:10516c0062198b43137263191a7a920723d5db7970
:10517c00da0611d5300002f0edf963191b7a9b07a2
:10518c0019d5605d0a2811d802f02efc0d0d0d18f2
:10519c001c10101010101c0060221342edd03000b7
:1051ac00fff784ffe9e73000fff7b2fc0222641935
:1051bc00237a9343237202f0b3fb70bd032263196d
:1051cc005a70f3e7002263195a706255eee7c04635
:0451dc00fc000020b3
:020000040000fa
:1051e000f7b502f075fb214ce3699b0632d500232d
:1051f0000a201a00190000f0cdfe07001c4ec30063
:10520000f6180636302233781340202b1fd001ad1c
:1052100004232a000e21002002f006fa2b78022b2c
:105220001ed104232a001900002002f0fdf92b787a
:10523000242b15d16b78042b12d1ab78502b0fd1c6
:10524000eb78032b0cd12023e2691343e361380090
:1052500002f03ef82023e269134000d1e361f7bd7c
:105260002023e2699a43e261cce7c0468402002031
:0452700054020020c4
:020000040000fa
:10527400204a214b70b50021934203d219700133a7
:105284009342fbd1002503261c4803684168002b88
:1052940018d100292dd083680c30002b18d000239e
:1052a4000022845c9c5401328a42fad333000b40be
:1052b4005a1e9341890859188900401803684168a7
:1052c400002be6d082680c30002a07d10029dcd0fc
:1052d40059181d7001338b42fbd1d6e70029dfd169
:1052e40033000b405a1e934189085918890040180d
:1052f400e4e770bd84020020000000202c6600005a
:020000040000fa
:1053040070b52049040002f0acfb7023184010284b
:1053140011d020281cd000280cd10c200721444394
:1053240019480019427a53075b0f01330b408a4333
:105334001343437270bd0c200721444312480019e3
:10534400427a93065b0f01330b40db003821eee712
:105354000c2003223f2560430b4b1818836801007f
:10536400db035b0f01331a409401427a9b082a4005
:105374002243427201208a7a0340824313438b7290
:0c538400d8e7c046041a000020010020f9
:020000040000fa
:10539000f8b504000f00002101f054f81e4d26015d
:1053a000ab19012f1ed122221a71202206215a7117
:1053b000da798a43110004220a43da7102220121b8
:1053c000200001f069f80c22ad192b7a1340082b4c
:1053d00013d12021200001f035f80121200000f038
:1053e0006ff9f8bd48221a7140225a710622d97904
:1053f00091430a43da710322e1e7042b05d14021ee
:10540000200001f01ff80221e8e76021200001f0f0
:0c54100019f80321e2e7c046fc00002070
:020000040000fa
:10541c00002934d00123002210b488422cd301245b
:10542c002407a14204d2814202d209011b01f8e7f0
:10543c00e400a14204d2814202d249005b00f8e7a9
:10544c00884201d3401a1a434c08a04202d3001bd5
:10545c005c0822438c08a04202d3001b9c08224308
:10546c00cc08a04202d3001bdc082243002803d046
:10547c001b0901d00909e3e7101c10bc704701b5ea
:10548c00002002f07ffb02bd0029f8d003b5fff726
:0c549c00c1ff0ebc4243891a1847c046ed
:020000040000fa
:1054a8006022f8b51c4d0301ed18eb7918269343db
:1054b800eb7114230622c8214343184f4643fb18b7
:1054c800da734143164b04009e19164b727b5b1826
:1054d800dc331b7893421ad2002101f0a5fd20008d
:1054e800fff79cfd00212000fef768fb337b0526b3
:1054f800db0703d50021200000f0f4fe14235c43f1
:105508002f233b556e233f196e70bb70f8bd0132d7
:10551800727301f0ddfdf9e7fc0000200c010020aa
:085528002c0100208402002088
:020000040000fa
:10553000f7b50c2444431d4b1b19197a01292ed1b0
:105540001b4b1c1925006389a27adb05d2061b0fb1
:105550000835120f9a4225d00f2601333340072613
:105560001e4076010196a67a020037001f263740ba
:105570003e00019f1a203e43a672de08e37a8b4369
:105580003343e3720b49092300f004fd1e2220720d
:10559000eb7893431a000e231343eb70f7bd8b1e79
:1055a000012bfbd801f0b6f8f8e7c0462001002037
:0855b000f00000203d75000031
:020000040000fa
:1055b80030b51f24cdb20ab22c400123002a19dbd2
:1055c80009131ed12200093a9a4213d9102c11d876
:1055d800053a9a420ed91822424315488018c27ad1
:1055e800920709d51a00082c03d82432ff32e2406a
:1055f800d2439343180030bd073c63426341dbb29a
:10560800f8e7042c02d901230f2cf3d118224243c6
:1056180007488018c37a9b0701d5013cede70123b1
:10562800042ce7d01b232b40023b58424341e6e7ba
:045638002c01002021
:020000040000fa
:10563c00f8b5182343431c4e0d00f318df7ac8232a
:10564c00411c59431400194a5118ff0620d54343f5
:10565c00897a58332970d118154b0701db19db797e
:10566c00db071ad518234343f618fa23b6885b00d8
:10567c009e4212d1c823584320231218b03210680e
:10568c00984310602a782000920002f0cbf9f8bd04
:10569c004343097a20332970dde70a002b78210077
:1056ac0001f0ccfff3e7c0462c010020840200205f
:0456bc00fc000020ce
:020000040000fa
:1056c000f8b5012604000f00314214d00501164b35
:1056d0000435ed182a003300144901f095ff33001a
:1056e0002a001349200001f08fff33002a001149de
:1056f000200001f089ffbb0715d50b4b25010435b0
:10570000ed182a0001230c49200001f07dff012340
:105710002a000a49200001f077ff01232a000849e6
:10572000200001f071fff8bdfc0000201a08000005
:10573000120800001d0800001b08000013080000ec
:045740001e0800003f
:020000040000fa
:105744000023f0b585b003ad2b802a00022322216b
:10575400040001f08dfac8226243184b01269b18fd
:10576400dd33197801932b88cb4033421ed002ab32
:105774009f1d303133003a00200001f079fa3022c5
:105784003b88200093433b80019b197833008918a0
:105794003a0001f061fb18226243094b9b185a7dc1
:1057a400324203d10422d97b0a43da7302232a004a
:1057b4002221200001f050fb05b0f0bd840200203e
:0457c4002c01002094
:020000040000fa
:1057c800c823434370b51e4d0400ed182b00012279
:1057d800e03354211e7802f030f9200000226821bd
:1057e80002f034f920007122c02102f026f9dd35db
:1057f80020009122c12102f020f92a780125b54024
:105808002000adb2c22102f018f92a0020006a2156
:1058180002f01cf92a002000d02102f017f92a0012
:105828002000d22102f012f92a002000d42102f02f
:105838000df904225521200001f088fd70bdc046f5
:0458480084020020b6
:020000040000fa
:10584c0070b5041e38d0c317c4185c40c50f2000b7
:10585c0001f076fb9e231b1a962b0adc9622d21a99
:10586c0094406402dbb2db05600aed071843284361
:10587c0070bd992b09dd05222100121ad140b922e5
:10588c00d21a9440621e94410c4399212200c91ae9
:10589c00002900dd8a40140009490c40560704d049
:1058ac000f263240042a00d00434620102d59f2313
:1058bc000c401b1ae408d4e703000500d1e7c046ee
:0458cc00fffffffbe0
:020000040000fa
:1058d000f7b560221a4d0301ee180193f379040025
:1058e0009343f37118234343c820164a6043d318e7
:1058f000154a597b1218dc3212788a4218d20027d6
:1059000020005f73390000f0f1fc20003900fef741
:1059100059f91422052354432f2273700b4be25480
