:020000040000fa
:10000000f81f0020416000000f660000bf6700007d
:1000100000000000000000000000000000000000e0
:10002000000000000000000000000000bf590000b8
:100030000000000000000000bf590000bf59000090
:10004000bf590000bf590000bf590000bf59000050
:10005000c9690000bf590000bf590000bf59000026
:10006000bf590000bf590000bf5900000000000048
:1000700000000000e1710000bf590000bf590000fe
:10008000bf590000bf590000bf5900000000000028
:1000900000000000bf590000bf590000bf59000018
:0400a000bf59000044
:020000040000fa
:1000a400f8b5c046f8bc08bc9e46704739660000e7
:1000b400f8b5c046f8bc08bc9e46704711660000ff
:020000040000fa
:1000c400f0b500260d2791b004000391059231008c
:1000d40004931c2204ab09a81e7308960f2507f08d
:1000e40085fb04ab0e22ff180b2304a952186d18cc
:1000f400200039003b7013702e7007f0f5f92900c9
:10010400200007f0b1fa14236343c34d0293ee18a1
:1001140060233f787370002f0cd1029b5b5d002b32
:1001240008d0200004f072ff0c23f373029bb77015
:100134005f55f77214273b006343e85c11281ad813
:1001440007f0ecfa120041015300a400ba002d019b
:100154001900150186028201a401bb0119001900ce
:10016400d202e8021c035a036743ee19b378002b4a
:1001740003d0012b1ad011b0f0bd03223373b37b2b
:1001840020009343b37306f057fe18220c216243f8
:10019400a24b20009b185a788a43110008220a4374
:1001a4005a7006f08ffb0123b370e4e70d2304aa11
:1001b4009b181b78022bded10e2204a95218127848
:1001c400042ad8d10f2252181278002a01d1eb55f3
:1001d400eae70f23eb552c23b370182363438f4caa
:1001e400e41896235b00a380c5e73a006243af1886
:1001f400bb78022b12d0042bbdd100233b73fb72be
:100204000323bb700223ba7b85491343bb732200cb
:100214001323182005f092fdf873ace7f97a02294c
:100224000dd9b97bc8060ad5194205d00022092187
:10023400200007f0c3fa9ee70623ab549be709aa04
:1002440007a9200006f0d0f804ab1a7b0121002393
:10025400200006f0fdfc14231a006243aa18927bc6
:10026400920711d46f4e6343ed182b7b01332b732c
:100274000323ab7009ab00216b4a01960092020084
:10028400200003f09df976e7684eece7022367430c
:10029400ee19b27b20001343b3736b46039a198a99
:1002a40004f090fc012803d10423eb550a237be7d7
:1002b4000723eb55082377e76743ef19b8780a3823
:1002c400042800d957e707f01ffa0500300056ff4d
:1002d40013002000002303211a00200006f0b8fcbc
:1002e40014236343ed180c23514eab700023c2e773
:1002f4000e2322004f491c2005f020fd14235c43eb
:100304000c232c19e073a37035e7200006f0a2f942
:100314001e20002322004849ff3005f00ffd14235e
:100324005c432c19e0730b23ede718233226634357
:100334003a4a2000d2181389d1881b040b431b03ab
:100344009b0d5e4306f068fc864200d013e7200054
:1003540007f02cf8002306211a00200006f078fc90
:1003640014236343ed180c23344eab70bee767438c
:10037400ef19bb78082b00d0fde6bb7bdb070cd460
:100384002f4e002304211a00200006f061fc1423e0
:100394006343ed180923ab70a8e72a4ef1e76743de
:1003a400ed19ab780f2b00d0e5e60123aa7b2000e2
:1003b4001343ab731023ab7006f0a4fd002120009f
:1003c40005f094fed7e66743ef19bb78052b12d0ee
:1003d400072b00d0cfe63b7b322b07d8fb7a022bce
:1003e40013d91222bb7b1340102b0ed114235c4370
:1003f40006232b55bfe6072322000e49962005f05d
:100404009dfc0623f873bb70b5e614235c430223fa
:100414002b552c1977e7c0464c0100208c01002095
:10042400a55d000002040105896800000204082695
:10043400040d091345760000ed6f0000050f091344
:100444000c000826050f08263b006343ee18b2781b
:10045400132a06d0152a00d08de60b22ea5419235c
:10046400a2e6200006f0a2ff002320001a001900d3
:1004740005f0a4faf37a22000133f372cf4915236d
:100484001c2005f05bfcb770f07374e66743ee194b
:10049400b378162b05d0182b00d06ce60b23eb5544
:1004a400dde7200006f082ff18232200c3491c2048
:1004b40005f044fc1723f07376e66743ef19b87828
:1004c4001938082800d956e607f01ef90900220059
:1004d400370055fe4d0052007400a600b400200001
:1004e40007f00ef8002803d00021200007f06ef971
:1004f4002000002105f0cefd00232200b049b148c0
:1005040005f01cfc14235c432c19e0731a23fae64f
:10051400200006f081fb061e00d02ce6200006f029
:1005240045ff33002200a849232005f007fc1423cb
:100534005c432c19e0731b23e5e6200006f0e0ff82
:10054400002800d017e6200006f030ffc8201d2345
:1005540022009a49800005f0f1fb14235c432c1916
:10056400e0731c23cfe614235c431e232c19cae634
:100574000f2304aa9b181b78002b0ad0182262436d
:10058400924b9b189b7c002b03d00121200007f089
:100594001df92000012105f07dfd14200023220017
:1005a4008749ff3005f0cafb14235c432c19e07320
:1005b4001f23a8e6200006f02ffb854b0700984276
:1005c40000d0d8e5200006f0f1fe200006f054fa31
:1005d40018230a2663437d4a3900d3189a88029364
:1005e4007243012392b2200002f0caf90f2304aa35
:1005f4009b181b78002b18d0029b9b7c002b14d0db
:10060400002322007349300005f098fb14235c4357
:100614002c19e073202376e6200006f071ff0028f1
:1006240000d1a8e5200006f0c1fe14235c43212379
:100634002c1968e6220000236749684805f07efb10
:10064400142300225c432b1918742a559a7092e5de
:100654006743ef19b8782638052800d98be507f0e9
:1006640053f806001a008afd8afd3c003000200081
:1006740006f09cfe0021200007f0eff800230d2176
:100684001a00200006f0e4fa14236343ed1829232a
:10069400534eab702ae6200006f088fe01212000ac
:1006a40007f0dbf800230d211a00200006f06efd90
:1006b40014236343ed182923ab700023484e012112
:1006c400dae52a2322003d49182005f037fb1423dc
:1006d4005c432c19e073292315e614235c43092396
:1006e4002b552c1913230ee66743ed19ab78242bf5
:1006f40000d040e5200006f059fe200006f0e6ff99
:10070400002303211a00200006f0a2fa2523354e07
:10071400ab70ebe56743ee19b3782e2b22d02f2b69
:1007240029d02c2b00d026e518226243274b9b1896
:100734005b781b079b0f012b12d12b4b08930122d3
:1007440000230f21200006f021fd14236343ed183c
:100754006b7b264e01336b732d23ab7008abaee776
:10076400234bebe72f23220022491c2005f0e6fa55
:100774002d23f07318e51123eb55fce46b46059922
:100784001a8a2000039b05f089ff012811d1182241
:100794000c2162430d4b9b185a788a43110008229e
:1007a4000a435a70142300225c432b195a73022201
:1007b4004be714235c4311231be6c0464576000037
:1007c400ed6f00008a020000697100008c010020b6
:1007d4008813000059580000957300007c15000030
:1007e400082b091302020913018000ff0f2e1100c8
:1007f40001a000ffa55d0000182167434c430c21b4
:100804000e4bea191c196378507b8b43190014288a
:100814000cd908230b4363702023917b0b43937300
:10082400002353730223eb559370a4e404230b4376
:1008340063700f23eb552c23f6e7c0468c01002090
:020000040000fa
:10084400f7b50d0009036c00ed0f0095490a450f3b
:1008540029431d035e00c700d80f6b0a550f2b43b5
:10086400c14d640d760dd200ae4203d11d00844605
:10087400154302d101254540ac46009da01bac4563
:1008840000d036e1002861dd002e25d11d0015437e
:1008940000d196e2461e002e19d1ba18ba42a441dc
:1008a400c91864420919170001240b0200d4bee0e0
:1008b400ad4b01349c4200d180e2ac487b0801403e
:1008c400012007401f43c80707434908afe0a64d6e
:1008d400a84209d1a44caae0a34dac4200d1a6e0a1
:1008e400802506002d042b43382e2adc1f2e17dc0e
:1008f40020201d00801b8540ac4615000190f5406a
:10090400604605430198f3408240501e82411543de
:10091400ed195b18bd428941494259182f00c4e7bb
:1009240030001d002038c5400020202e03d0402078
:10093400861bb34018000243501e82411543002316
:10094400e6e71a4315006a1e9541f8e7002850d0df
:10095400002c14d10c003c4300d128e2c443002ce9
:1009640007d1bf189742a441c91864420919340039
:100974009be77d48864209d119001700aae77a4c03
:10098400a642f9d04442802000040143382c2bdcd9
:100994001f2c17dc2025281b01900800019de14035
:1009a400a840844638006546e0402843019daf4096
:1009b4007d1eaf413843871897429241c91852426d
:1009c4008918d4e720000d002038c54028000025f0
:1009d400202c03d040252c1ba1400d002f437d1e4d
:1009e400af4138430021e6e70f433800471eb841c2
:1009f400f8e7661c75056d0d012d00dd69e0080042
:100a04003843002c49d1002800d1d3e11800104309
:100a14000dd0ba18ba42b641c91880237642891952
:100a24001b041700194202d00124504b19407b07c4
:100a340009d00f233b40042b05d03b1dbb42bf41d3
:100a44007f42c9191f000b0206d5474b01349c4253
:100a540000d1c3e1454b1940434b4807ff083843d5
:100a6400c9089c4206d103000b4300d1b9e180239d
:100a74001b031943002709033b0d1b05090b1943ed
:100a84003b4b6405194064080c43009b6400d90780
:100a940064080c43210003b0f0bd002800d16be7cb
:100aa4001800104300d115e74807ff0807438020ca
:100ab400c9080003014207d0dc08044204d1d2086b
:100ac4005b0713431f002100780fc9000143ff0097
:100ad40000e7254ca64200d16fe1ba18c918ba4202
:100ae4009b415b42cb18df07520817435908340077
:100af4009de700285ddd002e3cd11d00154300d18b
:100b04005fe1461e002e0ed1ba1a9742bf41c91aa0
:100b14007f42c91b012417000b0200d487e7490256
:100b24004d0a3e00f9e0104da84200d1d2e6382e1d
:100b34003adc1f2e27dc20201d00801b8540ac469c
:100b440015000190f540604605430198f34082404a
:100b5400501e824115437d1bcb1aaf428941494245
:100b6400591a2f00d8e7c046ff070000ffff7fff98
:100b7400ffff0f809c4dac4200d158e780252d0427
:100b84002b430600d3e730001d002038c540002069
:100b9400202e03d04020861bb34018000243501e71
:100ba400824115430023d6e71a4315006a1e954176
:100bb400f8e700284dd0002c17d10c003c4300d19d
:100bc40001e1c443002c09d1d71bba429241591afe
:100bd40063465242891a340000939de78248864254
:100be4000ad119001700804c45e07f4ca642f8d08a
:100bf4004442802000040143382c25dc1f2c11dce6
:100c04002025281b00900800009de140a840050015
:100c14003800e0402843009daf407d1eaf4138437b
:100c2400171ad2e720000d002038c54028000025ff
:100c3400202c03d040252c1ba1400d002f437d1eea
:100c4400af4138430021ebe70f433800471eb8415a
:100c5400f8e7601c4005400d01284cdc18000d002d
:100c640010433d43002c24d1002d07d1071e00d191
:100c7400ade01900170063460093d8e6002800d1c0
:100c8400d5e6bd1aaf42b641c81a7642801b80260b
:100c94003604304206d0d71bba429241591a524206
:100ca400891ae8e72f00074300d190e001002f00e4
:100cb400bde6002d07d1071e00d18be01900634665
:100cc4001700009306e6002800d103e64807ff0852
:100cd40007438020c9080003014200d1f4e6dc0880
:100ce400044200d0f0e6d2085b0713431f006346ba
:100cf40021000093e8e6be1ab7428041cd1a404273
:100d04002d1a8020000405422dd0d61bb242ad41dd
:100d1400591a63466d424d1b0093002d29d02800bb
:100d240005f022ff0300083b1f2b27dc20223100a3
:100d34009e40d21a9d40d14037000d439c4232dc84
:100d44001c1b661c1f2e1edc20233a0029009b1b43
:100d54009940f2409f400a43791e8f412900f14097
:100d64001743002463e637002f43d6d139003c00f3
:100d74002ee0300005f0f8fe2030d3e735002838a7
:100d840085400027dae72a001f3ce2400023202e9a
:100d940003d040239e1b2b00b3401f437b1e9f4167
:100da40000211743dde71149e41a29403fe6190001
:100db40017009ce61900170039e60b4c00210f00c0
:100dc40035e6040033e619001700340053e7390010
:100dd40000972ce68021044cc903f9e700210f0099
:100de4003ae6190046e6c046ff070000ffff7fff12
:020000040000fa
:100df400f0b5050085b003f0d7ff06f003fcbd4e47
:100e04002c0133199a780292da781b7a03920193af
:100e140006f002fca05d092852d806f07ffc0a0007
:100e240053007700e4005100290150018101510071
:100e3400fe0134196778012f00d1a8e0002f0cd0ef
:100e4400032f3dd1ac49280006f08dfc011e37d19b
:100e54006070280006f0f8f932e00121280004f05f
:100e640047fb3900280005f00fff24236b43a34af6
:100e7400a3499b580322db081a40019218226a43b3
:100e8400a04b28009b180a229b885a433b0092b22d
:100e940001f076fd3900280005f0fef90322e3791c
:100ea4005b081340019a934202d0280005f01afc13
:100eb4002800602105f0f0f901232d0175196b70ec
:100ec40005b0f0bd37197a78002a11d0022af7d17b
:100ed4007023019919400b1ef2d1029903988142a3
:100ee40011d13b798b420cd10a2333550021b0e751
:100ef40002232a009620844904f020ff0123b871bc
:100f040095e00423f1e732557b70efe73319587805
:100f14000328d5d806f0eefb02283d48012128001d
:100f240005f0b8f8142000232a007849ff3004f0b3
:100f340005ff33199871029a5b7993420ed11022fe
:100f44007349280006f07cf801213319db790b4240
:100f540002d0280002f090ff34199ee010226c4960
:100f6400280006f057f8efe77023019a1a40102a78
:100f7400a6d12800341906f023fbe379db0711d549
:100f840000232a0063490a2004f0d8fea07102233a
:100f940027e00c23019a1a4200d191e7280006f0b9
:100fa4000ffb341903231ce033195b79029a0221e5
:100fb400934200d00321280004f09afa012128006a
:100fc40005f062fe18226a434e4b4d499b180a22d3
:100fd4009b8828005a43012392b201f0d1fc0423d8
:100fe400341963706ce737197b78012b21d0002bff
:100ff40012d0032b00d063e77023019a1a400192a8
:1010040000d05de7280006f0dbfa6b461b797b70a5
:101014006b461b79335553e7280003f0f7ff012390
:101024002a0039490a2004f089fe0223b8717b7032
:1010340046e70021280005f02df800232a00334953
:10104400354804f07bfe0c23019ab8711a4203d18f
:101054006023fa791a4209d00021280002f00cff1b
:1010640060223419e3799343e37190e70323dee7c5
:1010740034196178012912d0002902d0022991d0b3
:101084001ee718226a431f4b28009b18998005f01d
:10109400fbfd0121280004f02bfa0123a1e77023b2
:1010a400019a1a40131e00d00ae718216943154a11
:1010b400280052189288124901f062fc67e7371938
:1010c4007b78022b06d0032b09d0002b00d0f7e647
:1010d40003230ee705232a0010490a200ce7702396
:1010e400019a1a40102a00d0eae600237b700723f5
:1010f40090e7c0462c0100200808000038040020b6
:10110400881300008c010020e5760000ed6f0000dc
:1011140021080000915b00008a020000ad75000008
:1011240033195878042800d9cae606f0edfa050008
:10113400c9fe4600530071003319da79814f520712
:10114400920f1823022a28d0032a2ad0012a03d175
:101154005a226b43fb189a80029b039a934225d927
:1011640079491022280005f06bff02213419012669
:10117400280004f0bdf931002800667005f084fdf4
:1011840018230a226b43ff18bb8870495a4328006e
:1011940092b2330001f0f4fb92e66b439622fb1803
:1011a400d9e796226b435200fb18d4e76649102214
:1011b400280005f02fff0321d8e7280003f026ffbd
:1011c40003232a0062490a2004f0b8fd3419a071ef
:1011d400052306e77023019a1a4203d0012128004f
:1011e40006f032f80c23019a1a4204d16022331912
:1011f400d979114209d00021280002f03dfe602275
:101204003419e3799343e371e2e704225a7057e611
:101214000523335534190023e3e633195878042899
:1012240000d94de606f070fa0500410048004cfe76
:101234005b000021280005f027fd0021280005f0af
:101244002bf8242307276b43424a9b581f40012f46
:1012540028d10021280004f01dff16226a433e4bca
:1012640028009b18da799979082305f0fffe0422f7
:101274005521280005f0e4fe00223900280005f07d
:1012840035f80c23019a1a4205d13319da7960230f
:101294001a4200d160e660213219d3798b43d371ad
:1012a400002156e603220021e8e70c23019a1a42a2
:1012b40000d005e634196ae67021019b0b40191e23
:1012c40000d0fde5280005f05dfbfa2004232a0088
:1012d4001f49400004f032fd3419a07162e6242352
:1012e40007216b431b4a9a58114001291fd1d2068a
:1012f400920f280004f0faff162200236a431649cd
:10130400335589183419ca7928008979637005f02e
:10131400adfe04225521280005f07cfe2800602142
:1013240004f0baff0121280005f02cfbc8e50122d6
:101334000021280004f0daff052333550023341973
:101344006370ebe78c010020210800008813000083
:0c135400e576000038040020946f0000d3
:020000040000fa
:10136000f0b58bb0060004930400cb0f0d034800ca
:1013700000922d0b400d0393029346d0584b984298
:1013800067d08023720f1b04ed0013432b431f0013
:10139000544bf400c31800260193049b009a1d03cc
:1013a0005800db0f2d0b400d069361d04c4b98423b
:1013b00000d181e08023520f1b041343ed001d4335
:1013c000484a009b8218db00944600220698039945
:1013d0004140604604910199091ab0001043013858
:1013e00005910e2800d981e006f09af975004902ae
:1013f000ed0149023d024902ed01750075003d0213
:10140000ed01fc01fc01fc01e2012f00374327d074
:10141000002d13d0280005f0a9fb01000b391c2971
:1014200011dc02001d2337003400083a5b1a954096
:10143000df4094402f432c4b1b1aace7300005f0e3
:1014400095fb2030e9e70300283b9e40002437004d
:10145000f1e72e43371e07d02f00019003269ce7ab
:101460003c000197012698e734000190022694e79a
:10147000009b2b4327d0002d13d0280005f076fbce
:1014800001000b391c2911dc1d2302005b1a009995
:10149000083ad940009b954093400d43124a121ad6
:1014a00092e7100005f062fb2030e9e70300009da1
:1014b000283b9d400023f1e7009b2b4307d01300fe
:1014c0008446032282e71d009c4601227ee71d0020
:1014d000844602227ae700252c00014b4ee1c046eb
:1014e000ff07000001fcffff0dfcffffaf4204d827
:1014f00000d057e19c4200d254e1f9076208114341
:10150000e0070c0001907f082d021a0e2a431b02ef
:101510000293130c03936b4600921b8803993800c7
:10152000079303f0dbfe0600079b06900399380043
:101530005e4303f00fff250c09040d43069fae42e6
:1015400009d9009b013fed18ab4204d8ae4202d945
:10155000069fed18023fab1b03991800069303f09a
:10156000bdfe079e050046430399069803f0f2fe70
:10157000a4b209040c432a00a64208d9009b013af0
:10158000e418a34203d8a64201d9aa1ee4183b04da
:1015900002991343029a0904120c090c089206914d
:1015a000089d06989ab2a61b1c0c514360436a43df
:1015b0006c4312180d0caa18904202d980204002e8
:1015c0002418100c09041204090c04195218a6421c
:1015d00005d31f00a64227d10199914224d2029837
:1015e00001998446614401918142894100984942b0
:1015f000091876185f1eb04204d315d161460198d0
:10160000814211d8b44203d80ed101998a420bd934
:1016100002999f1e8c46019b634401938b429b4120
:1016200000995b425b18f618019b341b9b1a0993c7
:10163000099a019b93429b415b42e41a009ba3429f
:1016400000d1d2e00399200003f048fe079d060078
:1016500045430399200003f07dfe099b09041c0cff
:101660000c430196a5420cd93300013b0193009b2a
:10167000e418a34205d8a54203d9b31e0193009be9
:10168000e418641b0399200003f028fe079d060060
:1016900045430399200003f05dfe6b460a04998cd4
:1016a000330011438d4208d9009a013b89188a42c0
:1016b00003d88d4201d9b31e8918019a089c1204df
:1016c0001a43100c93b24d1b16000699069a41431b
:1016d0005a43634360435b18140ce318994202d9e0
:1016e000802149024018190c12041b04120c08181e
:1016f0009b18854204d3340085421bd1002b1bd09c
:10170000009a741e5519aa420fd8a84203d811d1c5
:10171000029a9a420bd2029ab41e5100914292410f
:10172000009e52429219ad180291854202d1029a4e
:10173000934201d001231c43059b564a9b18002b62
:1017400056dd620709d00f222240042a05d0221d4f
:10175000a242a44164423f191400fa0106d5802236
:10176000d20094464c4b1f40059b63444b4a934226
:1017700000dd88e0e40879070c43fd0800212d0313
:101780000a0d12052d0b1543454a5b0515405b08f4
:101790002b43049a5b00d2075b0813432000190017
:1017a0000bb0f0bd059a013a059200220192abe61a
:1017b0008022120317425ad0154258d12f001c0024
:1017c000069b029353e02f0016001c00069b049317
:1017d000022e58d0032e50d0012eadd1002425006a
:1017e0002300cbe7039b0493f2e701246442a3e7c1
:1017f0000122d21a382af1dc1f2a21dc2023200002
:101800009b1a39009c403d009940d040631e9c418a
:10181000d54001430c43630709d00f232340042b19
:1018200005d0231da342a44164422d191c0080232e
:101830001b042b402ad16907e4080c43ed089de7ff
:101840001f214942cb1a3900d9400b000021202a20
:1018500003d040218a1a390091400c43611e8c410b
:1018600000251c43d7e7802700243f0302948025ee
:10187000029b2d033d4304932fe6049ba1e7002523
:101880002c002b007ae70024250026e60025012302
:101890002c0073e7ff030000fffffffefe070000c0
:1018a000ffff0f80f0b58bb001920593ca0f0c03b8
:1018b0004b000600240b5b0d0492039245d0c64af0
:1018c000934265d08022410f12040a43e40014437e
:1018d000c24ac5009b1800270293059b019a1e036c
:1018e0005800db0f360b400d059360d0ba4b984281
:1018f00000d180e08023520f1b041343f6001e43e7
:10190000b64a019b8218db00944600220598049990
:10191000414001910299b800614410430791013898
:10192000013106910e2879d805f0fafe7400740092
:101930007b0171017101bc017b017101bc0171016d
:101940007b016f016f016f0164012500054326d003
:10195000002c13d0200005f009f901000b391c29d7
:1019600010dc1d2302005b1a31003500083a944058
:10197000d94095400c439a4b1b1aace705f0f6f89a
:101980002030eae703003400283b9c400025f2e7c2
:101990000500254307d00500029303279de72c008f
:1019a0000295012799e72c000293022795e7019bf6
:1019b000334327d0002e13d0300005f0d7f80100b4
:1019c0000b391c2911dc1d2302005b1a0199083a0e
:1019d000d940019b964093400e43814a121a93e7e7
:1019e000100005f0c3f82030e9e70300019e283b12
:1019f0009e400023f1e7019b334307d01300844648
:101a0000032283e71e009c4601227fe71e008446d6
:101a100002227be734001d001700f8e0190c9bb28e
:101a2000029119002a0c514318008c46029f02991a
:101a3000adb2684351436f4304916744010cc91927
:101a400003908c4506d9049f380080277f02bc464e
:101a500060440490684680890f0c090409180991b4
:101a6000310cb6b2039130003100bc46039f69438c
:101a700050437d437a432d180f0c7d19a84202d99b
:101a8000802040021218280c82182d0489b2059279
:101a90006a1808921800089962468c46029f210c29
:101aa000a4b260434b43674362449446029dff18cf
:101ab000020cd2194d43934202d980235b02ed18e8
:101ac0003700130c5b190293039b67434e435c433f
:101ad0005943a4193b0c120480b21c191018a642d9
:101ae00002d980235b02c918049b220463441e00b0
:101af000089bbfb29e42ad418619d2198642bf41b2
:101b00000298059b84466d42d218ab189c440393ff
:101b1000059b60469a429241039b5242ab429b41d5
:101b20005b427f421a43029b3818240c1219b842b8
:101b3000bf419c45a4417f4264423c431419641850
:101b4000c30d64021c43099b75021d43691e8d4130
:101b5000f60d354340020543e30167d501226b08ca
:101b600015401d43e307d4401d43069b1d4a9b18a7
:101b7000002b5edd6a0709d00f222a40042a05d017
:101b80002a1daa42ad416d4264191500e20106d535
:101b90008022d2009446144b1c40069b6344134a97
:101ba000934200dd8be06207ed081543e408002155
:101bb00024030a0d1205240b14430d4a5b0514403f
:101bc0005b082343019a5b00d2075b08134328009c
:101bd00019000bb0f0bdc046ff07000001fcffff7d
:101be0000dfcffffff030000fffffffefe070000ec
:101bf000ffff0f8080221203144257d0164255d1a6
:101c000034001d00059b039350e0049b0193022fb9
:101c100055d0032f51d0012fa7d100252c002b0028
:101c2000c5e71d00059b34000193f5e6079b06936d
:101c30009be70122d21a382aefdc1f2a20dc20235e
:101c400021009b1a28009d409940d0406b1e9d4169
:101c5000d44001430d436b0709d00f232b40042bc5
:101c600005d02b1dab42ad416d4264191d00802390
:101c70001b04234000d196e700240123250096e7aa
:101c80001f214942cb1a2100d9400023202a03d02a
:101c900040239a1a230093401d436b1e9d4100244c
:101ca0000d43d8e7802400252403039580231b03dc
:101cb0001c43039b0193034b79e7019ba3e700259a
:081cc0002c00f8e7ff0700000b
:020000040000fa
:101cc800f0b509278fb0059304abff180b230a243e
:101cd8003b7004abe4180500ff2304911c2200218b
:101ce80007a8237005f080fd22003900280005f0c0
:101cf800f9fb3b78c74e053b012b0ad814236b43ed
:101d0800f25c123a012a04d90021f218d172122287
:101d1800f254142423006b43f05c12380b2836d895
:101d280005f0fafc0c00190037004d007400a10002
:101d3800b100c000dc0037014f016601280005f042
:101d480079f8142341215d437219937b8b43937374
:101d5800132373551be0280004f05cffae4b010011
:101d6800984214d13b78072b11d118226a43ab4b08
:101d780028009b180a229b885a43012392b200f03c
:101d8800fdfd14235d43735530237519ab700fb0f7
:101d9800f0bd6c433419a378302bf8d1e37a022bc9
:101da80007d8d22040232a009d49ff3003f0c4ff02
:101db800e0731424312365437619b370e7e72300f1
:101dc8006b430393f7180023fb726b46049a998ab6
:101dd800280001f091ff2b00182253438f4ded1876
:101de800ab8969891b040b430bd1bb7bdb0704d58b
:101df800039bf2543923bb70c9e7039bf454302387
:101e0800f9e71623039ab3543223f4e76c433619df
:101e1800b378322b0ad0342bb9d140232a00804919
:101e2800182003f089ff3523f073c6e70023012249
:101e38000221280004f00aff18226a43774b9b18f6
:101e48005a8908339b881b04134307933323b370c1
:101e5800744b0193744b02000093002107ab2800d8
:101e680001f0acfb93e76c433619b378362b00d0fe
:101e78008de7fa2040232a006949400003f05cffff
:101e88003723f07399e76c433619b378382b00d0b1
:101e98007de7280005f034f80123b27b1343b373c0
:101ea80039238ae76c4303943419a778402f00d06c
:101eb8006de7280005f078faa37b28001f4300236c
:101ec800a7731a00190003f077fd1a23039ab35475
:101ed8004223a370e37a0133e37258e76c43341961
:101ee800a0784238032800d951e705f001fc021b0d
:101ef8002934142440236c433619b27b2800134339
:101f0800b37305f0fbfa002818d00021280005f06b
:101f18005bfc00232a004549232003f00dff4323df
:101f2800f0734ae7280005f0e9fa002800d02ee708
:101f38001424280005f038fa6543761944233ce751
:101f480014240023280065431a00190000f016fd28
:101f58007619452331e7280004f05cfe031e00d003
:101f680015e7182169432d4a2800521891880a223a
:101f78004a43294992b200f001fd280004f07afd95
:101f8800142340215d437219937b8b43937312236f
:101f9800dfe66c433619b378462b00d0f7e60b24fe
:101fa80004abe41807aa2100280005f0c5f80023af
:101fb80022780421280004f049fe4723b3701c4b03
:101fc80047e76c433619b3783a2b00d0dfe6280090
:101fd80005f0eaf90021280005f03dfc0023032163
:101fe8001a00280004f032fe3b23b370114b30e78f
:101ff8006c433619b3783c2b1ed03e2b00d0c6e676
:1020080040232a000649182003f096fe3f23f07368
:10201800d3e6c0464c010020881300008c01002044
:10202800a55d000016341d3c896800006971000038
:1020380018391d3c14301940280005f0b5f9002165
:10204800280005f008fc00230d211a00280004f0e0
:10205800fdfd3d23b370014bfbe6c0461d3e194014
:020000040000fa
:10206800f0b50127b84a0301d3181b7a87b00400da
:102078000e00019339423dd004ab5d1d2a003b00a0
:10208800b24904f08dfd2b787f2b05d93b002a003f
:10209800ae49200004f012fe2b789b070dd004aa4d
:1020a80002230632aa49200004f07afd04aa02237a
:1020b8000632a749200004f001fe0223019aa5492f
:1020c8001a43019204aa951d2a00200004f068fd15
:1020d80024236343a04a99580723220119402b88d7
:1020e800012900d0ade098498a18d9431b0adb437f
:1020f8009170d37073051fd504ab5d1d2a000123b1
:102108009649200004f04cfd2b785fb2db070bd515
:102118000c23019a9a43019218226243904b9b1810
:102128000822d97c0a43da7401232a008b4920004b
:1021380004f0c4fd002f01dbb3057ad504ab5d1da7
:102148002a0001238749200004f02afd18230127cb
:102158006343834ad3185b7822013b4002932b7870
:1021680000250392ab420cd17023019a29009a43af
:102178002000019205f066f8029bab4266d0750a12
:102188003d4004ab5f1d3e78012e14d1029b002b0d
:1021980000d06de06c4b22019b5c072b0bd120001b
:1021a80005f07efa002806d1019b31003343200058
:1021b800019305f047f83b78052b5bd1029b002b78
:1021c80011d17021604b22019a18137a0b40102b01
:1021d80000d1b4e05c4b21015b5c072b03d1537841
:1021e800012b00d0abe004ab9d1d00232a002b80ff
:1021f8005d490123200004f0d3fc2b889b060ad5f7
:1022080018226243564b9b181a7d002a03d10222da
:10221800d97c0a43da7404aa012305325349200001
:1022280004f0befc04aa012305325049200004f042
:1022380045fd454b24011c196b461b79237207b0d9
:10224800f0bd41498a1893701b0a52e73e4b2201a0
:102258009b5c029d072b00d093e7200005f020fa35
:10226800051e03d1019b3b4301938ae7029d88e742
:10227800029da0e7012db6d010221a40029206d086
:1022880018236343364ad318d97c0122c1e7202298
:1022980093430d2bbfd17023019a35499a4304ab60
:1022a8009d1d019202232a00200004f079fc288851
:1022b80003f0f6fb2f4a304bfff7f0fa224a2301ce
:1022c800944663449a680600187b120a0006104375
:1022d8000f0002f04dfe0b00020039003000fff73e
:1022e8003bf804f023fd80b22880242565431a4e6c
:1022f800322773190133db7f02999c46cbb26345c1
:1023080010d28a0052199219526801311203920da3
:102318007a439042f2d80133019adbb21b0113438e
:10232800dbb20193182262430d4b9b185b78db07e5
:1023380000d470e70021200004f084ff6be7012d32
:1023480000d068e74fe7c0462c01002003080000d2
:102358000408000006080000380400200a080000ed
:102368008c010020080800001f0800000908000070
:0c237800b2080000295c8fc2f5683840f4
:020000040000fa
:102384001423f7b51a004243b34e0400905d1f387e
:1023940009285ad805f0c2f94a0062008d009c0051
:1023a400c700ea0005010a002f0027016343f31860
:1023b4009b78532b49d1002310211a00200004f0ec
:1023c40047fc24236343a54a9b5807221340012b4f
:1023d4000fd0a34914236343f6185423b370a14bbd
:1023e40001910093002302001900200001f0e8f895
:1023f4002be09d49eee76343f3189b78552b24d1da
:10240400002304211a00200004f022fc2423634347
:10241400924a9b5807221340012b05d0904914235c
:102424006343f6185623d9e78f49f8e7200005f0ef
:1024340067f800280ad1182262438c4b9b189b7cb6
:10244400002b03d1200004f0cbfbf7bd14235c4325
:10245400202333554a233419a370f6e76343f7184e
:102464001d00bb784a2b0bd04c2beed1200005f07d
:1024740047f8002819d0212373554823bb70e4e79b
:10248400002303211a00200004f0e2fb1822624317
:10249400764b9b185b78db0705d47549142363439b
:1024a400f6184b239ae77349f8e7232373554f2310
:1024b400e4e76343f618b378482bc6d1132322000c
:1024c4006d49642003f03afc4923f073b370bce710
:1024d4006343f7181d00bb784d2b14d04e2bb4d199
:1024e400200005f00df80028afd1200004f05effb5
:1024f400182254435d4b1c196378db0710d5052360
:1025040073551023bae70021200005f05ff900237a
:1025140022005a49232003f011fc4e23f873ade73f
:1025240072553923aae76343f7181d00bb784f2b74
:102534000fd0502b00d088e7200004f0e1ff0028e2
:1025440000d182e7200004f031ff24237355512386
:1025540094e70121200005f039f9002322004849bd
:10256400962003f0ebfb5023f87387e76343f318db
:102574009b78512b00d068e7002306211a00200025
:1025840004f066fb18226243384b9b185b78db0728
:1025940005d4334914236343f61852231ee7324902
:1025a400f8e703250b689b092b4200d04de718215f
:1025b4000a0062432d4b9b185878142382082a4042
:1025c4005c43012a0ad1104204d00523335534193f
:1025d400102341e73155392334193de72623335578
:1025e4003419532338e76343f7181d00bb78572b7e
:1025f40011d0592b00d028e72000002103f044ff1c
:1026040018236343194ce4186378db0720d50b23a4
:102614007355192332e7a0230a68db059a420ed1c9
:102624000121200003f030ff5923220015492d20f9
:1026340003f084fb14235c435823361946e70c2229
:102644006243114b9b181022997a0a439a72f1e75c
:102654001a237355422311e74c010020380400204b
:1026640018391d3c89680000051008268c010020db
:10267400204c1d3c204c0826a55d0000697100001b
:0c26840059580000457600007401002049
:020000040000fa
:10269000f7b543024a025b0a520a4e004400019316
:1026a00000939446240ec50fdb00360ec90fd200ee
:1026b000ff2e01d1002a01d101204140a01ba942d7
:1026c00000d0a1e000282edd002e18d1002a00d174
:1026d0004ae1411e00290ed101249b185a015bd505
:1026e0000134ff2c00d13de10122a4491a405b08ce
:1026f0000b40134350e0ff2807d1ff244ce0ff2c90
:102700004ad08021c9040a4301001b2901dd0122ae
:1027100007e010002026c840711a8a40511e8a41e5
:1027200002439b18dae7002821d0002c0cd1002ba3
:1027300007d0c043002802d19b183400cee7ff2efb
:1027400008d11300340027e0ff2efad08021c904fd
:1027500040420b431b2801dd0123ede71900202433
:10276000c140201a8340581e83410b43e4e7611c9b
:10277000ff260f003740012f3fdc002c2bd1002b10
:1027800000d1eae0002a07d09b188022d20413422d
:1027900002d001247a4a13405a0704d00f221a406b
:1027a000042a00d004335a0105d50134ff2c00d18e
:1027b000e1e0734a1340db08ff2c04d1002b02d068
:1027c0008022d20313435b02e4b2e405580aed070a
:1027d00020432843febd002b00d1c0e03400002a76
:1027e000dad08023019adb031a4203d062461a42f0
:1027f00000d10092009bdb007fe7ff2900d1b0e011
:102800009b185b080c00c7e7002826dd002e13d1bb
:10281000002a00d1a8e0411e002906d101249b1afc
:102820005a01b9d59b019e097ae0ff2800d164e7df
:102830001b2908dd01220ee0ff2cadd08021c90448
:102840000a430100f4e710002026c840711a8a40ac
:10285000511e8a4102439b1ae2e7002822d0002c35
:102860000dd1002b08d0c043002803d1d31a340067
:102870000d00d5e7ff2e08d11300340020e0ff2e15
:10288000fad08024e404404223431b2801dd0123c5
:10289000ece71c002025c440281a8340581e8341c1
:1028a0002343e3e7ff20661c0640012e31dc002ca9
:1028b00017d1002b06d11d00002a00d16ce71300b0
:1028c0000d0069e7002a00d166e78026981af60411
:1028d000304201d0d31af3e7031e00d05ce71d009d
:1028e0005ae7002b04d1002a40d013000d0004e762
:1028f0000400002a00d14fe78023019adb031a422b
:1029000000d177e762461a4200d073e700920d00cb
:1029100070e780209e1ac004064215d00d00d61a1a
:10292000300004f023f9330005388340844210dc82
:10293000041b1a0020200134e240041ba3405e1e49
:10294000b3410024134327e7002ee9d133003400bc
:10295000c5e7241a0a4803401ee713001ce71300ca
:10296000cbe60c00002317e7040015e780230400e2
:102970009b04150010e700231de7c046ffffff7d05
:04298000fffffffb5b
:020000040000fa
:10298400f0b5040087b01e00029104f045f9964b9f
:10299400220103909b189a681d7b120a2d060021c0
:1029a4002000154303f0eeff002e59d0029b002bac
:1029b40056d0182666438d4b9e19337c002b09d0c4
:1029c400b07b04f0fbfa002322008949894803f014
:1029d400b5f9b073029803f065f8874a874b0f0086
:1029e4000600fef75dff864a864bfef7b7fc04f04f
:1029f4009ff980b203f01cf8291c00f0d3fe04f008
:102a040099fa04ab9880804a804b39003000fef775
:102a140047ff7b4a7b4bfef7a1fc04f089f980b2a7
:102a240003f006f8291c00f0bdfe04f083fa04aba1
:102a3400d88005aa04237649200004f06dfc032203
:102a44005521200004f0e6fa3d273a0020007149a0
:102a540004f077fe0121200003f094ff07b0f0bddd
:102a640003225521200004f0ebfa029b002b4ed0e8
:102a7400694b029a9a4256d0029803f013f85e4ac0
:102a8400664b00900191fef70bff5d4a5d4bfef72c
:102a940065fc01f01ffd291c00f084fe6049061c42
:102aa40000f080fe04f046fa0a2180b202f050fce5
:102ab40089b2301c042900d88de004f03bfa0130bf
:102ac400584a594b86b200980199fef7e9fe4c4ae0
:102ad4004c4bfef743fc01f0fdfc291c00f062fea8
:102ae4004f49051c00f05efe04f024fa0a2180b26e
:102af40002f02efc89b2281c04296fd904f01afaba
:102b040001300027029b85b2bb429ed03ee01822d2
:102b140001216243354b9b185f780f4061d0200040
:102b240004f092fb91e718226243304b9b185b78c8
:102b3400db0748d53d49281c00f034fe3849061c03
:102b440000f030fe04f0f6f90a2180b202f000fc35
:102b540089b2301c042938d904f0ecf90130344925
:102b640086b2281c00f01efe2d49051c00f01afe3a
:102b740004f0e0f90a2180b202f0eafb89b2281cd1
:102b8400042925d904f0d6f9013085b23200294947
:102b9400200004f0dffd039b029a0d27934200d826
:102ba40053e7182201216243104b9b185b780b42b8
:102bb40002d0200004f048fb2a001f49200004f042
:102bc400c9fd4d2741e71d49b5e704f0b3f9c6e750
:102bd40004f0b0f9d9e704f0adf971e704f0aaf90b
:102be4008fe70f0031e7c0462c0100208c01002044
:102bf4009575000010270000666666666666f23ffb
:102c0400295c8fc2f5683840333333333333eb3fb9
:102c1400b40800001f080000881300006666ee3f39
:102c240000002041cdccccccccccf03fa697424385
:102c340047516143b2080000b8080000064134431c
:020000040000fa
:102c4400f7b504000d0003f06ffc01280bd11f2120
:102c54006b045b0f2940002b00d16ce002293dd0ae
:102c640002d8012918d0f7bd032946d00f29fad17b
:102c7400142363438b481b5c182b08d0052b06d008
:102c840018216143884a52185278d2064bd514232e
:102c94005c4325230355e6e714236343814ad31891
:102ca4009b78312b0cd0392b13d0182161437e4be8
:102cb4005b185b78db060cd4200004f0b3fad2e78f
:102cc400200004f073fb00221521200003f098fe7d
:102cd400c9e714235c4315231355c4e71423634342
:102ce400704a9b5c022b04d0052be5d10022032102
:102cf400ebe7200004f05afbf8e714236343694d23
:102d04005b5d182b01d0052badd1200003f084ffaf
:102d1400664b9842a7d114235c4328232b55572391
:102d24002d19ab709fe70f2b9dd1200004f03efbc3
:102d340000221021c9e7c81e0a2800d993e704f02d
:102d4400e3fc0b002d0092ff4f006500710092ff21
:102d540092ff87002d009c0014252f006743514edd
:102d6400f31901939b78352b05d1200004f01efb49
:102d740036221721a9e73f2b05d1200004f016fbca
:102d840030222900a1e70225ab43292b94d120004e
:102d940004f00cfb019bbd559d7064e714231f00d8
:102da4006743404ef519aa78352a85d1aa7bd20704
:102db40013d50c290dd1162322003d49642002f0bd
:102dc400bdff3c4b24011c19a0711823bb553923aa
:102dd400a7e7042900d046e7f7e7bb553023a0e76f
:102de400142262432f4b9b189b78372b05d120006c
:102df40004f0dcfa3822182167e7492b00d05be79e
:102e0400200004f0d3fa4d2222215ee7142262430b
:102e1400244bd15c052900d04ee70221d1549b18e4
:102e2400997020e7142262431e4bd25c182a07d003
:102e3400182161431c4a52185278d20600d43be749
:102e4400142254431b221a5546221b199a700ae76e
:102e54001423634313495b5c182b09d0052b07d05b
:102e640018226243104b9b185b78db0600d423e7df
:102e740014235c431f230b55f5e6182262430a4bc7
:102e84009b18142259785443064bc90704d50e22c3
:102e94001a551b192422d9e71c221a551b193a2248
:102ea400d4e7c0464c0100208c01002088130000a8
:082eb400317600002c01002022
:020000040000fa
:102ebc00f0b5040085b0002103f0eaf900212000f0
:102ecc0003f05cfd01229a21200004f09ff80822f7
:102edc007c49200004f09af800227b49200004f081
:102eec002cfc40227949200004f090f8002278490b
:102efc00200004f022fc83227649200004f086f89e
:102f0c0081227549200004f081f81421200004f07e
:102f1c002ffc724a02ab024392b214212000da80d9
:102f2c0004f014fc802101220901200004f084f833
:102f3c0010236b4a6b49200004f0eaf9230101933a
:102f4c00694b22019d18ab68287b1b0a00061843ad
:102f5c00664900f023fc03f0e9ff654982b22000ca
:102f6c0004f0f4fbab68287b1b0a0006184361498c
:102f7c0000f014fc03f0daff8b2182b2090120006f
:102f8c0004f0e4fb01225c49200004f03ff8242308
:102f9c00072663430193019a584b03afd1580e4057
:102fac0069d0012e2bd108233b70142302aa537134
:102fbc000323c9081940200003f096fd8021042248
:102fcc000901200004f022f84c4b019a3100d25830
:102fdc000323d2081a4002abda802000d2b203f0ed
:102fec0081f90622eb792101934302aad28852007f
:102ffc001343eb7100233c4a8b5403236b70012366
:10300c003a003f49200004f083f902aa012305325b
:10301c003c49200004f07cf90321200002f0e2f985
:10302c0002223949200004f088fb02ab9d1d7d2350
:10303c002a002b8035490123200004f069f9012373
:10304c002a003349200004f063f90121200003f029
:10305c0095fc6021200003f01bf924236343274acd
:10306c009b5807221340012b1dd10021200003f097
:10307c000df805b0f0bd0c233b70142302aa3100ef
:10308c002000537104f012f901223100200003f0ea
:10309c0029f93100200003f027fd0523124a2101f4
:1030ac008b546e70abe7182262431a4b1a499b186b
:1030bc000a229b8820005a43002392b2fff75cfc43
:1030cc00d7e7c046010800000610000041080000c8
:1030dc00071000001108000015080000030600008e
:1030ec00e0770000220800002c0100200000e041e5
:1030fc004e080000000016433f0800003804002072
:10310c00170800004a080000190800001408000005
:0c311c001c0800008c010020881300003b
:020000040000fa
:10312800f7b5030101938e4b0201d35c04008d4d6a
:10313800002b28d18a4b9b185b78012b2bd11826a2
:103148003700200003f090fe00236743ef193b751a
:10315800b87b03f031ff0c23bb737b7d002b00d1c0
:103168003b74002701236643ae19b374f07b77756f
:1031780003f022ff0c237774f37304f041faf77419
:1031880004f048fa07e0052b05d1754b02019b189e
:103198005b78022bd3d018236343eb181b7d002bdd
:1031a8002ed014236343704ffa1892781e2a02d047
:1031b800db5d122b24d1182633006343eb185a7cad
:1031c800022a01d900229a746643ae19337c022b75
:1031d8002ad90021200003f055fd200001f014ff3a
:1031e8000023337405235e4a2101521853701423b7
:1031f8002a226343fa54182300226343eb181a75f2
:1032080018266643ae19f37c002b0cd01b0714d587
:103218000521200002f06af9071e09d104f0f0f92f
:10322800f77404f0f7f9f7bd200003f01dfee2e79c
:10323800f07b03f0c1fe0c23f373182308276343c4
:10324800ee18f37cbb4320d00621200002f04ef993
:103258000190002805d104f0d3f96b461b79f3746b
:10326800dfe716226243414b20009b18da799979ef
:103278003b0003f0f9fe04225521200003f0defe96
:10328800b07b03f099fe0c23b37314220127624329
:10329800354b9b189e7b3e4041d10923304a210182
:1032a800182553548c4613006543634401935e709c
:1032b8002c4b5d192b7c6f75db19dbb22b74022b41
:1032c80013d9200001f0a0fe6a782e7405233a4233
:1032d80023d00222224920010a54019a537018234c
:1032e8006343204ad31800225a75162262431f4ba3
:1032f80020009b18da799979002303f0b5fe2000a5
:103308000422552103f084fe04f07af9182363435c
:10331800144ce4180023e37483e70722dae7182340
:103328006343eb18da7c120706d55a7c6021013218
:103338005a74200002f0aeff182308216343eb18eb
:10334800da7c8a4302d01a7c01321a74200003f016
:103358003dfd18236343ed18eb7c2b75c5e7c0468c
:103368002c0100208c0100204c010020946f0000eb
:020000040000fa
:10337800f7b50c2545438d4b04005b199b7a002655
:103388005b074bd524224243894b9b185a8811b2bc
:10339800b14200dbf0e05a791b79120213431bb2e9
:1033a80000936b461b880193df125b053ed504f042
:1033b800c9f80f231f407f4b5d196b890835db0562
:1033c8001b0f9f422cd1009bb34229da1e22eb78b7
:1033d80093431a000a231343eb700c236343734d82
:1033e800eb181b7a052b02d0093b012b0bd82000c8
:1033f80004f0a8f804f004f90c2300226343eb1846
:103408001a7204f007f904f0fbf80c2304225c4359
:103418002c19a37a9343a37204f0fcf83000febd84
:103428000321200003f0a4f80026d6e70f231f404d
:1034380060d1604b5d19ea7a083593060ed50f21e5
:10344800d3061b0f0f330b40022b04d81e239a43bd
:1034580008231a43ea70200003f072fa0c2363432e
:10346800544a2425d3182022d97a65430a43da72ac
:1034780086234f4a5b00634352194f485578528858
:10348800c1181a526b469b880d714b80200002f0c0
:1034980019fd0c2211006143464b59184989c90589
:1034a800090f8f425ed1009900295bda2422862514
:1034b800022162433e4b6d009b185b8865435b04a9
:1034c8005b0f9b009c463c4b5d190c206043394bbd
:1034d8001818614511db010008314a888b78d2053c
:1034e800db06120f1b0f9a4220d1200003f028faa6
:1034f800082672e704f026f8cbe701278368060060
:10350800db03db0d5a1cd205d20d4272807a120af7
:10351800b843024324206043b272254aeb181218bc
:1035280052181279c9195a71c9b2cee71e22cb783e
:103538001f2593431a00042313430f22cb704b8893
:10354800db051b0f0133134007221a405101827a11
:103558002a400a4301218272da08c37a8b43134353
:10356800c37261e71e2162439b18da7a8a4311000d
:1035780008220a43da7257e70e4b5d19eb7a99066f
:103588000dd51f210a40052a09d00f22db061b0f83
:103598000f331340022b05d803f0d2f9102602236b
:1035a8001e431ae703f0ccf9f9e7c046740100207e
:0c35b800c800002014010020c001002009
:020000040000fa
:1035c400f0b58bb0040001930c2363436b481600e1
:1035d400c318da7a0f009206d20f944639d1320416
:1035e40037d5862149006143654d4e536a181f251e
:1035f4001771997af601294001259972d97af60d45
:10360400a943d97280231b021e43019b5680002bc1
:1036140004d06346f105c90d8b4213dd0c236343cb
:10362400119ac5186a60109a0326c250200002f04d
:103634004bfc1e22eb7a93432a221343eb72300095
:103644000bb0f0bd0199cd5cd11801334d719bb223
:10365400e0e70c2363434b4d1199ea185160109a2b
:103664005a5118236343484a9b5c1e22db0700d44b
:1036740006224649200004f064f80c23012f44d0ac
:10368400002f04d0022f47d000273d0004e06343fd
:10369400ed186d7a6d076d0f6b021e43019a02ab34
:1036a4003100200000f096ff0722019038492000e5
:1036b40004f047f8c021019b02aa4901200003f04d
:1036c4002bfe019a3349200004f03bf888223d4345
:1036d4002a433149200004f034f80c236343294d74
:1036e400eb181b7a092b05d00a2b1cd11f231e4073
:1036f4000d2e18d003f086ff0c235c4305232d19ef
:103704002b7203f089ff022699e76343ed186d7a63
:103714001027ad066d0fbfe76343eb189d682027a4
:10372400ed036d0fb8e70c236343eb189b7a5b073b
:103734000dd524226243194b9b185e78002e06d1c6
:10374400200001f03dfd200003f0d6fd77e7144e84
:103754003100200004f007f8c306f9d52000012247
:103764000f4903f0eeff03f04dff0c235c430623e7
:103774002d192b7203f050ff012660e7140100207d
:10378400c0010020740100208c010020411a0000b7
:10379400861a0000031a0000041a0000c800002062
:0437a400051a000002
:020000040000fa
:1037a800f0b5c30f85b0440245000391640a2d0e9d
:1037b8000293019330d0ff2d3ad08023e400db043c
:1037c8007f3d1c4300950027039b5e025d00db0fd5
:1037d800760a2d0e039334d0ff2d3cd0802228008a
:1037e8000025f600d20416437f38039b029a5a40fc
:1037f800009b9c4684446346b80028430138591c02
:103808000e2833d803f074ff2f2f8c7b7bad8c7b75
:10381800ad7b8c7a7a7a6b00002c0fd0200003f0f5
:10382800a1f97626431f76429c40331a0093cae7d3
:1038380000950327002cc7d10227c5e7009401276c
:10384800c2e7301e0dd003f08df9431f9e4076234a
:103858005b42181ac9e728000325002ec5d10225a6
:10386800c3e70125c1e734002f0048e0b7b2a3b28f
:10387800200c3c00350c47435c4368435d43230cf4
:10388800ed195b199f4202d980256d024019a4b237
:103898001d042d19ac01671ebc41ad0e25431c0c3f
:1038a8002418a4012c4323013dd5012360081c40a2
:1038b80004430d007f35002d37dd630704d00f2347
:1038c8002340042b00d00434230103d580310d009c
:1038d800284b1c40e308fe2d19dd00230ce0802353
:1038e800db031c4204d01e4202d13400039b019327
:1038f8008023019adb032343ff2508e0029a022f65
:10390800ebd0032f31d000231d00012fd1d1580255
:10391800edb2ed05400ad2072843104305b0f0bdcb
:103928003400039aa0e76146c3e70120451b1b2d1d
:103938001ddc23002020eb40451bac40611e8c4160
:103948002343590704d00f211940042900d0043318
:103958008025ed041d40db08002dd8d0002301256b
:10396800d5e780240023e403c1e70192c0e70023e0
:083978001d00cce7fffffff783
:020000040000fa
:1039800070b5040003f0bafc524a5349200003f01a
:10399000e3fe524a5249200003f0defed0215422b9
:1039a0004901200003f0cffe200002f08dff4d4ab8
:1039b0004d49200003f0d0fe64224c49200003f062
:1039c000c2fe5e224a49200003f0bdfed5210a2333
:1039d000484a4901200003f0a1fc474a474920001a
:1039e00003f0bafe1823464a4649200003f096fc2d
:1039f0001823454a4549200003f090fc0122444920
:103a0000200003f0a0fe18236343424d92225b5d29
:103a1000db0701d5902252008023a0211b021a430c
:103a20008901200003f098fe10223b49200003f09a
:103a30008afe18236343eb5c1e22db0700d40622b8
:103a40002000364903f07ffe20001022344903f0a5
:103a5000e3fa20008822334903f075fe200080221b
:103a6000314903f070fe20000722304903f06bfe5d
:103a7000200007222e4903f066fe9021200001223b
:103a8000890103f060fe200004222a4903f05bfe56
:103a900020001022142103f0bffa0c2002000025a0
:103aa000c026624324498b1855501d725d605d7ab3
:103ab000190035403f26edb235405d72f0259b7a06
:103ac0002b408b721d4b9b181872200002f03cff9c
:103ad00070bdc0463c1e00000b1a00009f32000063
:103ae000071a000080c40000421a0000461a0000b5
:103af000491a0000447800009fc80000b01a000076
:103b00007c7500001028000064750000302800005b
:103b1000022800008c01002004280000411a000047
:103b200001080000821a0000871a0000811a0000b4
:103b3000861a0000891a0000740100201401002078
:020000040000fa
:103b4000f0b5c30f85b0440245000391640a2d0e01
:103b5000029301930ad0ff2d38d08023e400db04c8
:103b60007f3d1c432e00002300930ae0002c33d03d
:103b7000200002f0fbff7626431f9c407642361a57
:103b80000095039b5f025d00db0f7f0a2d0e039300
:103b900025d0ff2d2dd0802228000025ff00d20443
:103ba00017437f38039b029a361a5a40009b9800ad
:103bb000284301380e2824d803f09efd4e9d639db6
:103bc000979d634e4e976379797954002e000323b5
:103bd000002cc9d10223c7e726000123c4e7381e01
:103be0000dd002f0c3ff431f9f4076235b42181a9b
:103bf000d8e728000325002fd4d10225d2e70125dc
:103c0000d0e764017801844228d31a210123241ac1
:103c1000012527005b006400002f01dba04201d8d2
:103c2000241a2b4301390029f3d1611e8c411c4316
:103c300031007f3100293cdd630704d00f2323408e
:103c4000042b00d00434230103d531002b4b8031e9
:103c50001c40e308fe2921dd002310e0013e1b216a
:103c60000023d5e78023db031c4204d01f4202d18e
:103c70003c00039b01938023019adb032343ff2134
:103c80000ce03c00039a0095009b022be4d0032b30
:103c90002fd00023009819000128c9d15802c9b2b9
:103ca000c905400ad2070843104305b0f0bd029a87
:103cb000eae70120411a1b291ddc23002020cb400c
:103cc000411a8c40611e8c412343590704d00f21b7
:103cd0001940042900d004338021c9041940db08ad
:103ce0000029dbd000230121d8e780240023e4034e
:103cf000c0e70192bfe700231900cfe7fffffff7fe
:020000040000fa
:103d0000f0b58fb006ac0aaf01900d000292002111
:103d10000e22200003f06cfd0e220021380003f07b
:103d200067fd2421019b524e594373180133db7ff9
:103d30006d040431180089193a006d0f039301f0e6
:103d4000cff822000299280001f0caf87b78019a86
:103d50009c46092353433a78634404926a000592cf
:103d600000229b00f61873689e059f0ab60d059900
:103d70008a421cd10132a3180493039b019a5b0071
:103d80000133e318039306ab5c1c09235a439446a2
:103d9000049b9c423cd02178029a8b009a5806ab37
:103da000970a5d1c039b9d4236d10234f0e7a15c6b
:103db000049881422ed3a1184978029d8800405969
:103dc000850a7d40ad0525d18005800db04221d307
:103dd000182201985c0842432648274d821880200b
:103de000800420409c022c402043013109070643f7
:103df0000e43d38099051b0c138163465681890db0
:103e0000360c013396819180d370019802f024fc26
:103e10000fb0f0bd0232aae763462e7814489b1912
:103e20009b00c3185b680235980a78408005b9d1b9
:103e300018208027019c950260430e4c5b082018d7
:103e40000d4cbf0425409405a40d254301313b4092
:103e50002b430d078021c90429430b434381c280b2
:103e60001b0c120c0136838184800281c670cce762
:0c3e7000380400208c01002000fc0f0032
:020000040000fa
:103e7c00f7b504000e00534d0701002956d110224e
:103e8c008421ed19eb7909011343eb710c2203f03a
:103e9c00d3f8842140220901200003f0cdf8310031
:103eac00200002f0f5f929224749200003f04efcce
:103ebc006b4682210127de1d3200012309012000ff
:103ecc0003f036fa2a7a2f710c2533782a40042a0b
:103edc0019d10722934302228221134333703200fb
:103eec003b000901200003f013fa3849032220009b
:103efc0003f0a2f83900200001f074fa60212000d0
:103f0c0002f0c6f9f7bd38229343102282211343e5
:103f1c00337032003b000901200003f0f9f92b4902
:103f2c002a00200003f088f80221e4e71826464313
:103f3c00274b9e19737c002b09d0f07b03f03af8c9
:103f4c00002322002349244801f0f4fef0731f499a
:103f5c00200003f004fc24236343204a9b580722cf
:103f6c001340012b13d1ea199678d1788e4202d9dd
:103f7c00d2791a4210d1c3060ed46022ed19eb7916
:103f8c0093431a0040231343eb7108220de0eb1905
:103f9c009a78db789a42f0d26022ed19eb79934350
:103fac001a00202313430422eb7184212000090101
:103fbc0003f02cf8842140220901200003f026f89c
:103fcc00a0e7c0462c0100202208000021080000b8
:103fdc008c0100201d750000102700003804002003
:020000040000fa
:103fec000c23f0b54343504f0400fb18d87a85b02e
:103ffc00830618d5c006000f0238082813d803f022
:10400c0075fb0512303c1212837488000c25654335
:10401c007f190837fa785606f60f06d01e239a43f6
:10402c0014231a43fa7005b0f0bd200002f000fa18
:10403c008621490061433d4b02005b1819793c4bca
:10404c00200001933b4b00933300fff7b5fa1e227f
:10405c00fb7893430622012800d008221343fb70ff
:10406c00e1e70c226243344b20009b180222997a20
:10407c000a439a7202f062fcd5e70c2635006543c0
:10408c007d190835eb785a0605d51e229343142268
:10409c001343eb70c7e7862040006043234f6988c9
:1040ac003b185a889c46c905244b090f1a40cb0271
:1040bc001a4313041a2251430393431dc25b5b182a
:1040cc0003991f480a436146097901901d48db1981
:1040dc0000902000fff770fa1e22eb789343012822
:1040ec0001d13343d5e71026fbe70c2565437f1937
:1040fc0008377b880121db051b0f06d01e22fb78bd
:10410c0093431a001023a9e70321200002f02efa92
:10411c0089e70c25200002f011fc40226c433f196a
:10412c00fb7a9343fb727ee714010020c001002050
:10413c0001000400e55f000074010020ff87ffff11
:08414c000c070808695300008c
:020000040000fa
:10415400f0b50e2785b000236a46d4216f4413734b
:1041640053733b7003aa01234901040002f01afdb2
:104174006b4601251b7b2b4254d00d222b006a4435
:104184004549200002f00efd2b003a00434920006f
:1041940002f008fd6b460f265a7b3b786e441340b1
:1041a400337032002b003c49200002f089fd327844
:1041b4003b4e2a4203d00c236343f3181d7293072a
:1041c40004d50c2303216343f3181972530704d550
:1041d4000c2302216343f3181972130704d50c232b
:1041e40004226343f3181a720c252b006343f3185b
:1041f4001b7a042b02d0200000f0e2ff65437759bc
:10420400002f0ad075196968080c0a0ac3b2000a9b
:104214000090d2b2c9b22000b8470c236343f61809
:10422400002333726b461b7b9b0732d50d220e266f
:1042340001236a441b4920006e4402f0b3fc0123ad
:1042440032001949200002f0adfc6b460f255a7b61
:1042540033786d4413402b702a0001231149200048
:1042640002f02efd2b787f2b02d9200002f04afbae
:1042740008222b7813420cd00c216143084b2000f8
:104284005b189b1899780a4310218a439a7003f0ab
:10429400e1f905b0f0bdc046811a0000861a00009d
:0c42a40074010020821a0000871a00003c
:020000040000fa
:1042b0008222f0b5c7b05200002104000f2605a8e5
:1042c00003f096fa002320006e443370fff78efe51
:1042d00003f09af9142363433b4dea18517c0029fb
:1042e0000fd018206043394909184978c9075cd5af
:1042f0000a21595516239370142300226343eb18a7
:104300005a7403f08bf9200002f0e6fd002304aaa2
:104310000093310005ab200000f0c8f90a231842d1
:1043200029d018226243294bd75c049bb9088c46dc
:10433000032160460840844624489b09821819409e
:104340000c208c4535d951789b00814303400b43a9
:104350005370200002f0b8fa142363430499eb1859
:10436000da1dd9710b0a53700b0c93700b0ed370be
:104370002000fef767fc142363431822ed18602326
:1043800062436b70114b9b185b783278db0714d556
:10439000049b05a92000fbf795fe3278049b05a934
:1043a0002000fdf7efff47b0f0bd1a215955422319
:1043b000a1e751783b008143c8e7049b05a9200091
:1043c000fdf782fce9e7c0464c0100208c0100208b
:020000040000fa
:1043d000f0b585b001900292002901d0002805d1e6
:1043e000002083423bd0029a824238d00720384cca
:1043f00065680540ac4609d0002902d00020ca07f4
:104400002dd4002b02d00020da0728d40198451eb5
:10441000a841404201400298451ea841042540425f
:104420000340a07b28401cd1268a3543258299422f
:1044300000d2581a6546002d02d05b084908400892
:104440000125a67b2e42fcd000252e008e420ad1eb
:1044500000281dd10223a27b1a42fcd0012005b006
:10446000f0bd208bdde76246771c002a0ad1019a55
:10447000965d26833e00002b13d10122a77b1742b5
:10448000fbd0e3e7019a7600b65af605f60df0e7a1
:104490006246002a03d1ff2222830138ebe70d4a4e
:1044a000fae70422a77b1742fbd0278bbfb29d42bd
:1044b000ccd26a1c03926246002a03d1029a575555
:1044c000039dc3e7ff05029a6d00ff0daf52f7e7aa
:0844d00000080042ff0100009a
:020000040000fa
:1044d800f0b50e034d00430f6d0d760a1e436b1c9d
:1044e8005b05c90fc2005b0d012b52dd344bec1884
:1044f800fe2c5ddc002c27dc230017335bdb8023dc
:104508001e271b041e433f1b1f2f0cdc2d4b1000c6
:10451800ed18aa401300ae405a1e9341f8403343a9
:104528000343002417e002204042041b3000e0400f
:104538000024202f03d03400234bed18ac40224335
:1045480013005a1e9341ebe78001431e9841520f16
:104558000243f30013435a0704d00f221a40042ad7
:1045680000d004335a0104d50134ff2c25d0174a52
:104578001340db08ff2c04d1002b02d08022d20389
:1045880013435b02e4b2e405580ac9072043084311
:10459800f0bd13003343002d02d15a1e9341c0e7ea
:1045a800ff24002bd7d08023f6009b043343d2e7a7
:1045b8000023ff24cfe70123b3e70023d9e7c04650
:1045c80080fcffff82fcffffa2fcfffffffffffb59
:020000040000fa
:1045d800f7b5802636020d0001921f000e401cd14f
:1045e80034004b045b0f9b002a0a3d707a7001204f
:1045f8002a0403d50320be70360afe70019ac31838
:10460800dbb2002a42d1030000212218d2b2934221
:104618003fd101340019c0b2febd80240b0ce40068
:104628009eb21c4027d10c2242431c488018418965
:10463800827ac905d206090f120f91421fd1d805f7
:10464800c00d1a2100f0b2fa002917d00320cbb20e
:10465800023108408910cab2002804d0042401326b
:10466800241ae4b2d2b20e48120328402d0c024399
:104678002d041543b8e702240023b5e70c001a23dc
:10468800b2e711780130c0b2395401329842f8d1fa
:10469800b9e70133dbb2f954b9e7c0461401002089
:0446a800ff8f000080
:020000040000fa
:1046ac00f7b50e00170004001d00fef75ffe6a460a
:1046bc00d080d1888446002909d10c2262432a4b30
:1046cc009b189b7a9a0702d408001b071ed502225e
:1046dc006346134021d024226243244b9b185a7802
:1046ec0032705a883a60002d08d0002007279e1c93
:1046fc00328812133a409200904208db089bcdb2ec
:10470c00002b02d02900200098472800febd1a1863
:10471c0012792a54013080b2eae76046000716d5b8
:10472c00862040006043124a1218107930701068cd
:10473c003860971c002de1d03888c005c00d83422d
:10474c00dcdad0184079e85401339bb2f4e70c2141
:10475c006143054b5b18987a042108338507cdd546
:10476c00904398701021c9e774010020c800002004
:04477c00c001002058
:020000040000fa
:10478000254b26491a6a114002220a431a6208225e
:10479000d9681142fcd0002221499a61214a516016
:1047a00021499160517849b20029fbdb8020998c26
:1047b000814399841021d8680842fcd01b490868bd
:1047c000800e3f2800d11f20194980020968890501
:1047d000890d014399628221c90151801549d9622d
:1047e000154999844021d8680842fcd0134b536086
:1047f00053785bb2002bfbdb114b53800a335380a1
:1048000001335380053353801f220e4b5a61da6106
:104810000d4a1a627047c046000800400000ffcff2
:1048200001060100000c004001fa00002460800035
:1048300028608000dc05140046020000000701002b
:0c484000034000000004004004010100df
:020000040000fa
:10484c00f0b52c4c0025270085b0280002f0a2fa08
:10485c0023689b0634d500230a201a00190001f0a6
:10486c0069fa254bc2009b18063300900193302245
:10487c00019b1b781340202b1fd003ae0423320066
:10488c000e21280002f054fd3378022b2cd1042386
:10489c0032001900280002f04bfd32782368242adc
:1048ac001ed17278042a1bd1b278502a18d1f27812
:1048bc00032a15d1202213432360009802f07afbbf
:1048cc000135edb22434022dbfd120233a681a40b1
:1048dc0000d13a607a6a134000d17b6205b0f0bd1a
:1048ec00202293432360c2e7202322689a431300bb
:0c48fc00f8e7c04638040020d803002074
:020000040000fa
:10490800f7b52b4d0601aa199178d3780190745dfb
:1049180057784b40202b31d013d8022b0bd8002bc3
:1049280035d00123aa19d1790b43d371002c04d1b6
:104938000027012401e0082bf3d0ac55ad196f70a6
:10494800f7bd402b1ad00ed8222bf6d80123aa196e
:10495800d17901980b43d37102f098fe022c05d14e
:1049680000270324e9e7482bf0d0e6e7012ce4d13f
:104978000027019802f022fe3c00dee7022cdcd082
:104988000124aa19d3790027a343d371d5e7137952
:104998008b42cbd00029c9d10121d37901988b430f
:1049a800d37102f073fe012ce2d0022cc5d1d7e7f7
:0449b8002c010020ae
:020000040000fa
:1049bc0024234343f7b5274a04009b589b063ed556
:1049cc0002f01cfe6a46002301ad961dd71c2b80fd
:1049dc0033803b70204b1b5d022b31d002232a000d
:1049ec001021200002f0daf82b88db040fd502230b
:1049fc0032001421200002f0d1f83388174a142118
:104a0c001340338032000223200002f055f929882c
:104a1c00134b194202d02000fdf720fb2b88db063c
:104a2c0002d52000fff790fb2b889b0702d52000b6
:104a3c0000f01afd0122084b1a5502f0e9fdf7bdf2
:104a4c0001233a000e21200002f0a8f83b78022b3b
:104a5c00f6d1c3e738040020bc010020ffefffffb4
:044a6c00010600003f
:020000040000fa
:104a7000f0b54d006d0dac4685b01d035e00db0f3b
:104a80000193264b0c030290240bc90f03922d0bac
:104a9000760d9c4503d12700022307432dd11f4be0
:104aa0009e4203d12f000223174326d100276346dd
:104ab000bb4203d1204347424741ffb2002e01d100
:104ac0002a431dd0002f1fd0019b013b012003432f
:104ad00013e0b44501da4b1ef8e7ac4219d809d10e
:104ae000029b039a934214d8029a03983b00824295
:104af000f1d302e03b00ac42edd3180005b0f0bdad
:104b00003300002ff9d104e0019b994201d1b44553
:104b1000dfdd012349420b43efe7c046ff070000fa
:104b2000002941d010b4041c4c40a44601230022ab
:104b3000002900d54942002800d5404288422cd3a4
:104b400001242407a14204d2814202d209011b019f
:104b5000f8e7e400a14204d2814202d249005b009e
:104b6000f8e7884201d3401a1a434c08a04202d306
:104b7000001b5c0822438c08a04202d3001b9c0847
:104b80002243cc08a04202d3001bdc0822430028a9
:104b900003d01b0901d00909e3e7101c6446002c6f
:104ba00000d5404210bc704701b5002002f05efe07
:104bb00002bdc0460029f7d003b5fff7b3ff0ebc16
:084bc0004243891a1847c04660
:020000040000fa
:104bc800f0b55378010010781b021843d478937815
:104bd80009224a436406640f1b040343601e12182b
:104be8001c4d9200aa1856681b03b2059b0d920d26
:104bf800002093422bd8844229d024224a43ad185e
:104c08000135ea7fa24222d314254d43124a0127d7
:104c180052190d01ac46114d927b6544ed7952094c
:104c28003a403d4095430e4a854211d018254d43e0
:104c38005519ad889d4240410300c0b2bb4206d120
:104c4800182359435118ce80360c0e81cc70f0bd14
:104c58003800f5e7380400204c0100202c01002022
:044c68008c0100209b
:020000040000fa
:104c6c00f7b51e035c00db0f0093244b0d034f00c4
:104c7c0084462d0b7f0dc90f0192360b640d9f429c
:104c8c0002d12b0003432bd11c4b9c4202d133008d
:104c9c00134325d100239f4203d128434342434170
:104cac00dbb2002c01d132431dd0002b1fd0009859
:104cbc000138012103e0a74203da0120013908433e
:104ccc000de0b54218d807d1019a944514d81800b4
:104cdc00019b9c45f1d302e01800b542edd3febd1b
:104cec0002204042fbe72000002bf8d104e0009aa0
:104cfc00914201d1a742dedd4842dae7ff0700000e
:020000040000fa
:104d0c00800400201c0000000000000000000020b7
:104d1c00c000000000000000c000002008000000df
:104d2c00000000009c0400200400000000000000b3
:104d3c003804002048000000010000003900000089
:104d4c002c9101082cd102002cb104002c4106003e
:104d5c000000000000000000000000000400000043
:104d6c00390000002c9101082cd102002cb1040058
:104d7c002c410600000000000000000000000000b4
:104d8c0004000000c80000207003000000000000b8
:104d9c0000000000000000002222222222222222f7
:020000040000fa
:104dac0070b5060002f02afc234c35016219137a07
:104dbc00d90708d55178012901d10321517001215e
:104dcc0062198b43137263191a7a920723d5db7914
:104ddc00da0611d5300002f057fa63191b7a9b07db
:104dec0019d5605d0a2811d802f080fc0d0d0d1844
:104dfc00201c1c1c1010200060221342edd030002f
:104e0c0000f04af9e9e73000fff778fd0222641957
:104e1c00237a9343237202f0fbfb70bd03226319c8
:104e2c005a70f3e7300000f057fcefe700226319eb
:0c4e3c005a706255eae7c0462c010020c5
:020000040000fa
:104e4800012323490a7813430b704b785bb2002b7c
:104e5800fbdb00238b61dd231b06cb61c023102203
:104e68001b024b611b4b581cc27718002c30027078
:104e780018003830027018004430027018005030a2
:104e8800027018005c300270180068300270180058
:104e98007430027018008030027018008c30027074
:104ea8001800983002701800a4301a721a7502702f
:104eb8001a000e20b03210700f22bc331a70022371
:104ec8000a7813430b704b785bb2002bfbdb7047ff
:084ed80000180040000000205a
:020000040000fa
:104ee000f0b517001600002585b000900291009ad9
:104ef000ebb20193934205d310000138431c37d025
:104f0000002232e0029aab00d45832232003800df5
:104f1000584300f08ffd1749fef712fe0a23039055
:104f2000a005800d584300f085fd1249fef708feec
:104f3000011c0398fef738fc01f0feff6b461b795d
:104f40003070737001350236d1e75300fc1802331c
:104f5000fb18257819788d4205d821706678597824
:104f600061701d705e700132d2b28242eddbc4e727
:084f700005b0f0bd00007a4419
:020000040000fa
:104f780070b54400240e631c4102dbb24d0ac60f13
:104f8800012b16dde0239b00e418090b6d070023b5
:104f98000903080b190d0905014318486405014068
:104fa80064080c436400f6076408344328002100b1
:104fb80070bd002c17d12100002de8d0280001f089
:104fc800d1fd0a2809dc0b2329001b1ad94003004c
:104fd80015339d400a4c241ad9e7030029000b3bde
:104fe80099402500f6e7002d06d00c0b8021090317
:104ff8006d072143034ccae72900fbe7ffff0f8039
:0850080089030000ff0700000e
:020000040000fa
:10501000f8b5040002f0f8fa142363431b4a1c4954
:10502000d2180c2320010918180060438b7119490c
:10503000d37309180b72182161431374164a302078
:1050400052189373d3730f260022144d144fd3b20a
:105050009c46d300eb189979014010290fd199791a
:1050600031408c420bd1395d614508d0997981433b
:105070009971991c8c4600215980634659800132f0
:105080000c2ae4d102f0cafaf8bdc0464c01002057
:105090002c010020140100208c010020d8030020e6
:0450a00011010020da
:020000040000fa
:1050a40024224243204b30b5d25800011f4b5207f3
:1050b4001cd01a18d1798c060bd59478002c08d101
:1050c400d5785479a54204d10421147a214311726c
:1050d4001de04a061bd51a18d178002917d19478f7
:1050e40051798c4213d1147a0821efe71a18d17937
:1050f4008c0606d59478952c03d1d5785479a5429d
:10510400e2d04a0603d51a18d1789529e7d00c21a4
:105114001b181a7a0a4206d06020d9798143d971c2
:1051240002218a431a7230bd380400202c01002069
:020000040000fa
:10513400204a214b70b50021934203d219700133e8
:105144009342fbd1002503261c4803684168002bc9
:1051540018d100292dd083680c30002b18d00023df
:105164000022845c9c5401328a42fad333000b40ff
:105174005a1e9341890859188900401803684168e8
:10518400002be6d082680c30002a07d10029dcd03d
:1051940059181d7001338b42fbd1d6e70029dfd1aa
:1051a40033000b405a1e934189085918890040184e
:1051b400e4e770bd38040020000000200c4d00001e
:020000040000fa
:1051c40070b52049040002f0cefa7023184010286c
:1051d40011d020281cd000280cd10c2007214443d6
:1051e40019480019427a53075b0f01330b408a4375
:1051f4001343437270bd0c20072144431248001925
:10520400427a93065b0f01330b40db003821eee753
:105214000c2003223f2560430b4b181883680100c0
:10522400db035b0f01331a409401427a9b082a4046
:105234002243427201208a7a0340824313438b72d1
:0c524400d8e7c046041a000074010020e6
:020000040000fa
:10525000f8b504000f00002101f020f81e4d2601d2
:10526000ab19012f1ed122221a71202206215a7158
:10527000da798a43110004220a43da7102220121f9
:10528000200001f035f80c22ad192b7a1340082bc1
:1052900013d12021200001f001f80121200000f0ad
:1052a000a7f8f8bd48221a7140225a710622d9790e
:1052b00091430a43da710322e1e7042b05d140212f
:1052c000200000f0ebff0221e8e76021200000f061
:0c52d000e5ff0321e2e7c0462c010020ae
:020000040000fa
:1052dc00002934d00123002210b488422cd301249d
:1052ec002407a14204d2814202d209011b01f8e732
:1052fc00e400a14204d2814202d249005b00f8e7eb
:10530c00884201d3401a1a434c08a04202d3001b16
:10531c005c0822438c08a04202d3001b9c08224349
:10532c00cc08a04202d3001bdc082243002803d087
:10533c001b0901d00909e3e7101c10bc704701b52b
:10534c00002002f08dfa02bd0029f8d003b5fff75a
:0c535c00c1ff0ebc4243891a1847c0462e
:020000040000fa
:10536800f7b50c2444431d4b1b19197a01292ed17a
:105378001b4b1c1925006389a27adb05d2061b0f7b
:105388000835120f9a4225d00f26013333400726dd
:105398001e4076010196a67a020037001f26374084
:1053a8003e00019f1a203e43a672de08e37a8b4333
:1053b8003343e3720b49092300f0befc1e2220721e
:1053c800eb7893431a000e231343eb70f7bd8b1e43
:1053d800012bfbd801f0ccf8f8e7c0467401002097
:0853e8001401002071720000a5
:020000040000fa
:1053f000f8b5012604000f00314214d00501164b08
:105400000435ed182a003300144901f087ff3300fa
:105410002a001349200001f081ff33002a001149be
:10542000200001f07bffbb0715d50b4b2501043590
:10543000ed182a0001230c49200001f06fff012321
:105440002a000a49200001f069ff01232a000849c7
:10545000200001f063fff8bd2c0100201a080000b5
:10546000120800001d0800001b08000013080000bf
:045470001e08000012
:020000040000fa
:105474000023f0b585b003ad2b802a00022322213e
:10548400040001f08ffb16226243174b01279b187f
:105494009a782b88d3403b421ed002ab30329e1dfb
:1054a40001923b0032000199200001f07bfb302285
:1054b400338801999343338032003b00200001f08c
:1054c400fffb18226243094b9b181a7d002a03d163
:1054d4000422d97c0a43da7402232a002221200000
:1054e40001f0eefb05b0f0bd946f00008c010020cc
:020000040000fa
:1054f40010b50400481e0023052805d802f0faf868
:10550400060d223303030123180010bd01220221da
:10551400200001f083ff0023f6e70022022120008f
:1055240001f07cff00220221200001f084ff002210
:105534000221200001f08cff01220221200001f051
:1055440094ffe8e700220221200001f067ff002217
:105554000221200001f06fff00220221200001f04f
:0c55640077ff0022e9e701f0adfdd4e77d
:020000040000fa
:1055700070b501f0b3fe040002f05ff92040012491
:10558000194d044003d120232a689a432a60002041
:1055900002f030f8002c03d120236a6a9a436a6231
:1055a000012002f027f801f0b7fdfff74ff900f0f6
:1055b00095ff02f029f82b689b0605d5002000f026
:1055c00055fc002000f050f86b6a9b0605d50120c1
:1055d00000f04cfc012000f047f801f031fa02f035
:0c55e0001df8200070bdc04638040020fb
:020000040000fa
:1055ec0010b51f240ab20c400123002a19db091341
:1055fc001bd119001a000f2c02d8164ae240d243d4
:10560c0001230a420dd0102c0bd818225043124af9
:10561c00825c920707d5082c03d0053c634263419a
:10562c00dbb2180010bd073cf8e7042c02d90123ab
:10563c000f2cf6d1182302225843074bc35c13429c
:10564c0001d0013ceae7a31e9343dbb2584243412d
:0c565c00e6e7c04604c600008c010020f8
:020000040000fa
:1056680016234343f7b51c4d0400595dff2903d0a9
:10567800eb185a7802f01ef816236343eb181979d1
:10568800ff2903d05a79200002f014f81623634347
:10569800eb189f79db790193ff2f04d01a003900aa
:1056a800200002f007f8162363431e000b33083668
:1056b800ae19ed183178ff2903d0f278200001f0f7
:1056c800f9ff0136ae42f5d139000023019a2000d6
:0c56d80001f0cafcf7bdc046946f000052
:020000040000fa
:1056e400f7b51d4c030101931e5de3189a785d78ac
:1056f400db7807005340012b05d0002b1bd0052b72
:1057040001d0152b12d1380000f01afe062e09d153
:10571400380001f055ff0021380001f0b5fa0025ea
:10572400062603e0072ef6d1012df1d1019be654a4
:10573400e4186570f7bd002af8d101f0a9ff062e20
:1057440004d1380001f03cff0225efe7072eedd12c
:0c575400012debd1f8e7c0462c0100202d
:020000040000fa
:10576000f8b51627040047431b4d012254217e5de6
:1057700001f0e9ff20000022682101f0edff200088
:105780007122c02101f0dfffed1920009122c1211b
:1057900001f0d9ffaa780125b5402000adb2c221a1
:1057a00001f0d1ff2a0020006a2101f0d5ff2a0074
:1057b0002000d02101f0d0ff2a002000d22101f0ea
:1057c000cbff2a002000d42101f0c6ff042255217e
:0c57d000200001f021fcf8bd946f0000e7
:020000040000fa
:1057dc008446101c62468c46191c634600e0c04689
:1057ec001fb5fff73ff9002801d40021c8421fbda7
:1057fc0010b500f0fff94042013010bd10b5fff7b5
:10580c0031f9002801db002010bd012010bdc0467d
:10581c0010b5fff727f9002801dd002010bd01208d
:10582c0010bdc04610b5fff71bfa002801dc0020a4
:10583c0010bd012010bdc04610b5fff711fa0028ad
:0c584c0001da002010bd012010bdc04694
:020000040000fa
:105858006022f8b5194d0301ed18eb79182693432a
:10586800eb7114230c224343154f4643fb18da739c
:10587800144b04009e19b378032b1ad9002101f0a8
:1058880001fa2000fff7c0fb00212000fef7f2fa22
:1058980073780526db0703d50021200000f0f8fb0c
:1058a80014235c432a233b5560233f196e70bb7059
:1058b800f8bd0133b37001f089faf9e72c01002033
:0858c8004c0100208c010020be
:020000040000fa
:1058d000f0b54a0245024600c30f48006d0a360e75
:1058e000520a000ec90fff2e01d1002d25d1ff282d
:1058f00001d1002a21d10024a64202d16c426c4180
:10590000e4b2002801d1002a1ad0002c05d18b4224
:1059100001d1864205dd5b4206e0012001390843e2
:10592000f0bd864203da013b01201843f8e79542b7
:10593000f1d820009542f6d3f2e702204042efe78b
