:10000000501000200901000005010000050100005A
:1000100000000000000000000000000000000000E0
:1000200000000000000000000000000005010000CA
:1000300000000000000000000501000005010000B4
:100040000501000005010000050100000501000098
:100050003154000005010000050100000501000009
:100060000501000005010000050100000501000078
:10007000050100007D5E0000050100000501000093
:100080000501000005010000050100000501000058
:100090000501000005010000050100000501000048
:1000A0000501000010B5064C2378002B07D1054B45
:1000B000002B02D0044800E000BF0123237010BDD4
:1000C0007C0400200000000030880000084B10B5C0
:1000D000002B03D00749084800E000BF0748036829
:1000E000002B00D110BD064B002BFBD09847F9E741
:1000F00000000000800400203088000030880000EC
:1001000000000000FEE700001148124970B5884267
:1001100004D00023104CCA18A24213D300210F4B65
:100120000F4A934212D3FF210E4B0F4A8B43936029
:1001300080230E4A51680B4353600D4B98470D4B7B
:100140009847FEE7C55804331560E4E702C3E8E7C3
:1001500030880000000000207C0400207C04002087
:100160004C0800200000000000ED00E000400041CD
:1001700029840000515500007047000070B500222E
:100180000C253020084C2B005343E318197A013218
:1001900081431972197AC9B21972092AF3D1034B32
:1001A0009847C0B270BDC046BC070020955E0000F5
:1001B000F7B500243027144E009001930C256543B9
:1001C00075192B7AE0B23B4215D10C256B466C4376
:1001D0001B883353361971600F216B460A40327207
:1001E00030221B797372337A934333721023327A3D
:1001F00013433372FEBD2D7A3D40202DE5D00134EE
:10020000092CDBD12000F5E7BC07002013B50B4B10
:10021000040001A89847082C0CD80C203022444335
:1002200007480019037A93430372037ADBB203721F
:100230000023436001A8034B984713BD45580000B5
:10024000BC07002061580000F7B51D4B040001A851
:1002500098471821092361431A4A1B485218D37141
:1002600013721A4A26011A4D80195218AD190372D9
:10027000537493740C26002230200F27AB71154D58
:10028000D3B29C4633005343EB18197A014010292E
:100290000FD1197A39408C420BD10F49095D614564
:1002A00007D0197A81431972197AC9B219720021DB
:1002B00059600132092AE3D101A8084B9847F7BDDC
:1002C000455800002C0500200C0500207405002076
:1002D0009C040020BC070020070500206158000096
:1002E000F7B5174B01A89847164C00252700302674
:1002F0000C226A43BA18137A3340102B17D1238883
:10030000013B9BB22380002B11D16368002B04D0EA
:10031000107A0F22617A104098470C236B43FB1828
:100320001A7AB2431A722022197A0A431A720135D4
:100330000C34092DDCD101A8034B9847F7BDC0460A
:1003400045580000BC070020615800000123094AFD
:1003500070B51354084A04001354084D02000023DA
:1003600007490848A8470022074B1855074B1A7041
:1003700070BDC04605050020A4050020B1010000A5
:1003800079510000983A000007050020040500207C
:1003900070B50020074EB047074D0020A847074C16
:1003A0000020A0470120B0470120A8470120A04716
:1003B00070BDC0464D030000BD1B00009906000043
:1003C000F0B5002485B0E6B23000254B98470023F5
:1003D0000A201A001900234DA8470C234343224A40
:1003E0000090D31801933022019B1B7A1340202BDD
:1003F00021D01E4B1B5D012BF6D103AD03332A0028
:100400000E2130001A4FB8472B78022BEBD1023364
:1004100019002A003000B8472B78242BE3D16B78E1
:10042000042BE0D1AB78502BDDD1EB78032BDAD164
:1004300000220E4B1A5500980E4B01349847022C9F
:10044000C1D10A4B1A78012A02D100210A4A11604F
:100450005B78012B02D10022074B5A6205B0F0BD38
:1004600011580000B1010000BC0700200505002064
:10047000214D00000D0200000000002070B50D4D60
:100480002C78002C08D120000B4B984720000B4BF8
:10049000984720000A4B98476B78002B08D1012021
:1004A000054B98470120054B98470120044B98477E
:1004B00070BDC0460505002005510000E543000061
:1004C0003D2B000010B50E4C2078002809D10D49B5
:1004D0000D4B98470D4B98470D4B0E4998470E4BC7
:1004E000D8606378002B0AD10649074B0120984752
:1004F000064B9847064B07499847074BD86110BDF4
:1005000005050020B6080000694D0000AD6C000034
:100510001563000000005E439C04002013B5164BD9
:100520009847164B9847164C0020A0470120A0473B
:10053000144B9847144B9847144B9847144B9847C3
:1005400001A8144B9847144B9847144C2078002866
:1005500001D1134B98476378002B02D10120104B37
:10056000984720000F4B98470F4B984701A80F4B17
:100570009847012016BDC0467D010000595E00006D
:100580009D5B00007901000091030000C1030000A1
:10059000C50400004558000069540000050500200E
:1005A000AD540000895500007D0400006158000032
:1005B00070B500240B4BE6B21D5D002D0ED130004E
:1005C000094B9847094B30009847094B1A78002A85
:1005D00004D01D70074B9847074B98470134022CF5
:1005E000E8D170BD050500200D230000B5510000C5
:1005F000040500207D5800000158000070B50C264D
:1006000046430C4D04ACAD192D7A2478012D02D04F
:10061000032D07D070BD182343430748C018C1708D
:100620004271F7E71822424303488018C3704471AF
:10063000F0E7C0465C0500202C050020182343434A
:100640000248C0180923C170C37170472C050020EF
:10065000182343430248C01809234171C3717047EE
:100660002C05002070B50A4B05000C009847182295
:1006700011006943074B5918C860002801D1086967
:10068000C8606A439818092304714471C37170BD2E
:10069000AD2900002C0500201823002243430E49F9
:1006A00030B55A54CB18242148430C4909244158E9
:1006B000662507209A711A75DC711D711A61DA605E
:1006C0000140012904D15A70DA705A711C7230BD90
:1006D00012225D71DA70FAE72C050020000000207C
:1006E00010B51F240AB20C400123002A19DB09139C
:1006F0001BD119001A000F2C02D8164AE240D2432F
:1007000001230A420DD0102C0BD818225043124A54
:10071000825C920707D5082C03D0053C63426341F5
:10072000DBB2180010BD073CF8E7042C02D9012306
:100730000F2CF6D1182302225843074BC35C1342F7
:1007400001D0013CEAE7A31E9343DBB25842434188
:10075000E6E7C04604C600007405002018234343A2
:10076000084A0948D2185278C0181207920F022A74
:1007700004D12623C3703333437170472723C370DA
:100780003433F9E7740500202C0500201823434377
:10079000074A0848D2185278C018D20704D509234E
:1007A000C3700B33437170471923C3702C33F9E7BF
:1007B000740500202C05002018234343074A0848ED
:1007C000D2185278C018D20704D50823C3701F333B
:1007D000437170471D23C3702333F9E7740500206C
:1007E0002C05002018234343074810B5C01803798F
:1007F000662B02D1C170427110BDC468A446046961
:10080000A445F7D04371F7E72C0500201822424396
:10081000064B10B59B18DB78042B01D0172B02D1A7
:10082000034B984710BD034BFBE7C0462C05002047
:100830008D070000B907000070B5124B0E0089B299
:1008400005009847012817D118226A430E4B9B18C0
:10085000DA78052A01D0182A04D128000B4B9847D2
:10086000022070BD9C7908231C40FAD12800310079
:10087000074B98472000F4E7FD23184043425841B6
:10088000C0B2EEE7E10600002C0500205D07000085
:100890000D080000182343430248C01801230375C4
:1008A0007047C0462C050020182343430448C01855
:1008B0001023827913438371092303727047C04662
:1008C0002C05002018234343074A0848D218D17842
:1008D000C01810224378252902D11A43427070476C
:1008E00093434370FBE7C0462C05002074050020AD
:1008F00010B518246043044C044B2418E079984741
:100900000923E37110BDC0462C0500200D02000034
:10091000F8B5944B04000E00984701280BD11F2313
:100920007204520F3340002A00D16DE0022B3CD0FC
:1009300002D8012B17D0F8BD032B46D00F2BFAD1CC
:1009400018226243884B9918C978182906D00529BE
:1009500004D0864882185278D2064DD518225443C6
:100960000D321B191FE0182262437F4B99184979F9
:1009700032290BD03D2912D07C498A185278D206F0
:100980000DD4310020007A4B9847D4E72000794BF2
:100990009847002215212000774B9847CBE7182273
:1009A0005443033A1B19DA70C5E7182262436E4BB1
:1009B0009B18DB78022B04D0052BE2D10022032107
:1009C000E9E720006B4B9847F8E718236343664D2F
:1009D000EB18DB78182B01D0052BACD1674B20002E
:1009E0009847674B9842A6D118235C4310332D19C2
:1009F000EB7035336B719EE70F299CD120005D4B66
:100A0000984700221021C6E7D81E0A2800D992E78D
:100A100005F086FA0B00280091FF4A0061006D0086
:100A200091FF91FF820028009600182565434E4BE8
:100A30005D196B79382B05D120004E4B9847392230
:100A40001721A8E7442B05D120004A4B98473122B3
:100A50001421A0E72A2B94D1464B2000984702236B
:100A6000EB70C7E718273A0062433F4DAD186A792B
:100A7000382A86D1AA79D20712D50C2B0CD10A3389
:100A8000220040496420404EB047404B24011C19CD
:100A9000A071EF703D23ADE7042B00D04BE7F8E7E2
:100AA0001423EB701D33A5E718252A0062432E4B53
:100AB0009B185B793B2B05D120002E4B98473C229D
:100AC000290068E74E2B00D05BE72000294B9847B0
:100AD000532222215FE718226243234B9B18DA78C6
:100AE000052A00D04DE7033ADA705A7123E718223D
:100AF00062431D4B9918C978182905D01B498A18DB
:100B00005278D20600D43CE7182254431C191B2308
:100B1000E370303363710EE718226243124B991869
:100B2000C978182907D0052905D010498A185278A4
:100B3000D20600D425E71822544307321B1932E7A6
:100B400018236343094A084CD2185278E418D20794
:100B500003D50E23E3701733DCE71C23E370223345
:100B6000D8E7C046390800002C0500207405002095
:100B70000D080000F1080000E5070000D51C00008A
:100B8000881300003D060000B10100009C04002015
:100B9000F7B518252B004343AD4E0400F318D87861
:100BA0001F3809286AD805F0C5F94A0062008B0091
:100BB0009F00C800E90002010A002F001E016543E2
:100BC00075196B79592B59D1002310211A00200077
:100BD000A04DA847242363439F4A9B5807221340F4
:100BE000012B0FD09D4918236343F6185A237371C4
:100BF0009B4B019100930023020019002000994CA7
:100C0000A0473BE09849EEE7654375196B795B2B8C
:100C100034D1002304211A0020008E4DA84724233C
:100C200063438D4A9B5807221340012B05D08B4903
:100C300018236343F6185C23D9E78B49F8E72000B3
:100C40008A4B984700280AD118226243884B9B1888
:100C50005B7D002B03D12000864B98470EE01823C4
:100C60005C4308333419E3703033637106E0654345
:100C700077197B79502B02D0522B13D0F7BD00236C
:100C800003211A002000734FB847794B5D196B7828
:100C9000DB0705D4784918236343F6185123A6E7E8
:100CA0007649F8E72000714B9847002804D02123AB
:100CB000FB702C337B71E1E72323FB703233F9E7C0
:100CC0006543761973794D2B04D04F2BD6D1200074
:100CD0006B4BC2E74F2322006A4964206A4CA0474D
:100CE0004E23F0717371C9E72F006743F6197379CA
:100CF000532B12D0542BC1D120005C4B98470028B5
:100D0000BCD1624B20009847594BDF197B78DB0739
:100D100010D50523F3700C33E4E7200000215C4B71
:100D20009847002322005B492320574CA0475423B7
:100D3000F071D7E7F5703D23D4E7654376197379F1
:100D4000552B0ED0562B99D12000484B98470028A0
:100D500000D193E74D4B200098472423F3703333A1
:100D6000C0E7200001214A4B9847002322004A494E
:100D70009620454CA0475623F071B3E7654373199D
:100D80005B79572B00D079E7002306211A00200059
:100D9000304FB847364B5D196B78DB0705D42F49C8
:100DA00018236343F618582321E72F49F8E7032552
:100DB0000B689B092B4200D060E7182044432C4964
:100DC000091949788A102A40012A09D13419114297
:100DD00003D00523E3700C3347E7E0703D2344E77D
:100DE00036192623BAE7654377197B795D2B0FD037
:100DF0005F2B00D042E7294B0021200098471C4B75
:100E00005D196A781A23D2071FD50B22FA7051E7B1
:100E1000A0230A68DB059A420ED1012120001F4B56
:100E200098475F2322001E492D20174DA8471825FB
:100E30006C435E23341918E70C226243194B9B184C
:100E40004022997A0A439A72F1E7FB70472331E70F
:100E50002C0500202525000000000020183D1D4025
:100E6000FD050000452E0000051108273121000076
:100E7000740500205D07000020521D402052082705
:100E80008D07000065060000B1010000F1080000B8
:100E9000C11C00001124000089230000C52D0000A2
:100EA000510600005C0500208222F0B5C7B0520058
:100EB000002104003E4B05A80B25984700236D44F4
:100EC0002B70039320003B4B984704A83A4B98475C
:100ED00018216143394A5318187D00280DD038482D
:100EE00041184978C90756D50A21D9700D31597171
:100EF00018236343D2180023137504A8314B984775
:100F00002000314B98470023304E009303AA05ABD5
:100F100029002000B0470A23284E184223D0182267
:100F20006243274BD75C039BB9108C460321604674
:100F30000840844622489B09821819400C208C45A1
:100F40002DD951789B00814303400B4353702000FF
:100F50001F4B984718236343039AF3181A61110033
:100F600020001C4B9847182366226343F618327101
:100F7000134AD3185B782A78DB0714D52000039B2B
:100F8000154E05A9B04720002A78039B05A9134CEC
:100F9000A04747B0F0BD1A21D9702D31A7E751788D
:100FA0003B008143D0E7039B05A920000C4EE9E7F5
:100FB0007184000041300000455800002C050020DD
:100FC0007405002061580000C508000029340000A5
:100FD000E124000011090000D9130000910B00006A
:100FE000E50F0000F0B509278DB0039302ABFF18A1
:100FF0000B230A243B7002ABE418FF230500029187
:1010000023701C220021C14B05A89847C04B220029
:101010003900280098473B78BE4E053B012B0AD883
:1010200018236B43F118CA78123A012A03D9002217
:10103000F2541223CB70182423006B43F318D87892
:1010400012380B2835D804F075FF0C001900360053
:10105000530071009A00B000BE00D90032014A016D
:10106000950118242800AC4B984741226543761916
:10107000B3799343B3711323F3701AE0A74B28009D
:101080009847A74B0100984213D13B78072B10D10A
:1010900018240A226C43A34B28001B191B89A24D5C
:1010A0005A43012392B2A84714233419E3701D3325
:1010B00063710DB0F0BD6C4337197B79312B06D0CD
:1010C000332BF6D11923FB702C337B71F1E7335DA1
:1010D000022B07D8D22033232A009449FF30944CA6
:1010E000A047F87118243223654376197371E0E73D
:1010F000270000236F43F3556B46029A9989280015
:101100008C4B9847874BF619DB19DB68002B09D10C
:10111000B379DB0702D5F4703D23E7E71423F370BE
:101120001D33E3E71623F3701E33DFE76C433619F4
:101130007379362B1AD0372B29D0342BB9D1002311
:101140000122022128007C4FB847764B1C19E36826
:10115000059335237371794B0193794B020000930A
:10116000002105AB2800774CA047A2E737232A00CF
:101170006E491A206E4CA0473823F071B6E76C43D5
:1011800036197379392B06D03A2B00D091E7192301
:10119000F3702C33AAE7FA203A232A00634940006F
:1011A000634CA0473B23F071A0E76C433619737979
:1011B0003C2B00D07DE7644B280098470123B2798F
:1011C0001343B371A8E76C4337197B79452B00D0E3
:1011D0006FE728005D4B98474023BA7928001343F6
:1011E000BB7100235A4D1A001900A8471A23FB703F
:1011F0002D337B71335D013333555AE76C4334191A
:1012000060794738032800D953E704F07FFE021BBA
:101210002934182440236C433619B279280013432B
:10122000B3714C4B9847002818D0002128004A4B36
:10123000984700232A00494923203D4CA0474823D2
:10124000F07153E72800434B9847002800D030E75F
:10125000182428003D4B984765437619492345E7F4
:10126000002328001A0019002F4CA04718246543BA
:101270004A2376193AE7294B28009847031E00D0E5
:1012800017E718246C43274A2800121911890A22EB
:101290004A43254F92B22249B847314B280098471C
:1012A00040223619B3799343B3711223E4E66C43B9
:1012B000361973794B2B00D0FBE60B2402ABE418F4
:1012C000210005AA2800274B9847227800230421F3
:1012D0002800194CA0474C237371234B3CE76C4307
:1012E000361973793E2B00D0E3E62800174B984758
:1012F000002128001D4B9847002303211A002800D5
:101300000D4CA0473F237371194B25E771840000F2
:10131000111C00002C05002069350000D51C0000C0
:10132000881300007405002081410000650600005C
:10133000B1010000C11F00002525000016361D4028
:10134000FD050000452E0000951C0000F10800007E
:101350008931000031210000C11C0000112400006F
:1013600041290000E51E0000183D1D401D29000018
:10137000143119456C4336197379422B16D0432B1F
:1013800000D104E7402B00D093E628000C4B98478F
:10139000002128000B4B984700230D211A0028003C
:1013A000094CA04741237371084BD5E643232A001B
:1013B00007491A20074CA0474423F07196E6C0461F
:1013C000F10800001D290000252500001D421945D7
:1013D00065060000B1010000F0B500250D2791B0B1
:1013E000039304AB04001D730291059229001C2293
:1013F000C44B09A80895984704AB0E22FF180F2686
:101400000B2304A9521876183B7013703900200082
:10141000BD4B357098473100BC4B200098471823CE
:101420006343BB4D0493EE1866233F783371002F5E
:101430000BD1F378002B08D0B64B20009847092336
:10144000F371049BF77077715F551826330063437F
:10145000EB18D87811281AD804F06CFD12003A0164
:101460004E00A500B900260119000E01A5029D013C
:10147000C201DB0119001900F102070370038C039C
:101480006643AD196B79002B03D0012B18D011B036
:10149000F0BD03226B70AB7920009343AB719E4B80
:1014A00098470C229D4B20009E19737893431A0095
:1014B0000823134373709A4B984701236B71E6E737
:1014C0000D2304AA9B181B78022BE0D10E2204A93D
:1014D00052181278042ADAD10B3252181278002AE4
:1014E00001D1EB70EAE70F238C4CEB701E336B716C
:1014F000A619FF333381CAE76643AF197B79042B02
:101500004CD0052B39D0022BC1D1AA5D022A0DD9AE
:10151000BA79D1060AD51A4205D000220921200045
:10152000804B9847B3E70623FB70B0E709AA07A9E9
:1015300020007D4B984704AB1A7B0121002320003B
:101540007A4EB04718231A006243AA18927992077C
:1015500011D4774E6343ED186B7801336B7003231E
:101560006B7109AB0021734A0196009202002000C2
:10157000714CA0478BE7714EECE70023AB55BA796D
:101580007B7003337B71013B1343BB712200042347
:101590006B491A206B4CA047F87178E70923FB7060
:1015A0000B337B7173E76B4620009989029A664B77
:1015B000984718235C432C19012803D1143BE3708E
:1015C000073302E00723E370023363715FE766438A
:1015D000AE1970790B38042800D958E704F0A0FC44
:1015E00005002F0057FF13001F0000234F4E1A0065
:1015F00003212000B04718236343ED180D23534EF9
:101600006B710023AEE70F23220051491C204D4E81
:10161000B04718235C432C19E0710B3BD5E7200041
:101620004C4B98471E20002322004B49FF30454E6B
:10163000B04718235C432C19E0710C3BC5E7182612
:1016400032276643354B20009B195B681B039B0DBB
:101650005F43424B9847874200D018E72000404B39
:101660009847002306211A002000304FB8470D2369
:10167000AD196B713B4EC4E76643AE197379092B04
:1016800000D004E7B379DB070CD4374E00230421E4
:101690001A002000254FB84718236343ED180A238A
:1016A0006B71AEE7314EF1E76643AD196B79102BE4
:1016B00000D0ECE6AA790F3B1343AB711123200055
:1016C0006B712B4B9847002120002A4B9847DEE690
:1016D0006643AF197B79062B4ED0082B00D0D6E697
:1016E0007B78322B07D8AB5D022B4ED91222BB7907
:1016F0001340102B49D118235C43123B2C19E37083
:10170000C5E6C04671840000111C0000291C0000C1
:101710002C050020490200006935000074050020F6
:10172000E12400003D1C0000411E000025250000B2
:1017300002050106FD050000452E000002050827F0
:1017400065060000B10100006D1D0000040E0914C3
:10175000510600004D1C00005D230000D51C000058
:10176000F1080000051009140C00082705100827CF
:10177000951C00000935000008232200D34996205B
:10178000D34CA0470723F8710BE718235C43163BA3
:101790002C19E37019E766430296AE197379142B7E
:1017A00006D0162B00D072E60B23F3700F3315E032
:1017B0002000C84B9847002320001A001900C64F8C
:1017C000B847029B029AEB5CC0490133AB541C2022
:1017D00016232200BE4CA0471523F071737156E604
:1017E00033006343ED186B79172B06D0192B00D00B
:1017F0004DE60B23EB700F3360E62000B54B9847A6
:1018000022001923B1491C20B14CA0476E71E87128
:101810003DE66643AE1970791A38082800D936E6D5
:1018200004F07EFB09002200370035FE4D00510018
:101830007300A700B5002000A84B9847002803D0EC
:1018400000212000A64B984720000021A54B984777
:1018500000232200A449A5489D4EB04718235C43AD
:101860002C19E0710333B0E62000A14B9847061E07
:1018700000D00CE62000974B9847330022009D498A
:101880002320934EB04718235C432C19E071043396
:101890009BE62000914B9847002800D0F7E52000F8
:1018A0008C4B9847C8201E23220088498000884E10
:1018B000B04718235C432C19E071053385E61823E3
:1018C0005C432C197CE60F2304AA9B181B78002B81
:1018D0000AD018226243884B9B185B7D002B03D0F3
:1018E000012120007E4B9847200001217D4B984725
:1018F0001420002322007C49FF30754EB047182386
:101900005C432C19E07108335FE6794B200098475F
:101910007A4B0700984200D0B9E520006D4B9847FC
:101920002000774B984718230A2663430293029AB4
:10193000714B39009B181A8903937243012392B2A9
:101940002000704FB8470F2304AA9B181A78182359
:10195000002A18D0039A527D002A14D000232200B6
:10196000694930005A4CA047029BED18E8712123C9
:10197000A4E52000594B9847002800D187E5554B36
:101980002000984718235C4322232C191DE60023CE
:1019900022005E495E484E4EB04718235C432C1926
:1019A00020720023F5E66643AE19707927380528C2
:1019B00000D96CE504F0B4FA06001A006BFD6BFD6B
:1019C0003C0030002000434B984700212000514B41
:1019D00098470023504E1A000D212000B0471823CD
:1019E0006343ED182A234D4E6B710AE62000394BF4
:1019F000984701212000474B98470023484E1A0082
:101A00000D212000B04718236343ED182A236B7182
:101A10000023424E0121A6E52B2322002B491A2048
:101A20002B4EB04718235C432C19E0711233CCE5E0
:101A300018235C430F3B2C19E3700B33C5E5664359
:101A4000AD196B79252B00D021E52000214B98475B
:101A50002000344B984700232F4E1A00032120000A
:101A6000B0472623304E6B71CBE56643AF197B79C7
:101A70002F2B20D0302B27D02D2B00D007E51E4B4D
:101A80009E1973781B079B0F012B12D1274B0893CC
:101A9000234E002301220F212000B0471823634367
:101AA000ED18AB78224E0133AB702E236B7108AB6F
:101AB000B0E7204BEBE7302322001F491C20044CE9
:101AC000A0472E23F8716CE511232DE55106000087
:101AD000B1010000F108000089310000312100004F
:101AE000C11C00000D1D00005D2300008A020000E3
:101AF000D51C00001124000074050020881300008C
:101B0000412900008141000089230000A90800004C
:101B10007C1500001D29000025250000082C091453
:101B20005D2500002929000002020914018000FF40
:101B30000F2F110001A000FF650600006B4620007A
:101B40009A890599029B1B4EB04718235C430128D4
:101B50000DD10C21184B1B195A782C198A431100EE
:101B600008220A435A700023A370023311E62C198D
:101B70001123C4E56643AD190F4CAB780C22A619AE
:101B8000142B0DD9737893431A00082313437370F1
:101B90002023AA791343AB710023AB700233A0E476
:101BA000737893431A000423134373700F23EB706D
:101BB0001E3383E4991E000074050020182343435C
:101BC00030B5114C114DE21851781A5D242343436E
:101BD0005B5907252B40012B12D0082319431A43C8
:101BE0001823584323182254597000220921012038
:101BF00059749A75DA74DA75587599741A7530BD16
:101C00000B231A431943EBE7740500200000002062
:101C1000044B000110B5C45C1B180C705B7813708A
:101C200010BDC0469C040020012203010248C018D8
:101C3000C37913400B7070479C040020024B0001D5
:101C4000C1541B185A7070479C040020F7B5182522
:101C5000322745430C4B06005D196C6823039B0D2E
:101C60005F430A23E405E40D63430193019A0023D3
:101C70003900064CA0476B78DB0704D5019A390080
:101C80003000034B9847F7BD7405002081410000E8
:101C90000956000018224243074B10B59B180A2230
:101CA0005968064CCB05DB0D5A4332230903890DD5
:101CB0005943313BA04710BD74050020814100000D
:101CC00010B5034B012901D1984710BD0021FBE756
:101CD000E93A00000301010000200A4AD218137AF1
:101CE0005B065B0F83420CD009224A43013BDBB207
:101CF0000548D3189B00C318586832230003800D91
:101D0000584370479C040020000000201822F8B5BA
:101D10000A244243104B05009B181B890E005C43AC
:101D20000E4FA4B2002909D0002322000C49B84765
:101D300022000B4928000B4B9847F8BD0B002200EE
:101D4000B847310028002200064B9847012128009F
:101D5000054B9847F1E7C04674050020814100001B
:101D60008813000009560000ED560000F0B55378C6
:101D7000010010781B021843D478937809224A4353
:101D80006406640F1B040343601E12181A4D920070
:101D9000AA1856681B03B2059B0D920D00209342B2
:101DA00026D8844224D024224A43AD180135EA7F44
:101DB000A2421DD318224A43104C0125A418A7792A
:101DC0000C01A4460E4C7F116444E4792F402C4052
:101DD000BC430C4F84420CD0BA1812899A4240413D
:101DE0000300C0B2AB4203D1182359437F187E6071
:101DF000F0BD2800F8E7C046000000202C050020B8
:101E00009C040020740500209622C305DB0D5200BF
:101E1000934202D9400A400210437047F7B50600CA
:101E20000024064F01919500AC4200D1F7BD019B03
:101E30001859B84730510434F6E7C046091E00006F
:101E400070B52423040063430E4D1000EA180132DC
:101E5000D27F0A70191D0C4B491925015B19DB79DA
:101E6000DB070CD518235C43084B1B19FA241B898C
:101E70006400A34203D19200054B984770BD054B07
:101E80009847FBE7000000209C0400207405002018
:101E9000155700001D1E000010B503241A68910993
:101EA00021400239022201290BD91A695209224024
:101EB000012A08D1182343430948C01896235B0020
:101EC0000381100010BD022A08D11823434304489F
:101ED000013AC018FA235B000381F2E70122F0E720
:101EE00074050020242370B514004343064DEA18FE
:101EF0000132D07F0870D27F191D4919920020004D
:101F0000024B984770BDC0460000002015570000E6
:101F1000F0B517001500002487B002900491029AD2
:101F2000E3B20393934205D310000138431C39D028
:101F3000002234E0049AA300D358FA210193180335
:101F40003223800D89005843174B9847174EB047EE
:101F5000019B059098050A23800D5843B04714490A
:101F6000144B9847144B011C05989847134B9847FE
:101F70006B461B7B28706B7001340235CFE7530032
:101F8000FC180233FB18257819788D4205D821708A
:101F90006678597861701D705E700132D2B28242EB
:101FA000EDDBC2E707B0F0BD495F0000AD6C00009B
:101FB00000007A4415630000F5660000A962000085
:101FC000F0B58FB006AC0AAE534D00900F000192F1
:101FD00000210E222000A8470E2200213000A84731
:101FE0002421009B4D4D59436B180133DB7F7F0447
:101FF00004317F0F4919320018000293484B98476B
:10200000380022000199464B9847092300997278BD
:102010004B439B189B00ED18686833788605049342
:10202000830A9C467B0005930023B70D059A9342D3
:102030001DD109260133E3180393029B5B00013392
:10204000E318029306AB581C344B9C46009B5E433E
:10205000039B984237D0037801999A00555806AAF5
:10206000AF0A541C029A944231D10230F0E7E25C8C
:1020700004998A4229D3E2185278019D9100039273
:10208000624649598D0A5540AD051ED18905890D15
:10209000B9421AD31821009B44085943214B224DC1
:1020A000591880239B042340039A84022C40234325
:1020B00001321F4312071743B60DCF600E814860EF
:1020C00000981A4B98470FB0F0BD0233AEE7227864
:1020D0000234B218920062445268910A794089052C
:1020E000C0D11820802600990F4C48430D49520852
:1020F0000818A9022140AC05A40DB60421433240C2
:102100000A43802101331B07C90419430A43C260F3
:1021100004814560D4E7C0467184000000000020BF
:10212000111F00007405002000FC0F004D1C000072
:1021300003010448C0180C23007A1840431E98413C
:10214000C0B270479C040020F0B5644F030185B015
:102150000193DB5D0400624D002B25D10301FB18C8
:102160005B78012B27D1182620005E4B984700236F
:102170006643AE19F375707C5B4B98470923737403
:102180000023F3740123B07C7375574B98470923E0
:10219000B374002302A83375544B9847002302A858
:1021A000B375534B984706E0052B04D10301FB1888
:1021B0005B78022BD7D018236343EA18D27D002A1C
:1021C0002DD04C4AD3185A791F2A02D0DB78122B13
:1021D00025D1182633006343EB181A7D022A01D952
:1021E00000225A756643AE19F37C022B54D90021A4
:1021F0002000414B9847414B200098470023220183
:10220000BA18F3740533537018236343394AD3184B
:102210002A22DA70182300226343EB18DA7518219A
:1022200061436E18B37D002B34D01631691820003D
:10223000334B984700282DD0B37D1B0704D52A4B7C
:10224000B07C98470923B374182608226643AE1958
:10225000B37D934304D0244B707C98470923737457
:10226000182301206343234AD2189179014017D1E2
:10227000092320013B542A233F187970D37003A807
:102280001A4B984718235C4300232D19AB7503A8FC
:10229000174B984705B0F0BD2000124B9847B9E79F
:1022A000EB189A7D120706D51A7D602101321A7546
:1022B0002000144B9847182308216343EB189A7D9C
:1022C0008A4302D0DA7C0132DA740F4B200098473F
:1022D00018236343EB189A7DDA75D0E79C0400203D
:1022E00074050020CD4F00000D020000455800008D
:1022F000615800002C05002059260000490200000A
:10230000FD570000393900008D07000010B50400AA
:10231000044B98472000044B98472000034B9847F4
:1023200010BDC04671460000A90E00004921000002
:10233000182343430348C0180923837400230375FB
:102340007047C04674050020182343430248C01854
:10235000837D194381757047740500200922084B5D
:102360000101CA545B1800215970182343430548E2
:10237000C0182A23C3703C334371C2717047C046F2
:102380009C0400202C050020F8B518266022184D6A
:102390000301ED184643EB79164F9343EB71573A1F
:1023A000BB19DA71144B04009E19337C032B1AD924
:1023B0000021124B98472000114B9847114B0021E8
:1023C000200098477378DB0703D5002120000E4BCF
:1023D000984705236B7018235C4312333F19FB7039
:1023E0003C337B71F8BD01333374084B9847F9E7F0
:1023F0009C0400202C0500207405002059260000B4
:1024000049020000E93A00000D1D00008D070000A0
:102410000922074B0101CA545B1800215970182387
:1024200043430448C0182A23C271C3707047C04692
:102430009C0400202C050020182343430248C018A8
:10244000002303747047C0467405002018234343DB
:102450000248C01880794006C00F70472C05002044
:1024600010B50F2403010548C0180B01017B214062
:10247000194309230173037210BDC0460C050020E7
:102480000C224243124B70B59B181B7A0400012B9F
:1024900010D1020003330F491A200F4DA8470F2215
:1024A0000E4B24011C19237B20721A401023134366
:1024B000237370BD023B012BFBD80F22074C030195
:1024C000E418237B1A40402313432373F1E7C046EB
:1024D0005C05002061240000B10100000C05002013
:1024E000182242430C4B10B59B18597804240B0753
:1024F0009B0F013B5A4253414A108900D2012140AF
:10250000114302330122A3400A431A43D2B20349C2
:10251000034B984710BDC04674050020021A000006
:10252000A94C000010B5182460430B4C120324186A
:10253000D80308438021FF23647810434900220216
:102540000A401043E0392201A4100A40A4011043BC
:102550001C40204380B210BD7405002010B5182423
:1025600044430748DB030019FF244078120380101E
:102570001A43800120401143084380B210BDC04679
:1025800074050020F7B5802636020D0001921F0069
:102590000E401CD134004B045B0F9B002A0A3D7097
:1025A0007A7001202A0403D5BE70360AFE7002300C
:1025B000019AC318DBB2002A41D10300002122187E
:1025C000D2B293423ED101340019C0B2FEBD802484
:1025D0000B0CE4009EB21C4026D102011B4880185F
:1025E000017BC27A0907D206090F120F91421FD14F
:1025F000D805C00D1A21164B9847002917D0032083
:10260000CBB2023108408910CAB2002804D0043489
:10261000241A0132E4B2D2B20E48120328402D0C23
:1026200002432D041543B9E702240023B6E70C004A
:102630001A23B3E711780130C0B2395401329842FD
:10264000F8D1BAE70133DBB2F954BAE70C05002040
:1026500029620000FF8F000010B50B4B0400002919
:1026600009D0D221122249019847082220000749A7
:10267000074B984710BDD2210222490198470822F2
:1026800002492000034BF4E7A94C0000871A000020
:10269000814D0000BD4D000010B51A4B1A490400D1
:1026A000984770231840102811D020281CD00028EB
:1026B0000CD107210C30444314480019427A5307C7
:1026C0005B0F01330B408A431343437210BD0C2050
:1026D000072144430D480019427A93065B0F0133EA
:1026E0000B40DB003131EEE70C2007214443074863
:1026F0000019827A53075B0F01330B408A4313435F
:102700008372E3E7514D0000041A00005C050020CD
:10271000242370B51C00C82144430B4A4901A41866
:1027200022000A4E0500B0470C20637845435B0643
:1027300007485B0F40196370827A0830530602D451
:1027400010231343837070BDBC040020D94C0000DB
:102750005C050020F0B50E2785B000236A46D42121
:1027600003AD6F442B7053733B702A000133490152
:10277000484E0400B0472B7801252B4252D00D2241
:102780002B006A4444492000B0473A002B004349DB
:102790002000B0476B460F265A7B3B786E441340AF
:1027A000337032002B003C4920003D4FB84732784F
:1027B0003C4E2A4203D00C236343F3181D72930747
:1027C00004D50C2303216343F3181972530704D56E
:1027D0000C2302216343F3181972130704D50C2349
:1027E00004226343F3181A720C236343F3181B7A11
:1027F000042B02D020002C4B98470C236343F55840
:10280000002D0AD0F3185968080C0A0AC3B2000A4E
:102810000090D2B2C9B22000A8470C236343F61837
:102820000023337203AB1B789B0730D50D220E2695
:10283000184D6E4401236A441C492000A847320009
:1028400001231B492000A8476B460F255A7B33788C
:102850006D4413402B702A00012314492000104EB0
:10286000B0472B787F2B02D92000124B98472B784A
:102870001B070CD50C2262430A4B20009B18202218
:10288000997A0A4340218A439A720B4B984705B0C4
:10289000F0BDC046D94C0000811A0000861A000025
:1028A000394C00005C05002099260000821A0000C7
:1028B000871A00001127000095080000002270B55B
:1028C000914208D107240C324243114B9B185A7A8B
:1028D000A2435A720122CB0709D50C243825444360
:1028E0000B4B1B195C7AAC435C7202231A438B07B7
:1028F00009D50C2107244143054B5B18997AA14364
:10290000997204231A430349034B984770BDC0468C
:102910005C0500204C1A0000A94C000010B5014BCA
:10292000984710BDBD28000070B50500034C00217C
:10293000A04728000321A04770BDC046BD28000065
:1029400037B50D4B040001A898470C2220216243A3
:102950000A4B01A89B189A7A8A439A72084B9847A7
:10296000084D200000220849A847D221122249011F
:102970002000A84737BDC046455800005C05002030
:1029800061580000A94C0000861A000070B50500CF
:10299000044E054C31000122A047310028000022DE
:1029A000A04770BD8B1A0000A94C00000C214143C8
:1029B000064A5218937A0022DB0604D524234343A7
:1029C0000348C018428810007047C0465C050020CC
:1029D000BC04002010B50C2444430B4B1C19A37AF3
:1029E000DB06DA0F002B04DA084B9847002323722A
:1029F00010BD237A052B05D1054B012205499847C7
:102A00000623F4E72272F3E75C0500208D2900001D
:102A1000A94C0000051A000010B50400034B9847AC
:102A2000034B24011C190923237210BDD529000072
:102A30000C050020852252004243F8B5124B0600D7
:102A40009B185F881A21FF05FF0D104B380098472F
:102A50000F4B441E1A2138000F2598470D4B3601A5
:102A60002C409B19002906D11E226000DC7A944379
:102A70000443DC72F8BD1E2201342540DC7A6D006F
:102A800094432543DD72F5E7A60500205D60000054
:102A9000296200000C05002085235B0043430F4A98
:102AA00070B5D11804000879995A1F2319400028DD
:102AB0000FD11E3B1A002000094DA847094B2401E5
:102AC0001C19237B1B075A0884231B061343184336
:102AD00070BD012320001A00034DEEE7A60500207B
:102AE000252500000C0500205D25000010B5044CD4
:102AF00000012418207A034B98470923237210BD44
:102B00000C0500200D020000012110B5094B020147
:102B10009B185A7B8A435A73DA7A1D318A43DA72D8
:102B20005A89520A52025A8100221A73024B98475C
:102B300010BDC0460C050020ED2A0000F8B50400C9
:102B40004C4B98474C4E4D4A4D492000B0474D4A9A
:102B50004D492000B047D0214C4D5422490120005E
:102B6000A8474B4B200098474A4A4B492000B047A2
:102B700064224A492000A8475E2249492000A8470C
:102B8000D5210A23474A49012000474FB847474A01
:102B900047492000B047434A18230A3245492000DC
:102BA000414FB8473F4A18232232434920003E4F45
:102BB000B847012241492000A84718236343404FEA
:102BC0009222DB5DDB0701D5902252008023A021F9
:102BD0001B021A4389012000B04710223949200006
:102BE000A84718236343FB5C1E22DB0700D40622A0
:102BF00020003549A847354E200010223449B047FF
:102C0000200088223349A847200080223249A84763
:102C1000200007223149A847200007223049A84751
:102C20009021200001228901A847200004222D497B
:102C3000A847200010221421B0470C230020634332
:102C4000294AD118985048600A0008724B7A072127
:102C500038308B4383435372937A20008B43C031C7
:102C60000B409372214B22019B1809221A72204BB0
:102C70009847F8BD8D290000C14C00003C1E0000A3
:102C80000B1A00009F320000071A0000A94C000038
:102C9000E124000080C40000421A0000461A00002F
:102CA000491A000078860000794C00009FC8000097
:102CB000B01A000010280000302800000228000090
:102CC0007405002004280000411A0000814D000016
:102CD00001080000821A0000871A0000811A000013
:102CE000861A0000891A00005C0500200C050020EF
:102CF000092B0000F0B5040085B0114B03A80F00AC
:102D00009847104B2201D658002E11D00C25654350
:102D10000D499B184D1959682F72080CC3B20A0A45
:102D2000000A0090D2B2C9B22000B04700232B7233
:102D300003A8064B98472000054B984705B0F0BD07
:102D4000455800000C0500205C050020615800007B
:102D5000092B00000C224243F8B5154B9B18197A39
:102D600001291FD1134D0301ED182C002A7BEE7AA7
:102D70001307F6061B0F0834360F9E4215D00F2698
:102D80000133B243334013432371020009230A493C
:102D90001A200A4FB84728722379334061361E4300
:102DA0002671F8BD8B1E012BFBD8054B9847F8E721
:102DB0005C0500200C05002061240000B10100002A
:102DC000F52C000070B504000E1E15D010250E491C
:102DD00020000E4B98472842F9D002220C492000CF
:102DE0000C4DA847D6210A2249012000A8470122FC
:102DF00007492000A84770BD02220549054DA84794
:102E0000D62132004901F4E7051A0000514D0000B7
:102E1000C11A0000A94C000037B5074B050001A8F6
:102E20000C0098470C2045430448054B4019047298
:102E300001A8984737BDC046455800005C050020F2
:102E400061580000F0B58BB0009303019C466A4BBB
:102E50000F00634419005B7B0400DB071600083198
:102E6000DB0F3AD1320438D5852040006043634DF2
:102E70002A1846530F2517710879F601A8430871DF
:102E80008021F60D09020E430099568000291FD1BA
:102E9000594B624663441D00119B10996B60564B61
:102EA00020009950564B98470F222B7B1A405023F5
:102EB00013432B7301236A7B13436B730325280091
:102EC0000BB0F0BD0099C85CD118013348719BB2BA
:102ED000F105C90D8B42F5DDDAE70C236343494D5B
:102EE0001199EA185160109A5A5118236343464ABF
:102EF0009A5C464BD2070DD51E22454920009847C3
:102F00000C23012F44D0002F06D0022F47D00027DA
:102F10003D0006E00622F0E76343ED186D7A6D0789
:102F20006D0F6B0233430193009A02AB0199394E46
:102F30002000B0470722009037492000334B9847C4
:102F40006B46C0211B8802AA49012000334EB047BE
:102F5000009A334920002D4B984788223D432A434D
:102F60002A4B3049200098470C236343254AD31845
:102F70001B7A092B06D00A2B18D101991533194059
:102F80000D2913D005212000274B9847022596E7ED
:102F90006343ED186D7A1027AD066D0FC1E76343EB
:102FA000EB189D7A20276D076D0FBAE70C2363435A
:102FB000D218937ADB060DD5242262431B4B9B1853
:102FC0005D78002D06D12000194B98472000194B41
:102FD000984774E7102518492000184B9847284255
:102FE000F9D0012214492000084B984706212000FF
:102FF0000D4B9847012562E70C050020A60500202F
:10300000352A00005C05002074050020A94C000052
:10301000411A000085250000861A0000794C000046
:10302000031A0000041A0000192E0000BC0400203E
:10303000992600008D290000051A0000514D00005E
:10304000F7B5454E0401331908335A790500D20704
:103050003ED5187900090238082839D802F056FF01
:1030600005382D3938386E647300341908346679A0
:10307000B607F60F05D00F2223791A4060235B4272
:1030800018E0364B28009847852149006943344BA6
:1030900002005B181979334B28000193324B334DF2
:1030A00000933300A8470F222379134021320128CF
:1030B00000D04022134323710AE00C226A432C4BB8
:1030C00028009B180822997A0A439A72294B98473C
:1030D000F7BD3419083463799B07CCD485214900A6
:1030E00069431F48277946187288234B3F073F0FD3
:1030F0001A40FB021A431A235F434B1DDB19095A7E
:103100001B181E4812040A43317901901C48009094
:103110002800164DA8470F22237913405132012869
:10312000C8D080225242C5E73419083423790121DE
:103130001A0704D00F2213408F3ABBE7032128005F
:10314000104B9847C4E70B4B2800984702223419CC
:10315000637B93436373BBE70C050020992A00004F
:10316000A60500200100040081240000452E000077
:103170005C050020092B0000FF87FFFF09070808F6
:10318000552D0000F52C0000F8B504000E000C21B0
:103190006143114845180A506B600E220F49200008
:1031A0000F4DA84708220F492000A8470E4F002EB8
:1031B0000BD00E4921222000A84708212000B84743
:1031C0000E220B492000A847F8BD0849052220001F
:1031D000A8470721F2E7C0465C050020811A0000DD
:1031E000A94C0000041A0000192E0000051A000066
:1031F000861A00000C22F0B54243804B87B09B1822
:103200009B7A04000026DB0649D5242242437C4BEE
:1032100000019B185A887B4D11B20390B14200DB2C
:10322000D2E05A791B79120213431BB201936B4609
:103230009B880293DF125B053AD5734B20009847B9
:103240000F212301ED182B7B0F401A070835120FB1
:10325000974227D1019AB24224DA50220B401343FD
:103260002B710C236343654DEB181B7A052B02D0A1
:10327000093B012B06D82000634B98470021200012
:10328000624B984705A8624B98470C2310225C4379
:103290002D19AB7A05A89343AB725E4B984730006B
:1032A00007B0F0BD032120005B4B98470026D8E70C
:1032B0000F20074059D12301EB185A7B0833D2075E
:1032C0000CD519790A0912180240022A03D80140C4
:1032D0003130014319712000504B984701222301DE
:1032E000EB18597B24260A435A73852366435B00F7
:1032F000434A634392194A4856785288C1181A5271
:103300006B4620001B890E714B80464B98473D4B06
:1033100021015A18127B1207120F97424CD1019AC1
:10332000002A49DA2422852702216243344B7F0098
:103330009B185A8867435204520F93000193384BED
:10334000DF19019B994213DB2E4A2301D218083260
:103350001379D1781807C906000F090F884221D1C7
:1033600020002E4B984708267BE72000264BCDE710
:10337000039BEE187389D805C20D9446802212046F
:1033800080185B0AC00D5B020343738124266346E9
:103390006643F8181A4B9B195B181B79013143716E
:1033A000C9B2CEE70F202021034019430133034067
:1033B00081430B43137179E75B180F211A7B11408E
:1033C00040220A431A7371E72301ED186B7B08351D
:1033D000DB070ED51F231A40052A0AD00F222B79AE
:1033E00020001B090F3313400C4A022B04D89047CE
:1033F000102602231E4334E79047FAE75C050020BD
:10340000BC0400200C050020ED2A0000192E00004D
:103410004558000061580000F52C0000092B000001
:10342000A6050020352A0000F7B51D00324B0E001E
:103430001700040098476A46D080D1888446002946
:1034400009D10C2262432D4B9B189B7A1A0702D498
:1034500008009B061ED502236246134021D0242279
:103460006243274B9B185A7832705A883A60002D75
:1034700008D0002707209E1C3288121302409200B9
:10348000974208DB089BCDB2002B02D02900200018
:1034900098472800FEBDDA191279EA550137BFB204
:1034A000EAE708226046104219D00332FF32624335
:1034B0001448821810793070508816880004304300
:1034C0003860971C002DDDD03888C005C00D8342C0
:1034D000D8DAD0184079E85401339BB2F4E70C21D4
:1034E0006143064B5B18987A042108330507C9D558
:1034F000904398700C31C5E7F53100005C05002061
:10350000BC040020A60500200C2270B50025424313
:103510000F4B04009B181B7AAB4213D10D4BA942F1
:1035200012D0012198472B0022000B4910200B4D8F
:10353000A8470B4B22019B18187209212000094B48
:1035400098470125280070BD29009847F9E7C04633
:103550005C050020D53E0000192A0000B1010000E2
:103560000C050020192E000010B50400094B9847E7
:10357000200000220849094B98470C224021624351
:10358000074B20009B189A7A8A439A72054B9847FA
:1035900010BDC04629290000861A0000A94C000071
:1035A0005C0500208D290000182343430348C01800
:1035B000092343740023C3747047C0467405002078
:1035C00003010348C0180923417083717047C04646
:1035D0009C040020044B0001C154181800234370C0
:1035E000093383717047C0469C0400200D4B30B5F1
:1035F0000501581902794479032905D8080002F019
:1036000085FC02070A0D95225B191A715C7130BDA9
:1036100020242122F8E720242222F5E74024482212
:10362000F2E7C0469C040020AD4B02019B1801222A
:10363000F0B587B0040002911F7A11423BD004AB71
:103640005D1DA8491300A84E2A00B0472B787F2B98
:1036500005D901232A00A3492000A44EB0472B78A6
:103660009B070DD004AA02230632A14920009E4DDB
:10367000A84704AA022306329D4920009B4DA84773
:10368000022304AA951D2A009A492000964E1F4342
:10369000B04724236343984A200199580723904A4E
:1036A000194012182B88012900D0A2E0D9431B0A27
:1036B000DB439170D370029B5B051DD504AB5D1D90
:1036C000894E01232A008D492000B0472B785EB235
:1036D000DB0709D518220C2362439F43884B9B18B4
:1036E0000822997D0A439A752A0001238349200004
:1036F0007E4DA847002E02DB029B9B0573D504ABD1
:103700005D1D2A000123784E7E492000B047182312
:10371000012663437A4AD3185B78334001932B78B0
:103720000025AB420BD1702329009F432000764B2C
:103730009847019BAB425FD0029B5D0A354004ABCA
:103740005E79012E11D1019B002B64D1644A2301C3
:10375000D35C072B09D120006C4B9847002804D17B
:1037600031002000684B3743984704AB5B79052B49
:1037700053D1019B002B10D17020594B21015A18B5
:10378000137A0340102B00D1A5E0554B5B5C072B4F
:1037900003D15378012B00D09DE004AB9D1D002385
:1037A0002A002B805A49013320004F4EB0472B8806
:1037B0009B060AD518226243514B9B18DA7D002ADA
:1037C00003D1997D02320A439A7504AA0123053276
:1037D00050492000444DA84704AA012305324D4911
:1037E0002000424DA8473E4B24011C19277207B008
:1037F000F0BD93701B0A5DE7394A2301D35C019D3C
:10380000072B9CD12000414B9847051E01D137431F
:1038100095E7019D93E7019DA7E7012DBDD01022FB
:103820001A40019206D018236343354AD318997D74
:103830000122C8E7202293430D2BC6D163339F4357
:1038400004AB9D1D2A00022333492000264EB047B9
:103850002888324B9847324A324B334EB047204A81
:103860002301D31802900391D868304B9847304E0B
:1038700002000B0002980399B0472E4B984780B284
:103880002880242565431C4E019973190133DB7F81
:1038900001969C46CBB2634510D28A00019E521914
:1038A00092193226526801311203920D72439042EE
:1038B000F0D80133DBB21B011F43FFB21822624371
:1038C0000F4B9B185B78DB0700D47EE700212000BC
:1038D0000D4B984779E7012D00D076E75DE7C046AC
:1038E0009C04002003080000D94C0000394C000063
:1038F0000408000006080000000000200A0800007C
:103900007405002008080000ED5600004D2400005A
:103910001F08000009080000B2080000357F000001
:10392000295C8FC2F5683840A1730000B97F0000A0
:10393000396D0000D9620000F7B56B46DC1D0E0042
:10394000012322000E490F4F0500B847602223785B
:103950000B499343334323702200012328000A4F6D
:10396000B84773425E4176000123220007492800D0
:10397000044FB8470222237813409E42F4D0F7BD8B
:1039800021080000214D0000794C000001080000D2
:10399000F7B504000122002913D184210C4B090141
:1039A000984780256B468421DE1D320001230901E2
:1039B0002000084FB8477F2233789343AB42F1D0C1
:1039C000F7BD8421044B090198470025EAE7C0466A
:1039D000BD4D0000214D0000814D0000F7B50126CE
:1039E00004000191314212D00501154B0435ED1848
:1039F0002A0033001349144FB84733002A001349F3
:103A00002000B84733002A0011492000B847019B25
:103A10009B0713D50A4B25010435ED182A00012315
:103A20000C492000084EB04701232A000A49200013
:103A3000B04701232A0009492000B047F7BDC0461E
:103A40009C0400201A080000794C000012080000B5
:103A50001D0800001B080000130800001E080000DD
:103A6000F0B50F00822185B002AB9D1D140002232A
:103A70002A0009010F4E0190B0472B880E4A1340CF
:103A8000002F0CD12343E4001C432C80822102230D
:103A90002A0009010198094CA04705B0F0BD012F8B
:103AA00001D02B80F2E72202A402144323431B24FB
:103AB0002343F6E7214D0000C0F0FFFF794C0000E2
:103AC00010B5002905D180210422054B0901984732
:103AD00010BD0129FCD1802104220901014BF6E728
:103AE000BD4D0000814D0000F0B5040085B00F0011
:103AF000544E0501002957D1102284217519EB7904
:103B000009011343EB71043A4F4B9847842140223B
:103B1000090120004C4B9847390020004B4B984737
:103B200029224B4920004B4B9847822102ABDF1DD5
:103B30003A000123484E09012000B04701262A7AA5
:103B40002E710C253B782A40042A1AD18221033297
:103B50009343053A13433B703A00330009012000B8
:103B60003E4DA8473E4903222000374B984731007D
:103B700020003C4B984760212000344B984705B00B
:103B8000F0BD382282219343283A13433B703A0018
:103B9000330009012000314EB04731492A0020008E
:103BA000294B98470221E3E7182343432E4FFB1884
:103BB00001931B7D002B0BD0019B987C2B4B9847CE
:103BC000002322002A492B482B4FB847019B9874A9
:103BD0002A4B23492000984724236343284A294F2E
:103BE0009A5807231340012B14D1721991788C46EF
:103BF000D1788C4502D9D2791A4210D1C3060ED49D
:103C000060227519EB7993431A0040231343EB713B
:103C100008220DE073199A78DB789A42F0D260227C
:103C20007519EB7993431A00202313430422EB7197
:103C3000842120000901B847842140220901200085
:103C4000B8479CE79C040020BD4D000039390000B6
:103C500022080000C14C0000214D0000794C0000FA
:103C600021080000DD390000740500200D0200006D
:103C70003123000010270000B1010000514D000069
:103C800000000020814D0000F7B56022174C0301B1
:103C9000E5180093EB7906009343EB711823434337
:103CA0000193019A124B9B181A7C032A16D90027FC
:103CB0001F7439000F4B98470F4B3900300098475D
:103CC0000523019A6B700D4B9B182A22DA703C3247
:103CD0005A71009BE4180923A371F7BD01321A74CD
:103CE0000923009A135500236B70F2E79C0400200F
:103CF000740500200D1D0000E93A00002C0500208D
:103D000024224243204B30B5D25800011F4B5207AA
:103D10001CD01A18D1798C060BD59478002C08D1B8
:103D2000D5785479A54204D10421147A2143117223
:103D30001DE04A061BD51A18D178002917D19478AE
:103D400051798C4213D1147A0821EFE71A18D179EE
:103D50008C0606D59478952C03D1D5785479A54254
:103D6000E2D04A0603D51A18D1789529E7D00C215C
:103D70001B181A7A0A4206D06020D9798143D9717A
:103D800002218A431A7230BD000000209C040020EA
:103D9000F8B524230326050043430D4A01219C580E
:103DA0000C4BE4083440E7B23A0098473900280049
:103DB000094B984731002800084B98470622084BCA
:103DC0002D015D19EB79640093431C43EC71F8BD40
:103DD00000000020613A0000ED350000DD390000F0
:103DE0009C04002070B504000021124DA847372222
:103DF000114B12492000984724236343104A9B58D3
:103E000007221340012B06D120000E4B984760215A
:103E10002000A84770BD200000210B4B98472000D0
:103E200001220021094B984703212000084B9847A5
:103E3000EDE7C04639390000C14C000022080000FF
:103E400000000020913D0000ED350000613A0000C7
:103E5000DD3900000E2210B5064C0301E418237A68
:103E600093432372044B98471022E3799343E37101
:103E700010BDC0469C040020E53D0000F8B5134B82
:103E80000701DA199578D379AC4606211C006646FD
:103E9000D5788C437540052D0CD0152D0CD0012DF7
:103EA00005D05579094BDE197571F471F8BD0223FF
:103EB0001C43F7E70423FBE70C431A07F2D50E2255
:103EC00093431C00024B0C439847EBE79C040020F3
:103ED000D5290000F7B5040001911F4E0021B0471D
:103EE000019A1E4D27011E4B012A1DD122210620B9
:103EF000EA19117102395171D17981430800042105
:103F00000143D17102220121200098470C22ED19B2
:103F10002B7A144D1340082B12D120212000B047DA
:103F200001212000A847F7BD4821EA19D079117175
:103F3000083951713A3988430143D1710322E2E7CC
:103F4000042B04D140212000B0470221E9E7602181
:103F50002000B0470321E4E7393900009C04002029
:103F6000613A0000DD39000010B5044C000124184E
:103F7000A079034B98470923A37110BD9C0400202E
:103F80000D020000F7B52B4D0601AA199178D378E0
:103F90000190745D57784B40202B31D013D8022B01
:103FA0000BD8002B35D00123AA19D1790B43D3713B
:103FB000002C04D10027012401E0082BF3D0AC55DC
:103FC000AD196F70F7BD402B1AD00ED8222BF6D842
:103FD0000123AA19D17901980B43D371164B984745
:103FE000022C05D100270324E9E7482BF0D0E6E7AF
:103FF000012CE4D100270198104B98473C00DEE7E4
:10400000022CDCD00124AA19D3790027A343D37151
:10401000D5E713798B42CBD00029C9D1D3790131AF
:104020008B43D3710198044B9847012CE2D0022CAA
:10403000C5D1D7E79C04002039240000693F000067
:10404000F7B51D4C030101931E5DE3189A785D7866
:10405000DB7807005340012B05D0002B1BD0052B2C
:1040600001D0152B12D13800144B9847062E09D1D8
:104070003800134B984700213800124B9847002511
:10408000062603E0072EF6D1012DF1D1019BE6545F
:10409000E4186570F7BD002AF8D10B4B9847062E3F
:1040A00004D13800064B98470225EFE7072EEDD1E3
:1040B000012DEBD10135E9E79C0400207D3E000095
:1040C000693F0000592600003924000073B506003E
:1040D000244B01A89847244C35016219137AD9075B
:1040E00008D55178012901D102315170012162199D
:1040F0008B43137263191A7A920726D5DB79DA0695
:1041000011D53000194B984763191B7A9B071CD5B2
:10411000605D0A2814D801F0F9FE0C0C0C101F1C6D
:104120001C1C13131F0060221342EDD03000104BF3
:10413000E9E730000F4B984702E0032263195A70F9
:1041400002226419237A9343237201A80A4B9847E9
:1041500073BD3000094BEEE7002263195A706255B7
:10416000EEE7C046455800009C040020553E000084
:10417000013D0000853F0000615800004140000003
:10418000F0B5040089B01D00704B00919847704B4A
:1041900022019B18DB6805900493002120006D4BE1
:1041A0009847002D57D0009B002B54D0182565430D
:1041B000694B5D19EB7C002B09D0687C674B9847F5
:1041C0000023220066496748674EB047687400982C
:1041D000664B9847664D674A674B00900191A84728
:1041E000664A674D674BA847674B9847674B80B255
:1041F00098470499664EB047664B984707AF5C4DA9
:104200003880654A654B00980199A8475B4A5C4D28
:104210005C4BA8475C4B98475C4B80B2984704992D
:10422000B0475C4B9847042378803A005C492000F3
:104230005C4DA8470322552120005B4B98473D2544
:104240002A00200059495A4B984701212000414B30
:10425000984709B0F0BD574B0322552120009847DD
:10426000009B002B33D0544B009A9A423BD0002540
:10427000009BAB42E4D018003C4B98473C4D029069
:1042800003913C4A4D4BA8473C4A3D4D3D4BA84706
:104290003D4B98473D4B80B2984704993C4FB847F7
:1042A0003C4B9847324E85B2454A464B029803999B
:1042B000B047324A334B324EB047334B9847334BBB
:1042C00080B298470499B847324B98471DE01822AE
:1042D00001216243204B9B185D780D4034D02000B3
:1042E000394B9847ACE7182262431B4B284E9B186A
:1042F0005B78DB0726D535490498B047254FB8478A
:10430000334985B20498B047B8472A0086B231498C
:104310002000314FB847059B009A0D25934200D8E5
:104320008EE71822012162430B4B9B185B780B42EE
:1043300002D02000244B9847320028492000B8477B
:104340004D257DE72649D7E70D0079E7D51C00000C
:104350009C04002091390000740500200D0200002B
:10436000A935000010270000B1010000357F0000D2
:10437000A1730000666666666666F23F295C8FC2BE
:10438000396D0000F5683840D9620000AD6C00005E
:10439000F5660000A9620000333333333333EB3F5B
:1043A000B4080000794C0000814D00001F08000097
:1043B000A94C0000BD4D0000881300006666EE3F6A
:1043C000CDCCCCCCCCCCF03FED560000000042432D
:1043D00000006143B2080000C14C0000B8080000B2
:1043E00000003443F0B5040085B000217A4B9847B3
:1043F0007A4B002120009847794F01229A21200012
:10440000B847082277492000B847774D00227749FE
:104410002000A847402276492000B847002275496D
:104420002000A847832274492000B847812273499D
:104430002000B8471421724B20009847714A724DF2
:10444000024392B202AB14212000DA80A8478021F7
:104450000122090120006D4B984710236C4A6D49D9
:1044600020006D4EB047230101936C4B22019E1832
:104470006B496C4BF06898476B4B98476B4982B21D
:104480002000A8476A49674BF0689847664B9847F1
:104490008B2182B209012000A84701226549200032
:1044A000B8472423072563430193019A624BD158EF
:1044B0000D4069D0012D2BD1082302AA13711422BB
:1044C00002AB5A710323C908194020005B4B98477F
:1044D0008021042209012000B847574B019A290086
:1044E000D2580323D2081A4002ABDA802000D2B29D
:1044F000534B98470622F3792101934302AAD288AD
:1045000052001343F3710023444A8B5403337370F6
:10451000012303AA4B4920003F4DA84702AA0532B8
:104520003D4D012348492000A84703212000474B67
:1045300098470222464920002B4B984702AB9D1D0D
:104540007D232A002B8043497C3B2000324EB0471C
:104550002A000123404920002F4DA84701212000B7
:104560001E4B98471C4B602120009847242363432F
:10457000314A9B5807221340012B1ED100212000F5
:10458000364B984705B0F0BD0C2302AA13711422D4
:1045900002AB5A7129002000314B984701222900B3
:1045A0002000274B98472900244B200098470523DB
:1045B0001A4A21018B547570AAE718226243294BCD
:1045C00020009B180A221B8927495A43274C92B284
:1045D0000023A047D6E7C0463939000091390000D2
:1045E000814D000001080000A94C000006100000E9
:1045F0004108000007100000110800001508000025
:10460000694D000003060000C14C0000BD4D0000D4
:10461000B286000022080000794C00009C040020B3
:104620000000E041F5660000A96200004E080000AD
:10463000000016433F08000000000020ED35000098
:10464000613A0000170800004A080000DD39000048
:1046500019080000140800001C0800000D1D0000CF
:10466000C13A000074050020881300008141000059
:10467000F0B5040087B0BF4B984705A8BE4B9847DC
:10468000BE4F25017B199A7805A80292DA781B7A29
:1046900003920193BA4B9847E85D092859D801F075
:1046A00049FC0A0052007800EB0058003201590121
:1046B000AB01580031027D196E78012E00D1ACE0BB
:1046C000002E0CD0032E44D1AE492000AE4B9847AB
:1046D000011E3ED168702000AC4B984739E00121A3
:1046E0002000AB4B984731002000AA4B9847242369
:1046F0006343A94AA9499B580322DB08134015329A
:1047000062430193A64B20009B180A221B89A54FE8
:104710005A43330092B2B84731002000A24EB0474E
:104720000322EB795B101340019A934202D02000E0
:104730009E4B984720006021B047904B24011C19E4
:104740000123637005E07E197278002A03D0022AE3
:104750000AD007B0F0BD0223220096209449954C60
:10476000A0470123B071ABE07023019919400B1EE3
:10477000EFD102990398814208D133798B4203D15A
:104780000A237B550021A6E70423FAE77A557370C4
:10479000F8E77B1958780328DBD801F0B7FB022B28
:1047A000404B042120007A4B984701212000824B86
:1047B00098471420002322008049FF307D4EB047E7
:1047C0007B199871029A5B7993420ED110222000D6
:1047D0007B497C4B984701217B19DB790B4202D046
:1047E0002000794B98477D19A2E0102274492000DF
:1047F000764BEFE77023019A1A40102AA9D1744B27
:1048000020007D199847EB79DB0711D522000023A2
:1048100070490A20674CA047A87102232AE00C23A4
:10482000019A1A4200D194E72000694B98477D19FC
:1048300003231FE07B195B79029A554E02219342B4
:1048400000D003212000B0472000524B012198479F
:1048500020000021B04718226243514B20009B18D2
:104860000A221B894D495A434E4C012392B2A0475C
:1048700004237D196B706CE77E197378012B21D0AE
:10488000002B12D0032B00D063E77023019A1A404B
:10489000019200D05DE74E4B200098476B461B7994
:1048A00073706B461B797B5553E720004A4B984742
:1048B000012322003E490A203E4CA0470223B0714A
:1048C000737046E7002120003B4B984700232200ED
:1048D0003A494248374DA8470C23019AB0711A4211
:1048E00003D1F27954331A420BD02000364B002109
:1048F0009847602224013C19E3799343E371022332
:104900001FE70323DCE77D196978012912D000290C
:1049100002D002298CD01CE718226243204B2000D1
:104920009B1819811B4B984701212000184B984771
:1049300001239FE77023019A1A40131E00D008E755
:1049400018216143164A2000521812891349154C48
:10495000A04762E77E197378022B06D0032B41D063
:10496000002B00D0F5E60333F6E6052322001C49B0
:104970000A20F4E6CD400000455800009C040020C9
:104980006158000008080000514D0000ED5600007D
:10499000295700005926000000000020881300005D
:1049A000740500208141000039390000913D00006C
:1049B000C1350000B10100000D1D00005D230000A5
:1049C00021080000BD4D0000E93A0000814D0000C3
:1049D000693F0000893C0000490200008A02000093
:1049E000D53500007023019A1A40102A00D0B0E695
:1049F00000237370073356E77B195878042800D9D1
:104A0000A7E601F08DFA0500A6FE4F005C007A00D3
:104A100005212000764EB0477B19DA79182352071A
:104A2000920F022A2CD0032A2FD0012A04D16343EB
:104A3000704AD3185A221A81029B039A93422AD9A8
:104A40006D49102220006D4B984702217D190127E6
:104A50002000B04739002000694B6F709847200054
:104A60000021B04718236343624A2000D3180A226A
:104A70001B8964495A43644C92B23B00A04768E6E4
:104A800063435C4AD3189622D5E76343594AD31847
:104A900096225200CFE75849102220005B4B9847DE
:104AA0000321D3E720005A4B98472200032359499A
:104AB0000A20594CA0477D19A8710523DAE6702316
:104AC000019A1A4203D001212000544B98470C232D
:104AD000019A1A4204D160227B19D979114209D076
:104AE0004F4B00212000984760227D19EB799343BA
:104AF000EB71E2E704225A702BE605237B557D1902
:104B00000023B7E67B195878042800D921E601F084
:104B100007FA05003200390020FE4C000021200079
:104B2000374B98473F4B002120009847242363438D
:104B30003D4A9E5807231E40012E19D10021200016
:104B40003A4B984700223100394B200098470C23FC
:104B5000019A1A4205D17B19DA7960231A4200D1F1
:104B600041E660217A19D3798B43D371002137E66E
:104B700003220021E8E70C23019A7D191A4200D193
:104B80004BE6E6E57021019B0B40191E00D0E0E5E5
:104B90002000284B9847FA20220004231D4940009A
:104BA0001D4CA0477D19A87142E6242307216343C9
:104BB0001D4A9A581E4B1140012910D1D206920F5E
:104BC0002000984700237B557D196B7020006021E1
:104BD000144B984701212000164B9847B9E5012254
:104BE00000212000984705237B557D190023ECE721
:104BF000295700007405002021080000BD4D000069
:104C0000592600008813000081410000814D0000FA
:104C100049020000C1350000B1010000ED5600005E
:104C2000E93A000039390000000000200D1D0000A5
:104C3000613A000091390000F7B51F000B4B0400EA
:104C40000D0016009847022301A90B708D702B0AE6
:104C50000322074D20004B70A8473A003100200086
:104C6000A8472000034B9847F7BDC046895C000069
:104C7000C15C0000A55C0000F7B50D0016001F0028
:104C80000400064B01A898473B0032002900200091
:104C9000034CA04701A8034B9847F7BD45580000B7
:104CA000394C00006158000013B513006A46073202
:104CB0001370024C0123A04713BDC046794C00007D
:104CC00013B513006A4606321380024C0223A04734
:104CD00013BDC046794C0000F7B51F000C4B0D000A
:104CE0000400160098470B2301A90B702B0A4B7088
:104CF00000230422CB702000064B8D7098473A00A9
:104D000031002000044B98472000044B9847F7BD22
:104D1000895C0000C15C0000115D0000A55C000022
:104D2000F7B50D0016001F000400064B01A89847B8
:104D30003B00320029002000034CA04701A8034B90
:104D40009847F7BD45580000D94C00006158000055
:104D500037B56B46DC1D034D01232200A8472078A0
:104D60003EBDC046214D000037B56B469C1D034D2E
:104D700002232200A84720883EBDC046214D0000E6
:104D8000F0B585B002ABDC1D002305000E000192DA
:104D9000237022000133074FB8472378019A31006E
:104DA0001A432270012322002800034CA04705B0BB
:104DB000F0BDC046214D0000794C0000F0B585B033
:104DC00002ABDC1D002305000E00019223702200BF
:104DD0000133074FB8472378019A3100934323707A
:104DE000220001232800034CA04705B0F0BDC046B7
:104DF000214D0000794C000013B513006A460732BC
:104E0000137030310123014CA04713BD794C0000D1
:104E1000303110B589B2002A03D1034B01329847D3
:104E200010BD0122014BFAE7814D0000BD4D00008D
:104E3000303110B589B2002A03D1034B02329847B2
:104E400010BD0222014BFAE7814D0000BD4D00006C
:104E5000303110B589B2002A03D1034B0432984790
:104E600010BD0422014BFAE7814D0000BD4D00004A
:104E7000F8B5060014001F00FF290ED03031074B93
:104E80000D009847220008237A4098431A400243B5
:104E9000D2B229003000024B9847F8BD514D0000B6
:104EA000A94C0000303110B589B2002A03D1034B60
:104EB0000832984710BD0822014BFAE7814D0000E7
:104EC000BD4D0000303110B589B2034B002A01D12D
:104ED0003022024B984710BD814D0000BD4D0000AF
:104EE0000139C9B210B50023022901D8024B5B5C1D
:104EF00099B2024B984710BDC2860000A94C000031
:104F00000023F7B50400150001934E009A4210D11A
:104F1000043301AA70210C4DA8470323B340019A22
:104F20009A4301922000042301AA7021074CA04754
:104F3000F7BDB540042301AA7021034FB847019B78
:104F40001D430195EEE7C046214D0000794C00005D
:104F5000F7B50E224243164B01269B189F78DA784C
:104F60000F2304009A4339003243124B9847310013
:104F700020002422104B98473900320020000F4BAC
:104F800098476B46BE409D1D2A00DE8020000C4ED7
:104F900002232221B047242120000A4B98472A8867
:104FA0002421024392B22000074B2A809847F7BD84
:104FB0005C860000F94D0000E14E0000014F00004A
:104FC000794C0000694D0000C14C0000F7B50E227D
:104FD00001214243094B0A4F9B189E786A46B14013
:104FE0000632DD781180022322210400B8473022E6
:104FF00031002A402000034B9847F7BD5C86000033
:10500000794C0000C54E00000023F0B585B003AD1B
:105010002B802A0002332221164E0400B0470E22B4
:105020006243154B01219B189A782B8813410B4240
:1050300017D002AB30329E1D01920B003200019955
:1050400020000C4FB84730223388019993433380B6
:10505000320001232000094EB04704212000084BF4
:105060009847200002232A002221044CA04705B0C3
:10507000F0BDC046D94C00005C860000394C0000F1
:1050800049230000F7B50E2704004743194B1A4E79
:10509000FB5C012254210193B047184D20000022EF
:1050A0006821A84720007122C021B047200091222A
:1050B000C121B0470F4B2000DF19BA78C221B04799
:1050C0000126019B20009E40B6B232006A21A8470B
:1050D00032002000D021A84732002000D221A8476A
:1050E00032002000D421A847042255212000044B7F
:1050F0009847F7BD5C860000A94C0000C14C000039
:10510000814D000010B5040002221421044B984781
:105110002000044B98472000034B984710BDC04621
:10512000C14C0000514F00008550000070B50023B5
:105130000C2530260C490D4CCA5C002A0DD1E05CD0
:1051400001280ED00A4AD25C082A06D86A430948C8
:105150008218127A3240102A04D00133022BEBD18C
:10516000002070BD0120FCE705050020A4050020FB
:1051700007050020BC07002009228021084B10B53C
:105180001A54084B073A1A544901074B44329847BE
:10519000064B9847002802D10122054B1A7010BD1A
:1051A00007050020A4050020BD4D00002D51000082
:1051B00004050020F7B504000C4B01A898470C4EDD
:1051C000335D012B0ED10B4D0B4B285D9847092306
:1051D00022002B550949002309480A4FB8470323E9
:1051E0002855335501A8084B9847F7BD455800008E
:1051F000A4050020070500200D02000079510000E1
:10520000983A0000B101000061580000F0B52C4B45
:1052100085B01E5C012304001E4040D1294B03A829
:1052200098470A236B441E806B46DE71264B02AD05
:105230001B5D2E80022B34D002232A001021200077
:10524000224FB8472B88DB0410D50A266E44320063
:10525000022314212000B84733881D4A142113402B
:1052600033803200022320001A4EB04729881A4B9F
:10527000194202D02000194B98472B88DB0602D533
:105280002000174B98472B889B0702D52000154B11
:10529000984701220C4B03A81A55134B984705B0A9
:1052A000F0BD124B98476B46DE1D320001230E21E4
:1052B0002000064FB8473378022BF4D1BCE7C04634
:1052C0000505002045580000A4050020D94C000029
:1052D000FFEFFFFF394C00000106000029360000F7
:1052E00055270000095000006158000001580000D7
:1052F000EFF31083036072B6BFF35F8F7047BFF3A5
:105300005F8F036883F31088704700000449054AE3
:105310000B6A1A40C0231343184308627047C04603
:10532000000800400200FFCF1E22F0B5244B2549A3
:105330001C68254BA60E18684B6893431A0002237D
:1053400013434B60214A224B2249936051605378AA
:10535000DB09FCD182238027DB0153801E4B9D8C0F
:10536000BD439D84DD68ED06FCD59125AD009D848F
:10537000DD68ED06FCD58505AD0DB602354380052B
:105380009D62C00D154D0004E40E2843A40604439D
:105390000220DC629C8C20439884D8684006FCD5AF
:1053A00080235B0093600E4B1940E023DB00194320
:1053B0000F23994351605378DB09FCD1F0BDC046FF
:1053C000246080000040004128608000000C004004
:1053D00001FA00000106230000080040DC0500007F
:1053E000FFE0FFFF022310B5054A51680B435360ED
:1053F000044B98470020044B9847044B984710BD36
:1054000000400041115400000D53000029530000DA
:10541000064B1A7AD2B21A725A7AD2B25A729A7A5F
:10542000D2B29A72DA7AD2B2DA72704700040040CD
:1054300013B50B4C22680192019A2260019A530421
:1054400002D50020074B9847019B1B0402D5012081
:10545000044B984723680193019B236013BDC0460A
:10546000101800400D520000094A0A4B1A80002211
:10547000094B1A700223094A11780B431370102349
:10548000074A1360074A1360074A13607047C04613
:1054900003400000020C00400218004000180040C9
:1054A00080E100E080E200E000E100E070B5051E70
:1054B00021D180241F4AE4011368234313601E4A4C
:1054C000136823431360D0231C4A1B0511680B4348
:1054D000136001001A4B0E20984701210E20194B32
:1054E0009847E0210E200903174B9847174B1A687D
:1054F00014431C6070BD0128FCD180240D4A240295
:1055000013680F20234313600B4A1368234313606F
:10551000D0230A4A1B0611680B4313600021084B75
:10552000984729000F20074B9847F0210F200903C7
:10553000DAE7C04604180040141800401C18004068
:10554000CD5B0000415B0000E95A00000C180040F0
:10555000034B10B59847034B9847034B9847FCE71C
:10556000E55300001D050000B105000010B5FF293E
:1055700006D073239A4313000B225A40014B9847DD
:1055800010BDC046F94D0000F7B505780600002DA6
:105590000BD1194C280062792179184FB8476278ED
:1055A00021782800B847164B984773780193002B51
:1055B00021D1114C114D267D677D31003A0001202B
:1055C000A847E27BA17B0120A847E27CA17C0120C7
:1055D000A847E27DA17D0120A847627E217E0120AF
:1055E000A847E27EA17E0120A847019B3A00310036
:1055F0000120044CA047F7BD5C8600006D550000FB
:1056000001590000714E00000E23F7B543432F4CA3
:105610000193E7187B7805000E1E00930DD10E2331
:105620006B43E15C0823009A2800294FB847002DFE
:105630000ED13000274B9847F7BD274B20219847C4
:10564000BB781841C307EAD5019B195D0023EAE73F
:10565000012DF1D1214B9E422AD015D8002E02D027
:105660001F4B9E42E8D10823E27DA17D2800184E01
:10567000B047627E217E08232800B047E27EA17EEB
:1056800008232800B047D7E7164B9E4214D0164B8C
:105690009E42D1D1E27EA17E002328000C4EB0476D
:1056A000E27DA17D08232800B047627E217EE7E7E6
:1056B000E27DA17D0023D9E7627E217E00232800C0
:1056C000034EB047E27DA17DD5E7C0465C86000071
:1056D000714E00003D5A0000694D00002823000073
:1056E00088130000983A0000204E00000E2242432A
:1056F000064B70B59B180D005A791979044C00239C
:10570000012D00D00823A04770BDC0465C86000074
:10571000714E0000002310B5934200DB10BDCC5C3D
:10572000C4540133F8E700000B1F70B505000C00EE
:10573000012B0ED9012913D100280BD10100274BD1
:105740001C2098471C20264BFF2198471C20254BE6
:10575000984770BD0A0020000221234B9847F8E7C4
:1057600003291ED1002808D101211C201B4B98477A
:1057700029001C201D4B9847EBE700220221012045
:10578000194B9847002202210120194B984700220B
:1057900002210120174B9847012202211000164BCD
:1057A000DCE70229D5D1002805D101211C200B4BB3
:1057B00098470121DDE7002201200B4B984700228A
:1057C000210001200A4B9847002221000120094BAB
:1057D0009847002221000120E1E7C046CD5B000090
:1057E000415B0000615C0000114E0000415C000064
:1057F000314E0000514E0000A54E000001207047C0
:105800000223024A11780B431370704700200042B4
:1058100010B5041E0FD10100074B9847200021004E
:10582000064CA0470648C046C046013880B2002852
:10583000F9D1FF21A04710BDCD5B0000415B000006
:1058400070170000044A10B51368591C1160002B32
:1058500001D1024B984710BD98040020F15200007E
:10586000044A10B51368013B1360002B01D1024BB1
:10587000984710BD98040020FF52000013B5164B46
:105880009847041E0AD1154B5B78DB0706D5144BED
:105890009847002802D0134B1C7013BD01A8124B6F
:1058A00098478023114A5B0011680B430221136063
:1058B0000F4A13780B4313700E4A13788B431370FF
:1058C00014230D4A11690B431361BFF34F8F30BF8F
:1058D0000A4B01A89847E0E72D510000740500200D
:1058E000D51C0000040500204558000000E100E040
:1058F0000D0C00420020004200ED00E06158000065
:105900008023174ADB02116810B50B431360154A58
:10591000154B1A80154A110013785BB2002BFBDB84
:10592000134B00201A78920718D4012218780243EA
:105930001A700B785BB2002BFBDB41220D4BFF2171
:105940001A7002200C4B9847012102200B4B9847FC
:105950000B480C490C4B18605960012010BDC04623
:10596000200400401A400000020C0040074800429A
:105970000048004201480042CD5B0000E95A0000A7
:10598000071A68A0016D6A3F48000020054A137895
:105990005BB2002BFBDB0221034A13788B431370AD
:1059A0007047C04607480042004800420E4A1100B6
:1059B00013785BB2002BFBDB0C4B18800B785BB2CF
:1059C000002BFBDB06230A4A1370C046C046C046C4
:1059D000C046C046C046C046C046C046C046013B61
:1059E0009BB2002BF1D170470748004208480042A3
:1059F00000480042F8B50C4B0F00060098470B4BCF
:105A0000040098470A4D02000B0030003900A847F7
:105A1000084B9847FC21084B89059847002800D07F
:105A20000134A0B2F8BDC046CD7E0000357F000035
:105A3000A17800005D800000956200001A4B10B54F
:105A40000400984224D006D8002810D0174B984262
:105A500011D000240DE0164B98421FD0154B9842F0
:105A6000F7D1154B15481A685B68154908E0154BC6
:105A70009847200010BD104B104813491A685B6806
:105A8000124CA047124B9847124B04009847F0E77E
:105A9000094B11481A685B681049F1E7064B10483A
:105AA0001A685B680F49EBE72823000088130000A1
:105AB000983A0000204E000048000020FCA9F1D2D6
:105AC0004D6203408D5900004D62E43F396D000086
:105AD000F5590000AD590000022B8716D9CEF13FD1
