:020000040000fa
:10000000f01f0020ed720000fb790000ab7b0000c8
:1000100000000000000000000000000000000000e0
:10002000000000000000000000000000e769000080
:100030000000000000000000e7690000e769000020
:10004000e7690000e7690000e7690000e769000070
:10005000b17d0000e7690000e7690000e769000082
:10006000e7690000e7690000bd4b000000000000e8
:10007000000000006d870000e7690000e7690000ec
:10008000e7690000e7690000e76900000000000080
:1000900000000000e7690000e7690000e769000070
:0400a000e76900000c
:020000040000fa
:1000a400f8b5c046f8bc08bc9e467047257a0000e7
:1000b400f8b5c046f8bc08bc9e467047fd79000000
:020000040000fa
:1000c400f0b500260d2791b004000291059231008d
:1000d40003931c2204ab09a81e7308960f2508f08d
:1000e40063fe04ab0e22ff180b2304a952186d18eb
:1000f400200039003b7013702e7008f0ddfc2900dd
:10010400200008f097fd14236343c14d0493ee18b7
:1001140063233f787370002f0cd1049b5b5d002b2d
:1001240008d0200006f074fa0a23f373049bb77016
:100134005f55f77214231a006243a85c11281bd878
:1001440008f0d2fd1200c9015400b500e000a3017b
:100154001a007c016403f1012a0243021a000d0310
:10016400bf03d5030b042a046343ef181e00bb78b6
:10017400002b03d0012b1ad011b0f0bd03223b7326
:10018400bb7b20009343bb7308f0a4f818220c2116
:100194006243a04b20009b185a788a43110008221e
:1001a4000a435a7007f082fd0123bb70e4e70d2374
:1001b40004aa9b181b78022bded10e2204a9521824
:1001c4001278042ad8d10f2252181278002a01d1a9
:1001d400ab55eae70f23ab552f23bb7018236343ba
:1001e4008c4ce41896235b00a380c5e76343e918ad
:1001f4008a78022a23d0042abed1200006f02cfcdf
:10020400b0226243844b9b1881331b78002b02d0ad
:10021400200008f04bf914236343ed1800232b73db
:10022400eb720323ab700223aa7b7c491343ab73a9
:1002340022001323182006f0a7fee8739ce7c87a6f
:1002440002280dd9897bc8060ad5114205d000229f
:100254000921200008f090fd8ee70622ea548be77e
:1002640009aa07a9200005f055fd04ab1a7b01215a
:100274000023200007f03cff14231a006243aa184d
:10028400927b920711d4664e6343ed182b7b0133a6
:100294002b730323ab7009ab0021624a01960092d1
:1002a4000200200003f092fc66e75f4eece7634334
:1002b400ef181e000223ba7b20001343bb736b4666
:1002c400029a998904f01efeb0225443524b1c1921
:1002d400230090335b6895341b021b0c012808d162
:1002e4004022934323701b0a63700423ab550a23f3
:1002f4005be72022934323701b0a63700723ab55eb
:10030400082352e76343ee18b0780a38042800d96a
:1003140032e708f0dffc05003f0031ff13002f0037
:10032400002303211a00200007f0e2fe1423634394
:10033400ed180c233d4eab700023ade7b0236343af
:10034400354a2021d218130090335b6895321b0282
:100354001b0c0b4313701b0a537035490e232200e8
:100364001c2006f011fe14235c430c232c19e073ab
:10037400a37001e7200007f087fb1e200023220062
:100384002c49ff3006f000fe14235c432c19e07363
:100394000b23ede71823322663431e4a2000d218ac
:1003a4001389d1881b040b431b039b0d5e4307f089
:1003b40093fd86420fd1200008f0ecfa00230621b9
:1003c4001a00200007f094fe14236343ed180c2355
:1003d400194eab70b0e7b0235c430f4b10221c19cd
:1003e4002300210090335b6895311b021b0c93435f
:1003f4000b701b0a4b70230000229d331a705a7035
:100404009934023b1a705a7022706270b4e6c04686
:100414003403002078030020c8000020f16f00009e
:1004240002040105317c000002040829040d0913ab
:10043400118c000009850000050f09136343ee18b1
:10044400b378082b00d097e6b37bdb071bd4d64eda
:10045400002304211a00200007f04afeb02363435e
:10046400d24a4021d218130090335b6895321b02a4
:100474001b0c0b4313701b0a537014236343ed18b6
:100484000923ab7058e7ca4ee2e76343ed18ab7833
:100494000f2b00d070e60123aa7b10211343ab730a
:1004a400b0236343c14aa970d218130090335b6828
:1004b40095321b02cb400b4313701b0a5370200070
:1004c40007f06cff0021200006f0eaff072120005e
:1004d40004f0cefa50e66343ee18b378052b12d03d
:1004e400072b00d048e6337b322b07d8f37a022b54
:1004f40013d91222b37b1340102b0ed114235c4367
:1005040006232b5538e607232200aa49962006f035
:100514003bfd0623f073b3702ee614235c430223e1
:100524002b552c1924e763431e00eb189a78132ae1
:1005340007d0152a00d01fe60b22aa5519229a705b
:100544001ae69b7b9b070ed5b0236343974a602131
:10055400d218130090335b6895321b021b0c8b433b
:1005640013701b0a5370200008f014fa0023142699
:100574001a001900200006f0a9fa33006343ed18ad
:10058400eb7a22000133eb728a4915231c2006f012
:10059400fbfcae70e873efe56343ef181e00bb7815
:1005a400162b06d0182b00d0e6e50b23ab551923e8
:1005b400fbe5200008f0eef9182322007d491c20f9
:1005c40006f0e2fc1723f873efe56343ee18b07806
:1005d4001938082800d9cfe508f07cfb090022006f
:1005e4003700cefd4d0052007400a600b400200078
:1005f40008f06efa002803d00021200008f0c4fba4
:100604002000002106f0f4fe002322006a496b4812
:1006140006f0bafc14235c432c19e0731a23a7e6f2
:10062400200007f059fc061e00d0a5e5200008f0c4
:10063400b1f9330022006249192006f0a5fc142305
:100644005c432c19e0731b2392e6200008f040fa67
:10065400002800d090e5200008f09cf9c8201d2354
:1006640022005449800006f08ffc14235c432c19ab
:10067400e0731c237ce614235c431e232c1977e6c9
:100684000f2304aa9b181b78002b0ad0182262435c
:100694004c4b9b189b7c002b03d00121200008f0bd
:1006a40073fb2000012106f0a3fe14200023220086
:1006b4004149ff3006f068fc14235c432c19e073b5
:1006c4001f2355e6200007f007fc3f4b0700984224
:1006d40000d051e5200008f05df9200007f01afc75
:1006e40018230a266343374a3900d3189a88029399
:1006f4007243012392b2200002f036fc0f2304aab5
:100704009b181b78002b18d0029b9b7c002b14d0c9
:10071400002322002d49300006f036fc14235c43ec
:100724002c19e073202323e6200008f0d1f90028d7
:1007340000d121e5200008f02df914235c43212386
:100744002c1915e6220000232149224806f01cfc3e
:10075400142300225c432b1918742a55efe66343d3
:10076400ee18b0782238042800d905e508f0b2fa6a
:10077400050004fd120036003f00002308211a0082
:10078400200007f0b5fc14236343ed182323124e15
:10079400ab70d1e514236343ed1823232200ab701f
:1007a4000449252346e5c0460c000829c80000205a
:1007b400050f0829118c0000098500008a02000039
:1007c400a98600007803002088130000f16000006f
:1007d4007d8900007c1500000d24051014230522da
:1007e4006343ea54ed1810230921ab706fe66b469e
:1007f400029a9989200007f06ffe142305226343af
:10080400ea54ed1810230821ab7060e66343ee1838
:10081400b0782938052800d9aee408f05bfa060060
:100824002900adfcadfc4b003f00b02363436c4a90
:100834004021d218130090335b6895321b021b0cc5
:100844008b4313701b0a5370200008f0a3f8002197
:10085400200008f008fb00230d211a00200007f0f7
:1008640047fc14236343ed182c235e4eab7063e501
:10087400200008f08ff80121200008f0f4fa00238a
:100884000d211a00200007f021ff14236343ed1803
:100894002c23ab700023534e0121fee42d232200b0
:1008a4005149182006f070fb14235c432c19e073a3
:1008b4002c235de514235c4309232b552c191323a6
:1008c40056e56343ed18ab78272b00d054e42000a1
:1008d40008f060f8200008f0dff9002303211a0073
:1008e400200007f005fc2823404eab7024e5634349
:1008f400ef181e00bb78312b22d0322b29d02f2b9e
:1009040000d039e418226243394b9b185b781b07eb
:100914009b0f012b12d1374b0893012200230f2187
:10092400200007f0d3fe14236343ed186b7b324e93
:1009340001336b733023ab7008abade72f4bebe7a0
:10094400322322002e491c2006f01efb3023f873ac
:100954002be41123ab55fff70ffc6b4605999a89dd
:100964002000029b07f0b4f8012811d118220c21b1
:1009740062431f4b9b185a788a43110008220a438a
:100984005a70142300225c432b195a730222e4e6a2
:1009940014235c431123b4e5182163434c430c2115
:1009a400ea181e00124b507b1c1963788b43190004
:1009b40014280dd908230b4363702023917b0b4328
:1009c4009373002353730223ab559370fff7d4fb47
:1009d40004230b4363700f23ab552f23f5e7c04665
:1009e400c8000020082e0913118c0000020209130c
:1009f40078030020018000ff0f31110001a000ffe7
:040a0400f16f00008e
:020000040000fa
:100a0800f0b5040085b004f0c3ff08f0d5f8c44e73
:100a1800250173199a780292da781b7a0392019366
:100a280008f0d4f8a85d09286ad808f05bf90a002c
:100a38006f009300290169006e01ba01d4016900b1
:100a48007b0273195d780193012d5bd0002d0dd0c9
:100a5800032d55d1b349200008f069f9011e4fd183
:100a6800019b5870200006f099fd49e0b0276743c4
:100a7800ad4b1121df193b003a0090335b6895328a
:100a88001b021b0c8b4313701b0a53703b009d33d6
:100a98001d705d70023b1d705d70023b1d705d70c6
:100aa8000121200003f0e2ff2900200007f03afbb3
:100ab8001822bb6903276243db083b4002939b4b28
:100ac8009b499b180a229b8820005a432b0092b20c
:100ad80002f048fa2900200006f08afd019bdb7924
:100ae8005b081f40029b9f4202d0200006f036ffa1
:100af8002000602106f07cfd012324013419637075
:100b080005b0f0bd0223019a5370f9e777197a7896
:100b1800002a11d0022af3d17023019919400b1e23
:100b2800eed102990398814211d13b798b420cd1c5
:100b38000a237355002195e70223220096207d4958
:100b480006f020fa0123b871bee00423f1e77255dc
:100b58007b70efe7731958780328d1d808f0aef8fe
:100b680002293e490121200006f040fc1420002300
:100b780022007149ff3006f005fa73199871029a3c
:100b88005b7993420fd110226c49200007f0e4fcf6
:100b980001217319db790b4202d0200003f0f2f92e
:100ba800751901235de010226449200007f0befc9e
:100bb800eee77023019a1a40102aa1d12000751976
:100bc80007f0ccffeb79db0711d5002322005c4945
:100bd8000a2006f0d7f9a871022342e00c23019af3
:100be8001a4200d18ce7200007f0b8ff75190323db
:100bf80037e073195a79b02363434b4f0299fb18b6
:100c08008a4230d11a00022190325268953312027a
:100c1800120c8a431a70120a5a70200003f026ff39
:100c2800b0226243ba181300012790335b689532eb
:100c38001b021b0c3b4313701b0a53703900200026
:100c480007f070fa18226243384b39499b180a2278
:100c58009b8820005a433b0092b202f083f9042398
:100c680075196b704ce71a0002219032526895335f
:100c78001202120c0a431a70120a5a700321cce7a6
:100c880077197b78012b21d0002b12d0032b00d0b1
:100c980036e77023019a1a40019200d030e720000d
:100ca80007f05cff6b461b797b706b461b797355ad
:100cb80026e7200005f0aafc012322001d490a208e
:100cc80006f060f90223b8717b7019e70021200053
:100cd80006f08cfb0023220017491a4806f052f947
:100ce8000c23019ab8711a4203d16023fa791a4287
:100cf80009d00021200003f045f960227519eb792d
:100d08009343eb7168e70323dee7751969780129d6
:100d180037d0002918d0022900d168e7f0e6c0468c
:100d28000803002008080000c800002078030020fd
:100d380088130000b18c000009850000210800001c
:100d4800196500008a02000018226243bc4b20008b
:100d58009b18998007f0e6f9b0236343b94a012646
:100d6800d218130090335b6895321b021b0cb343f7
:100d780013701b0a53703100200003f077fe6e7069
:100d8800bee67023019a1a40131e00d0b8e6182157
:100d98006143ab4a200052189288ab4902f0e2f84e
:100da8001ae777197b78022b06d0032b09d0002b82
:100db80000d0a5e60323c0e605232200a3490a20a4
:100dc800bee67023019a1a40102a00d098e6002344
:100dd8007b7007236be773195878042800d98fe6ce
:100de80007f076ff05008efe70007d009b007319ea
:100df800da79934f5207920f1823022a43d0032a15
:100e080045d0012a03d15a226343fb189a80029bda
:100e1800039a934240d910228d49200007f09cfb89
:100e2800b0226243874b02219a18130090335b6803
:100e380095321b021b0c8b4313701b0a5370200046
:100e480003f014feb02262437e4b01219a1813006e
:100e580090335b6895321b021b0c0b43137075199a
:100e68001b0a53706970200007f05cf918230a22e6
:100e78006343ff18bb8874495a43200092b2012388
:100e880002f070f83ce663439622fb18bee7962210
:100e980063435200fb18b9e710226d49200007f0a0
:100ea80045fbb0226243674b02219a181300903326
:100eb8005b6895321b021b0c0b4313701b0a5370a3
:100ec8000321bce7200005f0a1fb032322006149b0
:100ed8000a2006f057f87519a8710523c1e6702392
:100ee800019a1a4203d00121200006f057fb0c2377
:100ef800019a1a4204d160227319d979114209d092
:100f08000021200003f03ef860227519eb79934325
:100f1800eb71e2e704225a70f2e50523735575195f
:100f280000239ee673195878042800d9e8e507f0ed
:100f3800cffe05003c004300e7fd560000212000dd
:100f480007f0f0f80021200006f052fbb0226243bf
:100f58003c4b9b189f6907231f40012f22d100217a
:100f6800200006f043fa0021200006f06bfa042264
:100f78005521200007f0f0fa00223900200006f081
:100f880061fb0c23019a1a4205d17319da7960239f
:100f98001a4200d104e660217219d3798b43d371c8
:100fa8000021fae503220021e8e70c23019a1a42fe
:100fb80000d0a5e575190fe67021019b0b40191e9d
:100fc80000d09de5200006f0cffefa200423220081
:100fd8002049400005f0d6ff7519a87107e6b02230
:100fe80007276243174b9b189a691740012f1bd19b
:100ff800d206920f3900200006f024fb0023735517
:101008007519390020006b7006f01cfa042255216e
:10101800200007f08bfa2000602106f0e9fa012190
:10102800200006f0a1fe6be501220021200006f059
:1010380009fb05237355002375196b70ebe7c04650
:1010480078030020c8000020881300004d8b0000a2
:0810580021080000b18c00002a
:020000040000fa
:10106000f7b50d0009036c00ed0f0095490a450f17
:1010700029431d035e00c700d80f6b0a550f2b4391
:10108000c14d640d760dd200ae4203d11d008446e1
:10109000154302d101254540ac46009da01bac453f
:1010a00000d036e1002861dd002e25d11d0015435a
:1010b00000d196e2461e002e19d1ba18ba42a441b8
:1010c000c91864420919170001240b0200d4bee0bc
:1010d000ad4b01349c4200d180e2ac487b0801401a
:1010e000012007401f43c80707434908afe0a64d4a
:1010f000a84209d1a44caae0a34dac4200d1a6e07d
:10110000802506002d042b43382e2adc1f2e17dce9
:1011100020201d00801b8540ac4615000190f54045
:10112000604605430198f3408240501e82411543ba
:10113000ed195b18bd428941494259182f00c4e797
:1011400030001d002038c5400020202e03d0402054
:10115000861bb34018000243501e824115430023f2
:10116000e6e71a4315006a1e9541f8e7002850d0bb
:10117000002c14d10c003c4300d128e2c443002cc5
:1011800007d1bf189742a441c91864420919340015
:101190009be77d48864209d119001700aae77a4cdf
:1011a000a642f9d04442802000040143382c2bdcb5
:1011b0001f2c17dc2025281b01900800019de14011
:1011c000a840844638006546e0402843019daf4072
:1011d0007d1eaf413843871897429241c918524249
:1011e0008918d4e720000d002038c54028000025cc
:1011f000202c03d040252c1ba1400d002f437d1e29
:10120000af4138430021e6e70f433800471eb8419d
:10121000f8e7661c75056d0d012d00dd69e008001d
:101220003843002c49d1002800d1d3e118001043e5
:101230000dd0ba18ba42b641c9188023764289192e
:101240001b041700194202d00124504b19407b07a0
:1012500009d00f233b40042b05d03b1dbb42bf41af
:101260007f42c9191f000b0206d5474b01349c422f
:1012700000d1c3e1454b1940434b4807ff083843b1
:10128000c9089c4206d103000b4300d1b9e1802379
:101290001b031943002709033b0d1b05090b1943c9
:1012a0003b4b6405194064080c43009b6400d9075c
:1012b00064080c43210003b0f0bd002800d16be7a7
:1012c0001800104300d115e74807ff0807438020a6
:1012d000c9080003014207d0dc08044204d1d20847
:1012e0005b0713431f002100780fc9000143ff0073
:1012f00000e7254ca64200d16fe1ba18c918ba42de
:101300009b415b42cb18df07520817435908340052
:101310009de700285ddd002e3cd11d00154300d166
:101320005fe1461e002e0ed1ba1a9742bf41c91a7c
:101330007f42c91b012417000b0200d487e7490232
:101340004d0a3e00f9e0104da84200d1d2e6382ef9
:101350003adc1f2e27dc20201d00801b8540ac4678
:1013600015000190f540604605430198f340824026
:10137000501e824115437d1bcb1aaf428941494221
:10138000591a2f00d8e7c046ff070000ffff7fff74
:10139000ffff0f809c4dac4200d158e780252d0403
:1013a0002b430600d3e730001d002038c540002045
:1013b000202e03d04020861bb34018000243501e4d
:1013c000824115430023d6e71a4315006a1e954152
:1013d000f8e700284dd0002c17d10c003c4300d179
:1013e00001e1c443002c09d1d71bba429241591ada
:1013f00063465242891a340000939de78248864230
:101400000ad119001700804c45e07f4ca642f8d065
:101410004442802000040143382c25dc1f2c11dcc1
:101420002025281b00900800009de140a8400500f1
:101430003800e0402843009daf407d1eaf41384357
:10144000171ad2e720000d002038c54028000025db
:10145000202c03d040252c1ba1400d002f437d1ec6
:10146000af4138430021ebe70f433800471eb84136
:10147000f8e7601c4005400d01284cdc18000d0009
:1014800010433d43002c24d1002d07d1071e00d16d
:10149000ade01900170063460093d8e6002800d19c
:1014a000d5e6bd1aaf42b641c81a7642801b8026e7
:1014b0003604304206d0d71bba429241591a5242e2
:1014c000891ae8e72f00074300d190e001002f00c0
:1014d000bde6002d07d1071e00d18be01900634641
:1014e0001700009306e6002800d103e64807ff082e
:1014f00007438020c9080003014200d1f4e6dc085c
:10150000044200d0f0e6d2085b0713431f00634695
:1015100021000093e8e6be1ab7428041cd1a40424e
:101520002d1a8020000405422dd0d61bb242ad41b9
:10153000591a63466d424d1b0093002d29d0280097
:1015400006f080fd0300083b1f2b27dc2022310022
:101550009e40d21a9d40d14037000d439c4232dc60
:101560001c1b661c1f2e1edc20233a0029009b1b1f
:101570009940f2409f400a43791e8f412900f14073
:101580001743002463e637002f43d6d139003c00cf
:101590002ee0300006f056fd2030d3e73500283825
:1015a00085400027dae72a001f3ce2400023202e76
:1015b00003d040239e1b2b00b3401f437b1e9f4143
:1015c00000211743dde71149e41a29403fe61900dd
:1015d00017009ce61900170039e60b4c00210f009c
:1015e00035e6040033e619001700340053e73900ec
:1015f00000972ce68021044cc903f9e700210f0075
:101600003ae6190046e6c046ff070000ffff7fffed
:10161000f0b58bb0060004930400cb0f0d03480017
:1016200000922d0b400d0393029346d0584b9842e5
:1016300067d08023720f1b04ed0013432b431f0060
:10164000544bf400c31800260193049b009a1d0319
:101650005800db0f2d0b400d069361d04c4b984288
:1016600000d181e08023520f1b041343ed001d4382
:10167000484a009b8218db00944600220698039992
:101680004140604604910199091ab00010430138a5
:1016900005910e2800d981e007f028fb750049026a
:1016a000ed0149023d024902ed01750075003d0260
:1016b000ed01fc01fc01fc01e2012f00374327d0c2
:1016c000002d13d0280006f0bdfc01000b391c29a9
:1016d00011dc02001d2337003400083a5b1a9540e4
:1016e000df4094402f432c4b1b1aace7300006f030
:1016f000a9fc2030e9e70300283b9e400024370086
:10170000f1e72e43371e07d02f00019003269ce7f8
:101710003c000197012698e734000190022694e7e7
:10172000009b2b4327d0002d13d0280006f08afc05
:1017300001000b391c2911dc1d2302005b1a0099e2
:10174000083ad940009b954093400d43124a121a23
:1017500092e7100006f076fc2030e9e70300009dd8
:10176000283b9d400023f1e7009b2b4307d013004b
:101770008446032282e71d009c4601227ee71d006d
:10178000844602227ae700252c00014b4ee1c04638
:10179000ff07000001fcffff0dfcffffaf4204d874
:1017a00000d057e19c4200d254e1f907620811438e
:1017b000e0070c0001907f082d021a0e2a431b023d
:1017c0000293130c03936b4600921b880399380015
:1017d000079304f003fc0600079b0690039938006a
:1017e0005e4304f037fc250c09040d43069fae420e
:1017f00009d9009b013fed18ab4204d8ae4202d993
:10180000069fed18023fab1b03991800069304f0e6
:10181000e5fb079e050046430399069804f01afc71
:10182000a4b209040c432a00a64208d9009b013a3d
:10183000e418a34203d8a64201d9aa1ee4183b0427
:1018400002991343029a0904120c090c089206919a
:10185000089d06989ab2a61b1c0c514360436a432c
:101860006c4312180d0caa18904202d98020400235
:101870002418100c09041204090c04195218a64269
:1018800005d31f00a64227d10199914224d2029884
:1018900001998446614401918142894100984942fd
:1018a000091876185f1eb04204d315d1614601981d
:1018b000814211d8b44203d80ed101998a420bd982
:1018c00002999f1e8c46019b634401938b429b416e
:1018d00000995b425b18f618019b341b9b1a099315
:1018e000099a019b93429b415b42e41a009ba342ed
:1018f00000d1d2e00399200004f070fb079d0600a0
:1019000045430399200004f0a5fb099b09041c0c26
:101910000c430196a5420cd93300013b0193009b77
:10192000e418a34205d8a54203d9b31e0193009b36
:10193000e418641b0399200004f050fb079d060087
:1019400045430399200004f085fb6b460a04998cfb
:10195000330011438d4208d9009a013b89188a420d
:1019600003d88d4201d9b31e8918019a089c12042c
:101970001a43100c93b24d1b16000699069a414368
:101980005a43634360435b18140ce318994202d92d
:10199000802149024018190c12041b04120c08186b
:1019a0009b18854204d3340085421bd1002b1bd0e9
:1019b000009a741e5519aa420fd8a84203d811d113
:1019c000029a9a420bd2029ab41e5100914292415d
:1019d000009e52429219ad180291854202d1029a9c
:1019e000934201d001231c43059b564a9b18002bb0
:1019f00056dd620709d00f222240042a05d0221d9d
:101a0000a242a44164423f191400fa0106d5802283
:101a1000d20094464c4b1f40059b63444b4a934273
:101a200000dd88e0e40879070c43fd0800212d0360
:101a30000a0d12052d0b1543454a5b0515405b0841
:101a40002b43049a5b00d2075b0813432000190064
:101a50000bb0f0bd059a013a059200220192abe667
:101a60008022120317425ad0154258d12f001c0071
:101a7000069b029353e02f0016001c00069b049364
:101a8000022e58d0032e50d0012eadd100242500b7
:101a90002300cbe7039b0493f2e701246442a3e70e
:101aa0000122d21a382af1dc1f2a21dc202320004f
:101ab0009b1a39009c403d009940d040631e9c41d8
:101ac000d54001430c43630709d00f232340042b67
:101ad00005d0231da342a44164422d191c0080237c
:101ae0001b042b402ad16907e4080c43ed089de74d
:101af0001f214942cb1a3900d9400b000021202a6e
:101b000003d040218a1a390091400c43611e8c4158
:101b100000251c43d7e7802700243f03029480253b
:101b2000029b2d033d4304932fe6049ba1e7002570
:101b30002c002b007ae70024250026e6002501234f
:101b40002c0073e7ff030000fffffffefe0700000d
:101b5000ffff0f80f0b58bb001920593ca0f0c0305
:101b60004b000600240b5b0d0492039245d0c64a3d
:101b7000934265d08022410f12040a43e4001443cb
:101b8000c24ac5009b1800270293059b019a1e03b9
:101b90005800db0f360b400d059360d0ba4b9842ce
:101ba00000d180e08023520f1b041343f6001e4334
:101bb000b64a019b8218db009446002205980499de
:101bc000414001910299b8006144104307910138e6
:101bd000013106910e2879d807f088f87400740056
:101be0007b0171017101bc017b017101bc017101bb
:101bf0007b016f016f016f0164012500054326d051
:101c0000002c13d0200006f01dfa01000b391c290e
:101c100010dc1d2302005b1a31003500083a9440a5
:101c2000d94095400c439a4b1b1aace706f00afad0
:101c30002030eae703003400283b9c400025f2e70f
:101c40000500254307d00500029303279de72c00dc
:101c50000295012799e72c000293022795e7019b43
:101c6000334327d0002e13d0300006f0ebf90100eb
:101c70000b391c2911dc1d2302005b1a0199083a5b
:101c8000d940019b964093400e43814a121a93e734
:101c9000100006f0d7f92030e9e70300019e283b49
:101ca0009e400023f1e7019b334307d01300844695
:101cb000032283e71e009c4601227fe71e00844624
:101cc00002227be734001d001700f8e0190c9bb2dc
:101cd000029119002a0c514318008c46029f029968
:101ce000adb2684351436f4304916744010cc91975
:101cf00003908c4506d9049f380080277f02bc469c
:101d000060440490684680890f0c09040918099101
:101d1000310cb6b2039130003100bc46039f6943d9
:101d200050437d437a432d180f0c7d19a84202d9e8
:101d3000802040021218280c82182d0489b20592c6
:101d40006a1808921800089962468c46029f210c76
:101d5000a4b260434b43674362449446029dff181c
:101d6000020cd2194d43934202d980235b02ed1835
:101d70003700130c5b190293039b67434e435c438c
:101d80005943a4193b0c120480b21c191018a64226
:101d900002d980235b02c918049b220463441e00fd
:101da000089bbfb29e42ad418619d2198642bf41ff
:101db0000298059b84466d42d218ab189c4403934d
:101dc000059b60469a429241039b5242ab429b4123
:101dd0005b427f421a43029b3818240c1219b84206
:101de000bf419c45a4417f4264423c43141964189e
:101df000c30d64021c43099b75021d43691e8d417e
:101e0000f60d354340020543e30167d501226b0817
:101e100015401d43e307d4401d43069b1d4a9b18f4
:101e2000002b5edd6a0709d00f222a40042a05d064
:101e30002a1daa42ad416d4264191500e20106d582
:101e40008022d2009446144b1c40069b6344134ae4
:101e5000934200dd8be06207ed081543e4080021a2
:101e600024030a0d1205240b14430d4a5b0514408c
:101e70005b082343019a5b00d2075b0813432800e9
:101e800019000bb0f0bdc046ff07000001fcffffca
:101e90000dfcffffff030000fffffffefe07000039
:101ea000ffff0f8080221203144257d0164255d1f3
:101eb00034001d00059b039350e0049b0193022f07
:101ec00055d0032f51d0012fa7d100252c002b0076
:101ed000c5e71d00059b34000193f5e6079b0693bb
:101ee0009be70122d21a382aefdc1f2a20dc2023ac
:101ef00021009b1a28009d409940d0406b1e9d41b7
:101f0000d44001430d436b0709d00f232b40042b12
:101f100005d02b1dab42ad416d4264191d008023dd
:101f20001b04234000d196e700240123250096e7f7
:101f30001f214942cb1a2100d9400023202a03d077
:101f400040239a1a230093401d436b1e9d41002499
:101f50000d43d8e7802400252403039580231b0329
:101f60001c43039b0193034b79e7019ba3e70025e7
:081f70002c00f8e7ff07000058
:020000040000fa
:101f7800f0b509278fb0059304abff180b230a248b
:101f88003b7004abe4180500ff2304911c220021d8
:101f980007a8237006f006ff22003900280006f083
:101fa80089fd3b78c94e053b012b0ad814236b43a6
:101fb800f25c123a012a04d90021f218d1721222d5
:101fc800f254142423006b43f05c12380b2836d8e3
:101fd80006f088fe0c00190037004d007400a100bf
:101fe800b100c500e0003b0153016a01280006f07a
:101ff8006ff9142341215d437219937b8b439373cb
:10200800132373551be0280005f064ffb04b010053
:10201800984214d13b78072b11d118226a43ad4b53
:1020280028009b180a229b885a43012392b200f089
:1020380099ff14235d43735533237519ab700fb0a3
:10204800f0bd6c433419a378332bf8d1e37a022b13
:1020580007d8d22043232a009f49ff3004f092ff7b
:10206800e0731424342365437619b370e7e723003b
:102078006b430393f7180023fb726b46049a998a03
:10208800280002f029fa2b0018225343914ded182d
:10209800ab8969891b040b430bd1bb7bdb0704d5d8
:1020a800039bf2543c23bb70c9e7039bf4543323ce
:1020b800f9e71623039ab3543523f4e76c4336192a
:1020c800b378352b0ad0372bb9d143232a0082495c
:1020d800182004f057ff3823f073c6e700230122c5
:1020e8000221280006f002f818226a43794b9b184f
:1020f8005a8908339b881b04134307933623b3700c
:10210800764b0193764b02000093002107ab280021
:1021180001f05afd93e76c433619b378392b00d098
:102128008de7fa2043232a006b49400004f02aff78
:102138003a23f07399e76c433619b3783b2b00d0f8
:102148007de7280006f028f90123b27b0721134315
:10215800b3733c232800b37002f088fc6fe76c432c
:102168003719bb78432b00d069e7280006f010fc2c
:102178004023ba7b28001343bb7300231a001900bd
:1021880004f0a2fc1a2333554523bb70fb7a0133b4
:10219800fb7254e76c433419a0784538032800d9fa
:1021a8004de706f08bfd021b2934142440236c43b1
:1021b8003619b27b28001343b37306f087fc002856
:1021c80018d00021280006f0ddfd00232a0045492b
:1021d800192004f0d7fe4623f07346e7280006f0de
:1021e80075fc002800d02ae71424280006f0d0fb4c
:1021f80065437619472338e71424002328006543ec
:102208001a00190000f0aefe761948232de72800c1
:1022180005f060fe031e00d011e7182169432d4a1e
:102228002800521891880a224a43294992b200f09c
:1022380099fe280005f06cfe142340215d437219b5
:10224800937b8b4393731223dbe66c433619b37885
:10225800492b00d0f3e60b2404abe41807aa2100ad
:10226800280006f009fa002322780421280005f046
:102278003dff4a23b3701c4b43e76c433619b378d0
:102288003d2b00d0dbe6280006f082fb0021280069
:1022980006f0e7fd002303211a00280005f026ffb9
:1022a8003e23b370114b2ce76c433619b3783f2ba0
:1022b8001ed0412b00d0c2e643232a00064918202d
:1022c80004f060fe4223f073cfe6c04634030020da
:1022d8008813000078030020f16f000016371d3fb7
:1022e800317c0000a9860000183c1d3f14331943b7
:1022f800280006f04dfb0021280006f0b2fd00235f
:102308000d211a00280005f0f1fe4023b370014b9f
:08231800f7e6c0461d41194320
:020000040000fa
:10232000f7b50400072900d19ae006d8012922d088
:10233000002901d003290ed9f7bd092900d16ae18e
:1023400000d25be1ef29f7d105f0faffb84b22018b
:102350009b18598814e1b64d0301ed18a98806f0c1
:1023600091fa01232a7b1343b24a2b731378591c29
:102370001170eb72e0e7ae4f0601bb191a7a911e9d
:1023800002294fd8f55b9b88ed1aadb2bb195b7a79
:10239000052b03d1a84b187806f074f8be19337ad0
:1023a000012b02d0200005f045fac322a34b5200b6
:1023b0009b5a2000ed18a14b9d5200252301fe18c9
:1023c000357305f013fd2301fd520123737233723f
:1023d000b372b0236343994a994fd3181a009b33c1
:1023e0009d32f5727580157055701d705d70bb7ae9
:1023f000ab420ed03b7aa34205d1787a05f014fdaa
:10240000a84214d0bd728e4b5a7aa24201d100224a
:102410009a72200006f00cf9002800d08ce706f034
:102420001bf989e70025052ab0d15d88abe7787aea
:1024300004f032f8051ee6d1c322804b5200995aaf
:1024400073882000c91889b206f01cfa0322022101
:10245000200006f0f7f9c322784b52009d52d1e7d5
:10246000182202264243774b714d9b181989da884e
:102470000904588911439a892301ed182b7b120412
:102480000243334200d1a1e06f7a032f1fd1200015
:1024900003f0e8f810222b7b13420cd0200005f04b
:1024a0004fff10222b7b3900934301222b73200016
:1024b00006f0c8f9b3e76248ef23220062490068da
:1024c00004f064fd05225c4b187002218be0042fa0
:1024d00045d1200003f0c6f8200005f031ff2b7b2a
:1024e000102219001140019104d093432b73012253
:1024f0000321dce739000122200006f0a3f9504f48
:10250000bb7a002b27d03b7aa34200d014e7787a1d
:1025100005f08afc002803d06b461b79bb720be7e1
:10252000787a03f0b9ff041e00d005e7c322434bbd
:102530005200995a6b88787ac91889b206f0a2f9c4
:102540000322787a310006f07df9c3223b4b52001a
:102550009c52bc72f0e6200005f06cf95fe7052f95
:1025600013d1200003f07ef8334b187805f08aff72
:10257000200005f0e5fe10222b7b1342b5d16988bf
:10258000200006f07ff904229fe720006f8803f007
:1025900069f82b4b9a7a002a0cd05b7aa34200d0c0
:1025a000cae6c322254952008b5aff186b88ff1ace
:1025b0008f52c1e669888f4200d8bde6c3231f4a07
:1025c0005b00d05a3f187f1ad752d9e7200003f09a
:1025d00049f82b7b20001e432e7306f029f80028b3
:1025e00005d001220321200006f02cf9a4e6ab7ae5
:1025f000012b0cd1200006f035f99de60c4b0201b1
:102600009b189a7a022a00d096e603229a7220003a
:1026100004f022fc90e6064b02019b181a7bd207bd
:1026200000d489e69b7a022b00d085e6e2e7c0461b
:10263000d0020020c005002074030020c800002044
:0c26400028030020780300204b8e0000cf
:020000040000fa
:10264c00f0b50127b84a0301d3181b7a87b00400f0
:10265c000e00019339423ed004ab5d1d2a003b00b5
:10266c00b24905f007fd2b787f2b05d93b002a00da
:10267c00ae49200005f070fd2b789b070dd004aa05
:10268c0002230632aa49200005f0f4fc04aa022316
:10269c000632a749200005f05ffd0223019aa549e7
:1026ac001a43019204aa951d2a00200005f0e2fcb1
:1026bc00b0226243a04b9b18996907232201194051
:1026cc002b88012900d0ade097498a18d9431b0a01
:1026dc00db439170d37073051fd504ab5d1d2a00cd
:1026ec0001239649200005f0c5fc2b785fb2db076f
:1026fc000bd50c23019a9a43019218226243904bfa
:10270c009b180822d97c0a43da7401232a008b49ce
:10271c00200005f021fd002f01dbb3057ad504abb9
:10272c005d1d2a0001238749200005f0a3fc182316
:10273c0001276343824ad3185b7822013b40029302
:10274c002b7800250392ab420cd17023019a2900ff
:10275c009a432000019204f01fff029bab4266d00b
:10276c00750a3d4004ab5f1d3e78012e14d1029bcf
:10277c00002b00d06de06c4b22019b5c072b0bd126
:10278c00200006f067fa002806d1019b3100334384
:10279c002000019304f000ff3b78052b5bd1029bda
:1027ac00002b11d17021604b22019a18137a0b4027
:1027bc00102b00d1b4e05c4b21015b5c072b03d1e7
:1027cc005378012b00d0abe004ab9d1d00232a00f5
:1027dc002b805d490123200005f04cfc2b889b06c7
:1027ec000ad518226243564b9b181a7d002a03d136
:1027fc000222d97c0a43da7404aa01230532534914
:10280c00200005f037fc04aa012305324f492000b3
:10281c0005f0a2fc444b24011c196b461b79237256
:10282c0007b0f0bd40498a1893701b0a52e73e4b23
:10283c0022019b5c029d072b00d093e7200006f041
:10284c0009fa051e03d1019b3b4301938ae7029dc4
:10285c0088e7029da0e7012db6d010221a40029203
:10286c0006d018236343364ad318d97c0122c1e71a
:10287c00202293430d2bbfd17023019a34499a43e4
:10288c0004ab9d1d019202232a00200005f0f2fbef
:10289c00288804f08bf92f4a2f4bfff755f9224a61
:1028ac002301944663449a680600187b120a0006ba
:1028bc0010430f0003f004f90b0002003900300044
:1028cc00fef7a0fe05f064fc80b22880b0256543bd
:1028dc00194e32277319a3331b7802999c46cbb23d
:1028ec00634510d28a0052199219526d01311203ac
:1028fc00920d7a439042f2d80133019adbb21b015c
:10290c001343dbb20193182262430d4b9b185b7887
:10291c00db0700d470e70021200004f03dfe6be7dc
:10292c00012d00d068e74fe70803002003080000e2
:10293c000408000006080000c80000200a08000077
:10294c0078030020080800001f0800000908000098
:0c295c00b2080000295c8fc2f56838400a
:020000040000fa
:102968001423f7b51a004243b44e0400905d1f3893
:1029780009285cd806f0b6f94c0064008f009e0068
:10298800c900ec0007010a00300029016343f3186d
:102998009b78562b4bd1002310211a00200005f0fc
:1029a800a5fbb0226243a64b9b1807229b691340e4
:1029b800012b0fd0a34914236343f6185723b37090
:1029c800a14b01910093002302001900200001f09f
:1029d800fbf82ce09d49eee76343f3189b78582bee
:1029e80025d1002304211a00200005f07ffbb02226
:1029f8006243934b9b1807229b691340012b05d018
:102a0800904914236343f6185923d8e78f49f8e708
:102a1800200006f05bf800280ad1182262438c4b8c
:102a28009b189b7c002b03d1200005f043fbf7bdce
:102a380014235c43202333554d233419a370f6e740
:102a48006343f7181d00bb784d2b0bd04f2beed1ed
:102a5800200006f03bf8002819d0212373554b239a
:102a6800bb70e4e7002303211a00200005f03efbb9
:102a780018226243764b9b185b78db0705d47549af
:102a880014236343f6184e2399e77349f8e7232381
:102a980073555223e4e76343f618b3784b2bc6d13a
:102aa800132322006d49322004f06cfa4c23f07392
:102ab800b370bce76343f7181d00bb78502b14d0e4
:102ac800512bb4d1200006f001f80028afd1200026
:102ad80005f05eff182254435d4b1c196378db0731
:102ae80010d5052373551023bae70021200006f0fe
:102af80049f9002322005a49192004f043fa5123c6
:102b0800f873ade772553c23aae76343f7181d0035
:102b1800bb78522b0fd0532b00d088e7200005f04c
:102b2800d5ff002800d182e7200005f031ff2423db
:102b38007355542394e70121200006f023f900235c
:102b4800220048494b2004f01dfa5323f87387e705
:102b58006343f3189b78542b00d068e700230621c1
:102b68001a00200005f0c2fa18226243384b9b185d
:102b78005b78db0705d4334914236343f6185523e0
:102b88001de73249f8e703250b689b092b4200d063
:102b98004de718210a0062432d4b9b1858781423df
:102ba80082082a405c43012a0ad1104204d0052336
:102bb80033553419102341e731553c2334193de787
:102bc800262333553419562338e76343f7181d0075
:102bd800bb785a2b11d05c2b00d028e720000021ad
:102be80004f0d6fd18236343194ce4186378db0717
:102bf80020d50b237355192332e7a0230a68db0578
:102c08009a420ed10121200004f0c2fd5c2322006b
:102c180015492d2004f0b6f914235c435b233619bb
:102c280046e70c226243114b9b181022997a0a43fb
:102c38009a72f1e71a237355452311e734030020ec
:102c4800c8000020183c1d3f317c000005100829f1
:102c580078030020204f1d3f204f0829f16f000006
:102c6800a9860000f1600000118c00005c030020c0
:020000040000fa
:102c7800f7b543024a025b0a520a4e004400019328
:102c880000939446240ec50fdb00360ec90fd20000
:102c9800ff2e01d1002a01d101204140a01ba942e9
:102ca80000d0a1e000282edd002e18d1002a00d186
:102cb8004ae1411e00290ed101249b185a015bd517
:102cc8000134ff2c00d13de10122a4491a405b08e0
:102cd8000b40134350e0ff2807d1ff244ce0ff2ca2
:102ce8004ad08021c9040a4301001b2901dd0122c1
:102cf80007e010002026c840711a8a40511e8a41f8
:102d080002439b18dae7002821d0002c0cd1002bb5
:102d180007d0c043002802d19b183400cee7ff2e0d
:102d280008d11300340027e0ff2efad08021c9040f
:102d380040420b431b2801dd0123ede71900202445
:102d4800c140201a8340581e83410b43e4e7611cad
:102d5800ff260f003740012f3fdc002c2bd1002b22
:102d680000d1eae0002a07d09b188022d20413423f
:102d780002d001247a4a13405a0704d00f221a407d
:102d8800042a00d004335a0105d50134ff2c00d1a0
:102d9800e1e0734a1340db08ff2c04d1002b02d07a
:102da8008022d20313435b02e4b2e405580aed071c
:102db80020432843febd002b00d1c0e03400002a88
:102dc800dad08023019adb031a4203d062461a4202
:102dd80000d10092009bdb007fe7ff2900d1b0e023
:102de8009b185b080c00c7e7002826dd002e13d1ce
:102df800002a00d1a8e0411e002906d101249b1a0f
:102e08005a01b9d59b019e097ae0ff2800d164e7f1
:102e18001b2908dd01220ee0ff2cadd08021c9045a
:102e28000a430100f4e710002026c840711a8a40be
:102e3800511e8a4102439b1ae2e7002822d0002c47
:102e48000dd1002b08d0c043002803d1d31a340079
:102e58000d00d5e7ff2e08d11300340020e0ff2e27
:102e6800fad08024e404404223431b2801dd0123d7
:102e7800ece71c002025c440281a8340581e8341d3
:102e88002343e3e7ff20661c0640012e31dc002cbb
:102e980017d1002b06d11d00002a00d16ce71300c2
:102ea8000d0069e7002a00d166e78026981af60423
:102eb800304201d0d31af3e7031e00d05ce71d00af
:102ec8005ae7002b04d1002a40d013000d0004e774
:102ed8000400002a00d14fe78023019adb031a423d
:102ee80000d177e762461a4200d073e700920d00de
:102ef80070e780209e1ac004064215d00d00d61a2d
:102f0800300005f09bf8330005388340844210dc1c
:102f1800041b1a0020200134e240041ba3405e1e5b
:102f2800b3410024134327e7002ee9d133003400ce
:102f3800c5e7241a0a4803401ee713001ce71300dc
:102f4800cbe60c00002317e7040015e780230400f4
:102f58009b04150010e700231de7c046ffffff7d17
:042f6800fffffffb6d
:020000040000fa
:102f6c00f0b5040087b01d000e0004f0b1ff9e4bbd
:102f7c00220103909b189a681b7b170a1b060021e1
:102f8c0020001f4304f0eefe002d00d16be0002e5c
:102f9c0069d018256543954b5d192b7c002b11d0fe
:102fac00a87b05f069fab0226243914b91499b18ba
:102fbc0080331879da78000210430023220003f0e2
:102fcc00dfffa873b0256543300003f01dfa884b72
:102fdc0002905d192b007b33187803f015fa8649a3
:102fec0001f098f9029900f0dffe02f069fd834ac6
:102ffc00834bfef707fb02f005f8391c00f0d4fefa
:10300c0005f0e0f905ae7c353080287803f0fcf94a
:10301c00794901f07ff9029900f0c6fe02f050fdeb
:10302c00764a774bfef7eefa01f0ecff391c00f014
:10303c00bbfe05f0c7f904237080320071492000f3
:10304c0005f05afc03225521200005f06dfa3d27ae
:10305c003a0020006c4905f056fe0121200004f0d6
:10306c0081fe07b0f0bd03225521200005f072fa55
:10307c00002e4dd0654b9e4256d0300003f096fd8d
:10308c00634a644b00900191fef75efd5b4a5c4b1a
:10309c00fef7b8fa01f0b6ff391c00f085fe5e4968
:1030ac00051c00f081fe05f08df90a2180b202f0ba
:1030bc00cbff89b2281c042900d88de005f082f9d9
:1030cc00013083b20293554a554b00980199fef793
:1030dc003bfd4a4a4a4bfef795fa01f093ff391c27
:1030ec0000f062fe4c49051c00f05efe05f06af92a
:1030fc000a2180b202f0a8ff89b2281c04296ed9db
:10310c0005f060f90130002785b2be42a0d03fe047
:10311c00182201216243354b9b185f780f4061d018
:10312c00200004f039fa93e7182262432f4b9b18c6
:10313c005b78db0748d53b49381c00f035fe364937
:10314c00051c00f031fe05f03df90a2180b202f0b9
:10315c007bff89b2281c042938d905f033f90130da
:10316c0083b23149381c029300f01efe2a49051c1b
:10317c0000f01afe05f026f90a2180b202f064ff75
:10318c0089b2281c042924d905f01cf9013085b218
:10319c00029a2649200005f0bffd039b0d27b34280
:1031ac0000d855e7182201216243104b9b185b781d
:1031bc000b4202d0200004f0eff92a001c49200039
:1031cc0005f0aafd4d2743e71a49b5e705f0faf8d3
:1031dc00c6e705f0f7f8dae705f0f4f871e705f063
:1031ec00f1f890e70f0033e7080300207803002084
:1031fc00c8000020358b00000000c842295c8fc23b
:10320c00f5683840b40800001f080000881300005f
:10321c00666666666666ee3f00002041cdcccccc7f
:10322c00ccccf03fa697424347516143b208000013
:08323c00b8080000064134430c
:020000040000fa
:10324400f7b504000d0004f019fb012834d11f2147
:103254006b045b0f2940002b00d17ce0481e0e2834
:103264002ad805f02dfd082a396c2929292929296c
:10327400292929294f0014236343914ad3189b78a1
:10328400342b0cd03c2b13d0182161438d4b5b188d
:103294005b78db060cd4200005f08afa0ce02000f1
:1032a40005f078fb00221521200004f0d9fd03e08d
:1032b40014235c4315231355f7bd14236343804a39
:1032c4009b5c022b04d0052be5d100220321ebe704
:1032d400200005f05ffbf8e714236343784d5b5d42
:1032e400182b01d0052be7d1200004f0f5fd764b17
:1032f4009842e1d114235c4328232b555a232d19da
:10330400ab70d9e7142363436d495b5c182b09d078
:10331400052b07d01820102660436a4a12185578e6
:10332400354004d014235c4325230b55c4e70f2bed
:10333400c2d1200005f02efb2a003100b4e714238b
:1033440063435f4a9d5c0d2db6d1200005f022fb3e
:1033540026222900a8e7c81e0a28add805f0bafc21
:103364000b002d00acff500066007200acffacfff8
:1033740088002d009c0014252f006743504ef3193c
:1033840001939b78382b05d1200005f003fb3922eb
:10339400172189e7422b04d1200005f0fbfa3322e0
:1033a400d7e70225ab432c2b00d074e7200005f0af
:1033b400f1fa019bbd559d707ee714231f006743fe
:1033c4003f4ef519aa78382a00d064e7aa7bd207c1
:1033d40013d50c290dd1162322003c49642003f097
:1033e400d3fd3b4b24011c19a0711823bb553c236e
:1033f40086e7042900d05fe7f7e7bb5533237fe76f
:10340400142262432e4b9b189b783a2b05d1200043
:1034140005f0c0fa3b22182146e74c2b00d03ae7ce
:10342400200005f0b7fa502222213de7142262431e
:10343400234bd15c052900d02de70221d1549b18e0
:10344400997039e7142262431d4bd25c182a07d0c5
:10345400182161431b4a52185278d20600d41ae745
:10346400142254431b221a5549221b199a7023e72c
:103474001423634312495b5c182b09d0052b07d036
:10348400182262430f4b9b185b78db0600d402e7db
:1034940014235c431f2348e718226243094b9b18fb
:1034a400142259785443064bc90704d50e221a55e1
:1034b4001b192722dae71c221a551b193d22d5e7ce
:1034c400340300207803002088130000fd8b0000e3
:0434d40008030020c9
:020000040000fa
:1034d800f0b5040085b0002104f08af8002120002e
:1034e80004f042fc01229a21200005f01ff808226e
:1034f8007c49200005f01af800227b49200005f0dd
:1035080004fc40227949200005f010f8002278498f
:10351800200005f0fafb83227649200005f006f822
:1035280081227549200005f001f81421200005f0da
:1035380007fc724a02ab024392b214212000da80df
:1035480005f0ecfb802101220901200005f004f8b8
:1035580010236b4a6b49200005f0d0f92301019331
:10356800694b22019d18ab68287b1b0a000618438b
:10357800664900f01bfc04f027ff654982b2200071
:1035880005f0ccfbab68287b1b0a00061843614991
:1035980000f00cfc04f018ff8b2182b20901200016
:1035a80005f0bcfb5c490122200004f0bfffb023fa
:1035b80007266343594fff18b9690e4000d16ae0e6
:1035c800012e29d1082302aa13711423537103234e
:1035d800c9081940200004f0d7fc80210422090101
:1035e800200004f0a3ff0323ba693100d2081a406f
:1035f80002abda802000d2b204f024f80622eb797c
:103608002101934302aad28852001343eb7100238d
:103618003d4a8b5403236b70b025012303aa40490c
:10362800200005f06bf902aa012305323d4920006c
:10363800654305f063f90321200002f021fe374bb2
:1036480039495d192b007e331a78200005f05dfb9f
:1036580002ab9e1d7d2332003380344901232000b4
:1036680005f04cf9012332003149200005f046f9f4
:103678000121200004f078fb6021200003f0b8ff4e
:103688000722ab691340012b1dd10021200003f054
:10369800adfe05b0f0bd0c2302aa1371142331004e
:1036a8002000537105f0b8f801223100200003f022
:1036b800c9ff3100200004f067fc0523124a2101ec
:1036c8008b546e70a8e7182262431a4b1a499b184c
:1036d8000a229b8820005a43002392b2fff742fc3b
:1036e800d7e7c046010800000610000041080000a6
:1036f800071000001108000015080000030600006c
:103708009c8d000022080000080300200000e04112
:103718004e080000000016433f080000c8000020c3
:10372800170800004a0800001908000014080000e3
:0c3738001c08000078030020881300002b
:020000040000fa
:10374400f7b50c2545438d4b04005b199b7a002685
:103754005b074bd524224243894b9b185a8811b2ec
:10376400b14200dbf0e05a791b79120213431bb219
:1037740000936b461b880193df125b053ed505f071
:1037840025f90f231f407f4b5d196b890835db0535
:103794001b0f9f422cd1009bb34229da1e22eb78e7
:1037a40093431a000a231343eb700c236343734db2
:1037b400eb181b7a052b02d0093b012b0bd82000f8
:1037c40005f004f905f0faf90c2300226343eb1821
:1037d4001a7205f0fdf905f0f1f90c2304225c439b
:1037e4002c19a37a9343a37205f0f2f93000febdbd
:1037f4000321200004f08ef80026d6e70f231f4093
:1038040060d1604b5d19ea7a083593060ed50f2115
:10381400d3061b0f0f330b40022b04d81e239a43ed
:1038240008231a43ea70200004f080fa0c2363434f
:10383400544a2425d3182022d97a65430a43da72dc
:1038440086234f4a5b00634352194f485578528888
:10385400c1181a526b469b880d714b80200003f0ef
:1038640089fc0c2211006143464b59184989c9054a
:10387400090f8f425ed1009900295bda2422862544
:10388400022162433e4b6d009b185b8865435b04d9
:103894005b0f9b009c463c4b5d190c206043394bed
:1038a4001818614511db010008314a888b78d2056c
:1038b400db06120f1b0f9a4220d1200004f036fac7
:1038c400082672e705f082f8cbe701278368060033
:1038d400db03db0d5a1cd205d20d4272807a120a28
:1038e400b843024324206043b272254aeb181218ed
:1038f40052181279c9195a71c9b2cee71e22cb786f
:103904001f2593431a00042313430f22cb704b88c3
:10391400db051b0f0133134007221a405101827a41
:103924002a400a4301218272da08c37a8b43134383
:10393400c37261e71e2162439b18da7a8a4311003d
:1039440008220a43da7257e70e4b5d19eb7a99069f
:103954000dd51f210a40052a09d00f22db061b0fb3
:103964000f331340022b05d804f0e0f9102602238c
:103974001e431ae704f0daf9f9e7c0465c030020b5
:0c39840088020020f0020020a8030020b0
:020000040000fa
:10399000f7b5030101938a4b0201d35c0400894d02
:1039a000002b28d1864b9b185b78012b2bd1182636
:1039b0003700200004f00afb00236743ef193b7532
:1039c000b87b04f05ffd0a23bb737b7d002b00d125
:1039d0003b74002701236643ae19b374f07b7775ff
:1039e00004f050fd0a237774f37305f0e9f8f774d7
:1039f00005f0f0f807e0052b05d1714b02019b188b
:103a00005b78022bd3d018236343eb181b7d002b6c
:103a100039d0142363436c4ffa1892781e2a02d0cf
:103a2000db5d122b2fd11826b02331006343614395
:103a3000664a6918d3188033487c1b78984201d3b2
:103a400000238b74b02363436643d218ae197f32d0
:103a5000317c137899422ad30021200004f066fbc0
:103a6000200002f0d7fd002333740523544a2101be
:103a70005218537014232a226343fa541823002245
:103a80006343eb181a7518266643ae19f37c002bb6
:103a90000cd01b0714d50521200000f0ebff071efa
:103aa00009d105f08df8f77405f094f8f7bd200002
:103ab00004f08cfae2e7f07b04f0e4fc0a23f373f1
:103ac000182608226643ae19f37c934313d00621cf
:103ad000200000f0cfff071ee3d00021200003f0fc
:103ae000b5fc04225521200004f03afdb07b04f01f
:103af000c9fc0a23b373142201276243324b9b187b
:103b00009e7b3e403bd109232d4a21011825535469
:103b10008c4613006543634401935e70294b5d1925
:103b20002b7c6f75db19dbb22b74022b13d92000b1
:103b300002f070fd6a782e7405233a421dd00222ed
:103b40001f4920010a54019a5370182363431d4ae8
:103b5000d31800225a752000012103f077fc2000c1
:103b60000422552104f0e6fc05f02af818236343eb
:103b7000144ce4180023e37496e70722e0e71823c7
:103b80006343eb18da7c120706d55a7c60210132b8
:103b90005a74200003f030fd182308216343eb180a
:103ba000da7c8a4302d01a7c01321a74200004f0b5
:103bb00045fb18236343ed18eb7c2b75cbe7c04620
:103bc000080300207803002034030020c8000020f0
:020000040000fa
:103bd000f0b58bb0040001930c2363436b481600cf
:103be000c318da7a0f009206d20f944639d1320404
:103bf00037d5862149006143654d4e536a181f250c
:103c00001771997af601294001259972d97af60d32
:103c1000a943d97280231b021e43019b5680002baf
:103c200004d06346f105c90d8b4213dd0c236343b9
:103c3000119ac5186a60109a0326c250200003f03a
:103c40009bfa1e22eb7a93432a221343eb72300035
:103c50000bb0f0bd0199cd5cd11801334d719bb211
:103c6000e0e70c2363434b4d1199ea185160109a19
:103c70005a5118236343484a9b5c1e22db0700d439
:103c800006224649200005f044f80c23012f44d0b9
:103c9000002f04d0022f47d000273d0004e06343eb
:103ca000ed186d7a6d076d0f6b021e43019a02ab22
:103cb0003100200001f02cfa072201903849200041
:103cc00005f027f8c021019b02aa4901200004f059
:103cd00019fe019a3349200005f01bf888223d4364
:103ce0002a433149200005f014f80c236343294d81
:103cf000eb181b7a092b05d00a2b1cd11f231e4061
:103d00000d2e18d004f05cff0c235c4305232d1905
:103d10002b7204f05fff022699e76343ed186d7a7a
:103d20001027ad066d0fbfe76343eb189d68202792
:103d3000ed036d0fb8e70c236343eb189b7a5b0729
:103d40000dd524226243194b9b185e78002e06d1b4
:103d5000200002f071f8200004f0c4fd77e7144e53
:103d60003100200004f0e7ffc306f9d5200001224e
:103d70000f4904f0ceff04f023ff0c235c4306231d
:103d80002d192b7204f026ff012660e7f0020020b7
:103d9000a80300205c03002078030020411a0000e3
:103da000861a0000031a0000041a0000880200208e
:043db000051a0000f0
:020000040000fa
:103db400f0b5c30f85b0440245000391640a2d0e8b
:103dc4000293019330d0ff2d3ad08023e400db042a
:103dd4007f3d1c4300950027039b5e025d00db0fc3
:103de400760a2d0e039334d0ff2d3cd08022280078
:103df4000025f600d20416437f38039b029a5a40ea
:103e0400009b9c4684446346b80028430138591cef
:103e14000e2833d804f054ff2f2f8c7b7bad8c7b82
:103e2400ad7b8c7a7a7a6b00002c0fd0200004f0e2
:103e340007f97626431f76429c40331a0093cae75b
:103e440000950327002cc7d10227c5e7009401275a
:103e5400c2e7301e0dd004f0f3f8431f9e407623d2
:103e64005b42181ac9e728000325002ec5d1022594
:103e7400c3e70125c1e734002f0048e0b7b2a3b27d
:103e8400200c3c00350c47435c4368435d43230ce2
:103e9400ed195b199f4202d980256d024019a4b225
:103ea4001d042d19ac01671ebc41ad0e25431c0c2d
:103eb4002418a4012c4323013dd5012360081c4090
:103ec40004430d007f35002d37dd630704d00f2335
:103ed4002340042b00d00434230103d580310d008a
:103ee400284b1c40e308fe2d19dd00230ce0802341
:103ef400db031c4204d01e4202d13400039b019315
:103f04008023019adb032343ff2508e0029a022f52
:103f1400ebd0032f31d000231d00012fd1d1580243
:103f2400edb2ed05400ad2072843104305b0f0bdb9
:103f34003400039aa0e76146c3e70120451b1b2d0b
:103f44001ddc23002020eb40451bac40611e8c414e
:103f54002343590704d00f211940042900d0043306
:103f64008025ed041d40db08002dd8d00023012559
:103f7400d5e780240023e403c1e70192c0e70023ce
:083f84001d00cce7fffffff771
:020000040000fa
:103f8c00f0b5040085b00e006b4d0701002966d119
:103f9c0010228421ed19eb7909011343eb710c22ea
:103fac0004f0d8fa842140220901200004f0d2fa4e
:103fbc003100200003f01afb29226049200004f094
:103fcc00abfe8221012702abde1d32000123090169
:103fdc00200004f0a1fc2a7a2f710c2533782a409a
:103fec00042a29d1072293430222822113433370de
:103ffc0032003b000901200004f07efc50490322f2
:10400c00200004f0a7fa3900200002f037f9200054
:10401c00602103f0ebfab02363434a4c4a4ae4189c
:10402c00230090335b6895341b021b0c13402370e8
:10403c001b0a637005b0f0bd382293431022822115
:10404c001343337032003b000901200004f054fc90
:10405c003b492a00200004f07dfa0221d4e7182302
:10406c0043433a4a374ed31801935b7c002b12d052
:10407c00019bd87b04f000fab0236343f318803320
:10408c001879da780002104300232200304902f03c
:10409c0077ff019bd8732a49200004f046feb02319
:1040ac006343f3189a6907231340012b14d1ea19bf
:1040bc0091788c46d1788c4502d9d2791a4210d19c
:1040cc00c3060ed46022ed19eb7993431a004023fa
:1040dc001343eb7108220de0eb199a78db789a42c6
:1040ec00f0d26022ed19eb7993431a00202313438d
:1040fc000422eb7184212000090104f015fab0238d
:10410c006343f3187d331b78012b05d184214022a6
:10411c000901200004f008fab0235c43361933007f
:10412c00802290335b68d2001b021b0c9536134324
:10413c0033701b0a73707de708030020220800000f
:10414c0021080000c8000020fffbffff78030020bf
:04415c00ed8a0000e8
:020000040000fa
:1041600070b5040004f0befb524a5349200004f02d
:10417000d9fd524a5249200004f0d4fdd0215422e6
:104180004901200004f0c5fd200003f091fd4d4ad7
:104190004d49200004f0c6fd64224c49200004f083
:1041a000b8fd5e224a49200004f0b3fdd5210a2360
:1041b000484a4901200004f0a5fb474a474920002e
:1041c00004f0b0fd1823464a4649200004f09afb4b
:1041d0001823454a4549200004f094fb0122444934
:1041e000200004f096fd18236343424d92225b5d4c
:1041f000db0701d5902252008023a0211b021a4325
:104200008901200004f08efd10223b49200004f0bb
:1042100080fd18236343eb5c1e22db0700d40622db
:104220002000364904f075fd20001022344904f0c6
:1042300081f920008822334904f06bfd20008022a0
:10424000314904f066fd20000722304904f061fd89
:10425000200007222e4904f05cfd9021200001225d
:10426000890104f056fd200004222a4904f051fd82
:1042700020001022142104f05df90c220020c0253a
:10428000624325498b18505058601872587a1900ab
:1042900028403f25c0b228405872f0209b7a034046
:1042a0008b721e4b20009a180a23137203f040fdf4
:1042b00070bdc0463c1e00000b1a00009f3200007b
:1042c000071a000080c40000421a0000461a0000cd
:1042d000491a0000308e00009fc80000b01a00008c
:1042e0001c8b000010280000048b00003028000008
:1042f000022800007803002004280000411a000072
:1043000001080000821a0000871a0000811a0000cc
:10431000861a0000891a00005c030020f0020020c9
:020000040000fa
:10432000f0b5c30f85b0440245000391640a2d0e19
:10433000029301930ad0ff2d38d08023e400db04e0
:104340007f3d1c432e00002300930ae0002c33d055
:10435000200003f077fe7626431f9c407642361af3
:104360000095039b5f025d00db0f7f0a2d0e039318
:1043700025d0ff2d2dd0802228000025ff00d2045b
:1043800017437f38039b029a361a5a40009b9800c5
:10439000284301380e2824d804f094fc4e9d639dd8
:1043a000979d634e4e976379797954002e000323cd
:1043b000002cc9d10223c7e726000123c4e7381e19
:1043c0000dd003f03ffe431f9f4076235b42181a37
:1043d000d8e728000325002fd4d10225d2e70125f4
:1043e000d0e764017801844228d31a210123241ada
:1043f000012527005b006400002f01dba04201d8eb
:10440000241a2b4301390029f3d1611e8c411c432e
:1044100031007f3100293cdd630704d00f232340a6
:10442000042b00d00434230103d531002b4b803101
:104430001c40e308fe2921dd002310e0013e1b2182
:104440000023d5e78023db031c4204d01f4202d1a6
:104450003c00039b01938023019adb032343ff214c
:104460000ce03c00039a0095009b022be4d0032b48
:104470002fd00023009819000128c9d15802c9b2d1
:10448000c905400ad2070843104305b0f0bd029a9f
:10449000eae70120411a1b291ddc23002020cb4024
:1044a000411a8c40611e8c412343590704d00f21cf
:1044b0001940042900d004338021c9041940db08c5
:1044c0000029dbd000230121d8e780240023e40366
:1044d000c0e70192bfe700231900cfe7fffffff716
:020000040000fa
:1044e000f0b58fb006ac0aaf01900d00029200212a
:1044f0000e22200004f05afc0e220021380004f0a5
:1045000055fcb021019b534e5943731870331b78ef
:104510006d041c31180089193a006d0f039301f0e6
:1045200089fa22000299280001f084fa7b78019a26
:104530009c462c2353433a78634404926a000592c4
:10454000002206339b00f61873689e059f0ab60d7d
:1045500005998a421cd10132a3180493039b019a46
:104560005b000133e318039306ab5c1c2c235a4316
:104570009446049b9c423cd02178029a8b009a5826
:1045800006ab970a5d1c039b9d4236d10234f0e7cf
:10459000a15c049881422ed3a1184978029d88001d
:1045a0004059850a7d40ad0525d18005800db0427a
:1045b00021d3182201985c0842432748274d8218ce
:1045c0008020800420409c022c40204301310907b8
:1045d00006430e43d38099051b0c13816346568115
:1045e000890d360c013396819180d370019803f0c8
:1045f0004dfa0fb0f0bd0232aae763462e78154897
:104600009b1906339b00c3185b680235980a7840f3
:104610008005b8d118208027019c950260430e4c7c
:104620005b0820180d4cbf0425409405a40d2543bc
:1046300001313b402b430d078021c90429430b4323
:104640004381c2801b0c120c01368381848002815d
:10465000c670cbe7c80000207803002000fc0f00e4
:020000040000fa
:104660000c23f0b54343504f0400fb18d87a85b0b3
:10467000830618d5c006000f0238082813d804f0a6
:1046800021fb0512303c1212837488000c2565430f
:104690007f190837fa785606f60f06d01e239a437c
:1046a00014231a43fa7005b0f0bd200003f04cf853
:1046b0008621490061433d4b02005b1819793c4b50
:1046c000200001933b4b00933300fff781fa1e2239
:1046d000fb7893430622012800d008221343fb7085
:1046e000e1e70c226243344b20009b180222997aa6
:1046f0000a439a7203f01cfbd5e70c26350065438c
:104700007d190835eb785a0605d51e2293431422ed
:104710001343eb70c7e7862040006043234f69884e
:104720003b185a889c46c905244b090f1a40cb02f6
:104730001a4313041a2251430393431dc25b5b18af
:1047400003991f480a436146097901901d48db1906
:1047500000902000fff73cfa1e22eb7893430128db
:1047600001d13343d5e71026fbe70c2565437f19bc
:1047700008377b880121db051b0f06d01e22fb7842
:1047800093431a001023a9e70321200003f0c4f883
:1047900089e70c25200003f0cbfa40226c433f1937
:1047a000fb7a9343fb727ee7f0020020a80300200f
:1047b00001000400357200005c030020ff87ffff4a
:0847c0000a070808016200006d
:020000040000fa
:1047c800f0b50e2785b000236a46d4216f441373d1
:1047d80053733b7003aa01234901040003f04cfc06
:1047e8006b4601251b7b2b4254d00d222b006a44bb
:1047f8004549200003f040fc2b003a0043492000c3
:1048080003f03afc6b460f265a7b3b786e44134004
:10481800337032002b003c49200003f09ffc3278b3
:104828003b4e2a4203d00c236343f3181d729307af
:1048380004d50c2303216343f3181972530704d5d5
:104848000c2302216343f3181972130704d50c23b0
:1048580004226343f3181a720c252b006343f318e0
:104868001b7a042b02d0200001f0e2fa6543775945
:10487800002f0ad075196968080c0a0ac3b2000a21
:104888000090d2b2c9b22000b8470c236343f6188f
:10489800002333726b461b7b9b0732d50d220e26f5
:1048a80001236a441b4920006e4403f0e5fb012301
:1048b80032001949200003f0dffb6b460f255a7bb5
:1048c80033786d4413402b702a00012311492000ce
:1048d80003f044fc2b787f2b02d9200003f004fa64
:1048e80008222b7813420cd00c216143084b20007e
:1048f8005b189b1899780a4310218a439a7004f030
:104908008df905b0f0bdc046811a0000861a000076
:0c4918005c030020821a0000871a0000d7
:020000040000fa
:10492400f7b5e022494c52000021200004f03cfa83
:1049340001236370464b1022a381464bbe21e381c1
:10494400bc235b00e254d132ff320233e2523c23f7
:10495400002749006352023162520231635202312c
:1049640062525c3aa3523c4e3c4c3922231f1a60db
:104974003b4b002523603b4b042263603a4b2000f1
:10498400a3603a4b2561e360230054336561a5615c
:1049940021001a7038301022019304f0aff9019b02
:1049a40001211a78230087331a7022000420583218
:1049b400323b1d705d709970507020009570d570f9
:1049c40015715571022373255e301370457055259a
:1049d40005228570b025037123000270c170032085
:1049e4007d43633318705870184b5b19102583335b
:1049f4001d7027255d7023006b33187020000c2375
:104a04006c3042702200037020206e32107004203b
:104a140050700620d0700720507108209071092032
:104a240093701371d071137253729372f022213305
:104a3400ff33f3807b000b437f1832807280b28097
:104a44003372b0340c36022f8fd1f7bdc80000206a
:104a54001c3000002404000050020020e400002068
:104a64002c9101082cd102002cb104002c41060029
:020000040000fa
:104a740010b50400481e082811d804f021f9051fb8
:104a8400431098986787770001220221200003f0e1
:104a9400b9ffbc22474b52009a5cd20601d40020d5
:104aa40086e00c22012162439b189133ff331b786b
:104ab4000b42f4d02000fdf731fcf0e70022022184
:104ac400200003f09fff00220221200003f0a7ff33
:104ad40000220221200003f0afff01220221200066
:104ae40003f0b7ffbc22334b52009a5cd206d6d5f2
:104af4000c2262439b189133ff331b78db07ced51e
:104b04000221d7e700220221200003f07bff0022cc
:104b14000221200003f083ff00220221200003f081
:104b24008bff00220221200003f093ffbc22214bc3
:104b340052009a5cd206b2d50c2262439b18913380
:104b4400ff331b78db07aad50321b3e7bc22194b3b
:104b540052009a5cd206a2d50c2262439b18913370
:104b6400ff331b78db079ad50721a3e7bc22114b3f
:104b740052009a5cd20692d50c2262439b18913360
:104b8400ff331b78db078ad5092193e7bc22094b45
:104b940052009a5cd20682d50c2262439b18913350
:104ba400ff331b78db0700d479e7082182e7012073
:084bb40010bdc046c80000203e
:020000040000fa
:104bbc0070b5464d6b7b002b1cd002222b8a444ccb
:104bcc00134218d02277237f5bb2013300d06ee002
:104bdc0000232377c0236a689b0213436b602b8ae4
:104bec001bb2002bfbdb0323ab73236a002b01d01e
:104bfc00606a984770bd0123298a194203d0ff23ac
:104c0c0023776277dfe70422298a114003d0ff2241
:104c1c0022776377d7e7227f52b2032a31d0042a56
:104c2c000ad0022acfd1e2682088002a02d002f0f2
:104c3c005ffcc8e71900fae76269e1688a421ad199
:104c4c002269002a0bd003222188227749000b43ca
:104c5c00dbb22b752b8a1bb2002bfbdbb3e7c0231b
:104c6c006a689b0213436b602b8a1bb2002bfbdb25
:104c7c0005232377a7e7531c636163689b5c2b7642
:104c8c00a1e72269a369013a93420ad1e02269683b
:104c9c00d2020a436a602a8a12b2002afbdb05227e
:104cac0022775a1ca2612a7ea168ca548be7237f03
:104cbc00052b9fd100232377637703233022ab731b
:104ccc002b8a1340102bfbd18fe7c04600140042f7
:044cdc00140600209a
:020000040000fa
:104ce0008222f0b5c7b05200002104000f2605a8ab
:104cf00004f05cf8002320006e443370fff7b0fc32
:104d000003f05eff142363433b4dea18517c0029f6
:104d10000fd018206043394909184978c9075cd574
:104d20000a21595516239370142300226343eb186c
:104d30005a7403f04fff200003f01afb002304aa6b
:104d40000093310005ab200000f04cfa0a23184212
:104d500029d018226243294bd75c049bb9088c46a2
:104d6000032160460840844624489b098218194064
:104d70000c208c4535d951789b00814303400b436f
:104d80005370200002f094ff142363430499eb183e
:104d9000da1dd9710b0a53700b0c93700b0ed37084
:104da0002000fef74ffa142363431822ed18632303
:104db00062436b70114b9b185b783278db0714d51c
:104dc000049b05a92000fbf77df93278049b05a917
:104dd0002000fdf7c9fd47b0f0bd1a215955452304
:104de000a1e751783b008143c8e7049b05a9200057
:104df000fdf7c2f8e9e7c04634030020780300203d
:020000040000fa
:104e0000f0b585b001900292002901d0002805d1ab
:104e1000002083423bd0029a824238d00720384c8f
:104e200065680540ac4609d0002902d00020ca07b9
:104e30002dd4002b02d00020da0728d40198451e7b
:104e4000a841404201400298451ea8410425404225
:104e50000340a07b28401cd1268a354325829942f5
:104e600000d2581a6546002d02d05b084908400858
:104e70000125a67b2e42fcd000252e008e420ad1b1
:104e800000281dd10223a27b1a42fcd0012005b0cc
:104e9000f0bd208bdde76246771c002a0ad1019a1b
:104ea000965d26833e00002b13d10122a77b17427b
:104eb000fbd0e3e7019a7600b65af605f60df0e767
:104ec0006246002a03d1ff2222830138ebe70d4a14
:104ed000fae70422a77b1742fbd0278bbfb29d4283
:104ee000ccd26a1c03926246002a03d1029a57551b
:104ef000039dc3e7ff05029a6d00ff0daf52f7e770
:084f000000080042ff0100005f
:020000040000fa
:104f0800f7b5537814781b021c439378d1781b04a7
:104f180023431b039b0d00932c2343434906490f4e
:104f28005b18354e13339b00f3185b68009f9c0594
:104f3800a40d0025a7425bd8a94259d0b027474302
:104f4800f619a33636788e4252d3142747432b4e90
:104f5800f6190127b67b76093e4001960601b4464c
:104f6800274e6644f6793e40019fbe43254fbc4616
:104f7800ae423fd0182646436644b688009fbe42dc
:104f88006d412e00edb2012e32d1182646431f0c7a
:104f98006644f3803781f1705178177809020f431e
:104fa8009178d2780904394312060a437281120ca7
:104fb800b281b0267043104e210a361832009d3255
:104fc800517032211803800d1470484301f002f823
:104fd8003200fa219b3283b213701b0a537060436c
:104fe800490000f08ffb993680b23070000a70706b
:104ff8002800febd0125c8e7c800002034030020b2
:085008000803002078030020da
:020000040000fa
:10501000f0b50e034d00430f6d0d760a1e436b1c59
:105020005b05c90fc2005b0d012b52dd344bec1840
:10503000fe2c5ddc002c27dc230017335bdb802398
:105040001e271b041e433f1b1f2f0cdc2d4b100083
:10505000ed18aa401300ae405a1e9341f840334366
:105060000343002417e002204042041b3000e040cc
:105070000024202f03d03400234bed18ac402243f2
:1050800013005a1e9341ebe78001431e9841520fd3
:105090000243f30013435a0704d00f221a40042a94
:1050a00000d004335a0104d50134ff2c25d0174a0f
:1050b0001340db08ff2c04d1002b02d08022d20346
:1050c00013435b02e4b2e405580ac90720430843ce
:1050d000f0bd13003343002d02d15a1e9341c0e7a7
:1050e000ff24002bd7d08023f6009b043343d2e764
:1050f0000023ff24cfe70123b3e70023d9e7c0460d
:1051000080fcffff82fcffffa2fcfffffffffffb15
:020000040000fa
:10511000f7b5802636020d0001921f000e401cd10b
:1051200034004b045b0f9b002a0a3d707a7001200b
:105130002a0403d50320be70360afe70019ac318f4
:10514000dbb2002a42d1030000212218d2b29342de
:105150003fd101340019c0b2febd80240b0ce40025
:105160009eb21c4027d10c2242431c488018418922
:10517000827ac905d206090f120f91421fd1d805b4
:10518000c00d1a2100f00cfb002917d00320cbb270
:10519000023108408910cab2002804d00424013228
:1051a000241ae4b2d2b20e48120328402d0c024356
:1051b0002d041543b8e702240023b5e70c001a2399
:1051c000b2e711780130c0b2395401329842f8d1b7
:1051d000b9e70133dbb2f954b9e7c046f002002069
:0451e000ff8f00003d
:020000040000fa
:1051e400f7b50e00170004001d00fef7a9fa6a4681
:1051f400d080d1888446002909d10c2262432a4bed
:105204009b189b7a9a0702d408001b071ed502221a
:105214006346134021d024226243244b9b185a78be
:1052240032705a883a60002d08d0002007279e1c4f
:10523400328812133a409200904208db089bcdb2a8
:10524400002b02d02900200098472800febd1a1820
:1052540012792a54013080b2eae76046000716d575
:10526400862040006043124a12181079307010688a
:105274003860971c002de1d03888c005c00d8342ea
:10528400dcdad0184079e85401339bb2f4e70c21fe
:105294006143054b5b18987a042108338507cdd503
:1052a400904398701021c9e75c0300208802002015
:0452b400a80300202b
:020000040000fa
:1052b800264a2749136a194002230b43136208231d
:1052c800d1681942fcd0002322499361224b5960ce
:1052d80022499960597849b20029fbdb8020918cda
:1052e800814391841021d0680842fcd01c49086889
:1052f800800e3f2800d11f201a49800209688905bd
:10530800890d014391628221c90159801649d162f0
:10531800164991844021d0680842fcd0144a5a604a
:105328005a7852b2002afbdb124a5a800a325a8053
:1053380001325a8002325a8003325a801f220e4ba1
:105348005a61da610d4a1a627047c0460008004087
:105358000000ffcf01060100000c004001fa000028
:105368002460800028608000dc05140046020000ec
:105378000007010003400000000400402401010070
:020000040000fa
:10538800f0b500242c4d85b0200002f039ff2b68c1
:105398009b0634d500230a201a00190001f0f2fdfb
:1053a8000700264bc2009b18063301933022019b4d
:1053b8001b781340202b1fd003ae042332000e218c
:1053c800200003f0abfa3378022b2fd104233200ec
:1053d8001900200003f0a2fa32782b68242a21d180
:1053e8007278042a1ed1b278502a1bd1f278032a87
:1053f80018d1202213432b60380003f03ff8013402
:10540800e4b2b035022cbfd120220d4b99690a4075
:1054180000d19a612022c83319680a4000d11a6065
:1054280005b0f0bd202293432b60bfe720232a68f4
:105438009a431300f8e7c046e0000020c4050020a6
:04544800c800002078
:020000040000fa
:10544c0070b5fff769fa03f037fa050003f0e0fcda
:10545c0028400125054003f0e0fc254c002d03d12c
:10546c002023a2699a43a261002003f099fb002d2e
:10547c0005d122002023c832116899431160012004
:10548c0003f08efb03f008fafff778ff02f02cf91b
:10549c0003f090fba3699b0605d5002001f006fee6
:1054ac00002001f033fe2300c8331b689b0605d592
:1054bc00012001f0fbfd012001f028fea3699b06f1
:1054cc0005d5002001f038ff002000f0bff9c834ea
:1054dc0023689b0605d5012001f02eff012000f06a
:1054ec00b5f902f0d7fc03f06ffb280070bdc04685
:0454fc00c8000020c4
:020000040000fa
:10550000f7b52b4d0601aa199178d3780190745df7
:1055100057784b40202b31d013d8022b0bd8002bbf
:1055200035d00123aa19d1790b43d371002c04d1b2
:105530000027012401e0082bf3d0ac55ad196f70a2
:10554000f7bd402b1ad00ed8222bf6d80123aa196a
:10555000d17901980b43d37103f08cfb022c05d158
:1055600000270324e9e7482bf0d0e6e7012ce4d13b
:105570000027019803f0f6fa3c00dee7022cdcd0ad
:105580000124aa19d3790027a343d371d5e713794e
:105590008b42cbd00029c9d10121d37901988b430b
:1055a000d37103f067fb012ce2d0022cc5d1d7e701
:0455b00008030020cc
:020000040000fa
:1055b400f0b54d006d0dac4685b01d035e00db0fec
:1055c4000193264b0c030290240bc90f03922d0b5d
:1055d400760d9c4503d12700022307432dd11f4b91
:1055e4009e4203d12f000223174326d1002763468e
:1055f400bb4203d1204347424741ffb2002e01d1b1
:105604002a431dd0002f1fd0019b013b01200343df
:1056140013e0b44501da4b1ef8e7ac4219d809d1be
:10562400029b039a934214d8029a03983b00824245
:10563400f1d302e03b00ac42edd3180005b0f0bd5d
:105644003300002ff9d104e0019b994201d1b44504
:10565400dfdd012349420b43efe7c046ff070000ab
:020000040000fa
:10566400f8b50700b02314007b43244a0803800dd7
:10567400d3189b33020a18705a7001f061fa20495a
:10568400fef74cfe3e011f4d230126d52403b02313
:105694007b431a4aa40dd3189d33220a1c705a70f6
:1056a40002f094fe6043192180b200f095fcab191e
:1056b4009c8880b258801a7b0421a0421bd85c804d
:1056c4000a431a73b0235f430c4bad19df19ab784f
:1056d40099373b70eb787b70f8bdaa19630104d548
:1056e4000823117b0b431373d0e70821137ba40514
:1056f4008b431373cbe78a43e3e7c046c80000201b
:085704000000a041d0020020ca
:020000040000fa
:10570c00002941d010b4041c4c40a44601230022b3
:10571c00002900d54942002800d5404288422cd3ac
:10572c0001242407a14204d2814202d209011b01a7
:10573c00f8e7e400a14204d2814202d249005b00a6
:10574c00f8e7884201d3401a1a434c08a04202d30e
:10575c00001b5c0822438c08a04202d3001b9c084f
:10576c002243cc08a04202d3001bdc0822430028b1
:10577c0003d01b0901d00909e3e7101c6446002c77
:10578c0000d5404210bc704701b5002003f072fbfd
:10579c0002bdc0460029f7d003b5fff7b3ff0ebc1e
:0857ac004243891a1847c04668
:020000040000fa
:1057b4000123254a30b511780b43137053785bb23b
:1057c400002bfbdb88239b019361dd231b06d36144
:1057d4001e4b022053610c23d3601d4b03255c1c1c
:1057e400e0771c002c3425701c0010213834217003
:1057f4001c00443421701c00503421701c005c34a3
:1058040021701c00683421701c00743421701c0049
:10581400803421701c008c3421701c009834217059
:105824001c00a43419721975217019000e24b031aa
:105834000c700f21bc33197013781843107053780f
:105844005bb2002bfbdb30bd001800400cc0000035
:045854000000002030
:020000040000fa
:1058580037b5b0224243204b04009b181a00032599
:105868008733883219781278002302f08bfe03f010
:10587800adf91a4b01a91c5d02222000019502f026
:1058880041fd174b01a902222000019302f03afdc5
:10589800012301a902222000019302f033fd114bdc
:1058a8002a0001a92000019302f02cfd21232a00df
:1058b80001a92000019302f025fd0b4b01a902224a
:1058c8002000019302f01efd084b022201a92000ce
:1058d800019302f017fd3ebdc80000207a8e00003b
:1058e800d8ff00002942b000d83f0000d13f000097
:020000040000fa
:1058f800f7b51e035c00db0f0093244b0d034f002c
:1059080084462d0b7f0dc90f0192360b640d9f4203
:1059180002d12b0003432bd11c4b9c4202d13300f4
:10592800134325d100239f4203d1284343424341d7
:10593800dbb2002c01d132431dd0002b1fd00098c0
:105948000138012103e0a74203da012001390843a5
:105958000de0b54218d807d1019a944514d818001b
:10596800019b9c45f1d302e01800b542edd3febd82
:1059780002204042fbe72000002bf8d104e0009a07
:10598800914201d1a742dedd4842dae7ff07000075
:020000040000fa
